{
  "address": "0xc6B03Ba05Fb5E693D8b3533aa676FB4AFDd7DDc7",
  "abi": [
    {
      "inputs": [
        {
          "internalType": "address",
          "name": "_lzEndpoint",
          "type": "address"
        },
        {
          "internalType": "address",
          "name": "_contributors",
          "type": "address"
        },
        {
          "internalType": "address",
          "name": "_investors",
          "type": "address"
        },
        {
          "internalType": "address",
          "name": "_lbp",
          "type": "address"
        },
        {
          "internalType": "address",
          "name": "_airdrop",
          "type": "address"
        },
        {
          "internalType": "uint16",
          "name": "_governanceChainId",
          "type": "uint16"
        }
      ],
      "stateMutability": "nonpayable",
      "type": "constructor"
    },
    {
      "anonymous": false,
      "inputs": [
        {
          "indexed": true,
          "internalType": "address",
          "name": "owner",
          "type": "address"
        },
        {
          "indexed": true,
          "internalType": "address",
          "name": "spender",
          "type": "address"
        },
        {
          "indexed": false,
          "internalType": "uint256",
          "name": "value",
          "type": "uint256"
        }
      ],
      "name": "Approval",
      "type": "event"
    },
    {
      "anonymous": false,
      "inputs": [
        {
          "indexed": true,
          "internalType": "address",
          "name": "_from",
          "type": "address"
        },
        {
          "indexed": false,
          "internalType": "uint256",
          "name": "_amount",
          "type": "uint256"
        }
      ],
      "name": "Burned",
      "type": "event"
    },
    {
      "anonymous": false,
      "inputs": [
        {
          "indexed": true,
          "internalType": "uint16",
          "name": "_srcChainId",
          "type": "uint16"
        },
        {
          "indexed": false,
          "internalType": "bytes",
          "name": "_srcAddress",
          "type": "bytes"
        },
        {
          "indexed": false,
          "internalType": "uint64",
          "name": "_nonce",
          "type": "uint64"
        },
        {
          "indexed": false,
          "internalType": "bytes32",
          "name": "_hash",
          "type": "bytes32"
        }
      ],
      "name": "CallOFTReceivedSuccess",
      "type": "event"
    },
    {
      "anonymous": false,
      "inputs": [
        {
          "indexed": true,
          "internalType": "address",
          "name": "old",
          "type": "address"
        },
        {
          "indexed": true,
          "internalType": "address",
          "name": "_new",
          "type": "address"
        }
      ],
      "name": "ConservatorUpdated",
      "type": "event"
    },
    {
      "anonymous": false,
      "inputs": [
        {
          "indexed": false,
          "internalType": "uint256",
          "name": "_old",
          "type": "uint256"
        },
        {
          "indexed": false,
          "internalType": "uint256",
          "name": "_new",
          "type": "uint256"
        }
      ],
      "name": "GovernanceChainIdentifierUpdated",
      "type": "event"
    },
    {
      "anonymous": false,
      "inputs": [
        {
          "indexed": false,
          "internalType": "uint16",
          "name": "_srcChainId",
          "type": "uint16"
        },
        {
          "indexed": false,
          "internalType": "bytes",
          "name": "_srcAddress",
          "type": "bytes"
        },
        {
          "indexed": false,
          "internalType": "uint64",
          "name": "_nonce",
          "type": "uint64"
        },
        {
          "indexed": false,
          "internalType": "bytes",
          "name": "_payload",
          "type": "bytes"
        },
        {
          "indexed": false,
          "internalType": "bytes",
          "name": "_reason",
          "type": "bytes"
        }
      ],
      "name": "MessageFailed",
      "type": "event"
    },
    {
      "anonymous": false,
      "inputs": [
        {
          "indexed": true,
          "internalType": "address",
          "name": "_by",
          "type": "address"
        },
        {
          "indexed": true,
          "internalType": "address",
          "name": "_to",
          "type": "address"
        },
        {
          "indexed": false,
          "internalType": "uint256",
          "name": "_amount",
          "type": "uint256"
        }
      ],
      "name": "Minted",
      "type": "event"
    },
    {
      "anonymous": false,
      "inputs": [
        {
          "indexed": true,
          "internalType": "address",
          "name": "_old",
          "type": "address"
        },
        {
          "indexed": true,
          "internalType": "address",
          "name": "_new",
          "type": "address"
        }
      ],
      "name": "MinterUpdated",
      "type": "event"
    },
    {
      "anonymous": false,
      "inputs": [
        {
          "indexed": false,
          "internalType": "address",
          "name": "_address",
          "type": "address"
        }
      ],
      "name": "NonContractAddress",
      "type": "event"
    },
    {
      "anonymous": false,
      "inputs": [
        {
          "indexed": true,
          "internalType": "address",
          "name": "previousOwner",
          "type": "address"
        },
        {
          "indexed": true,
          "internalType": "address",
          "name": "newOwner",
          "type": "address"
        }
      ],
      "name": "OwnershipTransferred",
      "type": "event"
    },
    {
      "anonymous": false,
      "inputs": [
        {
          "indexed": false,
          "internalType": "bool",
          "name": "oldState",
          "type": "bool"
        },
        {
          "indexed": false,
          "internalType": "bool",
          "name": "newState",
          "type": "bool"
        }
      ],
      "name": "PausedUpdated",
      "type": "event"
    },
    {
      "anonymous": false,
      "inputs": [
        {
          "indexed": true,
          "internalType": "uint16",
          "name": "_srcChainId",
          "type": "uint16"
        },
        {
          "indexed": true,
          "internalType": "address",
          "name": "_to",
          "type": "address"
        },
        {
          "indexed": false,
          "internalType": "uint256",
          "name": "_amount",
          "type": "uint256"
        }
      ],
      "name": "ReceiveFromChain",
      "type": "event"
    },
    {
      "anonymous": false,
      "inputs": [
        {
          "indexed": false,
          "internalType": "uint16",
          "name": "_srcChainId",
          "type": "uint16"
        },
        {
          "indexed": false,
          "internalType": "bytes",
          "name": "_srcAddress",
          "type": "bytes"
        },
        {
          "indexed": false,
          "internalType": "uint64",
          "name": "_nonce",
          "type": "uint64"
        },
        {
          "indexed": false,
          "internalType": "bytes32",
          "name": "_payloadHash",
          "type": "bytes32"
        }
      ],
      "name": "RetryMessageSuccess",
      "type": "event"
    },
    {
      "anonymous": false,
      "inputs": [
        {
          "indexed": true,
          "internalType": "uint16",
          "name": "_dstChainId",
          "type": "uint16"
        },
        {
          "indexed": true,
          "internalType": "address",
          "name": "_from",
          "type": "address"
        },
        {
          "indexed": true,
          "internalType": "bytes32",
          "name": "_toAddress",
          "type": "bytes32"
        },
        {
          "indexed": false,
          "internalType": "uint256",
          "name": "_amount",
          "type": "uint256"
        }
      ],
      "name": "SendToChain",
      "type": "event"
    },
    {
      "anonymous": false,
      "inputs": [
        {
          "indexed": false,
          "internalType": "uint16",
          "name": "_dstChainId",
          "type": "uint16"
        },
        {
          "indexed": false,
          "internalType": "uint16",
          "name": "_type",
          "type": "uint16"
        },
        {
          "indexed": false,
          "internalType": "uint256",
          "name": "_minDstGas",
          "type": "uint256"
        }
      ],
      "name": "SetMinDstGas",
      "type": "event"
    },
    {
      "anonymous": false,
      "inputs": [
        {
          "indexed": false,
          "internalType": "address",
          "name": "precrime",
          "type": "address"
        }
      ],
      "name": "SetPrecrime",
      "type": "event"
    },
    {
      "anonymous": false,
      "inputs": [
        {
          "indexed": false,
          "internalType": "uint16",
          "name": "_remoteChainId",
          "type": "uint16"
        },
        {
          "indexed": false,
          "internalType": "bytes",
          "name": "_path",
          "type": "bytes"
        }
      ],
      "name": "SetTrustedRemote",
      "type": "event"
    },
    {
      "anonymous": false,
      "inputs": [
        {
          "indexed": false,
          "internalType": "uint16",
          "name": "_remoteChainId",
          "type": "uint16"
        },
        {
          "indexed": false,
          "internalType": "bytes",
          "name": "_remoteAddress",
          "type": "bytes"
        }
      ],
      "name": "SetTrustedRemoteAddress",
      "type": "event"
    },
    {
      "anonymous": false,
      "inputs": [
        {
          "indexed": false,
          "internalType": "bool",
          "name": "_useCustomAdapterParams",
          "type": "bool"
        }
      ],
      "name": "SetUseCustomAdapterParams",
      "type": "event"
    },
    {
      "anonymous": false,
      "inputs": [
        {
          "indexed": true,
          "internalType": "address",
          "name": "from",
          "type": "address"
        },
        {
          "indexed": true,
          "internalType": "address",
          "name": "to",
          "type": "address"
        },
        {
          "indexed": false,
          "internalType": "uint256",
          "name": "value",
          "type": "uint256"
        }
      ],
      "name": "Transfer",
      "type": "event"
    },
    {
      "inputs": [],
      "name": "DEFAULT_PAYLOAD_SIZE_LIMIT",
      "outputs": [
        {
          "internalType": "uint256",
          "name": "",
          "type": "uint256"
        }
      ],
      "stateMutability": "view",
      "type": "function"
    },
    {
      "inputs": [],
      "name": "INITIAL_SUPPLY",
      "outputs": [
        {
          "internalType": "uint256",
          "name": "",
          "type": "uint256"
        }
      ],
      "stateMutability": "view",
      "type": "function"
    },
    {
      "inputs": [],
      "name": "NO_EXTRA_GAS",
      "outputs": [
        {
          "internalType": "uint256",
          "name": "",
          "type": "uint256"
        }
      ],
      "stateMutability": "view",
      "type": "function"
    },
    {
      "inputs": [],
      "name": "PT_SEND",
      "outputs": [
        {
          "internalType": "uint8",
          "name": "",
          "type": "uint8"
        }
      ],
      "stateMutability": "view",
      "type": "function"
    },
    {
      "inputs": [],
      "name": "PT_SEND_AND_CALL",
      "outputs": [
        {
          "internalType": "uint8",
          "name": "",
          "type": "uint8"
        }
      ],
      "stateMutability": "view",
      "type": "function"
    },
    {
      "inputs": [],
      "name": "WEEK",
      "outputs": [
        {
          "internalType": "uint256",
          "name": "",
          "type": "uint256"
        }
      ],
      "stateMutability": "view",
      "type": "function"
    },
    {
      "inputs": [
        {
          "internalType": "address",
          "name": "owner",
          "type": "address"
        },
        {
          "internalType": "address",
          "name": "spender",
          "type": "address"
        }
      ],
      "name": "allowance",
      "outputs": [
        {
          "internalType": "uint256",
          "name": "",
          "type": "uint256"
        }
      ],
      "stateMutability": "view",
      "type": "function"
    },
    {
      "inputs": [
        {
          "internalType": "address",
          "name": "spender",
          "type": "address"
        },
        {
          "internalType": "uint256",
          "name": "amount",
          "type": "uint256"
        }
      ],
      "name": "approve",
      "outputs": [
        {
          "internalType": "bool",
          "name": "",
          "type": "bool"
        }
      ],
      "stateMutability": "nonpayable",
      "type": "function"
    },
    {
      "inputs": [
        {
          "internalType": "address",
          "name": "account",
          "type": "address"
        }
      ],
      "name": "balanceOf",
      "outputs": [
        {
          "internalType": "uint256",
          "name": "",
          "type": "uint256"
        }
      ],
      "stateMutability": "view",
      "type": "function"
    },
    {
      "inputs": [
        {
          "internalType": "uint16",
          "name": "_srcChainId",
          "type": "uint16"
        },
        {
          "internalType": "bytes",
          "name": "_srcAddress",
          "type": "bytes"
        },
        {
          "internalType": "uint64",
          "name": "_nonce",
          "type": "uint64"
        },
        {
          "internalType": "bytes32",
          "name": "_from",
          "type": "bytes32"
        },
        {
          "internalType": "address",
          "name": "_to",
          "type": "address"
        },
        {
          "internalType": "uint256",
          "name": "_amount",
          "type": "uint256"
        },
        {
          "internalType": "bytes",
          "name": "_payload",
          "type": "bytes"
        },
        {
          "internalType": "uint256",
          "name": "_gasForCall",
          "type": "uint256"
        }
      ],
      "name": "callOnOFTReceived",
      "outputs": [],
      "stateMutability": "nonpayable",
      "type": "function"
    },
    {
      "inputs": [],
      "name": "circulatingSupply",
      "outputs": [
        {
          "internalType": "uint256",
          "name": "",
          "type": "uint256"
        }
      ],
      "stateMutability": "view",
      "type": "function"
    },
    {
      "inputs": [],
      "name": "conservator",
      "outputs": [
        {
          "internalType": "address",
          "name": "",
          "type": "address"
        }
      ],
      "stateMutability": "view",
      "type": "function"
    },
    {
      "inputs": [
        {
          "internalType": "uint16",
          "name": "",
          "type": "uint16"
        },
        {
          "internalType": "bytes",
          "name": "",
          "type": "bytes"
        },
        {
          "internalType": "uint64",
          "name": "",
          "type": "uint64"
        }
      ],
      "name": "creditedPackets",
      "outputs": [
        {
          "internalType": "bool",
          "name": "",
          "type": "bool"
        }
      ],
      "stateMutability": "view",
      "type": "function"
    },
    {
      "inputs": [],
      "name": "decimals",
      "outputs": [
        {
          "internalType": "uint8",
          "name": "",
          "type": "uint8"
        }
      ],
      "stateMutability": "pure",
      "type": "function"
    },
    {
      "inputs": [
        {
          "internalType": "address",
          "name": "spender",
          "type": "address"
        },
        {
          "internalType": "uint256",
          "name": "subtractedValue",
          "type": "uint256"
        }
      ],
      "name": "decreaseAllowance",
      "outputs": [
        {
          "internalType": "bool",
          "name": "",
          "type": "bool"
        }
      ],
      "stateMutability": "nonpayable",
      "type": "function"
    },
    {
      "inputs": [],
      "name": "dso_supply",
      "outputs": [
        {
          "internalType": "uint256",
          "name": "",
          "type": "uint256"
        }
      ],
      "stateMutability": "view",
      "type": "function"
    },
    {
      "inputs": [],
      "name": "emissionsStartTime",
      "outputs": [
        {
          "internalType": "uint256",
          "name": "",
          "type": "uint256"
        }
      ],
      "stateMutability": "view",
      "type": "function"
    },
    {
      "inputs": [],
      "name": "emitForWeek",
      "outputs": [
        {
          "internalType": "uint256",
          "name": "",
          "type": "uint256"
        }
      ],
      "stateMutability": "nonpayable",
      "type": "function"
    },
    {
      "inputs": [
        {
          "internalType": "uint16",
          "name": "_dstChainId",
          "type": "uint16"
        },
        {
          "internalType": "bytes32",
          "name": "_toAddress",
          "type": "bytes32"
        },
        {
          "internalType": "uint256",
          "name": "_amount",
          "type": "uint256"
        },
        {
          "internalType": "bytes",
          "name": "_payload",
          "type": "bytes"
        },
        {
          "internalType": "uint64",
          "name": "_dstGasForCall",
          "type": "uint64"
        },
        {
          "internalType": "bool",
          "name": "_useZro",
          "type": "bool"
        },
        {
          "internalType": "bytes",
          "name": "_adapterParams",
          "type": "bytes"
        }
      ],
      "name": "estimateSendAndCallFee",
      "outputs": [
        {
          "internalType": "uint256",
          "name": "nativeFee",
          "type": "uint256"
        },
        {
          "internalType": "uint256",
          "name": "zroFee",
          "type": "uint256"
        }
      ],
      "stateMutability": "view",
      "type": "function"
    },
    {
      "inputs": [
        {
          "internalType": "uint16",
          "name": "_dstChainId",
          "type": "uint16"
        },
        {
          "internalType": "bytes32",
          "name": "_toAddress",
          "type": "bytes32"
        },
        {
          "internalType": "uint256",
          "name": "_amount",
          "type": "uint256"
        },
        {
          "internalType": "bool",
          "name": "_useZro",
          "type": "bool"
        },
        {
          "internalType": "bytes",
          "name": "_adapterParams",
          "type": "bytes"
        }
      ],
      "name": "estimateSendFee",
      "outputs": [
        {
          "internalType": "uint256",
          "name": "nativeFee",
          "type": "uint256"
        },
        {
          "internalType": "uint256",
          "name": "zroFee",
          "type": "uint256"
        }
      ],
      "stateMutability": "view",
      "type": "function"
    },
    {
      "inputs": [
        {
          "internalType": "address",
          "name": "_to",
          "type": "address"
        },
        {
          "internalType": "uint256",
          "name": "_amount",
          "type": "uint256"
        }
      ],
      "name": "extractTAP",
      "outputs": [],
      "stateMutability": "nonpayable",
      "type": "function"
    },
    {
      "inputs": [
        {
          "internalType": "uint16",
          "name": "",
          "type": "uint16"
        },
        {
          "internalType": "bytes",
          "name": "",
          "type": "bytes"
        },
        {
          "internalType": "uint64",
          "name": "",
          "type": "uint64"
        }
      ],
      "name": "failedMessages",
      "outputs": [
        {
          "internalType": "bytes32",
          "name": "",
          "type": "bytes32"
        }
      ],
      "stateMutability": "view",
      "type": "function"
    },
    {
      "inputs": [
        {
          "internalType": "uint16",
          "name": "_srcChainId",
          "type": "uint16"
        },
        {
          "internalType": "bytes",
          "name": "_srcAddress",
          "type": "bytes"
        }
      ],
      "name": "forceResumeReceive",
      "outputs": [],
      "stateMutability": "nonpayable",
      "type": "function"
    },
    {
      "inputs": [
        {
          "internalType": "uint16",
          "name": "_version",
          "type": "uint16"
        },
        {
          "internalType": "uint16",
          "name": "_chainId",
          "type": "uint16"
        },
        {
          "internalType": "address",
          "name": "",
          "type": "address"
        },
        {
          "internalType": "uint256",
          "name": "_configType",
          "type": "uint256"
        }
      ],
      "name": "getConfig",
      "outputs": [
        {
          "internalType": "bytes",
          "name": "",
          "type": "bytes"
        }
      ],
      "stateMutability": "view",
      "type": "function"
    },
    {
      "inputs": [],
      "name": "getCurrentWeekEmission",
      "outputs": [
        {
          "internalType": "uint256",
          "name": "",
          "type": "uint256"
        }
      ],
      "stateMutability": "view",
      "type": "function"
    },
    {
      "inputs": [
        {
          "internalType": "uint16",
          "name": "_remoteChainId",
          "type": "uint16"
        }
      ],
      "name": "getTrustedRemoteAddress",
      "outputs": [
        {
          "internalType": "bytes",
          "name": "",
          "type": "bytes"
        }
      ],
      "stateMutability": "view",
      "type": "function"
    },
    {
      "inputs": [],
      "name": "governanceChainIdentifier",
      "outputs": [
        {
          "internalType": "uint256",
          "name": "",
          "type": "uint256"
        }
      ],
      "stateMutability": "view",
      "type": "function"
    },
    {
      "inputs": [
        {
          "internalType": "address",
          "name": "spender",
          "type": "address"
        },
        {
          "internalType": "uint256",
          "name": "addedValue",
          "type": "uint256"
        }
      ],
      "name": "increaseAllowance",
      "outputs": [
        {
          "internalType": "bool",
          "name": "",
          "type": "bool"
        }
      ],
      "stateMutability": "nonpayable",
      "type": "function"
    },
    {
      "inputs": [
        {
          "internalType": "uint16",
          "name": "_srcChainId",
          "type": "uint16"
        },
        {
          "internalType": "bytes",
          "name": "_srcAddress",
          "type": "bytes"
        }
      ],
      "name": "isTrustedRemote",
      "outputs": [
        {
          "internalType": "bool",
          "name": "",
          "type": "bool"
        }
      ],
      "stateMutability": "view",
      "type": "function"
    },
    {
      "inputs": [],
      "name": "lzEndpoint",
      "outputs": [
        {
          "internalType": "contract ILayerZeroEndpoint",
          "name": "",
          "type": "address"
        }
      ],
      "stateMutability": "view",
      "type": "function"
    },
    {
      "inputs": [
        {
          "internalType": "uint16",
          "name": "_srcChainId",
          "type": "uint16"
        },
        {
          "internalType": "bytes",
          "name": "_srcAddress",
          "type": "bytes"
        },
        {
          "internalType": "uint64",
          "name": "_nonce",
          "type": "uint64"
        },
        {
          "internalType": "bytes",
          "name": "_payload",
          "type": "bytes"
        }
      ],
      "name": "lzReceive",
      "outputs": [],
      "stateMutability": "nonpayable",
      "type": "function"
    },
    {
      "inputs": [
        {
          "internalType": "uint16",
          "name": "",
          "type": "uint16"
        },
        {
          "internalType": "uint16",
          "name": "",
          "type": "uint16"
        }
      ],
      "name": "minDstGasLookup",
      "outputs": [
        {
          "internalType": "uint256",
          "name": "",
          "type": "uint256"
        }
      ],
      "stateMutability": "view",
      "type": "function"
    },
    {
      "inputs": [
        {
          "internalType": "uint256",
          "name": "",
          "type": "uint256"
        }
      ],
      "name": "mintedInWeek",
      "outputs": [
        {
          "internalType": "uint256",
          "name": "",
          "type": "uint256"
        }
      ],
      "stateMutability": "view",
      "type": "function"
    },
    {
      "inputs": [],
      "name": "minter",
      "outputs": [
        {
          "internalType": "address",
          "name": "",
          "type": "address"
        }
      ],
      "stateMutability": "view",
      "type": "function"
    },
    {
      "inputs": [],
      "name": "name",
      "outputs": [
        {
          "internalType": "string",
          "name": "",
          "type": "string"
        }
      ],
      "stateMutability": "view",
      "type": "function"
    },
    {
      "inputs": [
        {
          "internalType": "uint16",
          "name": "_srcChainId",
          "type": "uint16"
        },
        {
          "internalType": "bytes",
          "name": "_srcAddress",
          "type": "bytes"
        },
        {
          "internalType": "uint64",
          "name": "_nonce",
          "type": "uint64"
        },
        {
          "internalType": "bytes",
          "name": "_payload",
          "type": "bytes"
        }
      ],
      "name": "nonblockingLzReceive",
      "outputs": [],
      "stateMutability": "nonpayable",
      "type": "function"
    },
    {
      "inputs": [],
      "name": "owner",
      "outputs": [
        {
          "internalType": "address",
          "name": "",
          "type": "address"
        }
      ],
      "stateMutability": "view",
      "type": "function"
    },
    {
      "inputs": [],
      "name": "paused",
      "outputs": [
        {
          "internalType": "bool",
          "name": "",
          "type": "bool"
        }
      ],
      "stateMutability": "view",
      "type": "function"
    },
    {
      "inputs": [
        {
          "internalType": "uint16",
          "name": "",
          "type": "uint16"
        }
      ],
      "name": "payloadSizeLimitLookup",
      "outputs": [
        {
          "internalType": "uint256",
          "name": "",
          "type": "uint256"
        }
      ],
      "stateMutability": "view",
      "type": "function"
    },
    {
      "inputs": [],
      "name": "precrime",
      "outputs": [
        {
          "internalType": "address",
          "name": "",
          "type": "address"
        }
      ],
      "stateMutability": "view",
      "type": "function"
    },
    {
      "inputs": [
        {
          "internalType": "uint256",
          "name": "_amount",
          "type": "uint256"
        }
      ],
      "name": "removeTAP",
      "outputs": [],
      "stateMutability": "nonpayable",
      "type": "function"
    },
    {
      "inputs": [],
      "name": "renounceOwnership",
      "outputs": [],
      "stateMutability": "nonpayable",
      "type": "function"
    },
    {
      "inputs": [
        {
          "internalType": "uint16",
          "name": "_srcChainId",
          "type": "uint16"
        },
        {
          "internalType": "bytes",
          "name": "_srcAddress",
          "type": "bytes"
        },
        {
          "internalType": "uint64",
          "name": "_nonce",
          "type": "uint64"
        },
        {
          "internalType": "bytes",
          "name": "_payload",
          "type": "bytes"
        }
      ],
      "name": "retryMessage",
      "outputs": [],
      "stateMutability": "payable",
      "type": "function"
    },
    {
      "inputs": [
        {
          "internalType": "address",
          "name": "_from",
          "type": "address"
        },
        {
          "internalType": "uint16",
          "name": "_dstChainId",
          "type": "uint16"
        },
        {
          "internalType": "bytes32",
          "name": "_toAddress",
          "type": "bytes32"
        },
        {
          "internalType": "uint256",
          "name": "_amount",
          "type": "uint256"
        },
        {
          "internalType": "bytes",
          "name": "_payload",
          "type": "bytes"
        },
        {
          "internalType": "uint64",
          "name": "_dstGasForCall",
          "type": "uint64"
        },
        {
          "components": [
            {
              "internalType": "address payable",
              "name": "refundAddress",
              "type": "address"
            },
            {
              "internalType": "address",
              "name": "zroPaymentAddress",
              "type": "address"
            },
            {
              "internalType": "bytes",
              "name": "adapterParams",
              "type": "bytes"
            }
          ],
          "internalType": "struct ICommonOFT.LzCallParams",
          "name": "_callParams",
          "type": "tuple"
        }
      ],
      "name": "sendAndCall",
      "outputs": [],
      "stateMutability": "payable",
      "type": "function"
    },
    {
      "inputs": [
        {
          "internalType": "address",
          "name": "_from",
          "type": "address"
        },
        {
          "internalType": "uint16",
          "name": "_dstChainId",
          "type": "uint16"
        },
        {
          "internalType": "bytes32",
          "name": "_toAddress",
          "type": "bytes32"
        },
        {
          "internalType": "uint256",
          "name": "_amount",
          "type": "uint256"
        },
        {
          "components": [
            {
              "internalType": "address payable",
              "name": "refundAddress",
              "type": "address"
            },
            {
              "internalType": "address",
              "name": "zroPaymentAddress",
              "type": "address"
            },
            {
              "internalType": "bytes",
              "name": "adapterParams",
              "type": "bytes"
            }
          ],
          "internalType": "struct ICommonOFT.LzCallParams",
          "name": "_callParams",
          "type": "tuple"
        }
      ],
      "name": "sendFrom",
      "outputs": [],
      "stateMutability": "payable",
      "type": "function"
    },
    {
      "inputs": [
        {
          "internalType": "uint16",
          "name": "_version",
          "type": "uint16"
        },
        {
          "internalType": "uint16",
          "name": "_chainId",
          "type": "uint16"
        },
        {
          "internalType": "uint256",
          "name": "_configType",
          "type": "uint256"
        },
        {
          "internalType": "bytes",
          "name": "_config",
          "type": "bytes"
        }
      ],
      "name": "setConfig",
      "outputs": [],
      "stateMutability": "nonpayable",
      "type": "function"
    },
    {
      "inputs": [
        {
          "internalType": "address",
          "name": "_conservator",
          "type": "address"
        }
      ],
      "name": "setConservator",
      "outputs": [],
      "stateMutability": "nonpayable",
      "type": "function"
    },
    {
      "inputs": [
        {
          "internalType": "uint256",
          "name": "_identifier",
          "type": "uint256"
        }
      ],
      "name": "setGovernanceChainIdentifier",
      "outputs": [],
      "stateMutability": "nonpayable",
      "type": "function"
    },
    {
      "inputs": [
        {
          "internalType": "uint16",
          "name": "_dstChainId",
          "type": "uint16"
        },
        {
          "internalType": "uint16",
          "name": "_packetType",
          "type": "uint16"
        },
        {
          "internalType": "uint256",
          "name": "_minGas",
          "type": "uint256"
        }
      ],
      "name": "setMinDstGas",
      "outputs": [],
      "stateMutability": "nonpayable",
      "type": "function"
    },
    {
      "inputs": [
        {
          "internalType": "address",
          "name": "_minter",
          "type": "address"
        }
      ],
      "name": "setMinter",
      "outputs": [],
      "stateMutability": "nonpayable",
      "type": "function"
    },
    {
      "inputs": [
        {
          "internalType": "uint16",
          "name": "_dstChainId",
          "type": "uint16"
        },
        {
          "internalType": "uint256",
          "name": "_size",
          "type": "uint256"
        }
      ],
      "name": "setPayloadSizeLimit",
      "outputs": [],
      "stateMutability": "nonpayable",
      "type": "function"
    },
    {
      "inputs": [
        {
          "internalType": "address",
          "name": "_precrime",
          "type": "address"
        }
      ],
      "name": "setPrecrime",
      "outputs": [],
      "stateMutability": "nonpayable",
      "type": "function"
    },
    {
      "inputs": [
        {
          "internalType": "uint16",
          "name": "_version",
          "type": "uint16"
        }
      ],
      "name": "setReceiveVersion",
      "outputs": [],
      "stateMutability": "nonpayable",
      "type": "function"
    },
    {
      "inputs": [
        {
          "internalType": "uint16",
          "name": "_version",
          "type": "uint16"
        }
      ],
      "name": "setSendVersion",
      "outputs": [],
      "stateMutability": "nonpayable",
      "type": "function"
    },
    {
      "inputs": [
        {
          "internalType": "uint16",
          "name": "_srcChainId",
          "type": "uint16"
        },
        {
          "internalType": "bytes",
          "name": "_path",
          "type": "bytes"
        }
      ],
      "name": "setTrustedRemote",
      "outputs": [],
      "stateMutability": "nonpayable",
      "type": "function"
    },
    {
      "inputs": [
        {
          "internalType": "uint16",
          "name": "_remoteChainId",
          "type": "uint16"
        },
        {
          "internalType": "bytes",
          "name": "_remoteAddress",
          "type": "bytes"
        }
      ],
      "name": "setTrustedRemoteAddress",
      "outputs": [],
      "stateMutability": "nonpayable",
      "type": "function"
    },
    {
      "inputs": [
        {
          "internalType": "bool",
          "name": "_useCustomAdapterParams",
          "type": "bool"
        }
      ],
      "name": "setUseCustomAdapterParams",
      "outputs": [],
      "stateMutability": "nonpayable",
      "type": "function"
    },
    {
      "inputs": [],
      "name": "sharedDecimals",
      "outputs": [
        {
          "internalType": "uint8",
          "name": "",
          "type": "uint8"
        }
      ],
      "stateMutability": "view",
      "type": "function"
    },
    {
      "inputs": [
        {
          "internalType": "bytes4",
          "name": "interfaceId",
          "type": "bytes4"
        }
      ],
      "name": "supportsInterface",
      "outputs": [
        {
          "internalType": "bool",
          "name": "",
          "type": "bool"
        }
      ],
      "stateMutability": "view",
      "type": "function"
    },
    {
      "inputs": [],
      "name": "symbol",
      "outputs": [
        {
          "internalType": "string",
          "name": "",
          "type": "string"
        }
      ],
      "stateMutability": "view",
      "type": "function"
    },
    {
      "inputs": [
        {
          "internalType": "uint256",
          "name": "timestamp",
          "type": "uint256"
        }
      ],
      "name": "timestampToWeek",
      "outputs": [
        {
          "internalType": "uint256",
          "name": "",
          "type": "uint256"
        }
      ],
      "stateMutability": "view",
      "type": "function"
    },
    {
      "inputs": [],
      "name": "token",
      "outputs": [
        {
          "internalType": "address",
          "name": "",
          "type": "address"
        }
      ],
      "stateMutability": "view",
      "type": "function"
    },
    {
      "inputs": [],
      "name": "totalSupply",
      "outputs": [
        {
          "internalType": "uint256",
          "name": "",
          "type": "uint256"
        }
      ],
      "stateMutability": "view",
      "type": "function"
    },
    {
      "inputs": [
        {
          "internalType": "address",
          "name": "to",
          "type": "address"
        },
        {
          "internalType": "uint256",
          "name": "amount",
          "type": "uint256"
        }
      ],
      "name": "transfer",
      "outputs": [
        {
          "internalType": "bool",
          "name": "",
          "type": "bool"
        }
      ],
      "stateMutability": "nonpayable",
      "type": "function"
    },
    {
      "inputs": [
        {
          "internalType": "address",
          "name": "from",
          "type": "address"
        },
        {
          "internalType": "address",
          "name": "to",
          "type": "address"
        },
        {
          "internalType": "uint256",
          "name": "amount",
          "type": "uint256"
        }
      ],
      "name": "transferFrom",
      "outputs": [
        {
          "internalType": "bool",
          "name": "",
          "type": "bool"
        }
      ],
      "stateMutability": "nonpayable",
      "type": "function"
    },
    {
      "inputs": [
        {
          "internalType": "address",
          "name": "newOwner",
          "type": "address"
        }
      ],
      "name": "transferOwnership",
      "outputs": [],
      "stateMutability": "nonpayable",
      "type": "function"
    },
    {
      "inputs": [
        {
          "internalType": "uint16",
          "name": "",
          "type": "uint16"
        }
      ],
      "name": "trustedRemoteLookup",
      "outputs": [
        {
          "internalType": "bytes",
          "name": "",
          "type": "bytes"
        }
      ],
      "stateMutability": "view",
      "type": "function"
    },
    {
      "inputs": [
        {
          "internalType": "bool",
          "name": "val",
          "type": "bool"
        }
      ],
      "name": "updatePause",
      "outputs": [],
      "stateMutability": "nonpayable",
      "type": "function"
    },
    {
      "inputs": [],
      "name": "useCustomAdapterParams",
      "outputs": [
        {
          "internalType": "bool",
          "name": "",
          "type": "bool"
        }
      ],
      "stateMutability": "view",
      "type": "function"
    }
  ],
  "transactionHash": "0xe431b216b4c84206bff29e3c2a47fd6d1de584256b1a74c1a075a1ada6fe6c38",
  "args": [
    "0x93f54D755A063cE7bB9e6Ac47Eccc8e33411d706",
    "0x40282d3Cf4890D9806BC1853e97a59C93D813653",
    "0x40282d3Cf4890D9806BC1853e97a59C93D813653",
    "0x40282d3Cf4890D9806BC1853e97a59C93D813653",
    "0x40282d3Cf4890D9806BC1853e97a59C93D813653",
    "5"
  ],
  "numDeployments": 1,
  "solcInputHash": "aebdaad0e8e77d00c289efefb0dbf21f",
  "bytecode": "0x6101006040526a3701ec39383bba52800000600d553480156200002157600080fd5b5060405162005399380380620053998339810160408190526200004491620004be565b60405180604001604052806007815260200166546170696f636160c81b8152506040518060400160405280600381526020016205441560ec1b8152506008888383838381818080620000a56200009f620002dd60201b60201c565b620002e1565b6001600160a01b0316608052505060ff1660a05250508151620000d090600b906020850190620003fb565b508051620000e690600c906020840190620003fb565b5050506000620000fb6200033160201b60201c565b90508060ff168360ff161115620001695760405162461bcd60e51b815260206004820152602760248201527f4f46543a20736861726564446563696d616c73206d757374206265203c3d20646044820152666563696d616c7360c81b60648201526084015b60405180910390fd5b6200017583826200055f565b6200018290600a62000684565b60c05250505050506001600160a01b038616620001e25760405162461bcd60e51b815260206004820152601560248201527f4c5a20656e64706f696e74206e6f742076616c69640000000000000000000000604482015260640162000160565b61ffff81166010819055461415620002b5576200020b856a0c685fa11e01ec6f00000062000336565b62000222846a09195731e2ce35eb00000062000336565b62000239836a0422ca8b0a00a42500000062000336565b62000250826a021165458500521280000062000336565b6a1bb5e6a38fd1189180000062000266600a5490565b14620002b55760405162461bcd60e51b815260206004820152601860248201527f696e697469616c20737570706c79206e6f742076616c69640000000000000000604482015260640162000160565b50504260e052505060118054610100600160a81b031916336101000217905550620006f49050565b3390565b600080546001600160a01b038381166001600160a01b0319831681178455604051919092169283917f8be0079c531659141344cd1fd0a4f28419497f9722a3daafe3b4186f6b6457e09190a35050565b601290565b6001600160a01b0382166200038e5760405162461bcd60e51b815260206004820152601f60248201527f45524332303a206d696e7420746f20746865207a65726f206164647265737300604482015260640162000160565b80600a6000828254620003a291906200069c565b90915550506001600160a01b0382166000818152600860209081526040808320805486019055518481527fddf252ad1be2c89b69c2b068fc378daa952ba7f163c4a11628f55a4df523b3ef910160405180910390a35050565b8280546200040990620006b7565b90600052602060002090601f0160209004810192826200042d576000855562000478565b82601f106200044857805160ff191683800117855562000478565b8280016001018555821562000478579182015b82811115620004785782518255916020019190600101906200045b565b50620004869291506200048a565b5090565b5b808211156200048657600081556001016200048b565b80516001600160a01b0381168114620004b957600080fd5b919050565b60008060008060008060c08789031215620004d857600080fd5b620004e387620004a1565b9550620004f360208801620004a1565b94506200050360408801620004a1565b93506200051360608801620004a1565b92506200052360808801620004a1565b915060a087015161ffff811681146200053b57600080fd5b809150509295509295509295565b634e487b7160e01b600052601160045260246000fd5b600060ff821660ff8416808210156200057c576200057c62000549565b90039392505050565b600181815b80851115620005c6578160001904821115620005aa57620005aa62000549565b80851615620005b857918102915b93841c93908002906200058a565b509250929050565b600082620005df575060016200067e565b81620005ee575060006200067e565b8160018114620006075760028114620006125762000632565b60019150506200067e565b60ff84111562000626576200062662000549565b50506001821b6200067e565b5060208310610133831016604e8410600b841016171562000657575081810a6200067e565b62000663838362000585565b80600019048211156200067a576200067a62000549565b0290505b92915050565b60006200069560ff841683620005ce565b9392505050565b60008219821115620006b257620006b262000549565b500190565b600181811c90821680620006cc57607f821691505b60208210811415620006ee57634e487b7160e01b600052602260045260246000fd5b50919050565b60805160a05160c05160e051614c1e6200077b600039600081816106a90152818161101801526126fd0152600061381b01526000610816015260008181610a0701528181610c7301528181610f8b0152818161108f015281816112d401528181611bf9015281816121c301528181612ad401528181612fe5015261375c0152614c1e6000f3fe6080604052600436106103795760003560e01c8063857749b0116101d3578063cbed8b9c11610103578063ed629c5c1161009b578063ed629c5c14610b6c578063f2fde38b14610b86578063f4359ce514610ba6578063f5ecbdbc14610bbd578063f8974de014610bdd578063fa74f0b514610bfd578063fb98faf414610c1d578063fc0c546a14610c3d578063fca3b5aa14610c5057600080fd5b8063cbed8b9c14610a5f578063ce8849ed14610a7f578063d1deba1f14610aa4578063dd62ed3e14610ab7578063df2a5b3b14610ad7578063e6a20ae614610af7578063eab45d9c14610b0c578063eaffd49a14610b2c578063eb8d72b714610b4c57600080fd5b80639f38369a116101765780639f38369a14610940578063a2a4b99b14610960578063a457c2d714610975578063a4c51df514610995578063a6c3d165146109b5578063a9059cbb146109d5578063b353aaa7146109f5578063baf3292d14610a29578063c446183414610a4957600080fd5b8063857749b01461080457806387f00abc146108385780638cfd8f5c1461084e5780638da5cb5b146108865780639358928b146108a4578063950c8a74146108b957806395d89b41146108d95780639bdb9812146108ee57600080fd5b806339509351116102ae5780634eb8c308116102515780634eb8c308146106e05780635b8c41e6146107005780635c975abb1461074f57806366ad5c8a14610769578063695ef6bf1461078957806370a082311461079c578063715018a6146107bc5780637533d788146107d157806376203b48146107f157600080fd5b806339509351146105c85780633d8b38f6146105e85780633f1f4fa41461060857806342d65a8d1461063557806342e32e2514610655578063447705151461068257806348b0daa6146106975780634c42899a146106cb57600080fd5b806310ddb1371161032157806310ddb137146104b257806318160ddd146104d25780631ed2bdb8146104e757806323b872dd146104fc57806328d7eb971461051c5780632930fc77146105325780632ff2e9dc14610552578063313ce56714610571578063365260b41461059357600080fd5b80621d35671461037e57806301ffc9a7146103a057806306fdde03146103d557806307546172146103f757806307e0db1714610424578063095ea7b31461044457806309b489fd146104645780630df3748314610492575b600080fd5b34801561038a57600080fd5b5061039e610399366004613d9f565b610c70565b005b3480156103ac57600080fd5b506103c06103bb366004613e32565b610ea1565b60405190151581526020015b60405180910390f35b3480156103e157600080fd5b506103ea610ed8565b6040516103cc9190613eb4565b34801561040357600080fd5b50600f54610417906001600160a01b031681565b6040516103cc9190613ec7565b34801561043057600080fd5b5061039e61043f366004613edb565b610f6a565b34801561045057600080fd5b506103c061045f366004613f0b565b610ff3565b34801561047057600080fd5b5061048461047f366004613f37565b61100b565b6040519081526020016103cc565b34801561049e57600080fd5b5061039e6104ad366004613f50565b61104f565b3480156104be57600080fd5b5061039e6104cd366004613edb565b61106e565b3480156104de57600080fd5b50600a54610484565b3480156104f357600080fd5b506104846110c6565b34801561050857600080fd5b506103c0610517366004613f6c565b6110e9565b34801561052857600080fd5b5061048460105481565b34801561053e57600080fd5b5061039e61054d366004613f37565b61110d565b34801561055e57600080fd5b506104846a1bb5e6a38fd1189180000081565b34801561057d57600080fd5b5060125b60405160ff90911681526020016103cc565b34801561059f57600080fd5b506105b36105ae366004613fbd565b611172565b604080519283526020830191909152016103cc565b3480156105d457600080fd5b506103c06105e3366004613f0b565b6111c7565b3480156105f457600080fd5b506103c0610603366004614022565b6111e9565b34801561061457600080fd5b50610484610623366004613edb565b60036020526000908152604090205481565b34801561064157600080fd5b5061039e610650366004614022565b6112b5565b34801561066157600080fd5b50610484610670366004613f37565b600e6020526000908152604090205481565b34801561068e57600080fd5b50610484600081565b3480156106a357600080fd5b506104847f000000000000000000000000000000000000000000000000000000000000000081565b3480156106d757600080fd5b50610581600081565b3480156106ec57600080fd5b5061039e6106fb366004613f0b565b61133b565b34801561070c57600080fd5b5061048461071b3660046140e1565b6005602090815260009384526040808520845180860184018051928152908401958401959095209452929052825290205481565b34801561075b57600080fd5b506011546103c09060ff1681565b34801561077557600080fd5b5061039e610784366004613d9f565b611452565b61039e610797366004614199565b61152e565b3480156107a857600080fd5b506104846107b736600461420c565b611599565b3480156107c857600080fd5b5061039e6115b4565b3480156107dd57600080fd5b506103ea6107ec366004613edb565b6115c8565b61039e6107ff366004614229565b611662565b34801561081057600080fd5b506105817f000000000000000000000000000000000000000000000000000000000000000081565b34801561084457600080fd5b50610484600d5481565b34801561085a57600080fd5b506104846108693660046142db565b600260209081526000928352604080842090915290825290205481565b34801561089257600080fd5b506000546001600160a01b0316610417565b3480156108b057600080fd5b50610484611711565b3480156108c557600080fd5b50600454610417906001600160a01b031681565b3480156108e557600080fd5b506103ea611721565b3480156108fa57600080fd5b506103c06109093660046140e1565b6007602090815260009384526040808520845180860184018051928152908401958401959095209452929052825290205460ff1681565b34801561094c57600080fd5b506103ea61095b366004613edb565b611730565b34801561096c57600080fd5b50610484611847565b34801561098157600080fd5b506103c0610990366004613f0b565b6119d1565b3480156109a157600080fd5b506105b36109b036600461430e565b611a4c565b3480156109c157600080fd5b5061039e6109d0366004614022565b611adb565b3480156109e157600080fd5b506103c06109f0366004613f0b565b611b6e565b348015610a0157600080fd5b506104177f000000000000000000000000000000000000000000000000000000000000000081565b348015610a3557600080fd5b5061039e610a4436600461420c565b611b7c565b348015610a5557600080fd5b5061048461271081565b348015610a6b57600080fd5b5061039e610a7a3660046143c7565b611bda565b348015610a8b57600080fd5b506011546104179061010090046001600160a01b031681565b61039e610ab2366004613d9f565b611c64565b348015610ac357600080fd5b50610484610ad2366004614435565b611e7a565b348015610ae357600080fd5b5061039e610af236600461446e565b611ea5565b348015610b0357600080fd5b50610581600181565b348015610b1857600080fd5b5061039e610b273660046144aa565b611f57565b348015610b3857600080fd5b5061039e610b473660046144c5565b611fa0565b348015610b5857600080fd5b5061039e610b67366004614022565b6120bf565b348015610b7857600080fd5b506006546103c09060ff1681565b348015610b9257600080fd5b5061039e610ba136600461420c565b612119565b348015610bb257600080fd5b5061048462093a8081565b348015610bc957600080fd5b506103ea610bd836600461458d565b612192565b348015610be957600080fd5b5061039e610bf83660046144aa565b612252565b348015610c0957600080fd5b5061039e610c1836600461420c565b612346565b348015610c2957600080fd5b5061039e610c38366004613f37565b612404565b348015610c4957600080fd5b5030610417565b348015610c5c57600080fd5b5061039e610c6b36600461420c565b61244d565b337f00000000000000000000000000000000000000000000000000000000000000006001600160a01b031614610ced5760405162461bcd60e51b815260206004820152601e60248201527f4c7a4170703a20696e76616c696420656e64706f696e742063616c6c6572000060448201526064015b60405180910390fd5b61ffff861660009081526001602052604081208054610d0b906145da565b80601f0160208091040260200160405190810160405280929190818152602001828054610d37906145da565b8015610d845780601f10610d5957610100808354040283529160200191610d84565b820191906000526020600020905b815481529060010190602001808311610d6757829003601f168201915b50505050509050805186869050148015610d9f575060008151115b8015610dc7575080516020820120604051610dbd908890889061460f565b6040518091039020145b610e225760405162461bcd60e51b815260206004820152602660248201527f4c7a4170703a20696e76616c696420736f757263652073656e64696e6720636f6044820152651b9d1c9858dd60d21b6064820152608401610ce4565b610e988787878080601f01602080910402602001604051908101604052809392919081815260200183838082843760009201919091525050604080516020601f8a018190048102820181019092528881528a9350915088908890819084018382808284376000920191909152506124fb92505050565b50505050505050565b60006001600160e01b03198216631f7ecdf760e01b1480610ed257506301ffc9a760e01b6001600160e01b03198316145b92915050565b6060600b8054610ee7906145da565b80601f0160208091040260200160405190810160405280929190818152602001828054610f13906145da565b8015610f605780601f10610f3557610100808354040283529160200191610f60565b820191906000526020600020905b815481529060010190602001808311610f4357829003601f168201915b5050505050905090565b610f72612574565b6040516307e0db1760e01b815261ffff821660048201527f00000000000000000000000000000000000000000000000000000000000000006001600160a01b0316906307e0db17906024015b600060405180830381600087803b158015610fd857600080fd5b505af1158015610fec573d6000803e3d6000fd5b5050505050565b6000336110018185856125ce565b5060019392505050565b600081611016574291505b7f000000000000000000000000000000000000000000000000000000000000000082101561104657506000919050565b610ed2826126f2565b611057612574565b61ffff909116600090815260036020526040902055565b611076612574565b6040516310ddb13760e01b815261ffff821660048201527f00000000000000000000000000000000000000000000000000000000000000006001600160a01b0316906310ddb13790602401610fbe565b6000600e60006110d5426126f2565b815260200190815260200160002054905090565b6000336110f7858285612737565b6111028585856127b1565b506001949350505050565b60115460ff16156111305760405162461bcd60e51b8152600401610ce49061461f565b61113a338261294a565b60405181815233907f696de425f79f4a40bc6d2122ca50507f0efbeabbff86a84871b7196ab8ea8df79060200160405180910390a250565b6000806111b88888888888888080601f016020809104026020016040519081016040528093929190818152602001838380828437600092019190915250612a6c92505050565b91509150965096945050505050565b6000336110018185856111da8383611e7a565b6111e4919061465a565b6125ce565b61ffff83166000908152600160205260408120805482919061120a906145da565b80601f0160208091040260200160405190810160405280929190818152602001828054611236906145da565b80156112835780601f1061125857610100808354040283529160200191611283565b820191906000526020600020905b81548152906001019060200180831161126657829003601f168201915b50505050509050838360405161129a92919061460f565b60405180910390208180519060200120149150509392505050565b6112bd612574565b6040516342d65a8d60e01b81526001600160a01b037f000000000000000000000000000000000000000000000000000000000000000016906342d65a8d9061130d9086908690869060040161469b565b600060405180830381600087803b15801561132757600080fd5b505af1158015610e98573d6000803e3d6000fd5b60115460ff161561135e5760405162461bcd60e51b8152600401610ce49061461f565b600f546001600160a01b031633146113a75760405162461bcd60e51b815260206004820152600c60248201526b1d5b985d5d1a1bdc9a5e995960a21b6044820152606401610ce4565b600081116113ea5760405162461bcd60e51b815260206004820152601060248201526f185b5bdd5b9d081b9bdd081d985b1a5960821b6044820152606401610ce4565b60006113f530611599565b9050818110156114425760405162461bcd60e51b8152602060048201526018602482015277195e18d959591cc8185b1b1bddd8589b1948185b5bdd5b9d60421b6044820152606401610ce4565b61144d3084846127b1565b505050565b3330146114b05760405162461bcd60e51b815260206004820152602660248201527f4e6f6e626c6f636b696e674c7a4170703a2063616c6c6572206d7573742062656044820152650204c7a4170760d41b6064820152608401610ce4565b6115268686868080601f01602080910402602001604051908101604052809392919081815260200183838082843760009201919091525050604080516020601f890181900481028201810190925287815289935091508790879081908401838280828437600092019190915250612b6f92505050565b505050505050565b61152685858585611542602087018761420c565b611552604088016020890161420c565b61155f60408901896146b9565b8080601f016020809104026020016040519081016040528093929190818152602001838380828437600092019190915250612bf692505050565b6001600160a01b031660009081526008602052604090205490565b6115bc612574565b6115c66000612cb2565b565b600160205260009081526040902080546115e1906145da565b80601f016020809104026020016040519081016040528092919081815260200182805461160d906145da565b801561165a5780601f1061162f5761010080835404028352916020019161165a565b820191906000526020600020905b81548152906001019060200180831161163d57829003601f168201915b505050505081565b6117068888888888888080601f0160208091040260200160405190810160405280939291908181526020018383808284376000920191909152508a92506116af915050602089018961420c565b6116bf60408a0160208b0161420c565b6116cc60408b018b6146b9565b8080601f016020809104026020016040519081016040528093929190818152602001838380828437600092019190915250612d0292505050565b505050505050505050565b600061171c600a5490565b905090565b6060600c8054610ee7906145da565b61ffff8116600090815260016020526040812080546060929190611753906145da565b80601f016020809104026020016040519081016040528092919081815260200182805461177f906145da565b80156117cc5780601f106117a1576101008083540402835291602001916117cc565b820191906000526020600020905b8154815290600101906020018083116117af57829003601f168201915b505050505090508051600014156118255760405162461bcd60e51b815260206004820152601d60248201527f4c7a4170703a206e6f20747275737465642070617468207265636f72640000006044820152606401610ce4565b61184060006014835161183891906146ff565b839190612dd2565b9392505050565b60115460009060ff161561186d5760405162461bcd60e51b8152600401610ce49061461f565b60105446146118b05760405162461bcd60e51b815260206004820152600f60248201526e18da185a5b881b9bdd081d985b1a59608a1b6044820152606401610ce4565b60006118bb426126f2565b6000818152600e6020526040902054909150156118da57600091505090565b6000806118e630611599565b9050801561192f5780600e60006118fe6001876146ff565b8152602001908152602001600020600082825461191b91906146ff565b9250508190555080915061192f308261294a565b600e600061193e6001866146ff565b815260200190815260200160002054600d600082825461195e91906146ff565b9091555061196c9050612edf565b611976908361465a565b6000848152600e6020526040902081905591506119933083612f09565b604051828152309033907f9d228d69b5fdb8d273a2336f8fb8612d039631024ea9bf09c424a9503aa078f09060200160405180910390a35091505090565b600033816119df8286611e7a565b905083811015611a3f5760405162461bcd60e51b815260206004820152602560248201527f45524332303a2064656372656173656420616c6c6f77616e63652062656c6f77604482015264207a65726f60d81b6064820152608401610ce4565b61110282868684036125ce565b600080611ac98b8b8b8b8b8080601f01602080910402602001604051908101604052809392919081815260200183838082843760009201919091525050604080516020601f8d018190048102820181019092528b81528e93508d9250908c908c9081908401838280828437600092019190915250612fb892505050565b91509150995099975050505050505050565b611ae3612574565b818130604051602001611af893929190614716565b60408051601f1981840301815291815261ffff85166000908152600160209081529190208251611b2d93919290910190613c1c565b507f8c0400cfe2d1199b1a725c78960bcc2a344d869b80590d0f2bd005db15a572ce838383604051611b619392919061469b565b60405180910390a1505050565b6000336110018185856127b1565b611b84612574565b600480546001600160a01b0319166001600160a01b0383161790556040517f5db758e995a17ec1ad84bdef7e8c3293a0bd6179bcce400dff5d4c3d87db726b90611bcf908390613ec7565b60405180910390a150565b611be2612574565b6040516332fb62e760e21b81526001600160a01b037f0000000000000000000000000000000000000000000000000000000000000000169063cbed8b9c90611c36908890889088908890889060040161473c565b600060405180830381600087803b158015611c5057600080fd5b505af1158015611706573d6000803e3d6000fd5b61ffff86166000908152600560205260408082209051611c87908890889061460f565b90815260408051602092819003830190206001600160401b03871660009081529252902054905080611d075760405162461bcd60e51b815260206004820152602360248201527f4e6f6e626c6f636b696e674c7a4170703a206e6f2073746f726564206d65737360448201526261676560e81b6064820152608401610ce4565b808383604051611d1892919061460f565b604051809103902014611d775760405162461bcd60e51b815260206004820152602160248201527f4e6f6e626c6f636b696e674c7a4170703a20696e76616c6964207061796c6f616044820152601960fa1b6064820152608401610ce4565b61ffff87166000908152600560205260408082209051611d9a908990899061460f565b90815260408051602092819003830181206001600160401b038916600090815290845282902093909355601f88018290048202830182019052868252611e32918991899089908190840183828082843760009201919091525050604080516020601f8a018190048102820181019092528881528a935091508890889081908401838280828437600092019190915250612b6f92505050565b7fc264d91f3adc5588250e1551f547752ca0cfa8f6b530d243b9f9f4cab10ea8e58787878785604051611e69959493929190614775565b60405180910390a150505050505050565b6001600160a01b03918216600090815260096020908152604080832093909416825291909152205490565b611ead612574565b60008111611ef55760405162461bcd60e51b81526020600482015260156024820152744c7a4170703a20696e76616c6964206d696e47617360581b6044820152606401610ce4565b61ffff83811660008181526002602090815260408083209487168084529482529182902085905581519283528201929092529081018290527f9d5c7c0b934da8fefa9c7760c98383778a12dfbfc0c3b3106518f43fb9508ac090606001611b61565b611f5f612574565b6006805460ff19168215159081179091556040519081527f1584ad594a70cbe1e6515592e1272a987d922b097ead875069cebe8b40c004a490602001611bcf565b333014611fef5760405162461bcd60e51b815260206004820152601f60248201527f4f4654436f72653a2063616c6c6572206d757374206265204f4654436f7265006044820152606401610ce4565b611ffa308686613082565b9350846001600160a01b03168a61ffff167fbf551ec93859b170f9b2141bd9298bf3f64322c6f7beb2543a0cb669834118bf8660405161203c91815260200190565b60405180910390a3604051633fe79aed60e11b81526001600160a01b03861690637fcf35da908390612080908e908e908e908e908e908d908d908d906004016147b0565b600060405180830381600088803b15801561209a57600080fd5b5087f11580156120ae573d6000803e3d6000fd5b505050505050505050505050505050565b6120c7612574565b61ffff831660009081526001602052604090206120e5908383613ca0565b507ffa41487ad5d6728f0b19276fa1eddc16558578f5109fc39d2dc33c3230470dab838383604051611b619392919061469b565b612121612574565b6001600160a01b0381166121865760405162461bcd60e51b815260206004820152602660248201527f4f776e61626c653a206e6577206f776e657220697320746865207a65726f206160448201526564647265737360d01b6064820152608401610ce4565b61218f81612cb2565b50565b604051633d7b2f6f60e21b815261ffff808616600483015284166024820152306044820152606481018290526060907f00000000000000000000000000000000000000000000000000000000000000006001600160a01b03169063f5ecbdbc9060840160006040518083038186803b15801561220d57600080fd5b505afa158015612221573d6000803e3d6000fd5b505050506040513d6000823e601f3d908101601f19168201604052612249919081019061480b565b95945050505050565b60115461010090046001600160a01b031633146122a55760405162461bcd60e51b81526020600482015260116024820152701510540e881d5b985d5d1a1bdc9a5e9959607a1b6044820152606401610ce4565b60115460ff16151581151514156122f05760405162461bcd60e51b815260206004820152600f60248201526e5441503a2073616d6520737461746560881b6044820152606401610ce4565b6011546040805160ff9092161515825282151560208301527f9c13c5f6c628c1c82eb2b3fd8714da5c2857dbd0ad8ab6b2074abcf81015d396910160405180910390a16011805460ff1916911515919091179055565b61234e612574565b6001600160a01b03811661239d5760405162461bcd60e51b81526020600482015260166024820152751510540e881859191c995cdcc81b9bdd081d985b1a5960521b6044820152606401610ce4565b6011546040516001600160a01b0380841692610100900416907f5a62d22209e370e38eea92cfddcd228e656e6ec139243392a760a7769f5877fd90600090a3601180546001600160a01b0390921661010002610100600160a81b0319909216919091179055565b61240c612574565b60105460408051918252602082018390527fffaac11a2568645519512c4cc04c5052f579642fd6e2236b58ced0451e215dc4910160405180910390a1601055565b612455612574565b6001600160a01b03811661249f5760405162461bcd60e51b81526020600482015260116024820152701859191c995cdcc81b9bdd081d985b1a59607a1b6044820152606401610ce4565b600f546040516001600160a01b038084169216907f1cf2de25c5bf439ac0287061c3a0fa69b3b02867d0ccfd2ded34e42577050b7390600090a3600f80546001600160a01b0319166001600160a01b0392909216919091179055565b60008061255e5a60966366ad5c8a60e01b898989896040516024016125239493929190614878565b60408051601f198184030181529190526020810180516001600160e01b03166001600160e01b031990931692909217909152309291906130d4565b915091508161152657611526868686868561315e565b6000546001600160a01b031633146115c65760405162461bcd60e51b815260206004820181905260248201527f4f776e61626c653a2063616c6c6572206973206e6f7420746865206f776e65726044820152606401610ce4565b6001600160a01b0383166126305760405162461bcd60e51b8152602060048201526024808201527f45524332303a20617070726f76652066726f6d20746865207a65726f206164646044820152637265737360e01b6064820152608401610ce4565b6001600160a01b0382166126915760405162461bcd60e51b815260206004820152602260248201527f45524332303a20617070726f766520746f20746865207a65726f206164647265604482015261737360f01b6064820152608401610ce4565b6001600160a01b0383811660008181526009602090815260408083209487168084529482529182902085905590518481527f8c5be1e5ebec7d5bd14f71427d1e84f3dd0314c0f7b2291e5b200ac8c7c3b925910160405180910390a3505050565b600062093a806127227f0000000000000000000000000000000000000000000000000000000000000000846146ff565b61272c91906148cc565b610ed290600161465a565b60006127438484611e7a565b905060001981146127ab578181101561279e5760405162461bcd60e51b815260206004820152601d60248201527f45524332303a20696e73756666696369656e7420616c6c6f77616e63650000006044820152606401610ce4565b6127ab84848484036125ce565b50505050565b6001600160a01b0383166128155760405162461bcd60e51b815260206004820152602560248201527f45524332303a207472616e736665722066726f6d20746865207a65726f206164604482015264647265737360d81b6064820152608401610ce4565b6001600160a01b0382166128775760405162461bcd60e51b815260206004820152602360248201527f45524332303a207472616e7366657220746f20746865207a65726f206164647260448201526265737360e81b6064820152608401610ce4565b6001600160a01b038316600090815260086020526040902054818110156128ef5760405162461bcd60e51b815260206004820152602660248201527f45524332303a207472616e7366657220616d6f756e7420657863656564732062604482015265616c616e636560d01b6064820152608401610ce4565b6001600160a01b038085166000818152600860205260408082208686039055928616808252908390208054860190559151600080516020614bc98339815191529061293d9086815260200190565b60405180910390a36127ab565b6001600160a01b0382166129aa5760405162461bcd60e51b815260206004820152602160248201527f45524332303a206275726e2066726f6d20746865207a65726f206164647265736044820152607360f81b6064820152608401610ce4565b6001600160a01b03821660009081526008602052604090205481811015612a1e5760405162461bcd60e51b815260206004820152602260248201527f45524332303a206275726e20616d6f756e7420657863656564732062616c616e604482015261636560f01b6064820152608401610ce4565b6001600160a01b03831660008181526008602090815260408083208686039055600a8054879003905551858152919291600080516020614bc9833981519152910160405180910390a3505050565b6000806000612aba87612a7e886131fb565b6040805160006020820152602181019390935260c09190911b6001600160c01b0319166041830152805160298184030181526049909201905290565b60405163040a7bb160e41b81529091506001600160a01b037f000000000000000000000000000000000000000000000000000000000000000016906340a7bb1090612b11908b90309086908b908b906004016148e0565b604080518083038186803b158015612b2857600080fd5b505afa158015612b3c573d6000803e3d6000fd5b505050506040513d601f19601f82011682018060405250810190612b609190614934565b92509250509550959350505050565b6000612b7b8282613269565b905060ff8116612b9657612b91858585856132c5565b610fec565b60ff811660011415612bae57612b9185858585613355565b60405162461bcd60e51b815260206004820152601c60248201527f4f4654436f72653a20756e6b6e6f776e207061636b65742074797065000000006044820152606401610ce4565b6000612c048782848161355e565b612c0d856135d8565b509050612c1c88888884613600565b905060008111612c3e5760405162461bcd60e51b8152600401610ce490614958565b6000612c4d87612a7e846131fb565b9050612c5d888287878734613632565b86896001600160a01b03168961ffff167fd81fc9b8523134ed613870ed029d6170cbb73aa6a6bc311b9a642689fb9df59a85604051612c9e91815260200190565b60405180910390a450979650505050505050565b600080546001600160a01b038381166001600160a01b0319831681178455604051919092169283917f8be0079c531659141344cd1fd0a4f28419497f9722a3daafe3b4186f6b6457e09190a35050565b6000612d1a896001846001600160401b03891661355e565b612d23876135d8565b509050612d328a8a8a84613600565b905060008111612d545760405162461bcd60e51b8152600401610ce490614958565b6000612d6b338a612d64856131fb565b8a8a6137d8565b9050612d7b8a8287878734613632565b888b6001600160a01b03168b61ffff167fd81fc9b8523134ed613870ed029d6170cbb73aa6a6bc311b9a642689fb9df59a85604051612dbc91815260200190565b60405180910390a4509998505050505050505050565b606081612de081601f61465a565b1015612e1f5760405162461bcd60e51b815260206004820152600e60248201526d736c6963655f6f766572666c6f7760901b6044820152606401610ce4565b612e29828461465a565b84511015612e6d5760405162461bcd60e51b8152602060048201526011602482015270736c6963655f6f75744f66426f756e647360781b6044820152606401610ce4565b606082158015612e8c5760405191506000825260208201604052612ed6565b6040519150601f8416801560200281840101858101878315602002848b0101015b81831015612ec5578051835260209283019201612ead565b5050858452601f01601f1916604052505b50949350505050565b6000670de0b6b3a7640000661f438daa060000600d54612eff919061498b565b61171c91906148cc565b6001600160a01b038216612f5f5760405162461bcd60e51b815260206004820152601f60248201527f45524332303a206d696e7420746f20746865207a65726f2061646472657373006044820152606401610ce4565b80600a6000828254612f71919061465a565b90915550506001600160a01b038216600081815260086020908152604080832080548601905551848152600080516020614bc9833981519152910160405180910390a35050565b6000806000612fcb338a612d648b6131fb565b60405163040a7bb160e41b81529091506001600160a01b037f000000000000000000000000000000000000000000000000000000000000000016906340a7bb1090613022908d90309086908b908b906004016148e0565b604080518083038186803b15801561303957600080fd5b505afa15801561304d573d6000803e3d6000fd5b505050506040513d601f19601f820116820180604052508101906130719190614934565b925092505097509795505050505050565b600033306001600160a01b038616148015906130b05750806001600160a01b0316856001600160a01b031614155b156130c0576130c0858285612737565b6130cb8585856127b1565b50909392505050565b6000606060008060008661ffff166001600160401b038111156130f9576130f9614074565b6040519080825280601f01601f191660200182016040528015613123576020820181803683370190505b50905060008087516020890160008d8df191503d925086831115613145578692505b828152826000602083013e909890975095505050505050565b8180519060200120600560008761ffff1661ffff1681526020019081526020016000208560405161318f91906149aa565b9081526040805191829003602090810183206001600160401b0388166000908152915220919091557fe183f33de2837795525b4792ca4cd60535bd77c53b7e7030060bfcf5734d6b0c906131ec90879087908790879087906149c6565b60405180910390a15050505050565b600080613206613819565b61321090846148cc565b90506001600160401b03811115610ed25760405162461bcd60e51b815260206004820152601a60248201527f4f4654436f72653a20616d6f756e745344206f766572666c6f770000000000006044820152606401610ce4565b600061327682600161465a565b835110156132bc5760405162461bcd60e51b8152602060048201526013602482015272746f55696e74385f6f75744f66426f756e647360681b6044820152606401610ce4565b50016001015190565b6000806132d18361383d565b90925090506001600160a01b0382166132ea5761dead91505b60006132f582613897565b90506133028784836138b4565b9050826001600160a01b03168761ffff167fbf551ec93859b170f9b2141bd9298bf3f64322c6f7beb2543a0cb669834118bf8360405161334491815260200190565b60405180910390a350505050505050565b6000806000806000613366866138c7565b945094509450945094506000600760008b61ffff1661ffff1681526020019081526020016000208960405161339b91906149aa565b90815260408051602092819003830190206001600160401b038b166000908152925281205460ff1691506133ce85613897565b90508161343c576133e08b30836138b4565b61ffff8c16600090815260076020526040908190209051919250600191613408908d906149aa565b90815260408051602092819003830190206001600160401b038d16600090815292529020805460ff19169115159190911790555b6001600160a01b0386163b61348e577f9aedf5fdba8716db3b6705ca00150643309995d4f818a249ed6dde6677e7792d8660405161347a9190613ec7565b60405180910390a1505050505050506127ab565b8a8a8a8a8a8a868a60008a6134ac578b6001600160401b03166134ae565b5a5b90506000806134e05a609663eaffd49a60e01b8e8e8e8d8d8d8d8d604051602401612523989796959493929190614a18565b915091508115613539578751602089012060405161ffff8d16907fb8890edbfc1c74692f527444645f95489c3703cc2df42e4a366f5d06fa6cd8849061352b908e908e908690614a8c565b60405180910390a250613546565b6135468b8b8b8b8561315e565b50505050505050505050505050505050505050505050565b60065460ff161561357a5761357584848484613953565b6127ab565b8151156127ab5760405162461bcd60e51b815260206004820152602660248201527f4f4654436f72653a205f61646170746572506172616d73206d7573742062652060448201526532b6b83a3c9760d11b6064820152608401610ce4565b6000806135e3613819565b6135ed9084614aba565b90506135f981846146ff565b9150915091565b6000336001600160a01b038616811461361e5761361e868285612737565b613628868461294a565b5090949350505050565b61ffff861660009081526001602052604081208054613650906145da565b80601f016020809104026020016040519081016040528092919081815260200182805461367c906145da565b80156136c95780601f1061369e576101008083540402835291602001916136c9565b820191906000526020600020905b8154815290600101906020018083116136ac57829003601f168201915b5050505050905080516000141561373b5760405162461bcd60e51b815260206004820152603060248201527f4c7a4170703a2064657374696e6174696f6e20636861696e206973206e6f742060448201526f61207472757374656420736f7572636560801b6064820152608401610ce4565b613746878751613a32565b60405162c5803160e81b81526001600160a01b037f0000000000000000000000000000000000000000000000000000000000000000169063c580310090849061379d908b9086908c908c908c908c90600401614ace565b6000604051808303818588803b1580156137b657600080fd5b505af11580156137ca573d6000803e3d6000fd5b505050505050505050505050565b6060600185856001600160a01b03891685876040516020016137ff96959493929190614b35565b604051602081830303815290604052905095945050505050565b7f000000000000000000000000000000000000000000000000000000000000000090565b6000808061384b8482613269565b60ff1614801561385c575082516029145b6138785760405162461bcd60e51b8152600401610ce490614b96565b61388383600d613aa0565b9150613890836021613b05565b9050915091565b60006138a1613819565b610ed2906001600160401b03841661498b565b60006138c08383612f09565b5092915050565b6000808060608160016138da8783613269565b60ff16146138fa5760405162461bcd60e51b8152600401610ce490614b96565b61390586600d613aa0565b9350613912866021613b05565b925061391f866029613b62565b945061392c866049613b05565b9050613948605180885161394091906146ff565b889190612dd2565b915091939590929450565b600061395e83613bc0565b61ffff80871660009081526002602090815260408083209389168352929052908120549192509061399090849061465a565b9050600081116139e25760405162461bcd60e51b815260206004820152601a60248201527f4c7a4170703a206d696e4761734c696d6974206e6f74207365740000000000006044820152606401610ce4565b808210156115265760405162461bcd60e51b815260206004820152601b60248201527f4c7a4170703a20676173206c696d697420697320746f6f206c6f7700000000006044820152606401610ce4565b61ffff821660009081526003602052604090205480613a5057506127105b8082111561144d5760405162461bcd60e51b815260206004820181905260248201527f4c7a4170703a207061796c6f61642073697a6520697320746f6f206c617267656044820152606401610ce4565b6000613aad82601461465a565b83511015613af55760405162461bcd60e51b8152602060048201526015602482015274746f416464726573735f6f75744f66426f756e647360581b6044820152606401610ce4565b500160200151600160601b900490565b6000613b1282600861465a565b83511015613b595760405162461bcd60e51b8152602060048201526014602482015273746f55696e7436345f6f75744f66426f756e647360601b6044820152606401610ce4565b50016008015190565b6000613b6f82602061465a565b83511015613bb75760405162461bcd60e51b8152602060048201526015602482015274746f427974657333325f6f75744f66426f756e647360581b6044820152606401610ce4565b50016020015190565b6000602282511015613c145760405162461bcd60e51b815260206004820152601c60248201527f4c7a4170703a20696e76616c69642061646170746572506172616d73000000006044820152606401610ce4565b506022015190565b828054613c28906145da565b90600052602060002090601f016020900481019282613c4a5760008555613c90565b82601f10613c6357805160ff1916838001178555613c90565b82800160010185558215613c90579182015b82811115613c90578251825591602001919060010190613c75565b50613c9c929150613d14565b5090565b828054613cac906145da565b90600052602060002090601f016020900481019282613cce5760008555613c90565b82601f10613ce75782800160ff19823516178555613c90565b82800160010185558215613c90579182015b82811115613c90578235825591602001919060010190613cf9565b5b80821115613c9c5760008155600101613d15565b803561ffff81168114613d3b57600080fd5b919050565b60008083601f840112613d5257600080fd5b5081356001600160401b03811115613d6957600080fd5b602083019150836020828501011115613d8157600080fd5b9250929050565b80356001600160401b0381168114613d3b57600080fd5b60008060008060008060808789031215613db857600080fd5b613dc187613d29565b955060208701356001600160401b0380821115613ddd57600080fd5b613de98a838b01613d40565b9097509550859150613dfd60408a01613d88565b94506060890135915080821115613e1357600080fd5b50613e2089828a01613d40565b979a9699509497509295939492505050565b600060208284031215613e4457600080fd5b81356001600160e01b03198116811461184057600080fd5b60005b83811015613e77578181015183820152602001613e5f565b838111156127ab5750506000910152565b60008151808452613ea0816020860160208601613e5c565b601f01601f19169290920160200192915050565b6020815260006118406020830184613e88565b6001600160a01b0391909116815260200190565b600060208284031215613eed57600080fd5b61184082613d29565b6001600160a01b038116811461218f57600080fd5b60008060408385031215613f1e57600080fd5b8235613f2981613ef6565b946020939093013593505050565b600060208284031215613f4957600080fd5b5035919050565b60008060408385031215613f6357600080fd5b613f2983613d29565b600080600060608486031215613f8157600080fd5b8335613f8c81613ef6565b92506020840135613f9c81613ef6565b929592945050506040919091013590565b80358015158114613d3b57600080fd5b60008060008060008060a08789031215613fd657600080fd5b613fdf87613d29565b95506020870135945060408701359350613ffb60608801613fad565b925060808701356001600160401b0381111561401657600080fd5b613e2089828a01613d40565b60008060006040848603121561403757600080fd5b61404084613d29565b925060208401356001600160401b0381111561405b57600080fd5b61406786828701613d40565b9497909650939450505050565b634e487b7160e01b600052604160045260246000fd5b604051601f8201601f191681016001600160401b03811182821017156140b2576140b2614074565b604052919050565b60006001600160401b038211156140d3576140d3614074565b50601f01601f191660200190565b6000806000606084860312156140f657600080fd5b6140ff84613d29565b925060208401356001600160401b0381111561411a57600080fd5b8401601f8101861361412b57600080fd5b803561413e614139826140ba565b61408a565b81815287602083850101111561415357600080fd5b8160208401602083013760006020838301015280945050505061417860408501613d88565b90509250925092565b60006060828403121561419357600080fd5b50919050565b600080600080600060a086880312156141b157600080fd5b85356141bc81613ef6565b94506141ca60208701613d29565b9350604086013592506060860135915060808601356001600160401b038111156141f357600080fd5b6141ff88828901614181565b9150509295509295909350565b60006020828403121561421e57600080fd5b813561184081613ef6565b60008060008060008060008060e0898b03121561424557600080fd5b883561425081613ef6565b975061425e60208a01613d29565b9650604089013595506060890135945060808901356001600160401b038082111561428857600080fd5b6142948c838d01613d40565b90965094508491506142a860a08c01613d88565b935060c08b01359150808211156142be57600080fd5b506142cb8b828c01614181565b9150509295985092959890939650565b600080604083850312156142ee57600080fd5b6142f783613d29565b915061430560208401613d29565b90509250929050565b600080600080600080600080600060e08a8c03121561432c57600080fd5b6143358a613d29565b985060208a0135975060408a0135965060608a01356001600160401b038082111561435f57600080fd5b61436b8d838e01613d40565b909850965086915061437f60808d01613d88565b955061438d60a08d01613fad565b945060c08c01359150808211156143a357600080fd5b506143b08c828d01613d40565b915080935050809150509295985092959850929598565b6000806000806000608086880312156143df57600080fd5b6143e886613d29565b94506143f660208701613d29565b93506040860135925060608601356001600160401b0381111561441857600080fd5b61442488828901613d40565b969995985093965092949392505050565b6000806040838503121561444857600080fd5b823561445381613ef6565b9150602083013561446381613ef6565b809150509250929050565b60008060006060848603121561448357600080fd5b61448c84613d29565b925061449a60208501613d29565b9150604084013590509250925092565b6000602082840312156144bc57600080fd5b61184082613fad565b6000806000806000806000806000806101008b8d0312156144e557600080fd5b6144ee8b613d29565b995060208b01356001600160401b038082111561450a57600080fd5b6145168e838f01613d40565b909b50995089915061452a60408e01613d88565b985060608d0135975060808d0135915061454382613ef6565b90955060a08c0135945060c08c0135908082111561456057600080fd5b5061456d8d828e01613d40565b9150809450508092505060e08b013590509295989b9194979a5092959850565b600080600080608085870312156145a357600080fd5b6145ac85613d29565b93506145ba60208601613d29565b925060408501356145ca81613ef6565b9396929550929360600135925050565b600181811c908216806145ee57607f821691505b6020821081141561419357634e487b7160e01b600052602260045260246000fd5b8183823760009101908152919050565b6020808252600b908201526a1510540e881c185d5cd95960aa1b604082015260600190565b634e487b7160e01b600052601160045260246000fd5b6000821982111561466d5761466d614644565b500190565b81835281816020850137506000828201602090810191909152601f909101601f19169091010190565b61ffff84168152604060208201526000612249604083018486614672565b6000808335601e198436030181126146d057600080fd5b8301803591506001600160401b038211156146ea57600080fd5b602001915036819003821315613d8157600080fd5b60008282101561471157614711614644565b500390565b8284823760609190911b6bffffffffffffffffffffffff19169101908152601401919050565b600061ffff80881683528087166020840152508460408301526080606083015261476a608083018486614672565b979650505050505050565b61ffff86168152608060208201526000614793608083018688614672565b6001600160401b0394909416604083015250606001529392505050565b61ffff8916815260c0602082015260006147ce60c08301898b614672565b6001600160401b038816604084015286606084015285608084015282810360a08401526147fc818587614672565b9b9a5050505050505050505050565b60006020828403121561481d57600080fd5b81516001600160401b0381111561483357600080fd5b8201601f8101841361484457600080fd5b8051614852614139826140ba565b81815285602083850101111561486757600080fd5b612249826020830160208601613e5c565b61ffff851681526080602082015260006148956080830186613e88565b6001600160401b0385166040840152828103606084015261476a8185613e88565b634e487b7160e01b600052601260045260246000fd5b6000826148db576148db6148b6565b500490565b61ffff861681526001600160a01b038516602082015260a06040820181905260009061490e90830186613e88565b841515606084015282810360808401526149288185613e88565b98975050505050505050565b6000806040838503121561494757600080fd5b505080516020909101519092909150565b60208082526019908201527813d19510dbdc994e88185b5bdd5b9d081d1bdbc81cdb585b1b603a1b604082015260600190565b60008160001904831182151516156149a5576149a5614644565b500290565b600082516149bc818460208701613e5c565b9190910192915050565b61ffff8616815260a0602082015260006149e360a0830187613e88565b6001600160401b03861660408401528281036060840152614a048186613e88565b905082810360808401526149288185613e88565b600061010061ffff8b168352806020840152614a368184018b613e88565b6001600160401b038a166040850152606084018990526001600160a01b038816608085015260a0840187905283810360c08501529050614a768186613e88565b9150508260e08301529998505050505050505050565b606081526000614a9f6060830186613e88565b6001600160401b039490941660208301525060400152919050565b600082614ac957614ac96148b6565b500690565b61ffff8716815260c060208201526000614aeb60c0830188613e88565b8281036040840152614afd8188613e88565b6001600160a01b0387811660608601528616608085015283810360a08501529050614b288185613e88565b9998505050505050505050565b60ff60f81b8760f81b16815285600182015260006001600160401b0360c01b808760c01b166021840152856029840152808560c01b166049840152508251614b84816051850160208701613e5c565b91909101605101979650505050505050565b60208082526018908201527713d19510dbdc994e881a5b9d985b1a59081c185e5b1bd85960421b60408201526060019056feddf252ad1be2c89b69c2b068fc378daa952ba7f163c4a11628f55a4df523b3efa26469706673582212207587a53fd26b4045f206e4c8a238dc086075f3e698ca466885c730edae04f17664736f6c63430008090033",
  "devdoc": {
    "details": "Latest size: 17.663  KiBEmissions E(x)= E(x-1) - E(x-1) * D with E being total supply a x week, and D the initial decay rate",
    "kind": "dev",
    "methods": {
      "allowance(address,address)": {
        "details": "See {IERC20-allowance}."
      },
      "approve(address,uint256)": {
        "details": "See {IERC20-approve}. NOTE: If `amount` is the maximum `uint256`, the allowance is not updated on `transferFrom`. This is semantically equivalent to an infinite approval. Requirements: - `spender` cannot be the zero address."
      },
      "balanceOf(address)": {
        "details": "See {IERC20-balanceOf}."
      },
      "circulatingSupply()": {
        "details": "returns the circulating amount of tokens on current chain"
      },
      "constructor": {
        "details": "The initial supply of 100M is not minted here as we have the wrap method",
        "params": {
          "_airdrop": "address for the airdrop",
          "_contributors": "address for the contributors",
          "_governanceChainId": "LayerZero governance chain identifier",
          "_investors": "address for the investors",
          "_lbp": "address for the LBP",
          "_lzEndpoint": "the layer zero address endpoint deployed on the current chain"
        }
      },
      "decreaseAllowance(address,uint256)": {
        "details": "Atomically decreases the allowance granted to `spender` by the caller. This is an alternative to {approve} that can be used as a mitigation for problems described in {IERC20-approve}. Emits an {Approval} event indicating the updated allowance. Requirements: - `spender` cannot be the zero address. - `spender` must have allowance for the caller of at least `subtractedValue`."
      },
      "estimateSendFee(uint16,bytes32,uint256,bool,bytes)": {
        "details": "estimate send token `_tokenId` to (`_dstChainId`, `_toAddress`) _dstChainId - L0 defined chain id to send tokens too _toAddress - dynamic bytes array which contains the address to whom you are sending tokens to on the dstChain _amount - amount of the tokens to transfer _useZro - indicates to use zro to pay L0 fees _adapterParam - flexible bytes array to indicate messaging adapter services in L0"
      },
      "extractTAP(address,uint256)": {
        "params": {
          "_amount": "TAP amount",
          "_to": "Address to send the minted TAP to"
        }
      },
      "increaseAllowance(address,uint256)": {
        "details": "Atomically increases the allowance granted to `spender` by the caller. This is an alternative to {approve} that can be used as a mitigation for problems described in {IERC20-approve}. Emits an {Approval} event indicating the updated allowance. Requirements: - `spender` cannot be the zero address."
      },
      "name()": {
        "details": "Returns the name of the token."
      },
      "owner()": {
        "details": "Returns the address of the current owner."
      },
      "removeTAP(uint256)": {
        "params": {
          "_amount": "TAP amount"
        }
      },
      "renounceOwnership()": {
        "details": "Leaves the contract without owner. It will not be possible to call `onlyOwner` functions anymore. Can only be called by the current owner. NOTE: Renouncing ownership will leave the contract without an owner, thereby removing any functionality that is only available to the owner."
      },
      "sendFrom(address,uint16,bytes32,uint256,(address,address,bytes))": {
        "details": "send `_amount` amount of token to (`_dstChainId`, `_toAddress`) from `_from` `_from` the owner of token `_dstChainId` the destination chain identifier `_toAddress` can be any size depending on the `dstChainId`. `_amount` the quantity of tokens in wei `_refundAddress` the address LayerZero refunds if too much message fee is sent `_zroPaymentAddress` set to address(0x0) if not paying in ZRO (LayerZero Token) `_adapterParams` is a flexible bytes array to indicate messaging adapter services"
      },
      "setConservator(address)": {
        "details": "Conservator can pause the contract",
        "params": {
          "_conservator": "The new address"
        }
      },
      "setGovernanceChainIdentifier(uint256)": {
        "params": {
          "_identifier": "LayerZero chain identifier"
        }
      },
      "setMinter(address)": {
        "params": {
          "_minter": "the new address"
        }
      },
      "symbol()": {
        "details": "Returns the symbol of the token, usually a shorter version of the name."
      },
      "token()": {
        "details": "returns the address of the ERC20 token"
      },
      "totalSupply()": {
        "details": "See {IERC20-totalSupply}."
      },
      "transfer(address,uint256)": {
        "details": "See {IERC20-transfer}. Requirements: - `to` cannot be the zero address. - the caller must have a balance of at least `amount`."
      },
      "transferFrom(address,address,uint256)": {
        "details": "See {IERC20-transferFrom}. Emits an {Approval} event indicating the updated allowance. This is not required by the EIP. See the note at the beginning of {ERC20}. NOTE: Does not update the allowance if the current allowance is the maximum `uint256`. Requirements: - `from` and `to` cannot be the zero address. - `from` must have a balance of at least `amount`. - the caller must have allowance for ``from``'s tokens of at least `amount`."
      },
      "transferOwnership(address)": {
        "details": "Transfers ownership of the contract to a new account (`newOwner`). Can only be called by the current owner."
      },
      "updatePause(bool)": {
        "params": {
          "val": "the new value"
        }
      }
    },
    "stateVariables": {
      "emissionsStartTime": {
        "details": "initialized in the constructor with block.timestamp"
      },
      "mintedInWeek": {
        "details": "week is computed using (timestamp - emissionStartTime) / WEEK"
      }
    },
    "title": "Tapioca OFT token",
    "version": 1
  },
  "userdoc": {
    "events": {
      "Burned(address,uint256)": {
        "notice": "event emitted when new TAP is burned"
      },
      "ConservatorUpdated(address,address)": {
        "notice": "event emitted when Conservator is changed"
      },
      "GovernanceChainIdentifierUpdated(uint256,uint256)": {
        "notice": "event emitted when the governance chain identifier is updated"
      },
      "Minted(address,address,uint256)": {
        "notice": "event emitted when new TAP is minted"
      },
      "MinterUpdated(address,address)": {
        "notice": "event emitted when a new minter is set"
      },
      "PausedUpdated(bool,bool)": {
        "notice": "event emitted when pause state is changed"
      }
    },
    "kind": "user",
    "methods": {
      "WEEK()": {
        "notice": "seconds in a week"
      },
      "conservator()": {
        "notice": "returns the Conservator address"
      },
      "constructor": {
        "notice": "Creates a new TAP OFT type token"
      },
      "decimals()": {
        "notice": "returns token's decimals"
      },
      "emissionsStartTime()": {
        "notice": "starts time for emissions"
      },
      "emitForWeek()": {
        "notice": "-- Write methods --Emit the TAP for the current week"
      },
      "extractTAP(address,uint256)": {
        "notice": "extracts from the minted TAP"
      },
      "getCurrentWeekEmission()": {
        "notice": "Returns the current week emission"
      },
      "governanceChainIdentifier()": {
        "notice": "LayerZero governance chain identifier"
      },
      "mintedInWeek(uint256)": {
        "notice": "returns the amount minted for a specific week"
      },
      "minter()": {
        "notice": "returns the minter address"
      },
      "paused()": {
        "notice": "returns the pause state of the contract"
      },
      "removeTAP(uint256)": {
        "notice": "burns TAP"
      },
      "setConservator(address)": {
        "notice": "Set the Conservator address"
      },
      "setGovernanceChainIdentifier(uint256)": {
        "notice": "-- Owner methods --sets the governance chain identifier"
      },
      "setMinter(address)": {
        "notice": "sets a new minter address"
      },
      "timestampToWeek(uint256)": {
        "notice": "Returns the current week given a timestamp"
      },
      "updatePause(bool)": {
        "notice": "updates the pause state of the contract"
      }
    },
    "notice": "OFT compatible TAP token",
    "version": 1
  },
  "storageLayout": {
    "storage": [
      {
        "astId": 1728,
        "contract": "contracts/tokens/TapOFT.sol:TapOFT",
        "label": "_owner",
        "offset": 0,
        "slot": "0",
        "type": "t_address"
      },
      {
        "astId": 15217,
        "contract": "contracts/tokens/TapOFT.sol:TapOFT",
        "label": "trustedRemoteLookup",
        "offset": 0,
        "slot": "1",
        "type": "t_mapping(t_uint16,t_bytes_storage)"
      },
      {
        "astId": 15223,
        "contract": "contracts/tokens/TapOFT.sol:TapOFT",
        "label": "minDstGasLookup",
        "offset": 0,
        "slot": "2",
        "type": "t_mapping(t_uint16,t_mapping(t_uint16,t_uint256))"
      },
      {
        "astId": 15227,
        "contract": "contracts/tokens/TapOFT.sol:TapOFT",
        "label": "payloadSizeLimitLookup",
        "offset": 0,
        "slot": "3",
        "type": "t_mapping(t_uint16,t_uint256)"
      },
      {
        "astId": 15229,
        "contract": "contracts/tokens/TapOFT.sol:TapOFT",
        "label": "precrime",
        "offset": 0,
        "slot": "4",
        "type": "t_address"
      },
      {
        "astId": 15766,
        "contract": "contracts/tokens/TapOFT.sol:TapOFT",
        "label": "failedMessages",
        "offset": 0,
        "slot": "5",
        "type": "t_mapping(t_uint16,t_mapping(t_bytes_memory_ptr,t_mapping(t_uint64,t_bytes32)))"
      },
      {
        "astId": 16315,
        "contract": "contracts/tokens/TapOFT.sol:TapOFT",
        "label": "useCustomAdapterParams",
        "offset": 0,
        "slot": "6",
        "type": "t_bool"
      },
      {
        "astId": 16323,
        "contract": "contracts/tokens/TapOFT.sol:TapOFT",
        "label": "creditedPackets",
        "offset": 0,
        "slot": "7",
        "type": "t_mapping(t_uint16,t_mapping(t_bytes_memory_ptr,t_mapping(t_uint64,t_bool)))"
      },
      {
        "astId": 2174,
        "contract": "contracts/tokens/TapOFT.sol:TapOFT",
        "label": "_balances",
        "offset": 0,
        "slot": "8",
        "type": "t_mapping(t_address,t_uint256)"
      },
      {
        "astId": 2180,
        "contract": "contracts/tokens/TapOFT.sol:TapOFT",
        "label": "_allowances",
        "offset": 0,
        "slot": "9",
        "type": "t_mapping(t_address,t_mapping(t_address,t_uint256))"
      },
      {
        "astId": 2182,
        "contract": "contracts/tokens/TapOFT.sol:TapOFT",
        "label": "_totalSupply",
        "offset": 0,
        "slot": "10",
        "type": "t_uint256"
      },
      {
        "astId": 2184,
        "contract": "contracts/tokens/TapOFT.sol:TapOFT",
        "label": "_name",
        "offset": 0,
        "slot": "11",
        "type": "t_string_storage"
      },
      {
        "astId": 2186,
        "contract": "contracts/tokens/TapOFT.sol:TapOFT",
        "label": "_symbol",
        "offset": 0,
        "slot": "12",
        "type": "t_string_storage"
      },
      {
        "astId": 8878,
        "contract": "contracts/tokens/TapOFT.sol:TapOFT",
        "label": "dso_supply",
        "offset": 0,
        "slot": "13",
        "type": "t_uint256"
      },
      {
        "astId": 8897,
        "contract": "contracts/tokens/TapOFT.sol:TapOFT",
        "label": "mintedInWeek",
        "offset": 0,
        "slot": "14",
        "type": "t_mapping(t_uint256,t_uint256)"
      },
      {
        "astId": 8900,
        "contract": "contracts/tokens/TapOFT.sol:TapOFT",
        "label": "minter",
        "offset": 0,
        "slot": "15",
        "type": "t_address"
      },
      {
        "astId": 8903,
        "contract": "contracts/tokens/TapOFT.sol:TapOFT",
        "label": "governanceChainIdentifier",
        "offset": 0,
        "slot": "16",
        "type": "t_uint256"
      },
      {
        "astId": 8906,
        "contract": "contracts/tokens/TapOFT.sol:TapOFT",
        "label": "paused",
        "offset": 0,
        "slot": "17",
        "type": "t_bool"
      },
      {
        "astId": 8909,
        "contract": "contracts/tokens/TapOFT.sol:TapOFT",
        "label": "conservator",
        "offset": 1,
        "slot": "17",
        "type": "t_address"
      }
    ],
    "types": {
      "t_address": {
        "encoding": "inplace",
        "label": "address",
        "numberOfBytes": "20"
      },
      "t_bool": {
        "encoding": "inplace",
        "label": "bool",
        "numberOfBytes": "1"
      },
      "t_bytes32": {
        "encoding": "inplace",
        "label": "bytes32",
        "numberOfBytes": "32"
      },
      "t_bytes_memory_ptr": {
        "encoding": "bytes",
        "label": "bytes",
        "numberOfBytes": "32"
      },
      "t_bytes_storage": {
        "encoding": "bytes",
        "label": "bytes",
        "numberOfBytes": "32"
      },
      "t_mapping(t_address,t_mapping(t_address,t_uint256))": {
        "encoding": "mapping",
        "key": "t_address",
        "label": "mapping(address => mapping(address => uint256))",
        "numberOfBytes": "32",
        "value": "t_mapping(t_address,t_uint256)"
      },
      "t_mapping(t_address,t_uint256)": {
        "encoding": "mapping",
        "key": "t_address",
        "label": "mapping(address => uint256)",
        "numberOfBytes": "32",
        "value": "t_uint256"
      },
      "t_mapping(t_bytes_memory_ptr,t_mapping(t_uint64,t_bool))": {
        "encoding": "mapping",
        "key": "t_bytes_memory_ptr",
        "label": "mapping(bytes => mapping(uint64 => bool))",
        "numberOfBytes": "32",
        "value": "t_mapping(t_uint64,t_bool)"
      },
      "t_mapping(t_bytes_memory_ptr,t_mapping(t_uint64,t_bytes32))": {
        "encoding": "mapping",
        "key": "t_bytes_memory_ptr",
        "label": "mapping(bytes => mapping(uint64 => bytes32))",
        "numberOfBytes": "32",
        "value": "t_mapping(t_uint64,t_bytes32)"
      },
      "t_mapping(t_uint16,t_bytes_storage)": {
        "encoding": "mapping",
        "key": "t_uint16",
        "label": "mapping(uint16 => bytes)",
        "numberOfBytes": "32",
        "value": "t_bytes_storage"
      },
      "t_mapping(t_uint16,t_mapping(t_bytes_memory_ptr,t_mapping(t_uint64,t_bool)))": {
        "encoding": "mapping",
        "key": "t_uint16",
        "label": "mapping(uint16 => mapping(bytes => mapping(uint64 => bool)))",
        "numberOfBytes": "32",
        "value": "t_mapping(t_bytes_memory_ptr,t_mapping(t_uint64,t_bool))"
      },
      "t_mapping(t_uint16,t_mapping(t_bytes_memory_ptr,t_mapping(t_uint64,t_bytes32)))": {
        "encoding": "mapping",
        "key": "t_uint16",
        "label": "mapping(uint16 => mapping(bytes => mapping(uint64 => bytes32)))",
        "numberOfBytes": "32",
        "value": "t_mapping(t_bytes_memory_ptr,t_mapping(t_uint64,t_bytes32))"
      },
      "t_mapping(t_uint16,t_mapping(t_uint16,t_uint256))": {
        "encoding": "mapping",
        "key": "t_uint16",
        "label": "mapping(uint16 => mapping(uint16 => uint256))",
        "numberOfBytes": "32",
        "value": "t_mapping(t_uint16,t_uint256)"
      },
      "t_mapping(t_uint16,t_uint256)": {
        "encoding": "mapping",
        "key": "t_uint16",
        "label": "mapping(uint16 => uint256)",
        "numberOfBytes": "32",
        "value": "t_uint256"
      },
      "t_mapping(t_uint256,t_uint256)": {
        "encoding": "mapping",
        "key": "t_uint256",
        "label": "mapping(uint256 => uint256)",
        "numberOfBytes": "32",
        "value": "t_uint256"
      },
      "t_mapping(t_uint64,t_bool)": {
        "encoding": "mapping",
        "key": "t_uint64",
        "label": "mapping(uint64 => bool)",
        "numberOfBytes": "32",
        "value": "t_bool"
      },
      "t_mapping(t_uint64,t_bytes32)": {
        "encoding": "mapping",
        "key": "t_uint64",
        "label": "mapping(uint64 => bytes32)",
        "numberOfBytes": "32",
        "value": "t_bytes32"
      },
      "t_string_storage": {
        "encoding": "bytes",
        "label": "string",
        "numberOfBytes": "32"
      },
      "t_uint16": {
        "encoding": "inplace",
        "label": "uint16",
        "numberOfBytes": "2"
      },
      "t_uint256": {
        "encoding": "inplace",
        "label": "uint256",
        "numberOfBytes": "32"
      },
      "t_uint64": {
        "encoding": "inplace",
        "label": "uint64",
        "numberOfBytes": "8"
      }
    }
  }
}