{
  "address": "0x658722269ab7866Be472d8C4773B37A0A1b25d39",
  "abi": [
    {
      "inputs": [],
      "stateMutability": "nonpayable",
      "type": "constructor"
    },
    {
      "anonymous": false,
      "inputs": [
        {
          "indexed": true,
          "internalType": "address",
          "name": "owner",
          "type": "address"
        },
        {
          "indexed": true,
          "internalType": "address",
          "name": "approved",
          "type": "address"
        },
        {
          "indexed": true,
          "internalType": "uint256",
          "name": "tokenId",
          "type": "uint256"
        }
      ],
      "name": "Approval",
      "type": "event"
    },
    {
      "anonymous": false,
      "inputs": [
        {
          "indexed": true,
          "internalType": "address",
          "name": "owner",
          "type": "address"
        },
        {
          "indexed": true,
          "internalType": "address",
          "name": "operator",
          "type": "address"
        },
        {
          "indexed": false,
          "internalType": "bool",
          "name": "approved",
          "type": "bool"
        }
      ],
      "name": "ApprovalForAll",
      "type": "event"
    },
    {
      "anonymous": false,
      "inputs": [
        {
          "indexed": true,
          "internalType": "address",
          "name": "from",
          "type": "address"
        },
        {
          "indexed": true,
          "internalType": "uint256",
          "name": "tokenId",
          "type": "uint256"
        },
        {
          "components": [
            {
              "internalType": "uint128",
              "name": "expiry",
              "type": "uint128"
            },
            {
              "internalType": "uint128",
              "name": "discount",
              "type": "uint128"
            },
            {
              "internalType": "uint256",
              "name": "tOLP",
              "type": "uint256"
            }
          ],
          "indexed": false,
          "internalType": "struct TapOption",
          "name": "option",
          "type": "tuple"
        }
      ],
      "name": "Burn",
      "type": "event"
    },
    {
      "anonymous": false,
      "inputs": [
        {
          "indexed": true,
          "internalType": "address",
          "name": "to",
          "type": "address"
        },
        {
          "indexed": true,
          "internalType": "uint256",
          "name": "tokenId",
          "type": "uint256"
        },
        {
          "components": [
            {
              "internalType": "uint128",
              "name": "expiry",
              "type": "uint128"
            },
            {
              "internalType": "uint128",
              "name": "discount",
              "type": "uint128"
            },
            {
              "internalType": "uint256",
              "name": "tOLP",
              "type": "uint256"
            }
          ],
          "indexed": false,
          "internalType": "struct TapOption",
          "name": "option",
          "type": "tuple"
        }
      ],
      "name": "Mint",
      "type": "event"
    },
    {
      "anonymous": false,
      "inputs": [
        {
          "indexed": true,
          "internalType": "address",
          "name": "from",
          "type": "address"
        },
        {
          "indexed": true,
          "internalType": "address",
          "name": "to",
          "type": "address"
        },
        {
          "indexed": true,
          "internalType": "uint256",
          "name": "tokenId",
          "type": "uint256"
        }
      ],
      "name": "Transfer",
      "type": "event"
    },
    {
      "inputs": [
        {
          "internalType": "address",
          "name": "to",
          "type": "address"
        },
        {
          "internalType": "uint256",
          "name": "tokenId",
          "type": "uint256"
        }
      ],
      "name": "approve",
      "outputs": [],
      "stateMutability": "nonpayable",
      "type": "function"
    },
    {
      "inputs": [
        {
          "internalType": "uint256",
          "name": "_tokenId",
          "type": "uint256"
        }
      ],
      "name": "attributes",
      "outputs": [
        {
          "internalType": "address",
          "name": "",
          "type": "address"
        },
        {
          "components": [
            {
              "internalType": "uint128",
              "name": "expiry",
              "type": "uint128"
            },
            {
              "internalType": "uint128",
              "name": "discount",
              "type": "uint128"
            },
            {
              "internalType": "uint256",
              "name": "tOLP",
              "type": "uint256"
            }
          ],
          "internalType": "struct TapOption",
          "name": "",
          "type": "tuple"
        }
      ],
      "stateMutability": "view",
      "type": "function"
    },
    {
      "inputs": [
        {
          "internalType": "address",
          "name": "owner",
          "type": "address"
        }
      ],
      "name": "balanceOf",
      "outputs": [
        {
          "internalType": "uint256",
          "name": "",
          "type": "uint256"
        }
      ],
      "stateMutability": "view",
      "type": "function"
    },
    {
      "inputs": [],
      "name": "broker",
      "outputs": [
        {
          "internalType": "address",
          "name": "",
          "type": "address"
        }
      ],
      "stateMutability": "view",
      "type": "function"
    },
    {
      "inputs": [],
      "name": "brokerClaim",
      "outputs": [],
      "stateMutability": "nonpayable",
      "type": "function"
    },
    {
      "inputs": [
        {
          "internalType": "uint256",
          "name": "_tokenId",
          "type": "uint256"
        }
      ],
      "name": "burn",
      "outputs": [],
      "stateMutability": "nonpayable",
      "type": "function"
    },
    {
      "inputs": [
        {
          "internalType": "uint256",
          "name": "_tokenId",
          "type": "uint256"
        }
      ],
      "name": "exists",
      "outputs": [
        {
          "internalType": "bool",
          "name": "",
          "type": "bool"
        }
      ],
      "stateMutability": "view",
      "type": "function"
    },
    {
      "inputs": [
        {
          "internalType": "uint256",
          "name": "tokenId",
          "type": "uint256"
        }
      ],
      "name": "getApproved",
      "outputs": [
        {
          "internalType": "address",
          "name": "",
          "type": "address"
        }
      ],
      "stateMutability": "view",
      "type": "function"
    },
    {
      "inputs": [
        {
          "internalType": "address",
          "name": "owner",
          "type": "address"
        },
        {
          "internalType": "address",
          "name": "operator",
          "type": "address"
        }
      ],
      "name": "isApprovedForAll",
      "outputs": [
        {
          "internalType": "bool",
          "name": "",
          "type": "bool"
        }
      ],
      "stateMutability": "view",
      "type": "function"
    },
    {
      "inputs": [
        {
          "internalType": "address",
          "name": "_spender",
          "type": "address"
        },
        {
          "internalType": "uint256",
          "name": "_tokenId",
          "type": "uint256"
        }
      ],
      "name": "isApprovedOrOwner",
      "outputs": [
        {
          "internalType": "bool",
          "name": "",
          "type": "bool"
        }
      ],
      "stateMutability": "view",
      "type": "function"
    },
    {
      "inputs": [
        {
          "internalType": "address",
          "name": "_to",
          "type": "address"
        },
        {
          "internalType": "uint128",
          "name": "_expiry",
          "type": "uint128"
        },
        {
          "internalType": "uint128",
          "name": "_discount",
          "type": "uint128"
        },
        {
          "internalType": "uint256",
          "name": "_tOLP",
          "type": "uint256"
        }
      ],
      "name": "mint",
      "outputs": [
        {
          "internalType": "uint256",
          "name": "tokenId",
          "type": "uint256"
        }
      ],
      "stateMutability": "nonpayable",
      "type": "function"
    },
    {
      "inputs": [],
      "name": "mintedOTAP",
      "outputs": [
        {
          "internalType": "uint256",
          "name": "",
          "type": "uint256"
        }
      ],
      "stateMutability": "view",
      "type": "function"
    },
    {
      "inputs": [],
      "name": "mintedTAP",
      "outputs": [
        {
          "internalType": "uint256",
          "name": "",
          "type": "uint256"
        }
      ],
      "stateMutability": "view",
      "type": "function"
    },
    {
      "inputs": [],
      "name": "name",
      "outputs": [
        {
          "internalType": "string",
          "name": "",
          "type": "string"
        }
      ],
      "stateMutability": "view",
      "type": "function"
    },
    {
      "inputs": [
        {
          "internalType": "uint256",
          "name": "",
          "type": "uint256"
        }
      ],
      "name": "options",
      "outputs": [
        {
          "internalType": "uint128",
          "name": "expiry",
          "type": "uint128"
        },
        {
          "internalType": "uint128",
          "name": "discount",
          "type": "uint128"
        },
        {
          "internalType": "uint256",
          "name": "tOLP",
          "type": "uint256"
        }
      ],
      "stateMutability": "view",
      "type": "function"
    },
    {
      "inputs": [
        {
          "internalType": "uint256",
          "name": "tokenId",
          "type": "uint256"
        }
      ],
      "name": "ownerOf",
      "outputs": [
        {
          "internalType": "address",
          "name": "",
          "type": "address"
        }
      ],
      "stateMutability": "view",
      "type": "function"
    },
    {
      "inputs": [
        {
          "internalType": "address",
          "name": "from",
          "type": "address"
        },
        {
          "internalType": "address",
          "name": "to",
          "type": "address"
        },
        {
          "internalType": "uint256",
          "name": "tokenId",
          "type": "uint256"
        }
      ],
      "name": "safeTransferFrom",
      "outputs": [],
      "stateMutability": "nonpayable",
      "type": "function"
    },
    {
      "inputs": [
        {
          "internalType": "address",
          "name": "from",
          "type": "address"
        },
        {
          "internalType": "address",
          "name": "to",
          "type": "address"
        },
        {
          "internalType": "uint256",
          "name": "tokenId",
          "type": "uint256"
        },
        {
          "internalType": "bytes",
          "name": "data",
          "type": "bytes"
        }
      ],
      "name": "safeTransferFrom",
      "outputs": [],
      "stateMutability": "nonpayable",
      "type": "function"
    },
    {
      "inputs": [
        {
          "internalType": "address",
          "name": "operator",
          "type": "address"
        },
        {
          "internalType": "bool",
          "name": "approved",
          "type": "bool"
        }
      ],
      "name": "setApprovalForAll",
      "outputs": [],
      "stateMutability": "nonpayable",
      "type": "function"
    },
    {
      "inputs": [
        {
          "internalType": "uint256",
          "name": "_tokenId",
          "type": "uint256"
        },
        {
          "internalType": "string",
          "name": "_tokenURI",
          "type": "string"
        }
      ],
      "name": "setTokenURI",
      "outputs": [],
      "stateMutability": "nonpayable",
      "type": "function"
    },
    {
      "inputs": [
        {
          "internalType": "bytes4",
          "name": "interfaceId",
          "type": "bytes4"
        }
      ],
      "name": "supportsInterface",
      "outputs": [
        {
          "internalType": "bool",
          "name": "",
          "type": "bool"
        }
      ],
      "stateMutability": "view",
      "type": "function"
    },
    {
      "inputs": [],
      "name": "symbol",
      "outputs": [
        {
          "internalType": "string",
          "name": "",
          "type": "string"
        }
      ],
      "stateMutability": "view",
      "type": "function"
    },
    {
      "inputs": [
        {
          "internalType": "uint256",
          "name": "_tokenId",
          "type": "uint256"
        }
      ],
      "name": "tokenURI",
      "outputs": [
        {
          "internalType": "string",
          "name": "",
          "type": "string"
        }
      ],
      "stateMutability": "view",
      "type": "function"
    },
    {
      "inputs": [
        {
          "internalType": "uint256",
          "name": "",
          "type": "uint256"
        }
      ],
      "name": "tokenURIs",
      "outputs": [
        {
          "internalType": "string",
          "name": "",
          "type": "string"
        }
      ],
      "stateMutability": "view",
      "type": "function"
    },
    {
      "inputs": [
        {
          "internalType": "address",
          "name": "from",
          "type": "address"
        },
        {
          "internalType": "address",
          "name": "to",
          "type": "address"
        },
        {
          "internalType": "uint256",
          "name": "tokenId",
          "type": "uint256"
        }
      ],
      "name": "transferFrom",
      "outputs": [],
      "stateMutability": "nonpayable",
      "type": "function"
    }
  ],
  "transactionHash": "0x9959f2b0301491b928704da09dbf065bccfbc5c59273dd7e8a773cd522912b96",
  "args": [],
  "numDeployments": 1,
  "solcInputHash": "3965167851ce1bc7ec089b1544849abd",
  "bytecode": "0x60806040523480156200001157600080fd5b50604080518082018252600a81526904f7074696f6e205441560b41b60208083019182528351808501909452600484526306f5441560e41b90840152815191929162000060916000916200007f565b508051620000769060019060208401906200007f565b50505062000162565b8280546200008d9062000125565b90600052602060002090601f016020900481019282620000b15760008555620000fc565b82601f10620000cc57805160ff1916838001178555620000fc565b82800160010185558215620000fc579182015b82811115620000fc578251825591602001919060010190620000df565b506200010a9291506200010e565b5090565b5b808211156200010a57600081556001016200010f565b600181811c908216806200013a57607f821691505b602082108114156200015c57634e487b7160e01b600052602260045260246000fd5b50919050565b6118a480620001726000396000f3fe608060405234801561001057600080fd5b50600436106101635760003560e01c80634f558e79116100ce578063a22cb46511610087578063a22cb4651461032c578063abff01101461033f578063b47be4fc14610352578063b88d4fde1461035b578063c87b56dd1461036e578063d05dcc6a14610381578063e985e9c5146103d257600080fd5b80634f558e79146102cf5780636352211e146102e25780636c8b703f146102f557806370a082311461030857806395d89b411461031b5780639c049fe51461032357600080fd5b80631eac071c116101205780631eac071c1461021957806323b872dd14610221578063409e22051461023457806342842e0e1461029657806342966c68146102a9578063430c2081146102bc57600080fd5b806301ffc9a71461016857806306fdde0314610190578063081812fc146101a5578063095ea7b3146101d05780631239824c146101e5578063162094c414610206575b600080fd5b61017b6101763660046112b5565b6103e5565b60405190151581526020015b60405180910390f35b610198610437565b604051610187919061131f565b6101b86101b3366004611332565b6104c9565b6040516001600160a01b039091168152602001610187565b6101e36101de366004611367565b6104f0565b005b6101f86101f33660046113a8565b61060b565b604051908152602001610187565b6101e36102143660046113f3565b6106fb565b6101e3610740565b6101e361022f36600461146f565b61079f565b610270610242366004611332565b600960205260009081526040902080546001909101546001600160801b0380831692600160801b9004169083565b604080516001600160801b03948516815293909216602084015290820152606001610187565b6101e36102a436600461146f565b6107d0565b6101e36102b7366004611332565b6107eb565b61017b6102ca366004611367565b610866565b61017b6102dd366004611332565b610879565b6101b86102f0366004611332565b610884565b610198610303366004611332565b6108b9565b6101f86103163660046114ab565b610953565b6101986109d9565b6101f860075481565b6101e361033a3660046114c6565b6109e8565b6008546101b8906001600160a01b031681565b6101f860065481565b6101e3610369366004611518565b6109f7565b61019861037c366004611332565b610a29565b61039461038f366004611332565b610acb565b604080516001600160a01b03909316835281516001600160801b03908116602080860191909152830151168382015201516060820152608001610187565b61017b6103e03660046115f4565b610b3a565b60006001600160e01b031982166380ac58cd60e01b148061041657506001600160e01b03198216635b5e139f60e01b145b8061043157506301ffc9a760e01b6001600160e01b03198316145b92915050565b60606000805461044690611627565b80601f016020809104026020016040519081016040528092919081815260200182805461047290611627565b80156104bf5780601f10610494576101008083540402835291602001916104bf565b820191906000526020600020905b8154815290600101906020018083116104a257829003601f168201915b5050505050905090565b60006104d482610b68565b506000908152600460205260409020546001600160a01b031690565b60006104fb82610884565b9050806001600160a01b0316836001600160a01b0316141561056e5760405162461bcd60e51b815260206004820152602160248201527f4552433732313a20617070726f76616c20746f2063757272656e74206f776e656044820152603960f91b60648201526084015b60405180910390fd5b336001600160a01b038216148061058a575061058a8133610b3a565b6105fc5760405162461bcd60e51b815260206004820152603e60248201527f4552433732313a20617070726f76652063616c6c6572206973206e6f7420746f60448201527f6b656e206f776e6572206e6f7220617070726f76656420666f7220616c6c00006064820152608401610565565b6106068383610b90565b505050565b6008546000906001600160a01b031633146106605760405162461bcd60e51b815260206004820152601560248201527427aa20a81d1037b7363c9037b7363ca13937b5b2b960591b6044820152606401610565565b60066000815461066f90611678565b918290555090506106808582610bfe565b600081815260096020526040908190206001600160801b03858116600160801b0290871617815560018101849055905182906001600160a01b038816907ff85fc5db92230761a679201cf357af068b25f3ca445054bcf465e9bc61383920906106ea908590611693565b60405180910390a350949350505050565b6107053384610c18565b6107215760405162461bcd60e51b8152600401610565906116bc565b6000838152600a6020526040902061073a908383611206565b50505050565b6008546001600160a01b03161561078b5760405162461bcd60e51b815260206004820152600f60248201526e4f5441503a206f6e6c79206f6e636560881b6044820152606401610565565b600880546001600160a01b03191633179055565b6107a93382610c18565b6107c55760405162461bcd60e51b8152600401610565906116f3565b610606838383610c77565b610606838383604051806020016040528060008152506109f7565b6107f53382610c18565b6108115760405162461bcd60e51b8152600401610565906116bc565b61081a81610e01565b600081815260096020526040908190209051829133917f0f3b9092d3439c7f5326f5648434eeaea09fe55519bc9331f2a1dc2bc1e542459161085b91611693565b60405180910390a350565b60006108728383610c18565b9392505050565b600061043182610e8a565b6000818152600260205260408120546001600160a01b0316806104315760405162461bcd60e51b815260040161056590611741565b600a60205260009081526040902080546108d290611627565b80601f01602080910402602001604051908101604052809291908181526020018280546108fe90611627565b801561094b5780601f106109205761010080835404028352916020019161094b565b820191906000526020600020905b81548152906001019060200180831161092e57829003601f168201915b505050505081565b60006001600160a01b0382166109bd5760405162461bcd60e51b815260206004820152602960248201527f4552433732313a2061646472657373207a65726f206973206e6f7420612076616044820152683634b21037bbb732b960b91b6064820152608401610565565b506001600160a01b031660009081526003602052604090205490565b60606001805461044690611627565b6109f3338383610ea7565b5050565b610a013383610c18565b610a1d5760405162461bcd60e51b8152600401610565906116f3565b61073a84848484610f72565b6000818152600a60205260409020805460609190610a4690611627565b80601f0160208091040260200160405190810160405280929190818152602001828054610a7290611627565b8015610abf5780601f10610a9457610100808354040283529160200191610abf565b820191906000526020600020905b815481529060010190602001808311610aa257829003601f168201915b50505050509050919050565b60408051606081018252600080825260208201819052918101829052610af083610884565b600093845260096020908152604094859020855160608101875281546001600160801b038082168352600160801b9091041692810192909252600101549481019490945293915050565b6001600160a01b03918216600090815260056020908152604080832093909416825291909152205460ff1690565b610b7181610e8a565b610b8d5760405162461bcd60e51b815260040161056590611741565b50565b600081815260046020526040902080546001600160a01b0319166001600160a01b0384169081179091558190610bc582610884565b6001600160a01b03167f8c5be1e5ebec7d5bd14f71427d1e84f3dd0314c0f7b2291e5b200ac8c7c3b92560405160405180910390a45050565b6109f3828260405180602001604052806000815250610fa5565b600080610c2483610884565b9050806001600160a01b0316846001600160a01b03161480610c4b5750610c4b8185610b3a565b80610c6f5750836001600160a01b0316610c64846104c9565b6001600160a01b0316145b949350505050565b826001600160a01b0316610c8a82610884565b6001600160a01b031614610cee5760405162461bcd60e51b815260206004820152602560248201527f4552433732313a207472616e736665722066726f6d20696e636f72726563742060448201526437bbb732b960d91b6064820152608401610565565b6001600160a01b038216610d505760405162461bcd60e51b8152602060048201526024808201527f4552433732313a207472616e7366657220746f20746865207a65726f206164646044820152637265737360e01b6064820152608401610565565b610d5b600082610b90565b6001600160a01b0383166000908152600360205260408120805460019290610d84908490611773565b90915550506001600160a01b0382166000908152600360205260408120805460019290610db290849061178a565b909155505060008181526002602052604080822080546001600160a01b0319166001600160a01b03868116918217909255915184939187169160008051602061184f83398151915291a4505050565b6000610e0c82610884565b9050610e19600083610b90565b6001600160a01b0381166000908152600360205260408120805460019290610e42908490611773565b909155505060008281526002602052604080822080546001600160a01b0319169055518391906001600160a01b0384169060008051602061184f833981519152908390a45050565b6000908152600260205260409020546001600160a01b0316151590565b816001600160a01b0316836001600160a01b03161415610f055760405162461bcd60e51b815260206004820152601960248201527822a9219b99189d1030b8383937bb32903a379031b0b63632b960391b6044820152606401610565565b6001600160a01b03838116600081815260056020908152604080832094871680845294825291829020805460ff191686151590811790915591519182527f17307eab39ab6107e8899845ad3d59bd9653f200f220920489ca2b5937696c31910160405180910390a3505050565b610f7d848484610c77565b610f8984848484610fd8565b61073a5760405162461bcd60e51b8152600401610565906117a2565b610faf83836110e5565b610fbc6000848484610fd8565b6106065760405162461bcd60e51b8152600401610565906117a2565b60006001600160a01b0384163b156110da57604051630a85bd0160e11b81526001600160a01b0385169063150b7a029061101c9033908990889088906004016117f4565b602060405180830381600087803b15801561103657600080fd5b505af1925050508015611066575060408051601f3d908101601f1916820190925261106391810190611831565b60015b6110c0573d808015611094576040519150601f19603f3d011682016040523d82523d6000602084013e611099565b606091505b5080516110b85760405162461bcd60e51b8152600401610565906117a2565b805181602001fd5b6001600160e01b031916630a85bd0160e11b149050610c6f565b506001949350505050565b6001600160a01b03821661113b5760405162461bcd60e51b815260206004820181905260248201527f4552433732313a206d696e7420746f20746865207a65726f20616464726573736044820152606401610565565b61114481610e8a565b156111915760405162461bcd60e51b815260206004820152601c60248201527f4552433732313a20746f6b656e20616c7265616479206d696e746564000000006044820152606401610565565b6001600160a01b03821660009081526003602052604081208054600192906111ba90849061178a565b909155505060008181526002602052604080822080546001600160a01b0319166001600160a01b038616908117909155905183929060008051602061184f833981519152908290a45050565b82805461121290611627565b90600052602060002090601f016020900481019282611234576000855561127a565b82601f1061124d5782800160ff1982351617855561127a565b8280016001018555821561127a579182015b8281111561127a57823582559160200191906001019061125f565b5061128692915061128a565b5090565b5b80821115611286576000815560010161128b565b6001600160e01b031981168114610b8d57600080fd5b6000602082840312156112c757600080fd5b81356108728161129f565b6000815180845260005b818110156112f8576020818501810151868301820152016112dc565b8181111561130a576000602083870101525b50601f01601f19169290920160200192915050565b60208152600061087260208301846112d2565b60006020828403121561134457600080fd5b5035919050565b80356001600160a01b038116811461136257600080fd5b919050565b6000806040838503121561137a57600080fd5b6113838361134b565b946020939093013593505050565b80356001600160801b038116811461136257600080fd5b600080600080608085870312156113be57600080fd5b6113c78561134b565b93506113d560208601611391565b92506113e360408601611391565b9396929550929360600135925050565b60008060006040848603121561140857600080fd5b83359250602084013567ffffffffffffffff8082111561142757600080fd5b818601915086601f83011261143b57600080fd5b81358181111561144a57600080fd5b87602082850101111561145c57600080fd5b6020830194508093505050509250925092565b60008060006060848603121561148457600080fd5b61148d8461134b565b925061149b6020850161134b565b9150604084013590509250925092565b6000602082840312156114bd57600080fd5b6108728261134b565b600080604083850312156114d957600080fd5b6114e28361134b565b9150602083013580151581146114f757600080fd5b809150509250929050565b634e487b7160e01b600052604160045260246000fd5b6000806000806080858703121561152e57600080fd5b6115378561134b565b93506115456020860161134b565b925060408501359150606085013567ffffffffffffffff8082111561156957600080fd5b818701915087601f83011261157d57600080fd5b81358181111561158f5761158f611502565b604051601f8201601f19908116603f011681019083821181831017156115b7576115b7611502565b816040528281528a60208487010111156115d057600080fd5b82602086016020830137600060208483010152809550505050505092959194509250565b6000806040838503121561160757600080fd5b6116108361134b565b915061161e6020840161134b565b90509250929050565b600181811c9082168061163b57607f821691505b6020821081141561165c57634e487b7160e01b600052602260045260246000fd5b50919050565b634e487b7160e01b600052601160045260246000fd5b600060001982141561168c5761168c611662565b5060010190565b81546001600160801b038116825260801c60208201526001820154604082015260608101610431565b6020808252601c908201527f4f5441503a206f6e6c7920617070726f766564206f72206f776e657200000000604082015260600190565b6020808252602e908201527f4552433732313a2063616c6c6572206973206e6f7420746f6b656e206f776e6560408201526d1c881b9bdc88185c1c1c9bdd995960921b606082015260800190565b602080825260189082015277115490cdcc8c4e881a5b9d985b1a59081d1bdad95b88125160421b604082015260600190565b60008282101561178557611785611662565b500390565b6000821982111561179d5761179d611662565b500190565b60208082526032908201527f4552433732313a207472616e7366657220746f206e6f6e20455243373231526560408201527131b2b4bb32b91034b6b83632b6b2b73a32b960711b606082015260800190565b6001600160a01b0385811682528416602082015260408101839052608060608201819052600090611827908301846112d2565b9695505050505050565b60006020828403121561184357600080fd5b81516108728161129f56feddf252ad1be2c89b69c2b068fc378daa952ba7f163c4a11628f55a4df523b3efa2646970667358221220ca0bb7c904e25b2f2351dbdac77160d88f398e2e843f7b576b264109549b0bbc64736f6c63430008090033",
  "devdoc": {
    "kind": "dev",
    "methods": {
      "approve(address,uint256)": {
        "details": "See {IERC721-approve}."
      },
      "balanceOf(address)": {
        "details": "See {IERC721-balanceOf}."
      },
      "burn(uint256)": {
        "params": {
          "_tokenId": "tokenId to burn"
        }
      },
      "getApproved(uint256)": {
        "details": "See {IERC721-getApproved}."
      },
      "isApprovedForAll(address,address)": {
        "details": "See {IERC721-isApprovedForAll}."
      },
      "mint(address,uint128,uint128,uint256)": {
        "params": {
          "_discount": "TAP discount in basis points",
          "_expiry": "timestamp",
          "_tOLP": "tOLP token ID",
          "_to": "address to mint to"
        }
      },
      "name()": {
        "details": "See {IERC721Metadata-name}."
      },
      "ownerOf(uint256)": {
        "details": "See {IERC721-ownerOf}."
      },
      "safeTransferFrom(address,address,uint256)": {
        "details": "See {IERC721-safeTransferFrom}."
      },
      "safeTransferFrom(address,address,uint256,bytes)": {
        "details": "See {IERC721-safeTransferFrom}."
      },
      "setApprovalForAll(address,bool)": {
        "details": "See {IERC721-setApprovalForAll}."
      },
      "supportsInterface(bytes4)": {
        "details": "See {IERC165-supportsInterface}."
      },
      "symbol()": {
        "details": "See {IERC721Metadata-symbol}."
      },
      "transferFrom(address,address,uint256)": {
        "details": "See {IERC721-transferFrom}."
      }
    },
    "version": 1
  },
  "userdoc": {
    "kind": "user",
    "methods": {
      "attributes(uint256)": {
        "notice": "Return the owner of the tokenId and the attributes of the option."
      },
      "brokerClaim()": {
        "notice": "tOB claim"
      },
      "burn(uint256)": {
        "notice": "burns an OTAP"
      },
      "exists(uint256)": {
        "notice": "Check if a token exists"
      },
      "mint(address,uint128,uint128,uint256)": {
        "notice": "mints an OTAP"
      }
    },
    "version": 1
  },
  "storageLayout": {
    "storage": [
      {
        "astId": 3152,
        "contract": "contracts/options/oTAP.sol:OTAP",
        "label": "_name",
        "offset": 0,
        "slot": "0",
        "type": "t_string_storage"
      },
      {
        "astId": 3154,
        "contract": "contracts/options/oTAP.sol:OTAP",
        "label": "_symbol",
        "offset": 0,
        "slot": "1",
        "type": "t_string_storage"
      },
      {
        "astId": 3158,
        "contract": "contracts/options/oTAP.sol:OTAP",
        "label": "_owners",
        "offset": 0,
        "slot": "2",
        "type": "t_mapping(t_uint256,t_address)"
      },
      {
        "astId": 3162,
        "contract": "contracts/options/oTAP.sol:OTAP",
        "label": "_balances",
        "offset": 0,
        "slot": "3",
        "type": "t_mapping(t_address,t_uint256)"
      },
      {
        "astId": 3166,
        "contract": "contracts/options/oTAP.sol:OTAP",
        "label": "_tokenApprovals",
        "offset": 0,
        "slot": "4",
        "type": "t_mapping(t_uint256,t_address)"
      },
      {
        "astId": 3172,
        "contract": "contracts/options/oTAP.sol:OTAP",
        "label": "_operatorApprovals",
        "offset": 0,
        "slot": "5",
        "type": "t_mapping(t_address,t_mapping(t_address,t_bool))"
      },
      {
        "astId": 9116,
        "contract": "contracts/options/oTAP.sol:OTAP",
        "label": "mintedOTAP",
        "offset": 0,
        "slot": "6",
        "type": "t_uint256"
      },
      {
        "astId": 9118,
        "contract": "contracts/options/oTAP.sol:OTAP",
        "label": "mintedTAP",
        "offset": 0,
        "slot": "7",
        "type": "t_uint256"
      },
      {
        "astId": 9120,
        "contract": "contracts/options/oTAP.sol:OTAP",
        "label": "broker",
        "offset": 0,
        "slot": "8",
        "type": "t_address"
      },
      {
        "astId": 9125,
        "contract": "contracts/options/oTAP.sol:OTAP",
        "label": "options",
        "offset": 0,
        "slot": "9",
        "type": "t_mapping(t_uint256,t_struct(TapOption)9112_storage)"
      },
      {
        "astId": 9129,
        "contract": "contracts/options/oTAP.sol:OTAP",
        "label": "tokenURIs",
        "offset": 0,
        "slot": "10",
        "type": "t_mapping(t_uint256,t_string_storage)"
      }
    ],
    "types": {
      "t_address": {
        "encoding": "inplace",
        "label": "address",
        "numberOfBytes": "20"
      },
      "t_bool": {
        "encoding": "inplace",
        "label": "bool",
        "numberOfBytes": "1"
      },
      "t_mapping(t_address,t_bool)": {
        "encoding": "mapping",
        "key": "t_address",
        "label": "mapping(address => bool)",
        "numberOfBytes": "32",
        "value": "t_bool"
      },
      "t_mapping(t_address,t_mapping(t_address,t_bool))": {
        "encoding": "mapping",
        "key": "t_address",
        "label": "mapping(address => mapping(address => bool))",
        "numberOfBytes": "32",
        "value": "t_mapping(t_address,t_bool)"
      },
      "t_mapping(t_address,t_uint256)": {
        "encoding": "mapping",
        "key": "t_address",
        "label": "mapping(address => uint256)",
        "numberOfBytes": "32",
        "value": "t_uint256"
      },
      "t_mapping(t_uint256,t_address)": {
        "encoding": "mapping",
        "key": "t_uint256",
        "label": "mapping(uint256 => address)",
        "numberOfBytes": "32",
        "value": "t_address"
      },
      "t_mapping(t_uint256,t_string_storage)": {
        "encoding": "mapping",
        "key": "t_uint256",
        "label": "mapping(uint256 => string)",
        "numberOfBytes": "32",
        "value": "t_string_storage"
      },
      "t_mapping(t_uint256,t_struct(TapOption)9112_storage)": {
        "encoding": "mapping",
        "key": "t_uint256",
        "label": "mapping(uint256 => struct TapOption)",
        "numberOfBytes": "32",
        "value": "t_struct(TapOption)9112_storage"
      },
      "t_string_storage": {
        "encoding": "bytes",
        "label": "string",
        "numberOfBytes": "32"
      },
      "t_struct(TapOption)9112_storage": {
        "encoding": "inplace",
        "label": "struct TapOption",
        "members": [
          {
            "astId": 9107,
            "contract": "contracts/options/oTAP.sol:OTAP",
            "label": "expiry",
            "offset": 0,
            "slot": "0",
            "type": "t_uint128"
          },
          {
            "astId": 9109,
            "contract": "contracts/options/oTAP.sol:OTAP",
            "label": "discount",
            "offset": 16,
            "slot": "0",
            "type": "t_uint128"
          },
          {
            "astId": 9111,
            "contract": "contracts/options/oTAP.sol:OTAP",
            "label": "tOLP",
            "offset": 0,
            "slot": "1",
            "type": "t_uint256"
          }
        ],
        "numberOfBytes": "64"
      },
      "t_uint128": {
        "encoding": "inplace",
        "label": "uint128",
        "numberOfBytes": "16"
      },
      "t_uint256": {
        "encoding": "inplace",
        "label": "uint256",
        "numberOfBytes": "32"
      }
    }
  }
}