{
  "address": "0x9EC14ADAA1d71cde3Db4053801927b26740471c9",
  "abi": [
    {
      "inputs": [
        {
          "internalType": "address",
          "name": "_tOLP",
          "type": "address"
        },
        {
          "internalType": "address",
          "name": "_oTAP",
          "type": "address"
        },
        {
          "internalType": "address",
          "name": "_tapOFT",
          "type": "address"
        },
        {
          "internalType": "address",
          "name": "_paymentTokenBeneficiary",
          "type": "address"
        }
      ],
      "stateMutability": "nonpayable",
      "type": "constructor"
    },
    {
      "anonymous": false,
      "inputs": [
        {
          "indexed": true,
          "internalType": "uint256",
          "name": "epoch",
          "type": "uint256"
        },
        {
          "indexed": true,
          "internalType": "uint256",
          "name": "cumulative",
          "type": "uint256"
        },
        {
          "indexed": true,
          "internalType": "uint256",
          "name": "averageMagnitude",
          "type": "uint256"
        },
        {
          "indexed": false,
          "internalType": "uint256",
          "name": "totalParticipants",
          "type": "uint256"
        }
      ],
      "name": "AMLDivergence",
      "type": "event"
    },
    {
      "anonymous": false,
      "inputs": [
        {
          "indexed": true,
          "internalType": "uint256",
          "name": "epoch",
          "type": "uint256"
        },
        {
          "indexed": true,
          "internalType": "address",
          "name": "to",
          "type": "address"
        },
        {
          "indexed": true,
          "internalType": "contract ERC20",
          "name": "paymentToken",
          "type": "address"
        },
        {
          "indexed": false,
          "internalType": "uint256",
          "name": "oTapTokenID",
          "type": "uint256"
        },
        {
          "indexed": false,
          "internalType": "uint256",
          "name": "amount",
          "type": "uint256"
        }
      ],
      "name": "ExerciseOption",
      "type": "event"
    },
    {
      "anonymous": false,
      "inputs": [
        {
          "indexed": true,
          "internalType": "uint256",
          "name": "epoch",
          "type": "uint256"
        },
        {
          "indexed": true,
          "internalType": "uint256",
          "name": "tokenId",
          "type": "uint256"
        },
        {
          "indexed": false,
          "internalType": "uint256",
          "name": "amount",
          "type": "uint256"
        }
      ],
      "name": "ExitPosition",
      "type": "event"
    },
    {
      "anonymous": false,
      "inputs": [
        {
          "indexed": true,
          "internalType": "uint256",
          "name": "epoch",
          "type": "uint256"
        },
        {
          "indexed": false,
          "internalType": "uint256",
          "name": "extractedTAP",
          "type": "uint256"
        },
        {
          "indexed": false,
          "internalType": "uint256",
          "name": "epochTAPValuation",
          "type": "uint256"
        }
      ],
      "name": "NewEpoch",
      "type": "event"
    },
    {
      "anonymous": false,
      "inputs": [
        {
          "indexed": true,
          "internalType": "address",
          "name": "previousOwner",
          "type": "address"
        },
        {
          "indexed": true,
          "internalType": "address",
          "name": "newOwner",
          "type": "address"
        }
      ],
      "name": "OwnershipTransferred",
      "type": "event"
    },
    {
      "anonymous": false,
      "inputs": [
        {
          "indexed": true,
          "internalType": "uint256",
          "name": "epoch",
          "type": "uint256"
        },
        {
          "indexed": true,
          "internalType": "uint256",
          "name": "sglAssetID",
          "type": "uint256"
        },
        {
          "indexed": false,
          "internalType": "uint256",
          "name": "totalDeposited",
          "type": "uint256"
        },
        {
          "components": [
            {
              "internalType": "uint128",
              "name": "sglAssetID",
              "type": "uint128"
            },
            {
              "internalType": "uint128",
              "name": "amount",
              "type": "uint128"
            },
            {
              "internalType": "uint128",
              "name": "lockTime",
              "type": "uint128"
            },
            {
              "internalType": "uint128",
              "name": "lockDuration",
              "type": "uint128"
            }
          ],
          "indexed": false,
          "internalType": "struct LockPosition",
          "name": "lock",
          "type": "tuple"
        },
        {
          "indexed": false,
          "internalType": "uint256",
          "name": "discount",
          "type": "uint256"
        }
      ],
      "name": "Participate",
      "type": "event"
    },
    {
      "anonymous": false,
      "inputs": [
        {
          "indexed": false,
          "internalType": "address",
          "name": "account",
          "type": "address"
        }
      ],
      "name": "Paused",
      "type": "event"
    },
    {
      "anonymous": false,
      "inputs": [
        {
          "indexed": false,
          "internalType": "contract ERC20",
          "name": "paymentToken",
          "type": "address"
        },
        {
          "indexed": false,
          "internalType": "contract IOracle",
          "name": "oracle",
          "type": "address"
        },
        {
          "indexed": false,
          "internalType": "bytes",
          "name": "oracleData",
          "type": "bytes"
        }
      ],
      "name": "SetPaymentToken",
      "type": "event"
    },
    {
      "anonymous": false,
      "inputs": [
        {
          "indexed": false,
          "internalType": "contract IOracle",
          "name": "oracle",
          "type": "address"
        },
        {
          "indexed": false,
          "internalType": "bytes",
          "name": "oracleData",
          "type": "bytes"
        }
      ],
      "name": "SetTapOracle",
      "type": "event"
    },
    {
      "anonymous": false,
      "inputs": [
        {
          "indexed": false,
          "internalType": "address",
          "name": "account",
          "type": "address"
        }
      ],
      "name": "Unpaused",
      "type": "event"
    },
    {
      "inputs": [],
      "name": "claimOwnership",
      "outputs": [],
      "stateMutability": "nonpayable",
      "type": "function"
    },
    {
      "inputs": [
        {
          "internalType": "address[]",
          "name": "_paymentTokens",
          "type": "address[]"
        }
      ],
      "name": "collectPaymentTokens",
      "outputs": [],
      "stateMutability": "nonpayable",
      "type": "function"
    },
    {
      "inputs": [],
      "name": "epoch",
      "outputs": [
        {
          "internalType": "uint256",
          "name": "",
          "type": "uint256"
        }
      ],
      "stateMutability": "view",
      "type": "function"
    },
    {
      "inputs": [],
      "name": "epochTAPValuation",
      "outputs": [
        {
          "internalType": "uint256",
          "name": "",
          "type": "uint256"
        }
      ],
      "stateMutability": "view",
      "type": "function"
    },
    {
      "inputs": [
        {
          "internalType": "uint256",
          "name": "_oTAPTokenID",
          "type": "uint256"
        },
        {
          "internalType": "contract ERC20",
          "name": "_paymentToken",
          "type": "address"
        },
        {
          "internalType": "uint256",
          "name": "_tapAmount",
          "type": "uint256"
        }
      ],
      "name": "exerciseOption",
      "outputs": [],
      "stateMutability": "nonpayable",
      "type": "function"
    },
    {
      "inputs": [
        {
          "internalType": "uint256",
          "name": "_oTAPTokenID",
          "type": "uint256"
        }
      ],
      "name": "exitPosition",
      "outputs": [],
      "stateMutability": "nonpayable",
      "type": "function"
    },
    {
      "inputs": [
        {
          "internalType": "uint256",
          "name": "_oTAPTokenID",
          "type": "uint256"
        },
        {
          "internalType": "contract ERC20",
          "name": "_paymentToken",
          "type": "address"
        },
        {
          "internalType": "uint256",
          "name": "_tapAmount",
          "type": "uint256"
        }
      ],
      "name": "getOTCDealDetails",
      "outputs": [
        {
          "internalType": "uint256",
          "name": "eligibleTapAmount",
          "type": "uint256"
        },
        {
          "internalType": "uint256",
          "name": "paymentTokenAmount",
          "type": "uint256"
        }
      ],
      "stateMutability": "view",
      "type": "function"
    },
    {
      "inputs": [],
      "name": "lastEpochUpdate",
      "outputs": [
        {
          "internalType": "uint256",
          "name": "",
          "type": "uint256"
        }
      ],
      "stateMutability": "view",
      "type": "function"
    },
    {
      "inputs": [],
      "name": "newEpoch",
      "outputs": [],
      "stateMutability": "nonpayable",
      "type": "function"
    },
    {
      "inputs": [],
      "name": "oTAP",
      "outputs": [
        {
          "internalType": "contract OTAP",
          "name": "",
          "type": "address"
        }
      ],
      "stateMutability": "view",
      "type": "function"
    },
    {
      "inputs": [],
      "name": "oTAPBrokerClaim",
      "outputs": [],
      "stateMutability": "nonpayable",
      "type": "function"
    },
    {
      "inputs": [
        {
          "internalType": "uint256",
          "name": "",
          "type": "uint256"
        },
        {
          "internalType": "uint256",
          "name": "",
          "type": "uint256"
        }
      ],
      "name": "oTAPCalls",
      "outputs": [
        {
          "internalType": "bool",
          "name": "",
          "type": "bool"
        }
      ],
      "stateMutability": "view",
      "type": "function"
    },
    {
      "inputs": [],
      "name": "owner",
      "outputs": [
        {
          "internalType": "address",
          "name": "",
          "type": "address"
        }
      ],
      "stateMutability": "view",
      "type": "function"
    },
    {
      "inputs": [
        {
          "internalType": "uint256",
          "name": "",
          "type": "uint256"
        }
      ],
      "name": "participants",
      "outputs": [
        {
          "internalType": "bool",
          "name": "hasVotingPower",
          "type": "bool"
        },
        {
          "internalType": "uint256",
          "name": "averageMagnitude",
          "type": "uint256"
        },
        {
          "internalType": "bool",
          "name": "divergenceForce",
          "type": "bool"
        }
      ],
      "stateMutability": "view",
      "type": "function"
    },
    {
      "inputs": [
        {
          "internalType": "uint256",
          "name": "_tOLPTokenID",
          "type": "uint256"
        }
      ],
      "name": "participate",
      "outputs": [
        {
          "internalType": "uint256",
          "name": "oTAPTokenID",
          "type": "uint256"
        }
      ],
      "stateMutability": "nonpayable",
      "type": "function"
    },
    {
      "inputs": [],
      "name": "paused",
      "outputs": [
        {
          "internalType": "bool",
          "name": "",
          "type": "bool"
        }
      ],
      "stateMutability": "view",
      "type": "function"
    },
    {
      "inputs": [],
      "name": "paymentTokenBeneficiary",
      "outputs": [
        {
          "internalType": "address",
          "name": "",
          "type": "address"
        }
      ],
      "stateMutability": "view",
      "type": "function"
    },
    {
      "inputs": [
        {
          "internalType": "contract ERC20",
          "name": "",
          "type": "address"
        }
      ],
      "name": "paymentTokens",
      "outputs": [
        {
          "internalType": "contract IOracle",
          "name": "oracle",
          "type": "address"
        },
        {
          "internalType": "bytes",
          "name": "oracleData",
          "type": "bytes"
        }
      ],
      "stateMutability": "view",
      "type": "function"
    },
    {
      "inputs": [],
      "name": "pendingOwner",
      "outputs": [
        {
          "internalType": "address",
          "name": "",
          "type": "address"
        }
      ],
      "stateMutability": "view",
      "type": "function"
    },
    {
      "inputs": [
        {
          "internalType": "contract ERC20",
          "name": "_paymentToken",
          "type": "address"
        },
        {
          "internalType": "contract IOracle",
          "name": "_oracle",
          "type": "address"
        },
        {
          "internalType": "bytes",
          "name": "_oracleData",
          "type": "bytes"
        }
      ],
      "name": "setPaymentToken",
      "outputs": [],
      "stateMutability": "nonpayable",
      "type": "function"
    },
    {
      "inputs": [
        {
          "internalType": "address",
          "name": "_paymentTokenBeneficiary",
          "type": "address"
        }
      ],
      "name": "setPaymentTokenBeneficiary",
      "outputs": [],
      "stateMutability": "nonpayable",
      "type": "function"
    },
    {
      "inputs": [
        {
          "internalType": "contract IOracle",
          "name": "_tapOracle",
          "type": "address"
        },
        {
          "internalType": "bytes",
          "name": "_tapOracleData",
          "type": "bytes"
        }
      ],
      "name": "setTapOracle",
      "outputs": [],
      "stateMutability": "nonpayable",
      "type": "function"
    },
    {
      "inputs": [
        {
          "internalType": "uint256",
          "name": "",
          "type": "uint256"
        },
        {
          "internalType": "uint256",
          "name": "",
          "type": "uint256"
        }
      ],
      "name": "singularityGauges",
      "outputs": [
        {
          "internalType": "uint256",
          "name": "",
          "type": "uint256"
        }
      ],
      "stateMutability": "view",
      "type": "function"
    },
    {
      "inputs": [],
      "name": "tOLP",
      "outputs": [
        {
          "internalType": "contract TapiocaOptionLiquidityProvision",
          "name": "",
          "type": "address"
        }
      ],
      "stateMutability": "view",
      "type": "function"
    },
    {
      "inputs": [],
      "name": "tapOFT",
      "outputs": [
        {
          "internalType": "contract TapOFT",
          "name": "",
          "type": "address"
        }
      ],
      "stateMutability": "view",
      "type": "function"
    },
    {
      "inputs": [],
      "name": "tapOracle",
      "outputs": [
        {
          "internalType": "contract IOracle",
          "name": "",
          "type": "address"
        }
      ],
      "stateMutability": "view",
      "type": "function"
    },
    {
      "inputs": [],
      "name": "tapOracleData",
      "outputs": [
        {
          "internalType": "bytes",
          "name": "",
          "type": "bytes"
        }
      ],
      "stateMutability": "view",
      "type": "function"
    },
    {
      "inputs": [
        {
          "internalType": "address",
          "name": "newOwner",
          "type": "address"
        },
        {
          "internalType": "bool",
          "name": "direct",
          "type": "bool"
        },
        {
          "internalType": "bool",
          "name": "renounce",
          "type": "bool"
        }
      ],
      "name": "transferOwnership",
      "outputs": [],
      "stateMutability": "nonpayable",
      "type": "function"
    },
    {
      "inputs": [
        {
          "internalType": "uint256",
          "name": "",
          "type": "uint256"
        }
      ],
      "name": "twAML",
      "outputs": [
        {
          "internalType": "uint256",
          "name": "totalParticipants",
          "type": "uint256"
        },
        {
          "internalType": "uint256",
          "name": "averageMagnitude",
          "type": "uint256"
        },
        {
          "internalType": "uint256",
          "name": "totalDeposited",
          "type": "uint256"
        },
        {
          "internalType": "uint256",
          "name": "cumulative",
          "type": "uint256"
        }
      ],
      "stateMutability": "view",
      "type": "function"
    }
  ],
  "transactionHash": "0x1f3134708e0862324af147659647db95db273f227ce05447bacc0cd622926d00",
  "args": [
    "0x6d984d86e8E2112462F4Ce9D851190aE129C0F39",
    "0x4364aef7C6f644bb0e719784F1A35100beAee6Db",
    "0x76174d787894C091AF447EA5f299E9DB5c7f9664",
    "0xEAF9f533871B07B151883908B4Fb6eeF4b51A95F"
  ],
  "numDeployments": 1,
  "solcInputHash": "7a69be71d4ab19fff3e09bca4fb26b62",
  "bytecode": "0x60e06040523480156200001157600080fd5b5060405162003a3138038062003a318339810160408190526200003491620000c8565b600080546001600160a81b031916610100339081029190911782556040519091907f8be0079c531659141344cd1fd0a4f28419497f9722a3daafe3b4186f6b6457e0908290a3600b80546001600160a01b0319166001600160a01b03928316179055928316608052821660a0521660c05262000125565b80516001600160a01b0381168114620000c357600080fd5b919050565b60008060008060808587031215620000df57600080fd5b620000ea85620000ab565b9350620000fa60208601620000ab565b92506200010a60408601620000ab565b91506200011a60608601620000ab565b905092959194509250565b60805160a05160c051613834620001fd600039600081816102dd01528181610a0301528181610beb01528181610cec01528181610e2f0152818161110c015281816116c60152818161182501528181611ed3015261210c0152600081816103ad01528181610764015281816108080152612b030152600081816104750152818161064e01528181610d750152818161118b01528181611254015281816113b20152818161146c015281816118c901528181611b0601528181611f5d015281816122770152818161254401526125dd01526138346000f3fe608060405234801561001057600080fd5b506004361061018f5760003560e01c8063845c9306116100e457806397d63d431161009257806397d63d4314610403578063a1bef73414610416578063c3b88b4214610429578063c9eed5461461044a578063e30c39781461045d578063e482120014610470578063e4ed31f814610497578063f13d1774146104aa57600080fd5b8063845c9306146103645780638590f413146103775780638676950f1461039f5780638b0c2dfc146103a85780638da5cb5b146103cf578063900cf0cf146103e7578063933f6da5146103f057600080fd5b806335c1d3491161014157806335c1d34914610252578063376e08bd146102a55780634e71e0c8146102d05780635ad70387146102d85780635c975abb1461030c578063752dcf831461032357806378dc90591461035157600080fd5b8063078dfbe71461019457806310f95fbe146101a957806318f5e0ab146101b15780631b8fb9f5146101c45780631f767581146101cc5780631fe802371461022657806320b86b831461023b575b600080fd5b6101a76101a2366004612ca4565b6104bd565b005b6101a76105ea565b6101a76101bf366004612d37565b61096a565b6101a7610a01565b6102016101da366004612d8b565b600c6020526000908152604090208054600182015460028301546003909301549192909184565b6040805194855260208501939093529183015260608201526080015b60405180910390f35b61022e610a76565b60405161021d9190612df1565b61024460055481565b60405190815260200161021d565b610286610260366004612d8b565b60076020526000908152604090208054600182015460029092015460ff91821692911683565b604080519315158452602084019290925215159082015260600161021d565b6102446102b3366004612e04565b600960209081526000928352604080842090915290825290205481565b6101a7610b04565b6102ff7f000000000000000000000000000000000000000000000000000000000000000081565b60405161021d9190612e26565b60005460ff165b604051901515815260200161021d565b610313610331366004612e04565b600860209081526000928352604080842090915290825290205460ff1681565b6101a761035f366004612d8b565b610bd5565b610244610372366004612d8b565b61124d565b61038a610385366004612e3a565b61181e565b6040805192835260208301919091520161021d565b61024460045481565b6102ff7f000000000000000000000000000000000000000000000000000000000000000081565b6000546102ff9061010090046001600160a01b031681565b61024460065481565b6003546102ff906001600160a01b031681565b6101a7610411366004612e72565b611cd7565b6101a7610424366004612e3a565b611eba565b61043c610437366004612ee6565b612391565b60405161021d929190612f03565b6101a7610458366004612ee6565b612440565b6001546102ff906001600160a01b031681565b6102ff7f000000000000000000000000000000000000000000000000000000000000000081565b6101a76104a5366004612f27565b612491565b600b546102ff906001600160a01b031681565b60005461010090046001600160a01b031633146104f55760405162461bcd60e51b81526004016104ec90612f8b565b60405180910390fd5b81156105c8576001600160a01b03831615158061050f5750805b6105535760405162461bcd60e51b81526020600482015260156024820152744f776e61626c653a207a65726f206164647265737360581b60448201526064016104ec565b600080546040516001600160a01b038087169361010090930416917f8be0079c531659141344cd1fd0a4f28419497f9722a3daafe3b4186f6b6457e091a3600080546001600160a01b03851661010002610100600160a81b0319909116179055600180546001600160a01b0319169055505050565b600180546001600160a01b0385166001600160a01b0319909116179055505050565b62093a806004546105fb9190612fd6565b42101561064a5760405162461bcd60e51b815260206004820152601d60248201527f546170696f63614f7074696f6e42726f6b65723a20746f6f20736f6f6e00000060448201526064016104ec565b60007f00000000000000000000000000000000000000000000000000000000000000006001600160a01b031663a7bffffc6040518163ffffffff1660e01b815260040160006040518083038186803b1580156106a557600080fd5b505afa1580156106b9573d6000803e3d6000fd5b505050506040513d6000823e601f3d908101601f191682016040526106e1919081019061307f565b905060008151116107495760405162461bcd60e51b815260206004820152602c60248201527f546170696f63614f7074696f6e42726f6b65723a204e6f20616374697665207360448201526b696e67756c6172697469657360a01b60648201526084016104ec565b426004556006805490600061075d83613114565b91905055507f00000000000000000000000000000000000000000000000000000000000000006001600160a01b031663a2a4b99b6040518163ffffffff1660e01b8152600401602060405180830381600087803b1580156107bd57600080fd5b505af11580156107d1573d6000803e3d6000fd5b505050506040513d601f19601f820116820180604052508101906107f5919061312f565b506040516370a0823160e01b81526000907f00000000000000000000000000000000000000000000000000000000000000006001600160a01b038116916370a082319161084491600401612e26565b60206040518083038186803b15801561085c57600080fd5b505afa158015610870573d6000803e3d6000fd5b505050506040513d601f19601f82011682018060405250810190610894919061312f565b905061089f81612540565b60035460405163d6d7d52560e01b81526001600160a01b039091169063d6d7d525906108d09060029060040161317d565b6040805180830381600087803b1580156108e957600080fd5b505af11580156108fd573d6000803e3d6000fd5b505050506040513d601f19601f820116820180604052508101906109219190613225565b60058190556006546040805185815260208101939093529092507f3bb7b347508b7c148ec2094ac60d2e3d8b7595421025643f08b45cb78b326b58910160405180910390a25050565b60005461010090046001600160a01b031633146109995760405162461bcd60e51b81526004016104ec90612f8b565b600380546001600160a01b0319166001600160a01b0385161790556109c060028383612be5565b507f9b50fe786df475d101ca932bdbd73b94ccd27d5ca5677a776bca1d6dc52afb768383836040516109f49392919061327c565b60405180910390a1505050565b7f00000000000000000000000000000000000000000000000000000000000000006001600160a01b0316631eac071c6040518163ffffffff1660e01b8152600401600060405180830381600087803b158015610a5c57600080fd5b505af1158015610a70573d6000803e3d6000fd5b50505050565b60028054610a8390613148565b80601f0160208091040260200160405190810160405280929190818152602001828054610aaf90613148565b8015610afc5780601f10610ad157610100808354040283529160200191610afc565b820191906000526020600020905b815481529060010190602001808311610adf57829003601f168201915b505050505081565b6001546001600160a01b0316338114610b5f5760405162461bcd60e51b815260206004820181905260248201527f4f776e61626c653a2063616c6c657220213d2070656e64696e67206f776e657260448201526064016104ec565b600080546040516001600160a01b038085169361010090930416917f8be0079c531659141344cd1fd0a4f28419497f9722a3daafe3b4186f6b6457e091a3600080546001600160a01b0390921661010002610100600160a81b0319909216919091179055600180546001600160a01b0319169055565b604051634f558e7960e01b8152600481018290527f00000000000000000000000000000000000000000000000000000000000000006001600160a01b031690634f558e799060240160206040518083038186803b158015610c3557600080fd5b505afa158015610c49573d6000803e3d6000fd5b505050506040513d601f19601f82011682018060405250810190610c6d91906132aa565b610cd35760405162461bcd60e51b815260206004820152603160248201527f546170696f63614f7074696f6e42726f6b65723a206f54415020706f736974696044820152701bdb88191bd95cc81b9bdd08195e1a5cdd607a1b60648201526084016104ec565b60405163682ee63560e11b8152600481018290526000907f00000000000000000000000000000000000000000000000000000000000000006001600160a01b03169063d05dcc6a9060240160806040518083038186803b158015610d3657600080fd5b505afa158015610d4a573d6000803e3d6000fd5b505050506040513d601f19601f82011682018060405250810190610d6e91906132de565b91505060007f00000000000000000000000000000000000000000000000000000000000000006001600160a01b031663d68f4dd183604001516040518263ffffffff1660e01b8152600401610dc591815260200190565b60a06040518083038186803b158015610ddd57600080fd5b505afa158015610df1573d6000803e3d6000fd5b505050506040513d601f19601f82011682018060405250810190610e15919061334c565b60405163430c208160e01b81529092506001600160a01b037f000000000000000000000000000000000000000000000000000000000000000016915063430c208190610e6790339087906004016133f1565b60206040518083038186803b158015610e7f57600080fd5b505afa158015610e93573d6000803e3d6000fd5b505050506040513d601f19601f82011682018060405250810190610eb791906132aa565b610ed35760405162461bcd60e51b81526004016104ec9061340a565b80606001518160400151610ee79190613454565b6001600160801b0316421015610f4d5760405162461bcd60e51b815260206004820152602560248201527f546170696f63614f7074696f6e42726f6b65723a204c6f636b206e6f742065786044820152641c1a5c995960da1b60648201526084016104ec565b604080830151600090815260076020908152908290208251606081018452815460ff90811615801583526001840154948301949094526002909201549091161515928101929092526110c95781516001600160801b03166000908152600c6020908152604091829020825160808101845281548152600182015492810192909252600281015482840152600301546060820152908201516110015781602001518160600151610ffc9190612fd6565b611015565b81602001518160600151611015919061347f565b606082015260208301516040820180516001600160801b039092169161103c90839061347f565b90525080518161104b82613496565b90525082516001600160801b03166000908152600c6020908152604091829020835180825584830151600183018190558585015160028401556060860151600390930183905560065494519182529391927f879d967178645d9838c4868b727eeb76eac7b58b1704a13c79003756f09f0993910160405180910390a4505b60408381015160009081526007602052818120805460ff19908116825560018201929092556002018054909116905551630852cd8d60e31b8152600481018590527f00000000000000000000000000000000000000000000000000000000000000006001600160a01b0316906342966c6890602401600060405180830381600087803b15801561115857600080fd5b505af115801561116c573d6000803e3d6000fd5b50505060408085015190516323b872dd60e01b81526001600160a01b037f00000000000000000000000000000000000000000000000000000000000000001692506323b872dd916111c391309133916004016134ad565b600060405180830381600087803b1580156111dd57600080fd5b505af11580156111f1573d6000803e3d6000fd5b5050505082604001516006547f074ff0268facdff7c3074627a72c36bcf0f19d46cea0f1fc395ae81dffcc3e68846020015160405161123f91906001600160801b0391909116815260200190565b60405180910390a350505050565b60008060007f00000000000000000000000000000000000000000000000000000000000000006001600160a01b031663d68f4dd1856040518263ffffffff1660e01b81526004016112a091815260200190565b60a06040518083038186803b1580156112b857600080fd5b505afa1580156112cc573d6000803e3d6000fd5b505050506040513d601f19601f820116820180604052508101906112f0919061334c565b91509150816113555760405162461bcd60e51b815260206004820152602b60248201527f546170696f63614f7074696f6e42726f6b65723a20506f736974696f6e20697360448201526a206e6f742061637469766560a81b60648201526084016104ec565b80516001600160801b03166000908152600c6020908152604091829020825160808101845281548152600182015492810192909252600281015482840152600301546060820152905163430c208160e01b81526001600160a01b037f0000000000000000000000000000000000000000000000000000000000000000169063430c2081906113e990339089906004016133f1565b60206040518083038186803b15801561140157600080fd5b505afa158015611415573d6000803e3d6000fd5b505050506040513d601f19601f8201168201806040525081019061143991906132aa565b6114555760405162461bcd60e51b81526004016104ec9061340a565b6040516323b872dd60e01b81526001600160a01b037f000000000000000000000000000000000000000000000000000000000000000016906323b872dd906114a590339030908a906004016134ad565b600060405180830381600087803b1580156114bf57600080fd5b505af11580156114d3573d6000803e3d6000fd5b5050505060006114f483606001516001600160801b03168360600151612704565b905060008061150e61c3506207a120858760600151612740565b905060006115218560400151600a61278f565b60208701516001600160801b031610801591506116545784518561154482613114565b90525084516020860151611559908690612fd6565b61156391906134d1565b6020860152606080860151908701516001600160801b03161192508261159c5784602001518560600151611597919061347f565b6115b0565b846020015185606001516115b09190612fd6565b606086015260208601516040860180516001600160801b03909216916115d7908390612fd6565b90525085516001600160801b03166000908152600c60209081526040918290208751808255888301516001830181905589850151600284015560608a0151600390930183905560065494519182529391927f879d967178645d9838c4868b727eeb76eac7b58b1704a13c79003756f09f0993910160405180910390a45b6040805160608082018352831515825260208881015181840190815287151584860190815260008f81526007909352918590209351845490151560ff19918216178555905160018501559051600290930180549315159390911692909217909155870151908701516001600160a01b037f00000000000000000000000000000000000000000000000000000000000000001691631239824c9133916116f891613454565b6040516001600160e01b031960e085901b1681526001600160a01b0390921660048301526001600160801b03908116602483015285166044820152606481018c9052608401602060405180830381600087803b15801561175757600080fd5b505af115801561176b573d6000803e3d6000fd5b505050506040513d601f19601f8201168201806040525081019061178f919061312f565b865160065460408089015181519081528a516001600160801b039081166020808401919091528c0151811682840152918b015182166060808301919091528b01518216608082015260a08101879052939b50909116917fa3d578f3f93b76c208e2ce5b52fc1c1293b97a982af8f900c3d04f924fad02f69060c00160405180910390a350505050505050919050565b60008060007f00000000000000000000000000000000000000000000000000000000000000006001600160a01b031663d05dcc6a876040518263ffffffff1660e01b815260040161187191815260200190565b60806040518083038186803b15801561188957600080fd5b505afa15801561189d573d6000803e3d6000fd5b505050506040513d601f19601f820116820180604052508101906118c191906132de565b9150506000807f00000000000000000000000000000000000000000000000000000000000000006001600160a01b031663d68f4dd184604001516040518263ffffffff1660e01b815260040161191991815260200190565b60a06040518083038186803b15801561193157600080fd5b505afa158015611945573d6000803e3d6000fd5b505050506040513d601f19601f82011682018060405250810190611969919061334c565b6006546001600160a01b03808b166000908152600a6020908152604080832081518083019092528054909416815260018401805497995095975093959194908401916119b490613148565b80601f01602080910402602001604051908101604052809291908181526020018280546119e090613148565b8015611a2d5780601f10611a0257610100808354040283529160200191611a2d565b820191906000526020600020905b815481529060010190602001808311611a1057829003601f168201915b5050509190925250508151919250506001600160a01b0316611a615760405162461bcd60e51b81526004016104ec906134f3565b60008a815260086020908152604080832085845290915290205460ff1615611a9b5760405162461bcd60e51b81526004016104ec90613543565b83611ab85760405162461bcd60e51b81526004016104ec90613589565b600082815260096020908152604080832086516001600160801b03908116855290835292819020549186015186519151632fcd25c160e21b815291841660048301529192611b8e92169083907f00000000000000000000000000000000000000000000000000000000000000006001600160a01b03169063bf349704906024015b60206040518083038186803b158015611b5157600080fd5b505afa158015611b65573d6000803e3d6000fd5b505050506040513d601f19601f82011682018060405250810190611b89919061312f565b6127ba565b975060006005548a600014611ba3578a611ba5565b895b611baf91906135cc565b8351602085015160405163eeb8a8d360e01b81529293506000926001600160a01b039092169163eeb8a8d391611be791600401612df1565b604080518083038186803b158015611bfe57600080fd5b505afa158015611c12573d6000803e3d6000fd5b505050506040513d601f19601f82011682018060405250810190611c369190613225565b915050611cc582828a602001516001600160801b03168f6001600160a01b031663313ce5676040518163ffffffff1660e01b815260040160206040518083038186803b158015611c8557600080fd5b505afa158015611c99573d6000803e3d6000fd5b505050506040513d601f19601f82011682018060405250810190611cbd91906135eb565b60ff16612936565b98505050505050505050935093915050565b60005461010090046001600160a01b03163314611d065760405162461bcd60e51b81526004016104ec90612f8b565b600b546001600160a01b0316611d7d5760405162461bcd60e51b815260206004820152603660248201527f546170696f63614f7074696f6e42726f6b65723a205061796d656e7420746f6b604482015275195b8818995b99599a58da585c9e481b9bdd081cd95d60521b60648201526084016104ec565b8060005b81811015610a70576000848483818110611d9d57611d9d61360e565b9050602002016020810190611db29190612ee6565b600b546040516370a0823160e01b81529192506001600160a01b038084169263a9059cbb929091169083906370a0823190611df1903090600401612e26565b60206040518083038186803b158015611e0957600080fd5b505afa158015611e1d573d6000803e3d6000fd5b505050506040513d601f19601f82011682018060405250810190611e41919061312f565b6040518363ffffffff1660e01b8152600401611e5e9291906133f1565b602060405180830381600087803b158015611e7857600080fd5b505af1158015611e8c573d6000803e3d6000fd5b505050506040513d601f19601f82011682018060405250810190611eb091906132aa565b5050600101611d81565b60405163682ee63560e11b8152600481018490526000907f00000000000000000000000000000000000000000000000000000000000000006001600160a01b03169063d05dcc6a9060240160806040518083038186803b158015611f1d57600080fd5b505afa158015611f31573d6000803e3d6000fd5b505050506040513d601f19601f82011682018060405250810190611f5591906132de565b9150506000807f00000000000000000000000000000000000000000000000000000000000000006001600160a01b031663d68f4dd184604001516040518263ffffffff1660e01b8152600401611fad91815260200190565b60a06040518083038186803b158015611fc557600080fd5b505afa158015611fd9573d6000803e3d6000fd5b505050506040513d601f19601f82011682018060405250810190611ffd919061334c565b6006546001600160a01b038089166000908152600a60209081526040808320815180830190925280549094168152600184018054979950959750939591949084019161204890613148565b80601f016020809104026020016040519081016040528092919081815260200182805461207490613148565b80156120c15780601f10612096576101008083540402835291602001916120c1565b820191906000526020600020905b8154815290600101906020018083116120a457829003601f168201915b5050509190925250508151919250506001600160a01b03166120f55760405162461bcd60e51b81526004016104ec906134f3565b60405163430c208160e01b81526001600160a01b037f0000000000000000000000000000000000000000000000000000000000000000169063430c2081906121439033908c906004016133f1565b60206040518083038186803b15801561215b57600080fd5b505afa15801561216f573d6000803e3d6000fd5b505050506040513d601f19601f8201168201806040525081019061219391906132aa565b6121af5760405162461bcd60e51b81526004016104ec9061340a565b600088815260086020908152604080832085845290915290205460ff16156121e95760405162461bcd60e51b81526004016104ec90613543565b836122065760405162461bcd60e51b81526004016104ec90613589565b60008881526008602090815260408083208584528252808320805460ff191660011790556009825280832086516001600160801b039081168552908352818420549287015187519251632fcd25c160e21b815292821660048401529293926122a69291169084906001600160a01b037f0000000000000000000000000000000000000000000000000000000000000000169063bf34970490602401611b39565b9050808811156123115760405162461bcd60e51b815260206004820152603060248201527f546170696f63614f7074696f6e42726f6b65723a20416d6f756e74206578636560448201526f065647320656c696769626c65205441560841b60648201526084016104ec565b6000881561231f5788612321565b815b905061233c8a85838b602001516001600160801b0316612989565b604080518c8152602081018390526001600160a01b038c1691339188917fad9eeb6ac9c439fe4e01f186d3a05d5d27ec1f2449bd4042ec40224b5894b8dd910160405180910390a45050505050505050505050565b600a60205260009081526040902080546001820180546001600160a01b0390921692916123bd90613148565b80601f01602080910402602001604051908101604052809291908181526020018280546123e990613148565b80156124365780601f1061240b57610100808354040283529160200191612436565b820191906000526020600020905b81548152906001019060200180831161241957829003601f168201915b5050505050905082565b60005461010090046001600160a01b0316331461246f5760405162461bcd60e51b81526004016104ec90612f8b565b600b80546001600160a01b0319166001600160a01b0392909216919091179055565b60005461010090046001600160a01b031633146124c05760405162461bcd60e51b81526004016104ec90612f8b565b6001600160a01b038481166000908152600a6020526040902080546001600160a01b0319169185169190911781556124fc906001018383612be5565b507fd70ea94304204d2530588b0d70f2ee633331140b793571367a494b7709768a62848484846040516125329493929190613624565b60405180910390a150505050565b60007f00000000000000000000000000000000000000000000000000000000000000006001600160a01b0316635d9b9bba6040518163ffffffff1660e01b815260040160006040518083038186803b15801561259b57600080fd5b505afa1580156125af573d6000803e3d6000fd5b505050506040513d6000823e601f3d908101601f191682016040526125d79190810190613651565b905060007f00000000000000000000000000000000000000000000000000000000000000006001600160a01b0316631678e4f66040518163ffffffff1660e01b815260040160206040518083038186803b15801561263457600080fd5b505afa158015612648573d6000803e3d6000fd5b505050506040513d601f19601f8201168201806040525081019061266c919061312f565b825190915060005b818110156126fd5760008482815181106126905761269061360e565b602002602001015160400151905060006126ab8288876127ba565b90508060096000600654815260200190815260200160002060008886815181106126d7576126d761360e565b602090810291909101810151518252810191909152604001600020555050600101612674565b5050505050565b60008161272d61271482806135cc565b61271e86806135cc565b6127289190612fd6565b612b75565b612737919061347f565b90505b92915050565b60008161274e575082612787565b60008261275b86866135cc565b61276591906134d1565b90508481116127815785811061277b5780612783565b85612783565b845b9150505b949350505050565b60008061279c83856135cc565b90506127108110156127ae5783612787565b612787612710826134d1565b60008082116127c857600080fd5b60008060001985870985870292508281108382030391505080600014156127f45750829004905061292f565b83811061280057600080fd5b600084868809808403938111909203919050600061282086196001612fd6565b861695869004959384900493600081900304600101905061284181846135cc565b9093179260006128528760036135cc565b600218905061286181886135cc565b61286c90600261347f565b61287690826135cc565b905061288281886135cc565b61288d90600261347f565b61289790826135cc565b90506128a381886135cc565b6128ae90600261347f565b6128b890826135cc565b90506128c481886135cc565b6128cf90600261347f565b6128d990826135cc565b90506128e581886135cc565b6128f090600261347f565b6128fa90826135cc565b905061290681886135cc565b61291190600261347f565b61291b90826135cc565b905061292781866135cc565b955050505050505b9392505050565b60008061294385876134d1565b90506129538185620f42406127ba565b61295d908261347f565b915061296a83601261347f565b61297590600a6137f2565b61297f90836134d1565b9695505050505050565b60006005548361299991906135cc565b8451602086015160405163d6d7d52560e01b81529293506000926001600160a01b039092169163d6d7d525916129d191600401612df1565b6040805180830381600087803b1580156129ea57600080fd5b505af11580156129fe573d6000803e3d6000fd5b505050506040513d601f19601f82011682018060405250810190612a229190613225565b9150506000612a668383868a6001600160a01b031663313ce5676040518163ffffffff1660e01b815260040160206040518083038186803b158015611c8557600080fd5b6040516323b872dd60e01b81529091506001600160a01b038816906323b872dd90612a99903390309086906004016134ad565b602060405180830381600087803b158015612ab357600080fd5b505af1158015612ac7573d6000803e3d6000fd5b505050506040513d601f19601f82011682018060405250810190612aeb91906132aa565b506040516309d7186160e31b81526001600160a01b037f00000000000000000000000000000000000000000000000000000000000000001690634eb8c30890612b3a90339089906004016133f1565b600060405180830381600087803b158015612b5457600080fd5b505af1158015612b68573d6000803e3d6000fd5b5050505050505050505050565b60006003821115612bd65750806000612b8f6002836134d1565b612b9a906001612fd6565b90505b81811015612bd057905080600281612bb581866134d1565b612bbf9190612fd6565b612bc991906134d1565b9050612b9d565b50919050565b8115612be0575060015b919050565b828054612bf190613148565b90600052602060002090601f016020900481019282612c135760008555612c59565b82601f10612c2c5782800160ff19823516178555612c59565b82800160010185558215612c59579182015b82811115612c59578235825591602001919060010190612c3e565b50612c65929150612c69565b5090565b5b80821115612c655760008155600101612c6a565b6001600160a01b0381168114612c9357600080fd5b50565b8015158114612c9357600080fd5b600080600060608486031215612cb957600080fd5b8335612cc481612c7e565b92506020840135612cd481612c96565b91506040840135612ce481612c96565b809150509250925092565b60008083601f840112612d0157600080fd5b5081356001600160401b03811115612d1857600080fd5b602083019150836020828501011115612d3057600080fd5b9250929050565b600080600060408486031215612d4c57600080fd5b8335612d5781612c7e565b925060208401356001600160401b03811115612d7257600080fd5b612d7e86828701612cef565b9497909650939450505050565b600060208284031215612d9d57600080fd5b5035919050565b6000815180845260005b81811015612dca57602081850181015186830182015201612dae565b81811115612ddc576000602083870101525b50601f01601f19169290920160200192915050565b6020815260006127376020830184612da4565b60008060408385031215612e1757600080fd5b50508035926020909101359150565b6001600160a01b0391909116815260200190565b600080600060608486031215612e4f57600080fd5b833592506020840135612e6181612c7e565b929592945050506040919091013590565b60008060208385031215612e8557600080fd5b82356001600160401b0380821115612e9c57600080fd5b818501915085601f830112612eb057600080fd5b813581811115612ebf57600080fd5b8660208260051b8501011115612ed457600080fd5b60209290920196919550909350505050565b600060208284031215612ef857600080fd5b813561292f81612c7e565b6001600160a01b038316815260406020820181905260009061278790830184612da4565b60008060008060608587031215612f3d57600080fd5b8435612f4881612c7e565b93506020850135612f5881612c7e565b925060408501356001600160401b03811115612f7357600080fd5b612f7f87828801612cef565b95989497509550505050565b6020808252818101527f4f776e61626c653a2063616c6c6572206973206e6f7420746865206f776e6572604082015260600190565b634e487b7160e01b600052601160045260246000fd5b60008219821115612fe957612fe9612fc0565b500190565b634e487b7160e01b600052604160045260246000fd5b604051606081016001600160401b038111828210171561302657613026612fee565b60405290565b604051601f8201601f191681016001600160401b038111828210171561305457613054612fee565b604052919050565b60006001600160401b0382111561307557613075612fee565b5060051b60200190565b6000602080838503121561309257600080fd5b82516001600160401b038111156130a857600080fd5b8301601f810185136130b957600080fd5b80516130cc6130c78261305c565b61302c565b81815260059190911b820183019083810190878311156130eb57600080fd5b928401925b82841015613109578351825292840192908401906130f0565b979650505050505050565b600060001982141561312857613128612fc0565b5060010190565b60006020828403121561314157600080fd5b5051919050565b600181811c9082168061315c57607f821691505b60208210811415612bd057634e487b7160e01b600052602260045260246000fd5b600060208083526000845481600182811c91508083168061319f57607f831692505b8583108114156131bd57634e487b7160e01b85526022600452602485fd5b8786018381526020018180156131da57600181146131eb57613216565b60ff19861682528782019650613216565b60008b81526020902060005b86811015613210578154848201529085019089016131f7565b83019750505b50949998505050505050505050565b6000806040838503121561323857600080fd5b825161324381612c96565b6020939093015192949293505050565b81835281816020850137506000828201602090810191909152601f909101601f19169091010190565b6001600160a01b03841681526040602082018190526000906132a19083018486613253565b95945050505050565b6000602082840312156132bc57600080fd5b815161292f81612c96565b80516001600160801b0381168114612be057600080fd5b60008082840360808112156132f257600080fd5b83516132fd81612c7e565b92506060601f198201121561331157600080fd5b5061331a613004565b613326602085016132c7565b8152613334604085016132c7565b60208201526060939093015160408401525092909150565b60008082840360a081121561336057600080fd5b835161336b81612c96565b92506080601f198201121561337f57600080fd5b50604051608081018181106001600160401b03821117156133a2576133a2612fee565b6040526133b1602085016132c7565b81526133bf604085016132c7565b60208201526133d0606085016132c7565b60408201526133e1608085016132c7565b6060820152809150509250929050565b6001600160a01b03929092168252602082015260400190565b6020808252602a908201527f546170696f63614f7074696f6e42726f6b65723a204e6f7420617070726f7665604082015269321037b91037bbb732b960b11b606082015260800190565b60006001600160801b0382811684821680830382111561347657613476612fc0565b01949350505050565b60008282101561349157613491612fc0565b500390565b6000816134a5576134a5612fc0565b506000190190565b6001600160a01b039384168152919092166020820152604081019190915260600190565b6000826134ee57634e487b7160e01b600052601260045260246000fd5b500490565b60208082526030908201527f546170696f63614f7074696f6e42726f6b65723a205061796d656e7420746f6b60408201526f195b881b9bdd081cdd5c1c1bdc9d195960821b606082015260800190565b60208082526026908201527f546170696f63614f7074696f6e42726f6b65723a20416c7265616479206578656040820152651c98da5cd95960d21b606082015260800190565b60208082526023908201527f546170696f63614f7074696f6e42726f6b65723a204f7074696f6e20657870696040820152621c995960ea1b606082015260800190565b60008160001904831182151516156135e6576135e6612fc0565b500290565b6000602082840312156135fd57600080fd5b815160ff8116811461292f57600080fd5b634e487b7160e01b600052603260045260246000fd5b6001600160a01b0385811682528416602082015260606040820181905260009061297f9083018486613253565b6000602080838503121561366457600080fd5b82516001600160401b0381111561367a57600080fd5b8301601f8101851361368b57600080fd5b80516136996130c78261305c565b818152606091820283018401918482019190888411156136b857600080fd5b938501935b838510156137025780858a0312156136d55760008081fd5b6136dd613004565b85518152868601518782015260408087015190820152835293840193918501916136bd565b50979650505050505050565b600181815b8085111561374957816000190482111561372f5761372f612fc0565b8085161561373c57918102915b93841c9390800290613713565b509250929050565b6000826137605750600161273a565b8161376d5750600061273a565b8160018114613783576002811461378d576137a9565b600191505061273a565b60ff84111561379e5761379e612fc0565b50506001821b61273a565b5060208310610133831016604e8410600b84101617156137cc575081810a61273a565b6137d6838361370e565b80600019048211156137ea576137ea612fc0565b029392505050565b6000612737838361375156fea2646970667358221220d9a458c442db647126b5b5619fa7c90655bcf815a0c77d2355d039e60fbb5c2664736f6c63430008090033",
  "devdoc": {
    "kind": "dev",
    "methods": {
      "collectPaymentTokens(address[])": {
        "params": {
          "_paymentTokens": "The payment tokens to collect"
        }
      },
      "exerciseOption(uint256,address,uint256)": {
        "params": {
          "_oTAPTokenID": "tokenId of the oTAP position, position must be active",
          "_paymentToken": "Address of the payment token to use, must be whitelisted",
          "_tapAmount": "Amount of TAP to exercise. If 0, the full amount is exercised"
        }
      },
      "exitPosition(uint256)": {
        "params": {
          "_oTAPTokenID": "The tokenId of the oTAP position"
        }
      },
      "getOTCDealDetails(uint256,address,uint256)": {
        "params": {
          "_oTAPTokenID": "The oTAP token ID",
          "_paymentToken": "The payment token",
          "_tapAmount": "The amount of TAP to be exchanged. If 0 it will use the full amount of TAP eligible for the deal"
        },
        "returns": {
          "eligibleTapAmount": "The amount of TAP eligible for the deal",
          "paymentTokenAmount": "The amount of payment tokens required for the deal"
        }
      },
      "participate(uint256)": {
        "params": {
          "_tOLPTokenID": "The tokenId of the tOLP position"
        }
      },
      "paused()": {
        "details": "Returns true if the contract is paused, and false otherwise."
      },
      "setPaymentToken(address,address,bytes)": {
        "details": "set the oracle to address(0) to deactivate, expect the same decimal precision as TAP oracle"
      },
      "setPaymentTokenBeneficiary(address)": {
        "params": {
          "_paymentTokenBeneficiary": "The new payment token beneficiary"
        }
      },
      "setTapOracle(address,bytes)": {
        "params": {
          "_tapOracle": "The new TapOFT Oracle address",
          "_tapOracleData": "The new TapOFT Oracle data"
        }
      },
      "transferOwnership(address,bool,bool)": {
        "params": {
          "direct": "True if `newOwner` should be set immediately. False if `newOwner` needs to use `claimOwnership`.",
          "newOwner": "Address of the new owner.",
          "renounce": "Allows the `newOwner` to be `address(0)` if `direct` and `renounce` is True. Has no effect otherwise."
        }
      }
    },
    "version": 1
  },
  "userdoc": {
    "kind": "user",
    "methods": {
      "claimOwnership()": {
        "notice": "Needs to be called by `pendingOwner` to claim ownership."
      },
      "collectPaymentTokens(address[])": {
        "notice": "Collect the payment tokens from the OTC deals"
      },
      "constructor": {
        "notice": "=====-------======"
      },
      "exerciseOption(uint256,address,uint256)": {
        "notice": "Exercise an oTAP position"
      },
      "exitPosition(uint256)": {
        "notice": "Exit a twAML participation and delete the voting power if existing"
      },
      "getOTCDealDetails(uint256,address,uint256)": {
        "notice": "Returns the details of an OTC deal for a given oTAP token ID and a payment token.         The oracle uses the last peeked value, and not the latest one, so the payment amount may be different."
      },
      "newEpoch()": {
        "notice": "Start a new epoch, extract TAP from the TapOFT contract,         emit it to the active singularities and get the price of TAP for the epoch."
      },
      "oTAPBrokerClaim()": {
        "notice": "Claim the Broker role of the oTAP contract"
      },
      "participate(uint256)": {
        "notice": "Participate in twAMl voting and mint an oTAP position"
      },
      "setPaymentToken(address,address,bytes)": {
        "notice": "Activate or deactivate a payment token"
      },
      "setPaymentTokenBeneficiary(address)": {
        "notice": "Set the payment token beneficiary"
      },
      "setTapOracle(address,bytes)": {
        "notice": "Set the TapOFT Oracle address and data"
      },
      "transferOwnership(address,bool,bool)": {
        "notice": "Transfers ownership to `newOwner`. Either directly or claimable by the new pending owner. Can only be invoked by the current `owner`."
      },
      "twAML(uint256)": {
        "notice": "===== TWAML ======"
      }
    },
    "version": 1
  },
  "storageLayout": {
    "storage": [
      {
        "astId": 1867,
        "contract": "contracts/options/mocks/TapiocaOptionBrokerMock.sol:TapiocaOptionBrokerMock",
        "label": "_paused",
        "offset": 0,
        "slot": "0",
        "type": "t_bool"
      },
      {
        "astId": 229,
        "contract": "contracts/options/mocks/TapiocaOptionBrokerMock.sol:TapiocaOptionBrokerMock",
        "label": "owner",
        "offset": 1,
        "slot": "0",
        "type": "t_address"
      },
      {
        "astId": 231,
        "contract": "contracts/options/mocks/TapiocaOptionBrokerMock.sol:TapiocaOptionBrokerMock",
        "label": "pendingOwner",
        "offset": 0,
        "slot": "1",
        "type": "t_address"
      },
      {
        "astId": 8548,
        "contract": "contracts/options/mocks/TapiocaOptionBrokerMock.sol:TapiocaOptionBrokerMock",
        "label": "tapOracleData",
        "offset": 0,
        "slot": "2",
        "type": "t_bytes_storage"
      },
      {
        "astId": 8557,
        "contract": "contracts/options/mocks/TapiocaOptionBrokerMock.sol:TapiocaOptionBrokerMock",
        "label": "tapOracle",
        "offset": 0,
        "slot": "3",
        "type": "t_contract(IOracle)6184"
      },
      {
        "astId": 8559,
        "contract": "contracts/options/mocks/TapiocaOptionBrokerMock.sol:TapiocaOptionBrokerMock",
        "label": "lastEpochUpdate",
        "offset": 0,
        "slot": "4",
        "type": "t_uint256"
      },
      {
        "astId": 8561,
        "contract": "contracts/options/mocks/TapiocaOptionBrokerMock.sol:TapiocaOptionBrokerMock",
        "label": "epochTAPValuation",
        "offset": 0,
        "slot": "5",
        "type": "t_uint256"
      },
      {
        "astId": 8563,
        "contract": "contracts/options/mocks/TapiocaOptionBrokerMock.sol:TapiocaOptionBrokerMock",
        "label": "epoch",
        "offset": 0,
        "slot": "6",
        "type": "t_uint256"
      },
      {
        "astId": 8568,
        "contract": "contracts/options/mocks/TapiocaOptionBrokerMock.sol:TapiocaOptionBrokerMock",
        "label": "participants",
        "offset": 0,
        "slot": "7",
        "type": "t_mapping(t_uint256,t_struct(Participation)8522_storage)"
      },
      {
        "astId": 8574,
        "contract": "contracts/options/mocks/TapiocaOptionBrokerMock.sol:TapiocaOptionBrokerMock",
        "label": "oTAPCalls",
        "offset": 0,
        "slot": "8",
        "type": "t_mapping(t_uint256,t_mapping(t_uint256,t_bool))"
      },
      {
        "astId": 8580,
        "contract": "contracts/options/mocks/TapiocaOptionBrokerMock.sol:TapiocaOptionBrokerMock",
        "label": "singularityGauges",
        "offset": 0,
        "slot": "9",
        "type": "t_mapping(t_uint256,t_mapping(t_uint256,t_uint256))"
      },
      {
        "astId": 8586,
        "contract": "contracts/options/mocks/TapiocaOptionBrokerMock.sol:TapiocaOptionBrokerMock",
        "label": "paymentTokens",
        "offset": 0,
        "slot": "10",
        "type": "t_mapping(t_contract(ERC20)2761,t_struct(PaymentTokenOracle)8537_storage)"
      },
      {
        "astId": 8588,
        "contract": "contracts/options/mocks/TapiocaOptionBrokerMock.sol:TapiocaOptionBrokerMock",
        "label": "paymentTokenBeneficiary",
        "offset": 0,
        "slot": "11",
        "type": "t_address"
      },
      {
        "astId": 8594,
        "contract": "contracts/options/mocks/TapiocaOptionBrokerMock.sol:TapiocaOptionBrokerMock",
        "label": "twAML",
        "offset": 0,
        "slot": "12",
        "type": "t_mapping(t_uint256,t_struct(TWAMLPool)8531_storage)"
      }
    ],
    "types": {
      "t_address": {
        "encoding": "inplace",
        "label": "address",
        "numberOfBytes": "20"
      },
      "t_bool": {
        "encoding": "inplace",
        "label": "bool",
        "numberOfBytes": "1"
      },
      "t_bytes_storage": {
        "encoding": "bytes",
        "label": "bytes",
        "numberOfBytes": "32"
      },
      "t_contract(ERC20)2761": {
        "encoding": "inplace",
        "label": "contract ERC20",
        "numberOfBytes": "20"
      },
      "t_contract(IOracle)6184": {
        "encoding": "inplace",
        "label": "contract IOracle",
        "numberOfBytes": "20"
      },
      "t_mapping(t_contract(ERC20)2761,t_struct(PaymentTokenOracle)8537_storage)": {
        "encoding": "mapping",
        "key": "t_contract(ERC20)2761",
        "label": "mapping(contract ERC20 => struct PaymentTokenOracle)",
        "numberOfBytes": "32",
        "value": "t_struct(PaymentTokenOracle)8537_storage"
      },
      "t_mapping(t_uint256,t_bool)": {
        "encoding": "mapping",
        "key": "t_uint256",
        "label": "mapping(uint256 => bool)",
        "numberOfBytes": "32",
        "value": "t_bool"
      },
      "t_mapping(t_uint256,t_mapping(t_uint256,t_bool))": {
        "encoding": "mapping",
        "key": "t_uint256",
        "label": "mapping(uint256 => mapping(uint256 => bool))",
        "numberOfBytes": "32",
        "value": "t_mapping(t_uint256,t_bool)"
      },
      "t_mapping(t_uint256,t_mapping(t_uint256,t_uint256))": {
        "encoding": "mapping",
        "key": "t_uint256",
        "label": "mapping(uint256 => mapping(uint256 => uint256))",
        "numberOfBytes": "32",
        "value": "t_mapping(t_uint256,t_uint256)"
      },
      "t_mapping(t_uint256,t_struct(Participation)8522_storage)": {
        "encoding": "mapping",
        "key": "t_uint256",
        "label": "mapping(uint256 => struct Participation)",
        "numberOfBytes": "32",
        "value": "t_struct(Participation)8522_storage"
      },
      "t_mapping(t_uint256,t_struct(TWAMLPool)8531_storage)": {
        "encoding": "mapping",
        "key": "t_uint256",
        "label": "mapping(uint256 => struct TWAMLPool)",
        "numberOfBytes": "32",
        "value": "t_struct(TWAMLPool)8531_storage"
      },
      "t_mapping(t_uint256,t_uint256)": {
        "encoding": "mapping",
        "key": "t_uint256",
        "label": "mapping(uint256 => uint256)",
        "numberOfBytes": "32",
        "value": "t_uint256"
      },
      "t_struct(Participation)8522_storage": {
        "encoding": "inplace",
        "label": "struct Participation",
        "members": [
          {
            "astId": 8517,
            "contract": "contracts/options/mocks/TapiocaOptionBrokerMock.sol:TapiocaOptionBrokerMock",
            "label": "hasVotingPower",
            "offset": 0,
            "slot": "0",
            "type": "t_bool"
          },
          {
            "astId": 8519,
            "contract": "contracts/options/mocks/TapiocaOptionBrokerMock.sol:TapiocaOptionBrokerMock",
            "label": "averageMagnitude",
            "offset": 0,
            "slot": "1",
            "type": "t_uint256"
          },
          {
            "astId": 8521,
            "contract": "contracts/options/mocks/TapiocaOptionBrokerMock.sol:TapiocaOptionBrokerMock",
            "label": "divergenceForce",
            "offset": 0,
            "slot": "2",
            "type": "t_bool"
          }
        ],
        "numberOfBytes": "96"
      },
      "t_struct(PaymentTokenOracle)8537_storage": {
        "encoding": "inplace",
        "label": "struct PaymentTokenOracle",
        "members": [
          {
            "astId": 8534,
            "contract": "contracts/options/mocks/TapiocaOptionBrokerMock.sol:TapiocaOptionBrokerMock",
            "label": "oracle",
            "offset": 0,
            "slot": "0",
            "type": "t_contract(IOracle)6184"
          },
          {
            "astId": 8536,
            "contract": "contracts/options/mocks/TapiocaOptionBrokerMock.sol:TapiocaOptionBrokerMock",
            "label": "oracleData",
            "offset": 0,
            "slot": "1",
            "type": "t_bytes_storage"
          }
        ],
        "numberOfBytes": "64"
      },
      "t_struct(TWAMLPool)8531_storage": {
        "encoding": "inplace",
        "label": "struct TWAMLPool",
        "members": [
          {
            "astId": 8524,
            "contract": "contracts/options/mocks/TapiocaOptionBrokerMock.sol:TapiocaOptionBrokerMock",
            "label": "totalParticipants",
            "offset": 0,
            "slot": "0",
            "type": "t_uint256"
          },
          {
            "astId": 8526,
            "contract": "contracts/options/mocks/TapiocaOptionBrokerMock.sol:TapiocaOptionBrokerMock",
            "label": "averageMagnitude",
            "offset": 0,
            "slot": "1",
            "type": "t_uint256"
          },
          {
            "astId": 8528,
            "contract": "contracts/options/mocks/TapiocaOptionBrokerMock.sol:TapiocaOptionBrokerMock",
            "label": "totalDeposited",
            "offset": 0,
            "slot": "2",
            "type": "t_uint256"
          },
          {
            "astId": 8530,
            "contract": "contracts/options/mocks/TapiocaOptionBrokerMock.sol:TapiocaOptionBrokerMock",
            "label": "cumulative",
            "offset": 0,
            "slot": "3",
            "type": "t_uint256"
          }
        ],
        "numberOfBytes": "128"
      },
      "t_uint256": {
        "encoding": "inplace",
        "label": "uint256",
        "numberOfBytes": "32"
      }
    }
  }
}