{
  "address": "0x76174d787894C091AF447EA5f299E9DB5c7f9664",
  "abi": [
    {
      "inputs": [
        {
          "internalType": "address",
          "name": "_lzEndpoint",
          "type": "address"
        },
        {
          "internalType": "address",
          "name": "_contributors",
          "type": "address"
        },
        {
          "internalType": "address",
          "name": "_investors",
          "type": "address"
        },
        {
          "internalType": "address",
          "name": "_lbp",
          "type": "address"
        },
        {
          "internalType": "address",
          "name": "_dao",
          "type": "address"
        },
        {
          "internalType": "address",
          "name": "_airdrop",
          "type": "address"
        },
        {
          "internalType": "uint16",
          "name": "_governanceChainId",
          "type": "uint16"
        }
      ],
      "stateMutability": "nonpayable",
      "type": "constructor"
    },
    {
      "anonymous": false,
      "inputs": [
        {
          "indexed": true,
          "internalType": "address",
          "name": "owner",
          "type": "address"
        },
        {
          "indexed": true,
          "internalType": "address",
          "name": "spender",
          "type": "address"
        },
        {
          "indexed": false,
          "internalType": "uint256",
          "name": "value",
          "type": "uint256"
        }
      ],
      "name": "Approval",
      "type": "event"
    },
    {
      "anonymous": false,
      "inputs": [
        {
          "indexed": true,
          "internalType": "address",
          "name": "_from",
          "type": "address"
        },
        {
          "indexed": false,
          "internalType": "uint256",
          "name": "_amount",
          "type": "uint256"
        }
      ],
      "name": "Burned",
      "type": "event"
    },
    {
      "anonymous": false,
      "inputs": [
        {
          "indexed": true,
          "internalType": "uint16",
          "name": "_srcChainId",
          "type": "uint16"
        },
        {
          "indexed": false,
          "internalType": "bytes",
          "name": "_srcAddress",
          "type": "bytes"
        },
        {
          "indexed": false,
          "internalType": "uint64",
          "name": "_nonce",
          "type": "uint64"
        },
        {
          "indexed": false,
          "internalType": "bytes32",
          "name": "_hash",
          "type": "bytes32"
        }
      ],
      "name": "CallOFTReceivedSuccess",
      "type": "event"
    },
    {
      "anonymous": false,
      "inputs": [
        {
          "indexed": true,
          "internalType": "address",
          "name": "old",
          "type": "address"
        },
        {
          "indexed": true,
          "internalType": "address",
          "name": "_new",
          "type": "address"
        }
      ],
      "name": "ConservatorUpdated",
      "type": "event"
    },
    {
      "anonymous": false,
      "inputs": [
        {
          "indexed": false,
          "internalType": "uint256",
          "name": "week",
          "type": "uint256"
        },
        {
          "indexed": false,
          "internalType": "uint256",
          "name": "amount",
          "type": "uint256"
        }
      ],
      "name": "Emitted",
      "type": "event"
    },
    {
      "anonymous": false,
      "inputs": [
        {
          "indexed": false,
          "internalType": "uint256",
          "name": "_old",
          "type": "uint256"
        },
        {
          "indexed": false,
          "internalType": "uint256",
          "name": "_new",
          "type": "uint256"
        }
      ],
      "name": "GovernanceChainIdentifierUpdated",
      "type": "event"
    },
    {
      "anonymous": false,
      "inputs": [
        {
          "indexed": false,
          "internalType": "uint16",
          "name": "_srcChainId",
          "type": "uint16"
        },
        {
          "indexed": false,
          "internalType": "bytes",
          "name": "_srcAddress",
          "type": "bytes"
        },
        {
          "indexed": false,
          "internalType": "uint64",
          "name": "_nonce",
          "type": "uint64"
        },
        {
          "indexed": false,
          "internalType": "bytes",
          "name": "_payload",
          "type": "bytes"
        },
        {
          "indexed": false,
          "internalType": "bytes",
          "name": "_reason",
          "type": "bytes"
        }
      ],
      "name": "MessageFailed",
      "type": "event"
    },
    {
      "anonymous": false,
      "inputs": [
        {
          "indexed": true,
          "internalType": "address",
          "name": "_by",
          "type": "address"
        },
        {
          "indexed": true,
          "internalType": "address",
          "name": "_to",
          "type": "address"
        },
        {
          "indexed": false,
          "internalType": "uint256",
          "name": "_amount",
          "type": "uint256"
        }
      ],
      "name": "Minted",
      "type": "event"
    },
    {
      "anonymous": false,
      "inputs": [
        {
          "indexed": true,
          "internalType": "address",
          "name": "_old",
          "type": "address"
        },
        {
          "indexed": true,
          "internalType": "address",
          "name": "_new",
          "type": "address"
        }
      ],
      "name": "MinterUpdated",
      "type": "event"
    },
    {
      "anonymous": false,
      "inputs": [
        {
          "indexed": false,
          "internalType": "address",
          "name": "_address",
          "type": "address"
        }
      ],
      "name": "NonContractAddress",
      "type": "event"
    },
    {
      "anonymous": false,
      "inputs": [
        {
          "indexed": true,
          "internalType": "address",
          "name": "previousOwner",
          "type": "address"
        },
        {
          "indexed": true,
          "internalType": "address",
          "name": "newOwner",
          "type": "address"
        }
      ],
      "name": "OwnershipTransferred",
      "type": "event"
    },
    {
      "anonymous": false,
      "inputs": [
        {
          "indexed": false,
          "internalType": "bool",
          "name": "oldState",
          "type": "bool"
        },
        {
          "indexed": false,
          "internalType": "bool",
          "name": "newState",
          "type": "bool"
        }
      ],
      "name": "PausedUpdated",
      "type": "event"
    },
    {
      "anonymous": false,
      "inputs": [
        {
          "indexed": true,
          "internalType": "uint16",
          "name": "_srcChainId",
          "type": "uint16"
        },
        {
          "indexed": true,
          "internalType": "address",
          "name": "_to",
          "type": "address"
        },
        {
          "indexed": false,
          "internalType": "uint256",
          "name": "_amount",
          "type": "uint256"
        }
      ],
      "name": "ReceiveFromChain",
      "type": "event"
    },
    {
      "anonymous": false,
      "inputs": [
        {
          "indexed": false,
          "internalType": "uint16",
          "name": "_srcChainId",
          "type": "uint16"
        },
        {
          "indexed": false,
          "internalType": "bytes",
          "name": "_srcAddress",
          "type": "bytes"
        },
        {
          "indexed": false,
          "internalType": "uint64",
          "name": "_nonce",
          "type": "uint64"
        },
        {
          "indexed": false,
          "internalType": "bytes32",
          "name": "_payloadHash",
          "type": "bytes32"
        }
      ],
      "name": "RetryMessageSuccess",
      "type": "event"
    },
    {
      "anonymous": false,
      "inputs": [
        {
          "indexed": true,
          "internalType": "uint16",
          "name": "_dstChainId",
          "type": "uint16"
        },
        {
          "indexed": true,
          "internalType": "address",
          "name": "_from",
          "type": "address"
        },
        {
          "indexed": true,
          "internalType": "bytes32",
          "name": "_toAddress",
          "type": "bytes32"
        },
        {
          "indexed": false,
          "internalType": "uint256",
          "name": "_amount",
          "type": "uint256"
        }
      ],
      "name": "SendToChain",
      "type": "event"
    },
    {
      "anonymous": false,
      "inputs": [
        {
          "indexed": false,
          "internalType": "uint16",
          "name": "_dstChainId",
          "type": "uint16"
        },
        {
          "indexed": false,
          "internalType": "uint16",
          "name": "_type",
          "type": "uint16"
        },
        {
          "indexed": false,
          "internalType": "uint256",
          "name": "_minDstGas",
          "type": "uint256"
        }
      ],
      "name": "SetMinDstGas",
      "type": "event"
    },
    {
      "anonymous": false,
      "inputs": [
        {
          "indexed": false,
          "internalType": "address",
          "name": "precrime",
          "type": "address"
        }
      ],
      "name": "SetPrecrime",
      "type": "event"
    },
    {
      "anonymous": false,
      "inputs": [
        {
          "indexed": false,
          "internalType": "uint16",
          "name": "_remoteChainId",
          "type": "uint16"
        },
        {
          "indexed": false,
          "internalType": "bytes",
          "name": "_path",
          "type": "bytes"
        }
      ],
      "name": "SetTrustedRemote",
      "type": "event"
    },
    {
      "anonymous": false,
      "inputs": [
        {
          "indexed": false,
          "internalType": "uint16",
          "name": "_remoteChainId",
          "type": "uint16"
        },
        {
          "indexed": false,
          "internalType": "bytes",
          "name": "_remoteAddress",
          "type": "bytes"
        }
      ],
      "name": "SetTrustedRemoteAddress",
      "type": "event"
    },
    {
      "anonymous": false,
      "inputs": [
        {
          "indexed": false,
          "internalType": "bool",
          "name": "_useCustomAdapterParams",
          "type": "bool"
        }
      ],
      "name": "SetUseCustomAdapterParams",
      "type": "event"
    },
    {
      "anonymous": false,
      "inputs": [
        {
          "indexed": true,
          "internalType": "address",
          "name": "from",
          "type": "address"
        },
        {
          "indexed": true,
          "internalType": "address",
          "name": "to",
          "type": "address"
        },
        {
          "indexed": false,
          "internalType": "uint256",
          "name": "value",
          "type": "uint256"
        }
      ],
      "name": "Transfer",
      "type": "event"
    },
    {
      "inputs": [],
      "name": "DEFAULT_PAYLOAD_SIZE_LIMIT",
      "outputs": [
        {
          "internalType": "uint256",
          "name": "",
          "type": "uint256"
        }
      ],
      "stateMutability": "view",
      "type": "function"
    },
    {
      "inputs": [],
      "name": "INITIAL_SUPPLY",
      "outputs": [
        {
          "internalType": "uint256",
          "name": "",
          "type": "uint256"
        }
      ],
      "stateMutability": "view",
      "type": "function"
    },
    {
      "inputs": [],
      "name": "NO_EXTRA_GAS",
      "outputs": [
        {
          "internalType": "uint256",
          "name": "",
          "type": "uint256"
        }
      ],
      "stateMutability": "view",
      "type": "function"
    },
    {
      "inputs": [],
      "name": "PT_SEND",
      "outputs": [
        {
          "internalType": "uint8",
          "name": "",
          "type": "uint8"
        }
      ],
      "stateMutability": "view",
      "type": "function"
    },
    {
      "inputs": [],
      "name": "PT_SEND_AND_CALL",
      "outputs": [
        {
          "internalType": "uint8",
          "name": "",
          "type": "uint8"
        }
      ],
      "stateMutability": "view",
      "type": "function"
    },
    {
      "inputs": [],
      "name": "WEEK",
      "outputs": [
        {
          "internalType": "uint256",
          "name": "",
          "type": "uint256"
        }
      ],
      "stateMutability": "view",
      "type": "function"
    },
    {
      "inputs": [
        {
          "internalType": "address",
          "name": "owner",
          "type": "address"
        },
        {
          "internalType": "address",
          "name": "spender",
          "type": "address"
        }
      ],
      "name": "allowance",
      "outputs": [
        {
          "internalType": "uint256",
          "name": "",
          "type": "uint256"
        }
      ],
      "stateMutability": "view",
      "type": "function"
    },
    {
      "inputs": [
        {
          "internalType": "address",
          "name": "spender",
          "type": "address"
        },
        {
          "internalType": "uint256",
          "name": "amount",
          "type": "uint256"
        }
      ],
      "name": "approve",
      "outputs": [
        {
          "internalType": "bool",
          "name": "",
          "type": "bool"
        }
      ],
      "stateMutability": "nonpayable",
      "type": "function"
    },
    {
      "inputs": [
        {
          "internalType": "address",
          "name": "account",
          "type": "address"
        }
      ],
      "name": "balanceOf",
      "outputs": [
        {
          "internalType": "uint256",
          "name": "",
          "type": "uint256"
        }
      ],
      "stateMutability": "view",
      "type": "function"
    },
    {
      "inputs": [
        {
          "internalType": "uint16",
          "name": "_srcChainId",
          "type": "uint16"
        },
        {
          "internalType": "bytes",
          "name": "_srcAddress",
          "type": "bytes"
        },
        {
          "internalType": "uint64",
          "name": "_nonce",
          "type": "uint64"
        },
        {
          "internalType": "bytes32",
          "name": "_from",
          "type": "bytes32"
        },
        {
          "internalType": "address",
          "name": "_to",
          "type": "address"
        },
        {
          "internalType": "uint256",
          "name": "_amount",
          "type": "uint256"
        },
        {
          "internalType": "bytes",
          "name": "_payload",
          "type": "bytes"
        },
        {
          "internalType": "uint256",
          "name": "_gasForCall",
          "type": "uint256"
        }
      ],
      "name": "callOnOFTReceived",
      "outputs": [],
      "stateMutability": "nonpayable",
      "type": "function"
    },
    {
      "inputs": [],
      "name": "circulatingSupply",
      "outputs": [
        {
          "internalType": "uint256",
          "name": "",
          "type": "uint256"
        }
      ],
      "stateMutability": "view",
      "type": "function"
    },
    {
      "inputs": [],
      "name": "conservator",
      "outputs": [
        {
          "internalType": "address",
          "name": "",
          "type": "address"
        }
      ],
      "stateMutability": "view",
      "type": "function"
    },
    {
      "inputs": [
        {
          "internalType": "uint16",
          "name": "",
          "type": "uint16"
        },
        {
          "internalType": "bytes",
          "name": "",
          "type": "bytes"
        },
        {
          "internalType": "uint64",
          "name": "",
          "type": "uint64"
        }
      ],
      "name": "creditedPackets",
      "outputs": [
        {
          "internalType": "bool",
          "name": "",
          "type": "bool"
        }
      ],
      "stateMutability": "view",
      "type": "function"
    },
    {
      "inputs": [],
      "name": "decimals",
      "outputs": [
        {
          "internalType": "uint8",
          "name": "",
          "type": "uint8"
        }
      ],
      "stateMutability": "pure",
      "type": "function"
    },
    {
      "inputs": [
        {
          "internalType": "address",
          "name": "spender",
          "type": "address"
        },
        {
          "internalType": "uint256",
          "name": "subtractedValue",
          "type": "uint256"
        }
      ],
      "name": "decreaseAllowance",
      "outputs": [
        {
          "internalType": "bool",
          "name": "",
          "type": "bool"
        }
      ],
      "stateMutability": "nonpayable",
      "type": "function"
    },
    {
      "inputs": [],
      "name": "dso_supply",
      "outputs": [
        {
          "internalType": "uint256",
          "name": "",
          "type": "uint256"
        }
      ],
      "stateMutability": "view",
      "type": "function"
    },
    {
      "inputs": [
        {
          "internalType": "uint256",
          "name": "",
          "type": "uint256"
        }
      ],
      "name": "emissionForWeek",
      "outputs": [
        {
          "internalType": "uint256",
          "name": "",
          "type": "uint256"
        }
      ],
      "stateMutability": "view",
      "type": "function"
    },
    {
      "inputs": [],
      "name": "emissionsStartTime",
      "outputs": [
        {
          "internalType": "uint256",
          "name": "",
          "type": "uint256"
        }
      ],
      "stateMutability": "view",
      "type": "function"
    },
    {
      "inputs": [],
      "name": "emitForWeek",
      "outputs": [
        {
          "internalType": "uint256",
          "name": "",
          "type": "uint256"
        }
      ],
      "stateMutability": "nonpayable",
      "type": "function"
    },
    {
      "inputs": [
        {
          "internalType": "uint16",
          "name": "_dstChainId",
          "type": "uint16"
        },
        {
          "internalType": "bytes32",
          "name": "_toAddress",
          "type": "bytes32"
        },
        {
          "internalType": "uint256",
          "name": "_amount",
          "type": "uint256"
        },
        {
          "internalType": "bytes",
          "name": "_payload",
          "type": "bytes"
        },
        {
          "internalType": "uint64",
          "name": "_dstGasForCall",
          "type": "uint64"
        },
        {
          "internalType": "bool",
          "name": "_useZro",
          "type": "bool"
        },
        {
          "internalType": "bytes",
          "name": "_adapterParams",
          "type": "bytes"
        }
      ],
      "name": "estimateSendAndCallFee",
      "outputs": [
        {
          "internalType": "uint256",
          "name": "nativeFee",
          "type": "uint256"
        },
        {
          "internalType": "uint256",
          "name": "zroFee",
          "type": "uint256"
        }
      ],
      "stateMutability": "view",
      "type": "function"
    },
    {
      "inputs": [
        {
          "internalType": "uint16",
          "name": "_dstChainId",
          "type": "uint16"
        },
        {
          "internalType": "bytes32",
          "name": "_toAddress",
          "type": "bytes32"
        },
        {
          "internalType": "uint256",
          "name": "_amount",
          "type": "uint256"
        },
        {
          "internalType": "bool",
          "name": "_useZro",
          "type": "bool"
        },
        {
          "internalType": "bytes",
          "name": "_adapterParams",
          "type": "bytes"
        }
      ],
      "name": "estimateSendFee",
      "outputs": [
        {
          "internalType": "uint256",
          "name": "nativeFee",
          "type": "uint256"
        },
        {
          "internalType": "uint256",
          "name": "zroFee",
          "type": "uint256"
        }
      ],
      "stateMutability": "view",
      "type": "function"
    },
    {
      "inputs": [
        {
          "internalType": "address",
          "name": "_to",
          "type": "address"
        },
        {
          "internalType": "uint256",
          "name": "_amount",
          "type": "uint256"
        }
      ],
      "name": "extractTAP",
      "outputs": [],
      "stateMutability": "nonpayable",
      "type": "function"
    },
    {
      "inputs": [
        {
          "internalType": "uint16",
          "name": "",
          "type": "uint16"
        },
        {
          "internalType": "bytes",
          "name": "",
          "type": "bytes"
        },
        {
          "internalType": "uint64",
          "name": "",
          "type": "uint64"
        }
      ],
      "name": "failedMessages",
      "outputs": [
        {
          "internalType": "bytes32",
          "name": "",
          "type": "bytes32"
        }
      ],
      "stateMutability": "view",
      "type": "function"
    },
    {
      "inputs": [
        {
          "internalType": "uint16",
          "name": "_srcChainId",
          "type": "uint16"
        },
        {
          "internalType": "bytes",
          "name": "_srcAddress",
          "type": "bytes"
        }
      ],
      "name": "forceResumeReceive",
      "outputs": [],
      "stateMutability": "nonpayable",
      "type": "function"
    },
    {
      "inputs": [
        {
          "internalType": "uint16",
          "name": "_version",
          "type": "uint16"
        },
        {
          "internalType": "uint16",
          "name": "_chainId",
          "type": "uint16"
        },
        {
          "internalType": "address",
          "name": "",
          "type": "address"
        },
        {
          "internalType": "uint256",
          "name": "_configType",
          "type": "uint256"
        }
      ],
      "name": "getConfig",
      "outputs": [
        {
          "internalType": "bytes",
          "name": "",
          "type": "bytes"
        }
      ],
      "stateMutability": "view",
      "type": "function"
    },
    {
      "inputs": [],
      "name": "getCurrentWeek",
      "outputs": [
        {
          "internalType": "uint256",
          "name": "",
          "type": "uint256"
        }
      ],
      "stateMutability": "view",
      "type": "function"
    },
    {
      "inputs": [],
      "name": "getCurrentWeekEmission",
      "outputs": [
        {
          "internalType": "uint256",
          "name": "",
          "type": "uint256"
        }
      ],
      "stateMutability": "view",
      "type": "function"
    },
    {
      "inputs": [
        {
          "internalType": "uint16",
          "name": "_remoteChainId",
          "type": "uint16"
        }
      ],
      "name": "getTrustedRemoteAddress",
      "outputs": [
        {
          "internalType": "bytes",
          "name": "",
          "type": "bytes"
        }
      ],
      "stateMutability": "view",
      "type": "function"
    },
    {
      "inputs": [],
      "name": "governanceChainIdentifier",
      "outputs": [
        {
          "internalType": "uint256",
          "name": "",
          "type": "uint256"
        }
      ],
      "stateMutability": "view",
      "type": "function"
    },
    {
      "inputs": [
        {
          "internalType": "address",
          "name": "spender",
          "type": "address"
        },
        {
          "internalType": "uint256",
          "name": "addedValue",
          "type": "uint256"
        }
      ],
      "name": "increaseAllowance",
      "outputs": [
        {
          "internalType": "bool",
          "name": "",
          "type": "bool"
        }
      ],
      "stateMutability": "nonpayable",
      "type": "function"
    },
    {
      "inputs": [
        {
          "internalType": "uint16",
          "name": "_srcChainId",
          "type": "uint16"
        },
        {
          "internalType": "bytes",
          "name": "_srcAddress",
          "type": "bytes"
        }
      ],
      "name": "isTrustedRemote",
      "outputs": [
        {
          "internalType": "bool",
          "name": "",
          "type": "bool"
        }
      ],
      "stateMutability": "view",
      "type": "function"
    },
    {
      "inputs": [],
      "name": "lzEndpoint",
      "outputs": [
        {
          "internalType": "contract ILayerZeroEndpoint",
          "name": "",
          "type": "address"
        }
      ],
      "stateMutability": "view",
      "type": "function"
    },
    {
      "inputs": [
        {
          "internalType": "uint16",
          "name": "_srcChainId",
          "type": "uint16"
        },
        {
          "internalType": "bytes",
          "name": "_srcAddress",
          "type": "bytes"
        },
        {
          "internalType": "uint64",
          "name": "_nonce",
          "type": "uint64"
        },
        {
          "internalType": "bytes",
          "name": "_payload",
          "type": "bytes"
        }
      ],
      "name": "lzReceive",
      "outputs": [],
      "stateMutability": "nonpayable",
      "type": "function"
    },
    {
      "inputs": [
        {
          "internalType": "uint16",
          "name": "",
          "type": "uint16"
        },
        {
          "internalType": "uint16",
          "name": "",
          "type": "uint16"
        }
      ],
      "name": "minDstGasLookup",
      "outputs": [
        {
          "internalType": "uint256",
          "name": "",
          "type": "uint256"
        }
      ],
      "stateMutability": "view",
      "type": "function"
    },
    {
      "inputs": [
        {
          "internalType": "uint256",
          "name": "",
          "type": "uint256"
        }
      ],
      "name": "mintedInWeek",
      "outputs": [
        {
          "internalType": "uint256",
          "name": "",
          "type": "uint256"
        }
      ],
      "stateMutability": "view",
      "type": "function"
    },
    {
      "inputs": [],
      "name": "minter",
      "outputs": [
        {
          "internalType": "address",
          "name": "",
          "type": "address"
        }
      ],
      "stateMutability": "view",
      "type": "function"
    },
    {
      "inputs": [],
      "name": "name",
      "outputs": [
        {
          "internalType": "string",
          "name": "",
          "type": "string"
        }
      ],
      "stateMutability": "view",
      "type": "function"
    },
    {
      "inputs": [
        {
          "internalType": "uint16",
          "name": "_srcChainId",
          "type": "uint16"
        },
        {
          "internalType": "bytes",
          "name": "_srcAddress",
          "type": "bytes"
        },
        {
          "internalType": "uint64",
          "name": "_nonce",
          "type": "uint64"
        },
        {
          "internalType": "bytes",
          "name": "_payload",
          "type": "bytes"
        }
      ],
      "name": "nonblockingLzReceive",
      "outputs": [],
      "stateMutability": "nonpayable",
      "type": "function"
    },
    {
      "inputs": [],
      "name": "owner",
      "outputs": [
        {
          "internalType": "address",
          "name": "",
          "type": "address"
        }
      ],
      "stateMutability": "view",
      "type": "function"
    },
    {
      "inputs": [],
      "name": "paused",
      "outputs": [
        {
          "internalType": "bool",
          "name": "",
          "type": "bool"
        }
      ],
      "stateMutability": "view",
      "type": "function"
    },
    {
      "inputs": [
        {
          "internalType": "uint16",
          "name": "",
          "type": "uint16"
        }
      ],
      "name": "payloadSizeLimitLookup",
      "outputs": [
        {
          "internalType": "uint256",
          "name": "",
          "type": "uint256"
        }
      ],
      "stateMutability": "view",
      "type": "function"
    },
    {
      "inputs": [],
      "name": "precrime",
      "outputs": [
        {
          "internalType": "address",
          "name": "",
          "type": "address"
        }
      ],
      "stateMutability": "view",
      "type": "function"
    },
    {
      "inputs": [
        {
          "internalType": "uint256",
          "name": "_amount",
          "type": "uint256"
        }
      ],
      "name": "removeTAP",
      "outputs": [],
      "stateMutability": "nonpayable",
      "type": "function"
    },
    {
      "inputs": [],
      "name": "renounceOwnership",
      "outputs": [],
      "stateMutability": "nonpayable",
      "type": "function"
    },
    {
      "inputs": [
        {
          "internalType": "uint16",
          "name": "_srcChainId",
          "type": "uint16"
        },
        {
          "internalType": "bytes",
          "name": "_srcAddress",
          "type": "bytes"
        },
        {
          "internalType": "uint64",
          "name": "_nonce",
          "type": "uint64"
        },
        {
          "internalType": "bytes",
          "name": "_payload",
          "type": "bytes"
        }
      ],
      "name": "retryMessage",
      "outputs": [],
      "stateMutability": "payable",
      "type": "function"
    },
    {
      "inputs": [
        {
          "internalType": "address",
          "name": "_from",
          "type": "address"
        },
        {
          "internalType": "uint16",
          "name": "_dstChainId",
          "type": "uint16"
        },
        {
          "internalType": "bytes32",
          "name": "_toAddress",
          "type": "bytes32"
        },
        {
          "internalType": "uint256",
          "name": "_amount",
          "type": "uint256"
        },
        {
          "internalType": "bytes",
          "name": "_payload",
          "type": "bytes"
        },
        {
          "internalType": "uint64",
          "name": "_dstGasForCall",
          "type": "uint64"
        },
        {
          "components": [
            {
              "internalType": "address payable",
              "name": "refundAddress",
              "type": "address"
            },
            {
              "internalType": "address",
              "name": "zroPaymentAddress",
              "type": "address"
            },
            {
              "internalType": "bytes",
              "name": "adapterParams",
              "type": "bytes"
            }
          ],
          "internalType": "struct ICommonOFT.LzCallParams",
          "name": "_callParams",
          "type": "tuple"
        }
      ],
      "name": "sendAndCall",
      "outputs": [],
      "stateMutability": "payable",
      "type": "function"
    },
    {
      "inputs": [
        {
          "internalType": "address",
          "name": "_from",
          "type": "address"
        },
        {
          "internalType": "uint16",
          "name": "_dstChainId",
          "type": "uint16"
        },
        {
          "internalType": "bytes32",
          "name": "_toAddress",
          "type": "bytes32"
        },
        {
          "internalType": "uint256",
          "name": "_amount",
          "type": "uint256"
        },
        {
          "components": [
            {
              "internalType": "address payable",
              "name": "refundAddress",
              "type": "address"
            },
            {
              "internalType": "address",
              "name": "zroPaymentAddress",
              "type": "address"
            },
            {
              "internalType": "bytes",
              "name": "adapterParams",
              "type": "bytes"
            }
          ],
          "internalType": "struct ICommonOFT.LzCallParams",
          "name": "_callParams",
          "type": "tuple"
        }
      ],
      "name": "sendFrom",
      "outputs": [],
      "stateMutability": "payable",
      "type": "function"
    },
    {
      "inputs": [
        {
          "internalType": "uint16",
          "name": "_version",
          "type": "uint16"
        },
        {
          "internalType": "uint16",
          "name": "_chainId",
          "type": "uint16"
        },
        {
          "internalType": "uint256",
          "name": "_configType",
          "type": "uint256"
        },
        {
          "internalType": "bytes",
          "name": "_config",
          "type": "bytes"
        }
      ],
      "name": "setConfig",
      "outputs": [],
      "stateMutability": "nonpayable",
      "type": "function"
    },
    {
      "inputs": [
        {
          "internalType": "address",
          "name": "_conservator",
          "type": "address"
        }
      ],
      "name": "setConservator",
      "outputs": [],
      "stateMutability": "nonpayable",
      "type": "function"
    },
    {
      "inputs": [
        {
          "internalType": "uint256",
          "name": "_identifier",
          "type": "uint256"
        }
      ],
      "name": "setGovernanceChainIdentifier",
      "outputs": [],
      "stateMutability": "nonpayable",
      "type": "function"
    },
    {
      "inputs": [
        {
          "internalType": "uint16",
          "name": "_dstChainId",
          "type": "uint16"
        },
        {
          "internalType": "uint16",
          "name": "_packetType",
          "type": "uint16"
        },
        {
          "internalType": "uint256",
          "name": "_minGas",
          "type": "uint256"
        }
      ],
      "name": "setMinDstGas",
      "outputs": [],
      "stateMutability": "nonpayable",
      "type": "function"
    },
    {
      "inputs": [
        {
          "internalType": "address",
          "name": "_minter",
          "type": "address"
        }
      ],
      "name": "setMinter",
      "outputs": [],
      "stateMutability": "nonpayable",
      "type": "function"
    },
    {
      "inputs": [
        {
          "internalType": "uint16",
          "name": "_dstChainId",
          "type": "uint16"
        },
        {
          "internalType": "uint256",
          "name": "_size",
          "type": "uint256"
        }
      ],
      "name": "setPayloadSizeLimit",
      "outputs": [],
      "stateMutability": "nonpayable",
      "type": "function"
    },
    {
      "inputs": [
        {
          "internalType": "address",
          "name": "_precrime",
          "type": "address"
        }
      ],
      "name": "setPrecrime",
      "outputs": [],
      "stateMutability": "nonpayable",
      "type": "function"
    },
    {
      "inputs": [
        {
          "internalType": "uint16",
          "name": "_version",
          "type": "uint16"
        }
      ],
      "name": "setReceiveVersion",
      "outputs": [],
      "stateMutability": "nonpayable",
      "type": "function"
    },
    {
      "inputs": [
        {
          "internalType": "uint16",
          "name": "_version",
          "type": "uint16"
        }
      ],
      "name": "setSendVersion",
      "outputs": [],
      "stateMutability": "nonpayable",
      "type": "function"
    },
    {
      "inputs": [
        {
          "internalType": "uint16",
          "name": "_srcChainId",
          "type": "uint16"
        },
        {
          "internalType": "bytes",
          "name": "_path",
          "type": "bytes"
        }
      ],
      "name": "setTrustedRemote",
      "outputs": [],
      "stateMutability": "nonpayable",
      "type": "function"
    },
    {
      "inputs": [
        {
          "internalType": "uint16",
          "name": "_remoteChainId",
          "type": "uint16"
        },
        {
          "internalType": "bytes",
          "name": "_remoteAddress",
          "type": "bytes"
        }
      ],
      "name": "setTrustedRemoteAddress",
      "outputs": [],
      "stateMutability": "nonpayable",
      "type": "function"
    },
    {
      "inputs": [
        {
          "internalType": "bool",
          "name": "_useCustomAdapterParams",
          "type": "bool"
        }
      ],
      "name": "setUseCustomAdapterParams",
      "outputs": [],
      "stateMutability": "nonpayable",
      "type": "function"
    },
    {
      "inputs": [],
      "name": "sharedDecimals",
      "outputs": [
        {
          "internalType": "uint8",
          "name": "",
          "type": "uint8"
        }
      ],
      "stateMutability": "view",
      "type": "function"
    },
    {
      "inputs": [
        {
          "internalType": "bytes4",
          "name": "interfaceId",
          "type": "bytes4"
        }
      ],
      "name": "supportsInterface",
      "outputs": [
        {
          "internalType": "bool",
          "name": "",
          "type": "bool"
        }
      ],
      "stateMutability": "view",
      "type": "function"
    },
    {
      "inputs": [],
      "name": "symbol",
      "outputs": [
        {
          "internalType": "string",
          "name": "",
          "type": "string"
        }
      ],
      "stateMutability": "view",
      "type": "function"
    },
    {
      "inputs": [
        {
          "internalType": "uint256",
          "name": "timestamp",
          "type": "uint256"
        }
      ],
      "name": "timestampToWeek",
      "outputs": [
        {
          "internalType": "uint256",
          "name": "",
          "type": "uint256"
        }
      ],
      "stateMutability": "view",
      "type": "function"
    },
    {
      "inputs": [],
      "name": "token",
      "outputs": [
        {
          "internalType": "address",
          "name": "",
          "type": "address"
        }
      ],
      "stateMutability": "view",
      "type": "function"
    },
    {
      "inputs": [],
      "name": "totalSupply",
      "outputs": [
        {
          "internalType": "uint256",
          "name": "",
          "type": "uint256"
        }
      ],
      "stateMutability": "view",
      "type": "function"
    },
    {
      "inputs": [
        {
          "internalType": "address",
          "name": "to",
          "type": "address"
        },
        {
          "internalType": "uint256",
          "name": "amount",
          "type": "uint256"
        }
      ],
      "name": "transfer",
      "outputs": [
        {
          "internalType": "bool",
          "name": "",
          "type": "bool"
        }
      ],
      "stateMutability": "nonpayable",
      "type": "function"
    },
    {
      "inputs": [
        {
          "internalType": "address",
          "name": "from",
          "type": "address"
        },
        {
          "internalType": "address",
          "name": "to",
          "type": "address"
        },
        {
          "internalType": "uint256",
          "name": "amount",
          "type": "uint256"
        }
      ],
      "name": "transferFrom",
      "outputs": [
        {
          "internalType": "bool",
          "name": "",
          "type": "bool"
        }
      ],
      "stateMutability": "nonpayable",
      "type": "function"
    },
    {
      "inputs": [
        {
          "internalType": "address",
          "name": "newOwner",
          "type": "address"
        }
      ],
      "name": "transferOwnership",
      "outputs": [],
      "stateMutability": "nonpayable",
      "type": "function"
    },
    {
      "inputs": [
        {
          "internalType": "uint16",
          "name": "",
          "type": "uint16"
        }
      ],
      "name": "trustedRemoteLookup",
      "outputs": [
        {
          "internalType": "bytes",
          "name": "",
          "type": "bytes"
        }
      ],
      "stateMutability": "view",
      "type": "function"
    },
    {
      "inputs": [
        {
          "internalType": "bool",
          "name": "val",
          "type": "bool"
        }
      ],
      "name": "updatePause",
      "outputs": [],
      "stateMutability": "nonpayable",
      "type": "function"
    },
    {
      "inputs": [],
      "name": "useCustomAdapterParams",
      "outputs": [
        {
          "internalType": "bool",
          "name": "",
          "type": "bool"
        }
      ],
      "stateMutability": "view",
      "type": "function"
    }
  ],
  "transactionHash": "0xa5b8f89d462b85b8f0c92fba50c2f8c778cd7329e48682fcfc4948433b75b4fd",
  "args": [
    "0x6aB5Ae6822647046626e83ee6dB8187151E1d5ab",
    "0x40282d3Cf4890D9806BC1853e97a59C93D813653",
    "0x40282d3Cf4890D9806BC1853e97a59C93D813653",
    "0x40282d3Cf4890D9806BC1853e97a59C93D813653",
    "0x40282d3Cf4890D9806BC1853e97a59C93D813653",
    "0x40282d3Cf4890D9806BC1853e97a59C93D813653",
    "5"
  ],
  "numDeployments": 1,
  "solcInputHash": "e4ebb0852b41326bbc65d2825d8bbe2a",
  "bytecode": "0x6101006040526a2ebc5723243a7208800000600d553480156200002157600080fd5b506040516200547e3803806200547e8339810160408190526200004491620004d6565b60405180604001604052806007815260200166546170696f636160c81b8152506040518060400160405280600381526020016205441560ec1b8152506008898383838381818080620000a56200009f620002f560201b60201c565b620002f9565b6001600160a01b0316608052505060ff1660a05250508151620000d090600b90602085019062000413565b508051620000e690600c90602084019062000413565b5050506000620000fb6200034960201b60201c565b90508060ff168360ff161115620001695760405162461bcd60e51b815260206004820152602760248201527f4f46543a20736861726564446563696d616c73206d757374206265203c3d20646044820152666563696d616c7360c81b60648201526084015b60405180910390fd5b6200017583826200058b565b6200018290600a620006b0565b60c05250505050506001600160a01b038716620001e25760405162461bcd60e51b815260206004820152601560248201527f4c5a20656e64706f696e74206e6f742076616c69640000000000000000000000604482015260640162000160565b61ffff81166011819055461415620002cc576200020b866a0c685fa11e01ec6f0000006200034e565b62000222856a09195731e2ce35eb0000006200034e565b62000239846a0422ca8b0a00a4250000006200034e565b62000250836a084595161401484a0000006200034e565b62000267826a02116545850052128000006200034e565b6a23fb7bb9a3d260db8000006200027d600a5490565b14620002cc5760405162461bcd60e51b815260206004820152601860248201527f696e697469616c20737570706c79206e6f742076616c69640000000000000000604482015260640162000160565b50504260e052505060128054610100600160a81b03191633610100021790555062000720915050565b3390565b600080546001600160a01b038381166001600160a01b0319831681178455604051919092169283917f8be0079c531659141344cd1fd0a4f28419497f9722a3daafe3b4186f6b6457e09190a35050565b601290565b6001600160a01b038216620003a65760405162461bcd60e51b815260206004820152601f60248201527f45524332303a206d696e7420746f20746865207a65726f206164647265737300604482015260640162000160565b80600a6000828254620003ba9190620006c8565b90915550506001600160a01b0382166000818152600860209081526040808320805486019055518481527fddf252ad1be2c89b69c2b068fc378daa952ba7f163c4a11628f55a4df523b3ef910160405180910390a35050565b8280546200042190620006e3565b90600052602060002090601f01602090048101928262000445576000855562000490565b82601f106200046057805160ff191683800117855562000490565b8280016001018555821562000490579182015b828111156200049057825182559160200191906001019062000473565b506200049e929150620004a2565b5090565b5b808211156200049e5760008155600101620004a3565b80516001600160a01b0381168114620004d157600080fd5b919050565b600080600080600080600060e0888a031215620004f257600080fd5b620004fd88620004b9565b96506200050d60208901620004b9565b95506200051d60408901620004b9565b94506200052d60608901620004b9565b93506200053d60808901620004b9565b92506200054d60a08901620004b9565b915060c088015161ffff811681146200056557600080fd5b8091505092959891949750929550565b634e487b7160e01b600052601160045260246000fd5b600060ff821660ff841680821015620005a857620005a862000575565b90039392505050565b600181815b80851115620005f2578160001904821115620005d657620005d662000575565b80851615620005e457918102915b93841c9390800290620005b6565b509250929050565b6000826200060b57506001620006aa565b816200061a57506000620006aa565b81600181146200063357600281146200063e576200065e565b6001915050620006aa565b60ff84111562000652576200065262000575565b50506001821b620006aa565b5060208310610133831016604e8410600b841016171562000683575081810a620006aa565b6200068f8383620005b1565b8060001904821115620006a657620006a662000575565b0290505b92915050565b6000620006c160ff841683620005fa565b9392505050565b60008219821115620006de57620006de62000575565b500190565b600181811c90821680620006f857607f821691505b602082108114156200071a57634e487b7160e01b600052602260045260246000fd5b50919050565b60805160a05160c05160e051614cd7620007a7600039600081816106bf0152818161108601526127b9015260006138d401526000610857015260008181610a4801528181610ce101528181610ff9015281816110fd0152818161134201528181611cbd0152818161228701528181612b8d0152818161309e01526138150152614cd76000f3fe60806040526004361061038f5760003560e01c8063857749b0116101de578063cbed8b9c11610103578063ed629c5c1161009b578063ed629c5c14610bda578063f2fde38b14610bf4578063f4359ce514610c14578063f5ecbdbc14610c2b578063f8974de014610c4b578063fa74f0b514610c6b578063fb98faf414610c8b578063fc0c546a14610cab578063fca3b5aa14610cbe57600080fd5b8063cbed8b9c14610acd578063ce8849ed14610aed578063d1deba1f14610b12578063dd62ed3e14610b25578063df2a5b3b14610b45578063e6a20ae614610b65578063eab45d9c14610b7a578063eaffd49a14610b9a578063eb8d72b714610bba57600080fd5b8063a2a4b99b11610176578063a2a4b99b146109a1578063a457c2d7146109b6578063a4c51df5146109d6578063a6c3d165146109f6578063a9059cbb14610a16578063b353aaa714610a36578063baf3292d14610a6a578063bf9ff52914610a8a578063c446183414610ab757600080fd5b8063857749b01461084557806387f00abc146108795780638cfd8f5c1461088f5780638da5cb5b146108c75780639358928b146108e5578063950c8a74146108fa57806395d89b411461091a5780639bdb98121461092f5780639f38369a1461098157600080fd5b806339509351116102c45780635b8c41e61161025c5780635b8c41e6146107165780635c975abb1461076557806366ad5c8a1461077f578063695ef6bf1461079f5780636eb227ce146107b257806370a08231146107c7578063715018a6146107fd5780637533d7881461081257806376203b481461083257600080fd5b806339509351146105de5780633d8b38f6146105fe5780633f1f4fa41461061e57806342d65a8d1461064b57806342e32e251461066b578063447705151461069857806348b0daa6146106ad5780634c42899a146106e15780634eb8c308146106f657600080fd5b806310ddb1371161033757806310ddb137146104c857806318160ddd146104e85780631ed2bdb8146104fd57806323b872dd1461051257806328d7eb97146105325780632930fc77146105485780632ff2e9dc14610568578063313ce56714610587578063365260b4146105a957600080fd5b80621d35671461039457806301ffc9a7146103b657806306fdde03146103eb578063075461721461040d57806307e0db171461043a578063095ea7b31461045a57806309b489fd1461047a5780630df37483146104a8575b600080fd5b3480156103a057600080fd5b506103b46103af366004613e58565b610cde565b005b3480156103c257600080fd5b506103d66103d1366004613eeb565b610f0f565b60405190151581526020015b60405180910390f35b3480156103f757600080fd5b50610400610f46565b6040516103e29190613f6d565b34801561041957600080fd5b5060105461042d906001600160a01b031681565b6040516103e29190613f80565b34801561044657600080fd5b506103b4610455366004613f94565b610fd8565b34801561046657600080fd5b506103d6610475366004613fc4565b611061565b34801561048657600080fd5b5061049a610495366004613ff0565b611079565b6040519081526020016103e2565b3480156104b457600080fd5b506103b46104c3366004614009565b6110bd565b3480156104d457600080fd5b506103b46104e3366004613f94565b6110dc565b3480156104f457600080fd5b50600a5461049a565b34801561050957600080fd5b5061049a611134565b34801561051e57600080fd5b506103d661052d366004614025565b611157565b34801561053e57600080fd5b5061049a60115481565b34801561055457600080fd5b506103b4610563366004613ff0565b61117b565b34801561057457600080fd5b5061049a6a23fb7bb9a3d260db80000081565b34801561059357600080fd5b5060125b60405160ff90911681526020016103e2565b3480156105b557600080fd5b506105c96105c4366004614076565b6111e0565b604080519283526020830191909152016103e2565b3480156105ea57600080fd5b506103d66105f9366004613fc4565b611235565b34801561060a57600080fd5b506103d66106193660046140db565b611257565b34801561062a57600080fd5b5061049a610639366004613f94565b60036020526000908152604090205481565b34801561065757600080fd5b506103b46106663660046140db565b611323565b34801561067757600080fd5b5061049a610686366004613ff0565b600f6020526000908152604090205481565b3480156106a457600080fd5b5061049a600081565b3480156106b957600080fd5b5061049a7f000000000000000000000000000000000000000000000000000000000000000081565b3480156106ed57600080fd5b50610597600081565b34801561070257600080fd5b506103b4610711366004613fc4565b6113a9565b34801561072257600080fd5b5061049a61073136600461419a565b6005602090815260009384526040808520845180860184018051928152908401958401959095209452929052825290205481565b34801561077157600080fd5b506012546103d69060ff1681565b34801561078b57600080fd5b506103b461079a366004613e58565b611532565b6103b46107ad366004614252565b61160e565b3480156107be57600080fd5b5061049a611679565b3480156107d357600080fd5b5061049a6107e23660046142c5565b6001600160a01b031660009081526008602052604090205490565b34801561080957600080fd5b506103b4611689565b34801561081e57600080fd5b5061040061082d366004613f94565b61169d565b6103b46108403660046142e2565b611737565b34801561085157600080fd5b506105977f000000000000000000000000000000000000000000000000000000000000000081565b34801561088557600080fd5b5061049a600d5481565b34801561089b57600080fd5b5061049a6108aa366004614394565b600260209081526000928352604080842090915290825290205481565b3480156108d357600080fd5b506000546001600160a01b031661042d565b3480156108f157600080fd5b5061049a6117e6565b34801561090657600080fd5b5060045461042d906001600160a01b031681565b34801561092657600080fd5b506104006117f1565b34801561093b57600080fd5b506103d661094a36600461419a565b6007602090815260009384526040808520845180860184018051928152908401958401959095209452929052825290205460ff1681565b34801561098d57600080fd5b5061040061099c366004613f94565b611800565b3480156109ad57600080fd5b5061049a611917565b3480156109c257600080fd5b506103d66109d1366004613fc4565b611a95565b3480156109e257600080fd5b506105c96109f13660046143c7565b611b10565b348015610a0257600080fd5b506103b4610a113660046140db565b611b9f565b348015610a2257600080fd5b506103d6610a31366004613fc4565b611c32565b348015610a4257600080fd5b5061042d7f000000000000000000000000000000000000000000000000000000000000000081565b348015610a7657600080fd5b506103b4610a853660046142c5565b611c40565b348015610a9657600080fd5b5061049a610aa5366004613ff0565b600e6020526000908152604090205481565b348015610ac357600080fd5b5061049a61271081565b348015610ad957600080fd5b506103b4610ae8366004614480565b611c9e565b348015610af957600080fd5b5060125461042d9061010090046001600160a01b031681565b6103b4610b20366004613e58565b611d28565b348015610b3157600080fd5b5061049a610b403660046144ee565b611f3e565b348015610b5157600080fd5b506103b4610b60366004614527565b611f69565b348015610b7157600080fd5b50610597600181565b348015610b8657600080fd5b506103b4610b95366004614563565b61201b565b348015610ba657600080fd5b506103b4610bb536600461457e565b612064565b348015610bc657600080fd5b506103b4610bd53660046140db565b612183565b348015610be657600080fd5b506006546103d69060ff1681565b348015610c0057600080fd5b506103b4610c0f3660046142c5565b6121dd565b348015610c2057600080fd5b5061049a62093a8081565b348015610c3757600080fd5b50610400610c46366004614646565b612256565b348015610c5757600080fd5b506103b4610c66366004614563565b612316565b348015610c7757600080fd5b506103b4610c863660046142c5565b61240a565b348015610c9757600080fd5b506103b4610ca6366004613ff0565b6124c8565b348015610cb757600080fd5b503061042d565b348015610cca57600080fd5b506103b4610cd93660046142c5565b612511565b337f00000000000000000000000000000000000000000000000000000000000000006001600160a01b031614610d5b5760405162461bcd60e51b815260206004820152601e60248201527f4c7a4170703a20696e76616c696420656e64706f696e742063616c6c6572000060448201526064015b60405180910390fd5b61ffff861660009081526001602052604081208054610d7990614693565b80601f0160208091040260200160405190810160405280929190818152602001828054610da590614693565b8015610df25780601f10610dc757610100808354040283529160200191610df2565b820191906000526020600020905b815481529060010190602001808311610dd557829003601f168201915b50505050509050805186869050148015610e0d575060008151115b8015610e35575080516020820120604051610e2b90889088906146c8565b6040518091039020145b610e905760405162461bcd60e51b815260206004820152602660248201527f4c7a4170703a20696e76616c696420736f757263652073656e64696e6720636f6044820152651b9d1c9858dd60d21b6064820152608401610d52565b610f068787878080601f01602080910402602001604051908101604052809392919081815260200183838082843760009201919091525050604080516020601f8a018190048102820181019092528881528a9350915088908890819084018382808284376000920191909152506125bf92505050565b50505050505050565b60006001600160e01b03198216631f7ecdf760e01b1480610f4057506301ffc9a760e01b6001600160e01b03198316145b92915050565b6060600b8054610f5590614693565b80601f0160208091040260200160405190810160405280929190818152602001828054610f8190614693565b8015610fce5780601f10610fa357610100808354040283529160200191610fce565b820191906000526020600020905b815481529060010190602001808311610fb157829003601f168201915b5050505050905090565b610fe0612638565b6040516307e0db1760e01b815261ffff821660048201527f00000000000000000000000000000000000000000000000000000000000000006001600160a01b0316906307e0db17906024015b600060405180830381600087803b15801561104657600080fd5b505af115801561105a573d6000803e3d6000fd5b5050505050565b60003361106f818585612692565b5060019392505050565b600081611084574291505b7f00000000000000000000000000000000000000000000000000000000000000008210156110b457506000919050565b610f40826127ae565b6110c5612638565b61ffff909116600090815260036020526040902055565b6110e4612638565b6040516310ddb13760e01b815261ffff821660048201527f00000000000000000000000000000000000000000000000000000000000000006001600160a01b0316906310ddb1379060240161102c565b6000600e6000611143426127ae565b815260200190815260200160002054905090565b6000336111658582856127f3565b61117085858561286d565b506001949350505050565b60125460ff161561119e5760405162461bcd60e51b8152600401610d52906146d8565b6111a83382612a06565b60405181815233907f696de425f79f4a40bc6d2122ca50507f0efbeabbff86a84871b7196ab8ea8df79060200160405180910390a250565b6000806112268888888888888080601f016020809104026020016040519081016040528093929190818152602001838380828437600092019190915250612b2592505050565b91509150965096945050505050565b60003361106f8185856112488383611f3e565b6112529190614713565b612692565b61ffff83166000908152600160205260408120805482919061127890614693565b80601f01602080910402602001604051908101604052809291908181526020018280546112a490614693565b80156112f15780601f106112c6576101008083540402835291602001916112f1565b820191906000526020600020905b8154815290600101906020018083116112d457829003601f168201915b5050505050905083836040516113089291906146c8565b60405180910390208180519060200120149150509392505050565b61132b612638565b6040516342d65a8d60e01b81526001600160a01b037f000000000000000000000000000000000000000000000000000000000000000016906342d65a8d9061137b90869086908690600401614754565b600060405180830381600087803b15801561139557600080fd5b505af1158015610f06573d6000803e3d6000fd5b60125460ff16156113cc5760405162461bcd60e51b8152600401610d52906146d8565b6010546001600160a01b031633146114155760405162461bcd60e51b815260206004820152600c60248201526b1d5b985d5d1a1bdc9a5e995960a21b6044820152606401610d52565b600081116114585760405162461bcd60e51b815260206004820152601060248201526f185b5bdd5b9d081b9bdd081d985b1a5960821b6044820152606401610d52565b6000611463426127ae565b6000818152600e60205260409020549091508211156114bf5760405162461bcd60e51b8152602060048201526018602482015277195e18d959591cc8185b1b1bddd8589b1948185b5bdd5b9d60421b6044820152606401610d52565b6114c98383612c28565b6000818152600f6020526040812080548492906114e7908490614713565b90915550506040518281526001600160a01b0384169033907f9d228d69b5fdb8d273a2336f8fb8612d039631024ea9bf09c424a9503aa078f0906020015b60405180910390a3505050565b3330146115905760405162461bcd60e51b815260206004820152602660248201527f4e6f6e626c6f636b696e674c7a4170703a2063616c6c6572206d7573742062656044820152650204c7a4170760d41b6064820152608401610d52565b6116068686868080601f01602080910402602001604051908101604052809392919081815260200183838082843760009201919091525050604080516020601f890181900481028201810190925287815289935091508790879081908401838280828437600092019190915250612cd792505050565b505050505050565b6116068585858561162260208701876142c5565b61163260408801602089016142c5565b61163f6040890189614772565b8080601f016020809104026020016040519081016040528093929190818152602001838380828437600092019190915250612d5e92505050565b6000611684426127ae565b905090565b611691612638565b61169b6000612e1a565b565b600160205260009081526040902080546116b690614693565b80601f01602080910402602001604051908101604052809291908181526020018280546116e290614693565b801561172f5780601f106117045761010080835404028352916020019161172f565b820191906000526020600020905b81548152906001019060200180831161171257829003601f168201915b505050505081565b6117db8888888888888080601f0160208091040260200160405190810160405280939291908181526020018383808284376000920191909152508a925061178491505060208901896142c5565b61179460408a0160208b016142c5565b6117a160408b018b614772565b8080601f016020809104026020016040519081016040528093929190818152602001838380828437600092019190915250612e6a92505050565b505050505050505050565b6000611684600a5490565b6060600c8054610f5590614693565b61ffff811660009081526001602052604081208054606092919061182390614693565b80601f016020809104026020016040519081016040528092919081815260200182805461184f90614693565b801561189c5780601f106118715761010080835404028352916020019161189c565b820191906000526020600020905b81548152906001019060200180831161187f57829003601f168201915b505050505090508051600014156118f55760405162461bcd60e51b815260206004820152601d60248201527f4c7a4170703a206e6f20747275737465642070617468207265636f72640000006044820152606401610d52565b61191060006014835161190891906147b8565b839190612f3a565b9392505050565b60125460009060ff161561193d5760405162461bcd60e51b8152600401610d52906146d8565b60115446146119805760405162461bcd60e51b815260206004820152600f60248201526e18da185a5b881b9bdd081d985b1a59608a1b6044820152606401610d52565b600061198b426127ae565b6000818152600e6020526040902054909150156119aa57600091505090565b600f60006119b96001846147b8565b815260200190815260200160002054600d60008282546119d991906147b8565b9091555060009050600f816119ef6001856147b8565b815260200190815260200160002054600e6000600185611a0f91906147b8565b815260200190815260200160002054611a2891906147b8565b90506000611a34613047565b9050611a408282614713565b6000848152600e602090815260409182902083905581518681529081018390529192507f50f1c5d928feed1018925d3fa59901275ddbeaf4a20a5a52bb174b5381c4fa57910160405180910390a19250505090565b60003381611aa38286611f3e565b905083811015611b035760405162461bcd60e51b815260206004820152602560248201527f45524332303a2064656372656173656420616c6c6f77616e63652062656c6f77604482015264207a65726f60d81b6064820152608401610d52565b6111708286868403612692565b600080611b8d8b8b8b8b8b8080601f01602080910402602001604051908101604052809392919081815260200183838082843760009201919091525050604080516020601f8d018190048102820181019092528b81528e93508d9250908c908c908190840183828082843760009201919091525061307192505050565b91509150995099975050505050505050565b611ba7612638565b818130604051602001611bbc939291906147cf565b60408051601f1981840301815291815261ffff85166000908152600160209081529190208251611bf193919290910190613cd5565b507f8c0400cfe2d1199b1a725c78960bcc2a344d869b80590d0f2bd005db15a572ce838383604051611c2593929190614754565b60405180910390a1505050565b60003361106f81858561286d565b611c48612638565b600480546001600160a01b0319166001600160a01b0383161790556040517f5db758e995a17ec1ad84bdef7e8c3293a0bd6179bcce400dff5d4c3d87db726b90611c93908390613f80565b60405180910390a150565b611ca6612638565b6040516332fb62e760e21b81526001600160a01b037f0000000000000000000000000000000000000000000000000000000000000000169063cbed8b9c90611cfa90889088908890889088906004016147f5565b600060405180830381600087803b158015611d1457600080fd5b505af11580156117db573d6000803e3d6000fd5b61ffff86166000908152600560205260408082209051611d4b90889088906146c8565b90815260408051602092819003830190206001600160401b03871660009081529252902054905080611dcb5760405162461bcd60e51b815260206004820152602360248201527f4e6f6e626c6f636b696e674c7a4170703a206e6f2073746f726564206d65737360448201526261676560e81b6064820152608401610d52565b808383604051611ddc9291906146c8565b604051809103902014611e3b5760405162461bcd60e51b815260206004820152602160248201527f4e6f6e626c6f636b696e674c7a4170703a20696e76616c6964207061796c6f616044820152601960fa1b6064820152608401610d52565b61ffff87166000908152600560205260408082209051611e5e90899089906146c8565b90815260408051602092819003830181206001600160401b038916600090815290845282902093909355601f88018290048202830182019052868252611ef6918991899089908190840183828082843760009201919091525050604080516020601f8a018190048102820181019092528881528a935091508890889081908401838280828437600092019190915250612cd792505050565b7fc264d91f3adc5588250e1551f547752ca0cfa8f6b530d243b9f9f4cab10ea8e58787878785604051611f2d95949392919061482e565b60405180910390a150505050505050565b6001600160a01b03918216600090815260096020908152604080832093909416825291909152205490565b611f71612638565b60008111611fb95760405162461bcd60e51b81526020600482015260156024820152744c7a4170703a20696e76616c6964206d696e47617360581b6044820152606401610d52565b61ffff83811660008181526002602090815260408083209487168084529482529182902085905581519283528201929092529081018290527f9d5c7c0b934da8fefa9c7760c98383778a12dfbfc0c3b3106518f43fb9508ac090606001611c25565b612023612638565b6006805460ff19168215159081179091556040519081527f1584ad594a70cbe1e6515592e1272a987d922b097ead875069cebe8b40c004a490602001611c93565b3330146120b35760405162461bcd60e51b815260206004820152601f60248201527f4f4654436f72653a2063616c6c6572206d757374206265204f4654436f7265006044820152606401610d52565b6120be30868661313b565b9350846001600160a01b03168a61ffff167fbf551ec93859b170f9b2141bd9298bf3f64322c6f7beb2543a0cb669834118bf8660405161210091815260200190565b60405180910390a3604051633fe79aed60e11b81526001600160a01b03861690637fcf35da908390612144908e908e908e908e908e908d908d908d90600401614869565b600060405180830381600088803b15801561215e57600080fd5b5087f1158015612172573d6000803e3d6000fd5b505050505050505050505050505050565b61218b612638565b61ffff831660009081526001602052604090206121a9908383613d59565b507ffa41487ad5d6728f0b19276fa1eddc16558578f5109fc39d2dc33c3230470dab838383604051611c2593929190614754565b6121e5612638565b6001600160a01b03811661224a5760405162461bcd60e51b815260206004820152602660248201527f4f776e61626c653a206e6577206f776e657220697320746865207a65726f206160448201526564647265737360d01b6064820152608401610d52565b61225381612e1a565b50565b604051633d7b2f6f60e21b815261ffff808616600483015284166024820152306044820152606481018290526060907f00000000000000000000000000000000000000000000000000000000000000006001600160a01b03169063f5ecbdbc9060840160006040518083038186803b1580156122d157600080fd5b505afa1580156122e5573d6000803e3d6000fd5b505050506040513d6000823e601f3d908101601f1916820160405261230d91908101906148c4565b95945050505050565b60125461010090046001600160a01b031633146123695760405162461bcd60e51b81526020600482015260116024820152701510540e881d5b985d5d1a1bdc9a5e9959607a1b6044820152606401610d52565b60125460ff16151581151514156123b45760405162461bcd60e51b815260206004820152600f60248201526e5441503a2073616d6520737461746560881b6044820152606401610d52565b6012546040805160ff9092161515825282151560208301527f9c13c5f6c628c1c82eb2b3fd8714da5c2857dbd0ad8ab6b2074abcf81015d396910160405180910390a16012805460ff1916911515919091179055565b612412612638565b6001600160a01b0381166124615760405162461bcd60e51b81526020600482015260166024820152751510540e881859191c995cdcc81b9bdd081d985b1a5960521b6044820152606401610d52565b6012546040516001600160a01b0380841692610100900416907f5a62d22209e370e38eea92cfddcd228e656e6ec139243392a760a7769f5877fd90600090a3601280546001600160a01b0390921661010002610100600160a81b0319909216919091179055565b6124d0612638565b60115460408051918252602082018390527fffaac11a2568645519512c4cc04c5052f579642fd6e2236b58ced0451e215dc4910160405180910390a1601155565b612519612638565b6001600160a01b0381166125635760405162461bcd60e51b81526020600482015260116024820152701859191c995cdcc81b9bdd081d985b1a59607a1b6044820152606401610d52565b6010546040516001600160a01b038084169216907f1cf2de25c5bf439ac0287061c3a0fa69b3b02867d0ccfd2ded34e42577050b7390600090a3601080546001600160a01b0319166001600160a01b0392909216919091179055565b6000806126225a60966366ad5c8a60e01b898989896040516024016125e79493929190614931565b60408051601f198184030181529190526020810180516001600160e01b03166001600160e01b0319909316929092179091523092919061318d565b9150915081611606576116068686868685613217565b6000546001600160a01b0316331461169b5760405162461bcd60e51b815260206004820181905260248201527f4f776e61626c653a2063616c6c6572206973206e6f7420746865206f776e65726044820152606401610d52565b6001600160a01b0383166126f45760405162461bcd60e51b8152602060048201526024808201527f45524332303a20617070726f76652066726f6d20746865207a65726f206164646044820152637265737360e01b6064820152608401610d52565b6001600160a01b0382166127555760405162461bcd60e51b815260206004820152602260248201527f45524332303a20617070726f766520746f20746865207a65726f206164647265604482015261737360f01b6064820152608401610d52565b6001600160a01b0383811660008181526009602090815260408083209487168084529482529182902085905590518481527f8c5be1e5ebec7d5bd14f71427d1e84f3dd0314c0f7b2291e5b200ac8c7c3b9259101611525565b600062093a806127de7f0000000000000000000000000000000000000000000000000000000000000000846147b8565b6127e89190614985565b610f40906001614713565b60006127ff8484611f3e565b90506000198114612867578181101561285a5760405162461bcd60e51b815260206004820152601d60248201527f45524332303a20696e73756666696369656e7420616c6c6f77616e63650000006044820152606401610d52565b6128678484848403612692565b50505050565b6001600160a01b0383166128d15760405162461bcd60e51b815260206004820152602560248201527f45524332303a207472616e736665722066726f6d20746865207a65726f206164604482015264647265737360d81b6064820152608401610d52565b6001600160a01b0382166129335760405162461bcd60e51b815260206004820152602360248201527f45524332303a207472616e7366657220746f20746865207a65726f206164647260448201526265737360e81b6064820152608401610d52565b6001600160a01b038316600090815260086020526040902054818110156129ab5760405162461bcd60e51b815260206004820152602660248201527f45524332303a207472616e7366657220616d6f756e7420657863656564732062604482015265616c616e636560d01b6064820152608401610d52565b6001600160a01b038085166000818152600860205260408082208686039055928616808252908390208054860190559151600080516020614c82833981519152906129f99086815260200190565b60405180910390a3612867565b6001600160a01b038216612a665760405162461bcd60e51b815260206004820152602160248201527f45524332303a206275726e2066726f6d20746865207a65726f206164647265736044820152607360f81b6064820152608401610d52565b6001600160a01b03821660009081526008602052604090205481811015612ada5760405162461bcd60e51b815260206004820152602260248201527f45524332303a206275726e20616d6f756e7420657863656564732062616c616e604482015261636560f01b6064820152608401610d52565b6001600160a01b03831660008181526008602090815260408083208686039055600a8054879003905551858152919291600080516020614c828339815191529101611525565b505050565b6000806000612b7387612b37886132b4565b6040805160006020820152602181019390935260c09190911b6001600160c01b0319166041830152805160298184030181526049909201905290565b60405163040a7bb160e41b81529091506001600160a01b037f000000000000000000000000000000000000000000000000000000000000000016906340a7bb1090612bca908b90309086908b908b90600401614999565b604080518083038186803b158015612be157600080fd5b505afa158015612bf5573d6000803e3d6000fd5b505050506040513d601f19601f82011682018060405250810190612c1991906149ed565b92509250509550959350505050565b6001600160a01b038216612c7e5760405162461bcd60e51b815260206004820152601f60248201527f45524332303a206d696e7420746f20746865207a65726f2061646472657373006044820152606401610d52565b80600a6000828254612c909190614713565b90915550506001600160a01b038216600081815260086020908152604080832080548601905551848152600080516020614c82833981519152910160405180910390a35050565b6000612ce38282613322565b905060ff8116612cfe57612cf98585858561337e565b61105a565b60ff811660011415612d1657612cf98585858561340e565b60405162461bcd60e51b815260206004820152601c60248201527f4f4654436f72653a20756e6b6e6f776e207061636b65742074797065000000006044820152606401610d52565b6000612d6c87828481613617565b612d7585613691565b509050612d84888888846136b9565b905060008111612da65760405162461bcd60e51b8152600401610d5290614a11565b6000612db587612b37846132b4565b9050612dc58882878787346136eb565b86896001600160a01b03168961ffff167fd81fc9b8523134ed613870ed029d6170cbb73aa6a6bc311b9a642689fb9df59a85604051612e0691815260200190565b60405180910390a450979650505050505050565b600080546001600160a01b038381166001600160a01b0319831681178455604051919092169283917f8be0079c531659141344cd1fd0a4f28419497f9722a3daafe3b4186f6b6457e09190a35050565b6000612e82896001846001600160401b038916613617565b612e8b87613691565b509050612e9a8a8a8a846136b9565b905060008111612ebc5760405162461bcd60e51b8152600401610d5290614a11565b6000612ed3338a612ecc856132b4565b8a8a613891565b9050612ee38a82878787346136eb565b888b6001600160a01b03168b61ffff167fd81fc9b8523134ed613870ed029d6170cbb73aa6a6bc311b9a642689fb9df59a85604051612f2491815260200190565b60405180910390a4509998505050505050505050565b606081612f4881601f614713565b1015612f875760405162461bcd60e51b815260206004820152600e60248201526d736c6963655f6f766572666c6f7760901b6044820152606401610d52565b612f918284614713565b84511015612fd55760405162461bcd60e51b8152602060048201526011602482015270736c6963655f6f75744f66426f756e647360781b6044820152606401610d52565b606082158015612ff4576040519150600082526020820160405261303e565b6040519150601f8416801560200281840101858101878315602002848b0101015b8183101561302d578051835260209283019201613015565b5050858452601f01601f1916604052505b50949350505050565b6000670de0b6b3a7640000661f438daa060000600d546130679190614a44565b6116849190614985565b6000806000613084338a612ecc8b6132b4565b60405163040a7bb160e41b81529091506001600160a01b037f000000000000000000000000000000000000000000000000000000000000000016906340a7bb10906130db908d90309086908b908b90600401614999565b604080518083038186803b1580156130f257600080fd5b505afa158015613106573d6000803e3d6000fd5b505050506040513d601f19601f8201168201806040525081019061312a91906149ed565b925092505097509795505050505050565b600033306001600160a01b038616148015906131695750806001600160a01b0316856001600160a01b031614155b15613179576131798582856127f3565b61318485858561286d565b50909392505050565b6000606060008060008661ffff166001600160401b038111156131b2576131b261412d565b6040519080825280601f01601f1916602001820160405280156131dc576020820181803683370190505b50905060008087516020890160008d8df191503d9250868311156131fe578692505b828152826000602083013e909890975095505050505050565b8180519060200120600560008761ffff1661ffff168152602001908152602001600020856040516132489190614a63565b9081526040805191829003602090810183206001600160401b0388166000908152915220919091557fe183f33de2837795525b4792ca4cd60535bd77c53b7e7030060bfcf5734d6b0c906132a59087908790879087908790614a7f565b60405180910390a15050505050565b6000806132bf6138d2565b6132c99084614985565b90506001600160401b03811115610f405760405162461bcd60e51b815260206004820152601a60248201527f4f4654436f72653a20616d6f756e745344206f766572666c6f770000000000006044820152606401610d52565b600061332f826001614713565b835110156133755760405162461bcd60e51b8152602060048201526013602482015272746f55696e74385f6f75744f66426f756e647360681b6044820152606401610d52565b50016001015190565b60008061338a836138f6565b90925090506001600160a01b0382166133a35761dead91505b60006133ae82613950565b90506133bb87848361396d565b9050826001600160a01b03168761ffff167fbf551ec93859b170f9b2141bd9298bf3f64322c6f7beb2543a0cb669834118bf836040516133fd91815260200190565b60405180910390a350505050505050565b600080600080600061341f86613980565b945094509450945094506000600760008b61ffff1661ffff168152602001908152602001600020896040516134549190614a63565b90815260408051602092819003830190206001600160401b038b166000908152925281205460ff16915061348785613950565b9050816134f5576134998b308361396d565b61ffff8c166000908152600760205260409081902090519192506001916134c1908d90614a63565b90815260408051602092819003830190206001600160401b038d16600090815292529020805460ff19169115159190911790555b6001600160a01b0386163b613547577f9aedf5fdba8716db3b6705ca00150643309995d4f818a249ed6dde6677e7792d866040516135339190613f80565b60405180910390a150505050505050612867565b8a8a8a8a8a8a868a60008a613565578b6001600160401b0316613567565b5a5b90506000806135995a609663eaffd49a60e01b8e8e8e8d8d8d8d8d6040516024016125e7989796959493929190614ad1565b9150915081156135f2578751602089012060405161ffff8d16907fb8890edbfc1c74692f527444645f95489c3703cc2df42e4a366f5d06fa6cd884906135e4908e908e908690614b45565b60405180910390a2506135ff565b6135ff8b8b8b8b85613217565b50505050505050505050505050505050505050505050565b60065460ff16156136335761362e84848484613a0c565b612867565b8151156128675760405162461bcd60e51b815260206004820152602660248201527f4f4654436f72653a205f61646170746572506172616d73206d7573742062652060448201526532b6b83a3c9760d11b6064820152608401610d52565b60008061369c6138d2565b6136a69084614b73565b90506136b281846147b8565b9150915091565b6000336001600160a01b03861681146136d7576136d78682856127f3565b6136e18684612a06565b5090949350505050565b61ffff86166000908152600160205260408120805461370990614693565b80601f016020809104026020016040519081016040528092919081815260200182805461373590614693565b80156137825780601f1061375757610100808354040283529160200191613782565b820191906000526020600020905b81548152906001019060200180831161376557829003601f168201915b505050505090508051600014156137f45760405162461bcd60e51b815260206004820152603060248201527f4c7a4170703a2064657374696e6174696f6e20636861696e206973206e6f742060448201526f61207472757374656420736f7572636560801b6064820152608401610d52565b6137ff878751613aeb565b60405162c5803160e81b81526001600160a01b037f0000000000000000000000000000000000000000000000000000000000000000169063c5803100908490613856908b9086908c908c908c908c90600401614b87565b6000604051808303818588803b15801561386f57600080fd5b505af1158015613883573d6000803e3d6000fd5b505050505050505050505050565b6060600185856001600160a01b03891685876040516020016138b896959493929190614bee565b604051602081830303815290604052905095945050505050565b7f000000000000000000000000000000000000000000000000000000000000000090565b600080806139048482613322565b60ff16148015613915575082516029145b6139315760405162461bcd60e51b8152600401610d5290614c4f565b61393c83600d613b59565b9150613949836021613bbe565b9050915091565b600061395a6138d2565b610f40906001600160401b038416614a44565b60006139798383612c28565b5092915050565b6000808060608160016139938783613322565b60ff16146139b35760405162461bcd60e51b8152600401610d5290614c4f565b6139be86600d613b59565b93506139cb866021613bbe565b92506139d8866029613c1b565b94506139e5866049613bbe565b9050613a0160518088516139f991906147b8565b889190612f3a565b915091939590929450565b6000613a1783613c79565b61ffff808716600090815260026020908152604080832093891683529290529081205491925090613a49908490614713565b905060008111613a9b5760405162461bcd60e51b815260206004820152601a60248201527f4c7a4170703a206d696e4761734c696d6974206e6f74207365740000000000006044820152606401610d52565b808210156116065760405162461bcd60e51b815260206004820152601b60248201527f4c7a4170703a20676173206c696d697420697320746f6f206c6f7700000000006044820152606401610d52565b61ffff821660009081526003602052604090205480613b0957506127105b80821115612b205760405162461bcd60e51b815260206004820181905260248201527f4c7a4170703a207061796c6f61642073697a6520697320746f6f206c617267656044820152606401610d52565b6000613b66826014614713565b83511015613bae5760405162461bcd60e51b8152602060048201526015602482015274746f416464726573735f6f75744f66426f756e647360581b6044820152606401610d52565b500160200151600160601b900490565b6000613bcb826008614713565b83511015613c125760405162461bcd60e51b8152602060048201526014602482015273746f55696e7436345f6f75744f66426f756e647360601b6044820152606401610d52565b50016008015190565b6000613c28826020614713565b83511015613c705760405162461bcd60e51b8152602060048201526015602482015274746f427974657333325f6f75744f66426f756e647360581b6044820152606401610d52565b50016020015190565b6000602282511015613ccd5760405162461bcd60e51b815260206004820152601c60248201527f4c7a4170703a20696e76616c69642061646170746572506172616d73000000006044820152606401610d52565b506022015190565b828054613ce190614693565b90600052602060002090601f016020900481019282613d035760008555613d49565b82601f10613d1c57805160ff1916838001178555613d49565b82800160010185558215613d49579182015b82811115613d49578251825591602001919060010190613d2e565b50613d55929150613dcd565b5090565b828054613d6590614693565b90600052602060002090601f016020900481019282613d875760008555613d49565b82601f10613da05782800160ff19823516178555613d49565b82800160010185558215613d49579182015b82811115613d49578235825591602001919060010190613db2565b5b80821115613d555760008155600101613dce565b803561ffff81168114613df457600080fd5b919050565b60008083601f840112613e0b57600080fd5b5081356001600160401b03811115613e2257600080fd5b602083019150836020828501011115613e3a57600080fd5b9250929050565b80356001600160401b0381168114613df457600080fd5b60008060008060008060808789031215613e7157600080fd5b613e7a87613de2565b955060208701356001600160401b0380821115613e9657600080fd5b613ea28a838b01613df9565b9097509550859150613eb660408a01613e41565b94506060890135915080821115613ecc57600080fd5b50613ed989828a01613df9565b979a9699509497509295939492505050565b600060208284031215613efd57600080fd5b81356001600160e01b03198116811461191057600080fd5b60005b83811015613f30578181015183820152602001613f18565b838111156128675750506000910152565b60008151808452613f59816020860160208601613f15565b601f01601f19169290920160200192915050565b6020815260006119106020830184613f41565b6001600160a01b0391909116815260200190565b600060208284031215613fa657600080fd5b61191082613de2565b6001600160a01b038116811461225357600080fd5b60008060408385031215613fd757600080fd5b8235613fe281613faf565b946020939093013593505050565b60006020828403121561400257600080fd5b5035919050565b6000806040838503121561401c57600080fd5b613fe283613de2565b60008060006060848603121561403a57600080fd5b833561404581613faf565b9250602084013561405581613faf565b929592945050506040919091013590565b80358015158114613df457600080fd5b60008060008060008060a0878903121561408f57600080fd5b61409887613de2565b955060208701359450604087013593506140b460608801614066565b925060808701356001600160401b038111156140cf57600080fd5b613ed989828a01613df9565b6000806000604084860312156140f057600080fd5b6140f984613de2565b925060208401356001600160401b0381111561411457600080fd5b61412086828701613df9565b9497909650939450505050565b634e487b7160e01b600052604160045260246000fd5b604051601f8201601f191681016001600160401b038111828210171561416b5761416b61412d565b604052919050565b60006001600160401b0382111561418c5761418c61412d565b50601f01601f191660200190565b6000806000606084860312156141af57600080fd5b6141b884613de2565b925060208401356001600160401b038111156141d357600080fd5b8401601f810186136141e457600080fd5b80356141f76141f282614173565b614143565b81815287602083850101111561420c57600080fd5b8160208401602083013760006020838301015280945050505061423160408501613e41565b90509250925092565b60006060828403121561424c57600080fd5b50919050565b600080600080600060a0868803121561426a57600080fd5b853561427581613faf565b945061428360208701613de2565b9350604086013592506060860135915060808601356001600160401b038111156142ac57600080fd5b6142b88882890161423a565b9150509295509295909350565b6000602082840312156142d757600080fd5b813561191081613faf565b60008060008060008060008060e0898b0312156142fe57600080fd5b883561430981613faf565b975061431760208a01613de2565b9650604089013595506060890135945060808901356001600160401b038082111561434157600080fd5b61434d8c838d01613df9565b909650945084915061436160a08c01613e41565b935060c08b013591508082111561437757600080fd5b506143848b828c0161423a565b9150509295985092959890939650565b600080604083850312156143a757600080fd5b6143b083613de2565b91506143be60208401613de2565b90509250929050565b600080600080600080600080600060e08a8c0312156143e557600080fd5b6143ee8a613de2565b985060208a0135975060408a0135965060608a01356001600160401b038082111561441857600080fd5b6144248d838e01613df9565b909850965086915061443860808d01613e41565b955061444660a08d01614066565b945060c08c013591508082111561445c57600080fd5b506144698c828d01613df9565b915080935050809150509295985092959850929598565b60008060008060006080868803121561449857600080fd5b6144a186613de2565b94506144af60208701613de2565b93506040860135925060608601356001600160401b038111156144d157600080fd5b6144dd88828901613df9565b969995985093965092949392505050565b6000806040838503121561450157600080fd5b823561450c81613faf565b9150602083013561451c81613faf565b809150509250929050565b60008060006060848603121561453c57600080fd5b61454584613de2565b925061455360208501613de2565b9150604084013590509250925092565b60006020828403121561457557600080fd5b61191082614066565b6000806000806000806000806000806101008b8d03121561459e57600080fd5b6145a78b613de2565b995060208b01356001600160401b03808211156145c357600080fd5b6145cf8e838f01613df9565b909b5099508991506145e360408e01613e41565b985060608d0135975060808d013591506145fc82613faf565b90955060a08c0135945060c08c0135908082111561461957600080fd5b506146268d828e01613df9565b9150809450508092505060e08b013590509295989b9194979a5092959850565b6000806000806080858703121561465c57600080fd5b61466585613de2565b935061467360208601613de2565b9250604085013561468381613faf565b9396929550929360600135925050565b600181811c908216806146a757607f821691505b6020821081141561424c57634e487b7160e01b600052602260045260246000fd5b8183823760009101908152919050565b6020808252600b908201526a1510540e881c185d5cd95960aa1b604082015260600190565b634e487b7160e01b600052601160045260246000fd5b60008219821115614726576147266146fd565b500190565b81835281816020850137506000828201602090810191909152601f909101601f19169091010190565b61ffff8416815260406020820152600061230d60408301848661472b565b6000808335601e1984360301811261478957600080fd5b8301803591506001600160401b038211156147a357600080fd5b602001915036819003821315613e3a57600080fd5b6000828210156147ca576147ca6146fd565b500390565b8284823760609190911b6bffffffffffffffffffffffff19169101908152601401919050565b600061ffff80881683528087166020840152508460408301526080606083015261482360808301848661472b565b979650505050505050565b61ffff8616815260806020820152600061484c60808301868861472b565b6001600160401b0394909416604083015250606001529392505050565b61ffff8916815260c06020820152600061488760c08301898b61472b565b6001600160401b038816604084015286606084015285608084015282810360a08401526148b581858761472b565b9b9a5050505050505050505050565b6000602082840312156148d657600080fd5b81516001600160401b038111156148ec57600080fd5b8201601f810184136148fd57600080fd5b805161490b6141f282614173565b81815285602083850101111561492057600080fd5b61230d826020830160208601613f15565b61ffff8516815260806020820152600061494e6080830186613f41565b6001600160401b038516604084015282810360608401526148238185613f41565b634e487b7160e01b600052601260045260246000fd5b6000826149945761499461496f565b500490565b61ffff861681526001600160a01b038516602082015260a0604082018190526000906149c790830186613f41565b841515606084015282810360808401526149e18185613f41565b98975050505050505050565b60008060408385031215614a0057600080fd5b505080516020909101519092909150565b60208082526019908201527813d19510dbdc994e88185b5bdd5b9d081d1bdbc81cdb585b1b603a1b604082015260600190565b6000816000190483118215151615614a5e57614a5e6146fd565b500290565b60008251614a75818460208701613f15565b9190910192915050565b61ffff8616815260a060208201526000614a9c60a0830187613f41565b6001600160401b03861660408401528281036060840152614abd8186613f41565b905082810360808401526149e18185613f41565b600061010061ffff8b168352806020840152614aef8184018b613f41565b6001600160401b038a166040850152606084018990526001600160a01b038816608085015260a0840187905283810360c08501529050614b2f8186613f41565b9150508260e08301529998505050505050505050565b606081526000614b586060830186613f41565b6001600160401b039490941660208301525060400152919050565b600082614b8257614b8261496f565b500690565b61ffff8716815260c060208201526000614ba460c0830188613f41565b8281036040840152614bb68188613f41565b6001600160a01b0387811660608601528616608085015283810360a08501529050614be18185613f41565b9998505050505050505050565b60ff60f81b8760f81b16815285600182015260006001600160401b0360c01b808760c01b166021840152856029840152808560c01b166049840152508251614c3d816051850160208701613f15565b91909101605101979650505050505050565b60208082526018908201527713d19510dbdc994e881a5b9d985b1a59081c185e5b1bd85960421b60408201526060019056feddf252ad1be2c89b69c2b068fc378daa952ba7f163c4a11628f55a4df523b3efa2646970667358221220b060633db87b3bb90fdcc2a28dd3cf3e9c4977b2406c5604c0b642d45bbd0ff264736f6c63430008090033",
  "devdoc": {
    "details": "Latest size: 17.663  KiBEmissions E(x)= E(x-1) - E(x-1) * D with E being total supply a x week, and D the initial decay rate",
    "kind": "dev",
    "methods": {
      "allowance(address,address)": {
        "details": "See {IERC20-allowance}."
      },
      "approve(address,uint256)": {
        "details": "See {IERC20-approve}. NOTE: If `amount` is the maximum `uint256`, the allowance is not updated on `transferFrom`. This is semantically equivalent to an infinite approval. Requirements: - `spender` cannot be the zero address."
      },
      "balanceOf(address)": {
        "details": "See {IERC20-balanceOf}."
      },
      "circulatingSupply()": {
        "details": "returns the circulating amount of tokens on current chain"
      },
      "constructor": {
        "details": "The initial supply of 100M is not minted here as we have the wrap method",
        "params": {
          "_airdrop": "address of the airdrop contract",
          "_contributors": "address of the  contributors",
          "_dao": "address of the DAO",
          "_governanceChainId": "LayerZero governance chain identifier",
          "_investors": "address of investors",
          "_lbp": "address of the LBP",
          "_lzEndpoint": "the layer zero address endpoint deployed on the current chain"
        }
      },
      "decreaseAllowance(address,uint256)": {
        "details": "Atomically decreases the allowance granted to `spender` by the caller. This is an alternative to {approve} that can be used as a mitigation for problems described in {IERC20-approve}. Emits an {Approval} event indicating the updated allowance. Requirements: - `spender` cannot be the zero address. - `spender` must have allowance for the caller of at least `subtractedValue`."
      },
      "estimateSendFee(uint16,bytes32,uint256,bool,bytes)": {
        "details": "estimate send token `_tokenId` to (`_dstChainId`, `_toAddress`) _dstChainId - L0 defined chain id to send tokens too _toAddress - dynamic bytes array which contains the address to whom you are sending tokens to on the dstChain _amount - amount of the tokens to transfer _useZro - indicates to use zro to pay L0 fees _adapterParam - flexible bytes array to indicate messaging adapter services in L0"
      },
      "extractTAP(address,uint256)": {
        "params": {
          "_amount": "TAP amount",
          "_to": "Address to send the minted TAP to"
        }
      },
      "increaseAllowance(address,uint256)": {
        "details": "Atomically increases the allowance granted to `spender` by the caller. This is an alternative to {approve} that can be used as a mitigation for problems described in {IERC20-approve}. Emits an {Approval} event indicating the updated allowance. Requirements: - `spender` cannot be the zero address."
      },
      "name()": {
        "details": "Returns the name of the token."
      },
      "owner()": {
        "details": "Returns the address of the current owner."
      },
      "removeTAP(uint256)": {
        "params": {
          "_amount": "TAP amount"
        }
      },
      "renounceOwnership()": {
        "details": "Leaves the contract without owner. It will not be possible to call `onlyOwner` functions anymore. Can only be called by the current owner. NOTE: Renouncing ownership will leave the contract without an owner, thereby removing any functionality that is only available to the owner."
      },
      "sendFrom(address,uint16,bytes32,uint256,(address,address,bytes))": {
        "details": "send `_amount` amount of token to (`_dstChainId`, `_toAddress`) from `_from` `_from` the owner of token `_dstChainId` the destination chain identifier `_toAddress` can be any size depending on the `dstChainId`. `_amount` the quantity of tokens in wei `_refundAddress` the address LayerZero refunds if too much message fee is sent `_zroPaymentAddress` set to address(0x0) if not paying in ZRO (LayerZero Token) `_adapterParams` is a flexible bytes array to indicate messaging adapter services"
      },
      "setConservator(address)": {
        "details": "Conservator can pause the contract",
        "params": {
          "_conservator": "The new address"
        }
      },
      "setGovernanceChainIdentifier(uint256)": {
        "params": {
          "_identifier": "LayerZero chain identifier"
        }
      },
      "setMinter(address)": {
        "params": {
          "_minter": "the new address"
        }
      },
      "symbol()": {
        "details": "Returns the symbol of the token, usually a shorter version of the name."
      },
      "token()": {
        "details": "returns the address of the ERC20 token"
      },
      "totalSupply()": {
        "details": "See {IERC20-totalSupply}."
      },
      "transfer(address,uint256)": {
        "details": "See {IERC20-transfer}. Requirements: - `to` cannot be the zero address. - the caller must have a balance of at least `amount`."
      },
      "transferFrom(address,address,uint256)": {
        "details": "See {IERC20-transferFrom}. Emits an {Approval} event indicating the updated allowance. This is not required by the EIP. See the note at the beginning of {ERC20}. NOTE: Does not update the allowance if the current allowance is the maximum `uint256`. Requirements: - `from` and `to` cannot be the zero address. - `from` must have a balance of at least `amount`. - the caller must have allowance for ``from``'s tokens of at least `amount`."
      },
      "transferOwnership(address)": {
        "details": "Transfers ownership of the contract to a new account (`newOwner`). Can only be called by the current owner."
      },
      "updatePause(bool)": {
        "params": {
          "val": "the new value"
        }
      }
    },
    "stateVariables": {
      "emissionForWeek": {
        "details": "week is computed using (timestamp - emissionStartTime) / WEEK"
      },
      "emissionsStartTime": {
        "details": "initialized in the constructor with block.timestamp"
      },
      "mintedInWeek": {
        "details": "week is computed using (timestamp - emissionStartTime) / WEEK"
      }
    },
    "title": "Tapioca OFT token",
    "version": 1
  },
  "userdoc": {
    "events": {
      "Burned(address,uint256)": {
        "notice": "event emitted when new TAP is burned"
      },
      "ConservatorUpdated(address,address)": {
        "notice": "event emitted when Conservator is changed"
      },
      "Emitted(uint256,uint256)": {
        "notice": "event emitted when a new emission is called"
      },
      "GovernanceChainIdentifierUpdated(uint256,uint256)": {
        "notice": "event emitted when the governance chain identifier is updated"
      },
      "Minted(address,address,uint256)": {
        "notice": "event emitted when new TAP is minted"
      },
      "MinterUpdated(address,address)": {
        "notice": "event emitted when a new minter is set"
      },
      "PausedUpdated(bool,bool)": {
        "notice": "event emitted when pause state is changed"
      }
    },
    "kind": "user",
    "methods": {
      "WEEK()": {
        "notice": "seconds in a week"
      },
      "conservator()": {
        "notice": "returns the Conservator address"
      },
      "constructor": {
        "notice": "Creates a new TAP OFT type token"
      },
      "decimals()": {
        "notice": "returns token's decimals"
      },
      "emissionForWeek(uint256)": {
        "notice": "returns the amount of emitted TAP for a specific week"
      },
      "emissionsStartTime()": {
        "notice": "starts time for emissions"
      },
      "emitForWeek()": {
        "notice": "-- Write methods --Emit the TAP for the current week"
      },
      "extractTAP(address,uint256)": {
        "notice": "extracts from the minted TAP"
      },
      "getCurrentWeek()": {
        "notice": "Returns the current week"
      },
      "getCurrentWeekEmission()": {
        "notice": "Returns the current week emission"
      },
      "governanceChainIdentifier()": {
        "notice": "LayerZero governance chain identifier"
      },
      "mintedInWeek(uint256)": {
        "notice": "returns the amount minted for a specific week"
      },
      "minter()": {
        "notice": "returns the minter address"
      },
      "paused()": {
        "notice": "returns the pause state of the contract"
      },
      "removeTAP(uint256)": {
        "notice": "burns TAP"
      },
      "setConservator(address)": {
        "notice": "Set the Conservator address"
      },
      "setGovernanceChainIdentifier(uint256)": {
        "notice": "-- Owner methods --sets the governance chain identifier"
      },
      "setMinter(address)": {
        "notice": "sets a new minter address"
      },
      "timestampToWeek(uint256)": {
        "notice": "Returns the current week given a timestamp"
      },
      "updatePause(bool)": {
        "notice": "updates the pause state of the contract"
      }
    },
    "notice": "OFT compatible TAP token",
    "version": 1
  },
  "storageLayout": {
    "storage": [
      {
        "astId": 565,
        "contract": "contracts/tokens/TapOFT.sol:TapOFT",
        "label": "_owner",
        "offset": 0,
        "slot": "0",
        "type": "t_address"
      },
      {
        "astId": 12052,
        "contract": "contracts/tokens/TapOFT.sol:TapOFT",
        "label": "trustedRemoteLookup",
        "offset": 0,
        "slot": "1",
        "type": "t_mapping(t_uint16,t_bytes_storage)"
      },
      {
        "astId": 12058,
        "contract": "contracts/tokens/TapOFT.sol:TapOFT",
        "label": "minDstGasLookup",
        "offset": 0,
        "slot": "2",
        "type": "t_mapping(t_uint16,t_mapping(t_uint16,t_uint256))"
      },
      {
        "astId": 12062,
        "contract": "contracts/tokens/TapOFT.sol:TapOFT",
        "label": "payloadSizeLimitLookup",
        "offset": 0,
        "slot": "3",
        "type": "t_mapping(t_uint16,t_uint256)"
      },
      {
        "astId": 12064,
        "contract": "contracts/tokens/TapOFT.sol:TapOFT",
        "label": "precrime",
        "offset": 0,
        "slot": "4",
        "type": "t_address"
      },
      {
        "astId": 12601,
        "contract": "contracts/tokens/TapOFT.sol:TapOFT",
        "label": "failedMessages",
        "offset": 0,
        "slot": "5",
        "type": "t_mapping(t_uint16,t_mapping(t_bytes_memory_ptr,t_mapping(t_uint64,t_bytes32)))"
      },
      {
        "astId": 13150,
        "contract": "contracts/tokens/TapOFT.sol:TapOFT",
        "label": "useCustomAdapterParams",
        "offset": 0,
        "slot": "6",
        "type": "t_bool"
      },
      {
        "astId": 13158,
        "contract": "contracts/tokens/TapOFT.sol:TapOFT",
        "label": "creditedPackets",
        "offset": 0,
        "slot": "7",
        "type": "t_mapping(t_uint16,t_mapping(t_bytes_memory_ptr,t_mapping(t_uint64,t_bool)))"
      },
      {
        "astId": 1011,
        "contract": "contracts/tokens/TapOFT.sol:TapOFT",
        "label": "_balances",
        "offset": 0,
        "slot": "8",
        "type": "t_mapping(t_address,t_uint256)"
      },
      {
        "astId": 1017,
        "contract": "contracts/tokens/TapOFT.sol:TapOFT",
        "label": "_allowances",
        "offset": 0,
        "slot": "9",
        "type": "t_mapping(t_address,t_mapping(t_address,t_uint256))"
      },
      {
        "astId": 1019,
        "contract": "contracts/tokens/TapOFT.sol:TapOFT",
        "label": "_totalSupply",
        "offset": 0,
        "slot": "10",
        "type": "t_uint256"
      },
      {
        "astId": 1021,
        "contract": "contracts/tokens/TapOFT.sol:TapOFT",
        "label": "_name",
        "offset": 0,
        "slot": "11",
        "type": "t_string_storage"
      },
      {
        "astId": 1023,
        "contract": "contracts/tokens/TapOFT.sol:TapOFT",
        "label": "_symbol",
        "offset": 0,
        "slot": "12",
        "type": "t_string_storage"
      },
      {
        "astId": 9111,
        "contract": "contracts/tokens/TapOFT.sol:TapOFT",
        "label": "dso_supply",
        "offset": 0,
        "slot": "13",
        "type": "t_uint256"
      },
      {
        "astId": 9130,
        "contract": "contracts/tokens/TapOFT.sol:TapOFT",
        "label": "emissionForWeek",
        "offset": 0,
        "slot": "14",
        "type": "t_mapping(t_uint256,t_uint256)"
      },
      {
        "astId": 9135,
        "contract": "contracts/tokens/TapOFT.sol:TapOFT",
        "label": "mintedInWeek",
        "offset": 0,
        "slot": "15",
        "type": "t_mapping(t_uint256,t_uint256)"
      },
      {
        "astId": 9138,
        "contract": "contracts/tokens/TapOFT.sol:TapOFT",
        "label": "minter",
        "offset": 0,
        "slot": "16",
        "type": "t_address"
      },
      {
        "astId": 9141,
        "contract": "contracts/tokens/TapOFT.sol:TapOFT",
        "label": "governanceChainIdentifier",
        "offset": 0,
        "slot": "17",
        "type": "t_uint256"
      },
      {
        "astId": 9144,
        "contract": "contracts/tokens/TapOFT.sol:TapOFT",
        "label": "paused",
        "offset": 0,
        "slot": "18",
        "type": "t_bool"
      },
      {
        "astId": 9147,
        "contract": "contracts/tokens/TapOFT.sol:TapOFT",
        "label": "conservator",
        "offset": 1,
        "slot": "18",
        "type": "t_address"
      }
    ],
    "types": {
      "t_address": {
        "encoding": "inplace",
        "label": "address",
        "numberOfBytes": "20"
      },
      "t_bool": {
        "encoding": "inplace",
        "label": "bool",
        "numberOfBytes": "1"
      },
      "t_bytes32": {
        "encoding": "inplace",
        "label": "bytes32",
        "numberOfBytes": "32"
      },
      "t_bytes_memory_ptr": {
        "encoding": "bytes",
        "label": "bytes",
        "numberOfBytes": "32"
      },
      "t_bytes_storage": {
        "encoding": "bytes",
        "label": "bytes",
        "numberOfBytes": "32"
      },
      "t_mapping(t_address,t_mapping(t_address,t_uint256))": {
        "encoding": "mapping",
        "key": "t_address",
        "label": "mapping(address => mapping(address => uint256))",
        "numberOfBytes": "32",
        "value": "t_mapping(t_address,t_uint256)"
      },
      "t_mapping(t_address,t_uint256)": {
        "encoding": "mapping",
        "key": "t_address",
        "label": "mapping(address => uint256)",
        "numberOfBytes": "32",
        "value": "t_uint256"
      },
      "t_mapping(t_bytes_memory_ptr,t_mapping(t_uint64,t_bool))": {
        "encoding": "mapping",
        "key": "t_bytes_memory_ptr",
        "label": "mapping(bytes => mapping(uint64 => bool))",
        "numberOfBytes": "32",
        "value": "t_mapping(t_uint64,t_bool)"
      },
      "t_mapping(t_bytes_memory_ptr,t_mapping(t_uint64,t_bytes32))": {
        "encoding": "mapping",
        "key": "t_bytes_memory_ptr",
        "label": "mapping(bytes => mapping(uint64 => bytes32))",
        "numberOfBytes": "32",
        "value": "t_mapping(t_uint64,t_bytes32)"
      },
      "t_mapping(t_uint16,t_bytes_storage)": {
        "encoding": "mapping",
        "key": "t_uint16",
        "label": "mapping(uint16 => bytes)",
        "numberOfBytes": "32",
        "value": "t_bytes_storage"
      },
      "t_mapping(t_uint16,t_mapping(t_bytes_memory_ptr,t_mapping(t_uint64,t_bool)))": {
        "encoding": "mapping",
        "key": "t_uint16",
        "label": "mapping(uint16 => mapping(bytes => mapping(uint64 => bool)))",
        "numberOfBytes": "32",
        "value": "t_mapping(t_bytes_memory_ptr,t_mapping(t_uint64,t_bool))"
      },
      "t_mapping(t_uint16,t_mapping(t_bytes_memory_ptr,t_mapping(t_uint64,t_bytes32)))": {
        "encoding": "mapping",
        "key": "t_uint16",
        "label": "mapping(uint16 => mapping(bytes => mapping(uint64 => bytes32)))",
        "numberOfBytes": "32",
        "value": "t_mapping(t_bytes_memory_ptr,t_mapping(t_uint64,t_bytes32))"
      },
      "t_mapping(t_uint16,t_mapping(t_uint16,t_uint256))": {
        "encoding": "mapping",
        "key": "t_uint16",
        "label": "mapping(uint16 => mapping(uint16 => uint256))",
        "numberOfBytes": "32",
        "value": "t_mapping(t_uint16,t_uint256)"
      },
      "t_mapping(t_uint16,t_uint256)": {
        "encoding": "mapping",
        "key": "t_uint16",
        "label": "mapping(uint16 => uint256)",
        "numberOfBytes": "32",
        "value": "t_uint256"
      },
      "t_mapping(t_uint256,t_uint256)": {
        "encoding": "mapping",
        "key": "t_uint256",
        "label": "mapping(uint256 => uint256)",
        "numberOfBytes": "32",
        "value": "t_uint256"
      },
      "t_mapping(t_uint64,t_bool)": {
        "encoding": "mapping",
        "key": "t_uint64",
        "label": "mapping(uint64 => bool)",
        "numberOfBytes": "32",
        "value": "t_bool"
      },
      "t_mapping(t_uint64,t_bytes32)": {
        "encoding": "mapping",
        "key": "t_uint64",
        "label": "mapping(uint64 => bytes32)",
        "numberOfBytes": "32",
        "value": "t_bytes32"
      },
      "t_string_storage": {
        "encoding": "bytes",
        "label": "string",
        "numberOfBytes": "32"
      },
      "t_uint16": {
        "encoding": "inplace",
        "label": "uint16",
        "numberOfBytes": "2"
      },
      "t_uint256": {
        "encoding": "inplace",
        "label": "uint256",
        "numberOfBytes": "32"
      },
      "t_uint64": {
        "encoding": "inplace",
        "label": "uint64",
        "numberOfBytes": "8"
      }
    }
  }
}