{
  "address": "0x78Ab2649fd6682e5c3CCFABb87ed6FcED0843cE4",
  "abi": [
    {
      "inputs": [
        {
          "internalType": "address",
          "name": "_lzEndpoint",
          "type": "address"
        },
        {
          "internalType": "address",
          "name": "_team",
          "type": "address"
        },
        {
          "internalType": "address",
          "name": "_advisors",
          "type": "address"
        },
        {
          "internalType": "address",
          "name": "_dao",
          "type": "address"
        },
        {
          "internalType": "address",
          "name": "_seed",
          "type": "address"
        },
        {
          "internalType": "address",
          "name": "_otc",
          "type": "address"
        },
        {
          "internalType": "address",
          "name": "_lbp",
          "type": "address"
        },
        {
          "internalType": "uint256",
          "name": "_governanceChainId",
          "type": "uint256"
        }
      ],
      "stateMutability": "nonpayable",
      "type": "constructor"
    },
    {
      "inputs": [],
      "name": "PRBMathSD59x18__DivInputTooSmall",
      "type": "error"
    },
    {
      "inputs": [
        {
          "internalType": "uint256",
          "name": "rAbs",
          "type": "uint256"
        }
      ],
      "name": "PRBMathSD59x18__DivOverflow",
      "type": "error"
    },
    {
      "inputs": [
        {
          "internalType": "int256",
          "name": "x",
          "type": "int256"
        }
      ],
      "name": "PRBMathSD59x18__Exp2InputTooBig",
      "type": "error"
    },
    {
      "inputs": [
        {
          "internalType": "int256",
          "name": "x",
          "type": "int256"
        }
      ],
      "name": "PRBMathSD59x18__FromIntOverflow",
      "type": "error"
    },
    {
      "inputs": [
        {
          "internalType": "int256",
          "name": "x",
          "type": "int256"
        }
      ],
      "name": "PRBMathSD59x18__FromIntUnderflow",
      "type": "error"
    },
    {
      "inputs": [
        {
          "internalType": "int256",
          "name": "x",
          "type": "int256"
        }
      ],
      "name": "PRBMathSD59x18__LogInputTooSmall",
      "type": "error"
    },
    {
      "inputs": [],
      "name": "PRBMathSD59x18__MulInputTooSmall",
      "type": "error"
    },
    {
      "inputs": [
        {
          "internalType": "uint256",
          "name": "rAbs",
          "type": "uint256"
        }
      ],
      "name": "PRBMathSD59x18__MulOverflow",
      "type": "error"
    },
    {
      "inputs": [
        {
          "internalType": "uint256",
          "name": "prod1",
          "type": "uint256"
        }
      ],
      "name": "PRBMath__MulDivFixedPointOverflow",
      "type": "error"
    },
    {
      "inputs": [
        {
          "internalType": "uint256",
          "name": "prod1",
          "type": "uint256"
        },
        {
          "internalType": "uint256",
          "name": "denominator",
          "type": "uint256"
        }
      ],
      "name": "PRBMath__MulDivOverflow",
      "type": "error"
    },
    {
      "anonymous": false,
      "inputs": [
        {
          "indexed": false,
          "internalType": "int256",
          "name": "_old",
          "type": "int256"
        },
        {
          "indexed": false,
          "internalType": "int256",
          "name": "_new",
          "type": "int256"
        }
      ],
      "name": "AParamUpdated",
      "type": "event"
    },
    {
      "anonymous": false,
      "inputs": [
        {
          "indexed": true,
          "internalType": "address",
          "name": "owner",
          "type": "address"
        },
        {
          "indexed": true,
          "internalType": "address",
          "name": "spender",
          "type": "address"
        },
        {
          "indexed": false,
          "internalType": "uint256",
          "name": "value",
          "type": "uint256"
        }
      ],
      "name": "Approval",
      "type": "event"
    },
    {
      "anonymous": false,
      "inputs": [
        {
          "indexed": false,
          "internalType": "int256",
          "name": "_old",
          "type": "int256"
        },
        {
          "indexed": false,
          "internalType": "int256",
          "name": "_new",
          "type": "int256"
        }
      ],
      "name": "BParamUpdated",
      "type": "event"
    },
    {
      "anonymous": false,
      "inputs": [
        {
          "indexed": true,
          "internalType": "address",
          "name": "_by",
          "type": "address"
        },
        {
          "indexed": true,
          "internalType": "address",
          "name": "_from",
          "type": "address"
        },
        {
          "indexed": false,
          "internalType": "uint256",
          "name": "_amount",
          "type": "uint256"
        }
      ],
      "name": "Burned",
      "type": "event"
    },
    {
      "anonymous": false,
      "inputs": [
        {
          "indexed": false,
          "internalType": "int256",
          "name": "_old",
          "type": "int256"
        },
        {
          "indexed": false,
          "internalType": "int256",
          "name": "_new",
          "type": "int256"
        }
      ],
      "name": "CParamUpdated",
      "type": "event"
    },
    {
      "anonymous": false,
      "inputs": [
        {
          "indexed": false,
          "internalType": "uint256",
          "name": "_old",
          "type": "uint256"
        },
        {
          "indexed": false,
          "internalType": "uint256",
          "name": "_new",
          "type": "uint256"
        }
      ],
      "name": "GovernanceChainIdentifierUpdated",
      "type": "event"
    },
    {
      "anonymous": false,
      "inputs": [
        {
          "indexed": false,
          "internalType": "uint16",
          "name": "_srcChainId",
          "type": "uint16"
        },
        {
          "indexed": false,
          "internalType": "bytes",
          "name": "_srcAddress",
          "type": "bytes"
        },
        {
          "indexed": false,
          "internalType": "uint64",
          "name": "_nonce",
          "type": "uint64"
        },
        {
          "indexed": false,
          "internalType": "bytes",
          "name": "_payload",
          "type": "bytes"
        },
        {
          "indexed": false,
          "internalType": "bytes",
          "name": "_reason",
          "type": "bytes"
        }
      ],
      "name": "MessageFailed",
      "type": "event"
    },
    {
      "anonymous": false,
      "inputs": [
        {
          "indexed": true,
          "internalType": "address",
          "name": "_by",
          "type": "address"
        },
        {
          "indexed": true,
          "internalType": "address",
          "name": "_to",
          "type": "address"
        },
        {
          "indexed": false,
          "internalType": "uint256",
          "name": "_amount",
          "type": "uint256"
        }
      ],
      "name": "Minted",
      "type": "event"
    },
    {
      "anonymous": false,
      "inputs": [
        {
          "indexed": true,
          "internalType": "address",
          "name": "_old",
          "type": "address"
        },
        {
          "indexed": true,
          "internalType": "address",
          "name": "_new",
          "type": "address"
        }
      ],
      "name": "MinterUpdated",
      "type": "event"
    },
    {
      "anonymous": false,
      "inputs": [
        {
          "indexed": true,
          "internalType": "address",
          "name": "previousOwner",
          "type": "address"
        },
        {
          "indexed": true,
          "internalType": "address",
          "name": "newOwner",
          "type": "address"
        }
      ],
      "name": "OwnershipTransferred",
      "type": "event"
    },
    {
      "anonymous": false,
      "inputs": [
        {
          "indexed": false,
          "internalType": "address",
          "name": "account",
          "type": "address"
        }
      ],
      "name": "Paused",
      "type": "event"
    },
    {
      "anonymous": false,
      "inputs": [
        {
          "indexed": true,
          "internalType": "uint16",
          "name": "_srcChainId",
          "type": "uint16"
        },
        {
          "indexed": false,
          "internalType": "bytes",
          "name": "_fromAddress",
          "type": "bytes"
        },
        {
          "indexed": true,
          "internalType": "address",
          "name": "_to",
          "type": "address"
        },
        {
          "indexed": false,
          "internalType": "uint256",
          "name": "_amount",
          "type": "uint256"
        }
      ],
      "name": "ReceiveFromChain",
      "type": "event"
    },
    {
      "anonymous": false,
      "inputs": [
        {
          "indexed": false,
          "internalType": "uint16",
          "name": "_srcChainId",
          "type": "uint16"
        },
        {
          "indexed": false,
          "internalType": "bytes",
          "name": "_srcAddress",
          "type": "bytes"
        },
        {
          "indexed": false,
          "internalType": "uint64",
          "name": "_nonce",
          "type": "uint64"
        },
        {
          "indexed": false,
          "internalType": "bytes32",
          "name": "_payloadHash",
          "type": "bytes32"
        }
      ],
      "name": "RetryMessageSuccess",
      "type": "event"
    },
    {
      "anonymous": false,
      "inputs": [
        {
          "indexed": true,
          "internalType": "uint16",
          "name": "_dstChainId",
          "type": "uint16"
        },
        {
          "indexed": true,
          "internalType": "address",
          "name": "_from",
          "type": "address"
        },
        {
          "indexed": true,
          "internalType": "bytes",
          "name": "_toAddress",
          "type": "bytes"
        },
        {
          "indexed": false,
          "internalType": "uint256",
          "name": "_amount",
          "type": "uint256"
        }
      ],
      "name": "SendToChain",
      "type": "event"
    },
    {
      "anonymous": false,
      "inputs": [
        {
          "indexed": false,
          "internalType": "uint16",
          "name": "_dstChainId",
          "type": "uint16"
        },
        {
          "indexed": false,
          "internalType": "uint16",
          "name": "_type",
          "type": "uint16"
        },
        {
          "indexed": false,
          "internalType": "uint256",
          "name": "_minDstGas",
          "type": "uint256"
        }
      ],
      "name": "SetMinDstGas",
      "type": "event"
    },
    {
      "anonymous": false,
      "inputs": [
        {
          "indexed": false,
          "internalType": "address",
          "name": "precrime",
          "type": "address"
        }
      ],
      "name": "SetPrecrime",
      "type": "event"
    },
    {
      "anonymous": false,
      "inputs": [
        {
          "indexed": false,
          "internalType": "uint16",
          "name": "_remoteChainId",
          "type": "uint16"
        },
        {
          "indexed": false,
          "internalType": "bytes",
          "name": "_path",
          "type": "bytes"
        }
      ],
      "name": "SetTrustedRemote",
      "type": "event"
    },
    {
      "anonymous": false,
      "inputs": [
        {
          "indexed": false,
          "internalType": "uint16",
          "name": "_remoteChainId",
          "type": "uint16"
        },
        {
          "indexed": false,
          "internalType": "bytes",
          "name": "_remoteAddress",
          "type": "bytes"
        }
      ],
      "name": "SetTrustedRemoteAddress",
      "type": "event"
    },
    {
      "anonymous": false,
      "inputs": [
        {
          "indexed": false,
          "internalType": "bool",
          "name": "_useCustomAdapterParams",
          "type": "bool"
        }
      ],
      "name": "SetUseCustomAdapterParams",
      "type": "event"
    },
    {
      "anonymous": false,
      "inputs": [
        {
          "indexed": true,
          "internalType": "address",
          "name": "from",
          "type": "address"
        },
        {
          "indexed": true,
          "internalType": "address",
          "name": "to",
          "type": "address"
        },
        {
          "indexed": false,
          "internalType": "uint256",
          "name": "value",
          "type": "uint256"
        }
      ],
      "name": "Transfer",
      "type": "event"
    },
    {
      "anonymous": false,
      "inputs": [
        {
          "indexed": false,
          "internalType": "address",
          "name": "account",
          "type": "address"
        }
      ],
      "name": "Unpaused",
      "type": "event"
    },
    {
      "anonymous": false,
      "inputs": [
        {
          "indexed": false,
          "internalType": "uint256",
          "name": "_blockTimestmap",
          "type": "uint256"
        },
        {
          "indexed": false,
          "internalType": "uint256",
          "name": "_rate",
          "type": "uint256"
        },
        {
          "indexed": false,
          "internalType": "uint256",
          "name": "_startEpochSupply",
          "type": "uint256"
        }
      ],
      "name": "UpdateMiningParameters",
      "type": "event"
    },
    {
      "inputs": [],
      "name": "INCREASE_AMOUNT",
      "outputs": [
        {
          "internalType": "uint256",
          "name": "",
          "type": "uint256"
        }
      ],
      "stateMutability": "view",
      "type": "function"
    },
    {
      "inputs": [],
      "name": "INITIAL_SUPPLY",
      "outputs": [
        {
          "internalType": "uint256",
          "name": "",
          "type": "uint256"
        }
      ],
      "stateMutability": "view",
      "type": "function"
    },
    {
      "inputs": [],
      "name": "LOCK",
      "outputs": [
        {
          "internalType": "uint256",
          "name": "",
          "type": "uint256"
        }
      ],
      "stateMutability": "view",
      "type": "function"
    },
    {
      "inputs": [],
      "name": "NO_EXTRA_GAS",
      "outputs": [
        {
          "internalType": "uint256",
          "name": "",
          "type": "uint256"
        }
      ],
      "stateMutability": "view",
      "type": "function"
    },
    {
      "inputs": [],
      "name": "PT_SEND",
      "outputs": [
        {
          "internalType": "uint16",
          "name": "",
          "type": "uint16"
        }
      ],
      "stateMutability": "view",
      "type": "function"
    },
    {
      "inputs": [],
      "name": "WEEK",
      "outputs": [
        {
          "internalType": "uint256",
          "name": "",
          "type": "uint256"
        }
      ],
      "stateMutability": "view",
      "type": "function"
    },
    {
      "inputs": [],
      "name": "a_param",
      "outputs": [
        {
          "internalType": "int256",
          "name": "",
          "type": "int256"
        }
      ],
      "stateMutability": "view",
      "type": "function"
    },
    {
      "inputs": [
        {
          "internalType": "address",
          "name": "owner",
          "type": "address"
        },
        {
          "internalType": "address",
          "name": "spender",
          "type": "address"
        }
      ],
      "name": "allowance",
      "outputs": [
        {
          "internalType": "uint256",
          "name": "",
          "type": "uint256"
        }
      ],
      "stateMutability": "view",
      "type": "function"
    },
    {
      "inputs": [
        {
          "internalType": "address",
          "name": "spender",
          "type": "address"
        },
        {
          "internalType": "uint256",
          "name": "amount",
          "type": "uint256"
        }
      ],
      "name": "approve",
      "outputs": [
        {
          "internalType": "bool",
          "name": "",
          "type": "bool"
        }
      ],
      "stateMutability": "nonpayable",
      "type": "function"
    },
    {
      "inputs": [
        {
          "internalType": "uint256",
          "name": "timestamp",
          "type": "uint256"
        }
      ],
      "name": "availableForWeek",
      "outputs": [
        {
          "internalType": "uint256",
          "name": "",
          "type": "uint256"
        }
      ],
      "stateMutability": "view",
      "type": "function"
    },
    {
      "inputs": [],
      "name": "b_param",
      "outputs": [
        {
          "internalType": "int256",
          "name": "",
          "type": "int256"
        }
      ],
      "stateMutability": "view",
      "type": "function"
    },
    {
      "inputs": [
        {
          "internalType": "address",
          "name": "account",
          "type": "address"
        }
      ],
      "name": "balanceOf",
      "outputs": [
        {
          "internalType": "uint256",
          "name": "",
          "type": "uint256"
        }
      ],
      "stateMutability": "view",
      "type": "function"
    },
    {
      "inputs": [],
      "name": "c_param",
      "outputs": [
        {
          "internalType": "int256",
          "name": "",
          "type": "int256"
        }
      ],
      "stateMutability": "view",
      "type": "function"
    },
    {
      "inputs": [],
      "name": "circulatingSupply",
      "outputs": [
        {
          "internalType": "uint256",
          "name": "",
          "type": "uint256"
        }
      ],
      "stateMutability": "view",
      "type": "function"
    },
    {
      "inputs": [],
      "name": "decimals",
      "outputs": [
        {
          "internalType": "uint8",
          "name": "",
          "type": "uint8"
        }
      ],
      "stateMutability": "pure",
      "type": "function"
    },
    {
      "inputs": [
        {
          "internalType": "address",
          "name": "spender",
          "type": "address"
        },
        {
          "internalType": "uint256",
          "name": "subtractedValue",
          "type": "uint256"
        }
      ],
      "name": "decreaseAllowance",
      "outputs": [
        {
          "internalType": "bool",
          "name": "",
          "type": "bool"
        }
      ],
      "stateMutability": "nonpayable",
      "type": "function"
    },
    {
      "inputs": [],
      "name": "emissionsStartTime",
      "outputs": [
        {
          "internalType": "uint256",
          "name": "",
          "type": "uint256"
        }
      ],
      "stateMutability": "view",
      "type": "function"
    },
    {
      "inputs": [
        {
          "internalType": "uint256",
          "name": "timestamp",
          "type": "uint256"
        }
      ],
      "name": "emitForWeek",
      "outputs": [
        {
          "internalType": "uint256",
          "name": "",
          "type": "uint256"
        }
      ],
      "stateMutability": "nonpayable",
      "type": "function"
    },
    {
      "inputs": [
        {
          "internalType": "uint16",
          "name": "_dstChainId",
          "type": "uint16"
        },
        {
          "internalType": "bytes",
          "name": "_toAddress",
          "type": "bytes"
        },
        {
          "internalType": "uint256",
          "name": "_amount",
          "type": "uint256"
        },
        {
          "internalType": "bool",
          "name": "_useZro",
          "type": "bool"
        },
        {
          "internalType": "bytes",
          "name": "_adapterParams",
          "type": "bytes"
        }
      ],
      "name": "estimateSendFee",
      "outputs": [
        {
          "internalType": "uint256",
          "name": "nativeFee",
          "type": "uint256"
        },
        {
          "internalType": "uint256",
          "name": "zroFee",
          "type": "uint256"
        }
      ],
      "stateMutability": "view",
      "type": "function"
    },
    {
      "inputs": [
        {
          "internalType": "address",
          "name": "_to",
          "type": "address"
        },
        {
          "internalType": "uint256",
          "name": "_amount",
          "type": "uint256"
        }
      ],
      "name": "extractTAP",
      "outputs": [],
      "stateMutability": "nonpayable",
      "type": "function"
    },
    {
      "inputs": [
        {
          "internalType": "uint16",
          "name": "",
          "type": "uint16"
        },
        {
          "internalType": "bytes",
          "name": "",
          "type": "bytes"
        },
        {
          "internalType": "uint64",
          "name": "",
          "type": "uint64"
        }
      ],
      "name": "failedMessages",
      "outputs": [
        {
          "internalType": "bytes32",
          "name": "",
          "type": "bytes32"
        }
      ],
      "stateMutability": "view",
      "type": "function"
    },
    {
      "inputs": [
        {
          "internalType": "uint16",
          "name": "_srcChainId",
          "type": "uint16"
        },
        {
          "internalType": "bytes",
          "name": "_srcAddress",
          "type": "bytes"
        }
      ],
      "name": "forceResumeReceive",
      "outputs": [],
      "stateMutability": "nonpayable",
      "type": "function"
    },
    {
      "inputs": [
        {
          "internalType": "uint16",
          "name": "_version",
          "type": "uint16"
        },
        {
          "internalType": "uint16",
          "name": "_chainId",
          "type": "uint16"
        },
        {
          "internalType": "address",
          "name": "",
          "type": "address"
        },
        {
          "internalType": "uint256",
          "name": "_configType",
          "type": "uint256"
        }
      ],
      "name": "getConfig",
      "outputs": [
        {
          "internalType": "bytes",
          "name": "",
          "type": "bytes"
        }
      ],
      "stateMutability": "view",
      "type": "function"
    },
    {
      "inputs": [
        {
          "internalType": "uint16",
          "name": "_remoteChainId",
          "type": "uint16"
        }
      ],
      "name": "getTrustedRemoteAddress",
      "outputs": [
        {
          "internalType": "bytes",
          "name": "",
          "type": "bytes"
        }
      ],
      "stateMutability": "view",
      "type": "function"
    },
    {
      "inputs": [],
      "name": "governanceChainIdentifier",
      "outputs": [
        {
          "internalType": "uint256",
          "name": "",
          "type": "uint256"
        }
      ],
      "stateMutability": "view",
      "type": "function"
    },
    {
      "inputs": [
        {
          "internalType": "address",
          "name": "spender",
          "type": "address"
        },
        {
          "internalType": "uint256",
          "name": "addedValue",
          "type": "uint256"
        }
      ],
      "name": "increaseAllowance",
      "outputs": [
        {
          "internalType": "bool",
          "name": "",
          "type": "bool"
        }
      ],
      "stateMutability": "nonpayable",
      "type": "function"
    },
    {
      "inputs": [
        {
          "internalType": "uint16",
          "name": "_srcChainId",
          "type": "uint16"
        },
        {
          "internalType": "bytes",
          "name": "_srcAddress",
          "type": "bytes"
        }
      ],
      "name": "isTrustedRemote",
      "outputs": [
        {
          "internalType": "bool",
          "name": "",
          "type": "bool"
        }
      ],
      "stateMutability": "view",
      "type": "function"
    },
    {
      "inputs": [],
      "name": "lzEndpoint",
      "outputs": [
        {
          "internalType": "contract ILayerZeroEndpoint",
          "name": "",
          "type": "address"
        }
      ],
      "stateMutability": "view",
      "type": "function"
    },
    {
      "inputs": [
        {
          "internalType": "uint16",
          "name": "_srcChainId",
          "type": "uint16"
        },
        {
          "internalType": "bytes",
          "name": "_srcAddress",
          "type": "bytes"
        },
        {
          "internalType": "uint64",
          "name": "_nonce",
          "type": "uint64"
        },
        {
          "internalType": "bytes",
          "name": "_payload",
          "type": "bytes"
        }
      ],
      "name": "lzReceive",
      "outputs": [],
      "stateMutability": "nonpayable",
      "type": "function"
    },
    {
      "inputs": [
        {
          "internalType": "uint16",
          "name": "",
          "type": "uint16"
        },
        {
          "internalType": "uint16",
          "name": "",
          "type": "uint16"
        }
      ],
      "name": "minDstGasLookup",
      "outputs": [
        {
          "internalType": "uint256",
          "name": "",
          "type": "uint256"
        }
      ],
      "stateMutability": "view",
      "type": "function"
    },
    {
      "inputs": [
        {
          "internalType": "int256",
          "name": "",
          "type": "int256"
        }
      ],
      "name": "mintedInWeek",
      "outputs": [
        {
          "internalType": "uint256",
          "name": "",
          "type": "uint256"
        }
      ],
      "stateMutability": "view",
      "type": "function"
    },
    {
      "inputs": [],
      "name": "minter",
      "outputs": [
        {
          "internalType": "address",
          "name": "",
          "type": "address"
        }
      ],
      "stateMutability": "view",
      "type": "function"
    },
    {
      "inputs": [],
      "name": "name",
      "outputs": [
        {
          "internalType": "string",
          "name": "",
          "type": "string"
        }
      ],
      "stateMutability": "view",
      "type": "function"
    },
    {
      "inputs": [
        {
          "internalType": "uint16",
          "name": "_srcChainId",
          "type": "uint16"
        },
        {
          "internalType": "bytes",
          "name": "_srcAddress",
          "type": "bytes"
        },
        {
          "internalType": "uint64",
          "name": "_nonce",
          "type": "uint64"
        },
        {
          "internalType": "bytes",
          "name": "_payload",
          "type": "bytes"
        }
      ],
      "name": "nonblockingLzReceive",
      "outputs": [],
      "stateMutability": "nonpayable",
      "type": "function"
    },
    {
      "inputs": [],
      "name": "owner",
      "outputs": [
        {
          "internalType": "address",
          "name": "",
          "type": "address"
        }
      ],
      "stateMutability": "view",
      "type": "function"
    },
    {
      "inputs": [
        {
          "internalType": "bool",
          "name": "pause",
          "type": "bool"
        }
      ],
      "name": "pauseSendTokens",
      "outputs": [],
      "stateMutability": "nonpayable",
      "type": "function"
    },
    {
      "inputs": [],
      "name": "paused",
      "outputs": [
        {
          "internalType": "bool",
          "name": "",
          "type": "bool"
        }
      ],
      "stateMutability": "view",
      "type": "function"
    },
    {
      "inputs": [],
      "name": "precrime",
      "outputs": [
        {
          "internalType": "address",
          "name": "",
          "type": "address"
        }
      ],
      "stateMutability": "view",
      "type": "function"
    },
    {
      "inputs": [
        {
          "internalType": "address",
          "name": "_from",
          "type": "address"
        },
        {
          "internalType": "uint256",
          "name": "_amount",
          "type": "uint256"
        }
      ],
      "name": "removeTAP",
      "outputs": [],
      "stateMutability": "nonpayable",
      "type": "function"
    },
    {
      "inputs": [],
      "name": "renounceOwnership",
      "outputs": [],
      "stateMutability": "nonpayable",
      "type": "function"
    },
    {
      "inputs": [
        {
          "internalType": "uint16",
          "name": "_srcChainId",
          "type": "uint16"
        },
        {
          "internalType": "bytes",
          "name": "_srcAddress",
          "type": "bytes"
        },
        {
          "internalType": "uint64",
          "name": "_nonce",
          "type": "uint64"
        },
        {
          "internalType": "bytes",
          "name": "_payload",
          "type": "bytes"
        }
      ],
      "name": "retryMessage",
      "outputs": [],
      "stateMutability": "payable",
      "type": "function"
    },
    {
      "inputs": [
        {
          "internalType": "address",
          "name": "_from",
          "type": "address"
        },
        {
          "internalType": "uint16",
          "name": "_dstChainId",
          "type": "uint16"
        },
        {
          "internalType": "bytes",
          "name": "_toAddress",
          "type": "bytes"
        },
        {
          "internalType": "uint256",
          "name": "_amount",
          "type": "uint256"
        },
        {
          "internalType": "address payable",
          "name": "_refundAddress",
          "type": "address"
        },
        {
          "internalType": "address",
          "name": "_zroPaymentAddress",
          "type": "address"
        },
        {
          "internalType": "bytes",
          "name": "_adapterParams",
          "type": "bytes"
        }
      ],
      "name": "sendFrom",
      "outputs": [],
      "stateMutability": "payable",
      "type": "function"
    },
    {
      "inputs": [
        {
          "internalType": "int256",
          "name": "val",
          "type": "int256"
        }
      ],
      "name": "setAParam",
      "outputs": [],
      "stateMutability": "nonpayable",
      "type": "function"
    },
    {
      "inputs": [
        {
          "internalType": "int256",
          "name": "val",
          "type": "int256"
        }
      ],
      "name": "setBParam",
      "outputs": [],
      "stateMutability": "nonpayable",
      "type": "function"
    },
    {
      "inputs": [
        {
          "internalType": "int256",
          "name": "val",
          "type": "int256"
        }
      ],
      "name": "setCParam",
      "outputs": [],
      "stateMutability": "nonpayable",
      "type": "function"
    },
    {
      "inputs": [
        {
          "internalType": "uint16",
          "name": "_version",
          "type": "uint16"
        },
        {
          "internalType": "uint16",
          "name": "_chainId",
          "type": "uint16"
        },
        {
          "internalType": "uint256",
          "name": "_configType",
          "type": "uint256"
        },
        {
          "internalType": "bytes",
          "name": "_config",
          "type": "bytes"
        }
      ],
      "name": "setConfig",
      "outputs": [],
      "stateMutability": "nonpayable",
      "type": "function"
    },
    {
      "inputs": [
        {
          "internalType": "uint256",
          "name": "_identifier",
          "type": "uint256"
        }
      ],
      "name": "setGovernanceChainIdentifier",
      "outputs": [],
      "stateMutability": "nonpayable",
      "type": "function"
    },
    {
      "inputs": [
        {
          "internalType": "uint16",
          "name": "_dstChainId",
          "type": "uint16"
        },
        {
          "internalType": "uint16",
          "name": "_packetType",
          "type": "uint16"
        },
        {
          "internalType": "uint256",
          "name": "_minGas",
          "type": "uint256"
        }
      ],
      "name": "setMinDstGas",
      "outputs": [],
      "stateMutability": "nonpayable",
      "type": "function"
    },
    {
      "inputs": [
        {
          "internalType": "address",
          "name": "_minter",
          "type": "address"
        }
      ],
      "name": "setMinter",
      "outputs": [],
      "stateMutability": "nonpayable",
      "type": "function"
    },
    {
      "inputs": [
        {
          "internalType": "address",
          "name": "_precrime",
          "type": "address"
        }
      ],
      "name": "setPrecrime",
      "outputs": [],
      "stateMutability": "nonpayable",
      "type": "function"
    },
    {
      "inputs": [
        {
          "internalType": "uint16",
          "name": "_version",
          "type": "uint16"
        }
      ],
      "name": "setReceiveVersion",
      "outputs": [],
      "stateMutability": "nonpayable",
      "type": "function"
    },
    {
      "inputs": [
        {
          "internalType": "uint16",
          "name": "_version",
          "type": "uint16"
        }
      ],
      "name": "setSendVersion",
      "outputs": [],
      "stateMutability": "nonpayable",
      "type": "function"
    },
    {
      "inputs": [
        {
          "internalType": "uint16",
          "name": "_srcChainId",
          "type": "uint16"
        },
        {
          "internalType": "bytes",
          "name": "_path",
          "type": "bytes"
        }
      ],
      "name": "setTrustedRemote",
      "outputs": [],
      "stateMutability": "nonpayable",
      "type": "function"
    },
    {
      "inputs": [
        {
          "internalType": "uint16",
          "name": "_remoteChainId",
          "type": "uint16"
        },
        {
          "internalType": "bytes",
          "name": "_remoteAddress",
          "type": "bytes"
        }
      ],
      "name": "setTrustedRemoteAddress",
      "outputs": [],
      "stateMutability": "nonpayable",
      "type": "function"
    },
    {
      "inputs": [
        {
          "internalType": "bool",
          "name": "_useCustomAdapterParams",
          "type": "bool"
        }
      ],
      "name": "setUseCustomAdapterParams",
      "outputs": [],
      "stateMutability": "nonpayable",
      "type": "function"
    },
    {
      "inputs": [
        {
          "internalType": "bytes4",
          "name": "interfaceId",
          "type": "bytes4"
        }
      ],
      "name": "supportsInterface",
      "outputs": [
        {
          "internalType": "bool",
          "name": "",
          "type": "bool"
        }
      ],
      "stateMutability": "view",
      "type": "function"
    },
    {
      "inputs": [],
      "name": "symbol",
      "outputs": [
        {
          "internalType": "string",
          "name": "",
          "type": "string"
        }
      ],
      "stateMutability": "view",
      "type": "function"
    },
    {
      "inputs": [],
      "name": "totalSupply",
      "outputs": [
        {
          "internalType": "uint256",
          "name": "",
          "type": "uint256"
        }
      ],
      "stateMutability": "view",
      "type": "function"
    },
    {
      "inputs": [
        {
          "internalType": "address",
          "name": "to",
          "type": "address"
        },
        {
          "internalType": "uint256",
          "name": "amount",
          "type": "uint256"
        }
      ],
      "name": "transfer",
      "outputs": [
        {
          "internalType": "bool",
          "name": "",
          "type": "bool"
        }
      ],
      "stateMutability": "nonpayable",
      "type": "function"
    },
    {
      "inputs": [
        {
          "internalType": "address",
          "name": "from",
          "type": "address"
        },
        {
          "internalType": "address",
          "name": "to",
          "type": "address"
        },
        {
          "internalType": "uint256",
          "name": "amount",
          "type": "uint256"
        }
      ],
      "name": "transferFrom",
      "outputs": [
        {
          "internalType": "bool",
          "name": "",
          "type": "bool"
        }
      ],
      "stateMutability": "nonpayable",
      "type": "function"
    },
    {
      "inputs": [
        {
          "internalType": "address",
          "name": "newOwner",
          "type": "address"
        }
      ],
      "name": "transferOwnership",
      "outputs": [],
      "stateMutability": "nonpayable",
      "type": "function"
    },
    {
      "inputs": [
        {
          "internalType": "uint16",
          "name": "",
          "type": "uint16"
        }
      ],
      "name": "trustedRemoteLookup",
      "outputs": [
        {
          "internalType": "bytes",
          "name": "",
          "type": "bytes"
        }
      ],
      "stateMutability": "view",
      "type": "function"
    },
    {
      "inputs": [],
      "name": "useCustomAdapterParams",
      "outputs": [
        {
          "internalType": "bool",
          "name": "",
          "type": "bool"
        }
      ],
      "stateMutability": "view",
      "type": "function"
    }
  ],
  "transactionHash": "0x5c5960221731a65398b062f602cec71659134d14baeffed0dd6a27b518b7fa9a",
  "args": [
    "0xf69186dfBa60DdB133E91E9A4B5673624293d8F8",
    "0x40282d3Cf4890D9806BC1853e97a59C93D813653",
    "0x40282d3Cf4890D9806BC1853e97a59C93D813653",
    "0x40282d3Cf4890D9806BC1853e97a59C93D813653",
    "0x40282d3Cf4890D9806BC1853e97a59C93D813653",
    "0x40282d3Cf4890D9806BC1853e97a59C93D813653",
    "0x40282d3Cf4890D9806BC1853e97a59C93D813653",
    "421613"
  ],
  "numDeployments": 1,
  "solcInputHash": "9f2e9021aad57d061f2157cc93667f67",
  "bytecode": "0x60c060405268014d1120d7b1600000600c55610b43600d556733590a6584f20000600e553480156200003057600080fd5b50604051620052e8380380620052e883398101604081905262000053916200046a565b60405180604001604052806007815260200166546170696f636160c81b8152506040518060400160405280600381526020016205441560ec1b815250898282828282828080620000b2620000ac6200026e60201b60201c565b62000272565b6001600160a01b031660805250508151620000d5906009906020850190620003a7565b508051620000eb90600a906020840190620003a7565b5050600b805460ff1916905550505050506001600160a01b038a16151591506200015e90505760405162461bcd60e51b815260206004820152601560248201527f4c5a20656e64706f696e74206e6f742076616c6964000000000000000000000060448201526064015b60405180910390fd5b6011819055804614156200025b5762000183876a0c685fa11e01ec6f000000620002c2565b6200019a866a034f086f3b33b684000000620002c2565b620001b1856a341cc4d7e46e7a9f000000620002c2565b620001c8846a069e10de76676d08000000620002c2565b620001df836a0422ca8b0a00a425000000620002c2565b620001f6826a0422ca8b0a00a425000000620002c2565b6a52b7d2dcc80cd2e40000006200020c60085490565b146200025b5760405162461bcd60e51b815260206004820152601860248201527f696e697469616c20737570706c79206e6f742076616c69640000000000000000604482015260640162000155565b50504260a052506200056d945050505050565b3390565b600080546001600160a01b038381166001600160a01b0319831681178455604051919092169283917f8be0079c531659141344cd1fd0a4f28419497f9722a3daafe3b4186f6b6457e09190a35050565b6001600160a01b0382166200031a5760405162461bcd60e51b815260206004820152601f60248201527f45524332303a206d696e7420746f20746865207a65726f206164647265737300604482015260640162000155565b80600860008282546200032e919062000509565b90915550506001600160a01b038216600090815260066020526040812080548392906200035d90849062000509565b90915550506040518181526001600160a01b038316906000907fddf252ad1be2c89b69c2b068fc378daa952ba7f163c4a11628f55a4df523b3ef9060200160405180910390a35050565b828054620003b59062000530565b90600052602060002090601f016020900481019282620003d9576000855562000424565b82601f10620003f457805160ff191683800117855562000424565b8280016001018555821562000424579182015b828111156200042457825182559160200191906001019062000407565b506200043292915062000436565b5090565b5b8082111562000432576000815560010162000437565b80516001600160a01b03811681146200046557600080fd5b919050565b600080600080600080600080610100898b0312156200048857600080fd5b62000493896200044d565b9750620004a360208a016200044d565b9650620004b360408a016200044d565b9550620004c360608a016200044d565b9450620004d360808a016200044d565b9350620004e360a08a016200044d565b9250620004f360c08a016200044d565b915060e089015190509295985092959890939650565b600082198211156200052b57634e487b7160e01b600052601160045260246000fd5b500190565b600181811c908216806200054557607f821691505b602082108114156200056757634e487b7160e01b600052602260045260246000fd5b50919050565b60805160a051614d01620005e7600039600081816105b90152818161154d0152818161158601528181611ded0152611eb20152600081816108fc01528181610b5101528181610e7001528181610f1101528181610fd00152818161117c01528181611943015281816120300152612eaa0152614d016000f3fe6080604052600436106103375760003560e01c80638cfd8f5c116101b2578063cbed8b9c116100ed578063ece4b2ed11610090578063ece4b2ed14610a5d578063ed629c5c14610a7d578063f187892214610a97578063f2fde38b14610ab7578063f4359ce514610ad7578063f5ecbdbc14610aee578063fb98faf414610b0e578063fca3b5aa14610b2e57600080fd5b8063cbed8b9c14610974578063d1deba1f14610994578063d4d69bde146109a7578063dd62ed3e146109c7578063de684143146109e7578063df2a5b3b146109fd578063eab45d9c14610a1d578063eb8d72b714610a3d57600080fd5b8063a4f0d7d011610155578063a4f0d7d014610875578063a6c3d1651461088a578063a70006aa146108aa578063a9059cbb146108ca578063b353aaa7146108ea578063baf3292d1461091e578063be6138ee1461093e578063c0c6caf71461095e57600080fd5b80638cfd8f5c146107685780638da5cb5b146107a05780639358928b146107be57806394cefb67146107d3578063950c8a741461080057806395d89b41146108205780639f38369a14610835578063a457c2d71461085557600080fd5b80633d8b38f6116102825780635b8c41e6116102255780635b8c41e6146106365780635c975abb1461068557806366ad5c8a1461069d57806370a08231146106bd578063715018a6146106f35780637533d788146107085780637f8a3576146107285780638739b76b1461074857600080fd5b80633d8b38f61461053c57806341e0d2411461055c57806342d65a8d14610572578063447705151461059257806348b0daa6146105a75780634c42899a146105db5780634eb8c30814610603578063519056361461062357600080fd5b806318160ddd116102ea57806318160ddd146104425780631fabf9dd1461046157806323b872dd1461047657806328d7eb97146104965780632a205e3d146104ac5780632ff2e9dc146104e1578063313ce56714610500578063395093511461051c57600080fd5b80621d35671461033c57806301ffc9a71461035e57806306fdde031461039357806307546172146103b557806307e0db17146103e2578063095ea7b31461040257806310ddb13714610422575b600080fd5b34801561034857600080fd5b5061035c610357366004614068565b610b4e565b005b34801561036a57600080fd5b5061037e6103793660046140fd565b610d7f565b60405190151581526020015b60405180910390f35b34801561039f57600080fd5b506103a8610dbd565b60405161038a919061417f565b3480156103c157600080fd5b506010546103d5906001600160a01b031681565b60405161038a9190614192565b3480156103ee57600080fd5b5061035c6103fd3660046141a6565b610e4f565b34801561040e57600080fd5b5061037e61041d3660046141d8565b610ed8565b34801561042e57600080fd5b5061035c61043d3660046141a6565b610ef0565b34801561044e57600080fd5b506008545b60405190815260200161038a565b34801561046d57600080fd5b50610453600b81565b34801561048257600080fd5b5061037e610491366004614204565b610f48565b3480156104a257600080fd5b5061045360115481565b3480156104b857600080fd5b506104cc6104c7366004614255565b610f6e565b6040805192835260208301919091520161038a565b3480156104ed57600080fd5b506104536a52b7d2dcc80cd2e400000081565b34801561050c57600080fd5b506040516012815260200161038a565b34801561052857600080fd5b5061037e6105373660046141d8565b61106f565b34801561054857600080fd5b5061037e6105573660046142f4565b611091565b34801561056857600080fd5b50610453600d5481565b34801561057e57600080fd5b5061035c61058d3660046142f4565b61115d565b34801561059e57600080fd5b50610453600081565b3480156105b357600080fd5b506104537f000000000000000000000000000000000000000000000000000000000000000081565b3480156105e757600080fd5b506105f0600081565b60405161ffff909116815260200161038a565b34801561060f57600080fd5b5061035c61061e3660046141d8565b6111e3565b61035c610631366004614348565b6112d8565b34801561064257600080fd5b5061045361065136600461447e565b6004602090815260009384526040808520845180860184018051928152908401958401959095209452929052825290205481565b34801561069157600080fd5b50600b5460ff1661037e565b3480156106a957600080fd5b5061035c6106b8366004614068565b61135d565b3480156106c957600080fd5b506104536106d8366004614520565b6001600160a01b031660009081526006602052604090205490565b3480156106ff57600080fd5b5061035c611439565b34801561071457600080fd5b506103a86107233660046141a6565b61144d565b34801561073457600080fd5b5061035c61074336600461453d565b6114e7565b34801561075457600080fd5b5061045361076336600461453d565b611530565b34801561077457600080fd5b50610453610783366004614556565b600260209081526000928352604080842090915290825290205481565b3480156107ac57600080fd5b506000546001600160a01b03166103d5565b3480156107ca57600080fd5b506104536115de565b3480156107df57600080fd5b506104536107ee36600461453d565b600f6020526000908152604090205481565b34801561080c57600080fd5b506003546103d5906001600160a01b031681565b34801561082c57600080fd5b506103a86115ee565b34801561084157600080fd5b506103a86108503660046141a6565b6115fd565b34801561086157600080fd5b5061037e6108703660046141d8565b61170d565b34801561088157600080fd5b50610453600a81565b34801561089657600080fd5b5061035c6108a53660046142f4565b611793565b3480156108b657600080fd5b5061035c6108c536600461453d565b611826565b3480156108d657600080fd5b5061037e6108e53660046141d8565b61186f565b3480156108f657600080fd5b506103d57f000000000000000000000000000000000000000000000000000000000000000081565b34801561092a57600080fd5b5061035c610939366004614520565b61187d565b34801561094a57600080fd5b5061035c61095936600461453d565b6118db565b34801561096a57600080fd5b50610453600e5481565b34801561098057600080fd5b5061035c61098f36600461458f565b611924565b61035c6109a2366004614068565b6119ae565b3480156109b357600080fd5b5061035c6109c23660046141d8565b611bc4565b3480156109d357600080fd5b506104536109e2366004614601565b611c5a565b3480156109f357600080fd5b50610453600c5481565b348015610a0957600080fd5b5061035c610a1836600461462f565b611c85565b348015610a2957600080fd5b5061035c610a3836600461465f565b611d37565b348015610a4957600080fd5b5061035c610a583660046142f4565b611d80565b348015610a6957600080fd5b50610453610a7836600461453d565b611dda565b348015610a8957600080fd5b5060055461037e9060ff1681565b348015610aa357600080fd5b5061035c610ab236600461465f565b611f69565b348015610ac357600080fd5b5061035c610ad2366004614520565b611f89565b348015610ae357600080fd5b5061045362093a8081565b348015610afa57600080fd5b506103a8610b0936600461467a565b611fff565b348015610b1a57600080fd5b5061035c610b2936600461453d565b6120bf565b348015610b3a57600080fd5b5061035c610b49366004614520565b612108565b337f00000000000000000000000000000000000000000000000000000000000000006001600160a01b031614610bcb5760405162461bcd60e51b815260206004820152601e60248201527f4c7a4170703a20696e76616c696420656e64706f696e742063616c6c6572000060448201526064015b60405180910390fd5b61ffff861660009081526001602052604081208054610be9906146cb565b80601f0160208091040260200160405190810160405280929190818152602001828054610c15906146cb565b8015610c625780601f10610c3757610100808354040283529160200191610c62565b820191906000526020600020905b815481529060010190602001808311610c4557829003601f168201915b50505050509050805186869050148015610c7d575060008151115b8015610ca5575080516020820120604051610c9b9088908890614706565b6040518091039020145b610d005760405162461bcd60e51b815260206004820152602660248201527f4c7a4170703a20696e76616c696420736f757263652073656e64696e6720636f6044820152651b9d1c9858dd60d21b6064820152608401610bc2565b610d768787878080601f01602080910402602001604051908101604052809392919081815260200183838082843760009201919091525050604080516020601f8a018190048102820181019092528881528a9350915088908890819084018382808284376000920191909152506121b692505050565b50505050505050565b60006001600160e01b031982161580610da857506001600160e01b031982166336372b0760e01b145b80610db75750610db7826122c0565b92915050565b606060098054610dcc906146cb565b80601f0160208091040260200160405190810160405280929190818152602001828054610df8906146cb565b8015610e455780601f10610e1a57610100808354040283529160200191610e45565b820191906000526020600020905b815481529060010190602001808311610e2857829003601f168201915b5050505050905090565b610e576122f5565b6040516307e0db1760e01b815261ffff821660048201527f00000000000000000000000000000000000000000000000000000000000000006001600160a01b0316906307e0db17906024015b600060405180830381600087803b158015610ebd57600080fd5b505af1158015610ed1573d6000803e3d6000fd5b5050505050565b600033610ee681858561234f565b5060019392505050565b610ef86122f5565b6040516310ddb13760e01b815261ffff821660048201527f00000000000000000000000000000000000000000000000000000000000000006001600160a01b0316906310ddb13790602401610ea3565b600033610f56858285612473565b610f618585856124ed565b60019150505b9392505050565b60008060008033604051602001610f859190614716565b60408051601f1981840301815290829052610fa992918c908c908c90602001614757565b60408051601f198184030181529082905263040a7bb160e41b825291506001600160a01b037f000000000000000000000000000000000000000000000000000000000000000016906340a7bb109061100f908d90309086908c908c908c9060040161479a565b604080518083038186803b15801561102657600080fd5b505afa15801561103a573d6000803e3d6000fd5b505050506040513d601f19601f8201168201806040525081019061105e91906147f0565b925092505097509795505050505050565b600033610ee68185856110828383611c5a565b61108c919061482a565b61234f565b61ffff8316600090815260016020526040812080548291906110b2906146cb565b80601f01602080910402602001604051908101604052809291908181526020018280546110de906146cb565b801561112b5780601f106111005761010080835404028352916020019161112b565b820191906000526020600020905b81548152906001019060200180831161110e57829003601f168201915b505050505090508383604051611142929190614706565b60405180910390208180519060200120149150509392505050565b6111656122f5565b6040516342d65a8d60e01b81526001600160a01b037f000000000000000000000000000000000000000000000000000000000000000016906342d65a8d906111b590869086908690600401614842565b600060405180830381600087803b1580156111cf57600080fd5b505af1158015610d76573d6000803e3d6000fd5b6111eb6126a9565b6010546001600160a01b031633148061120e57506000546001600160a01b031633145b61122a5760405162461bcd60e51b8152600401610bc290614860565b6000811161126d5760405162461bcd60e51b815260206004820152601060248201526f185b5bdd5b9d081b9bdd081d985b1a5960821b6044820152606401610bc2565b30600090815260066020526040902054818110156112c85760405162461bcd60e51b8152602060048201526018602482015277195e18d959591cc8185b1b1bddd8589b1948185b5bdd5b9d60421b6044820152606401610bc2565b6112d33084846124ed565b505050565b611352898989898080601f01602080910402602001604051908101604052809392919081815260200183838082843760009201919091525050604080516020601f8a018190048102820181019092528881528c93508b92508a918a908a90819084018382808284376000920191909152506126ef92505050565b505050505050505050565b3330146113bb5760405162461bcd60e51b815260206004820152602660248201527f4e6f6e626c6f636b696e674c7a4170703a2063616c6c6572206d7573742062656044820152650204c7a4170760d41b6064820152608401610bc2565b6114318686868080601f01602080910402602001604051908101604052809392919081815260200183838082843760009201919091525050604080516020601f8901819004810282018101909252878152899350915087908790819084018382808284376000920191909152506127c692505050565b505050505050565b6114416122f5565b61144b600061282d565b565b60016020526000908152604090208054611466906146cb565b80601f0160208091040260200160405190810160405280929190818152602001828054611492906146cb565b80156114df5780601f106114b4576101008083540402835291602001916114df565b820191906000526020600020905b8154815290600101906020018083116114c257829003601f168201915b505050505081565b6114ef6122f5565b600c5460408051918252602082018390527ff73c67caf0195801ce0f03d2c5b8d9c5216decc3a69e6fec1386e49dd94db6bb910160405180910390a1600c55565b60004282111561154257506000919050565b8161154b574291505b7f000000000000000000000000000000000000000000000000000000000000000082101561157b57506000919050565b600062093a806115ab7f000000000000000000000000000000000000000000000000000000000000000085614886565b6115b591906148b3565b6000818152600f6020526040902054909150156115d55750600092915050565b610f678161287d565b60006115e960085490565b905090565b6060600a8054610dcc906146cb565b61ffff8116600090815260016020526040812080546060929190611620906146cb565b80601f016020809104026020016040519081016040528092919081815260200182805461164c906146cb565b80156116995780601f1061166e57610100808354040283529160200191611699565b820191906000526020600020905b81548152906001019060200180831161167c57829003601f168201915b505050505090508051600014156116f25760405162461bcd60e51b815260206004820152601d60248201527f4c7a4170703a206e6f20747275737465642070617468207265636f72640000006044820152606401610bc2565b610f676000601483516117059190614886565b8391906128db565b6000338161171b8286611c5a565b90508381101561177b5760405162461bcd60e51b815260206004820152602560248201527f45524332303a2064656372656173656420616c6c6f77616e63652062656c6f77604482015264207a65726f60d81b6064820152608401610bc2565b611788828686840361234f565b506001949350505050565b61179b6122f5565b8181306040516020016117b0939291906148d5565b60408051601f1981840301815291815261ffff851660009081526001602090815291902082516117e593919290910190613eec565b507f8c0400cfe2d1199b1a725c78960bcc2a344d869b80590d0f2bd005db15a572ce83838360405161181993929190614842565b60405180910390a1505050565b61182e6122f5565b600d5460408051918252602082018390527f3d63d8a356ba2c42f5d0f40d1a69f6f879780a3042e1d3501984408e4f93980f910160405180910390a1600d55565b600033610ee68185856124ed565b6118856122f5565b600380546001600160a01b0319166001600160a01b0383161790556040517f5db758e995a17ec1ad84bdef7e8c3293a0bd6179bcce400dff5d4c3d87db726b906118d0908390614192565b60405180910390a150565b6118e36122f5565b600e5460408051918252602082018390527f1f12352d3bf57d77a20ef7b688f2f8d32f2977eab4004cfa0dd46ce9b77144fd910160405180910390a1600e55565b61192c6122f5565b6040516332fb62e760e21b81526001600160a01b037f0000000000000000000000000000000000000000000000000000000000000000169063cbed8b9c9061198090889088908890889088906004016148f6565b600060405180830381600087803b15801561199a57600080fd5b505af1158015611352573d6000803e3d6000fd5b61ffff861660009081526004602052604080822090516119d19088908890614706565b90815260408051602092819003830190206001600160401b03871660009081529252902054905080611a515760405162461bcd60e51b815260206004820152602360248201527f4e6f6e626c6f636b696e674c7a4170703a206e6f2073746f726564206d65737360448201526261676560e81b6064820152608401610bc2565b808383604051611a62929190614706565b604051809103902014611ac15760405162461bcd60e51b815260206004820152602160248201527f4e6f6e626c6f636b696e674c7a4170703a20696e76616c6964207061796c6f616044820152601960fa1b6064820152608401610bc2565b61ffff87166000908152600460205260408082209051611ae49089908990614706565b90815260408051602092819003830181206001600160401b038916600090815290845282902093909355601f88018290048202830182019052868252611b7c918991899089908190840183828082843760009201919091525050604080516020601f8a018190048102820181019092528881528a9350915088908890819084018382808284376000920191909152506127c692505050565b7fc264d91f3adc5588250e1551f547752ca0cfa8f6b530d243b9f9f4cab10ea8e58787878785604051611bb395949392919061492f565b60405180910390a150505050505050565b611bcc6126a9565b6010546001600160a01b0316331480611bef57506000546001600160a01b031633145b611c0b5760405162461bcd60e51b8152600401610bc290614860565b611c1582826129e8565b6040518181526001600160a01b0383169033907f6ab368f832c266c8eb942b84fbcaa20aedc24a699d2a05fae2568028733b1d09906020015b60405180910390a35050565b6001600160a01b03918216600090815260076020908152604080832093909416825291909152205490565b611c8d6122f5565b60008111611cd55760405162461bcd60e51b81526020600482015260156024820152744c7a4170703a20696e76616c6964206d696e47617360581b6044820152606401610bc2565b61ffff83811660008181526002602090815260408083209487168084529482529182902085905581519283528201929092529081018290527f9d5c7c0b934da8fefa9c7760c98383778a12dfbfc0c3b3106518f43fb9508ac090606001611819565b611d3f6122f5565b6005805460ff19168215159081179091556040519081527f1584ad594a70cbe1e6515592e1272a987d922b097ead875069cebe8b40c004a4906020016118d0565b611d886122f5565b61ffff83166000908152600160205260409020611da6908383613f70565b507ffa41487ad5d6728f0b19276fa1eddc16558578f5109fc39d2dc33c3230470dab83838360405161181993929190614842565b6000611de46126a9565b8115611e6057817f0000000000000000000000000000000000000000000000000000000000000000108015611e195750428211155b611e5b5760405162461bcd60e51b81526020600482015260136024820152721d1a5b595cdd185b5c081b9bdd081d985b1a59606a1b6044820152606401610bc2565b611e64565b4291505b6011544614611ea75760405162461bcd60e51b815260206004820152600f60248201526e18da185a5b881b9bdd081d985b1a59608a1b6044820152606401610bc2565b600062093a80611ed77f000000000000000000000000000000000000000000000000000000000000000085614886565b611ee191906148b3565b6000818152600f602052604090205490915015611f015750600092915050565b6000611f0c8261287d565b6000838152600f602052604090208190559050611f293082612b24565b604051818152309033907f9d228d69b5fdb8d273a2336f8fb8612d039631024ea9bf09c424a9503aa078f09060200160405180910390a39150505b919050565b611f716122f5565b80611f8157611f7e612bea565b50565b611f7e612c36565b611f916122f5565b6001600160a01b038116611ff65760405162461bcd60e51b815260206004820152602660248201527f4f776e61626c653a206e6577206f776e657220697320746865207a65726f206160448201526564647265737360d01b6064820152608401610bc2565b611f7e8161282d565b604051633d7b2f6f60e21b815261ffff808616600483015284166024820152306044820152606481018290526060907f00000000000000000000000000000000000000000000000000000000000000006001600160a01b03169063f5ecbdbc9060840160006040518083038186803b15801561207a57600080fd5b505afa15801561208e573d6000803e3d6000fd5b505050506040513d6000823e601f3d908101601f191682016040526120b691908101906149af565b95945050505050565b6120c76122f5565b60115460408051918252602082018390527fffaac11a2568645519512c4cc04c5052f579642fd6e2236b58ced0451e215dc4910160405180910390a1601155565b6121106122f5565b6001600160a01b03811661215a5760405162461bcd60e51b81526020600482015260116024820152701859191c995cdcc81b9bdd081d985b1a59607a1b6044820152606401610bc2565b6010546040516001600160a01b038084169216907f1cf2de25c5bf439ac0287061c3a0fa69b3b02867d0ccfd2ded34e42577050b7390600090a3601080546001600160a01b0319166001600160a01b0392909216919091179055565b6000806122195a60966366ad5c8a60e01b898989896040516024016121de94939291906149e3565b60408051601f198184030181529190526020810180516001600160e01b03166001600160e01b03199093169290921790915230929190612c73565b9150915081611431578280519060200120600460008861ffff1661ffff168152602001908152602001600020866040516122539190614a21565b9081526040805191829003602090810183206001600160401b0389166000908152915220919091557fe183f33de2837795525b4792ca4cd60535bd77c53b7e7030060bfcf5734d6b0c906122b09088908890889088908790614a3d565b60405180910390a1505050505050565b60006001600160e01b031982166301d1d13560e71b1480610db757506301ffc9a760e01b6001600160e01b0319831614610db7565b6000546001600160a01b0316331461144b5760405162461bcd60e51b815260206004820181905260248201527f4f776e61626c653a2063616c6c6572206973206e6f7420746865206f776e65726044820152606401610bc2565b6001600160a01b0383166123b15760405162461bcd60e51b8152602060048201526024808201527f45524332303a20617070726f76652066726f6d20746865207a65726f206164646044820152637265737360e01b6064820152608401610bc2565b6001600160a01b0382166124125760405162461bcd60e51b815260206004820152602260248201527f45524332303a20617070726f766520746f20746865207a65726f206164647265604482015261737360f01b6064820152608401610bc2565b6001600160a01b0383811660008181526007602090815260408083209487168084529482529182902085905590518481527f8c5be1e5ebec7d5bd14f71427d1e84f3dd0314c0f7b2291e5b200ac8c7c3b925910160405180910390a3505050565b600061247f8484611c5a565b905060001981146124e757818110156124da5760405162461bcd60e51b815260206004820152601d60248201527f45524332303a20696e73756666696369656e7420616c6c6f77616e63650000006044820152606401610bc2565b6124e7848484840361234f565b50505050565b6001600160a01b0383166125515760405162461bcd60e51b815260206004820152602560248201527f45524332303a207472616e736665722066726f6d20746865207a65726f206164604482015264647265737360d81b6064820152608401610bc2565b6001600160a01b0382166125b35760405162461bcd60e51b815260206004820152602360248201527f45524332303a207472616e7366657220746f20746865207a65726f206164647260448201526265737360e81b6064820152608401610bc2565b6001600160a01b0383166000908152600660205260409020548181101561262b5760405162461bcd60e51b815260206004820152602660248201527f45524332303a207472616e7366657220616d6f756e7420657863656564732062604482015265616c616e636560d01b6064820152608401610bc2565b6001600160a01b0380851660009081526006602052604080822085850390559185168152908120805484929061266290849061482a565b92505081905550826001600160a01b0316846001600160a01b0316600080516020614cac8339815191528460405161269c91815260200190565b60405180910390a36124e7565b600b5460ff161561144b5760405162461bcd60e51b815260206004820152601060248201526f14185d5cd8589b194e881c185d5cd95960821b6044820152606401610bc2565b6126fd866000836000612cfd565b61270987878787612d77565b6000808860405160200161271d9190614716565b60408051601f198184030181529082905261273f929189908990602001614a8f565b604051602081830303815290604052905061275e878286868634612d8b565b8560405161276c9190614a21565b6040518091039020886001600160a01b03168861ffff167f39a4c66499bcf4b56d79f0dde8ed7a9d4925a0df55825206b2b8531e202be0d0886040516127b491815260200190565b60405180910390a45050505050505050565b602081015161ffff81166127e5576127e085858585612f26565b610ed1565b60405162461bcd60e51b815260206004820152601c60248201527f4f4654436f72653a20756e6b6e6f776e207061636b65742074797065000000006044820152606401610bc2565b600080546001600160a01b038381166001600160a01b0319831681178455604051919092169283917f8be0079c531659141344cd1fd0a4f28419497f9722a3daafe3b4186f6b6457e09190a35050565b600080612895600c5461288f85612fb3565b9061303e565b9050600081600e546128a79190614ad0565b90506128bb6725b946ebc0b3617382613110565b84600d546128c99190614b0f565b6128d39190614b0f565b949350505050565b6060816128e981601f61482a565b10156129285760405162461bcd60e51b815260206004820152600e60248201526d736c6963655f6f766572666c6f7760901b6044820152606401610bc2565b612932828461482a565b845110156129765760405162461bcd60e51b8152602060048201526011602482015270736c6963655f6f75744f66426f756e647360781b6044820152606401610bc2565b60608215801561299557604051915060008252602082016040526129df565b6040519150601f8416801560200281840101858101878315602002848b0101015b818310156129ce5780518352602092830192016129b6565b5050858452601f01601f1916604052505b50949350505050565b6001600160a01b038216612a485760405162461bcd60e51b815260206004820152602160248201527f45524332303a206275726e2066726f6d20746865207a65726f206164647265736044820152607360f81b6064820152608401610bc2565b6001600160a01b03821660009081526006602052604090205481811015612abc5760405162461bcd60e51b815260206004820152602260248201527f45524332303a206275726e20616d6f756e7420657863656564732062616c616e604482015261636560f01b6064820152608401610bc2565b6001600160a01b0383166000908152600660205260408120838303905560088054849290612aeb908490614886565b90915550506040518281526000906001600160a01b03851690600080516020614cac8339815191529060200160405180910390a3505050565b6001600160a01b038216612b7a5760405162461bcd60e51b815260206004820152601f60248201527f45524332303a206d696e7420746f20746865207a65726f2061646472657373006044820152606401610bc2565b8060086000828254612b8c919061482a565b90915550506001600160a01b03821660009081526006602052604081208054839290612bb990849061482a565b90915550506040518181526001600160a01b03831690600090600080516020614cac83398151915290602001611c4e565b612bf261314f565b600b805460ff191690557f5db9ee0a495bf2e6ff9c91a7834c1ba4fdd244a5e8aa4e537bd38aeae4b073aa335b604051612c2c9190614192565b60405180910390a1565b612c3e6126a9565b600b805460ff191660011790557f62e78cea01bee320cd4e420270b5ea74000d11b0c9f74754ebdbfc544b05a258612c1f3390565b6000606060008060008661ffff166001600160401b03811115612c9857612c98614411565b6040519080825280601f01601f191660200182016040528015612cc2576020820181803683370190505b50905060008087516020890160008d8df191503d925086831115612ce4578692505b828152826000602083013e909890975095505050505050565b60055460ff1615612d1957612d1484848484613198565b6124e7565b8151156124e75760405162461bcd60e51b815260206004820152602660248201527f4f4654436f72653a205f61646170746572506172616d73206d7573742062652060448201526532b6b83a3c9760d11b6064820152608401610bc2565b612d7f6126a9565b6124e784848484613277565b61ffff861660009081526001602052604081208054612da9906146cb565b80601f0160208091040260200160405190810160405280929190818152602001828054612dd5906146cb565b8015612e225780601f10612df757610100808354040283529160200191612e22565b820191906000526020600020905b815481529060010190602001808311612e0557829003601f168201915b50505050509050805160001415612e945760405162461bcd60e51b815260206004820152603060248201527f4c7a4170703a2064657374696e6174696f6e20636861696e206973206e6f742060448201526f61207472757374656420736f7572636560801b6064820152608401610bc2565b60405162c5803160e81b81526001600160a01b037f0000000000000000000000000000000000000000000000000000000000000000169063c5803100908490612eeb908b9086908c908c908c908c90600401614b94565b6000604051808303818588803b158015612f0457600080fd5b505af1158015612f18573d6000803e3d6000fd5b505050505050505050505050565b600080600083806020019051810190612f3f9190614bee565b9195509350915060009050612f54838261329d565b9050612f61888284613302565b806001600160a01b03168861ffff167f776434b505c7beb3db155c58df6c88985bf7c31730767e43ec773005059fed7a8685604051612fa1929190614c6c565b60405180910390a35050505050505050565b60007809392ee8e921d5d073aff322e62439fcf32d7f344649470f8f19821215612ff35760405163e608e18b60e01b815260048101839052602401610bc2565b7809392ee8e921d5d073aff322e62439fcf32d7f344649470f90821315613030576040516371f72a3160e01b815260048101839052602401610bc2565b50670de0b6b3a76400000290565b6000600160ff1b8314806130555750600160ff1b82145b156130735760405163b3c754a360e01b815260040160405180910390fd5b600080600085126130845784613089565b846000035b915060008412613099578361309e565b836000035b905060006130b583670de0b6b3a76400008461330c565b90506001600160ff1b038111156130e257604051637cb4bef560e01b815260048101829052602401610bc2565b6000198087139086138082186001146130fb5782613104565b61310483614c8e565b98975050505050505050565b60008261313557811561312457600061312e565b670de0b6b3a76400005b9050610db7565b610f6761314a613144856133da565b846134b9565b61357b565b600b5460ff1661144b5760405162461bcd60e51b815260206004820152601460248201527314185d5cd8589b194e881b9bdd081c185d5cd95960621b6044820152606401610bc2565b60006131a383613613565b61ffff8087166000908152600260209081526040808320938916835292905290812054919250906131d590849061482a565b9050600081116132275760405162461bcd60e51b815260206004820152601a60248201527f4c7a4170703a206d696e4761734c696d6974206e6f74207365740000000000006044820152606401610bc2565b808210156114315760405162461bcd60e51b815260206004820152601b60248201527f4c7a4170703a20676173206c696d697420697320746f6f206c6f7700000000006044820152606401610bc2565b336001600160a01b038516811461329357613293858284612473565b610ed185836129e8565b60006132aa82601461482a565b835110156132f25760405162461bcd60e51b8152602060048201526015602482015274746f416464726573735f6f75744f66426f756e647360581b6044820152606401610bc2565b500160200151600160601b900490565b6112d38282612b24565b6000808060001985870985870292508281108382030391505080600014156133475783828161333d5761333d61489d565b0492505050610f67565b83811061337157604051631dcf306360e21b81526004810182905260248101859052604401610bc2565b60008486880960026001871981018816978890046003810283188082028403028082028403028082028403028082028403028082028403029081029092039091026000889003889004909101858311909403939093029303949094049190911702949350505050565b60008082136133ff5760405163309fa7dd60e11b815260048101839052602401610bc2565b6000670de0b6b3a7640000831261341857506001613432565b6000199050826ec097ce7bc90715b34b9f10000000000492505b6000613447670de0b6b3a7640000850561366f565b670de0b6b3a7640000808202945090915084821d9081141561346b57505002919050565b6706f05b59d3b200005b60008113156134b057670de0b6b3a7640000828002059150671bc16d674ec8000082126134a8579384019360019190911d905b60011d613475565b50505002919050565b6000600160ff1b8314806134d05750600160ff1b82145b156134ee57604051630d01a11b60e21b815260040160405180910390fd5b600080600085126134ff5784613504565b846000035b9150600084126135145783613519565b836000035b90506000613527838361374e565b90506001600160ff1b038111156135545760405163bf79e8d960e01b815260048101829052602401610bc2565b60001980871390861380821860011461356d5782613104565b505060000395945050505050565b6000808212156135cf5768033dd1780914b971141982121561359f57506000919050565b6135ab8260000361357b565b6ec097ce7bc90715b34b9f1000000000816135c8576135c861489d565b0592915050565b680a688906bd8b00000082126135fb5760405163e69458f960e01b815260048101839052602401610bc2565b670de0b6b3a7640000604083901b04610f6781613810565b60006022825110156136675760405162461bcd60e51b815260206004820152601c60248201527f4c7a4170703a20696e76616c69642061646170746572506172616d73000000006044820152606401610bc2565b506022015190565b6000600160801b821061368f57608091821c9161368c908261482a565b90505b600160401b82106136ad57604091821c916136aa908261482a565b90505b64010000000082106136cc57602091821c916136c9908261482a565b90505b6201000082106136e957601091821c916136e6908261482a565b90505b610100821061370557600891821c91613702908261482a565b90505b6010821061372057600491821c9161371d908261482a565b90505b6004821061373b57600291821c91613738908261482a565b90505b60028210611f6457610db760018261482a565b60008080600019848609848602925082811083820303915050670de0b6b3a764000081106137925760405163698d9a0160e11b815260048101829052602401610bc2565b600080670de0b6b3a76400008688099150506706f05b59d3b1ffff8111826137cc5780670de0b6b3a7640000850401945050505050610db7565b620400008285030493909111909103600160ee1b02919091177faccb18165bd6fe31ae1cf318dc5b51eee0e1ba569b88cd74c1773b91fac106690201905092915050565b600160bf1b6001603f1b8216156138305768016a09e667f3bcc9090260401c5b6001603e1b82161561384b576801306fe0a31b7152df0260401c5b6001603d1b821615613866576801172b83c7d517adce0260401c5b6001603c1b8216156138815768010b5586cf9890f62a0260401c5b6001603b1b82161561389c576801059b0d31585743ae0260401c5b6001603a1b8216156138b757680102c9a3e778060ee70260401c5b600160391b8216156138d25768010163da9fb33356d80260401c5b600160381b8216156138ed57680100b1afa5abcbed610260401c5b668000000000000082161561390b5768010058c86da1c09ea20260401c5b6640000000000000821615613929576801002c605e2e8cec500260401c5b662000000000000082161561394757680100162f3904051fa10260401c5b6610000000000000821615613965576801000b175effdc76ba0260401c5b660800000000000082161561398357680100058ba01fb9f96d0260401c5b66040000000000008216156139a15768010002c5cc37da94920260401c5b66020000000000008216156139bf576801000162e525ee05470260401c5b66010000000000008216156139dd5768010000b17255775c040260401c5b658000000000008216156139fa576801000058b91b5bc9ae0260401c5b65400000000000821615613a1757680100002c5c89d5ec6d0260401c5b65200000000000821615613a345768010000162e43f4f8310260401c5b65100000000000821615613a5157680100000b1721bcfc9a0260401c5b65080000000000821615613a6e5768010000058b90cf1e6e0260401c5b65040000000000821615613a8b576801000002c5c863b73f0260401c5b65020000000000821615613aa857680100000162e430e5a20260401c5b65010000000000821615613ac5576801000000b1721835510260401c5b648000000000821615613ae157680100000058b90c0b490260401c5b644000000000821615613afd5768010000002c5c8601cc0260401c5b642000000000821615613b19576801000000162e42fff00260401c5b641000000000821615613b355768010000000b17217fbb0260401c5b640800000000821615613b51576801000000058b90bfce0260401c5b640400000000821615613b6d57680100000002c5c85fe30260401c5b640200000000821615613b895768010000000162e42ff10260401c5b640100000000821615613ba557680100000000b17217f80260401c5b6380000000821615613bc05768010000000058b90bfc0260401c5b6340000000821615613bdb576801000000002c5c85fe0260401c5b6320000000821615613bf657680100000000162e42ff0260401c5b6310000000821615613c11576801000000000b17217f0260401c5b6308000000821615613c2c57680100000000058b90c00260401c5b6304000000821615613c475768010000000002c5c8600260401c5b6302000000821615613c62576801000000000162e4300260401c5b6301000000821615613c7d5768010000000000b172180260401c5b62800000821615613c97576801000000000058b90c0260401c5b62400000821615613cb157680100000000002c5c860260401c5b62200000821615613ccb5768010000000000162e430260401c5b62100000821615613ce557680100000000000b17210260401c5b62080000821615613cff5768010000000000058b910260401c5b62040000821615613d19576801000000000002c5c80260401c5b62020000821615613d3357680100000000000162e40260401c5b62010000821615613d4d576801000000000000b1720260401c5b618000821615613d6657680100000000000058b90260401c5b614000821615613d7f5768010000000000002c5d0260401c5b612000821615613d98576801000000000000162e0260401c5b611000821615613db15768010000000000000b170260401c5b610800821615613dca576801000000000000058c0260401c5b610400821615613de357680100000000000002c60260401c5b610200821615613dfc57680100000000000001630260401c5b610100821615613e1557680100000000000000b10260401c5b6080821615613e2d57680100000000000000590260401c5b6040821615613e45576801000000000000002c0260401c5b6020821615613e5d57680100000000000000160260401c5b6010821615613e75576801000000000000000b0260401c5b6008821615613e8d57680100000000000000060260401c5b6004821615613ea557680100000000000000030260401c5b6002821615613ebd57680100000000000000010260401c5b6001821615613ed557680100000000000000010260401c5b670de0b6b3a76400000260409190911c60bf031c90565b828054613ef8906146cb565b90600052602060002090601f016020900481019282613f1a5760008555613f60565b82601f10613f3357805160ff1916838001178555613f60565b82800160010185558215613f60579182015b82811115613f60578251825591602001919060010190613f45565b50613f6c929150613fe4565b5090565b828054613f7c906146cb565b90600052602060002090601f016020900481019282613f9e5760008555613f60565b82601f10613fb75782800160ff19823516178555613f60565b82800160010185558215613f60579182015b82811115613f60578235825591602001919060010190613fc9565b5b80821115613f6c5760008155600101613fe5565b61ffff81168114611f7e57600080fd5b60008083601f84011261401b57600080fd5b5081356001600160401b0381111561403257600080fd5b60208301915083602082850101111561404a57600080fd5b9250929050565b80356001600160401b0381168114611f6457600080fd5b6000806000806000806080878903121561408157600080fd5b863561408c81613ff9565b955060208701356001600160401b03808211156140a857600080fd5b6140b48a838b01614009565b90975095508591506140c860408a01614051565b945060608901359150808211156140de57600080fd5b506140eb89828a01614009565b979a9699509497509295939492505050565b60006020828403121561410f57600080fd5b81356001600160e01b031981168114610f6757600080fd5b60005b8381101561414257818101518382015260200161412a565b838111156124e75750506000910152565b6000815180845261416b816020860160208601614127565b601f01601f19169290920160200192915050565b602081526000610f676020830184614153565b6001600160a01b0391909116815260200190565b6000602082840312156141b857600080fd5b8135610f6781613ff9565b6001600160a01b0381168114611f7e57600080fd5b600080604083850312156141eb57600080fd5b82356141f6816141c3565b946020939093013593505050565b60008060006060848603121561421957600080fd5b8335614224816141c3565b92506020840135614234816141c3565b929592945050506040919091013590565b80358015158114611f6457600080fd5b600080600080600080600060a0888a03121561427057600080fd5b873561427b81613ff9565b965060208801356001600160401b038082111561429757600080fd5b6142a38b838c01614009565b909850965060408a013595508691506142be60608b01614245565b945060808a01359150808211156142d457600080fd5b506142e18a828b01614009565b989b979a50959850939692959293505050565b60008060006040848603121561430957600080fd5b833561431481613ff9565b925060208401356001600160401b0381111561432f57600080fd5b61433b86828701614009565b9497909650939450505050565b600080600080600080600080600060e08a8c03121561436657600080fd5b8935614371816141c3565b985060208a013561438181613ff9565b975060408a01356001600160401b038082111561439d57600080fd5b6143a98d838e01614009565b909950975060608c0135965060808c013591506143c5826141c3565b90945060a08b0135906143d7826141c3565b90935060c08b013590808211156143ed57600080fd5b506143fa8c828d01614009565b915080935050809150509295985092959850929598565b634e487b7160e01b600052604160045260246000fd5b604051601f8201601f191681016001600160401b038111828210171561444f5761444f614411565b604052919050565b60006001600160401b0382111561447057614470614411565b50601f01601f191660200190565b60008060006060848603121561449357600080fd5b833561449e81613ff9565b925060208401356001600160401b038111156144b957600080fd5b8401601f810186136144ca57600080fd5b80356144dd6144d882614457565b614427565b8181528760208385010111156144f257600080fd5b8160208401602083013760006020838301015280945050505061451760408501614051565b90509250925092565b60006020828403121561453257600080fd5b8135610f67816141c3565b60006020828403121561454f57600080fd5b5035919050565b6000806040838503121561456957600080fd5b823561457481613ff9565b9150602083013561458481613ff9565b809150509250929050565b6000806000806000608086880312156145a757600080fd5b85356145b281613ff9565b945060208601356145c281613ff9565b93506040860135925060608601356001600160401b038111156145e457600080fd5b6145f088828901614009565b969995985093965092949392505050565b6000806040838503121561461457600080fd5b823561461f816141c3565b91506020830135614584816141c3565b60008060006060848603121561464457600080fd5b833561464f81613ff9565b9250602084013561423481613ff9565b60006020828403121561467157600080fd5b610f6782614245565b6000806000806080858703121561469057600080fd5b843561469b81613ff9565b935060208501356146ab81613ff9565b925060408501356146bb816141c3565b9396929550929360600135925050565b600181811c908216806146df57607f821691505b6020821081141561470057634e487b7160e01b600052602260045260246000fd5b50919050565b8183823760009101908152919050565b60609190911b6001600160601b031916815260140190565b81835281816020850137506000828201602090810191909152601f909101601f19169091010190565b61ffff861681526080602082015260006147746080830187614153565b828103604084015261478781868861472e565b9150508260608301529695505050505050565b61ffff871681526001600160a01b038616602082015260a0604082018190526000906147c890830187614153565b851515606084015282810360808401526147e381858761472e565b9998505050505050505050565b6000806040838503121561480357600080fd5b505080516020909101519092909150565b634e487b7160e01b600052601160045260246000fd5b6000821982111561483d5761483d614814565b500190565b61ffff841681526040602082015260006120b660408301848661472e565b6020808252600c908201526b1d5b985d5d1a1bdc9a5e995960a21b604082015260600190565b60008282101561489857614898614814565b500390565b634e487b7160e01b600052601260045260246000fd5b6000826148d057634e487b7160e01b600052601260045260246000fd5b500490565b8284823760609190911b6001600160601b0319169101908152601401919050565b600061ffff80881683528087166020840152508460408301526080606083015261492460808301848661472e565b979650505050505050565b61ffff8616815260806020820152600061494d60808301868861472e565b6001600160401b0394909416604083015250606001529392505050565b600082601f83011261497b57600080fd5b81516149896144d882614457565b81815284602083860101111561499e57600080fd5b6128d3826020830160208701614127565b6000602082840312156149c157600080fd5b81516001600160401b038111156149d757600080fd5b6128d38482850161496a565b61ffff85168152608060208201526000614a006080830186614153565b6001600160401b038516604084015282810360608401526149248185614153565b60008251614a33818460208701614127565b9190910192915050565b61ffff8616815260a060208201526000614a5a60a0830187614153565b6001600160401b03861660408401528281036060840152614a7b8186614153565b905082810360808401526131048185614153565b61ffff85168152608060208201526000614aac6080830186614153565b8281036040840152614abe8186614153565b91505082606083015295945050505050565b60008083128015600160ff1b850184121615614aee57614aee614814565b6001600160ff1b0384018313811615614b0957614b09614814565b50500390565b60006001600160ff1b0381841382841380821686840486111615614b3557614b35614814565b600160ff1b6000871282811687830589121615614b5457614b54614814565b60008712925087820587128484161615614b7057614b70614814565b87850587128184161615614b8657614b86614814565b505050929093029392505050565b61ffff8716815260c060208201526000614bb160c0830188614153565b8281036040840152614bc38188614153565b6001600160a01b0387811660608601528616608085015283810360a085015290506147e38185614153565b60008060008060808587031215614c0457600080fd5b8451614c0f81613ff9565b60208601519094506001600160401b0380821115614c2c57600080fd5b614c388883890161496a565b94506040870151915080821115614c4e57600080fd5b50614c5b8782880161496a565b606096909601519497939650505050565b604081526000614c7f6040830185614153565b90508260208301529392505050565b6000600160ff1b821415614ca457614ca4614814565b506000039056feddf252ad1be2c89b69c2b068fc378daa952ba7f163c4a11628f55a4df523b3efa2646970667358221220504194487bb54cd6cda0323bb4d9ad3751b4e33f1ef8b02b8818f6806a8ac1d264736f6c63430008090033",
  "devdoc": {
    "details": "Latest size: 17.663  KiBEmissions calculator: https://www.desmos.com/calculator/1fa0zen2ut",
    "kind": "dev",
    "methods": {
      "allowance(address,address)": {
        "details": "See {IERC20-allowance}."
      },
      "approve(address,uint256)": {
        "details": "See {IERC20-approve}. NOTE: If `amount` is the maximum `uint256`, the allowance is not updated on `transferFrom`. This is semantically equivalent to an infinite approval. Requirements: - `spender` cannot be the zero address."
      },
      "availableForWeek(uint256)": {
        "params": {
          "timestamp": "the moment in time to emit for"
        }
      },
      "balanceOf(address)": {
        "details": "See {IERC20-balanceOf}."
      },
      "circulatingSupply()": {
        "details": "returns the circulating amount of tokens on current chain"
      },
      "constructor": {
        "details": "The initial supply of 100M is not minted here as we have the wrap method",
        "params": {
          "_advisors": "address for the advisors tokens",
          "_dao": "address for the DAO tokens",
          "_governanceChainId": "Chain id",
          "_lbp": "address for the LBP tokens",
          "_lzEndpoint": "the layer zero address endpoint deployed on the current chain",
          "_otc": "address for the OTC tokens",
          "_seed": "address for the seed tokens",
          "_team": "address for the team tokens"
        }
      },
      "decreaseAllowance(address,uint256)": {
        "details": "Atomically decreases the allowance granted to `spender` by the caller. This is an alternative to {approve} that can be used as a mitigation for problems described in {IERC20-approve}. Emits an {Approval} event indicating the updated allowance. Requirements: - `spender` cannot be the zero address. - `spender` must have allowance for the caller of at least `subtractedValue`."
      },
      "emitForWeek(uint256)": {
        "details": "formula: b(xe^(c-f(x))) where f(x)=x/a",
        "params": {
          "timestamp": "the moment in time to emit for"
        }
      },
      "estimateSendFee(uint16,bytes,uint256,bool,bytes)": {
        "details": "estimate send token `_tokenId` to (`_dstChainId`, `_toAddress`) _dstChainId - L0 defined chain id to send tokens too _toAddress - dynamic bytes array which contains the address to whom you are sending tokens to on the dstChain _amount - amount of the tokens to transfer _useZro - indicates to use zro to pay L0 fees _adapterParam - flexible bytes array to indicate messaging adapter services in L0"
      },
      "extractTAP(address,uint256)": {
        "params": {
          "_amount": "TAP amount",
          "_to": "the receiver address"
        }
      },
      "increaseAllowance(address,uint256)": {
        "details": "Atomically increases the allowance granted to `spender` by the caller. This is an alternative to {approve} that can be used as a mitigation for problems described in {IERC20-approve}. Emits an {Approval} event indicating the updated allowance. Requirements: - `spender` cannot be the zero address."
      },
      "name()": {
        "details": "Returns the name of the token."
      },
      "owner()": {
        "details": "Returns the address of the current owner."
      },
      "paused()": {
        "details": "Returns true if the contract is paused, and false otherwise."
      },
      "removeTAP(address,uint256)": {
        "params": {
          "_amount": "TAP amount",
          "_from": "the address to burn from"
        }
      },
      "renounceOwnership()": {
        "details": "Leaves the contract without owner. It will not be possible to call `onlyOwner` functions anymore. Can only be called by the current owner. NOTE: Renouncing ownership will leave the contract without an owner, thereby removing any functionality that is only available to the owner."
      },
      "sendFrom(address,uint16,bytes,uint256,address,address,bytes)": {
        "details": "send `_amount` amount of token to (`_dstChainId`, `_toAddress`) from `_from` `_from` the owner of token `_dstChainId` the destination chain identifier `_toAddress` can be any size depending on the `dstChainId`. `_amount` the quantity of tokens in wei `_refundAddress` the address LayerZero refunds if too much message fee is sent `_zroPaymentAddress` set to address(0x0) if not paying in ZRO (LayerZero Token) `_adapterParams` is a flexible bytes array to indicate messaging adapter services"
      },
      "setAParam(int256)": {
        "params": {
          "val": "the new value"
        }
      },
      "setBParam(int256)": {
        "params": {
          "val": "the new value"
        }
      },
      "setCParam(int256)": {
        "params": {
          "val": "the new value"
        }
      },
      "setGovernanceChainIdentifier(uint256)": {
        "params": {
          "_identifier": "LayerZero chain identifier"
        }
      },
      "setMinter(address)": {
        "params": {
          "_minter": "the new address"
        }
      },
      "symbol()": {
        "details": "Returns the symbol of the token, usually a shorter version of the name."
      },
      "totalSupply()": {
        "details": "See {IERC20-totalSupply}."
      },
      "transfer(address,uint256)": {
        "details": "See {IERC20-transfer}. Requirements: - `to` cannot be the zero address. - the caller must have a balance of at least `amount`."
      },
      "transferFrom(address,address,uint256)": {
        "details": "See {IERC20-transferFrom}. Emits an {Approval} event indicating the updated allowance. This is not required by the EIP. See the note at the beginning of {ERC20}. NOTE: Does not update the allowance if the current allowance is the maximum `uint256`. Requirements: - `from` and `to` cannot be the zero address. - `from` must have a balance of at least `amount`. - the caller must have allowance for ``from``'s tokens of at least `amount`."
      },
      "transferOwnership(address)": {
        "details": "Transfers ownership of the contract to a new account (`newOwner`). Can only be called by the current owner."
      }
    },
    "stateVariables": {
      "a_param": {
        "details": "formula: b(xe^(c-f(x))) where f(x)=x/a"
      },
      "b_param": {
        "details": "formula: b(xe^(c-f(x))) where f(x)=x/a"
      },
      "c_param": {
        "details": "formula: b(xe^(c-f(x))) where f(x)=x/a"
      },
      "emissionsStartTime": {
        "details": "initialized in the constructor with block.timestamp"
      },
      "mintedInWeek": {
        "details": "week is computed using (timestamp - emissionStartTime) / WEEK"
      }
    },
    "title": "Tapioca OFT token",
    "version": 1
  },
  "userdoc": {
    "errors": {
      "PRBMathSD59x18__DivInputTooSmall()": [
        {
          "notice": "Emitted when one of the inputs is MIN_SD59x18."
        }
      ],
      "PRBMathSD59x18__DivOverflow(uint256)": [
        {
          "notice": "Emitted when one of the intermediary unsigned results overflows SD59x18."
        }
      ],
      "PRBMathSD59x18__Exp2InputTooBig(int256)": [
        {
          "notice": "Emitted when the input is greater than 192."
        }
      ],
      "PRBMathSD59x18__FromIntOverflow(int256)": [
        {
          "notice": "Emitted when converting a basic integer to the fixed-point format overflows SD59x18."
        }
      ],
      "PRBMathSD59x18__FromIntUnderflow(int256)": [
        {
          "notice": "Emitted when converting a basic integer to the fixed-point format underflows SD59x18."
        }
      ],
      "PRBMathSD59x18__LogInputTooSmall(int256)": [
        {
          "notice": "Emitted when the input is less than or equal to zero."
        }
      ],
      "PRBMathSD59x18__MulInputTooSmall()": [
        {
          "notice": "Emitted when one of the inputs is MIN_SD59x18."
        }
      ],
      "PRBMathSD59x18__MulOverflow(uint256)": [
        {
          "notice": "Emitted when the intermediary absolute result overflows SD59x18."
        }
      ],
      "PRBMath__MulDivFixedPointOverflow(uint256)": [
        {
          "notice": "Emitted when the result overflows uint256."
        }
      ],
      "PRBMath__MulDivOverflow(uint256,uint256)": [
        {
          "notice": "Emitted when the result overflows uint256."
        }
      ]
    },
    "events": {
      "AParamUpdated(int256,int256)": {
        "notice": "event emitted when the A parameter of the emission formula is updated"
      },
      "BParamUpdated(int256,int256)": {
        "notice": "event emitted when the B parameter of the emission formula is updated"
      },
      "Burned(address,address,uint256)": {
        "notice": "event emitted when new TAP is burned"
      },
      "CParamUpdated(int256,int256)": {
        "notice": "event emitted when the C parameter of the emission formula is updated"
      },
      "GovernanceChainIdentifierUpdated(uint256,uint256)": {
        "notice": "event emitted when the governance chain identifier is updated"
      },
      "Minted(address,address,uint256)": {
        "notice": "event emitted when new TAP is minted"
      },
      "MinterUpdated(address,address)": {
        "notice": "event emitted when a new minter is set"
      },
      "UpdateMiningParameters(uint256,uint256,uint256)": {
        "notice": "event emitted when mining parameters are updated"
      }
    },
    "kind": "user",
    "methods": {
      "WEEK()": {
        "notice": "seconds in a week"
      },
      "a_param()": {
        "notice": "the a parameter used in the emission function; can be changed by governance"
      },
      "availableForWeek(uint256)": {
        "notice": "returns available emissions for a specific timestamp"
      },
      "b_param()": {
        "notice": "the b parameter used in the emission function; can be changed by governance"
      },
      "c_param()": {
        "notice": "the c parameter used in the emission function; can be changed by governance"
      },
      "constructor": {
        "notice": "Creates a new TAP OFT type token"
      },
      "decimals()": {
        "notice": "returns token's decimals"
      },
      "emissionsStartTime()": {
        "notice": "starts time for emissions"
      },
      "emitForWeek(uint256)": {
        "notice": "-- Write methods --returns the available emissions for a specific week"
      },
      "extractTAP(address,uint256)": {
        "notice": "extracts from the minted TAP"
      },
      "governanceChainIdentifier()": {
        "notice": "LayerZero governance chain identifier"
      },
      "mintedInWeek(int256)": {
        "notice": "returns the amount minted for a specific week"
      },
      "minter()": {
        "notice": "returns the minter address"
      },
      "removeTAP(address,uint256)": {
        "notice": "burns TAP"
      },
      "setAParam(int256)": {
        "notice": "sets a new value for parameter"
      },
      "setBParam(int256)": {
        "notice": "sets a new value for parameter"
      },
      "setCParam(int256)": {
        "notice": "sets a new value for parameter"
      },
      "setGovernanceChainIdentifier(uint256)": {
        "notice": "-- Owner methods --sets the governance chain identifier"
      },
      "setMinter(address)": {
        "notice": "sets a new minter address"
      }
    },
    "notice": "OFT compatible TAP token",
    "version": 1
  },
  "storageLayout": {
    "storage": [
      {
        "astId": 596,
        "contract": "contracts/tokens/TapOFT.sol:TapOFT",
        "label": "_owner",
        "offset": 0,
        "slot": "0",
        "type": "t_address"
      },
      {
        "astId": 7044,
        "contract": "contracts/tokens/TapOFT.sol:TapOFT",
        "label": "trustedRemoteLookup",
        "offset": 0,
        "slot": "1",
        "type": "t_mapping(t_uint16,t_bytes_storage)"
      },
      {
        "astId": 7050,
        "contract": "contracts/tokens/TapOFT.sol:TapOFT",
        "label": "minDstGasLookup",
        "offset": 0,
        "slot": "2",
        "type": "t_mapping(t_uint16,t_mapping(t_uint16,t_uint256))"
      },
      {
        "astId": 7052,
        "contract": "contracts/tokens/TapOFT.sol:TapOFT",
        "label": "precrime",
        "offset": 0,
        "slot": "3",
        "type": "t_address"
      },
      {
        "astId": 7537,
        "contract": "contracts/tokens/TapOFT.sol:TapOFT",
        "label": "failedMessages",
        "offset": 0,
        "slot": "4",
        "type": "t_mapping(t_uint16,t_mapping(t_bytes_memory_ptr,t_mapping(t_uint64,t_bytes32)))"
      },
      {
        "astId": 7957,
        "contract": "contracts/tokens/TapOFT.sol:TapOFT",
        "label": "useCustomAdapterParams",
        "offset": 0,
        "slot": "5",
        "type": "t_bool"
      },
      {
        "astId": 825,
        "contract": "contracts/tokens/TapOFT.sol:TapOFT",
        "label": "_balances",
        "offset": 0,
        "slot": "6",
        "type": "t_mapping(t_address,t_uint256)"
      },
      {
        "astId": 831,
        "contract": "contracts/tokens/TapOFT.sol:TapOFT",
        "label": "_allowances",
        "offset": 0,
        "slot": "7",
        "type": "t_mapping(t_address,t_mapping(t_address,t_uint256))"
      },
      {
        "astId": 833,
        "contract": "contracts/tokens/TapOFT.sol:TapOFT",
        "label": "_totalSupply",
        "offset": 0,
        "slot": "8",
        "type": "t_uint256"
      },
      {
        "astId": 835,
        "contract": "contracts/tokens/TapOFT.sol:TapOFT",
        "label": "_name",
        "offset": 0,
        "slot": "9",
        "type": "t_string_storage"
      },
      {
        "astId": 837,
        "contract": "contracts/tokens/TapOFT.sol:TapOFT",
        "label": "_symbol",
        "offset": 0,
        "slot": "10",
        "type": "t_string_storage"
      },
      {
        "astId": 719,
        "contract": "contracts/tokens/TapOFT.sol:TapOFT",
        "label": "_paused",
        "offset": 0,
        "slot": "11",
        "type": "t_bool"
      },
      {
        "astId": 1591,
        "contract": "contracts/tokens/TapOFT.sol:TapOFT",
        "label": "a_param",
        "offset": 0,
        "slot": "12",
        "type": "t_int256"
      },
      {
        "astId": 1595,
        "contract": "contracts/tokens/TapOFT.sol:TapOFT",
        "label": "b_param",
        "offset": 0,
        "slot": "13",
        "type": "t_int256"
      },
      {
        "astId": 1601,
        "contract": "contracts/tokens/TapOFT.sol:TapOFT",
        "label": "c_param",
        "offset": 0,
        "slot": "14",
        "type": "t_int256"
      },
      {
        "astId": 1613,
        "contract": "contracts/tokens/TapOFT.sol:TapOFT",
        "label": "mintedInWeek",
        "offset": 0,
        "slot": "15",
        "type": "t_mapping(t_int256,t_uint256)"
      },
      {
        "astId": 1616,
        "contract": "contracts/tokens/TapOFT.sol:TapOFT",
        "label": "minter",
        "offset": 0,
        "slot": "16",
        "type": "t_address"
      },
      {
        "astId": 1619,
        "contract": "contracts/tokens/TapOFT.sol:TapOFT",
        "label": "governanceChainIdentifier",
        "offset": 0,
        "slot": "17",
        "type": "t_uint256"
      }
    ],
    "types": {
      "t_address": {
        "encoding": "inplace",
        "label": "address",
        "numberOfBytes": "20"
      },
      "t_bool": {
        "encoding": "inplace",
        "label": "bool",
        "numberOfBytes": "1"
      },
      "t_bytes32": {
        "encoding": "inplace",
        "label": "bytes32",
        "numberOfBytes": "32"
      },
      "t_bytes_memory_ptr": {
        "encoding": "bytes",
        "label": "bytes",
        "numberOfBytes": "32"
      },
      "t_bytes_storage": {
        "encoding": "bytes",
        "label": "bytes",
        "numberOfBytes": "32"
      },
      "t_int256": {
        "encoding": "inplace",
        "label": "int256",
        "numberOfBytes": "32"
      },
      "t_mapping(t_address,t_mapping(t_address,t_uint256))": {
        "encoding": "mapping",
        "key": "t_address",
        "label": "mapping(address => mapping(address => uint256))",
        "numberOfBytes": "32",
        "value": "t_mapping(t_address,t_uint256)"
      },
      "t_mapping(t_address,t_uint256)": {
        "encoding": "mapping",
        "key": "t_address",
        "label": "mapping(address => uint256)",
        "numberOfBytes": "32",
        "value": "t_uint256"
      },
      "t_mapping(t_bytes_memory_ptr,t_mapping(t_uint64,t_bytes32))": {
        "encoding": "mapping",
        "key": "t_bytes_memory_ptr",
        "label": "mapping(bytes => mapping(uint64 => bytes32))",
        "numberOfBytes": "32",
        "value": "t_mapping(t_uint64,t_bytes32)"
      },
      "t_mapping(t_int256,t_uint256)": {
        "encoding": "mapping",
        "key": "t_int256",
        "label": "mapping(int256 => uint256)",
        "numberOfBytes": "32",
        "value": "t_uint256"
      },
      "t_mapping(t_uint16,t_bytes_storage)": {
        "encoding": "mapping",
        "key": "t_uint16",
        "label": "mapping(uint16 => bytes)",
        "numberOfBytes": "32",
        "value": "t_bytes_storage"
      },
      "t_mapping(t_uint16,t_mapping(t_bytes_memory_ptr,t_mapping(t_uint64,t_bytes32)))": {
        "encoding": "mapping",
        "key": "t_uint16",
        "label": "mapping(uint16 => mapping(bytes => mapping(uint64 => bytes32)))",
        "numberOfBytes": "32",
        "value": "t_mapping(t_bytes_memory_ptr,t_mapping(t_uint64,t_bytes32))"
      },
      "t_mapping(t_uint16,t_mapping(t_uint16,t_uint256))": {
        "encoding": "mapping",
        "key": "t_uint16",
        "label": "mapping(uint16 => mapping(uint16 => uint256))",
        "numberOfBytes": "32",
        "value": "t_mapping(t_uint16,t_uint256)"
      },
      "t_mapping(t_uint16,t_uint256)": {
        "encoding": "mapping",
        "key": "t_uint16",
        "label": "mapping(uint16 => uint256)",
        "numberOfBytes": "32",
        "value": "t_uint256"
      },
      "t_mapping(t_uint64,t_bytes32)": {
        "encoding": "mapping",
        "key": "t_uint64",
        "label": "mapping(uint64 => bytes32)",
        "numberOfBytes": "32",
        "value": "t_bytes32"
      },
      "t_string_storage": {
        "encoding": "bytes",
        "label": "string",
        "numberOfBytes": "32"
      },
      "t_uint16": {
        "encoding": "inplace",
        "label": "uint16",
        "numberOfBytes": "2"
      },
      "t_uint256": {
        "encoding": "inplace",
        "label": "uint256",
        "numberOfBytes": "32"
      },
      "t_uint64": {
        "encoding": "inplace",
        "label": "uint64",
        "numberOfBytes": "8"
      }
    }
  }
}