{
  "address": "0xf6c024A4d1231F41Dd50e4F6F84Ce10C3008C092",
  "abi": [
    {
      "name": "Approval",
      "inputs": [
        {
          "name": "_owner",
          "type": "address",
          "indexed": true
        },
        {
          "name": "_spender",
          "type": "address",
          "indexed": true
        },
        {
          "name": "_value",
          "type": "uint256",
          "indexed": false
        }
      ],
      "anonymous": false,
      "type": "event"
    },
    {
      "name": "Transfer",
      "inputs": [
        {
          "name": "_from",
          "type": "address",
          "indexed": true
        },
        {
          "name": "_to",
          "type": "address",
          "indexed": true
        },
        {
          "name": "_value",
          "type": "uint256",
          "indexed": false
        }
      ],
      "anonymous": false,
      "type": "event"
    },
    {
      "name": "Boost",
      "inputs": [
        {
          "name": "_from",
          "type": "address",
          "indexed": true
        },
        {
          "name": "_to",
          "type": "address",
          "indexed": true
        },
        {
          "name": "_bias",
          "type": "uint256",
          "indexed": false
        },
        {
          "name": "_slope",
          "type": "uint256",
          "indexed": false
        },
        {
          "name": "_start",
          "type": "uint256",
          "indexed": false
        }
      ],
      "anonymous": false,
      "type": "event"
    },
    {
      "name": "Migrate",
      "inputs": [
        {
          "name": "_token_id",
          "type": "uint256",
          "indexed": true
        }
      ],
      "anonymous": false,
      "type": "event"
    },
    {
      "stateMutability": "nonpayable",
      "type": "constructor",
      "inputs": [
        {
          "name": "_ve",
          "type": "address"
        }
      ],
      "outputs": []
    },
    {
      "stateMutability": "nonpayable",
      "type": "function",
      "name": "boost",
      "inputs": [
        {
          "name": "_to",
          "type": "address"
        },
        {
          "name": "_amount",
          "type": "uint256"
        },
        {
          "name": "_endtime",
          "type": "uint256"
        }
      ],
      "outputs": []
    },
    {
      "stateMutability": "nonpayable",
      "type": "function",
      "name": "boost",
      "inputs": [
        {
          "name": "_to",
          "type": "address"
        },
        {
          "name": "_amount",
          "type": "uint256"
        },
        {
          "name": "_endtime",
          "type": "uint256"
        },
        {
          "name": "_from",
          "type": "address"
        }
      ],
      "outputs": []
    },
    {
      "stateMutability": "nonpayable",
      "type": "function",
      "name": "checkpoint_user",
      "inputs": [
        {
          "name": "_user",
          "type": "address"
        }
      ],
      "outputs": []
    },
    {
      "stateMutability": "nonpayable",
      "type": "function",
      "name": "approve",
      "inputs": [
        {
          "name": "_spender",
          "type": "address"
        },
        {
          "name": "_value",
          "type": "uint256"
        }
      ],
      "outputs": [
        {
          "name": "",
          "type": "bool"
        }
      ]
    },
    {
      "stateMutability": "nonpayable",
      "type": "function",
      "name": "permit",
      "inputs": [
        {
          "name": "_owner",
          "type": "address"
        },
        {
          "name": "_spender",
          "type": "address"
        },
        {
          "name": "_value",
          "type": "uint256"
        },
        {
          "name": "_deadline",
          "type": "uint256"
        },
        {
          "name": "_v",
          "type": "uint8"
        },
        {
          "name": "_r",
          "type": "bytes32"
        },
        {
          "name": "_s",
          "type": "bytes32"
        }
      ],
      "outputs": [
        {
          "name": "",
          "type": "bool"
        }
      ]
    },
    {
      "stateMutability": "nonpayable",
      "type": "function",
      "name": "increaseAllowance",
      "inputs": [
        {
          "name": "_spender",
          "type": "address"
        },
        {
          "name": "_added_value",
          "type": "uint256"
        }
      ],
      "outputs": [
        {
          "name": "",
          "type": "bool"
        }
      ]
    },
    {
      "stateMutability": "nonpayable",
      "type": "function",
      "name": "decreaseAllowance",
      "inputs": [
        {
          "name": "_spender",
          "type": "address"
        },
        {
          "name": "_subtracted_value",
          "type": "uint256"
        }
      ],
      "outputs": [
        {
          "name": "",
          "type": "bool"
        }
      ]
    },
    {
      "stateMutability": "view",
      "type": "function",
      "name": "balanceOf",
      "inputs": [
        {
          "name": "_user",
          "type": "address"
        }
      ],
      "outputs": [
        {
          "name": "",
          "type": "uint256"
        }
      ]
    },
    {
      "stateMutability": "view",
      "type": "function",
      "name": "adjusted_balance_of",
      "inputs": [
        {
          "name": "_user",
          "type": "address"
        }
      ],
      "outputs": [
        {
          "name": "",
          "type": "uint256"
        }
      ]
    },
    {
      "stateMutability": "view",
      "type": "function",
      "name": "totalSupply",
      "inputs": [],
      "outputs": [
        {
          "name": "",
          "type": "uint256"
        }
      ]
    },
    {
      "stateMutability": "view",
      "type": "function",
      "name": "delegated_balance",
      "inputs": [
        {
          "name": "_user",
          "type": "address"
        }
      ],
      "outputs": [
        {
          "name": "",
          "type": "uint256"
        }
      ]
    },
    {
      "stateMutability": "view",
      "type": "function",
      "name": "received_balance",
      "inputs": [
        {
          "name": "_user",
          "type": "address"
        }
      ],
      "outputs": [
        {
          "name": "",
          "type": "uint256"
        }
      ]
    },
    {
      "stateMutability": "view",
      "type": "function",
      "name": "delegable_balance",
      "inputs": [
        {
          "name": "_user",
          "type": "address"
        }
      ],
      "outputs": [
        {
          "name": "",
          "type": "uint256"
        }
      ]
    },
    {
      "stateMutability": "pure",
      "type": "function",
      "name": "name",
      "inputs": [],
      "outputs": [
        {
          "name": "",
          "type": "string"
        }
      ]
    },
    {
      "stateMutability": "pure",
      "type": "function",
      "name": "symbol",
      "inputs": [],
      "outputs": [
        {
          "name": "",
          "type": "string"
        }
      ]
    },
    {
      "stateMutability": "pure",
      "type": "function",
      "name": "decimals",
      "inputs": [],
      "outputs": [
        {
          "name": "",
          "type": "uint8"
        }
      ]
    },
    {
      "stateMutability": "pure",
      "type": "function",
      "name": "DOMAIN_SEPARATOR",
      "inputs": [],
      "outputs": [
        {
          "name": "",
          "type": "bytes32"
        }
      ]
    },
    {
      "stateMutability": "pure",
      "type": "function",
      "name": "VE",
      "inputs": [],
      "outputs": [
        {
          "name": "",
          "type": "address"
        }
      ]
    },
    {
      "stateMutability": "view",
      "type": "function",
      "name": "allowance",
      "inputs": [
        {
          "name": "arg0",
          "type": "address"
        },
        {
          "name": "arg1",
          "type": "address"
        }
      ],
      "outputs": [
        {
          "name": "",
          "type": "uint256"
        }
      ]
    },
    {
      "stateMutability": "view",
      "type": "function",
      "name": "nonces",
      "inputs": [
        {
          "name": "arg0",
          "type": "address"
        }
      ],
      "outputs": [
        {
          "name": "",
          "type": "uint256"
        }
      ]
    },
    {
      "stateMutability": "view",
      "type": "function",
      "name": "delegated",
      "inputs": [
        {
          "name": "arg0",
          "type": "address"
        }
      ],
      "outputs": [
        {
          "name": "",
          "type": "tuple",
          "components": [
            {
              "name": "bias",
              "type": "uint256"
            },
            {
              "name": "slope",
              "type": "uint256"
            },
            {
              "name": "ts",
              "type": "uint256"
            }
          ]
        }
      ]
    },
    {
      "stateMutability": "view",
      "type": "function",
      "name": "delegated_slope_changes",
      "inputs": [
        {
          "name": "arg0",
          "type": "address"
        },
        {
          "name": "arg1",
          "type": "uint256"
        }
      ],
      "outputs": [
        {
          "name": "",
          "type": "uint256"
        }
      ]
    },
    {
      "stateMutability": "view",
      "type": "function",
      "name": "received",
      "inputs": [
        {
          "name": "arg0",
          "type": "address"
        }
      ],
      "outputs": [
        {
          "name": "",
          "type": "tuple",
          "components": [
            {
              "name": "bias",
              "type": "uint256"
            },
            {
              "name": "slope",
              "type": "uint256"
            },
            {
              "name": "ts",
              "type": "uint256"
            }
          ]
        }
      ]
    },
    {
      "stateMutability": "view",
      "type": "function",
      "name": "received_slope_changes",
      "inputs": [
        {
          "name": "arg0",
          "type": "address"
        },
        {
          "name": "arg1",
          "type": "uint256"
        }
      ],
      "outputs": [
        {
          "name": "",
          "type": "uint256"
        }
      ]
    }
  ],
  "transactionHash": "0x8b42affad17b7074e1b9ce36f6f975c9eea5b704182e797215a40cb61b7ad304",
  "args": [
    "0x0E1503A1Df910263A09a97916b65451CE4c438a7"
  ],
  "numDeployments": 1,
  "bytecode": "0x60206119f66000396000518060a01c6119f1576040527fd87cd6ef79d4e2b95e15ce8abf732db51ec771f1ca2edccf22a46c729ac56472610160527f576a762e50ddf4c74071046cf7b508f5d87c41676ea1b6c8bf07aba60e5b6306610180527fd61c1033330c368dfc371f5b1e7133f4794e104642e5a3c87aba7a6a3441c8ff6101a052466101c052306101e05260014303406102005260c06101405261014080516020820120905063000018f1526040516300001911523360007fddf252ad1be2c89b69c2b068fc378daa952ba7f163c4a11628f55a4df523b3ef600060605260206060a36118f16100ff6300000000396118f16040016300000000f3600436101561000d57610c87565b60003560e01c346118ec5763a2114cdb811861002d573361032052610048565b63b4b3c2498118610154576064358060a01c6118ec57610320525b6004358060a01c6118ec576103005233610320511461012c57600061032051602052600052604060002080336020526000526040600020905054610340527fffffffffffffffffffffffffffffffffffffffffffffffffffffffffffffffff610340511461012c57610340516024358082106118ec578082039050905060006103205160205260005260406000208033602052600052604060002090505533610320517f8c5be1e5ebec7d5bd14f71427d1e84f3dd0314c0f7b2291e5b200ac8c7c3b925610340516024358082106118ec5780820390509050610360526020610360a35b6103205161018052610300516101a0526024356101c0526044356101e05261015261122a565b005b637de6806181186101fa576004358060a01c6118ec576101805260026101805160205260005260406000206101805160405260016060526101966101a0610e6c565b6101a0805182556020810151600183015560408101516002830155505060046101805160205260005260406000206101805160405260006060526101db6101a0610e6c565b6101a08051825560208101516001830155604081015160028301555050005b63095ea7b38118610271576004358060a01c6118ec576040526024356000336020526000526040600020806040516020526000526040600020905055604051337f8c5be1e5ebec7d5bd14f71427d1e84f3dd0314c0f7b2291e5b200ac8c7c3b92560243560605260206060a3600160605260206060f35b63d505accf8118610585576004358060a01c6118ec576040526024358060a01c6118ec576060526084358060081c6118ec576080526000604051141561030e57601160a0527f61646472657373206e6f742076616c696400000000000000000000000000000060c05260a05060a0518060c00181600003601f1636823750506308c379a06060526020608052601f19601f60a0510116604401607cfd5b60643542111561037557600e60a0527f74696d65206e6f742076616c696400000000000000000000000000000000000060c05260a05060a0518060c00181600003601f1636823750506308c379a06060526020608052601f19601f60a0510116604401607cfd5b600160405160205260005260406000205460a05260006002610360527f19010000000000000000000000000000000000000000000000000000000000006103805261036080516020820183610580018151815250508083019250505060206118f16000396000518161058001526020810190507f6e71edae12b1b97f4d1f60370fef10105fa2faae0126114a169c64845d6126c96104a0526040516104c0526060516104e0526044356105005260a051610520526064356105405260c0610480526104808051602082012090508161058001526020810190508061056052610560905080516020820120905060c05260405160c05160e0526080516101005260a4356101205260c4356101405260206000608060e060015afa50600051146104fd576013610180527f766572696669636174696f6e206661696c6564000000000000000000000000006101a0526101805061018051806101a00181600003601f1636823750506308c379a061014052602061016052601f19601f61018051011660440161015cfd5b6044356000604051602052600052604060002080606051602052600052604060002090505560a051600181818301106118ec578082019050905060016040516020526000526040600020556060516040517f8c5be1e5ebec7d5bd14f71427d1e84f3dd0314c0f7b2291e5b200ac8c7c3b92560443560e052602060e0a3600160e052602060e0f35b63395093518118610632576004358060a01c6118ec57604052600033602052600052604060002080604051602052600052604060002090505460243581818301106118ec57808201905090506060526060516000336020526000526040600020806040516020526000526040600020905055604051337f8c5be1e5ebec7d5bd14f71427d1e84f3dd0314c0f7b2291e5b200ac8c7c3b92560605160805260206080a3600160805260206080f35b63a457c2d781186106dd576004358060a01c6118ec5760405260003360205260005260406000208060405160205260005260406000209050546024358082106118ec57808203905090506060526060516000336020526000526040600020806040516020526000526040600020905055604051337f8c5be1e5ebec7d5bd14f71427d1e84f3dd0314c0f7b2291e5b200ac8c7c3b92560605160805260206080a3600160805260206080f35b6370a082318118610711576004358060a01c6118ec57610240526020610240516101405261070c6102606110cc565b610260f35b63bbf7408a8118610745576004358060a01c6118ec5761024052602061024051610140526107406102606110cc565b610260f35b6318160ddd811861078a5760206318160ddd604052602060406004605c60206119116000396000515afa61077e573d600060003e3d6000fd5b60203d106118ec576040f35b630a767cc6811861081f576004358060a01c6118ec57610140526101405160405260016060526107bb6101c0610c8d565b6101c080516101605260208101516101805260408101516101a052506101605161018051426101a0518082106118ec57808203905090508082028215828483041417156118ec57905090508082106118ec57808203905090506101c05260206101c0f35b6322c18bb681186108b4576004358060a01c6118ec57610140526101405160405260006060526108506101c0610c8d565b6101c080516101605260208101516101805260408101516101a052506101605161018051426101a0518082106118ec57808203905090508082028215828483041417156118ec57905090508082106118ec57808203905090506101c05260206101c0f35b63ca830946811861099a576004358060a01c6118ec57610140526101405160405260016060526108e56101c0610c8d565b6101c080516101605260208101516101805260408101516101a052506370a082316101c052610140516101e05260206101c060246101dc60206119116000396000515afa610938573d600060003e3d6000fd5b60203d106118ec576101c0516101605161018051426101a0518082106118ec57808203905090508082028215828483041417156118ec57905090508082106118ec57808203905090508082106118ec5780820390509050610200526020610200f35b6306fdde038118610a1a5760208060805260136040527f566f74652d457363726f77656420426f6f7374000000000000000000000000006060526040816080018151808252602083016020830181518152505050805180602083010181600003601f163682375050601f19601f8251602001011690509050810190506080f35b6395d89b418118610a9a5760208060805260076040527f7665426f6f7374000000000000000000000000000000000000000000000000006060526040816080018151808252602083016020830181518152505050805180602083010181600003601f163682375050601f19601f8251602001011690509050810190506080f35b63313ce5678118610ab057601260405260206040f35b633644e5158118610acf5760206118f160003960005160405260206040f35b63c863657d8118610aee57602061191160003960005160405260206040f35b63dd62ed3e8118610b40576004358060a01c6118ec576040526024358060a01c6118ec576060526000604051602052600052604060002080606051602052600052604060002090505460805260206080f35b637ecebe008118610b73576004358060a01c6118ec57604052600160405160205260005260406000205460605260206060f35b63f3598ad98118610bb8576004358060a01c6118ec576040526002604051602052600052604060002080546060526001810154608052600281015460a0525060606060f35b63356a46808118610bfc576004358060a01c6118ec576040526003604051602052600052604060002080602435602052600052604060002090505460605260206060f35b63df0cb9348118610c41576004358060a01c6118ec576040526004604051602052600052604060002080546060526001810154608052600281015460a0525060606060f35b635ad600c98118610c85576004358060a01c6118ec576040526005604051602052600052604060002080602435602052600052604060002090505460605260206060f35b505b60006000fd5b606036608037606051610cc557600460405160205260005260406000208054608052600181015460a052600281015460c05250610cec565b600260405160205260005260406000208054608052600181015460a052600281015460c052505b60c051610cf8574260c0525b4260c05118610d1c57608051815260a051602082015260c051604082015250610e6a565b60c05162093a808082049050905062093a808082028215828483041417156118ec579050905060e052600060ff905b806101005260e05162093a8081818301106118ec578082019050905060e05260006101205260e0514210610dd657606051610dab57600560405160205260005260406000208060e051602052600052604060002090505461012052610ddb565b600360405160205260005260406000208060e051602052600052604060002090505461012052610ddb565b4260e0525b60805160a05160e05160c0518082106118ec57808203905090508082028215828483041417156118ec57905090508082106118ec578082039050905060805260a051610120518082106118ec578082039050905060a05260e05160c0524260e05118610e4657610e51565b600101818118610d4b575b5050608051815260a051602082015260c0516040820152505b565b606036608037606051610ea457600460405160205260005260406000208054608052600181015460a052600281015460c05250610ecb565b600260405160205260005260406000208054608052600181015460a052600281015460c052505b60c051610ed7574260c0525b4260c05118610efb57608051815260a051602082015260c0516040820152506110ca565b600060e05260c05162093a808082049050905062093a808082028215828483041417156118ec579050905061010052600060ff905b80610120526101005162093a8081818301106118ec578082019050905061010052600061014052610100514210610fc057606051610f9457600560405160205260005260406000208061010051602052600052604060002090505461014052610fc6565b600360405160205260005260406000208061010051602052600052604060002090505461014052610fc6565b42610100525b60a0516101005160c0518082106118ec57808203905090508082028215828483041417156118ec57905090506101605260e0516101605181818301106118ec578082019050905060e052608051610160518082106118ec578082039050905060805260a051610140518082106118ec578082039050905060a0526101005160c05242610100511861105657611061565b600101818118610f30575b50506060511561107257600061107a565b600060e05114155b156110b35760006040517fddf252ad1be2c89b69c2b068fc378daa952ba7f163c4a11628f55a4df523b3ef60e051610120526020610120a35b608051815260a051602082015260c0516040820152505b565b6370a0823161018052610140516101a0526020610180602461019c60206119116000396000515afa611103573d600060003e3d6000fd5b60203d106118ec57610180516101605261014051604052600160605261112a6101e0610c8d565b6101e080516101805260208101516101a05260408101516101c0525061016051610180516101a051426101c0518082106118ec57808203905090508082028215828483041417156118ec57905090508082106118ec57808203905090508082106118ec5780820390509050610160526101405160405260006060526111b06101e0610c8d565b6101e080516101805260208101516101a05260408101516101c0525061016051610180516101a051426101c0518082106118ec57808203905090508082028215828483041417156118ec57905090508082106118ec578082039050905081818301106118ec57808201905090506101605261016051815250565b6101a051610180516102205260006102405260016102005260006002905b60208102610220015183186112625760006102005261126d565b600101818118611248575b50506102005190506112df576012610260527f7265636569766572206e6f742076616c69640000000000000000000000000000610280526102605061026051806102800181600003601f1636823750506308c379a061022052602061024052601f19601f61026051011660440161023cfd5b60006101c0511415611351576010610200527f616d6f756e74206e6f742076616c696400000000000000000000000000000000610220526102005061020051806102200181600003601f1636823750506308c379a06101c05260206101e052601f19601f6102005101166044016101dcfd5b426101e051116113c1576008610200527f6d696e2074696d65000000000000000000000000000000000000000000000000610220526102005061020051806102200181600003601f1636823750506308c379a06101c05260206101e052601f19601f6102005101166044016101dcfd5b6101e05162093a80808206905090501561143b57600e610200527f74696d65206e6f742076616c6964000000000000000000000000000000000000610220526102005061020051806102200181600003601f1636823750506308c379a06101c05260206101e052601f19601f6102005101166044016101dcfd5b63adc635896102005261018051610220526020610200602461021c60206119116000396000515afa611472573d600060003e3d6000fd5b60203d106118ec57610200516101e05111156114ee576008610240527f6d61782074696d65000000000000000000000000000000000000000000000000610260526102405061024051806102600181600003601f1636823750506308c379a061020052602061022052601f19601f61024051011660440161021cfd5b610180516040526001606052611505610260610e6c565b610260805161020052602081015161022052604081015161024052506370a082316102605261018051610280526020610260602461027c60206119116000396000515afa611558573d600060003e3d6000fd5b60203d106118ec5761026051610200516102205142610240518082106118ec57808203905090508082028215828483041417156118ec57905090508082106118ec57808203905090508082106118ec57808203905090506101c051111561161f5760106102a0527f616d6f756e74206e6f742076616c6964000000000000000000000000000000006102c0526102a0506102a051806102c00181600003601f1636823750506308c379a061026052602061028052601f19601f6102a051011660440161027cfd5b6101c0516101e051428082106118ec57808203905090508080156118ec5782049050905061026052610260516101e051428082106118ec57808203905090508082028215828483041417156118ec579050905061028052610200516102805181818301106118ec578082019050905061020052610220516102605181818301106118ec5780820190509050610220526002610180516020526000526040600020610200518155610220516001820155610240516002820155506003610180516020526000526040600020806101e0516020526000526040600020905080546102605181818301106118ec57808201905090508155506101a051604052600060605261172b6102a0610e6c565b6102a080516102005260208101516102205260408101516102405250610200516102805181818301106118ec578082019050905061020052610220516102605181818301106118ec57808201905090506102205260046101a05160205260005260406000206102005181556102205160018201556102405160028201555060056101a0516020526000526040600020806101e0516020526000526040600020905080546102605181818301106118ec57808201905090508155506101a051610180517fddf252ad1be2c89b69c2b068fc378daa952ba7f163c4a11628f55a4df523b3ef6101c0516102a05260206102a0a36101a051610180517f9c0aa947e19ab1e2400ff167e2cb40414b570fdaf31ab646a16749ca3c4301ad610280516102a052610260516102c052426102e05260606102a0a360046101805160205260005260406000206101805160405260006060526118886102a0610e6c565b6102a0805182556020810151600183015560408101516002830155505060026101a05160205260005260406000206101a05160405260016060526118cd6102a0610e6c565b6102a08051825560208101516001830155604081015160028301555050565b600080fd005b600080fd"
}