{
  "address": "0x92114BBb3460c1846FEE2cDbD2E8e3c8CA199f15",
  "abi": [
    {
      "name": "CommitAdmin",
      "inputs": [
        {
          "name": "admin",
          "type": "address",
          "indexed": false
        }
      ],
      "anonymous": false,
      "type": "event"
    },
    {
      "name": "ApplyAdmin",
      "inputs": [
        {
          "name": "admin",
          "type": "address",
          "indexed": false
        }
      ],
      "anonymous": false,
      "type": "event"
    },
    {
      "name": "ToggleAllowCheckpointToken",
      "inputs": [
        {
          "name": "toggle_flag",
          "type": "bool",
          "indexed": false
        }
      ],
      "anonymous": false,
      "type": "event"
    },
    {
      "name": "CheckpointToken",
      "inputs": [
        {
          "name": "time",
          "type": "uint256",
          "indexed": false
        },
        {
          "name": "tokens",
          "type": "uint256",
          "indexed": false
        }
      ],
      "anonymous": false,
      "type": "event"
    },
    {
      "name": "Claimed",
      "inputs": [
        {
          "name": "recipient",
          "type": "address",
          "indexed": true
        },
        {
          "name": "amount",
          "type": "uint256",
          "indexed": false
        },
        {
          "name": "claim_epoch",
          "type": "uint256",
          "indexed": false
        },
        {
          "name": "max_epoch",
          "type": "uint256",
          "indexed": false
        }
      ],
      "anonymous": false,
      "type": "event"
    },
    {
      "stateMutability": "nonpayable",
      "type": "constructor",
      "inputs": [
        {
          "name": "_voting_escrow",
          "type": "address"
        },
        {
          "name": "_start_time",
          "type": "uint256"
        },
        {
          "name": "_token",
          "type": "address"
        },
        {
          "name": "_admin",
          "type": "address"
        },
        {
          "name": "_emergency_return",
          "type": "address"
        }
      ],
      "outputs": []
    },
    {
      "stateMutability": "nonpayable",
      "type": "function",
      "name": "commit_admin",
      "inputs": [
        {
          "name": "_addr",
          "type": "address"
        }
      ],
      "outputs": []
    },
    {
      "stateMutability": "nonpayable",
      "type": "function",
      "name": "apply_admin",
      "inputs": [],
      "outputs": []
    },
    {
      "stateMutability": "nonpayable",
      "type": "function",
      "name": "kill_me",
      "inputs": [],
      "outputs": []
    },
    {
      "stateMutability": "nonpayable",
      "type": "function",
      "name": "recover_balance",
      "inputs": [
        {
          "name": "_coin",
          "type": "address"
        }
      ],
      "outputs": [
        {
          "name": "",
          "type": "bool"
        }
      ]
    },
    {
      "stateMutability": "view",
      "type": "function",
      "name": "ve_for_at",
      "inputs": [
        {
          "name": "_user",
          "type": "address"
        },
        {
          "name": "_timestamp",
          "type": "uint256"
        }
      ],
      "outputs": [
        {
          "name": "",
          "type": "uint256"
        }
      ]
    },
    {
      "stateMutability": "nonpayable",
      "type": "function",
      "name": "checkpoint_token",
      "inputs": [],
      "outputs": []
    },
    {
      "stateMutability": "nonpayable",
      "type": "function",
      "name": "checkpoint_total_supply",
      "inputs": [],
      "outputs": []
    },
    {
      "stateMutability": "nonpayable",
      "type": "function",
      "name": "claim",
      "inputs": [],
      "outputs": [
        {
          "name": "",
          "type": "uint256"
        }
      ]
    },
    {
      "stateMutability": "nonpayable",
      "type": "function",
      "name": "claim",
      "inputs": [
        {
          "name": "_addr",
          "type": "address"
        }
      ],
      "outputs": [
        {
          "name": "",
          "type": "uint256"
        }
      ]
    },
    {
      "stateMutability": "nonpayable",
      "type": "function",
      "name": "claim",
      "inputs": [
        {
          "name": "_addr",
          "type": "address"
        },
        {
          "name": "_lock",
          "type": "bool"
        }
      ],
      "outputs": [
        {
          "name": "",
          "type": "uint256"
        }
      ]
    },
    {
      "stateMutability": "nonpayable",
      "type": "function",
      "name": "claim_many",
      "inputs": [
        {
          "name": "_receivers",
          "type": "address[20]"
        }
      ],
      "outputs": [
        {
          "name": "",
          "type": "bool"
        }
      ]
    },
    {
      "stateMutability": "nonpayable",
      "type": "function",
      "name": "queueNewRewards",
      "inputs": [
        {
          "name": "_amount",
          "type": "uint256"
        }
      ],
      "outputs": [
        {
          "name": "",
          "type": "bool"
        }
      ]
    },
    {
      "stateMutability": "view",
      "type": "function",
      "name": "start_time",
      "inputs": [],
      "outputs": [
        {
          "name": "",
          "type": "uint256"
        }
      ]
    },
    {
      "stateMutability": "view",
      "type": "function",
      "name": "time_cursor",
      "inputs": [],
      "outputs": [
        {
          "name": "",
          "type": "uint256"
        }
      ]
    },
    {
      "stateMutability": "view",
      "type": "function",
      "name": "time_cursor_of",
      "inputs": [
        {
          "name": "arg0",
          "type": "address"
        }
      ],
      "outputs": [
        {
          "name": "",
          "type": "uint256"
        }
      ]
    },
    {
      "stateMutability": "view",
      "type": "function",
      "name": "user_epoch_of",
      "inputs": [
        {
          "name": "arg0",
          "type": "address"
        }
      ],
      "outputs": [
        {
          "name": "",
          "type": "uint256"
        }
      ]
    },
    {
      "stateMutability": "view",
      "type": "function",
      "name": "last_token_time",
      "inputs": [],
      "outputs": [
        {
          "name": "",
          "type": "uint256"
        }
      ]
    },
    {
      "stateMutability": "view",
      "type": "function",
      "name": "tokens_per_week",
      "inputs": [
        {
          "name": "arg0",
          "type": "uint256"
        }
      ],
      "outputs": [
        {
          "name": "",
          "type": "uint256"
        }
      ]
    },
    {
      "stateMutability": "view",
      "type": "function",
      "name": "voting_escrow",
      "inputs": [],
      "outputs": [
        {
          "name": "",
          "type": "address"
        }
      ]
    },
    {
      "stateMutability": "view",
      "type": "function",
      "name": "token",
      "inputs": [],
      "outputs": [
        {
          "name": "",
          "type": "address"
        }
      ]
    },
    {
      "stateMutability": "view",
      "type": "function",
      "name": "total_received",
      "inputs": [],
      "outputs": [
        {
          "name": "",
          "type": "uint256"
        }
      ]
    },
    {
      "stateMutability": "view",
      "type": "function",
      "name": "token_last_balance",
      "inputs": [],
      "outputs": [
        {
          "name": "",
          "type": "uint256"
        }
      ]
    },
    {
      "stateMutability": "view",
      "type": "function",
      "name": "ve_supply",
      "inputs": [
        {
          "name": "arg0",
          "type": "uint256"
        }
      ],
      "outputs": [
        {
          "name": "",
          "type": "uint256"
        }
      ]
    },
    {
      "stateMutability": "view",
      "type": "function",
      "name": "admin",
      "inputs": [],
      "outputs": [
        {
          "name": "",
          "type": "address"
        }
      ]
    },
    {
      "stateMutability": "view",
      "type": "function",
      "name": "future_admin",
      "inputs": [],
      "outputs": [
        {
          "name": "",
          "type": "address"
        }
      ]
    },
    {
      "stateMutability": "view",
      "type": "function",
      "name": "emergency_return",
      "inputs": [],
      "outputs": [
        {
          "name": "",
          "type": "address"
        }
      ]
    },
    {
      "stateMutability": "view",
      "type": "function",
      "name": "is_killed",
      "inputs": [],
      "outputs": [
        {
          "name": "",
          "type": "bool"
        }
      ]
    }
  ],
  "transactionHash": "0xaebaf242f6874941c6e71db4ba3adf08498d804df84624c98de26b884469dc95",
  "args": [
    "0x0E1503A1Df910263A09a97916b65451CE4c438a7",
    "1677187670",
    "0x306547aa4B4241D73ae1e7A5465D277d06C40cbC",
    "0x40282d3Cf4890D9806BC1853e97a59C93D813653",
    "0x40282d3Cf4890D9806BC1853e97a59C93D813653"
  ],
  "numDeployments": 1,
  "bytecode": "0x6f7fffffffffffffffffffffffffffffff60405260a061216961014039602061216960c03960c05160a01c61216457602060406121690160c03960c05160a01c61216457602060606121690160c03960c05160a01c61216457602060806121690160c03960c05160a01c612164576101605162127500808204905090506212750080820282158284830414171561216457809050905090506101e0526101e0516002556101e0516006556101e0516003556101805166038d7ea4c68008556101405166038d7ea4c68007556101a05166071afd498d000b556101c05166071afd498d000d5561214c56600436101561000d57610f57565b600035601c526f7fffffffffffffffffffffffffffffff6040526000513461205e5763b1d3db758114156101285760043560a01c61205e5766071afd498d000b543314610099576308c379a061014052602061016052600c610180527f756e617574686f72697a656400000000000000000000000000000000000000006101a05261018050606461015cfd5b66071afd498d000c54156100ec576308c379a061014052602061016052600f610180527f61646d696e206e6f742076616c696400000000000000000000000000000000006101a05261018050606461015cfd5b60043566071afd498d000c55600435610140527f59a407284ae6e2986675fa1400d6498af928ed01f4fd2dd6be4a2a8b4fc35b346020610140a1005b63c0e991a68114156102345766071afd498d000b543314610188576308c379a061014052602061016052600c610180527f756e617574686f72697a656400000000000000000000000000000000000000006101a05261018050606461015cfd5b600066071afd498d000c5414156101de576308c379a061014052602061016052600f610180527f61646d696e206e6f742076616c696400000000000000000000000000000000006101a05261018050606461015cfd5b66071afd498d000c54610140526101405166071afd498d000b55600066071afd498d000c5561014051610160527f756f845176805c8ebf249854e909627308157f63c96e470e44a9e8549ba6fb1e6020610160a1005b63e36988538114156103375766071afd498d000b543314610294576308c379a061014052602061016052600c610180527f756e617574686f72697a656400000000000000000000000000000000000000006101a05261018050606461015cfd5b600166071afd498d000e5566038d7ea4c680085461014052602061020060246370a0823161018052306101a05261019c610140515afa1561205e57601f3d111561205e576000506102005161016052600061016051111561033557610140516101605166071afd498d000d5461018052610140516101a052610160516101c0526101c0516101a05161018051600658016113ca565b61016052610140526000505b005b63db2f5f798114156104755760043560a01c61205e5766071afd498d000b5433146103a1576308c379a061014052602061016052600c610180527f756e617574686f72697a656400000000000000000000000000000000000000006101a05261018050606461015cfd5b66038d7ea4c680085460043514156103f8576308c379a061014052602061016052600f610180527f746f6b656e206e6f742076616c696400000000000000000000000000000000006101a05261018050606461015cfd5b60206101e060246370a0823161016052306101805261017c6004355afa1561205e57601f3d111561205e576000506101e051610140526101405166071afd498d000d546101605260043561018052610140516101a0526101a0516101805161016051600658016113ca565b61014052600050600160005260206000f35b63ace296fb8114156106585760043560a01c61205e5766038d7ea4c6800754610140526020610200602463010ae757610180526004356101a05261019c610140515afa1561205e57601f3d111561205e576000506102005161016052610140516101605161018051610140516101a052604060046101c0376101605161020052610200516101e0516101c0516101a05160065801611650565b6102605261018052610160526101405261026051610180526101a060806102c060446328d09d476102205260043561024052610180516102605261023c610140515afa1561205e57607f3d111561205e576102c080808080516103405250506020810190508080805161036052505060208101905080808051610380525050602081019050808080516103a052505050506000506103408051825280602001518260200152806040015182604001528060600151826060015250506000610220526101a0516101c0516024356101e05180821061205e5780820390509050604051811161205e578082028080600081121561060557195b607f1c61205e579050905090508082038080600081121561062257195b607f1c61205e5790509050905061022051808212156106415780610643565b815b905090506000811261205e5760005260206000f35b63811a40fe8114156106a95766071afd498d000b5433141561067b576001610695565b60065462015180818183011061205e578082019050905042115b5b1561205e5760065801610f5d565b600050005b63b21ed5028114156106c357600658016117c1565b600050005b634e71d92d8114156106df573361014052600061016052610748565b631e83409a81141561070b5760006101605260043560a01c61205e576020600461014037600050610748565b6392fd2daf8114156107435760043560a01c61205e57602060046101403760243560011c61205e576020602461016037600050610748565b6109f4565b60005461205e57600160005566071afd498d000e5461205e5761016051156107ba573361014051146107b9576308c379a06101805260206101a052600c6101c0527f756e617574686f72697a656400000000000000000000000000000000000000006101e0526101c050606461019cfd5b5b60035442106107e0576101405161016051600658016117c1565b61016052610140526000505b600654610180526101805162015180818183011061205e57808201905090504211156108305761014051610160516101805160065801610f5d565b61018052610160526101405260005042610180525b6101805162127500808204905090506212750080820282158284830414171561205e5780905090509050610180526101405161016051610180516101a051610140516101c05266038d7ea4c68007546101e0526101805161020052610200516101e0516101c05160065801611a52565b610260526101a052610180526101605261014052610260516101a05260006101a05118156109e25766038d7ea4c68008546101c05261016051156109695766038d7ea4c68007546101e05260206102a0604463095ea7b3610200526101e051610220526101a0516102405261021c60006101c0515af11561205e57601f3d111561205e576000506102a0506101e0513b1561205e57600060006044633a46273e6102005261014051610220526101a0516102405261021c60006101e0515af11561205e576109c2565b6101405161016051610180516101a0516101c051610140516101e0526101c051610200526101a0516102205261022051610200516101e051600658016113ca565b6101c0526101a0526101805261016052610140526000505b66038d7ea4c6800a80546101a05180821061205e57808203905090508155505b6101a051600052600060005560206000f35b637b935a23811415610c465760015461205e5760016001556000610120525b610120516004013560a01c61205e576020610120510161012052610280610120511015610a3f57610a13565b66071afd498d000e5461205e576003544210610a6257600658016117c1565b6000505b600654610140526101405162015180818183011061205e5780820190509050421115610aa2576101405160065801610f5d565b6101405260005042610140525b6101405162127500808204905090506212750080820282158284830414171561205e57809050905090506101405266038d7ea4c68007546101605266038d7ea4c68008546101805260006101a0526101e060006014818352015b60206101e05102600401356101c0526101c051610b1857610c08565b6101405161016051610180516101a0516101c0516101e051610200516101c051610220526101605161024052610140516102605261026051610240516102205160065801611a52565b6102c052610200526101e0526101c0526101a0526101805261016052610140526102c051610200526000610200511815610bf75760206102c0604463a9059cbb610220526101c05161024052610200516102605261023c6000610180515af11561205e57601f3d111561205e576000506102c0511561205e576101a0805161020051818183011061205e57808201905090508152505b5b8151600101808352811415610afc575b505060006101a0511815610c365766038d7ea4c6800a80546101a05180821061205e57808203905090508155505b6001600052600060015560206000f35b63590a41f5811415610d5b57600060043511610ca1576308c379a0610140526020610160526010610180527f616d6f756e74206e6f742076616c6964000000000000000000000000000000006101a05261018050606461015cfd5b66071afd498d000e5415610cf4576308c379a061014052602061016052600a610180527f776173206b696c6c6564000000000000000000000000000000000000000000006101a05261018050606461015cfd5b336101405266038d7ea4c6800854610160526004356101805261018051610160516101405160065801611505565b60005060065462015180818183011061205e5780820190509050421115610d505760065801610f5d565b6000505b600160005260206000f35b63834ee417811415610d735760025460005260206000f35b63127dcbd3811415610d8b5760035460005260206000f35b632a2a314b811415610dbb5760043560a01c61205e57600460043560e05260c052604060c0205460005260206000f35b63d5d46e88811415610deb5760043560a01c61205e57600560043560e05260c052604060c0205460005260206000f35b637f58e8f8811415610e035760065460005260206000f35b63edf59997811415610e3157600160043566038d7ea4c6800081101561205e57026007015460005260206000f35b63dfe05031811415610e4f5766038d7ea4c680075460005260206000f35b63fc0c546a811415610e6d5766038d7ea4c680085460005260206000f35b632f0c222e811415610e8b5766038d7ea4c680095460005260206000f35b6322b04bfc811415610ea95766038d7ea4c6800a5460005260206000f35b63d4dafba8811415610edd57600160043566038d7ea4c6800081101561205e570266038d7ea4c6800b015460005260206000f35b63f851a440811415610efb5766071afd498d000b5460005260206000f35b6317f7182a811415610f195766071afd498d000c5460005260206000f35b632c3f531e811415610f375766071afd498d000d5460005260206000f35b639c868ac0811415610f555766071afd498d000e5460005260206000f35b505b60006000fd5b61014052602061020060246370a0823161018052306101a05261019c66038d7ea4c68008545afa1561205e57601f3d111561205e5760005061020051610160526101605166038d7ea4c6800a5480821061205e5780820390509050610180526101605166038d7ea4c6800a556006546101a052426101a05180821061205e57808203905090506101c052426006556101a05162127500808204905090506212750080820282158284830414171561205e57809050905090506101e05260006102005261022060006014818352015b6101e05162127500818183011061205e5780820190509050610200526102005142101561111b576101c051611065576101a0514214611068565b60005b156110a45760016101e05166038d7ea4c6800081101561205e5702600701805461018051818183011061205e5780820190509050815550611112565b60016101e05166038d7ea4c6800081101561205e5702600701805461018051426101a05180821061205e578082039050905080820282158284830414171561205e57809050905090506101c05180801561205e57820490509050818183011061205e57808201905090508155505b611203566111e2565b6101c051611131576101a0516102005114611134565b60005b156111705760016101e05166038d7ea4c6800081101561205e5702600701805461018051818183011061205e57808201905090508155506111e1565b60016101e05166038d7ea4c6800081101561205e5702600701805461018051610200516101a05180821061205e578082039050905080820282158284830414171561205e57809050905090506101c05180801561205e57820490509050818183011061205e57808201905090508155505b5b610200516101a052610200516101e0525b815160010180835281141561102b575b5050426102205261018051610240527fce749457b74e10f393f2c6b1ce4261b78791376db5a3f501477a809f03f500d66040610220a161014051565b61018052610140526101605260006101a0526020610240600463900cf0cf6101e0526101fc610140515afa1561205e57601f3d111561205e57600050610240516101c0526101e060006080818352015b6101c0516101a051106112a1576113b8565b6101a0516101c051818183011061205e57808201905090506002818183011061205e5780820190509050600280820490509050610200526102206080610320602463d1febfb96102a052610200516102c0526102bc610140515afa1561205e57607f3d111561205e5761032080808080516103a0525050602081019050808080516103c0525050602081019050808080516103e05250506020810190508080805161040052505050506000506103a080518252806020015182602001528060400151826040015280606001518260600152505061016051610260511161138e57610200516101a0526113a7565b61020051600180821061205e57808203905090506101c0525b5b815160010180835281141561128f575b50506101a05160005260005161018051565b6101a05261014052610160526101805260006004610220527fa9059cbb000000000000000000000000000000000000000000000000000000006102405261022060048060208461028001018260208501600060045af15050805182019150506101405160208261028001015260208101905061018051602082610280010152602081019050806102805261028090508051602001806103208284600060045af11561205e57505060206103e0610320516103406000610160515af11561205e5760203d8082111561149b578061149d565b815b905090506103c0526103c08051602001806101c08284600060045af11561205e57505060006101c05118156114ff576101c0806020015160008251806020901361205e578091901261205e57806020036101000a82049050905090501561205e575b6101a051565b6101a05261014052610160526101805260006004610220527f23b872dd000000000000000000000000000000000000000000000000000000006102405261022060048060208461028001018260208501600060045af1505080518201915050610140516020826102800101526020810190503060208261028001015260208101905061018051602082610280010152602081019050806102805261028090508051602001806103408284600060045af11561205e5750506020610420610340516103606000610160515af11561205e5760203d808211156115e657806115e8565b815b90509050610400526104008051602001806101c08284600060045af11561205e57505060006101c051181561164a576101c0806020015160008251806020901361205e578091901261205e57806020036101000a82049050905090501561205e575b6101a051565b6101c0526101405261016052610180526101a05260006101e0526101a0516102005261022060006080818352015b610200516101e05110611690576117af565b6101e05161020051818183011061205e57808201905090506002818183011061205e578082019050905060028082049050905061024052610260608061038060446328d09d476102e052610160516103005261024051610320526102fc610140515afa1561205e57607f3d111561205e5761038080808080516104005250506020810190508080805161042052505060208101905080808051610440525050602081019050808080516104605250505050600050610400805182528060200151826020015280604001518260400152806060015182606001525050610180516102a0511161178557610240516101e05261179e565b61024051600180821061205e5780820390509050610200525b5b815160010180835281141561167e575b50506101e0516000526000516101c051565b6101405266038d7ea4c680075461016052600354610180524262127500808204905090506212750080820282158284830414171561205e57809050905090506101a052610160513b1561205e5760006000600463c2c4c5c16101c0526101dc6000610160515af11561205e5760006101c0526101e060006014818352015b6101a05161018051111561185657611a4356611a16565b6101405161016051610180516101a0516101c0516101e051610200516101605161022052610180516102405261024051610220516006580161123f565b6102a052610200526101e0526101c0526101a0526101805261016052610140526102a051610200526102206080610320602463d1febfb96102a052610200516102c0526102bc610160515afa1561205e57607f3d111561205e5761032080808080516103a0525050602081019050808080516103c0525050602081019050808080516103e05250506020810190508080805161040052505050506000506103a080518252806020015182602001528060400151826040015280606001518260600152505060006102a0526102605161018051111561198f57610180516102605180821061205e5780820390509050604051811161205e576102a0525b61022051610240516102a051808202808060008112156119ab57195b607f1c61205e57905090509050808203808060008112156119c857195b607f1c61205e579050905090506101c051808212156119e757806119e9565b815b905090506000811261205e5760016101805166038d7ea4c6800081101561205e570266038d7ea4c6800b01555b610180805162127500818183011061205e57808201905090508152505b815160010180835281141561183f575b50506101805160035561014051565b6101a0526101405261016052610180526040366101c03760206102a0602463010ae75761022052610140516102405261023c610160515afa1561205e57601f3d111561205e576000506102a051610200526002546102205261020051611ac05760006000526000516101a051565b60046101405160e05260c052604060c020546102405261024051611b70576101405161016051610180516101a0516101c0516101e05161020051610220516102405161016051610260526101405161028052610220516102a052610200516102c0526102c0516102a051610280516102605160065801611650565b610320526102405261022052610200526101e0526101c0526101a052610180526101605261014052610320516101c052611b87565b60056101405160e05260c052604060c020546101c0525b6101c051611b965760016101c0525b610260608061038060446328d09d476102e05261014051610300526101c051610320526102fc610160515afa1561205e57607f3d111561205e576103808080808051610400525050602081019050808080516104205250506020810190508080805161044052505060208101905080808051610460525050505060005061040080518252806020015182602001528060400151826040015280606001518260600152505061024051611c95576102a05162127500818183011061205e5780820190509050600180821061205e578082039050905062127500808204905090506212750080820282158284830414171561205e5780905090509050610240525b610180516102405110611cb05760006000526000516101a051565b61022051610240511015611cc75761022051610240525b60a0366102e03761038060006032818352015b610180516102405110611cec57611fad565b6102a0516102405110611d0857610200516101c0511115611d0b565b60005b15611e18576101c080516001818183011061205e57808201905090508152506102e0610260805182528060200151826020015280604001518260400152806060015182606001525050610200516101c0511115611d6e5760803661026037611e13565b610260608061044060446328d09d476103a052610140516103c0526101c0516103e0526103bc610160515afa1561205e57607f3d111561205e5761044080808080516104c0525050602081019050808080516104e0525050602081019050808080516105005250506020810190508080805161052052505050506000506104c08051825280602001518260200152806040015182604001528060600151826060015250505b611f9c565b610240516103205180821061205e5780820390509050604051811161205e576103a0526102e0516103a0516103005180820280806000811215611e5757195b607f1c61205e5790509050905080820380806000811215611e7457195b607f1c61205e579050905090506103605180821215611e935780611e95565b815b905090506000811261205e576103c0526103c051611ebb57610200516101c05111611ebe565b60005b15611ec857611fad565b60006103c0511115611efc57600060016102405166038d7ea4c6800081101561205e570266038d7ea4c6800b015411611eff565b60005b15611f7f576101e080516103c05160016102405166038d7ea4c6800081101561205e57026007015480820282158284830414171561205e578090509050905060016102405166038d7ea4c6800081101561205e570266038d7ea4c6800b015480801561205e57820490509050818183011061205e57808201905090508152505b610240805162127500818183011061205e57808201905090508152505b5b8151600101808352811415611cda575b5050610200516101c051600180821061205e578082039050905080821115611fd55780611fd7565b815b905090506101c0526101c05160056101405160e05260c052604060c020556102405160046101405160e05260c052604060c020556101e051610380526101c0516103a052610200516103c052610140517f9cdcf2f7714cca3508c7f0110b04a90a80a3a8dd0e35de99689db74d28c5383e6060610380a26101e0516000526000516101a051565b600080fd5b6100e961214c036100e96000396100e961214c036000f35b600080fd"
}