{
  "address": "0x29E459B9b6921919374b8f093301AC01Cd70D00d",
  "abi": [
    {
      "inputs": [
        {
          "internalType": "address",
          "name": "_token",
          "type": "address"
        },
        {
          "internalType": "address",
          "name": "_controller",
          "type": "address"
        }
      ],
      "stateMutability": "nonpayable",
      "type": "constructor"
    },
    {
      "anonymous": false,
      "inputs": [
        {
          "indexed": true,
          "internalType": "address",
          "name": "previousOwner",
          "type": "address"
        },
        {
          "indexed": true,
          "internalType": "address",
          "name": "newOwner",
          "type": "address"
        }
      ],
      "name": "OwnershipTransferred",
      "type": "event"
    },
    {
      "anonymous": false,
      "inputs": [
        {
          "indexed": true,
          "internalType": "address",
          "name": "gauge",
          "type": "address"
        },
        {
          "indexed": true,
          "internalType": "address",
          "name": "sender",
          "type": "address"
        },
        {
          "indexed": false,
          "internalType": "uint256",
          "name": "pushed",
          "type": "uint256"
        }
      ],
      "name": "PushedRewards",
      "type": "event"
    },
    {
      "inputs": [],
      "name": "WEEK",
      "outputs": [
        {
          "internalType": "int256",
          "name": "",
          "type": "int256"
        }
      ],
      "stateMutability": "view",
      "type": "function"
    },
    {
      "inputs": [
        {
          "internalType": "address",
          "name": "gaugeAddr",
          "type": "address"
        },
        {
          "internalType": "uint256",
          "name": "timestamp",
          "type": "uint256"
        }
      ],
      "name": "availableRewards",
      "outputs": [
        {
          "internalType": "uint256",
          "name": "",
          "type": "uint256"
        }
      ],
      "stateMutability": "view",
      "type": "function"
    },
    {
      "inputs": [],
      "name": "controller",
      "outputs": [
        {
          "internalType": "address",
          "name": "",
          "type": "address"
        }
      ],
      "stateMutability": "view",
      "type": "function"
    },
    {
      "inputs": [],
      "name": "owner",
      "outputs": [
        {
          "internalType": "address",
          "name": "",
          "type": "address"
        }
      ],
      "stateMutability": "view",
      "type": "function"
    },
    {
      "inputs": [
        {
          "internalType": "address",
          "name": "gaugeAddr",
          "type": "address"
        },
        {
          "internalType": "uint256",
          "name": "timestamp",
          "type": "uint256"
        }
      ],
      "name": "pushRewards",
      "outputs": [
        {
          "internalType": "uint256",
          "name": "",
          "type": "uint256"
        }
      ],
      "stateMutability": "nonpayable",
      "type": "function"
    },
    {
      "inputs": [
        {
          "internalType": "address[]",
          "name": "gaugeAddresses",
          "type": "address[]"
        },
        {
          "internalType": "uint256",
          "name": "timestamp",
          "type": "uint256"
        }
      ],
      "name": "pushRewardsToMany",
      "outputs": [],
      "stateMutability": "nonpayable",
      "type": "function"
    },
    {
      "inputs": [],
      "name": "renounceOwnership",
      "outputs": [],
      "stateMutability": "pure",
      "type": "function"
    },
    {
      "inputs": [],
      "name": "token",
      "outputs": [
        {
          "internalType": "address",
          "name": "",
          "type": "address"
        }
      ],
      "stateMutability": "view",
      "type": "function"
    },
    {
      "inputs": [
        {
          "internalType": "address",
          "name": "newOwner",
          "type": "address"
        }
      ],
      "name": "transferOwnership",
      "outputs": [],
      "stateMutability": "nonpayable",
      "type": "function"
    }
  ],
  "transactionHash": "0x1a52183f6bdbad81cd9d040fa189efb46b1200fd59add77fb43655019b549b09",
  "args": [
    "0x306547aa4B4241D73ae1e7A5465D277d06C40cbC",
    "0x4e6cb0b38cFAEF4e4E4a64259Cf320a67463Fe87"
  ],
  "numDeployments": 1,
  "solcInputHash": "4526ca29d0ddf27b570edf5c5cf379cc",
  "bytecode": "0x608060405234801561001057600080fd5b50604051610ba8380380610ba883398101604081905261002f9161017c565b61003833610110565b600180556001600160a01b0382166100895760405162461bcd60e51b815260206004820152600f60248201526e1d1bdad95b881b9bdd081d985b1a59608a1b60448201526064015b60405180910390fd5b6001600160a01b0381166100df5760405162461bcd60e51b815260206004820152601460248201527f636f6e74726f6c6c6572206e6f742076616c69640000000000000000000000006044820152606401610080565b600280546001600160a01b039384166001600160a01b031991821617909155600380549290931691161790556101af565b600080546001600160a01b038381166001600160a01b0319831681178455604051919092169283917f8be0079c531659141344cd1fd0a4f28419497f9722a3daafe3b4186f6b6457e09190a35050565b80516001600160a01b038116811461017757600080fd5b919050565b6000806040838503121561018f57600080fd5b61019883610160565b91506101a660208401610160565b90509250929050565b6109ea806101be6000396000f3fe608060405234801561001057600080fd5b50600436106100835760003560e01c80630bf0d6d4146100885780633fe86f41146100ae5780635ad0e4f8146100c3578063715018a6146100d65780638da5cb5b146100de578063f2fde38b146100f8578063f4359ce51461010b578063f77c479114610115578063fc0c546a14610128575b600080fd5b61009b6100963660046107cf565b61013b565b6040519081526020015b60405180910390f35b6100c16100bc3660046107f9565b610150565b005b61009b6100d13660046107cf565b6101e4565b6100c16101f8565b6000546001600160a01b03165b6040516100a59190610874565b6100c1610106366004610888565b610234565b61009b62093a8081565b6003546100eb906001600160a01b031681565b6002546100eb906001600160a01b031681565b600061014783836102ad565b90505b92915050565b6101586104ba565b60005b828110156101de576000848483818110610177576101776108a3565b905060200201602081019061018c9190610888565b6001600160a01b0316146101cc576101ca8484838181106101af576101af6108a3565b90506020020160208101906101c49190610888565b83610516565b505b806101d6816108cf565b91505061015b565b50505050565b60006101ee6104ba565b6101478383610516565b60405162461bcd60e51b815260206004820152600c60248201526b1d5b985d5d1a1bdc9a5e995960a21b60448201526064015b60405180910390fd5b61023c6104ba565b6001600160a01b0381166102a15760405162461bcd60e51b815260206004820152602660248201527f4f776e61626c653a206e6577206f776e657220697320746865207a65726f206160448201526564647265737360d01b606482015260840161022b565b6102aa816106c3565b50565b600354604051633f9095b760e01b815260009182916001600160a01b0390911690633f9095b7906102e2908790600401610874565b60206040518083038186803b1580156102fa57600080fd5b505afa15801561030e573d6000803e3d6000fd5b505050506040513d601f19601f8201168201806040525081019061033291906108ea565b9050600081600f0b121561034a57600091505061014a565b600061035584610713565b6002546040516394cefb6760e01b8152600481018390529192506000916001600160a01b03909116906394cefb679060240160206040518083038186803b15801561039f57600080fd5b505afa1580156103b3573d6000803e3d6000fd5b505050506040513d601f19601f820116820180604052508101906103d7919061090d565b600354604051633103ec3360e11b81529192506000916001600160a01b0390911690636207d8669061040d908a90600401610874565b60206040518083038186803b15801561042557600080fd5b505afa158015610439573d6000803e3d6000fd5b505050506040513d601f19601f8201168201806040525081019061045d919061090d565b90506000670de0b6b3a76400006104748484610926565b61047e919061095b565b60008581526004602090815260408083206001600160a01b038d1684529091529020549091506104ae908261096f565b98975050505050505050565b6000546001600160a01b031633146105145760405162461bcd60e51b815260206004820181905260248201527f4f776e61626c653a2063616c6c6572206973206e6f7420746865206f776e6572604482015260640161022b565b565b60008061052384846102ad565b90508015610147576002546040516309d7186160e31b8152306004820152602481018390526001600160a01b0390911690634eb8c30890604401600060405180830381600087803b15801561057757600080fd5b505af115801561058b573d6000803e3d6000fd5b505060025460405163095ea7b360e01b81526001600160a01b03888116600483015260248201869052909116925063095ea7b39150604401600060405180830381600087803b1580156105dd57600080fd5b505af11580156105f1573d6000803e3d6000fd5b505060405163beceed3960e01b8152600481018490526001600160a01b038716925063beceed399150602401600060405180830381600087803b15801561063757600080fd5b505af115801561064b573d6000803e3d6000fd5b50505050806004600061065d86610713565b8152602080820192909252604090810160009081206001600160a01b0389168083529084529082902093909355518381523392917ff44f851194280b884e7ea431d4e5603ccc7716ed6583a12bc7350e526cc27871910160405180910390a39392505050565b600080546001600160a01b038381166001600160a01b0319831681178455604051919092169283917f8be0079c531659141344cd1fd0a4f28419497f9722a3daafe3b4186f6b6457e09190a35050565b600062093a80600260009054906101000a90046001600160a01b03166001600160a01b03166348b0daa66040518163ffffffff1660e01b815260040160206040518083038186803b15801561076757600080fd5b505afa15801561077b573d6000803e3d6000fd5b505050506040513d601f19601f8201168201806040525081019061079f919061090d565b6107a9908461096f565b61014a9190610986565b80356001600160a01b03811681146107ca57600080fd5b919050565b600080604083850312156107e257600080fd5b6107eb836107b3565b946020939093013593505050565b60008060006040848603121561080e57600080fd5b833567ffffffffffffffff8082111561082657600080fd5b818601915086601f83011261083a57600080fd5b81358181111561084957600080fd5b8760208260051b850101111561085e57600080fd5b6020928301989097509590910135949350505050565b6001600160a01b0391909116815260200190565b60006020828403121561089a57600080fd5b610147826107b3565b634e487b7160e01b600052603260045260246000fd5b634e487b7160e01b600052601160045260246000fd5b60006000198214156108e3576108e36108b9565b5060010190565b6000602082840312156108fc57600080fd5b815180600f0b811461014757600080fd5b60006020828403121561091f57600080fd5b5051919050565b6000816000190483118215151615610940576109406108b9565b500290565b634e487b7160e01b600052601260045260246000fd5b60008261096a5761096a610945565b500490565b600082821015610981576109816108b9565b500390565b60008261099557610995610945565b600160ff1b8214600019841416156109af576109af6108b9565b50059056fea264697066735822122094bde9dbe65030adc327180c579700fd993903182942f31fc17862ff30f0aca064736f6c63430008090033",
  "devdoc": {
    "kind": "dev",
    "methods": {
      "availableRewards(address,uint256)": {
        "params": {
          "gaugeAddr": "the registered gauge address"
        }
      },
      "constructor": {
        "params": {
          "_controller": "the GaugeController address",
          "_token": "the reward token address"
        }
      },
      "owner()": {
        "details": "Returns the address of the current owner."
      },
      "pushRewards(address,uint256)": {
        "params": {
          "gaugeAddr": "the registered gauge address"
        }
      },
      "pushRewardsToMany(address[],uint256)": {
        "params": {
          "gaugeAddresses": "the registered gauge addresses"
        }
      },
      "transferOwnership(address)": {
        "details": "Transfers ownership of the contract to a new account (`newOwner`). Can only be called by the current owner."
      }
    },
    "version": 1
  },
  "userdoc": {
    "events": {
      "PushedRewards(address,address,uint256)": {
        "notice": "event emitted when rewards are pushed to a gauge"
      }
    },
    "kind": "user",
    "methods": {
      "WEEK()": {
        "notice": "seconds in a week"
      },
      "availableRewards(address,uint256)": {
        "notice": "-- View methods --returns the available rewards for a gauge"
      },
      "constructor": {
        "notice": "creates a new GaugeDistributor"
      },
      "controller()": {
        "notice": "the GaugeController address"
      },
      "pushRewards(address,uint256)": {
        "notice": "pushes new rewards to a gauge"
      },
      "pushRewardsToMany(address[],uint256)": {
        "notice": "pushes new rewards to multiple gauges"
      },
      "renounceOwnership()": {
        "notice": "-- Owner methods --"
      },
      "token()": {
        "notice": "the reward token that's being added to liquidity gauges"
      }
    },
    "version": 1
  },
  "storageLayout": {
    "storage": [
      {
        "astId": 596,
        "contract": "contracts/GaugeDistributor.sol:GaugeDistributor",
        "label": "_owner",
        "offset": 0,
        "slot": "0",
        "type": "t_address"
      },
      {
        "astId": 900,
        "contract": "contracts/GaugeDistributor.sol:GaugeDistributor",
        "label": "_status",
        "offset": 0,
        "slot": "1",
        "type": "t_uint256"
      },
      {
        "astId": 2304,
        "contract": "contracts/GaugeDistributor.sol:GaugeDistributor",
        "label": "token",
        "offset": 0,
        "slot": "2",
        "type": "t_address"
      },
      {
        "astId": 2307,
        "contract": "contracts/GaugeDistributor.sol:GaugeDistributor",
        "label": "controller",
        "offset": 0,
        "slot": "3",
        "type": "t_address"
      },
      {
        "astId": 2314,
        "contract": "contracts/GaugeDistributor.sol:GaugeDistributor",
        "label": "pushedInWeek",
        "offset": 0,
        "slot": "4",
        "type": "t_mapping(t_int256,t_mapping(t_address,t_uint256))"
      }
    ],
    "types": {
      "t_address": {
        "encoding": "inplace",
        "label": "address",
        "numberOfBytes": "20"
      },
      "t_int256": {
        "encoding": "inplace",
        "label": "int256",
        "numberOfBytes": "32"
      },
      "t_mapping(t_address,t_uint256)": {
        "encoding": "mapping",
        "key": "t_address",
        "label": "mapping(address => uint256)",
        "numberOfBytes": "32",
        "value": "t_uint256"
      },
      "t_mapping(t_int256,t_mapping(t_address,t_uint256))": {
        "encoding": "mapping",
        "key": "t_int256",
        "label": "mapping(int256 => mapping(address => uint256))",
        "numberOfBytes": "32",
        "value": "t_mapping(t_address,t_uint256)"
      },
      "t_uint256": {
        "encoding": "inplace",
        "label": "uint256",
        "numberOfBytes": "32"
      }
    }
  }
}