{
  "address": "0x1797B1cD13ef35BD92Ef14Ca4dFa8f54B63e06fe",
  "abi": [
    {
      "inputs": [
        {
          "internalType": "address",
          "name": "_gaugeReference",
          "type": "address"
        }
      ],
      "stateMutability": "nonpayable",
      "type": "constructor"
    },
    {
      "anonymous": false,
      "inputs": [
        {
          "indexed": true,
          "internalType": "address",
          "name": "_owner",
          "type": "address"
        },
        {
          "indexed": true,
          "internalType": "address",
          "name": "_gauge",
          "type": "address"
        }
      ],
      "name": "GaugeCreated",
      "type": "event"
    },
    {
      "inputs": [
        {
          "internalType": "address",
          "name": "_token",
          "type": "address"
        },
        {
          "internalType": "address",
          "name": "_reward",
          "type": "address"
        },
        {
          "internalType": "address",
          "name": "_distributor",
          "type": "address"
        }
      ],
      "name": "createGauge",
      "outputs": [
        {
          "internalType": "address",
          "name": "newGauge",
          "type": "address"
        }
      ],
      "stateMutability": "nonpayable",
      "type": "function"
    },
    {
      "inputs": [],
      "name": "gaugeReference",
      "outputs": [
        {
          "internalType": "address",
          "name": "",
          "type": "address"
        }
      ],
      "stateMutability": "view",
      "type": "function"
    }
  ],
  "transactionHash": "0xb265cdd811bcb8b67003cbf075ed8f6a2846c28a3adab9ed3ec4ed1b4647b822",
  "args": [
    "0xFD85D457De0532a7241abb34bee35b3Ee1e2c61c"
  ],
  "numDeployments": 1,
  "solcInputHash": "a4ba6f68672b10e4ca67083af5992942",
  "bytecode": "0x608060405234801561001057600080fd5b5060405161035538038061035583398101604081905261002f916100a0565b6001600160a01b03811661007b5760405162461bcd60e51b815260206004820152600f60248201526e19d85d59d9481b9bdd081d985b1a59608a1b604482015260640160405180910390fd5b600080546001600160a01b0319166001600160a01b03929092169190911790556100d0565b6000602082840312156100b257600080fd5b81516001600160a01b03811681146100c957600080fd5b9392505050565b610276806100df6000396000f3fe608060405234801561001057600080fd5b50600436106100365760003560e01c80631c48e0fa1461003b5780639fc922c61461006a575b600080fd5b61004e6100493660046101fd565b61007d565b6040516001600160a01b03909116815260200160405180910390f35b60005461004e906001600160a01b031681565b60008054610093906001600160a01b0316610145565b6040516306552ff360e01b81526001600160a01b03868116600483015285811660248301523360448301528481166064830152919250908216906306552ff390608401600060405180830381600087803b1580156100f057600080fd5b505af1158015610104573d6000803e3d6000fd5b50506040516001600160a01b03841692503391507fbc0aff029cf899fe358381e295caa21dd2e8c1a6607e2b9e6c7ec915db15bd5390600090a39392505050565b6000604051733d602d80600a3d3981f3363d3d373d3d3d363d7360601b81528260601b60148201526e5af43d82803e903d91602b57fd5bf360881b60288201526037816000f09150506001600160a01b0381166101e15760405162461bcd60e51b8152602060048201526016602482015275115490cc4c4d8dce8818dc99585d194819985a5b195960521b604482015260640160405180910390fd5b919050565b80356001600160a01b03811681146101e157600080fd5b60008060006060848603121561021257600080fd5b61021b846101e6565b9250610229602085016101e6565b9150610237604085016101e6565b9050925092509256fea264697066735822122053a39f9734ab2e42e3d71c8fa9ec627ee1102643afe829c3a0b900cf4180373364736f6c63430008090033",
  "devdoc": {
    "details": "Anyone can create gauges, but only some are added to the GaugeController",
    "kind": "dev",
    "methods": {
      "constructor": {
        "params": {
          "_gaugeReference": "an existing gauge address"
        }
      },
      "createGauge(address,address,address)": {
        "details": "the owner of the new gauge will be msg.sender",
        "params": {
          "_distributor": "the GaugeDistributor address",
          "_reward": "reward token address",
          "_token": "deposit token address"
        }
      }
    },
    "version": 1
  },
  "userdoc": {
    "events": {
      "GaugeCreated(address,address)": {
        "notice": "emitted when a new gauge is created"
      }
    },
    "kind": "user",
    "methods": {
      "constructor": {
        "notice": "creates a new GaugeFactory contract"
      },
      "createGauge(address,address,address)": {
        "notice": "clones the gauge reference and initializes it with the new values"
      },
      "gaugeReference()": {
        "notice": "initial gauge reference that's being cloned"
      }
    },
    "notice": "Allows creating Liquidity gauges with a low cost",
    "version": 1
  },
  "storageLayout": {
    "storage": [
      {
        "astId": 6556,
        "contract": "contracts/gauges/GaugeFactory.sol:GaugeFactory",
        "label": "gaugeReference",
        "offset": 0,
        "slot": "0",
        "type": "t_address"
      }
    ],
    "types": {
      "t_address": {
        "encoding": "inplace",
        "label": "address",
        "numberOfBytes": "20"
      }
    }
  }
}