{
  "address": "0x4e6cb0b38cFAEF4e4E4a64259Cf320a67463Fe87",
  "abi": [
    {
      "name": "CommitOwnership",
      "inputs": [
        {
          "name": "admin",
          "type": "address",
          "indexed": false
        }
      ],
      "anonymous": false,
      "type": "event"
    },
    {
      "name": "ApplyOwnership",
      "inputs": [
        {
          "name": "admin",
          "type": "address",
          "indexed": false
        }
      ],
      "anonymous": false,
      "type": "event"
    },
    {
      "name": "AddType",
      "inputs": [
        {
          "name": "name",
          "type": "string",
          "indexed": false
        },
        {
          "name": "type_id",
          "type": "int128",
          "indexed": false
        }
      ],
      "anonymous": false,
      "type": "event"
    },
    {
      "name": "NewTypeWeight",
      "inputs": [
        {
          "name": "type_id",
          "type": "int128",
          "indexed": false
        },
        {
          "name": "time",
          "type": "uint256",
          "indexed": false
        },
        {
          "name": "weight",
          "type": "uint256",
          "indexed": false
        },
        {
          "name": "total_weight",
          "type": "uint256",
          "indexed": false
        }
      ],
      "anonymous": false,
      "type": "event"
    },
    {
      "name": "NewGaugeWeight",
      "inputs": [
        {
          "name": "gauge_address",
          "type": "address",
          "indexed": false
        },
        {
          "name": "time",
          "type": "uint256",
          "indexed": false
        },
        {
          "name": "weight",
          "type": "uint256",
          "indexed": false
        },
        {
          "name": "total_weight",
          "type": "uint256",
          "indexed": false
        }
      ],
      "anonymous": false,
      "type": "event"
    },
    {
      "name": "VoteForGauge",
      "inputs": [
        {
          "name": "time",
          "type": "uint256",
          "indexed": false
        },
        {
          "name": "user",
          "type": "address",
          "indexed": false
        },
        {
          "name": "gauge_addr",
          "type": "address",
          "indexed": false
        },
        {
          "name": "weight",
          "type": "uint256",
          "indexed": false
        }
      ],
      "anonymous": false,
      "type": "event"
    },
    {
      "name": "NewGauge",
      "inputs": [
        {
          "name": "addr",
          "type": "address",
          "indexed": false
        },
        {
          "name": "gauge_type",
          "type": "int128",
          "indexed": false
        },
        {
          "name": "weight",
          "type": "uint256",
          "indexed": false
        }
      ],
      "anonymous": false,
      "type": "event"
    },
    {
      "stateMutability": "nonpayable",
      "type": "constructor",
      "inputs": [
        {
          "name": "_token",
          "type": "address"
        },
        {
          "name": "_voting_escrow",
          "type": "address"
        }
      ],
      "outputs": []
    },
    {
      "stateMutability": "nonpayable",
      "type": "function",
      "name": "commit_transfer_ownership",
      "inputs": [
        {
          "name": "addr",
          "type": "address"
        }
      ],
      "outputs": []
    },
    {
      "stateMutability": "nonpayable",
      "type": "function",
      "name": "apply_transfer_ownership",
      "inputs": [],
      "outputs": []
    },
    {
      "stateMutability": "nonpayable",
      "type": "function",
      "name": "add_gauge",
      "inputs": [
        {
          "name": "addr",
          "type": "address"
        },
        {
          "name": "gauge_type",
          "type": "int128"
        },
        {
          "name": "weight",
          "type": "uint256"
        }
      ],
      "outputs": []
    },
    {
      "stateMutability": "nonpayable",
      "type": "function",
      "name": "add_type",
      "inputs": [
        {
          "name": "_name",
          "type": "string"
        },
        {
          "name": "weight",
          "type": "uint256"
        }
      ],
      "outputs": []
    },
    {
      "stateMutability": "nonpayable",
      "type": "function",
      "name": "change_type_weight",
      "inputs": [
        {
          "name": "type_id",
          "type": "int128"
        },
        {
          "name": "weight",
          "type": "uint256"
        }
      ],
      "outputs": []
    },
    {
      "stateMutability": "nonpayable",
      "type": "function",
      "name": "change_gauge_weight",
      "inputs": [
        {
          "name": "addr",
          "type": "address"
        },
        {
          "name": "weight",
          "type": "uint256"
        }
      ],
      "outputs": []
    },
    {
      "stateMutability": "view",
      "type": "function",
      "name": "gauge_types",
      "inputs": [
        {
          "name": "_addr",
          "type": "address"
        }
      ],
      "outputs": [
        {
          "name": "",
          "type": "int128"
        }
      ]
    },
    {
      "stateMutability": "view",
      "type": "function",
      "name": "gauge_relative_weight",
      "inputs": [
        {
          "name": "addr",
          "type": "address"
        }
      ],
      "outputs": [
        {
          "name": "",
          "type": "uint256"
        }
      ]
    },
    {
      "stateMutability": "view",
      "type": "function",
      "name": "gauge_relative_weight",
      "inputs": [
        {
          "name": "addr",
          "type": "address"
        },
        {
          "name": "time",
          "type": "uint256"
        }
      ],
      "outputs": [
        {
          "name": "",
          "type": "uint256"
        }
      ]
    },
    {
      "stateMutability": "view",
      "type": "function",
      "name": "get_gauge_weight",
      "inputs": [
        {
          "name": "addr",
          "type": "address"
        }
      ],
      "outputs": [
        {
          "name": "",
          "type": "uint256"
        }
      ]
    },
    {
      "stateMutability": "view",
      "type": "function",
      "name": "get_type_weight",
      "inputs": [
        {
          "name": "type_id",
          "type": "int128"
        }
      ],
      "outputs": [
        {
          "name": "",
          "type": "uint256"
        }
      ]
    },
    {
      "stateMutability": "view",
      "type": "function",
      "name": "get_total_weight",
      "inputs": [],
      "outputs": [
        {
          "name": "",
          "type": "uint256"
        }
      ]
    },
    {
      "stateMutability": "view",
      "type": "function",
      "name": "get_weights_sum_per_type",
      "inputs": [
        {
          "name": "type_id",
          "type": "int128"
        }
      ],
      "outputs": [
        {
          "name": "",
          "type": "uint256"
        }
      ]
    },
    {
      "stateMutability": "nonpayable",
      "type": "function",
      "name": "checkpoint",
      "inputs": [],
      "outputs": []
    },
    {
      "stateMutability": "nonpayable",
      "type": "function",
      "name": "checkpoint_gauge",
      "inputs": [
        {
          "name": "addr",
          "type": "address"
        }
      ],
      "outputs": []
    },
    {
      "stateMutability": "nonpayable",
      "type": "function",
      "name": "gauge_relative_weight_write",
      "inputs": [
        {
          "name": "addr",
          "type": "address"
        }
      ],
      "outputs": [
        {
          "name": "",
          "type": "uint256"
        }
      ]
    },
    {
      "stateMutability": "nonpayable",
      "type": "function",
      "name": "gauge_relative_weight_write",
      "inputs": [
        {
          "name": "addr",
          "type": "address"
        },
        {
          "name": "time",
          "type": "uint256"
        }
      ],
      "outputs": [
        {
          "name": "",
          "type": "uint256"
        }
      ]
    },
    {
      "stateMutability": "nonpayable",
      "type": "function",
      "name": "vote_for_gauge_weights",
      "inputs": [
        {
          "name": "_gauge_addr",
          "type": "address"
        },
        {
          "name": "_user_weight",
          "type": "uint256"
        }
      ],
      "outputs": []
    },
    {
      "stateMutability": "view",
      "type": "function",
      "name": "admin",
      "inputs": [],
      "outputs": [
        {
          "name": "",
          "type": "address"
        }
      ]
    },
    {
      "stateMutability": "view",
      "type": "function",
      "name": "future_admin",
      "inputs": [],
      "outputs": [
        {
          "name": "",
          "type": "address"
        }
      ]
    },
    {
      "stateMutability": "view",
      "type": "function",
      "name": "token",
      "inputs": [],
      "outputs": [
        {
          "name": "",
          "type": "address"
        }
      ]
    },
    {
      "stateMutability": "view",
      "type": "function",
      "name": "voting_escrow",
      "inputs": [],
      "outputs": [
        {
          "name": "",
          "type": "address"
        }
      ]
    },
    {
      "stateMutability": "view",
      "type": "function",
      "name": "n_gauge_types",
      "inputs": [],
      "outputs": [
        {
          "name": "",
          "type": "int128"
        }
      ]
    },
    {
      "stateMutability": "view",
      "type": "function",
      "name": "n_gauges",
      "inputs": [],
      "outputs": [
        {
          "name": "",
          "type": "int128"
        }
      ]
    },
    {
      "stateMutability": "view",
      "type": "function",
      "name": "gauge_type_names",
      "inputs": [
        {
          "name": "arg0",
          "type": "int128"
        }
      ],
      "outputs": [
        {
          "name": "",
          "type": "string"
        }
      ]
    },
    {
      "stateMutability": "view",
      "type": "function",
      "name": "gauges",
      "inputs": [
        {
          "name": "arg0",
          "type": "uint256"
        }
      ],
      "outputs": [
        {
          "name": "",
          "type": "address"
        }
      ]
    },
    {
      "stateMutability": "view",
      "type": "function",
      "name": "total_gauges",
      "inputs": [],
      "outputs": [
        {
          "name": "",
          "type": "uint256"
        }
      ]
    },
    {
      "stateMutability": "view",
      "type": "function",
      "name": "vote_user_slopes",
      "inputs": [
        {
          "name": "arg0",
          "type": "address"
        },
        {
          "name": "arg1",
          "type": "address"
        }
      ],
      "outputs": [
        {
          "name": "slope",
          "type": "uint256"
        },
        {
          "name": "power",
          "type": "uint256"
        },
        {
          "name": "end",
          "type": "uint256"
        }
      ]
    },
    {
      "stateMutability": "view",
      "type": "function",
      "name": "vote_user_power",
      "inputs": [
        {
          "name": "arg0",
          "type": "address"
        }
      ],
      "outputs": [
        {
          "name": "",
          "type": "uint256"
        }
      ]
    },
    {
      "stateMutability": "view",
      "type": "function",
      "name": "last_user_vote",
      "inputs": [
        {
          "name": "arg0",
          "type": "address"
        },
        {
          "name": "arg1",
          "type": "address"
        }
      ],
      "outputs": [
        {
          "name": "",
          "type": "uint256"
        }
      ]
    },
    {
      "stateMutability": "view",
      "type": "function",
      "name": "points_weight",
      "inputs": [
        {
          "name": "arg0",
          "type": "address"
        },
        {
          "name": "arg1",
          "type": "uint256"
        }
      ],
      "outputs": [
        {
          "name": "bias",
          "type": "uint256"
        },
        {
          "name": "slope",
          "type": "uint256"
        }
      ]
    },
    {
      "stateMutability": "view",
      "type": "function",
      "name": "time_weight",
      "inputs": [
        {
          "name": "arg0",
          "type": "address"
        }
      ],
      "outputs": [
        {
          "name": "",
          "type": "uint256"
        }
      ]
    },
    {
      "stateMutability": "view",
      "type": "function",
      "name": "points_sum",
      "inputs": [
        {
          "name": "arg0",
          "type": "int128"
        },
        {
          "name": "arg1",
          "type": "uint256"
        }
      ],
      "outputs": [
        {
          "name": "bias",
          "type": "uint256"
        },
        {
          "name": "slope",
          "type": "uint256"
        }
      ]
    },
    {
      "stateMutability": "view",
      "type": "function",
      "name": "time_sum",
      "inputs": [
        {
          "name": "arg0",
          "type": "uint256"
        }
      ],
      "outputs": [
        {
          "name": "",
          "type": "uint256"
        }
      ]
    },
    {
      "stateMutability": "view",
      "type": "function",
      "name": "points_total",
      "inputs": [
        {
          "name": "arg0",
          "type": "uint256"
        }
      ],
      "outputs": [
        {
          "name": "",
          "type": "uint256"
        }
      ]
    },
    {
      "stateMutability": "view",
      "type": "function",
      "name": "time_total",
      "inputs": [],
      "outputs": [
        {
          "name": "",
          "type": "uint256"
        }
      ]
    },
    {
      "stateMutability": "view",
      "type": "function",
      "name": "points_type_weight",
      "inputs": [
        {
          "name": "arg0",
          "type": "int128"
        },
        {
          "name": "arg1",
          "type": "uint256"
        }
      ],
      "outputs": [
        {
          "name": "",
          "type": "uint256"
        }
      ]
    },
    {
      "stateMutability": "view",
      "type": "function",
      "name": "time_type_weight",
      "inputs": [
        {
          "name": "arg0",
          "type": "uint256"
        }
      ],
      "outputs": [
        {
          "name": "",
          "type": "uint256"
        }
      ]
    }
  ],
  "transactionHash": "0x63f9d448abbe9386f48089c31e05c3924fe91b1ece8b1482a0cb4cfd7a31c221",
  "args": [
    "0x306547aa4B4241D73ae1e7A5465D277d06C40cbC",
    "0x0E1503A1Df910263A09a97916b65451CE4c438a7"
  ],
  "numDeployments": 1,
  "bytecode": "0x60406129ce6101403960206129ce60c03960c05160a01c6129c957602060206129ce0160c03960c05160a01c6129c9576000610140511415610080576308c379a06101805260206101a052600d6101c0527f544150206e6f742076616c6964000000000000000000000000000000000000006101e0526101c050606461019cfd5b60006101605114156100d1576308c379a06101805260206101a052600f6101c0527f7665544150206e6f742076616c696400000000000000000000000000000000006101e0526101c050606461019cfd5b3360005561014051600255610160516003554262093a808082049050905062093a808082028215828483041417156129c957809050905090506377359412556129b156600436101561000d57611a9c565b600035601c526000513461289757636b441a408114156100b55760043560a01c61289757600054331461007f576308c379a061014052602061016052600c610180527f756e617574686f72697a656400000000000000000000000000000000000000006101a05261018050606461015cfd5b600435600155600435610140527f2f56810a6bf40af059b96d3aea4db54081f378029a518390491093a7b67032e96020610140a1005b636a1c05ae81141561019f57600054331461010f576308c379a061014052602061016052600c610180527f756e617574686f72697a656400000000000000000000000000000000000000006101a05261018050606461015cfd5b600154610140526000610140511415610167576308c379a061016052602061018052600f6101a0527f61646d696e206e6f742076616c696400000000000000000000000000000000006101c0526101a050606461017cfd5b6101405160005561014051610160527febee2d5739011062cb4f14113f3b36bf0ffe3da5c0568f64189d1012a11891056020610160a1005b6318dfe9218114156105df5760043560a01c61289757602435808060008112156101c557195b607f1c61289757905050600054331461021d576308c379a061014052602061016052600c610180527f756e617574686f72697a656400000000000000000000000000000000000000006101a05261018050606461015cfd5b6000602435126102335760045460243512610236565b60005b61027f576308c379a0610140526020610160526014610180527f67617567652074797065206e6f742076616c69640000000000000000000000006101a05261018050606461015cfd5b633b9aca0860043560e05260c052604060c02054156102dd576308c379a0610140526020610160526014610180527f676175676520616c7265616479206578697374730000000000000000000000006101a05261018050606461015cfd5b60055461014052610140516001808201808060008112156102fa57195b607f1c61289757905090509050600555600435600161014051633b9aca0081101561289757026007015560243560018082018080600081121561033957195b607f1c61289757905090509050633b9aca0860043560e05260c052604060c020554262093a808181830110612897578082019050905062093a808082049050905062093a8080820282158284830414171561289757809050905090506101605260006044351115610528576101405161016051610180516024356101a0526101a05160065801611aa2565b6102005261018052610160526101405261020051610180526101405161016051610180516101a0516024356101c0526101c05160065801611bbe565b610220526101a052610180526101605261014052610220516101a0526101405161016051610180516101a0516101c05160065801611d95565b6101e0526101c0526101a0526101805261016052610140526101e0516101c0526044356101a05181818301106128975780820190509050633b9aca0f60243560e05260c052604060c0206101605160e05260c052604060c02055610160516001602435633b9aca008110156128975702633b9aca1101556101c0516101805160443580820282158284830414171561289757809050905090508181830110612897578082019050905063773594116101605160e05260c052604060c0205561016051637735941255604435633b9aca0c60043560e05260c052604060c0206101605160e05260c052604060c020555b6001602435633b9aca008110156128975702633b9aca11015461056357610160516001602435633b9aca008110156128975702633b9aca1101555b61016051633b9aca0e60043560e05260c052604060c02055633b9aca07546101805261018051600181818301106128975780820190509050633b9aca07556004356101a0526024356101c0526044356101e0527ffd55b3191f9c9dd92f4f134dd700e7d76f6a0c836a08687023d6d38f03ebd87760606101a0a1005b6392d0d2328114156107e85760606004356004016101403760406004356004013511612897576000543314610653576308c379a06101c05260206101e052600c610200527f756e617574686f72697a65640000000000000000000000000000000000000000610220526102005060646101dcfd5b6004546101c0526101408060066101c05160e05260c052604060c020602082510161012060006003818352015b82610120516020021115610693576106b5565b61012051602002850151610120518501555b8151600101808352811415610680575b5050505050506101c0516001808201808060008112156106d157195b607f1c61289757905090509050600455600060243518156107e6576101405161016051610180516101a0516101c0516101c0516101e05260243561020052610200516101e05160065801612313565b6101c0526101a0526101805261016052610140526000506101c0516102405260406101e0526101e051610220526101408051602001806101e051610220018284600060045af1156128975750506101e05161022001518060206101e051610220010101818260206001820306601f820103905003368237505060206101e051610220015160206001820306601f82010390506101e05101016101e0527f6fbe76157c712f16b5a3c44ed48baa04e3450bc3fab0c020e848aca72bbccc846101e051610220a15b005b63db1ca260811415610880576004358080600081121561080457195b607f1c61289757905050600054331461085c576308c379a061014052602061016052600c610180527f756e617574686f72697a656400000000000000000000000000000000000000006101a05261018050606461015cfd5b6004356101405260243561016052610160516101405160065801612313565b600050005b63d4d2646e8114156109085760043560a01c6128975760005433146108e4576308c379a061014052602061016052600c610180527f756e617574686f72697a656400000000000000000000000000000000000000006101a05261018050606461015cfd5b6004356101405260243561016052610160516101405160065801612546565b600050005b633f9095b78114156109625760043560a01c61289757633b9aca0860043560e05260c052604060c02054610140526101405160018082038080600081121561094c57195b607f1c6128975790509050905060005260206000f35b636207d866811415610978574261014052610999565b63d3078c94811415610994576020602461014037600050610999565b6109dc565b60043560a01c61289757610140516004356101605261014051610180526101805161016051600658016121bc565b6101e052610140526101e05160005260206000f35b634e791a3a811415610a2e5760043560a01c61289757633b9aca0c60043560e05260c052604060c020633b9aca0e60043560e05260c052604060c0205460e05260c052604060c0205460005260206000f35b6372fdccfa811415610a955760043580806000811215610a4a57195b607f1c61289757905050637735941360043560e05260c052604060c0206001600435633b9aca0081101561289757026377359414015460e05260c052604060c0205460005260206000f35b636977ff92811415610ac157637735941163773594125460e05260c052604060c0205460005260206000f35b636f214a6a811415610b285760043580806000811215610add57195b607f1c61289757905050633b9aca0f60043560e05260c052604060c0206001600435633b9aca008110156128975702633b9aca11015460e05260c052604060c0205460005260206000f35b63c2c4c5c1811415610b475760065801611d95565b6101405261014050005b63615e5237811415610b8c5760043560a01c61289757600435610140526101405160065801611fef565b6101a0526101a05060065801611d95565b6101405261014050005b6395cfcec3811415610ba2574261014052610bc3565b636472eee1811415610bbe576020602461014037600050610bc3565b610c43565b60043560a01c6128975761014051600435610160526101605160065801611fef565b6101c052610140526101c0506101405160065801611d95565b610160526101405261016050610140516004356101605261014051610180526101805161016051600658016121bc565b6101e052610140526101e05160005260206000f35b63d71363288114156116035760043560a01c612897576003546101405260206102006024637c74a17461018052336101a05261019c610140515afa1561289757601f3d111561289757600050610200516000811261289757610160526020610220602463adc635896101a052336101c0526101bc610140515afa1561289757601f3d11156128975760005061022051610180526005546101a0524262093a808181830110612897578082019050905062093a808082049050905062093a8080820282158284830414171561289757809050905090506101c0526101c0516101805111610d6e576308c379a06101e0526020610200526012610220527f6c6f636b20656e64206e6f742076616c69640000000000000000000000000000610240526102205060646101fcfd5b600060243510610d85576127106024351115610d88565b60005b610dd1576308c379a06101e0526020610200526015610220527f7573657220776569676874206e6f742076616c69640000000000000000000000610240526102205060646101fcfd5b633b9aca0b3360e05260c052604060c02060043560e05260c052604060c02054620d2f0081818301106128975780820190509050421015610e51576308c379a06101e0526020610200526019610220527f63616e6e6f7420766f746520617420746865206d6f6d656e7400000000000000610240526102205060646101fcfd5b633b9aca0860043560e05260c052604060c02054600180820380806000811215610e7757195b607f1c612897579050905090506101e05260006101e0511215610ed9576308c379a0610200526020610220526014610240527f67617567652074797065206e6f742076616c69640000000000000000000000006102605261024050606461021cfd5b610200633b9aca093360e05260c052604060c02060043560e05260c052604060c02080548252600181015482602001526002810154826040015250506000610260526101c051610240511115610f4457610240516101c0518082106128975780820390509050610260525b61020051610260518082028215828483041417156128975780905090509050610280526102a0610160516024358082028215828483041417156128975780905090509050612710808204905090508152602435816020015261018051816040015250610180516101c0518082106128975780820390509050610300526102a05161030051808202821582848304141715612897578090509050905061032052633b9aca0a3360e05260c052604060c0205461034052610340516102c051818183011061289757808201905090506102205180821061289757808203905090506103405261034051633b9aca0a3360e05260c052604060c020556000610340511061105657612710610340511115611059565b60005b6110a2576308c379a061036052602061038052600f6103a0527f706f776572206e6f742076616c696400000000000000000000000000000000006103c0526103a050606461037cfd5b610140610380525b610380515160206103805101610380526103806103805110156110cc576110aa565b6004356103a0526103a05160065801611fef565b61040052610360610380525b61038051526020610380510361038052610140610380511061110d576110ec565b61040051610360526001633b9aca0c60043560e05260c052604060c0206101c05160e05260c052604060c0200154610380526101406103c0525b6103c0515160206103c051016103c0526103c06103c051101561116957611147565b6101e0516103e0526103e05160065801611bbe565b610440526103a06103c0525b6103c0515260206103c051036103c0526101406103c051106111ab5761118a565b610440516103a0526001633b9aca0f6101e05160e05260c052604060c0206101c05160e05260c052604060c02001546103c0526103605161032051818183011061289757808201905090506102805180821015611208578061120a565b815b90509050610280518082106128975780820390509050633b9aca0c60043560e05260c052604060c0206101c05160e05260c052604060c020556103a0516103205181818301106128975780820190509050610280518082101561126d578061126f565b815b90509050610280518082106128975780820390509050633b9aca0f6101e05160e05260c052604060c0206101c05160e05260c052604060c020556101c05161024051111561138d57610380516102a0518181830110612897578082019050905061020051808210156112e157806112e3565b815b905090506102005180821061289757808203905090506001633b9aca0c60043560e05260c052604060c0206101c05160e05260c052604060c02001556103c0516102a051818183011061289757808201905090506102005180821015611349578061134b565b815b905090506102005180821061289757808203905090506001633b9aca0f6101e05160e05260c052604060c0206101c05160e05260c052604060c020015561140b565b6001633b9aca0c60043560e05260c052604060c0206101c05160e05260c052604060c0200180546102a051818183011061289757808201905090508155506001633b9aca0f6101e05160e05260c052604060c0206101c05160e05260c052604060c0200180546102a051818183011061289757808201905090508155505b4261024051111561148a57633b9aca0d60043560e05260c052604060c0206102405160e05260c052604060c0208054610200518082106128975780820390509050815550633b9aca106101e05160e05260c052604060c0206102405160e05260c052604060c02080546102005180821061289757808203905090508155505b633b9aca0d60043560e05260c052604060c0206102e05160e05260c052604060c02080546102a05181818301106128975780820190509050815550633b9aca106101e05160e05260c052604060c0206102e05160e05260c052604060c02080546102a051818183011061289757808201905090508155506101406103e0525b6103e0515160206103e051016103e0526103e06103e051101561152b57611509565b60065801611d95565b610400526103c06103e0525b6103e0515260206103e051036103e0526101406103e0511061156157611540565b61040050633b9aca093360e05260c052604060c02060043560e05260c052604060c0206102a0805182558060200151600183015580604001516002830155505042633b9aca0b3360e05260c052604060c02060043560e05260c052604060c02055426103e052336104005260043561042052602435610440527f45ca9a4c8d0119eb329e580d28fe689e484e1be230da8037ade9547d2d25cc9160806103e0a1005b63f851a44081141561161b5760005460005260206000f35b6317f7182a8114156116335760015460005260206000f35b63fc0c546a81141561164b5760025460005260206000f35b63dfe050318114156116635760035460005260206000f35b639fba03a181141561167b5760045460005260206000f35b63e93841d08114156116935760055460005260206000f35b63d958a8fc81141561175857600435808060008112156116af57195b607f1c61289757905050600660043560e05260c052604060c02080610180602082540161012060006003818352015b826101205160200211156116f157611713565b61012051850154610120516020028501525b81516001018083528114156116de575b50505050505061018051806101a001818260206001820306601f82010390500336823750506020610160526040610180510160206001820306601f8201039050610160f35b63b0539187811415611783576001600435633b9aca0081101561289757026007015460005260206000f35b6374563ab281141561179e57633b9aca075460005260206000f35b630f467f9881141561181e5760043560a01c6128975760243560a01c61289757633b9aca0960043560e05260c052604060c02060243560e05260c052604060c0206101408080808454815250506020810190508080600185015481525050602081019050808060028501548152505060609050905060c05260c051610140f35b63411e74b58114156118515760043560a01c61289757633b9aca0a60043560e05260c052604060c0205460005260206000f35b637e418fa081141561189c5760043560a01c6128975760243560a01c61289757633b9aca0b60043560e05260c052604060c02060243560e05260c052604060c0205460005260206000f35b63edba52738114156119015760043560a01c61289757633b9aca0c60043560e05260c052604060c02060243560e05260c052604060c020610140808080845481525050602081019050808060018501548152505060409050905060c05260c051610140f35b63a4d7a2508114156119345760043560a01c61289757633b9aca0e60043560e05260c052604060c0205460005260206000f35b63a9b48c018114156119a9576004358080600081121561195057195b607f1c61289757905050633b9aca0f60043560e05260c052604060c02060243560e05260c052604060c020610140808080845481525050602081019050808060018501548152505060409050905060c05260c051610140f35b635a5491588114156119d7576001600435633b9aca008110156128975702633b9aca11015460005260206000f35b631142916b811415611a0057637735941160043560e05260c052604060c0205460005260206000f35b63513872bd811415611a1b5763773594125460005260206000f35b63afd2bb49811415611a6c5760043580806000811215611a3757195b607f1c61289757905050637735941360043560e05260c052604060c02060243560e05260c052604060c0205460005260206000f35b6351ce6b59811415611a9a576001600435633b9aca0081101561289757026377359414015460005260206000f35b505b60006000fd5b6101605261014052600161014051633b9aca00811015612897570263773594140154610180526000610180511115611bae5763773594136101405160e05260c052604060c0206101805160e05260c052604060c020546101a0526101c060006101f4818352015b42610180511115611b1957611b98565b610180805162093a80818183011061289757808201905090508152506101a05163773594136101405160e05260c052604060c0206101805160e05260c052604060c0205542610180511115611b875761018051600161014051633b9aca008110156128975702637735941401555b5b8151600101808352811415611b09575b50506101a0516000526000516101605156611bbc565b600060005260005161016051565b005b6101605261014052600161014051633b9aca008110156128975702633b9aca110154610180526000610180511115611d85576101a0633b9aca0f6101405160e05260c052604060c0206101805160e05260c052604060c020805482526001810154826020015250506101e060006101f4818352015b42610180511115611c4357611d6f565b610180805162093a80818183011061289757808201905090508152506101c05162093a80808202821582848304141715612897578090509050905061020052610200516101a0511115611cf1576101a08051610200518082106128975780820390509050815250633b9aca106101405160e05260c052604060c0206101805160e05260c052604060c02054610220526101c08051610220518082106128975780820390509050815250611cfe565b60006101a05260006101c0525b633b9aca0f6101405160e05260c052604060c0206101805160e05260c052604060c0206101a08051825580602001516001830155505042610180511115611d5e5761018051600161014051633b9aca008110156128975702633b9aca1101555b5b8151600101808352811415611c33575b50506101a0516000526000516101605156611d93565b600060005260005161016051565b005b61014052637735941254610160526004546101805242610160511115611dd057610160805162093a8080821061289757808203905090508152505b63773594116101605160e05260c052604060c020546101a0526101c060006064818352015b610180516101c0511415611e0857611ea3565b6101405161016051610180516101a0516101c0516101c0516101e0526101e05160065801611bbe565b610240526101c0526101a052610180526101605261014052610240506101405161016051610180516101a0516101c0516101c0516101e0526101e05160065801611aa2565b610240526101c0526101a052610180526101605261014052610240505b8151600101808352811415611df5575b50506101c060006101f4818352015b42610160511115611ec257611fdd565b610160805162093a808181830110612897578082019050905081525060006101a0526101e060006064818352015b610180516101e0511415611f0357611f9b565b633b9aca0f6101e05160e05260c052604060c0206101605160e05260c052604060c020546102005263773594136101e05160e05260c052604060c0206101605160e05260c052604060c02054610220526101a0805161020051610220518082028215828483041417156128975780905090509050818183011061289757808201905090508152505b8151600101808352811415611ef0575b50506101a05163773594116101605160e05260c052604060c0205542610160511115611fcc57610160516377359412555b5b8151600101808352811415611eb2575b50506101a05160005260005161014051565b6101605261014052633b9aca0e6101405160e05260c052604060c020546101805260006101805111156121ac576101a0633b9aca0c6101405160e05260c052604060c0206101805160e05260c052604060c020805482526001810154826020015250506101e060006101f4818352015b4261018051111561206f57612196565b610180805162093a80818183011061289757808201905090508152506101c05162093a80808202821582848304141715612897578090509050905061020052610200516101a051111561211d576101a08051610200518082106128975780820390509050815250633b9aca0d6101405160e05260c052604060c0206101805160e05260c052604060c02054610220526101c0805161022051808210612897578082039050905081525061212a565b60006101a05260006101c0525b633b9aca0c6101405160e05260c052604060c0206101805160e05260c052604060c0206101a080518255806020015160018301555050426101805111156121855761018051633b9aca0e6101405160e05260c052604060c020555b5b815160010180835281141561205f575b50506101a05160005260005161016051566121ba565b600060005260005161016051565b005b6101805261014052610160526101605162093a808082049050905062093a8080820282158284830414171561289757809050905090506101a05263773594116101a05160e05260c052604060c020546101c05260006101c051111561230357633b9aca086101405160e05260c052604060c0205460018082038080600081121561224257195b607f1c612897579050905090506101e05263773594136101e05160e05260c052604060c0206101a05160e05260c052604060c0205461020052633b9aca0c6101405160e05260c052604060c0206101a05160e05260c052604060c0205461022052670de0b6b3a76400006102005180820282158284830414171561289757809050905090506102205180820282158284830414171561289757809050905090506101c051808015612897578204905090506000526000516101805156612311565b600060005260005161018051565b005b6101805261014052610160526101405161016051610180516101a051610140516101c0526101c05160065801611aa2565b610220526101a052610180526101605261014052610220516101a0526101405161016051610180516101a0516101c051610140516101e0526101e05160065801611bbe565b610240526101c0526101a052610180526101605261014052610240516101c0526101405161016051610180516101a0516101c0516101e05160065801611d95565b610200526101e0526101c0526101a052610180526101605261014052610200516101e0524262093a808181830110612897578082019050905062093a808082049050905062093a808082028215828483041417156128975780905090509050610200526101e0516101c051610160518082028215828483041417156128975780905090509050818183011061289757808201905090506101c0516101a051808202821582848304141715612897578090509050905080821061289757808203905090506101e0526101e05163773594116102005160e05260c052604060c020556101605163773594136101405160e05260c052604060c0206102005160e05260c052604060c020556102005163773594125561020051600161014051633b9aca008110156128975702637735941401556101405161022052610200516102405261016051610260526101e051610280527e170bcdc909b6ac6e12d020fe8942256312cdcd555fb6d712899eba56d2f9016080610220a161018051565b610180526101405261016052633b9aca086101405160e05260c052604060c0205460018082038080600081121561257957195b607f1c612897579050905090506101a0526101405161016051610180516101a0516101c051610140516101e0526101e05160065801611fef565b610240526101c0526101a052610180526101605261014052610240516101c0526101405161016051610180516101a0516101c0516101e0516101a051610200526102005160065801611aa2565b610260526101e0526101c0526101a052610180526101605261014052610260516101e0526101405161016051610180516101a0516101c0516101e051610200516101a051610220526102205160065801611bbe565b61028052610200526101e0526101c0526101a05261018052610160526101405261028051610200526101405161016051610180516101a0516101c0516101e051610200516102205160065801611d95565b6102405261022052610200526101e0526101c0526101a05261018052610160526101405261024051610220524262093a808181830110612897578082019050905062093a808082049050905062093a8080820282158284830414171561289757809050905090506102405261016051633b9aca0c6101405160e05260c052604060c0206102405160e05260c052604060c0205561024051633b9aca0e6101405160e05260c052604060c020556102005161016051818183011061289757808201905090506101c05180821061289757808203905090506102605261026051633b9aca0f6101a05160e05260c052604060c0206102405160e05260c052604060c020556102405160016101a051633b9aca008110156128975702633b9aca11015561022051610260516101e051808202821582848304141715612897578090509050905081818301106128975780820190509050610200516101e05180820282158284830414171561289757809050905090508082106128975780820390509050610220526102205163773594116102405160e05260c052604060c02055610240516377359412556101405161028052426102a052610160516102c052610220516102e0527f54c0cf3647e6cdb2fc0a7876e60ba77563fceedf2e06c01c597f8dccb9e6bd726080610280a161018051565b600080fd5b6101156129b1036101156000396101156129b1036000f35b600080fd"
}