{
  "address": "0x76174d787894C091AF447EA5f299E9DB5c7f9664",
  "abi": [
    {
      "inputs": [
        {
          "internalType": "address",
          "name": "_yieldBox",
          "type": "address"
        }
      ],
      "stateMutability": "nonpayable",
      "type": "constructor"
    },
    {
      "anonymous": false,
      "inputs": [
        {
          "indexed": true,
          "internalType": "address",
          "name": "owner",
          "type": "address"
        },
        {
          "indexed": true,
          "internalType": "address",
          "name": "approved",
          "type": "address"
        },
        {
          "indexed": true,
          "internalType": "uint256",
          "name": "tokenId",
          "type": "uint256"
        }
      ],
      "name": "Approval",
      "type": "event"
    },
    {
      "anonymous": false,
      "inputs": [
        {
          "indexed": true,
          "internalType": "address",
          "name": "owner",
          "type": "address"
        },
        {
          "indexed": true,
          "internalType": "address",
          "name": "operator",
          "type": "address"
        },
        {
          "indexed": false,
          "internalType": "bool",
          "name": "approved",
          "type": "bool"
        }
      ],
      "name": "ApprovalForAll",
      "type": "event"
    },
    {
      "anonymous": false,
      "inputs": [
        {
          "indexed": true,
          "internalType": "address",
          "name": "to",
          "type": "address"
        },
        {
          "indexed": true,
          "internalType": "uint128",
          "name": "sglAssetID",
          "type": "uint128"
        },
        {
          "components": [
            {
              "internalType": "uint128",
              "name": "sglAssetID",
              "type": "uint128"
            },
            {
              "internalType": "uint128",
              "name": "amount",
              "type": "uint128"
            },
            {
              "internalType": "uint128",
              "name": "lockTime",
              "type": "uint128"
            },
            {
              "internalType": "uint128",
              "name": "lockDuration",
              "type": "uint128"
            }
          ],
          "indexed": false,
          "internalType": "struct LockPosition",
          "name": "lockPosition",
          "type": "tuple"
        }
      ],
      "name": "Burn",
      "type": "event"
    },
    {
      "anonymous": false,
      "inputs": [
        {
          "indexed": true,
          "internalType": "address",
          "name": "to",
          "type": "address"
        },
        {
          "indexed": true,
          "internalType": "uint128",
          "name": "sglAssetID",
          "type": "uint128"
        },
        {
          "components": [
            {
              "internalType": "uint128",
              "name": "sglAssetID",
              "type": "uint128"
            },
            {
              "internalType": "uint128",
              "name": "amount",
              "type": "uint128"
            },
            {
              "internalType": "uint128",
              "name": "lockTime",
              "type": "uint128"
            },
            {
              "internalType": "uint128",
              "name": "lockDuration",
              "type": "uint128"
            }
          ],
          "indexed": false,
          "internalType": "struct LockPosition",
          "name": "lockPosition",
          "type": "tuple"
        }
      ],
      "name": "Mint",
      "type": "event"
    },
    {
      "anonymous": false,
      "inputs": [
        {
          "indexed": true,
          "internalType": "address",
          "name": "previousOwner",
          "type": "address"
        },
        {
          "indexed": true,
          "internalType": "address",
          "name": "newOwner",
          "type": "address"
        }
      ],
      "name": "OwnershipTransferred",
      "type": "event"
    },
    {
      "anonymous": false,
      "inputs": [
        {
          "indexed": false,
          "internalType": "address",
          "name": "account",
          "type": "address"
        }
      ],
      "name": "Paused",
      "type": "event"
    },
    {
      "anonymous": false,
      "inputs": [
        {
          "indexed": false,
          "internalType": "address",
          "name": "sgl",
          "type": "address"
        },
        {
          "indexed": false,
          "internalType": "uint256",
          "name": "assetID",
          "type": "uint256"
        }
      ],
      "name": "RegisterSingularity",
      "type": "event"
    },
    {
      "anonymous": false,
      "inputs": [
        {
          "indexed": false,
          "internalType": "address",
          "name": "sgl",
          "type": "address"
        },
        {
          "indexed": false,
          "internalType": "uint256",
          "name": "poolWeight",
          "type": "uint256"
        }
      ],
      "name": "SetSGLPoolWeight",
      "type": "event"
    },
    {
      "anonymous": false,
      "inputs": [
        {
          "indexed": true,
          "internalType": "address",
          "name": "from",
          "type": "address"
        },
        {
          "indexed": true,
          "internalType": "address",
          "name": "to",
          "type": "address"
        },
        {
          "indexed": true,
          "internalType": "uint256",
          "name": "tokenId",
          "type": "uint256"
        }
      ],
      "name": "Transfer",
      "type": "event"
    },
    {
      "anonymous": false,
      "inputs": [
        {
          "indexed": false,
          "internalType": "address",
          "name": "account",
          "type": "address"
        }
      ],
      "name": "Unpaused",
      "type": "event"
    },
    {
      "anonymous": false,
      "inputs": [
        {
          "indexed": false,
          "internalType": "address",
          "name": "sgl",
          "type": "address"
        },
        {
          "indexed": false,
          "internalType": "uint256",
          "name": "assetID",
          "type": "uint256"
        }
      ],
      "name": "UnregisterSingularity",
      "type": "event"
    },
    {
      "anonymous": false,
      "inputs": [
        {
          "indexed": false,
          "internalType": "uint256",
          "name": "totalSingularityPoolWeights",
          "type": "uint256"
        }
      ],
      "name": "UpdateTotalSingularityPoolWeights",
      "type": "event"
    },
    {
      "inputs": [
        {
          "internalType": "contract IERC20",
          "name": "",
          "type": "address"
        }
      ],
      "name": "activeSingularities",
      "outputs": [
        {
          "internalType": "uint256",
          "name": "sglAssetID",
          "type": "uint256"
        },
        {
          "internalType": "uint256",
          "name": "totalDeposited",
          "type": "uint256"
        },
        {
          "internalType": "uint256",
          "name": "poolWeight",
          "type": "uint256"
        }
      ],
      "stateMutability": "view",
      "type": "function"
    },
    {
      "inputs": [
        {
          "internalType": "address",
          "name": "to",
          "type": "address"
        },
        {
          "internalType": "uint256",
          "name": "tokenId",
          "type": "uint256"
        }
      ],
      "name": "approve",
      "outputs": [],
      "stateMutability": "nonpayable",
      "type": "function"
    },
    {
      "inputs": [
        {
          "internalType": "address",
          "name": "owner",
          "type": "address"
        }
      ],
      "name": "balanceOf",
      "outputs": [
        {
          "internalType": "uint256",
          "name": "",
          "type": "uint256"
        }
      ],
      "stateMutability": "view",
      "type": "function"
    },
    {
      "inputs": [],
      "name": "claimOwnership",
      "outputs": [],
      "stateMutability": "nonpayable",
      "type": "function"
    },
    {
      "inputs": [
        {
          "internalType": "uint256",
          "name": "tokenId",
          "type": "uint256"
        }
      ],
      "name": "getApproved",
      "outputs": [
        {
          "internalType": "address",
          "name": "",
          "type": "address"
        }
      ],
      "stateMutability": "view",
      "type": "function"
    },
    {
      "inputs": [
        {
          "internalType": "uint256",
          "name": "_tokenId",
          "type": "uint256"
        }
      ],
      "name": "getLock",
      "outputs": [
        {
          "internalType": "bool",
          "name": "",
          "type": "bool"
        },
        {
          "components": [
            {
              "internalType": "uint128",
              "name": "sglAssetID",
              "type": "uint128"
            },
            {
              "internalType": "uint128",
              "name": "amount",
              "type": "uint128"
            },
            {
              "internalType": "uint128",
              "name": "lockTime",
              "type": "uint128"
            },
            {
              "internalType": "uint128",
              "name": "lockDuration",
              "type": "uint128"
            }
          ],
          "internalType": "struct LockPosition",
          "name": "",
          "type": "tuple"
        }
      ],
      "stateMutability": "view",
      "type": "function"
    },
    {
      "inputs": [],
      "name": "getSingularities",
      "outputs": [
        {
          "internalType": "uint256[]",
          "name": "",
          "type": "uint256[]"
        }
      ],
      "stateMutability": "view",
      "type": "function"
    },
    {
      "inputs": [],
      "name": "getSingularityPools",
      "outputs": [
        {
          "components": [
            {
              "internalType": "uint256",
              "name": "sglAssetID",
              "type": "uint256"
            },
            {
              "internalType": "uint256",
              "name": "totalDeposited",
              "type": "uint256"
            },
            {
              "internalType": "uint256",
              "name": "poolWeight",
              "type": "uint256"
            }
          ],
          "internalType": "struct SingularityPool[]",
          "name": "",
          "type": "tuple[]"
        }
      ],
      "stateMutability": "view",
      "type": "function"
    },
    {
      "inputs": [
        {
          "internalType": "uint256",
          "name": "_sglAssetId",
          "type": "uint256"
        }
      ],
      "name": "getTotalPoolDeposited",
      "outputs": [
        {
          "internalType": "uint256",
          "name": "",
          "type": "uint256"
        }
      ],
      "stateMutability": "view",
      "type": "function"
    },
    {
      "inputs": [
        {
          "internalType": "address",
          "name": "owner",
          "type": "address"
        },
        {
          "internalType": "address",
          "name": "operator",
          "type": "address"
        }
      ],
      "name": "isApprovedForAll",
      "outputs": [
        {
          "internalType": "bool",
          "name": "",
          "type": "bool"
        }
      ],
      "stateMutability": "view",
      "type": "function"
    },
    {
      "inputs": [
        {
          "internalType": "address",
          "name": "_spender",
          "type": "address"
        },
        {
          "internalType": "uint256",
          "name": "_tokenId",
          "type": "uint256"
        }
      ],
      "name": "isApprovedOrOwner",
      "outputs": [
        {
          "internalType": "bool",
          "name": "",
          "type": "bool"
        }
      ],
      "stateMutability": "view",
      "type": "function"
    },
    {
      "inputs": [
        {
          "internalType": "address",
          "name": "_from",
          "type": "address"
        },
        {
          "internalType": "address",
          "name": "_to",
          "type": "address"
        },
        {
          "internalType": "contract IERC20",
          "name": "_singularity",
          "type": "address"
        },
        {
          "internalType": "uint128",
          "name": "_lockDuration",
          "type": "uint128"
        },
        {
          "internalType": "uint128",
          "name": "_amount",
          "type": "uint128"
        }
      ],
      "name": "lock",
      "outputs": [
        {
          "internalType": "uint256",
          "name": "tokenId",
          "type": "uint256"
        }
      ],
      "stateMutability": "nonpayable",
      "type": "function"
    },
    {
      "inputs": [
        {
          "internalType": "uint256",
          "name": "",
          "type": "uint256"
        }
      ],
      "name": "lockPositions",
      "outputs": [
        {
          "internalType": "uint128",
          "name": "sglAssetID",
          "type": "uint128"
        },
        {
          "internalType": "uint128",
          "name": "amount",
          "type": "uint128"
        },
        {
          "internalType": "uint128",
          "name": "lockTime",
          "type": "uint128"
        },
        {
          "internalType": "uint128",
          "name": "lockDuration",
          "type": "uint128"
        }
      ],
      "stateMutability": "view",
      "type": "function"
    },
    {
      "inputs": [],
      "name": "name",
      "outputs": [
        {
          "internalType": "string",
          "name": "",
          "type": "string"
        }
      ],
      "stateMutability": "view",
      "type": "function"
    },
    {
      "inputs": [
        {
          "internalType": "address",
          "name": "",
          "type": "address"
        },
        {
          "internalType": "address",
          "name": "",
          "type": "address"
        },
        {
          "internalType": "uint256",
          "name": "",
          "type": "uint256"
        },
        {
          "internalType": "uint256",
          "name": "",
          "type": "uint256"
        },
        {
          "internalType": "bytes",
          "name": "",
          "type": "bytes"
        }
      ],
      "name": "onERC1155Received",
      "outputs": [
        {
          "internalType": "bytes4",
          "name": "",
          "type": "bytes4"
        }
      ],
      "stateMutability": "pure",
      "type": "function"
    },
    {
      "inputs": [],
      "name": "owner",
      "outputs": [
        {
          "internalType": "address",
          "name": "",
          "type": "address"
        }
      ],
      "stateMutability": "view",
      "type": "function"
    },
    {
      "inputs": [
        {
          "internalType": "uint256",
          "name": "tokenId",
          "type": "uint256"
        }
      ],
      "name": "ownerOf",
      "outputs": [
        {
          "internalType": "address",
          "name": "",
          "type": "address"
        }
      ],
      "stateMutability": "view",
      "type": "function"
    },
    {
      "inputs": [],
      "name": "paused",
      "outputs": [
        {
          "internalType": "bool",
          "name": "",
          "type": "bool"
        }
      ],
      "stateMutability": "view",
      "type": "function"
    },
    {
      "inputs": [],
      "name": "pendingOwner",
      "outputs": [
        {
          "internalType": "address",
          "name": "",
          "type": "address"
        }
      ],
      "stateMutability": "view",
      "type": "function"
    },
    {
      "inputs": [
        {
          "internalType": "contract IERC20",
          "name": "singularity",
          "type": "address"
        },
        {
          "internalType": "uint256",
          "name": "assetID",
          "type": "uint256"
        },
        {
          "internalType": "uint256",
          "name": "weight",
          "type": "uint256"
        }
      ],
      "name": "registerSingularity",
      "outputs": [],
      "stateMutability": "nonpayable",
      "type": "function"
    },
    {
      "inputs": [
        {
          "internalType": "address",
          "name": "from",
          "type": "address"
        },
        {
          "internalType": "address",
          "name": "to",
          "type": "address"
        },
        {
          "internalType": "uint256",
          "name": "tokenId",
          "type": "uint256"
        }
      ],
      "name": "safeTransferFrom",
      "outputs": [],
      "stateMutability": "nonpayable",
      "type": "function"
    },
    {
      "inputs": [
        {
          "internalType": "address",
          "name": "from",
          "type": "address"
        },
        {
          "internalType": "address",
          "name": "to",
          "type": "address"
        },
        {
          "internalType": "uint256",
          "name": "tokenId",
          "type": "uint256"
        },
        {
          "internalType": "bytes",
          "name": "data",
          "type": "bytes"
        }
      ],
      "name": "safeTransferFrom",
      "outputs": [],
      "stateMutability": "nonpayable",
      "type": "function"
    },
    {
      "inputs": [
        {
          "internalType": "address",
          "name": "operator",
          "type": "address"
        },
        {
          "internalType": "bool",
          "name": "approved",
          "type": "bool"
        }
      ],
      "name": "setApprovalForAll",
      "outputs": [],
      "stateMutability": "nonpayable",
      "type": "function"
    },
    {
      "inputs": [
        {
          "internalType": "contract IERC20",
          "name": "singularity",
          "type": "address"
        },
        {
          "internalType": "uint256",
          "name": "weight",
          "type": "uint256"
        }
      ],
      "name": "setSGLPoolWEight",
      "outputs": [],
      "stateMutability": "nonpayable",
      "type": "function"
    },
    {
      "inputs": [
        {
          "internalType": "uint256",
          "name": "",
          "type": "uint256"
        }
      ],
      "name": "sglAssetIDToAddress",
      "outputs": [
        {
          "internalType": "contract IERC20",
          "name": "",
          "type": "address"
        }
      ],
      "stateMutability": "view",
      "type": "function"
    },
    {
      "inputs": [
        {
          "internalType": "uint256",
          "name": "",
          "type": "uint256"
        }
      ],
      "name": "singularities",
      "outputs": [
        {
          "internalType": "uint256",
          "name": "",
          "type": "uint256"
        }
      ],
      "stateMutability": "view",
      "type": "function"
    },
    {
      "inputs": [
        {
          "internalType": "bytes4",
          "name": "interfaceId",
          "type": "bytes4"
        }
      ],
      "name": "supportsInterface",
      "outputs": [
        {
          "internalType": "bool",
          "name": "",
          "type": "bool"
        }
      ],
      "stateMutability": "view",
      "type": "function"
    },
    {
      "inputs": [],
      "name": "symbol",
      "outputs": [
        {
          "internalType": "string",
          "name": "",
          "type": "string"
        }
      ],
      "stateMutability": "view",
      "type": "function"
    },
    {
      "inputs": [],
      "name": "tokenCounter",
      "outputs": [
        {
          "internalType": "uint256",
          "name": "",
          "type": "uint256"
        }
      ],
      "stateMutability": "view",
      "type": "function"
    },
    {
      "inputs": [
        {
          "internalType": "uint256",
          "name": "tokenId",
          "type": "uint256"
        }
      ],
      "name": "tokenURI",
      "outputs": [
        {
          "internalType": "string",
          "name": "",
          "type": "string"
        }
      ],
      "stateMutability": "view",
      "type": "function"
    },
    {
      "inputs": [],
      "name": "totalSingularityPoolWeights",
      "outputs": [
        {
          "internalType": "uint256",
          "name": "",
          "type": "uint256"
        }
      ],
      "stateMutability": "view",
      "type": "function"
    },
    {
      "inputs": [
        {
          "internalType": "address",
          "name": "from",
          "type": "address"
        },
        {
          "internalType": "address",
          "name": "to",
          "type": "address"
        },
        {
          "internalType": "uint256",
          "name": "tokenId",
          "type": "uint256"
        }
      ],
      "name": "transferFrom",
      "outputs": [],
      "stateMutability": "nonpayable",
      "type": "function"
    },
    {
      "inputs": [
        {
          "internalType": "address",
          "name": "newOwner",
          "type": "address"
        },
        {
          "internalType": "bool",
          "name": "direct",
          "type": "bool"
        },
        {
          "internalType": "bool",
          "name": "renounce",
          "type": "bool"
        }
      ],
      "name": "transferOwnership",
      "outputs": [],
      "stateMutability": "nonpayable",
      "type": "function"
    },
    {
      "inputs": [
        {
          "internalType": "uint256",
          "name": "_tokenId",
          "type": "uint256"
        },
        {
          "internalType": "contract IERC20",
          "name": "_singularity",
          "type": "address"
        },
        {
          "internalType": "address",
          "name": "_to",
          "type": "address"
        }
      ],
      "name": "unlock",
      "outputs": [
        {
          "internalType": "uint256",
          "name": "sharesOut",
          "type": "uint256"
        }
      ],
      "stateMutability": "nonpayable",
      "type": "function"
    },
    {
      "inputs": [
        {
          "internalType": "contract IERC20",
          "name": "singularity",
          "type": "address"
        }
      ],
      "name": "unregisterSingularity",
      "outputs": [],
      "stateMutability": "nonpayable",
      "type": "function"
    },
    {
      "inputs": [],
      "name": "yieldBox",
      "outputs": [
        {
          "internalType": "contract IYieldBox",
          "name": "",
          "type": "address"
        }
      ],
      "stateMutability": "view",
      "type": "function"
    }
  ],
  "transactionHash": "0x2d35bc0efb840d0f1670e18a93d6cfd8c52927de5019b6d6d0718c2706953f8d",
  "args": [
    "0xCA3604D7Df34a785D20Cbe7A0Bbd0AF54E9FeF9e"
  ],
  "numDeployments": 2,
  "solcInputHash": "9caa3d0b7434dcbbcbea500ad031c4d3",
  "bytecode": "0x60a06040523480156200001157600080fd5b5060405162003035380380620030358339810160408190526200003491620001af565b604080518082018252601f81527f546170696f63614f7074696f6e4c697175696469747950726f766973696f6e006020808301918252835180850190945260048452630744f4c560e41b908401528151919291620000959160009162000109565b508051620000ab90600190602084019062000109565b5050600680546001600160a81b03191661010033908102919091179091556040519091506000907f8be0079c531659141344cd1fd0a4f28419497f9722a3daafe3b4186f6b6457e0908290a36001600160a01b03166080526200021e565b8280546200011790620001e1565b90600052602060002090601f0160209004810192826200013b576000855562000186565b82601f106200015657805160ff191683800117855562000186565b8280016001018555821562000186579182015b828111156200018657825182559160200191906001019062000169565b506200019492915062000198565b5090565b5b8082111562000194576000815560010162000199565b600060208284031215620001c257600080fd5b81516001600160a01b0381168114620001da57600080fd5b9392505050565b600181811c90821680620001f657607f821691505b602082108114156200021857634e487b7160e01b600052602260045260246000fd5b50919050565b608051612ddf620002566000396000818161054401528181610d6001528181610e18015281816113cb015261148e0152612ddf6000f3fe608060405234801561001057600080fd5b50600436106101dc5760003560e01c806363ef67b111610105578063bf3497041161009d578063bf349704146104b6578063c87b56dd146104ef578063d082e38114610502578063d487206f1461050b578063d68f4dd11461051e578063de4065771461053f578063e30c397814610566578063e985e9c514610579578063f23a6e611461058c57600080fd5b806363ef67b1146103f957806370a082311461040c57806389fd39701461041f5780638da5cb5b1461044857806395d89b4114610460578063a22cb46514610468578063a7bffffc1461047b578063b222e09514610490578063b88d4fde146104a357600080fd5b806331df8d141161017857806331df8d14146103285780633873b0cd1461033b57806342842e0e14610385578063430c2081146103985780634e71e0c8146103ab5780635c975abb146103b35780635d9b9bba146103be57806361b9cd1e146103d35780636352211e146103e657600080fd5b806301ffc9a7146101e157806306fdde0314610209578063078dfbe71461021e578063081812fc14610233578063095ea7b31461025e5780631678e4f61461027157806317655090146102885780631b7567101461030257806323b872dd14610315575b600080fd5b6101f46101ef366004612480565b6105de565b60405190151581526020015b60405180910390f35b610211610630565b60405161020091906124f5565b61023161022c366004612532565b6106c2565b005b610246610241366004612577565b6107ef565b6040516001600160a01b039091168152602001610200565b61023161026c366004612590565b610816565b61027a600d5481565b604051908152602001610200565b6102cf610296366004612577565b600960205260009081526040902080546001909101546001600160801b0380831692600160801b90819004821692808316929190041684565b604080516001600160801b0395861681529385166020850152918416918301919091529091166060820152608001610200565b6102316103103660046125bc565b610927565b6102316103233660046125d9565b610bec565b61027a610336366004612631565b610c1d565b61036a6103493660046125bc565b600a6020526000908152604090208054600182015460029092015490919083565b60408051938452602084019290925290820152606001610200565b6102316103933660046125d9565b610f87565b6101f46103a6366004612590565b610fa2565b610231610fb5565b60065460ff166101f4565b6103c6611087565b604051610200919061269c565b61027a6103e13660046126f5565b6111ab565b6102466103f4366004612577565b61158d565b61027a610407366004612577565b6115c2565b61027a61041a3660046125bc565b6115e3565b61024661042d366004612577565b600b602052600090815260409020546001600160a01b031681565b6006546102469061010090046001600160a01b031681565b610211611669565b610231610476366004612737565b611678565b610483611687565b604051610200919061276c565b61023161049e366004612590565b6116de565b6102316104b13660046127c6565b6117cc565b61027a6104c4366004612577565b6000908152600b60209081526040808320546001600160a01b03168352600a90915290206001015490565b6102116104fd366004612577565b611804565b61027a60085481565b6102316105193660046128a6565b611877565b61053161052c366004612577565b611a53565b60405161020092919061290e565b6102467f000000000000000000000000000000000000000000000000000000000000000081565b600754610246906001600160a01b031681565b6101f4610587366004612924565b611adb565b6105c561059a36600461295d565b7ff23a6e612e1ff4830e658fe43f4e3cb4a5f8170bd5d9e69fb5d7a7fa9e4fdf979695505050505050565b6040516001600160e01b03199091168152602001610200565b60006001600160e01b031982166380ac58cd60e01b148061060f57506001600160e01b03198216635b5e139f60e01b145b8061062a57506301ffc9a760e01b6001600160e01b03198316145b92915050565b60606000805461063f90612a07565b80601f016020809104026020016040519081016040528092919081815260200182805461066b90612a07565b80156106b85780601f1061068d576101008083540402835291602001916106b8565b820191906000526020600020905b81548152906001019060200180831161069b57829003601f168201915b5050505050905090565b60065461010090046001600160a01b031633146106fa5760405162461bcd60e51b81526004016106f190612a42565b60405180910390fd5b81156107ce576001600160a01b0383161515806107145750805b6107585760405162461bcd60e51b81526020600482015260156024820152744f776e61626c653a207a65726f206164647265737360581b60448201526064016106f1565b6006546040516001600160a01b0380861692610100900416907f8be0079c531659141344cd1fd0a4f28419497f9722a3daafe3b4186f6b6457e090600090a3600680546001600160a01b03851661010002610100600160a81b0319909116179055600780546001600160a01b0319169055505050565b600780546001600160a01b0319166001600160a01b0385161790555b505050565b60006107fa82611b09565b506000908152600460205260409020546001600160a01b031690565b60006108218261158d565b9050806001600160a01b0316836001600160a01b0316141561088f5760405162461bcd60e51b815260206004820152602160248201527f4552433732313a20617070726f76616c20746f2063757272656e74206f776e656044820152603960f91b60648201526084016106f1565b336001600160a01b03821614806108ab57506108ab8133611adb565b61091d5760405162461bcd60e51b815260206004820152603d60248201527f4552433732313a20617070726f76652063616c6c6572206973206e6f7420746f60448201527f6b656e206f776e6572206f7220617070726f76656420666f7220616c6c00000060648201526084016106f1565b6107ea8383611b31565b60065461010090046001600160a01b031633146109565760405162461bcd60e51b81526004016106f190612a42565b6001600160a01b0381166000908152600a60205260409020548061098c5760405162461bcd60e51b81526004016106f190612a77565b6000600c8054806020026020016040519081016040528092919081815260200182805480156109da57602002820191906000526020600020905b8154815260200190600101908083116109c6575b505083519394505060001983019150600090505b82811015610b7d5784848281518110610a0957610a09612aa5565b6020026020010151148015610a1d57508181105b15610aec576001600160a01b0386166000908152600a6020908152604080832083815560018101849055600201839055878352600b909152902080546001600160a01b0319169055600c805482908110610a7957610a79612aa5565b9060005260206000200160009055838281518110610a9957610a99612aa5565b6020026020010151600c8281548110610ab457610ab4612aa5565b600091825260209091200155600c805480610ad157610ad1612abb565b60019003818190600052602060002001600090559055610b7d565b6001600160a01b0386166000908152600a6020908152604080832083815560018101849055600201839055878352600b909152902080546001600160a01b0319169055600c805483908110610b4357610b43612aa5565b6000918252602082200155600c805480610b5f57610b5f612abb565b600190038181906000526020600020016000905590556001016109ee565b505050507f650727fb147d404992e2dd3fc82d96fd303e09a64075e7d5092d1361bb7befd18282604051610bb2929190612ad1565b60405180910390a150610bc3611b9f565b600d819055604051908152600080516020612d6a8339815191529060200160405180910390a150565b610bf63382611c2b565b610c125760405162461bcd60e51b81526004016106f190612aea565b6107ea838383611c8a565b600080836001600160801b031611610c775760405162461bcd60e51b815260206004820152601f60248201527f744f4c503a206c6f636b206475726174696f6e206d757374206265203e20300060448201526064016106f1565b6000826001600160801b031611610ccb5760405162461bcd60e51b81526020600482015260186024820152770744f4c503a20616d6f756e74206d757374206265203e20360441b60448201526064016106f1565b6001600160a01b0384166000908152600a602052604090205480610d315760405162461bcd60e51b815260206004820152601c60248201527f744f4c503a2073696e67756c6172697479206e6f74206163746976650000000060448201526064016106f1565b604051638eb22cdd60e01b8152600481018290526001600160801b0384166024820152600060448201819052907f00000000000000000000000000000000000000000000000000000000000000006001600160a01b031690638eb22cdd9060640160206040518083038186803b158015610daa57600080fd5b505afa158015610dbe573d6000803e3d6000fd5b505050506040513d601f19601f82011682018060405250810190610de29190612b37565b604051630208d92960e11b81526001600160a01b038a8116600483015230602483015260448201859052606482018390529192507f000000000000000000000000000000000000000000000000000000000000000090911690630411b25290608401600060405180830381600087803b158015610e5e57600080fd5b505af1158015610e72573d6000803e3d6000fd5b505050506001600160a01b0386166000908152600a6020526040812060010180546001600160801b0387169290610eaa908490612b66565b909155505060088054600090610ebf90612b7e565b91829055509250610ed08784611de9565b600083815260096020526040908190206001600160801b03878116600160801b90810242831617600184015587821602908516908117825591519091906001600160a01b038a16907f0ecba5daa08a4b1cbd80676383ad5fdb38bd304cfb87375527c23e841f21f70790610f7390859081546001600160801b038082168352608091821c6020840152600190930154928316604083015291821c60608201520190565b60405180910390a350505095945050505050565b6107ea838383604051806020016040528060008152506117cc565b6000610fae8383611c2b565b9392505050565b6007546001600160a01b03163381146110105760405162461bcd60e51b815260206004820181905260248201527f4f776e61626c653a2063616c6c657220213d2070656e64696e67206f776e657260448201526064016106f1565b6006546040516001600160a01b0380841692610100900416907f8be0079c531659141344cd1fd0a4f28419497f9722a3daafe3b4186f6b6457e090600090a3600680546001600160a01b0390921661010002610100600160a81b0319909216919091179055600780546001600160a01b0319169055565b600c5460609060008167ffffffffffffffff8111156110a8576110a86127b0565b6040519080825280602002602001820160405280156110fd57816020015b6110ea60405180606001604052806000815260200160008152602001600081525090565b8152602001906001900390816110c65790505b50905060005b828110156111a457600a6000600b6000600c858154811061112657611126612aa5565b600091825260208083209091015483528281019390935260409182018120546001600160a01b03168452838301949094529182019092208151606081018352815481526001820154938101939093526002015490820152825183908390811061119157611191612aa5565b6020908102919091010152600101611103565b5092915050565b60006111b684611e03565b6111fb5760405162461bcd60e51b81526020600482015260166024820152753a27a6281d1022bc3834b932b2103837b9b4ba34b7b760511b60448201526064016106f1565b600084815260096020908152604091829020825160808101845281546001600160801b038082168352600160801b918290048116948301949094526001909201548084169482018590529190910490911660608201819052909161125f9190612b99565b6001600160801b03164210156112b05760405162461bcd60e51b81526020600482015260166024820152751d13d3140e88131bd8dac81b9bdd08195e1c1a5c995960521b60448201526064016106f1565b80516001600160a01b0385166000908152600a60205260409020546001600160801b039091161461131f5760405162461bcd60e51b8152602060048201526019602482015278744f4c503a20496e76616c69642073696e67756c617269747960381b60448201526064016106f1565b6113293386611c2b565b6113755760405162461bcd60e51b815260206004820152601c60248201527f744f4c503a206e6f74206f776e6572206e6f7220617070726f7665640000000060448201526064016106f1565b61137e85611e20565b60008581526009602090815260408083208381556001018390558351918401519051638eb22cdd60e01b81526001600160801b0392831660048201529116602482015260448101919091527f00000000000000000000000000000000000000000000000000000000000000006001600160a01b031690638eb22cdd9060640160206040518083038186803b15801561141557600080fd5b505afa158015611429573d6000803e3d6000fd5b505050506040513d601f19601f8201168201806040525081019061144d9190612b37565b8151604051630208d92960e11b81523060048201526001600160a01b0386811660248301526001600160801b039092166044820152606481018390529193507f00000000000000000000000000000000000000000000000000000000000000001690630411b25290608401600060405180830381600087803b1580156114d257600080fd5b505af11580156114e6573d6000803e3d6000fd5b5050505080602001516001600160801b0316600a6000866001600160a01b03166001600160a01b03168152602001908152602001600020600101600082825461152f9190612bc4565b9250508190555080600001516001600160801b0316836001600160a01b03167f49a51d755b4ec7c1bd939eabd0addff55713d7d5d146dc35b9781f0ca704131c8360405161157d9190612bdb565b60405180910390a3509392505050565b6000818152600260205260408120546001600160a01b03168061062a5760405162461bcd60e51b81526004016106f190612be9565b600c81815481106115d257600080fd5b600091825260209091200154905081565b60006001600160a01b03821661164d5760405162461bcd60e51b815260206004820152602960248201527f4552433732313a2061646472657373207a65726f206973206e6f7420612076616044820152683634b21037bbb732b960b91b60648201526084016106f1565b506001600160a01b031660009081526003602052604090205490565b60606001805461063f90612a07565b611683338383611eb1565b5050565b6060600c8054806020026020016040519081016040528092919081815260200182805480156106b857602002820191906000526020600020905b8154815260200190600101908083116116c1575050505050905090565b60065461010090046001600160a01b0316331461170d5760405162461bcd60e51b81526004016106f190612a42565b6001600160a01b0382166000908152600a60205260409020546117425760405162461bcd60e51b81526004016106f190612a77565b6001600160a01b0382166000908152600a602052604090819020600201829055517f0c1acb72620e2739824c28ca1a4d6ff1c976623c0cb1b55718c00ba54d6b58d2906117929084908490612ad1565b60405180910390a16117a2611b9f565b600d819055604051908152600080516020612d6a8339815191529060200160405180910390a15050565b6117d63383611c2b565b6117f25760405162461bcd60e51b81526004016106f190612aea565b6117fe84848484611f7c565b50505050565b606061180f82611b09565b600061182660408051602081019091526000815290565b905060008151116118465760405180602001604052806000815250610fae565b8061185084611faf565b604051602001611861929190612c1b565b6040516020818303038152906040529392505050565b60065461010090046001600160a01b031633146118a65760405162461bcd60e51b81526004016106f190612a42565b600082116118ef5760405162461bcd60e51b81526020600482015260166024820152751d13d3140e881a5b9d985b1a5908185cdcd95d08125160521b60448201526064016106f1565b6001600160a01b0383166000908152600a6020526040902054156119505760405162461bcd60e51b81526020600482015260186024820152771d13d3140e88185b1c9958591e481c9959da5cdd195c995960421b60448201526064016106f1565b6001600160a01b0383166000908152600a6020526040902082905580611977576001611979565b805b6001600160a01b0384166000818152600a6020908152604080832060020194909455858252600b905282812080546001600160a01b031916909217909155600c805460018101825591527fdf6966c971051c3d54ec59162606531493a51404a002842f56009d7e5cf4a8c701839055517ff7c8e4ce85d8395b55ee446757029d0926764b38025301b06b35bb4abd9cd9b690611a189085908590612ad1565b60405180910390a1611a28611b9f565b600d819055604051908152600080516020612d6a8339815191529060200160405180910390a1505050565b6040805160808101825260008082526020820181905291810182905260608101829052600083815260096020908152604091829020825160808101845281546001600160801b038082168352600160801b91829004811694830194909452600190920154808416948201949094529204166060820152611ad28461204c565b94909350915050565b6001600160a01b03918216600090815260056020908152604080832093909416825291909152205460ff1690565b611b1281611e03565b611b2e5760405162461bcd60e51b81526004016106f190612be9565b50565b600081815260046020526040902080546001600160a01b0319166001600160a01b0384169081179091558190611b668261158d565b6001600160a01b03167f8c5be1e5ebec7d5bd14f71427d1e84f3dd0314c0f7b2291e5b200ac8c7c3b92560405160405180910390a45050565b600c546000908190815b81811015611c2357600a6000600b6000600c8581548110611bcc57611bcc612aa5565b600091825260208083209091015483528281019390935260409182018120546001600160a01b03168452918301939093529101902060020154611c0f9084612b66565b925080611c1b81612b7e565b915050611ba9565b509092915050565b600080611c378361158d565b9050806001600160a01b0316846001600160a01b03161480611c5e5750611c5e8185611adb565b80611c825750836001600160a01b0316611c77846107ef565b6001600160a01b0316145b949350505050565b826001600160a01b0316611c9d8261158d565b6001600160a01b031614611cc35760405162461bcd60e51b81526004016106f190612c41565b6001600160a01b038216611d255760405162461bcd60e51b8152602060048201526024808201527f4552433732313a207472616e7366657220746f20746865207a65726f206164646044820152637265737360e01b60648201526084016106f1565b611d3283838360016120c1565b826001600160a01b0316611d458261158d565b6001600160a01b031614611d6b5760405162461bcd60e51b81526004016106f190612c41565b600081815260046020908152604080832080546001600160a01b03199081169091556001600160a01b038781168086526003855283862080546000190190559087168086528386208054600101905586865260029094528285208054909216841790915590518493600080516020612d8a83398151915291a4505050565b611683828260405180602001604052806000815250612149565b6000908152600260205260409020546001600160a01b0316151590565b6000611e2b8261158d565b9050611e3b8160008460016120c1565b611e448261158d565b600083815260046020908152604080832080546001600160a01b03199081169091556001600160a01b038516808552600384528285208054600019019055878552600290935281842080549091169055519293508492600080516020612d8a833981519152908390a45050565b816001600160a01b0316836001600160a01b03161415611f0f5760405162461bcd60e51b815260206004820152601960248201527822a9219b99189d1030b8383937bb32903a379031b0b63632b960391b60448201526064016106f1565b6001600160a01b03838116600081815260056020908152604080832094871680845294825291829020805460ff191686151590811790915591519182527f17307eab39ab6107e8899845ad3d59bd9653f200f220920489ca2b5937696c31910160405180910390a3505050565b611f87848484611c8a565b611f938484848461217c565b6117fe5760405162461bcd60e51b81526004016106f190612c86565b60606000611fbc83612289565b600101905060008167ffffffffffffffff811115611fdc57611fdc6127b0565b6040519080825280601f01601f191660200182016040528015612006576020820181803683370190505b5090508181016020015b600019016f181899199a1a9b1b9c1cb0b131b232b360811b600a86061a8153600a850494508461203f57612044565b612010565b509392505050565b6000818152600960209081526040808320815160808101835281546001600160801b038082168352600160801b91829004811695830195909552600190920154808516938201849052919091049092166060830181905242916120af9190612b99565b6001600160801b031610159392505050565b60018111156117fe576001600160a01b03841615612107576001600160a01b03841660009081526003602052604081208054839290612101908490612bc4565b90915550505b6001600160a01b038316156117fe576001600160a01b0383166000908152600360205260408120805483929061213e908490612b66565b909155505050505050565b6121538383612361565b612160600084848461217c565b6107ea5760405162461bcd60e51b81526004016106f190612c86565b60006001600160a01b0384163b1561227e57604051630a85bd0160e11b81526001600160a01b0385169063150b7a02906121c0903390899088908890600401612cd8565b602060405180830381600087803b1580156121da57600080fd5b505af192505050801561220a575060408051601f3d908101601f1916820190925261220791810190612d15565b60015b612264573d808015612238576040519150601f19603f3d011682016040523d82523d6000602084013e61223d565b606091505b50805161225c5760405162461bcd60e51b81526004016106f190612c86565b805181602001fd5b6001600160e01b031916630a85bd0160e11b149050611c82565b506001949350505050565b60008072184f03e93ff9f4daa797ed6e38ed64bf6a1f0160401b83106122c85772184f03e93ff9f4daa797ed6e38ed64bf6a1f0160401b830492506040015b6d04ee2d6d415b85acef810000000083106122f4576d04ee2d6d415b85acef8100000000830492506020015b662386f26fc10000831061231257662386f26fc10000830492506010015b6305f5e100831061232a576305f5e100830492506008015b612710831061233e57612710830492506004015b60648310612350576064830492506002015b600a831061062a5760010192915050565b6001600160a01b0382166123b75760405162461bcd60e51b815260206004820181905260248201527f4552433732313a206d696e7420746f20746865207a65726f206164647265737360448201526064016106f1565b6123c081611e03565b156123dd5760405162461bcd60e51b81526004016106f190612d32565b6123eb6000838360016120c1565b6123f481611e03565b156124115760405162461bcd60e51b81526004016106f190612d32565b6001600160a01b038216600081815260036020908152604080832080546001019055848352600290915280822080546001600160a01b031916841790555183929190600080516020612d8a833981519152908290a45050565b6001600160e01b031981168114611b2e57600080fd5b60006020828403121561249257600080fd5b8135610fae8161246a565b60005b838110156124b85781810151838201526020016124a0565b838111156117fe5750506000910152565b600081518084526124e181602086016020860161249d565b601f01601f19169290920160200192915050565b602081526000610fae60208301846124c9565b6001600160a01b0381168114611b2e57600080fd5b8035801515811461252d57600080fd5b919050565b60008060006060848603121561254757600080fd5b833561255281612508565b92506125606020850161251d565b915061256e6040850161251d565b90509250925092565b60006020828403121561258957600080fd5b5035919050565b600080604083850312156125a357600080fd5b82356125ae81612508565b946020939093013593505050565b6000602082840312156125ce57600080fd5b8135610fae81612508565b6000806000606084860312156125ee57600080fd5b83356125f981612508565b9250602084013561260981612508565b929592945050506040919091013590565b80356001600160801b038116811461252d57600080fd5b600080600080600060a0868803121561264957600080fd5b853561265481612508565b9450602086013561266481612508565b9350604086013561267481612508565b92506126826060870161261a565b91506126906080870161261a565b90509295509295909350565b602080825282518282018190526000919060409081850190868401855b828110156126e857815180518552868101518786015285015185850152606090930192908501906001016126b9565b5091979650505050505050565b60008060006060848603121561270a57600080fd5b83359250602084013561271c81612508565b9150604084013561272c81612508565b809150509250925092565b6000806040838503121561274a57600080fd5b823561275581612508565b91506127636020840161251d565b90509250929050565b6020808252825182820181905260009190848201906040850190845b818110156127a457835183529284019291840191600101612788565b50909695505050505050565b634e487b7160e01b600052604160045260246000fd5b600080600080608085870312156127dc57600080fd5b84356127e781612508565b935060208501356127f781612508565b925060408501359150606085013567ffffffffffffffff8082111561281b57600080fd5b818701915087601f83011261282f57600080fd5b813581811115612841576128416127b0565b604051601f8201601f19908116603f01168101908382118183101715612869576128696127b0565b816040528281528a602084870101111561288257600080fd5b82602086016020830137600060208483010152809550505050505092959194509250565b6000806000606084860312156128bb57600080fd5b83356128c681612508565b95602085013595506040909401359392505050565b80516001600160801b03908116835260208083015182169084015260408083015182169084015260609182015116910152565b821515815260a08101610fae60208301846128db565b6000806040838503121561293757600080fd5b823561294281612508565b9150602083013561295281612508565b809150509250929050565b60008060008060008060a0878903121561297657600080fd5b863561298181612508565b9550602087013561299181612508565b94506040870135935060608701359250608087013567ffffffffffffffff808211156129bc57600080fd5b818901915089601f8301126129d057600080fd5b8135818111156129df57600080fd5b8a60208285010111156129f157600080fd5b6020830194508093505050509295509295509295565b600181811c90821680612a1b57607f821691505b60208210811415612a3c57634e487b7160e01b600052602260045260246000fd5b50919050565b6020808252818101527f4f776e61626c653a2063616c6c6572206973206e6f7420746865206f776e6572604082015260600190565b6020808252601490820152731d13d3140e881b9bdd081c9959da5cdd195c995960621b604082015260600190565b634e487b7160e01b600052603260045260246000fd5b634e487b7160e01b600052603160045260246000fd5b6001600160a01b03929092168252602082015260400190565b6020808252602d908201527f4552433732313a2063616c6c6572206973206e6f7420746f6b656e206f776e6560408201526c1c881bdc88185c1c1c9bdd9959609a1b606082015260800190565b600060208284031215612b4957600080fd5b5051919050565b634e487b7160e01b600052601160045260246000fd5b60008219821115612b7957612b79612b50565b500190565b6000600019821415612b9257612b92612b50565b5060010190565b60006001600160801b03828116848216808303821115612bbb57612bbb612b50565b01949350505050565b600082821015612bd657612bd6612b50565b500390565b6080810161062a82846128db565b602080825260189082015277115490cdcc8c4e881a5b9d985b1a59081d1bdad95b88125160421b604082015260600190565b60008351612c2d81846020880161249d565b835190830190612bbb81836020880161249d565b60208082526025908201527f4552433732313a207472616e736665722066726f6d20696e636f72726563742060408201526437bbb732b960d91b606082015260800190565b60208082526032908201527f4552433732313a207472616e7366657220746f206e6f6e20455243373231526560408201527131b2b4bb32b91034b6b83632b6b2b73a32b960711b606082015260800190565b6001600160a01b0385811682528416602082015260408101839052608060608201819052600090612d0b908301846124c9565b9695505050505050565b600060208284031215612d2757600080fd5b8151610fae8161246a565b6020808252601c908201527f4552433732313a20746f6b656e20616c7265616479206d696e7465640000000060408201526060019056fe1ef56a7764f084304233be079eb668c64baf9aaeb0348be5e25c356ce11353c7ddf252ad1be2c89b69c2b068fc378daa952ba7f163c4a11628f55a4df523b3efa2646970667358221220bd677fae2e07ac16dca59565cc5b914036e8557ed8a1afbffe3f97d10699cc7464736f6c63430008090033",
  "devdoc": {
    "kind": "dev",
    "methods": {
      "approve(address,uint256)": {
        "details": "See {IERC721-approve}."
      },
      "balanceOf(address)": {
        "details": "See {IERC721-balanceOf}."
      },
      "getApproved(uint256)": {
        "details": "See {IERC721-getApproved}."
      },
      "getLock(uint256)": {
        "params": {
          "_tokenId": "tOLP NFT ID"
        }
      },
      "isApprovedForAll(address,address)": {
        "details": "See {IERC721-isApprovedForAll}."
      },
      "lock(address,address,address,uint128,uint128)": {
        "params": {
          "_amount": "Amount of tOLR tokens to lock",
          "_from": "Address to transfer the SGL tokens from",
          "_lockDuration": "Duration of the lock",
          "_singularity": "Singularity market address",
          "_to": "Address to mint the tOLP NFT to"
        },
        "returns": {
          "tokenId": "The ID of the minted NFT"
        }
      },
      "name()": {
        "details": "See {IERC721Metadata-name}."
      },
      "ownerOf(uint256)": {
        "details": "See {IERC721-ownerOf}."
      },
      "paused()": {
        "details": "Returns true if the contract is paused, and false otherwise."
      },
      "registerSingularity(address,uint256,uint256)": {
        "params": {
          "assetID": "YieldBox asset ID of the singularity market",
          "singularity": "Singularity market address",
          "weight": "Weight of the pool"
        }
      },
      "safeTransferFrom(address,address,uint256)": {
        "details": "See {IERC721-safeTransferFrom}."
      },
      "safeTransferFrom(address,address,uint256,bytes)": {
        "details": "See {IERC721-safeTransferFrom}."
      },
      "setApprovalForAll(address,bool)": {
        "details": "See {IERC721-setApprovalForAll}."
      },
      "setSGLPoolWEight(address,uint256)": {
        "params": {
          "singularity": "Singularity market address",
          "weight": "Weight of the pool"
        }
      },
      "supportsInterface(bytes4)": {
        "details": "See {IERC165-supportsInterface}."
      },
      "symbol()": {
        "details": "See {IERC721Metadata-symbol}."
      },
      "tokenURI(uint256)": {
        "details": "See {IERC721Metadata-tokenURI}."
      },
      "transferFrom(address,address,uint256)": {
        "details": "See {IERC721-transferFrom}."
      },
      "transferOwnership(address,bool,bool)": {
        "params": {
          "direct": "True if `newOwner` should be set immediately. False if `newOwner` needs to use `claimOwnership`.",
          "newOwner": "Address of the new owner.",
          "renounce": "Allows the `newOwner` to be `address(0)` if `direct` and `renounce` is True. Has no effect otherwise."
        }
      },
      "unlock(uint256,address,address)": {
        "params": {
          "_singularity": "Singularity market address",
          "_to": "Address to send the tokens to",
          "_tokenId": "ID of the position to unlock"
        }
      },
      "unregisterSingularity(address)": {
        "params": {
          "singularity": "Singularity market address"
        }
      }
    },
    "version": 1
  },
  "userdoc": {
    "kind": "user",
    "methods": {
      "claimOwnership()": {
        "notice": "Needs to be called by `pendingOwner` to claim ownership."
      },
      "getLock(uint256)": {
        "notice": "Returns the lock position of a given tOLP NFT and if it's active"
      },
      "getSingularities()": {
        "notice": "Returns the active singularity YieldBox ID markets"
      },
      "getSingularityPools()": {
        "notice": "Returns the active singularity pool data"
      },
      "getTotalPoolDeposited(uint256)": {
        "notice": "Returns the total amount of locked tokens for a given singularity market"
      },
      "lock(address,address,address,uint128,uint128)": {
        "notice": "Locks tOLR tokens for a given duration"
      },
      "onERC1155Received(address,address,uint256,uint256,bytes)": {
        "notice": "ERC1155 compliance"
      },
      "registerSingularity(address,uint256,uint256)": {
        "notice": "Registers a new singularity market"
      },
      "setSGLPoolWEight(address,uint256)": {
        "notice": "Sets the pool weight of a given singularity market"
      },
      "transferOwnership(address,bool,bool)": {
        "notice": "Transfers ownership to `newOwner`. Either directly or claimable by the new pending owner. Can only be invoked by the current `owner`."
      },
      "unlock(uint256,address,address)": {
        "notice": "Unlocks tOLP tokens"
      },
      "unregisterSingularity(address)": {
        "notice": "Un-registers a singularity market"
      }
    },
    "version": 1
  },
  "storageLayout": {
    "storage": [
      {
        "astId": 3137,
        "contract": "contracts/options/TapiocaOptionLiquidityProvision.sol:TapiocaOptionLiquidityProvision",
        "label": "_name",
        "offset": 0,
        "slot": "0",
        "type": "t_string_storage"
      },
      {
        "astId": 3139,
        "contract": "contracts/options/TapiocaOptionLiquidityProvision.sol:TapiocaOptionLiquidityProvision",
        "label": "_symbol",
        "offset": 0,
        "slot": "1",
        "type": "t_string_storage"
      },
      {
        "astId": 3143,
        "contract": "contracts/options/TapiocaOptionLiquidityProvision.sol:TapiocaOptionLiquidityProvision",
        "label": "_owners",
        "offset": 0,
        "slot": "2",
        "type": "t_mapping(t_uint256,t_address)"
      },
      {
        "astId": 3147,
        "contract": "contracts/options/TapiocaOptionLiquidityProvision.sol:TapiocaOptionLiquidityProvision",
        "label": "_balances",
        "offset": 0,
        "slot": "3",
        "type": "t_mapping(t_address,t_uint256)"
      },
      {
        "astId": 3151,
        "contract": "contracts/options/TapiocaOptionLiquidityProvision.sol:TapiocaOptionLiquidityProvision",
        "label": "_tokenApprovals",
        "offset": 0,
        "slot": "4",
        "type": "t_mapping(t_uint256,t_address)"
      },
      {
        "astId": 3157,
        "contract": "contracts/options/TapiocaOptionLiquidityProvision.sol:TapiocaOptionLiquidityProvision",
        "label": "_operatorApprovals",
        "offset": 0,
        "slot": "5",
        "type": "t_mapping(t_address,t_mapping(t_address,t_bool))"
      },
      {
        "astId": 1851,
        "contract": "contracts/options/TapiocaOptionLiquidityProvision.sol:TapiocaOptionLiquidityProvision",
        "label": "_paused",
        "offset": 0,
        "slot": "6",
        "type": "t_bool"
      },
      {
        "astId": 229,
        "contract": "contracts/options/TapiocaOptionLiquidityProvision.sol:TapiocaOptionLiquidityProvision",
        "label": "owner",
        "offset": 1,
        "slot": "6",
        "type": "t_address"
      },
      {
        "astId": 231,
        "contract": "contracts/options/TapiocaOptionLiquidityProvision.sol:TapiocaOptionLiquidityProvision",
        "label": "pendingOwner",
        "offset": 0,
        "slot": "7",
        "type": "t_address"
      },
      {
        "astId": 7784,
        "contract": "contracts/options/TapiocaOptionLiquidityProvision.sol:TapiocaOptionLiquidityProvision",
        "label": "tokenCounter",
        "offset": 0,
        "slot": "8",
        "type": "t_uint256"
      },
      {
        "astId": 7789,
        "contract": "contracts/options/TapiocaOptionLiquidityProvision.sol:TapiocaOptionLiquidityProvision",
        "label": "lockPositions",
        "offset": 0,
        "slot": "9",
        "type": "t_mapping(t_uint256,t_struct(LockPosition)7769_storage)"
      },
      {
        "astId": 7798,
        "contract": "contracts/options/TapiocaOptionLiquidityProvision.sol:TapiocaOptionLiquidityProvision",
        "label": "activeSingularities",
        "offset": 0,
        "slot": "10",
        "type": "t_mapping(t_contract(IERC20)2769,t_struct(SingularityPool)7776_storage)"
      },
      {
        "astId": 7803,
        "contract": "contracts/options/TapiocaOptionLiquidityProvision.sol:TapiocaOptionLiquidityProvision",
        "label": "sglAssetIDToAddress",
        "offset": 0,
        "slot": "11",
        "type": "t_mapping(t_uint256,t_contract(IERC20)2769)"
      },
      {
        "astId": 7806,
        "contract": "contracts/options/TapiocaOptionLiquidityProvision.sol:TapiocaOptionLiquidityProvision",
        "label": "singularities",
        "offset": 0,
        "slot": "12",
        "type": "t_array(t_uint256)dyn_storage"
      },
      {
        "astId": 7808,
        "contract": "contracts/options/TapiocaOptionLiquidityProvision.sol:TapiocaOptionLiquidityProvision",
        "label": "totalSingularityPoolWeights",
        "offset": 0,
        "slot": "13",
        "type": "t_uint256"
      }
    ],
    "types": {
      "t_address": {
        "encoding": "inplace",
        "label": "address",
        "numberOfBytes": "20"
      },
      "t_array(t_uint256)dyn_storage": {
        "base": "t_uint256",
        "encoding": "dynamic_array",
        "label": "uint256[]",
        "numberOfBytes": "32"
      },
      "t_bool": {
        "encoding": "inplace",
        "label": "bool",
        "numberOfBytes": "1"
      },
      "t_contract(IERC20)2769": {
        "encoding": "inplace",
        "label": "contract IERC20",
        "numberOfBytes": "20"
      },
      "t_mapping(t_address,t_bool)": {
        "encoding": "mapping",
        "key": "t_address",
        "label": "mapping(address => bool)",
        "numberOfBytes": "32",
        "value": "t_bool"
      },
      "t_mapping(t_address,t_mapping(t_address,t_bool))": {
        "encoding": "mapping",
        "key": "t_address",
        "label": "mapping(address => mapping(address => bool))",
        "numberOfBytes": "32",
        "value": "t_mapping(t_address,t_bool)"
      },
      "t_mapping(t_address,t_uint256)": {
        "encoding": "mapping",
        "key": "t_address",
        "label": "mapping(address => uint256)",
        "numberOfBytes": "32",
        "value": "t_uint256"
      },
      "t_mapping(t_contract(IERC20)2769,t_struct(SingularityPool)7776_storage)": {
        "encoding": "mapping",
        "key": "t_contract(IERC20)2769",
        "label": "mapping(contract IERC20 => struct SingularityPool)",
        "numberOfBytes": "32",
        "value": "t_struct(SingularityPool)7776_storage"
      },
      "t_mapping(t_uint256,t_address)": {
        "encoding": "mapping",
        "key": "t_uint256",
        "label": "mapping(uint256 => address)",
        "numberOfBytes": "32",
        "value": "t_address"
      },
      "t_mapping(t_uint256,t_contract(IERC20)2769)": {
        "encoding": "mapping",
        "key": "t_uint256",
        "label": "mapping(uint256 => contract IERC20)",
        "numberOfBytes": "32",
        "value": "t_contract(IERC20)2769"
      },
      "t_mapping(t_uint256,t_struct(LockPosition)7769_storage)": {
        "encoding": "mapping",
        "key": "t_uint256",
        "label": "mapping(uint256 => struct LockPosition)",
        "numberOfBytes": "32",
        "value": "t_struct(LockPosition)7769_storage"
      },
      "t_string_storage": {
        "encoding": "bytes",
        "label": "string",
        "numberOfBytes": "32"
      },
      "t_struct(LockPosition)7769_storage": {
        "encoding": "inplace",
        "label": "struct LockPosition",
        "members": [
          {
            "astId": 7762,
            "contract": "contracts/options/TapiocaOptionLiquidityProvision.sol:TapiocaOptionLiquidityProvision",
            "label": "sglAssetID",
            "offset": 0,
            "slot": "0",
            "type": "t_uint128"
          },
          {
            "astId": 7764,
            "contract": "contracts/options/TapiocaOptionLiquidityProvision.sol:TapiocaOptionLiquidityProvision",
            "label": "amount",
            "offset": 16,
            "slot": "0",
            "type": "t_uint128"
          },
          {
            "astId": 7766,
            "contract": "contracts/options/TapiocaOptionLiquidityProvision.sol:TapiocaOptionLiquidityProvision",
            "label": "lockTime",
            "offset": 0,
            "slot": "1",
            "type": "t_uint128"
          },
          {
            "astId": 7768,
            "contract": "contracts/options/TapiocaOptionLiquidityProvision.sol:TapiocaOptionLiquidityProvision",
            "label": "lockDuration",
            "offset": 16,
            "slot": "1",
            "type": "t_uint128"
          }
        ],
        "numberOfBytes": "64"
      },
      "t_struct(SingularityPool)7776_storage": {
        "encoding": "inplace",
        "label": "struct SingularityPool",
        "members": [
          {
            "astId": 7771,
            "contract": "contracts/options/TapiocaOptionLiquidityProvision.sol:TapiocaOptionLiquidityProvision",
            "label": "sglAssetID",
            "offset": 0,
            "slot": "0",
            "type": "t_uint256"
          },
          {
            "astId": 7773,
            "contract": "contracts/options/TapiocaOptionLiquidityProvision.sol:TapiocaOptionLiquidityProvision",
            "label": "totalDeposited",
            "offset": 0,
            "slot": "1",
            "type": "t_uint256"
          },
          {
            "astId": 7775,
            "contract": "contracts/options/TapiocaOptionLiquidityProvision.sol:TapiocaOptionLiquidityProvision",
            "label": "poolWeight",
            "offset": 0,
            "slot": "2",
            "type": "t_uint256"
          }
        ],
        "numberOfBytes": "96"
      },
      "t_uint128": {
        "encoding": "inplace",
        "label": "uint128",
        "numberOfBytes": "16"
      },
      "t_uint256": {
        "encoding": "inplace",
        "label": "uint256",
        "numberOfBytes": "32"
      }
    }
  }
}