{
  "address": "0xf77d418B10642d497755a42F7EBD5578d7041bC9",
  "abi": [
    {
      "inputs": [
        {
          "internalType": "address",
          "name": "_tOLP",
          "type": "address"
        },
        {
          "internalType": "address",
          "name": "_oTAP",
          "type": "address"
        },
        {
          "internalType": "address",
          "name": "_tapOFT",
          "type": "address"
        },
        {
          "internalType": "contract IOracle",
          "name": "_oracle",
          "type": "address"
        },
        {
          "internalType": "address",
          "name": "_paymentTokenBeneficiary",
          "type": "address"
        }
      ],
      "stateMutability": "nonpayable",
      "type": "constructor"
    },
    {
      "anonymous": false,
      "inputs": [
        {
          "indexed": true,
          "internalType": "uint256",
          "name": "epoch",
          "type": "uint256"
        },
        {
          "indexed": true,
          "internalType": "uint256",
          "name": "cumulative",
          "type": "uint256"
        },
        {
          "indexed": true,
          "internalType": "uint256",
          "name": "averageMagnitude",
          "type": "uint256"
        },
        {
          "indexed": false,
          "internalType": "uint256",
          "name": "totalParticipants",
          "type": "uint256"
        }
      ],
      "name": "AMLDivergence",
      "type": "event"
    },
    {
      "anonymous": false,
      "inputs": [
        {
          "indexed": true,
          "internalType": "uint256",
          "name": "epoch",
          "type": "uint256"
        },
        {
          "indexed": true,
          "internalType": "address",
          "name": "to",
          "type": "address"
        },
        {
          "indexed": true,
          "internalType": "contract IERC20",
          "name": "paymentToken",
          "type": "address"
        },
        {
          "indexed": false,
          "internalType": "uint256",
          "name": "oTapTokenID",
          "type": "uint256"
        },
        {
          "indexed": false,
          "internalType": "uint256",
          "name": "amount",
          "type": "uint256"
        }
      ],
      "name": "ExerciseOption",
      "type": "event"
    },
    {
      "anonymous": false,
      "inputs": [
        {
          "indexed": true,
          "internalType": "uint256",
          "name": "epoch",
          "type": "uint256"
        },
        {
          "indexed": true,
          "internalType": "uint256",
          "name": "tokenId",
          "type": "uint256"
        },
        {
          "indexed": false,
          "internalType": "uint256",
          "name": "amount",
          "type": "uint256"
        }
      ],
      "name": "ExitPosition",
      "type": "event"
    },
    {
      "anonymous": false,
      "inputs": [
        {
          "indexed": true,
          "internalType": "uint256",
          "name": "epoch",
          "type": "uint256"
        },
        {
          "indexed": false,
          "internalType": "uint256",
          "name": "extractedTAP",
          "type": "uint256"
        },
        {
          "indexed": false,
          "internalType": "uint256",
          "name": "epochTAPValuation",
          "type": "uint256"
        }
      ],
      "name": "NewEpoch",
      "type": "event"
    },
    {
      "anonymous": false,
      "inputs": [
        {
          "indexed": true,
          "internalType": "address",
          "name": "previousOwner",
          "type": "address"
        },
        {
          "indexed": true,
          "internalType": "address",
          "name": "newOwner",
          "type": "address"
        }
      ],
      "name": "OwnershipTransferred",
      "type": "event"
    },
    {
      "anonymous": false,
      "inputs": [
        {
          "indexed": true,
          "internalType": "uint256",
          "name": "epoch",
          "type": "uint256"
        },
        {
          "indexed": true,
          "internalType": "uint256",
          "name": "sglAssetID",
          "type": "uint256"
        },
        {
          "indexed": false,
          "internalType": "uint256",
          "name": "totalDeposited",
          "type": "uint256"
        },
        {
          "components": [
            {
              "internalType": "uint128",
              "name": "sglAssetID",
              "type": "uint128"
            },
            {
              "internalType": "uint128",
              "name": "amount",
              "type": "uint128"
            },
            {
              "internalType": "uint128",
              "name": "lockTime",
              "type": "uint128"
            },
            {
              "internalType": "uint128",
              "name": "lockDuration",
              "type": "uint128"
            }
          ],
          "indexed": false,
          "internalType": "struct LockPosition",
          "name": "lock",
          "type": "tuple"
        },
        {
          "indexed": false,
          "internalType": "uint256",
          "name": "discount",
          "type": "uint256"
        }
      ],
      "name": "Participate",
      "type": "event"
    },
    {
      "anonymous": false,
      "inputs": [
        {
          "indexed": false,
          "internalType": "address",
          "name": "account",
          "type": "address"
        }
      ],
      "name": "Paused",
      "type": "event"
    },
    {
      "anonymous": false,
      "inputs": [
        {
          "indexed": false,
          "internalType": "contract IERC20",
          "name": "paymentToken",
          "type": "address"
        },
        {
          "indexed": false,
          "internalType": "contract IOracle",
          "name": "oracle",
          "type": "address"
        },
        {
          "indexed": false,
          "internalType": "bytes",
          "name": "oracleData",
          "type": "bytes"
        }
      ],
      "name": "SetPaymentToken",
      "type": "event"
    },
    {
      "anonymous": false,
      "inputs": [
        {
          "indexed": false,
          "internalType": "address",
          "name": "account",
          "type": "address"
        }
      ],
      "name": "Unpaused",
      "type": "event"
    },
    {
      "inputs": [],
      "name": "claimOwnership",
      "outputs": [],
      "stateMutability": "nonpayable",
      "type": "function"
    },
    {
      "inputs": [
        {
          "internalType": "address[]",
          "name": "_paymentTokens",
          "type": "address[]"
        }
      ],
      "name": "collectPaymentTokens",
      "outputs": [],
      "stateMutability": "nonpayable",
      "type": "function"
    },
    {
      "inputs": [],
      "name": "epoch",
      "outputs": [
        {
          "internalType": "uint256",
          "name": "",
          "type": "uint256"
        }
      ],
      "stateMutability": "view",
      "type": "function"
    },
    {
      "inputs": [],
      "name": "epochTAPValuation",
      "outputs": [
        {
          "internalType": "uint256",
          "name": "",
          "type": "uint256"
        }
      ],
      "stateMutability": "view",
      "type": "function"
    },
    {
      "inputs": [
        {
          "internalType": "uint256",
          "name": "_oTAPTokenID",
          "type": "uint256"
        },
        {
          "internalType": "contract IERC20",
          "name": "_paymentToken",
          "type": "address"
        }
      ],
      "name": "exerciseOption",
      "outputs": [],
      "stateMutability": "nonpayable",
      "type": "function"
    },
    {
      "inputs": [
        {
          "internalType": "uint256",
          "name": "_tOLPTokenID",
          "type": "uint256"
        }
      ],
      "name": "exitPosition",
      "outputs": [],
      "stateMutability": "nonpayable",
      "type": "function"
    },
    {
      "inputs": [
        {
          "internalType": "uint256",
          "name": "_oTAPTokenID",
          "type": "uint256"
        },
        {
          "internalType": "contract IERC20",
          "name": "_paymentToken",
          "type": "address"
        }
      ],
      "name": "getOTCDealDetails",
      "outputs": [
        {
          "internalType": "uint256",
          "name": "eligibleTapAmount",
          "type": "uint256"
        },
        {
          "internalType": "uint256",
          "name": "paymentTokenAmount",
          "type": "uint256"
        }
      ],
      "stateMutability": "view",
      "type": "function"
    },
    {
      "inputs": [],
      "name": "lastEpochUpdate",
      "outputs": [
        {
          "internalType": "uint256",
          "name": "",
          "type": "uint256"
        }
      ],
      "stateMutability": "view",
      "type": "function"
    },
    {
      "inputs": [],
      "name": "newEpoch",
      "outputs": [],
      "stateMutability": "nonpayable",
      "type": "function"
    },
    {
      "inputs": [],
      "name": "oTAP",
      "outputs": [
        {
          "internalType": "contract OTAP",
          "name": "",
          "type": "address"
        }
      ],
      "stateMutability": "view",
      "type": "function"
    },
    {
      "inputs": [],
      "name": "oTAPBrokerClaim",
      "outputs": [],
      "stateMutability": "nonpayable",
      "type": "function"
    },
    {
      "inputs": [
        {
          "internalType": "uint256",
          "name": "",
          "type": "uint256"
        },
        {
          "internalType": "uint256",
          "name": "",
          "type": "uint256"
        }
      ],
      "name": "oTAPCalls",
      "outputs": [
        {
          "internalType": "bool",
          "name": "",
          "type": "bool"
        }
      ],
      "stateMutability": "view",
      "type": "function"
    },
    {
      "inputs": [],
      "name": "owner",
      "outputs": [
        {
          "internalType": "address",
          "name": "",
          "type": "address"
        }
      ],
      "stateMutability": "view",
      "type": "function"
    },
    {
      "inputs": [
        {
          "internalType": "address",
          "name": "",
          "type": "address"
        },
        {
          "internalType": "uint256",
          "name": "",
          "type": "uint256"
        }
      ],
      "name": "participants",
      "outputs": [
        {
          "internalType": "bool",
          "name": "hasParticipated",
          "type": "bool"
        },
        {
          "internalType": "bool",
          "name": "hasVotingPower",
          "type": "bool"
        },
        {
          "internalType": "uint256",
          "name": "averageMagnitude",
          "type": "uint256"
        }
      ],
      "stateMutability": "view",
      "type": "function"
    },
    {
      "inputs": [
        {
          "internalType": "uint256",
          "name": "_tOLPTokenID",
          "type": "uint256"
        }
      ],
      "name": "participate",
      "outputs": [
        {
          "internalType": "uint256",
          "name": "oTAPTokenID",
          "type": "uint256"
        }
      ],
      "stateMutability": "nonpayable",
      "type": "function"
    },
    {
      "inputs": [],
      "name": "paused",
      "outputs": [
        {
          "internalType": "bool",
          "name": "",
          "type": "bool"
        }
      ],
      "stateMutability": "view",
      "type": "function"
    },
    {
      "inputs": [],
      "name": "paymentTokenBeneficiary",
      "outputs": [
        {
          "internalType": "address",
          "name": "",
          "type": "address"
        }
      ],
      "stateMutability": "view",
      "type": "function"
    },
    {
      "inputs": [
        {
          "internalType": "contract IERC20",
          "name": "",
          "type": "address"
        }
      ],
      "name": "paymentTokens",
      "outputs": [
        {
          "internalType": "contract IOracle",
          "name": "oracle",
          "type": "address"
        },
        {
          "internalType": "bytes",
          "name": "oracleData",
          "type": "bytes"
        }
      ],
      "stateMutability": "view",
      "type": "function"
    },
    {
      "inputs": [],
      "name": "pendingOwner",
      "outputs": [
        {
          "internalType": "address",
          "name": "",
          "type": "address"
        }
      ],
      "stateMutability": "view",
      "type": "function"
    },
    {
      "inputs": [
        {
          "internalType": "contract IERC20",
          "name": "_paymentToken",
          "type": "address"
        },
        {
          "internalType": "contract IOracle",
          "name": "_oracle",
          "type": "address"
        },
        {
          "internalType": "bytes",
          "name": "_oracleData",
          "type": "bytes"
        }
      ],
      "name": "setPaymentToken",
      "outputs": [],
      "stateMutability": "nonpayable",
      "type": "function"
    },
    {
      "inputs": [
        {
          "internalType": "address",
          "name": "_paymentTokenBeneficiary",
          "type": "address"
        }
      ],
      "name": "setPaymentTokenBeneficiary",
      "outputs": [],
      "stateMutability": "nonpayable",
      "type": "function"
    },
    {
      "inputs": [
        {
          "internalType": "uint256",
          "name": "",
          "type": "uint256"
        },
        {
          "internalType": "uint256",
          "name": "",
          "type": "uint256"
        }
      ],
      "name": "singularityGauges",
      "outputs": [
        {
          "internalType": "uint256",
          "name": "",
          "type": "uint256"
        }
      ],
      "stateMutability": "view",
      "type": "function"
    },
    {
      "inputs": [],
      "name": "tOLP",
      "outputs": [
        {
          "internalType": "contract TapiocaOptionLiquidityProvision",
          "name": "",
          "type": "address"
        }
      ],
      "stateMutability": "view",
      "type": "function"
    },
    {
      "inputs": [],
      "name": "tapOFT",
      "outputs": [
        {
          "internalType": "contract TapOFT",
          "name": "",
          "type": "address"
        }
      ],
      "stateMutability": "view",
      "type": "function"
    },
    {
      "inputs": [],
      "name": "tapOracle",
      "outputs": [
        {
          "internalType": "contract IOracle",
          "name": "",
          "type": "address"
        }
      ],
      "stateMutability": "view",
      "type": "function"
    },
    {
      "inputs": [],
      "name": "tapOracleData",
      "outputs": [
        {
          "internalType": "bytes",
          "name": "",
          "type": "bytes"
        }
      ],
      "stateMutability": "view",
      "type": "function"
    },
    {
      "inputs": [
        {
          "internalType": "address",
          "name": "newOwner",
          "type": "address"
        },
        {
          "internalType": "bool",
          "name": "direct",
          "type": "bool"
        },
        {
          "internalType": "bool",
          "name": "renounce",
          "type": "bool"
        }
      ],
      "name": "transferOwnership",
      "outputs": [],
      "stateMutability": "nonpayable",
      "type": "function"
    },
    {
      "inputs": [
        {
          "internalType": "uint256",
          "name": "",
          "type": "uint256"
        }
      ],
      "name": "twAML",
      "outputs": [
        {
          "internalType": "uint256",
          "name": "totalParticipants",
          "type": "uint256"
        },
        {
          "internalType": "uint256",
          "name": "averageMagnitude",
          "type": "uint256"
        },
        {
          "internalType": "uint256",
          "name": "totalDeposited",
          "type": "uint256"
        },
        {
          "internalType": "uint256",
          "name": "cumulative",
          "type": "uint256"
        }
      ],
      "stateMutability": "view",
      "type": "function"
    }
  ],
  "transactionHash": "0xa659749b762158e1ff0312c54e6def381038546142c0e7ce477b80d6c3a093ce",
  "args": [
    "0x8514f907386C4dd6bf214d7c3178c15C9954877f",
    "0x25AbB9181241e91aaD9cc8e3E70F3Fc8527aF677",
    "0x00c3Dc5ce0f473Ef32EF4BD540442B8E8192F255",
    "0xBaC59400ED43d56ea9b74C79D633d8FBC3FA43A4",
    "0xEAF9f533871B07B151883908B4Fb6eeF4b51A95F"
  ],
  "numDeployments": 2,
  "solcInputHash": "a23e5b28687e9bf4c45a737a40c24378",
  "bytecode": "0x60e06040523480156200001157600080fd5b50604051620035c3380380620035c38339810160408190526200003491620000d6565b600080546001600160a81b031916610100339081029190911782556040519091907f8be0079c531659141344cd1fd0a4f28419497f9722a3daafe3b4186f6b6457e0908290a3600b80546001600160a01b03199081166001600160a01b039384161790915594811660805291821660a05260038054909416908216179092551660c05262000156565b6001600160a01b0381168114620000d357600080fd5b50565b600080600080600060a08688031215620000ef57600080fd5b8551620000fc81620000bd565b60208701519095506200010f81620000bd565b60408701519094506200012281620000bd565b60608701519093506200013581620000bd565b60808701519092506200014881620000bd565b809150509295509295909350565b60805160a05160c0516133aa62000219600039600081816102a7015281816104c10152818161070301528181610e0101528181610f090152611de101526000818161034f01528181610bf901528181610c9d01526125a50152600081816104040152818161054b0152818161086e01528181610ae301528181610fad015281816111ea015281816113e40152818161148b0152818161151f015281816118b8015281816119d201528181611ab50152818161261b01526126b401526133aa6000f3fe608060405234801561001057600080fd5b50600436106101845760003560e01c8063845c9306116100d9578063c3b88b4211610087578063c3b88b42146103b8578063c9eed546146103d9578063e30c3978146103ec578063e4821200146103ff578063e4ed31f814610426578063efef777114610439578063f13d17741461049557600080fd5b8063845c93061461032e5780638676950f146103415780638b0c2dfc1461034a5780638da5cb5b14610371578063900cf0cf14610389578063933f6da51461039257806397d63d43146103a557600080fd5b8063376e08bd11610136578063376e08bd146102475780634cb07fb5146102725780634e71e0c81461029a5780635ad70387146102a25780635c975abb146102d6578063752dcf83146102ed57806378dc90591461031b57600080fd5b8063041d1d1314610189578063078dfbe71461019e57806310f95fbe146101b15780631b8fb9f5146101b95780631f767581146101c15780631fe802371461021b57806320b86b8314610230575b600080fd5b61019c6101973660046129a9565b6104a8565b005b61019c6101ac3660046129e7565b61095c565b61019c610a80565b61019c610dff565b6101f66101cf366004612a32565b600c6020526000908152604090208054600182015460028301546003909301549192909184565b6040805194855260208501939093529183015260608201526080015b60405180910390f35b610223610e74565b6040516102129190612a98565b61023960055481565b604051908152602001610212565b610239610255366004612aab565b600960209081526000928352604080842090915290825290205481565b6102856102803660046129a9565b610f02565b60408051928352602083019190915201610212565b61019c6112fa565b6102c97f000000000000000000000000000000000000000000000000000000000000000081565b6040516102129190612acd565b60005460ff165b6040519015158152602001610212565b6102dd6102fb366004612aab565b600860209081526000928352604080842090915290825290205460ff1681565b61019c610329366004612a32565b6113cb565b61023961033c366004612a32565b6118b1565b61023960045481565b6102c97f000000000000000000000000000000000000000000000000000000000000000081565b6000546102c99061010090046001600160a01b031681565b61023960065481565b6003546102c9906001600160a01b031681565b61019c6103b3366004612ae1565b611f3a565b6103cb6103c6366004612b55565b61211d565b604051610212929190612b72565b61019c6103e7366004612b55565b6121cc565b6001546102c9906001600160a01b031681565b6102c97f000000000000000000000000000000000000000000000000000000000000000081565b61019c610434366004612b96565b61221d565b610478610447366004612c27565b60076020908152600092835260408084209091529082529020805460019091015460ff808316926101009004169083565b604080519315158452911515602084015290820152606001610212565b600b546102c9906001600160a01b031681565b60405163682ee63560e11b8152600481018390526000907f00000000000000000000000000000000000000000000000000000000000000006001600160a01b03169063d05dcc6a9060240160806040518083038186803b15801561050b57600080fd5b505afa15801561051f573d6000803e3d6000fd5b505050506040513d601f19601f820116820180604052508101906105439190612cd8565b9150506000807f00000000000000000000000000000000000000000000000000000000000000006001600160a01b031663d68f4dd184604001516040518263ffffffff1660e01b815260040161059b91815260200190565b60a06040518083038186803b1580156105b357600080fd5b505afa1580156105c7573d6000803e3d6000fd5b505050506040513d601f19601f820116820180604052508101906105eb9190612d46565b6006546001600160a01b038088166000908152600a60209081526040808320815180830190925280549094168152600184018054979950959750939591949084019161063690612deb565b80601f016020809104026020016040519081016040528092919081815260200182805461066290612deb565b80156106af5780601f10610684576101008083540402835291602001916106af565b820191906000526020600020905b81548152906001019060200180831161069257829003601f168201915b5050509190925250508151919250506001600160a01b03166106ec5760405162461bcd60e51b81526004016106e390612e20565b60405180910390fd5b60405163430c208160e01b81526001600160a01b037f0000000000000000000000000000000000000000000000000000000000000000169063430c20819061073a9033908b90600401612e70565b60206040518083038186803b15801561075257600080fd5b505afa158015610766573d6000803e3d6000fd5b505050506040513d601f19601f8201168201806040525081019061078a9190612e89565b6107a65760405162461bcd60e51b81526004016106e390612ea6565b600087815260086020908152604080832085845290915290205460ff16156107e05760405162461bcd60e51b81526004016106e390612ef0565b836107fd5760405162461bcd60e51b81526004016106e390612f36565b60008781526008602090815260408083208584528252808320805460ff191660011790556009825280832086516001600160801b039081168552908352818420549287015187519251632fcd25c160e21b815292821660048401529293926108ee9291169084906001600160a01b037f0000000000000000000000000000000000000000000000000000000000000000169063bf349704906024015b60206040518083038186803b1580156108b157600080fd5b505afa1580156108c5573d6000803e3d6000fd5b505050506040513d601f19601f820116820180604052508101906108e99190612f79565b6122cc565b90506109098884838a602001516001600160801b0316612448565b604080518a8152602081018390526001600160a01b038a1691339187917fad9eeb6ac9c439fe4e01f186d3a05d5d27ec1f2449bd4042ec40224b5894b8dd910160405180910390a4505050505050505050565b60005461010090046001600160a01b0316331461098b5760405162461bcd60e51b81526004016106e390612f92565b8115610a5e576001600160a01b0383161515806109a55750805b6109e95760405162461bcd60e51b81526020600482015260156024820152744f776e61626c653a207a65726f206164647265737360581b60448201526064016106e3565b600080546040516001600160a01b038087169361010090930416917f8be0079c531659141344cd1fd0a4f28419497f9722a3daafe3b4186f6b6457e091a3600080546001600160a01b03851661010002610100600160a81b0319909116179055600180546001600160a01b0319169055505050565b600180546001600160a01b0385166001600160a01b0319909116179055505050565b61a8c0600454610a909190612fdd565b421015610adf5760405162461bcd60e51b815260206004820152601d60248201527f546170696f63614f7074696f6e42726f6b65723a20746f6f20736f6f6e00000060448201526064016106e3565b60007f00000000000000000000000000000000000000000000000000000000000000006001600160a01b031663a7bffffc6040518163ffffffff1660e01b815260040160006040518083038186803b158015610b3a57600080fd5b505afa158015610b4e573d6000803e3d6000fd5b505050506040513d6000823e601f3d908101601f19168201604052610b769190810190613018565b90506000815111610bde5760405162461bcd60e51b815260206004820152602c60248201527f546170696f63614f7074696f6e42726f6b65723a204e6f20616374697665207360448201526b696e67756c6172697469657360a01b60648201526084016106e3565b4260045560068054906000610bf2836130ad565b91905055507f00000000000000000000000000000000000000000000000000000000000000006001600160a01b031663a2a4b99b6040518163ffffffff1660e01b8152600401602060405180830381600087803b158015610c5257600080fd5b505af1158015610c66573d6000803e3d6000fd5b505050506040513d601f19601f82011682018060405250810190610c8a9190612f79565b506040516370a0823160e01b81526000907f00000000000000000000000000000000000000000000000000000000000000006001600160a01b038116916370a0823191610cd991600401612acd565b60206040518083038186803b158015610cf157600080fd5b505afa158015610d05573d6000803e3d6000fd5b505050506040513d601f19601f82011682018060405250810190610d299190612f79565b9050610d3481612617565b60035460405163d6d7d52560e01b81526001600160a01b039091169063d6d7d52590610d65906002906004016130c8565b6040805180830381600087803b158015610d7e57600080fd5b505af1158015610d92573d6000803e3d6000fd5b505050506040513d601f19601f82011682018060405250810190610db69190613170565b60058190556006546040805185815260208101939093529092507f3bb7b347508b7c148ec2094ac60d2e3d8b7595421025643f08b45cb78b326b58910160405180910390a25050565b7f00000000000000000000000000000000000000000000000000000000000000006001600160a01b0316631eac071c6040518163ffffffff1660e01b8152600401600060405180830381600087803b158015610e5a57600080fd5b505af1158015610e6e573d6000803e3d6000fd5b50505050565b60028054610e8190612deb565b80601f0160208091040260200160405190810160405280929190818152602001828054610ead90612deb565b8015610efa5780601f10610ecf57610100808354040283529160200191610efa565b820191906000526020600020905b815481529060010190602001808311610edd57829003601f168201915b505050505081565b60008060007f00000000000000000000000000000000000000000000000000000000000000006001600160a01b031663d05dcc6a866040518263ffffffff1660e01b8152600401610f5591815260200190565b60806040518083038186803b158015610f6d57600080fd5b505afa158015610f81573d6000803e3d6000fd5b505050506040513d601f19601f82011682018060405250810190610fa59190612cd8565b9150506000807f00000000000000000000000000000000000000000000000000000000000000006001600160a01b031663d68f4dd184604001516040518263ffffffff1660e01b8152600401610ffd91815260200190565b60a06040518083038186803b15801561101557600080fd5b505afa158015611029573d6000803e3d6000fd5b505050506040513d601f19601f8201168201806040525081019061104d9190612d46565b6006546001600160a01b03808a166000908152600a60209081526040808320815180830190925280549094168152600184018054979950959750939591949084019161109890612deb565b80601f01602080910402602001604051908101604052809291908181526020018280546110c490612deb565b80156111115780601f106110e657610100808354040283529160200191611111565b820191906000526020600020905b8154815290600101906020018083116110f457829003601f168201915b5050509190925250508151919250506001600160a01b03166111455760405162461bcd60e51b81526004016106e390612e20565b600089815260086020908152604080832085845290915290205460ff161561117f5760405162461bcd60e51b81526004016106e390612ef0565b8361119c5760405162461bcd60e51b81526004016106e390612f36565b600082815260096020908152604080832086516001600160801b03908116855290835292819020549186015186519151632fcd25c160e21b81529184166004830152919261122192169083907f00000000000000000000000000000000000000000000000000000000000000006001600160a01b03169063bf34970490602401610899565b9750600061123a89600554670de0b6b3a76400006122cc565b8351602085015160405163eeb8a8d360e01b81529293506000926001600160a01b039092169163eeb8a8d39161127291600401612a98565b604080518083038186803b15801561128957600080fd5b505afa15801561129d573d6000803e3d6000fd5b505050506040513d601f19601f820116820180604052508101906112c19190613170565b9150506112e988602001516001600160801b0316836112e0919061319e565b826127106122cc565b985050505050505050509250929050565b6001546001600160a01b03163381146113555760405162461bcd60e51b815260206004820181905260248201527f4f776e61626c653a2063616c6c657220213d2070656e64696e67206f776e657260448201526064016106e3565b600080546040516001600160a01b038085169361010090930416917f8be0079c531659141344cd1fd0a4f28419497f9722a3daafe3b4186f6b6457e091a3600080546001600160a01b0390921661010002610100600160a81b0319909216919091179055600180546001600160a01b0319169055565b60405163d68f4dd160e01b8152600481018290526000907f00000000000000000000000000000000000000000000000000000000000000006001600160a01b03169063d68f4dd19060240160a06040518083038186803b15801561142e57600080fd5b505afa158015611442573d6000803e3d6000fd5b505050506040513d601f19601f820116820180604052508101906114669190612d46565b6040516331a9108f60e11b815260048101859052909250600091506001600160a01b037f00000000000000000000000000000000000000000000000000000000000000001690636352211e9060240160206040518083038186803b1580156114cd57600080fd5b505afa1580156114e1573d6000803e3d6000fd5b505050506040513d601f19601f8201168201806040525081019061150591906131bd565b60405163430c208160e01b81529091506001600160a01b037f0000000000000000000000000000000000000000000000000000000000000000169063430c2081906115569033908790600401612e70565b60206040518083038186803b15801561156e57600080fd5b505afa158015611582573d6000803e3d6000fd5b505050506040513d601f19601f820116820180604052508101906115a69190612e89565b6115c25760405162461bcd60e51b81526004016106e390612ea6565b816060015182604001516115d691906131da565b6001600160801b031642101561163c5760405162461bcd60e51b815260206004820152602560248201527f546170696f63614f7074696f6e42726f6b65723a204c6f636b206e6f742065786044820152641c1a5c995960da1b60648201526084016106e3565b6001600160a01b038116600090815260076020908152604080832085516001600160801b031684528252918290208251606081018452815460ff80821615158084526101009092041615159382019390935260019182015493810193909352146116f75760405162461bcd60e51b815260206004820152602660248201527f546170696f63614f7074696f6e42726f6b65723a204e6f742070617274696369604482015265706174696e6760d01b60648201526084016106e3565b8060200151156118305760408082015184516001600160801b03166000908152600c602052918220600301805491929091611733908490613205565b9250508190555082602001516001600160801b0316600c600085600001516001600160801b03168152602001908152602001600020600201600082825461177a9190613205565b909155505082516001600160801b03166000908152600c602052604081208054916117a48361321c565b909155505082516001600160801b03166000908152600c6020908152604091829020825160808101845281548082526001830154828501819052600284015483870152600390930154606083018190526006549551918252919492939192917f879d967178645d9838c4868b727eeb76eac7b58b1704a13c79003756f09f0993910160405180910390a4505b6001600160a01b038216600090815260076020908152604080832086516001600160801b039081168552908352818420805461ffff1916815560010193909355600654868301518251941684529051879391927f074ff0268facdff7c3074627a72c36bcf0f19d46cea0f1fc395ae81dffcc3e68928290030190a350505050565b60008060007f00000000000000000000000000000000000000000000000000000000000000006001600160a01b031663d68f4dd1856040518263ffffffff1660e01b815260040161190491815260200190565b60a06040518083038186803b15801561191c57600080fd5b505afa158015611930573d6000803e3d6000fd5b505050506040513d601f19601f820116820180604052508101906119549190612d46565b91509150816119b95760405162461bcd60e51b815260206004820152602b60248201527f546170696f63614f7074696f6e42726f6b65723a20506f736974696f6e20697360448201526a206e6f742061637469766560a81b60648201526084016106e3565b6040516331a9108f60e11b8152600481018590526000907f00000000000000000000000000000000000000000000000000000000000000006001600160a01b031690636352211e9060240160206040518083038186803b158015611a1c57600080fd5b505afa158015611a30573d6000803e3d6000fd5b505050506040513d601f19601f82011682018060405250810190611a5491906131bd565b82516001600160801b03166000908152600c6020908152604091829020825160808101845281548152600182015492810192909252600281015482840152600301546060820152905163430c208160e01b8152919250906001600160a01b037f0000000000000000000000000000000000000000000000000000000000000000169063430c208190611aec9033908a90600401612e70565b60206040518083038186803b158015611b0457600080fd5b505afa158015611b18573d6000803e3d6000fd5b505050506040513d601f19601f82011682018060405250810190611b3c9190612e89565b611b585760405162461bcd60e51b81526004016106e390612ea6565b6001600160a01b038216600090815260076020908152604080832086516001600160801b0316845290915290205460ff1615611be95760405162461bcd60e51b815260206004820152602a60248201527f546170696f63614f7074696f6e42726f6b65723a20416c72656164792070617260448201526974696369706174696e6760b01b60648201526084016106e3565b6000611c0684606001516001600160801b031683606001516127db565b90506000611c1f61c3506207a12084866060015161280e565b9050611c308360400151600a61285d565b85602001516001600160801b031610611d5c57825183611c4f826130ad565b90525082516020840151611c64908490612fdd565b611c6e9190613233565b6020840152606080840151908601516001600160801b031611611ca45782602001518360600151611c9f9190613205565b611cb8565b82602001518360600151611cb89190612fdd565b606084015260208501516040840180516001600160801b0390921691611cdf908390612fdd565b90525084516001600160801b03166000908152600c6020908152604091829020855180825586830151600183018190558785015160028401556060880151600390930183905560065494519182529391927f879d967178645d9838c4868b727eeb76eac7b58b1704a13c79003756f09f0993910160405180910390a45b604080516060808201835260018083526020808401828152888201518587019081526001600160a01b038b81166000908152600785528881208e516001600160801b031682529094529287902095518654925161ffff1990931690151561ff0019161761010092151592909202919091178555519390910192909255870151918701517f000000000000000000000000000000000000000000000000000000000000000090911691631239824c918791611e15916131da565b6040516001600160e01b031960e085901b1681526001600160a01b0390921660048301526001600160801b03908116602483015284166044820152606481018b9052608401602060405180830381600087803b158015611e7457600080fd5b505af1158015611e88573d6000803e3d6000fd5b505050506040513d601f19601f82011682018060405250810190611eac9190612f79565b8551600654604080870151815190815289516001600160801b039081166020808401919091528b0151811682840152918a015182166060808301919091528a01518216608082015260a08101869052939a50909116917fa3d578f3f93b76c208e2ce5b52fc1c1293b97a982af8f900c3d04f924fad02f69060c00160405180910390a3505050505050919050565b60005461010090046001600160a01b03163314611f695760405162461bcd60e51b81526004016106e390612f92565b600b546001600160a01b0316611fe05760405162461bcd60e51b815260206004820152603660248201527f546170696f63614f7074696f6e42726f6b65723a205061796d656e7420746f6b604482015275195b8818995b99599a58da585c9e481b9bdd081cd95d60521b60648201526084016106e3565b8060005b81811015610e6e57600084848381811061200057612000613255565b90506020020160208101906120159190612b55565b600b546040516370a0823160e01b81529192506001600160a01b038084169263a9059cbb929091169083906370a0823190612054903090600401612acd565b60206040518083038186803b15801561206c57600080fd5b505afa158015612080573d6000803e3d6000fd5b505050506040513d601f19601f820116820180604052508101906120a49190612f79565b6040518363ffffffff1660e01b81526004016120c1929190612e70565b602060405180830381600087803b1580156120db57600080fd5b505af11580156120ef573d6000803e3d6000fd5b505050506040513d601f19601f820116820180604052508101906121139190612e89565b5050600101611fe4565b600a60205260009081526040902080546001820180546001600160a01b03909216929161214990612deb565b80601f016020809104026020016040519081016040528092919081815260200182805461217590612deb565b80156121c25780601f10612197576101008083540402835291602001916121c2565b820191906000526020600020905b8154815290600101906020018083116121a557829003601f168201915b5050505050905082565b60005461010090046001600160a01b031633146121fb5760405162461bcd60e51b81526004016106e390612f92565b600b80546001600160a01b0319166001600160a01b0392909216919091179055565b60005461010090046001600160a01b0316331461224c5760405162461bcd60e51b81526004016106e390612f92565b6001600160a01b038481166000908152600a6020526040902080546001600160a01b0319169185169190911781556122889060010183836128f8565b507fd70ea94304204d2530588b0d70f2ee633331140b793571367a494b7709768a62848484846040516122be949392919061326b565b60405180910390a150505050565b60008082116122da57600080fd5b600080600019858709858702925082811083820303915050806000141561230657508290049050612441565b83811061231257600080fd5b600084868809808403938111909203919050600061233286196001612fdd565b8616958690049593849004936000819003046001019050612353818461319e565b90931792600061236487600361319e565b6002189050612373818861319e565b61237e906002613205565b612388908261319e565b9050612394818861319e565b61239f906002613205565b6123a9908261319e565b90506123b5818861319e565b6123c0906002613205565b6123ca908261319e565b90506123d6818861319e565b6123e1906002613205565b6123eb908261319e565b90506123f7818861319e565b612402906002613205565b61240c908261319e565b9050612418818861319e565b612423906002613205565b61242d908261319e565b9050612439818661319e565b955050505050505b9392505050565b600061245f83600554670de0b6b3a76400006122cc565b8451602086015160405163d6d7d52560e01b81529293506000926001600160a01b039092169163d6d7d5259161249791600401612a98565b6040805180830381600087803b1580156124b057600080fd5b505af11580156124c4573d6000803e3d6000fd5b505050506040513d601f19601f820116820180604052508101906124e89190613170565b9150600090506125046124fb858561319e565b836127106122cc565b6040516323b872dd60e01b8152336004820152306024820152604481018290529091506001600160a01b038816906323b872dd90606401602060405180830381600087803b15801561255557600080fd5b505af1158015612569573d6000803e3d6000fd5b505050506040513d601f19601f8201168201806040525081019061258d9190612e89565b506040516309d7186160e31b81526001600160a01b037f00000000000000000000000000000000000000000000000000000000000000001690634eb8c308906125dc9033908990600401612e70565b600060405180830381600087803b1580156125f657600080fd5b505af115801561260a573d6000803e3d6000fd5b5050505050505050505050565b60007f00000000000000000000000000000000000000000000000000000000000000006001600160a01b0316635d9b9bba6040518163ffffffff1660e01b815260040160006040518083038186803b15801561267257600080fd5b505afa158015612686573d6000803e3d6000fd5b505050506040513d6000823e601f3d908101601f191682016040526126ae91908101906132b7565b905060007f00000000000000000000000000000000000000000000000000000000000000006001600160a01b0316631678e4f66040518163ffffffff1660e01b815260040160206040518083038186803b15801561270b57600080fd5b505afa15801561271f573d6000803e3d6000fd5b505050506040513d601f19601f820116820180604052508101906127439190612f79565b825190915060005b818110156127d457600084828151811061276757612767613255565b602002602001015160400151905060006127828288876122cc565b90508060096000600654815260200190815260200160002060008886815181106127ae576127ae613255565b60209081029190910181015151825281019190915260400160002055505060010161274b565b5050505050565b6000816128046127eb828061319e565b6127f5868061319e565b6127ff9190612fdd565b612888565b6124419190613205565b60008161281c575082612855565b600082612829868661319e565b6128339190613233565b905084811161284f578581106128495780612851565b85612851565b845b9150505b949350505050565b60008061286a838561319e565b905061271081101561287c5783612855565b61285561271082613233565b600060038211156128e957508060006128a2600283613233565b6128ad906001612fdd565b90505b818110156128e3579050806002816128c88186613233565b6128d29190612fdd565b6128dc9190613233565b90506128b0565b50919050565b81156128f3575060015b919050565b82805461290490612deb565b90600052602060002090601f016020900481019282612926576000855561296c565b82601f1061293f5782800160ff1982351617855561296c565b8280016001018555821561296c579182015b8281111561296c578235825591602001919060010190612951565b5061297892915061297c565b5090565b5b80821115612978576000815560010161297d565b6001600160a01b03811681146129a657600080fd5b50565b600080604083850312156129bc57600080fd5b8235915060208301356129ce81612991565b809150509250929050565b80151581146129a657600080fd5b6000806000606084860312156129fc57600080fd5b8335612a0781612991565b92506020840135612a17816129d9565b91506040840135612a27816129d9565b809150509250925092565b600060208284031215612a4457600080fd5b5035919050565b6000815180845260005b81811015612a7157602081850181015186830182015201612a55565b81811115612a83576000602083870101525b50601f01601f19169290920160200192915050565b6020815260006124416020830184612a4b565b60008060408385031215612abe57600080fd5b50508035926020909101359150565b6001600160a01b0391909116815260200190565b60008060208385031215612af457600080fd5b82356001600160401b0380821115612b0b57600080fd5b818501915085601f830112612b1f57600080fd5b813581811115612b2e57600080fd5b8660208260051b8501011115612b4357600080fd5b60209290920196919550909350505050565b600060208284031215612b6757600080fd5b813561244181612991565b6001600160a01b038316815260406020820181905260009061285590830184612a4b565b60008060008060608587031215612bac57600080fd5b8435612bb781612991565b93506020850135612bc781612991565b925060408501356001600160401b0380821115612be357600080fd5b818701915087601f830112612bf757600080fd5b813581811115612c0657600080fd5b886020828501011115612c1857600080fd5b95989497505060200194505050565b60008060408385031215612c3a57600080fd5b8235612c4581612991565b946020939093013593505050565b634e487b7160e01b600052604160045260246000fd5b604051606081016001600160401b0381118282101715612c8b57612c8b612c53565b60405290565b604051601f8201601f191681016001600160401b0381118282101715612cb957612cb9612c53565b604052919050565b80516001600160801b03811681146128f357600080fd5b6000808284036080811215612cec57600080fd5b8351612cf781612991565b92506060601f1982011215612d0b57600080fd5b50612d14612c69565b612d2060208501612cc1565b8152612d2e60408501612cc1565b60208201526060939093015160408401525092909150565b60008082840360a0811215612d5a57600080fd5b8351612d65816129d9565b92506080601f1982011215612d7957600080fd5b50604051608081018181106001600160401b0382111715612d9c57612d9c612c53565b604052612dab60208501612cc1565b8152612db960408501612cc1565b6020820152612dca60608501612cc1565b6040820152612ddb60808501612cc1565b6060820152809150509250929050565b600181811c90821680612dff57607f821691505b602082108114156128e357634e487b7160e01b600052602260045260246000fd5b60208082526030908201527f546170696f63614f7074696f6e42726f6b65723a205061796d656e7420746f6b60408201526f195b881b9bdd081cdd5c1c1bdc9d195960821b606082015260800190565b6001600160a01b03929092168252602082015260400190565b600060208284031215612e9b57600080fd5b8151612441816129d9565b6020808252602a908201527f546170696f63614f7074696f6e42726f6b65723a204e6f7420617070726f7665604082015269321037b91037bbb732b960b11b606082015260800190565b60208082526026908201527f546170696f63614f7074696f6e42726f6b65723a20416c7265616479206578656040820152651c98da5cd95960d21b606082015260800190565b60208082526023908201527f546170696f63614f7074696f6e42726f6b65723a204f7074696f6e20657870696040820152621c995960ea1b606082015260800190565b600060208284031215612f8b57600080fd5b5051919050565b6020808252818101527f4f776e61626c653a2063616c6c6572206973206e6f7420746865206f776e6572604082015260600190565b634e487b7160e01b600052601160045260246000fd5b60008219821115612ff057612ff0612fc7565b500190565b60006001600160401b0382111561300e5761300e612c53565b5060051b60200190565b6000602080838503121561302b57600080fd5b82516001600160401b0381111561304157600080fd5b8301601f8101851361305257600080fd5b805161306561306082612ff5565b612c91565b81815260059190911b8201830190838101908783111561308457600080fd5b928401925b828410156130a257835182529284019290840190613089565b979650505050505050565b60006000198214156130c1576130c1612fc7565b5060010190565b600060208083526000845481600182811c9150808316806130ea57607f831692505b85831081141561310857634e487b7160e01b85526022600452602485fd5b878601838152602001818015613125576001811461313657613161565b60ff19861682528782019650613161565b60008b81526020902060005b8681101561315b57815484820152908501908901613142565b83019750505b50949998505050505050505050565b6000806040838503121561318357600080fd5b825161318e816129d9565b6020939093015192949293505050565b60008160001904831182151516156131b8576131b8612fc7565b500290565b6000602082840312156131cf57600080fd5b815161244181612991565b60006001600160801b038281168482168083038211156131fc576131fc612fc7565b01949350505050565b60008282101561321757613217612fc7565b500390565b60008161322b5761322b612fc7565b506000190190565b60008261325057634e487b7160e01b600052601260045260246000fd5b500490565b634e487b7160e01b600052603260045260246000fd5b6001600160a01b0385811682528416602082015260606040820181905281018290526000828460808401376000608084840101526080601f19601f850116830101905095945050505050565b600060208083850312156132ca57600080fd5b82516001600160401b038111156132e057600080fd5b8301601f810185136132f157600080fd5b80516132ff61306082612ff5565b8181526060918202830184019184820191908884111561331e57600080fd5b938501935b838510156133685780858a03121561333b5760008081fd5b613343612c69565b8551815286860151878201526040808701519082015283529384019391850191613323565b5097965050505050505056fea2646970667358221220cb1b83e2105d785f7854aa49030462ffa6656e317f930add48a3ef66c5c1063f64736f6c63430008090033",
  "devdoc": {
    "kind": "dev",
    "methods": {
      "collectPaymentTokens(address[])": {
        "params": {
          "_paymentTokens": "The payment tokens to collect"
        }
      },
      "getOTCDealDetails(uint256,address)": {
        "params": {
          "_oTAPTokenID": "The oTAP token ID",
          "_paymentToken": "The payment token"
        },
        "returns": {
          "eligibleTapAmount": "The amount of TAP eligible for the deal",
          "paymentTokenAmount": "The amount of payment tokens required for the deal"
        }
      },
      "participate(uint256)": {
        "params": {
          "_tOLPTokenID": "The tokenId of the tOLP position"
        }
      },
      "paused()": {
        "details": "Returns true if the contract is paused, and false otherwise."
      },
      "setPaymentToken(address,address,bytes)": {
        "details": "set the oracle to address(0) to deactivate"
      },
      "setPaymentTokenBeneficiary(address)": {
        "params": {
          "_paymentTokenBeneficiary": "The new payment token beneficiary"
        }
      },
      "transferOwnership(address,bool,bool)": {
        "params": {
          "direct": "True if `newOwner` should be set immediately. False if `newOwner` needs to use `claimOwnership`.",
          "newOwner": "Address of the new owner.",
          "renounce": "Allows the `newOwner` to be `address(0)` if `direct` and `renounce` is True. Has no effect otherwise."
        }
      }
    },
    "version": 1
  },
  "userdoc": {
    "kind": "user",
    "methods": {
      "claimOwnership()": {
        "notice": "Needs to be called by `pendingOwner` to claim ownership."
      },
      "collectPaymentTokens(address[])": {
        "notice": "Collect the payment tokens from the OTC deals"
      },
      "constructor": {
        "notice": "=====-------======"
      },
      "exitPosition(uint256)": {
        "notice": "Exit a twAML participation and delete the voting power if existing"
      },
      "getOTCDealDetails(uint256,address)": {
        "notice": "Returns the details of an OTC deal for a given oTAP token ID and a payment token.         The oracle uses the last peeked value, and not the latest one, so the payment amount may be different."
      },
      "newEpoch()": {
        "notice": "Start a new epoch, extract TAP from the TapOFT contract,         emit it to the active singularities and get the price of TAP for the epoch."
      },
      "oTAPBrokerClaim()": {
        "notice": "Claim the Broker role of the oTAP contract"
      },
      "participate(uint256)": {
        "notice": "Participate in twAMl voting and mint an oTAP position"
      },
      "setPaymentToken(address,address,bytes)": {
        "notice": "Activate or deactivate a payment token"
      },
      "setPaymentTokenBeneficiary(address)": {
        "notice": "Set the payment token beneficiary"
      },
      "transferOwnership(address,bool,bool)": {
        "notice": "Transfers ownership to `newOwner`. Either directly or claimable by the new pending owner. Can only be invoked by the current `owner`."
      },
      "twAML(uint256)": {
        "notice": "===== TWAML ======"
      }
    },
    "version": 1
  },
  "storageLayout": {
    "storage": [
      {
        "astId": 1851,
        "contract": "contracts/options/mocks/TapiocaOptionBrokerMock.sol:TapiocaOptionBrokerMock",
        "label": "_paused",
        "offset": 0,
        "slot": "0",
        "type": "t_bool"
      },
      {
        "astId": 229,
        "contract": "contracts/options/mocks/TapiocaOptionBrokerMock.sol:TapiocaOptionBrokerMock",
        "label": "owner",
        "offset": 1,
        "slot": "0",
        "type": "t_address"
      },
      {
        "astId": 231,
        "contract": "contracts/options/mocks/TapiocaOptionBrokerMock.sol:TapiocaOptionBrokerMock",
        "label": "pendingOwner",
        "offset": 0,
        "slot": "1",
        "type": "t_address"
      },
      {
        "astId": 7747,
        "contract": "contracts/options/mocks/TapiocaOptionBrokerMock.sol:TapiocaOptionBrokerMock",
        "label": "tapOracleData",
        "offset": 0,
        "slot": "2",
        "type": "t_bytes_storage"
      },
      {
        "astId": 7756,
        "contract": "contracts/options/mocks/TapiocaOptionBrokerMock.sol:TapiocaOptionBrokerMock",
        "label": "tapOracle",
        "offset": 0,
        "slot": "3",
        "type": "t_contract(IOracle)5544"
      },
      {
        "astId": 7758,
        "contract": "contracts/options/mocks/TapiocaOptionBrokerMock.sol:TapiocaOptionBrokerMock",
        "label": "lastEpochUpdate",
        "offset": 0,
        "slot": "4",
        "type": "t_uint256"
      },
      {
        "astId": 7760,
        "contract": "contracts/options/mocks/TapiocaOptionBrokerMock.sol:TapiocaOptionBrokerMock",
        "label": "epochTAPValuation",
        "offset": 0,
        "slot": "5",
        "type": "t_uint256"
      },
      {
        "astId": 7762,
        "contract": "contracts/options/mocks/TapiocaOptionBrokerMock.sol:TapiocaOptionBrokerMock",
        "label": "epoch",
        "offset": 0,
        "slot": "6",
        "type": "t_uint256"
      },
      {
        "astId": 7769,
        "contract": "contracts/options/mocks/TapiocaOptionBrokerMock.sol:TapiocaOptionBrokerMock",
        "label": "participants",
        "offset": 0,
        "slot": "7",
        "type": "t_mapping(t_address,t_mapping(t_uint256,t_struct(Participation)7721_storage))"
      },
      {
        "astId": 7775,
        "contract": "contracts/options/mocks/TapiocaOptionBrokerMock.sol:TapiocaOptionBrokerMock",
        "label": "oTAPCalls",
        "offset": 0,
        "slot": "8",
        "type": "t_mapping(t_uint256,t_mapping(t_uint256,t_bool))"
      },
      {
        "astId": 7781,
        "contract": "contracts/options/mocks/TapiocaOptionBrokerMock.sol:TapiocaOptionBrokerMock",
        "label": "singularityGauges",
        "offset": 0,
        "slot": "9",
        "type": "t_mapping(t_uint256,t_mapping(t_uint256,t_uint256))"
      },
      {
        "astId": 7787,
        "contract": "contracts/options/mocks/TapiocaOptionBrokerMock.sol:TapiocaOptionBrokerMock",
        "label": "paymentTokens",
        "offset": 0,
        "slot": "10",
        "type": "t_mapping(t_contract(IERC20)2768,t_struct(PaymentTokenOracle)7736_storage)"
      },
      {
        "astId": 7789,
        "contract": "contracts/options/mocks/TapiocaOptionBrokerMock.sol:TapiocaOptionBrokerMock",
        "label": "paymentTokenBeneficiary",
        "offset": 0,
        "slot": "11",
        "type": "t_address"
      },
      {
        "astId": 7795,
        "contract": "contracts/options/mocks/TapiocaOptionBrokerMock.sol:TapiocaOptionBrokerMock",
        "label": "twAML",
        "offset": 0,
        "slot": "12",
        "type": "t_mapping(t_uint256,t_struct(TWAMLPool)7730_storage)"
      }
    ],
    "types": {
      "t_address": {
        "encoding": "inplace",
        "label": "address",
        "numberOfBytes": "20"
      },
      "t_bool": {
        "encoding": "inplace",
        "label": "bool",
        "numberOfBytes": "1"
      },
      "t_bytes_storage": {
        "encoding": "bytes",
        "label": "bytes",
        "numberOfBytes": "32"
      },
      "t_contract(IERC20)2768": {
        "encoding": "inplace",
        "label": "contract IERC20",
        "numberOfBytes": "20"
      },
      "t_contract(IOracle)5544": {
        "encoding": "inplace",
        "label": "contract IOracle",
        "numberOfBytes": "20"
      },
      "t_mapping(t_address,t_mapping(t_uint256,t_struct(Participation)7721_storage))": {
        "encoding": "mapping",
        "key": "t_address",
        "label": "mapping(address => mapping(uint256 => struct Participation))",
        "numberOfBytes": "32",
        "value": "t_mapping(t_uint256,t_struct(Participation)7721_storage)"
      },
      "t_mapping(t_contract(IERC20)2768,t_struct(PaymentTokenOracle)7736_storage)": {
        "encoding": "mapping",
        "key": "t_contract(IERC20)2768",
        "label": "mapping(contract IERC20 => struct PaymentTokenOracle)",
        "numberOfBytes": "32",
        "value": "t_struct(PaymentTokenOracle)7736_storage"
      },
      "t_mapping(t_uint256,t_bool)": {
        "encoding": "mapping",
        "key": "t_uint256",
        "label": "mapping(uint256 => bool)",
        "numberOfBytes": "32",
        "value": "t_bool"
      },
      "t_mapping(t_uint256,t_mapping(t_uint256,t_bool))": {
        "encoding": "mapping",
        "key": "t_uint256",
        "label": "mapping(uint256 => mapping(uint256 => bool))",
        "numberOfBytes": "32",
        "value": "t_mapping(t_uint256,t_bool)"
      },
      "t_mapping(t_uint256,t_mapping(t_uint256,t_uint256))": {
        "encoding": "mapping",
        "key": "t_uint256",
        "label": "mapping(uint256 => mapping(uint256 => uint256))",
        "numberOfBytes": "32",
        "value": "t_mapping(t_uint256,t_uint256)"
      },
      "t_mapping(t_uint256,t_struct(Participation)7721_storage)": {
        "encoding": "mapping",
        "key": "t_uint256",
        "label": "mapping(uint256 => struct Participation)",
        "numberOfBytes": "32",
        "value": "t_struct(Participation)7721_storage"
      },
      "t_mapping(t_uint256,t_struct(TWAMLPool)7730_storage)": {
        "encoding": "mapping",
        "key": "t_uint256",
        "label": "mapping(uint256 => struct TWAMLPool)",
        "numberOfBytes": "32",
        "value": "t_struct(TWAMLPool)7730_storage"
      },
      "t_mapping(t_uint256,t_uint256)": {
        "encoding": "mapping",
        "key": "t_uint256",
        "label": "mapping(uint256 => uint256)",
        "numberOfBytes": "32",
        "value": "t_uint256"
      },
      "t_struct(Participation)7721_storage": {
        "encoding": "inplace",
        "label": "struct Participation",
        "members": [
          {
            "astId": 7716,
            "contract": "contracts/options/mocks/TapiocaOptionBrokerMock.sol:TapiocaOptionBrokerMock",
            "label": "hasParticipated",
            "offset": 0,
            "slot": "0",
            "type": "t_bool"
          },
          {
            "astId": 7718,
            "contract": "contracts/options/mocks/TapiocaOptionBrokerMock.sol:TapiocaOptionBrokerMock",
            "label": "hasVotingPower",
            "offset": 1,
            "slot": "0",
            "type": "t_bool"
          },
          {
            "astId": 7720,
            "contract": "contracts/options/mocks/TapiocaOptionBrokerMock.sol:TapiocaOptionBrokerMock",
            "label": "averageMagnitude",
            "offset": 0,
            "slot": "1",
            "type": "t_uint256"
          }
        ],
        "numberOfBytes": "64"
      },
      "t_struct(PaymentTokenOracle)7736_storage": {
        "encoding": "inplace",
        "label": "struct PaymentTokenOracle",
        "members": [
          {
            "astId": 7733,
            "contract": "contracts/options/mocks/TapiocaOptionBrokerMock.sol:TapiocaOptionBrokerMock",
            "label": "oracle",
            "offset": 0,
            "slot": "0",
            "type": "t_contract(IOracle)5544"
          },
          {
            "astId": 7735,
            "contract": "contracts/options/mocks/TapiocaOptionBrokerMock.sol:TapiocaOptionBrokerMock",
            "label": "oracleData",
            "offset": 0,
            "slot": "1",
            "type": "t_bytes_storage"
          }
        ],
        "numberOfBytes": "64"
      },
      "t_struct(TWAMLPool)7730_storage": {
        "encoding": "inplace",
        "label": "struct TWAMLPool",
        "members": [
          {
            "astId": 7723,
            "contract": "contracts/options/mocks/TapiocaOptionBrokerMock.sol:TapiocaOptionBrokerMock",
            "label": "totalParticipants",
            "offset": 0,
            "slot": "0",
            "type": "t_uint256"
          },
          {
            "astId": 7725,
            "contract": "contracts/options/mocks/TapiocaOptionBrokerMock.sol:TapiocaOptionBrokerMock",
            "label": "averageMagnitude",
            "offset": 0,
            "slot": "1",
            "type": "t_uint256"
          },
          {
            "astId": 7727,
            "contract": "contracts/options/mocks/TapiocaOptionBrokerMock.sol:TapiocaOptionBrokerMock",
            "label": "totalDeposited",
            "offset": 0,
            "slot": "2",
            "type": "t_uint256"
          },
          {
            "astId": 7729,
            "contract": "contracts/options/mocks/TapiocaOptionBrokerMock.sol:TapiocaOptionBrokerMock",
            "label": "cumulative",
            "offset": 0,
            "slot": "3",
            "type": "t_uint256"
          }
        ],
        "numberOfBytes": "128"
      },
      "t_uint256": {
        "encoding": "inplace",
        "label": "uint256",
        "numberOfBytes": "32"
      }
    }
  }
}