{
  "address": "0x306547aa4B4241D73ae1e7A5465D277d06C40cbC",
  "abi": [
    {
      "inputs": [
        {
          "internalType": "address",
          "name": "_lzEndpoint",
          "type": "address"
        },
        {
          "internalType": "address",
          "name": "_team",
          "type": "address"
        },
        {
          "internalType": "address",
          "name": "_advisors",
          "type": "address"
        },
        {
          "internalType": "address",
          "name": "_dao",
          "type": "address"
        },
        {
          "internalType": "address",
          "name": "_seed",
          "type": "address"
        },
        {
          "internalType": "address",
          "name": "_otc",
          "type": "address"
        },
        {
          "internalType": "address",
          "name": "_lbp",
          "type": "address"
        },
        {
          "internalType": "uint16",
          "name": "_governanceChainId",
          "type": "uint16"
        }
      ],
      "stateMutability": "nonpayable",
      "type": "constructor"
    },
    {
      "inputs": [],
      "name": "PRBMathSD59x18__DivInputTooSmall",
      "type": "error"
    },
    {
      "inputs": [
        {
          "internalType": "uint256",
          "name": "rAbs",
          "type": "uint256"
        }
      ],
      "name": "PRBMathSD59x18__DivOverflow",
      "type": "error"
    },
    {
      "inputs": [
        {
          "internalType": "int256",
          "name": "x",
          "type": "int256"
        }
      ],
      "name": "PRBMathSD59x18__Exp2InputTooBig",
      "type": "error"
    },
    {
      "inputs": [
        {
          "internalType": "int256",
          "name": "x",
          "type": "int256"
        }
      ],
      "name": "PRBMathSD59x18__FromIntOverflow",
      "type": "error"
    },
    {
      "inputs": [
        {
          "internalType": "int256",
          "name": "x",
          "type": "int256"
        }
      ],
      "name": "PRBMathSD59x18__FromIntUnderflow",
      "type": "error"
    },
    {
      "inputs": [
        {
          "internalType": "int256",
          "name": "x",
          "type": "int256"
        }
      ],
      "name": "PRBMathSD59x18__LogInputTooSmall",
      "type": "error"
    },
    {
      "inputs": [],
      "name": "PRBMathSD59x18__MulInputTooSmall",
      "type": "error"
    },
    {
      "inputs": [
        {
          "internalType": "uint256",
          "name": "rAbs",
          "type": "uint256"
        }
      ],
      "name": "PRBMathSD59x18__MulOverflow",
      "type": "error"
    },
    {
      "inputs": [
        {
          "internalType": "uint256",
          "name": "prod1",
          "type": "uint256"
        }
      ],
      "name": "PRBMath__MulDivFixedPointOverflow",
      "type": "error"
    },
    {
      "inputs": [
        {
          "internalType": "uint256",
          "name": "prod1",
          "type": "uint256"
        },
        {
          "internalType": "uint256",
          "name": "denominator",
          "type": "uint256"
        }
      ],
      "name": "PRBMath__MulDivOverflow",
      "type": "error"
    },
    {
      "anonymous": false,
      "inputs": [
        {
          "indexed": false,
          "internalType": "int256",
          "name": "_old",
          "type": "int256"
        },
        {
          "indexed": false,
          "internalType": "int256",
          "name": "_new",
          "type": "int256"
        }
      ],
      "name": "AParamUpdated",
      "type": "event"
    },
    {
      "anonymous": false,
      "inputs": [
        {
          "indexed": true,
          "internalType": "address",
          "name": "owner",
          "type": "address"
        },
        {
          "indexed": true,
          "internalType": "address",
          "name": "spender",
          "type": "address"
        },
        {
          "indexed": false,
          "internalType": "uint256",
          "name": "value",
          "type": "uint256"
        }
      ],
      "name": "Approval",
      "type": "event"
    },
    {
      "anonymous": false,
      "inputs": [
        {
          "indexed": false,
          "internalType": "int256",
          "name": "_old",
          "type": "int256"
        },
        {
          "indexed": false,
          "internalType": "int256",
          "name": "_new",
          "type": "int256"
        }
      ],
      "name": "BParamUpdated",
      "type": "event"
    },
    {
      "anonymous": false,
      "inputs": [
        {
          "indexed": true,
          "internalType": "address",
          "name": "_by",
          "type": "address"
        },
        {
          "indexed": true,
          "internalType": "address",
          "name": "_from",
          "type": "address"
        },
        {
          "indexed": false,
          "internalType": "uint256",
          "name": "_amount",
          "type": "uint256"
        }
      ],
      "name": "Burned",
      "type": "event"
    },
    {
      "anonymous": false,
      "inputs": [
        {
          "indexed": false,
          "internalType": "int256",
          "name": "_old",
          "type": "int256"
        },
        {
          "indexed": false,
          "internalType": "int256",
          "name": "_new",
          "type": "int256"
        }
      ],
      "name": "CParamUpdated",
      "type": "event"
    },
    {
      "anonymous": false,
      "inputs": [
        {
          "indexed": false,
          "internalType": "uint16",
          "name": "_old",
          "type": "uint16"
        },
        {
          "indexed": false,
          "internalType": "uint16",
          "name": "_new",
          "type": "uint16"
        }
      ],
      "name": "GovernanceChainIdentifierUpdated",
      "type": "event"
    },
    {
      "anonymous": false,
      "inputs": [
        {
          "indexed": true,
          "internalType": "address",
          "name": "forAddr",
          "type": "address"
        },
        {
          "indexed": false,
          "internalType": "uint256",
          "name": "amount",
          "type": "uint256"
        }
      ],
      "name": "IncreasedVeAmount",
      "type": "event"
    },
    {
      "anonymous": false,
      "inputs": [
        {
          "indexed": false,
          "internalType": "uint16",
          "name": "_srcChainId",
          "type": "uint16"
        },
        {
          "indexed": false,
          "internalType": "bytes",
          "name": "_srcAddress",
          "type": "bytes"
        },
        {
          "indexed": false,
          "internalType": "uint64",
          "name": "_nonce",
          "type": "uint64"
        },
        {
          "indexed": false,
          "internalType": "bytes",
          "name": "_payload",
          "type": "bytes"
        },
        {
          "indexed": false,
          "internalType": "bytes",
          "name": "_reason",
          "type": "bytes"
        }
      ],
      "name": "MessageFailed",
      "type": "event"
    },
    {
      "anonymous": false,
      "inputs": [
        {
          "indexed": true,
          "internalType": "address",
          "name": "_by",
          "type": "address"
        },
        {
          "indexed": true,
          "internalType": "address",
          "name": "_to",
          "type": "address"
        },
        {
          "indexed": false,
          "internalType": "uint256",
          "name": "_amount",
          "type": "uint256"
        }
      ],
      "name": "Minted",
      "type": "event"
    },
    {
      "anonymous": false,
      "inputs": [
        {
          "indexed": true,
          "internalType": "address",
          "name": "_old",
          "type": "address"
        },
        {
          "indexed": true,
          "internalType": "address",
          "name": "_new",
          "type": "address"
        }
      ],
      "name": "MinterUpdated",
      "type": "event"
    },
    {
      "anonymous": false,
      "inputs": [
        {
          "indexed": true,
          "internalType": "address",
          "name": "previousOwner",
          "type": "address"
        },
        {
          "indexed": true,
          "internalType": "address",
          "name": "newOwner",
          "type": "address"
        }
      ],
      "name": "OwnershipTransferred",
      "type": "event"
    },
    {
      "anonymous": false,
      "inputs": [
        {
          "indexed": false,
          "internalType": "address",
          "name": "account",
          "type": "address"
        }
      ],
      "name": "Paused",
      "type": "event"
    },
    {
      "anonymous": false,
      "inputs": [
        {
          "indexed": true,
          "internalType": "uint16",
          "name": "_srcChainId",
          "type": "uint16"
        },
        {
          "indexed": false,
          "internalType": "bytes",
          "name": "_fromAddress",
          "type": "bytes"
        },
        {
          "indexed": true,
          "internalType": "address",
          "name": "_to",
          "type": "address"
        },
        {
          "indexed": false,
          "internalType": "uint256",
          "name": "_amount",
          "type": "uint256"
        }
      ],
      "name": "ReceiveFromChain",
      "type": "event"
    },
    {
      "anonymous": false,
      "inputs": [
        {
          "indexed": false,
          "internalType": "uint16",
          "name": "_srcChainId",
          "type": "uint16"
        },
        {
          "indexed": false,
          "internalType": "bytes",
          "name": "_srcAddress",
          "type": "bytes"
        },
        {
          "indexed": false,
          "internalType": "uint64",
          "name": "_nonce",
          "type": "uint64"
        },
        {
          "indexed": false,
          "internalType": "bytes32",
          "name": "_payloadHash",
          "type": "bytes32"
        }
      ],
      "name": "RetryMessageSuccess",
      "type": "event"
    },
    {
      "anonymous": false,
      "inputs": [
        {
          "indexed": true,
          "internalType": "uint16",
          "name": "_dstChainId",
          "type": "uint16"
        },
        {
          "indexed": true,
          "internalType": "address",
          "name": "_from",
          "type": "address"
        },
        {
          "indexed": true,
          "internalType": "bytes",
          "name": "_toAddress",
          "type": "bytes"
        },
        {
          "indexed": false,
          "internalType": "uint256",
          "name": "_amount",
          "type": "uint256"
        }
      ],
      "name": "SendToChain",
      "type": "event"
    },
    {
      "anonymous": false,
      "inputs": [
        {
          "indexed": false,
          "internalType": "uint16",
          "name": "_dstChainId",
          "type": "uint16"
        },
        {
          "indexed": false,
          "internalType": "uint16",
          "name": "_type",
          "type": "uint16"
        },
        {
          "indexed": false,
          "internalType": "uint256",
          "name": "_minDstGas",
          "type": "uint256"
        }
      ],
      "name": "SetMinDstGas",
      "type": "event"
    },
    {
      "anonymous": false,
      "inputs": [
        {
          "indexed": false,
          "internalType": "address",
          "name": "precrime",
          "type": "address"
        }
      ],
      "name": "SetPrecrime",
      "type": "event"
    },
    {
      "anonymous": false,
      "inputs": [
        {
          "indexed": false,
          "internalType": "uint16",
          "name": "_remoteChainId",
          "type": "uint16"
        },
        {
          "indexed": false,
          "internalType": "bytes",
          "name": "_path",
          "type": "bytes"
        }
      ],
      "name": "SetTrustedRemote",
      "type": "event"
    },
    {
      "anonymous": false,
      "inputs": [
        {
          "indexed": false,
          "internalType": "uint16",
          "name": "_remoteChainId",
          "type": "uint16"
        },
        {
          "indexed": false,
          "internalType": "bytes",
          "name": "_remoteAddress",
          "type": "bytes"
        }
      ],
      "name": "SetTrustedRemoteAddress",
      "type": "event"
    },
    {
      "anonymous": false,
      "inputs": [
        {
          "indexed": false,
          "internalType": "bool",
          "name": "_useCustomAdapterParams",
          "type": "bool"
        }
      ],
      "name": "SetUseCustomAdapterParams",
      "type": "event"
    },
    {
      "anonymous": false,
      "inputs": [
        {
          "indexed": true,
          "internalType": "address",
          "name": "from",
          "type": "address"
        },
        {
          "indexed": true,
          "internalType": "address",
          "name": "to",
          "type": "address"
        },
        {
          "indexed": false,
          "internalType": "uint256",
          "name": "value",
          "type": "uint256"
        }
      ],
      "name": "Transfer",
      "type": "event"
    },
    {
      "anonymous": false,
      "inputs": [
        {
          "indexed": false,
          "internalType": "address",
          "name": "account",
          "type": "address"
        }
      ],
      "name": "Unpaused",
      "type": "event"
    },
    {
      "anonymous": false,
      "inputs": [
        {
          "indexed": false,
          "internalType": "uint256",
          "name": "_blockTimestmap",
          "type": "uint256"
        },
        {
          "indexed": false,
          "internalType": "uint256",
          "name": "_rate",
          "type": "uint256"
        },
        {
          "indexed": false,
          "internalType": "uint256",
          "name": "_startEpochSupply",
          "type": "uint256"
        }
      ],
      "name": "UpdateMiningParameters",
      "type": "event"
    },
    {
      "anonymous": false,
      "inputs": [
        {
          "indexed": true,
          "internalType": "address",
          "name": "forAddr",
          "type": "address"
        },
        {
          "indexed": false,
          "internalType": "uint256",
          "name": "amount",
          "type": "uint256"
        },
        {
          "indexed": false,
          "internalType": "uint256",
          "name": "time",
          "type": "uint256"
        }
      ],
      "name": "VeLockedFor",
      "type": "event"
    },
    {
      "anonymous": false,
      "inputs": [
        {
          "indexed": true,
          "internalType": "address",
          "name": "_old",
          "type": "address"
        },
        {
          "indexed": true,
          "internalType": "address",
          "name": "_new",
          "type": "address"
        }
      ],
      "name": "VeTapUpdated",
      "type": "event"
    },
    {
      "inputs": [],
      "name": "INCREASE_AMOUNT",
      "outputs": [
        {
          "internalType": "uint256",
          "name": "",
          "type": "uint256"
        }
      ],
      "stateMutability": "view",
      "type": "function"
    },
    {
      "inputs": [],
      "name": "INITIAL_SUPPLY",
      "outputs": [
        {
          "internalType": "uint256",
          "name": "",
          "type": "uint256"
        }
      ],
      "stateMutability": "view",
      "type": "function"
    },
    {
      "inputs": [],
      "name": "LOCK",
      "outputs": [
        {
          "internalType": "uint256",
          "name": "",
          "type": "uint256"
        }
      ],
      "stateMutability": "view",
      "type": "function"
    },
    {
      "inputs": [],
      "name": "NO_EXTRA_GAS",
      "outputs": [
        {
          "internalType": "uint256",
          "name": "",
          "type": "uint256"
        }
      ],
      "stateMutability": "view",
      "type": "function"
    },
    {
      "inputs": [],
      "name": "PT_SEND",
      "outputs": [
        {
          "internalType": "uint16",
          "name": "",
          "type": "uint16"
        }
      ],
      "stateMutability": "view",
      "type": "function"
    },
    {
      "inputs": [],
      "name": "WEEK",
      "outputs": [
        {
          "internalType": "uint256",
          "name": "",
          "type": "uint256"
        }
      ],
      "stateMutability": "view",
      "type": "function"
    },
    {
      "inputs": [],
      "name": "a_param",
      "outputs": [
        {
          "internalType": "int256",
          "name": "",
          "type": "int256"
        }
      ],
      "stateMutability": "view",
      "type": "function"
    },
    {
      "inputs": [
        {
          "internalType": "address",
          "name": "owner",
          "type": "address"
        },
        {
          "internalType": "address",
          "name": "spender",
          "type": "address"
        }
      ],
      "name": "allowance",
      "outputs": [
        {
          "internalType": "uint256",
          "name": "",
          "type": "uint256"
        }
      ],
      "stateMutability": "view",
      "type": "function"
    },
    {
      "inputs": [
        {
          "internalType": "address",
          "name": "spender",
          "type": "address"
        },
        {
          "internalType": "uint256",
          "name": "amount",
          "type": "uint256"
        }
      ],
      "name": "approve",
      "outputs": [
        {
          "internalType": "bool",
          "name": "",
          "type": "bool"
        }
      ],
      "stateMutability": "nonpayable",
      "type": "function"
    },
    {
      "inputs": [
        {
          "internalType": "uint256",
          "name": "timestamp",
          "type": "uint256"
        }
      ],
      "name": "availableForWeek",
      "outputs": [
        {
          "internalType": "uint256",
          "name": "",
          "type": "uint256"
        }
      ],
      "stateMutability": "view",
      "type": "function"
    },
    {
      "inputs": [],
      "name": "b_param",
      "outputs": [
        {
          "internalType": "int256",
          "name": "",
          "type": "int256"
        }
      ],
      "stateMutability": "view",
      "type": "function"
    },
    {
      "inputs": [
        {
          "internalType": "address",
          "name": "account",
          "type": "address"
        }
      ],
      "name": "balanceOf",
      "outputs": [
        {
          "internalType": "uint256",
          "name": "",
          "type": "uint256"
        }
      ],
      "stateMutability": "view",
      "type": "function"
    },
    {
      "inputs": [],
      "name": "c_param",
      "outputs": [
        {
          "internalType": "int256",
          "name": "",
          "type": "int256"
        }
      ],
      "stateMutability": "view",
      "type": "function"
    },
    {
      "inputs": [],
      "name": "circulatingSupply",
      "outputs": [
        {
          "internalType": "uint256",
          "name": "",
          "type": "uint256"
        }
      ],
      "stateMutability": "view",
      "type": "function"
    },
    {
      "inputs": [],
      "name": "decimals",
      "outputs": [
        {
          "internalType": "uint8",
          "name": "",
          "type": "uint8"
        }
      ],
      "stateMutability": "pure",
      "type": "function"
    },
    {
      "inputs": [
        {
          "internalType": "address",
          "name": "spender",
          "type": "address"
        },
        {
          "internalType": "uint256",
          "name": "subtractedValue",
          "type": "uint256"
        }
      ],
      "name": "decreaseAllowance",
      "outputs": [
        {
          "internalType": "bool",
          "name": "",
          "type": "bool"
        }
      ],
      "stateMutability": "nonpayable",
      "type": "function"
    },
    {
      "inputs": [],
      "name": "emissionsStartTime",
      "outputs": [
        {
          "internalType": "uint256",
          "name": "",
          "type": "uint256"
        }
      ],
      "stateMutability": "view",
      "type": "function"
    },
    {
      "inputs": [
        {
          "internalType": "uint256",
          "name": "timestamp",
          "type": "uint256"
        }
      ],
      "name": "emitForWeek",
      "outputs": [
        {
          "internalType": "uint256",
          "name": "",
          "type": "uint256"
        }
      ],
      "stateMutability": "nonpayable",
      "type": "function"
    },
    {
      "inputs": [
        {
          "internalType": "uint16",
          "name": "_dstChainId",
          "type": "uint16"
        },
        {
          "internalType": "bytes",
          "name": "_toAddress",
          "type": "bytes"
        },
        {
          "internalType": "uint256",
          "name": "_amount",
          "type": "uint256"
        },
        {
          "internalType": "bool",
          "name": "_useZro",
          "type": "bool"
        },
        {
          "internalType": "bytes",
          "name": "_adapterParams",
          "type": "bytes"
        }
      ],
      "name": "estimateSendFee",
      "outputs": [
        {
          "internalType": "uint256",
          "name": "nativeFee",
          "type": "uint256"
        },
        {
          "internalType": "uint256",
          "name": "zroFee",
          "type": "uint256"
        }
      ],
      "stateMutability": "view",
      "type": "function"
    },
    {
      "inputs": [
        {
          "internalType": "address",
          "name": "_to",
          "type": "address"
        },
        {
          "internalType": "uint256",
          "name": "_amount",
          "type": "uint256"
        }
      ],
      "name": "extractTAP",
      "outputs": [],
      "stateMutability": "nonpayable",
      "type": "function"
    },
    {
      "inputs": [
        {
          "internalType": "uint16",
          "name": "",
          "type": "uint16"
        },
        {
          "internalType": "bytes",
          "name": "",
          "type": "bytes"
        },
        {
          "internalType": "uint64",
          "name": "",
          "type": "uint64"
        }
      ],
      "name": "failedMessages",
      "outputs": [
        {
          "internalType": "bytes32",
          "name": "",
          "type": "bytes32"
        }
      ],
      "stateMutability": "view",
      "type": "function"
    },
    {
      "inputs": [
        {
          "internalType": "uint16",
          "name": "_srcChainId",
          "type": "uint16"
        },
        {
          "internalType": "bytes",
          "name": "_srcAddress",
          "type": "bytes"
        }
      ],
      "name": "forceResumeReceive",
      "outputs": [],
      "stateMutability": "nonpayable",
      "type": "function"
    },
    {
      "inputs": [
        {
          "internalType": "uint16",
          "name": "_version",
          "type": "uint16"
        },
        {
          "internalType": "uint16",
          "name": "_chainId",
          "type": "uint16"
        },
        {
          "internalType": "address",
          "name": "",
          "type": "address"
        },
        {
          "internalType": "uint256",
          "name": "_configType",
          "type": "uint256"
        }
      ],
      "name": "getConfig",
      "outputs": [
        {
          "internalType": "bytes",
          "name": "",
          "type": "bytes"
        }
      ],
      "stateMutability": "view",
      "type": "function"
    },
    {
      "inputs": [
        {
          "internalType": "uint16",
          "name": "_remoteChainId",
          "type": "uint16"
        }
      ],
      "name": "getTrustedRemoteAddress",
      "outputs": [
        {
          "internalType": "bytes",
          "name": "",
          "type": "bytes"
        }
      ],
      "stateMutability": "view",
      "type": "function"
    },
    {
      "inputs": [
        {
          "internalType": "uint256",
          "name": "_amount",
          "type": "uint256"
        },
        {
          "internalType": "uint256",
          "name": "_time",
          "type": "uint256"
        },
        {
          "internalType": "uint256",
          "name": "_action",
          "type": "uint256"
        },
        {
          "internalType": "uint256",
          "name": "_extraGasLimit",
          "type": "uint256"
        }
      ],
      "name": "getVotingPower",
      "outputs": [],
      "stateMutability": "payable",
      "type": "function"
    },
    {
      "inputs": [],
      "name": "governanceChainIdentifier",
      "outputs": [
        {
          "internalType": "uint16",
          "name": "",
          "type": "uint16"
        }
      ],
      "stateMutability": "view",
      "type": "function"
    },
    {
      "inputs": [
        {
          "internalType": "address",
          "name": "spender",
          "type": "address"
        },
        {
          "internalType": "uint256",
          "name": "addedValue",
          "type": "uint256"
        }
      ],
      "name": "increaseAllowance",
      "outputs": [
        {
          "internalType": "bool",
          "name": "",
          "type": "bool"
        }
      ],
      "stateMutability": "nonpayable",
      "type": "function"
    },
    {
      "inputs": [
        {
          "internalType": "uint16",
          "name": "_srcChainId",
          "type": "uint16"
        },
        {
          "internalType": "bytes",
          "name": "_srcAddress",
          "type": "bytes"
        }
      ],
      "name": "isTrustedRemote",
      "outputs": [
        {
          "internalType": "bool",
          "name": "",
          "type": "bool"
        }
      ],
      "stateMutability": "view",
      "type": "function"
    },
    {
      "inputs": [],
      "name": "lzEndpoint",
      "outputs": [
        {
          "internalType": "contract ILayerZeroEndpoint",
          "name": "",
          "type": "address"
        }
      ],
      "stateMutability": "view",
      "type": "function"
    },
    {
      "inputs": [
        {
          "internalType": "uint16",
          "name": "_srcChainId",
          "type": "uint16"
        },
        {
          "internalType": "bytes",
          "name": "_srcAddress",
          "type": "bytes"
        },
        {
          "internalType": "uint64",
          "name": "_nonce",
          "type": "uint64"
        },
        {
          "internalType": "bytes",
          "name": "_payload",
          "type": "bytes"
        }
      ],
      "name": "lzReceive",
      "outputs": [],
      "stateMutability": "nonpayable",
      "type": "function"
    },
    {
      "inputs": [
        {
          "internalType": "uint16",
          "name": "",
          "type": "uint16"
        },
        {
          "internalType": "uint16",
          "name": "",
          "type": "uint16"
        }
      ],
      "name": "minDstGasLookup",
      "outputs": [
        {
          "internalType": "uint256",
          "name": "",
          "type": "uint256"
        }
      ],
      "stateMutability": "view",
      "type": "function"
    },
    {
      "inputs": [
        {
          "internalType": "int256",
          "name": "",
          "type": "int256"
        }
      ],
      "name": "mintedInWeek",
      "outputs": [
        {
          "internalType": "uint256",
          "name": "",
          "type": "uint256"
        }
      ],
      "stateMutability": "view",
      "type": "function"
    },
    {
      "inputs": [],
      "name": "minter",
      "outputs": [
        {
          "internalType": "address",
          "name": "",
          "type": "address"
        }
      ],
      "stateMutability": "view",
      "type": "function"
    },
    {
      "inputs": [],
      "name": "name",
      "outputs": [
        {
          "internalType": "string",
          "name": "",
          "type": "string"
        }
      ],
      "stateMutability": "view",
      "type": "function"
    },
    {
      "inputs": [
        {
          "internalType": "uint16",
          "name": "_srcChainId",
          "type": "uint16"
        },
        {
          "internalType": "bytes",
          "name": "_srcAddress",
          "type": "bytes"
        },
        {
          "internalType": "uint64",
          "name": "_nonce",
          "type": "uint64"
        },
        {
          "internalType": "bytes",
          "name": "_payload",
          "type": "bytes"
        }
      ],
      "name": "nonblockingLzReceive",
      "outputs": [],
      "stateMutability": "nonpayable",
      "type": "function"
    },
    {
      "inputs": [],
      "name": "owner",
      "outputs": [
        {
          "internalType": "address",
          "name": "",
          "type": "address"
        }
      ],
      "stateMutability": "view",
      "type": "function"
    },
    {
      "inputs": [
        {
          "internalType": "bool",
          "name": "pause",
          "type": "bool"
        }
      ],
      "name": "pauseSendTokens",
      "outputs": [],
      "stateMutability": "nonpayable",
      "type": "function"
    },
    {
      "inputs": [],
      "name": "paused",
      "outputs": [
        {
          "internalType": "bool",
          "name": "",
          "type": "bool"
        }
      ],
      "stateMutability": "view",
      "type": "function"
    },
    {
      "inputs": [],
      "name": "precrime",
      "outputs": [
        {
          "internalType": "address",
          "name": "",
          "type": "address"
        }
      ],
      "stateMutability": "view",
      "type": "function"
    },
    {
      "inputs": [
        {
          "internalType": "address",
          "name": "_from",
          "type": "address"
        },
        {
          "internalType": "uint256",
          "name": "_amount",
          "type": "uint256"
        }
      ],
      "name": "removeTAP",
      "outputs": [],
      "stateMutability": "nonpayable",
      "type": "function"
    },
    {
      "inputs": [],
      "name": "renounceOwnership",
      "outputs": [],
      "stateMutability": "nonpayable",
      "type": "function"
    },
    {
      "inputs": [
        {
          "internalType": "uint16",
          "name": "_srcChainId",
          "type": "uint16"
        },
        {
          "internalType": "bytes",
          "name": "_srcAddress",
          "type": "bytes"
        },
        {
          "internalType": "uint64",
          "name": "_nonce",
          "type": "uint64"
        },
        {
          "internalType": "bytes",
          "name": "_payload",
          "type": "bytes"
        }
      ],
      "name": "retryMessage",
      "outputs": [],
      "stateMutability": "payable",
      "type": "function"
    },
    {
      "inputs": [
        {
          "internalType": "address",
          "name": "_from",
          "type": "address"
        },
        {
          "internalType": "uint16",
          "name": "_dstChainId",
          "type": "uint16"
        },
        {
          "internalType": "bytes",
          "name": "_toAddress",
          "type": "bytes"
        },
        {
          "internalType": "uint256",
          "name": "_amount",
          "type": "uint256"
        },
        {
          "internalType": "address payable",
          "name": "_refundAddress",
          "type": "address"
        },
        {
          "internalType": "address",
          "name": "_zroPaymentAddress",
          "type": "address"
        },
        {
          "internalType": "bytes",
          "name": "_adapterParams",
          "type": "bytes"
        }
      ],
      "name": "sendFrom",
      "outputs": [],
      "stateMutability": "payable",
      "type": "function"
    },
    {
      "inputs": [
        {
          "internalType": "int256",
          "name": "val",
          "type": "int256"
        }
      ],
      "name": "setAParam",
      "outputs": [],
      "stateMutability": "nonpayable",
      "type": "function"
    },
    {
      "inputs": [
        {
          "internalType": "int256",
          "name": "val",
          "type": "int256"
        }
      ],
      "name": "setBParam",
      "outputs": [],
      "stateMutability": "nonpayable",
      "type": "function"
    },
    {
      "inputs": [
        {
          "internalType": "int256",
          "name": "val",
          "type": "int256"
        }
      ],
      "name": "setCParam",
      "outputs": [],
      "stateMutability": "nonpayable",
      "type": "function"
    },
    {
      "inputs": [
        {
          "internalType": "uint16",
          "name": "_version",
          "type": "uint16"
        },
        {
          "internalType": "uint16",
          "name": "_chainId",
          "type": "uint16"
        },
        {
          "internalType": "uint256",
          "name": "_configType",
          "type": "uint256"
        },
        {
          "internalType": "bytes",
          "name": "_config",
          "type": "bytes"
        }
      ],
      "name": "setConfig",
      "outputs": [],
      "stateMutability": "nonpayable",
      "type": "function"
    },
    {
      "inputs": [
        {
          "internalType": "uint16",
          "name": "_identifier",
          "type": "uint16"
        }
      ],
      "name": "setGovernanceChainIdentifier",
      "outputs": [],
      "stateMutability": "nonpayable",
      "type": "function"
    },
    {
      "inputs": [
        {
          "internalType": "uint16",
          "name": "_dstChainId",
          "type": "uint16"
        },
        {
          "internalType": "uint16",
          "name": "_packetType",
          "type": "uint16"
        },
        {
          "internalType": "uint256",
          "name": "_minGas",
          "type": "uint256"
        }
      ],
      "name": "setMinDstGas",
      "outputs": [],
      "stateMutability": "nonpayable",
      "type": "function"
    },
    {
      "inputs": [
        {
          "internalType": "address",
          "name": "_minter",
          "type": "address"
        }
      ],
      "name": "setMinter",
      "outputs": [],
      "stateMutability": "nonpayable",
      "type": "function"
    },
    {
      "inputs": [
        {
          "internalType": "address",
          "name": "_precrime",
          "type": "address"
        }
      ],
      "name": "setPrecrime",
      "outputs": [],
      "stateMutability": "nonpayable",
      "type": "function"
    },
    {
      "inputs": [
        {
          "internalType": "uint16",
          "name": "_version",
          "type": "uint16"
        }
      ],
      "name": "setReceiveVersion",
      "outputs": [],
      "stateMutability": "nonpayable",
      "type": "function"
    },
    {
      "inputs": [
        {
          "internalType": "uint16",
          "name": "_version",
          "type": "uint16"
        }
      ],
      "name": "setSendVersion",
      "outputs": [],
      "stateMutability": "nonpayable",
      "type": "function"
    },
    {
      "inputs": [
        {
          "internalType": "uint16",
          "name": "_srcChainId",
          "type": "uint16"
        },
        {
          "internalType": "bytes",
          "name": "_path",
          "type": "bytes"
        }
      ],
      "name": "setTrustedRemote",
      "outputs": [],
      "stateMutability": "nonpayable",
      "type": "function"
    },
    {
      "inputs": [
        {
          "internalType": "uint16",
          "name": "_remoteChainId",
          "type": "uint16"
        },
        {
          "internalType": "bytes",
          "name": "_remoteAddress",
          "type": "bytes"
        }
      ],
      "name": "setTrustedRemoteAddress",
      "outputs": [],
      "stateMutability": "nonpayable",
      "type": "function"
    },
    {
      "inputs": [
        {
          "internalType": "bool",
          "name": "_useCustomAdapterParams",
          "type": "bool"
        }
      ],
      "name": "setUseCustomAdapterParams",
      "outputs": [],
      "stateMutability": "nonpayable",
      "type": "function"
    },
    {
      "inputs": [
        {
          "internalType": "address",
          "name": "addr",
          "type": "address"
        }
      ],
      "name": "setVeTap",
      "outputs": [],
      "stateMutability": "nonpayable",
      "type": "function"
    },
    {
      "inputs": [
        {
          "internalType": "bytes4",
          "name": "interfaceId",
          "type": "bytes4"
        }
      ],
      "name": "supportsInterface",
      "outputs": [
        {
          "internalType": "bool",
          "name": "",
          "type": "bool"
        }
      ],
      "stateMutability": "view",
      "type": "function"
    },
    {
      "inputs": [],
      "name": "symbol",
      "outputs": [
        {
          "internalType": "string",
          "name": "",
          "type": "string"
        }
      ],
      "stateMutability": "view",
      "type": "function"
    },
    {
      "inputs": [],
      "name": "totalSupply",
      "outputs": [
        {
          "internalType": "uint256",
          "name": "",
          "type": "uint256"
        }
      ],
      "stateMutability": "view",
      "type": "function"
    },
    {
      "inputs": [
        {
          "internalType": "address",
          "name": "to",
          "type": "address"
        },
        {
          "internalType": "uint256",
          "name": "amount",
          "type": "uint256"
        }
      ],
      "name": "transfer",
      "outputs": [
        {
          "internalType": "bool",
          "name": "",
          "type": "bool"
        }
      ],
      "stateMutability": "nonpayable",
      "type": "function"
    },
    {
      "inputs": [
        {
          "internalType": "address",
          "name": "from",
          "type": "address"
        },
        {
          "internalType": "address",
          "name": "to",
          "type": "address"
        },
        {
          "internalType": "uint256",
          "name": "amount",
          "type": "uint256"
        }
      ],
      "name": "transferFrom",
      "outputs": [
        {
          "internalType": "bool",
          "name": "",
          "type": "bool"
        }
      ],
      "stateMutability": "nonpayable",
      "type": "function"
    },
    {
      "inputs": [
        {
          "internalType": "address",
          "name": "newOwner",
          "type": "address"
        }
      ],
      "name": "transferOwnership",
      "outputs": [],
      "stateMutability": "nonpayable",
      "type": "function"
    },
    {
      "inputs": [
        {
          "internalType": "uint16",
          "name": "",
          "type": "uint16"
        }
      ],
      "name": "trustedRemoteLookup",
      "outputs": [
        {
          "internalType": "bytes",
          "name": "",
          "type": "bytes"
        }
      ],
      "stateMutability": "view",
      "type": "function"
    },
    {
      "inputs": [],
      "name": "useCustomAdapterParams",
      "outputs": [
        {
          "internalType": "bool",
          "name": "",
          "type": "bool"
        }
      ],
      "stateMutability": "view",
      "type": "function"
    },
    {
      "inputs": [],
      "name": "veTap",
      "outputs": [
        {
          "internalType": "address",
          "name": "",
          "type": "address"
        }
      ],
      "stateMutability": "view",
      "type": "function"
    }
  ],
  "transactionHash": "0x5754b3524dcfa0b473f28cce72fa3b4d3a21252a17c0886dcf2f03b96917dacc",
  "args": [
    "0xbfD2135BFfbb0B5378b56643c2Df8a87552Bfa23",
    "0x40282d3Cf4890D9806BC1853e97a59C93D813653",
    "0x40282d3Cf4890D9806BC1853e97a59C93D813653",
    "0x40282d3Cf4890D9806BC1853e97a59C93D813653",
    "0x40282d3Cf4890D9806BC1853e97a59C93D813653",
    "0x40282d3Cf4890D9806BC1853e97a59C93D813653",
    "0x40282d3Cf4890D9806BC1853e97a59C93D813653",
    "5"
  ],
  "numDeployments": 1,
  "solcInputHash": "d7758887b6dcb48b315826d548e933a8",
  "bytecode": "0x60c060405268014d1120d7b1600000600c556109c4600d556733590a6584f20000600e553480156200003057600080fd5b50604051620059d6380380620059d6833981016040819052620000539162000527565b60405180604001604052806007815260200166546170696f636160c81b8152506040518060400160405280600381526020016205441560ec1b815250898282828282828080620000b2620000ac6200029a60201b60201c565b6200029e565b6001600160a01b031660805250508151620000d590600990602085019062000451565b508051620000eb90600a90602084019062000451565b5050600b805460ff1916905550505050506001600160a01b038a16151591506200015e90505760405162461bcd60e51b815260206004820152601560248201527f4c5a20656e64706f696e74206e6f742076616c6964000000000000000000000060448201526064015b60405180910390fd5b6011805461ffff60a01b1916600160a01b61ffff84811682029290921792839055909104166200018d620002ee565b61ffff1614156200028757620001af876a0c685fa11e01ec6f0000006200036c565b620001c6866a034f086f3b33b6840000006200036c565b620001dd856a341cc4d7e46e7a9f0000006200036c565b620001f4846a069e10de76676d080000006200036c565b6200020b836a0422ca8b0a00a4250000006200036c565b62000222826a0422ca8b0a00a4250000006200036c565b6a52b7d2dcc80cd2e40000006200023860085490565b14620002875760405162461bcd60e51b815260206004820152601860248201527f696e697469616c20737570706c79206e6f742076616c69640000000000000000604482015260640162000155565b50504260a0525062000658945050505050565b3390565b600080546001600160a01b038381166001600160a01b0319831681178455604051919092169283917f8be0079c531659141344cd1fd0a4f28419497f9722a3daafe3b4186f6b6457e09190a35050565b60006080516001600160a01b0316633408e4706040518163ffffffff1660e01b815260040160206040518083038186803b1580156200032c57600080fd5b505afa15801562000341573d6000803e3d6000fd5b505050506040513d601f19601f82011682018060405250810190620003679190620005cf565b905090565b6001600160a01b038216620003c45760405162461bcd60e51b815260206004820152601f60248201527f45524332303a206d696e7420746f20746865207a65726f206164647265737300604482015260640162000155565b8060086000828254620003d89190620005f4565b90915550506001600160a01b0382166000908152600660205260408120805483929062000407908490620005f4565b90915550506040518181526001600160a01b038316906000907fddf252ad1be2c89b69c2b068fc378daa952ba7f163c4a11628f55a4df523b3ef9060200160405180910390a35050565b8280546200045f906200061b565b90600052602060002090601f016020900481019282620004835760008555620004ce565b82601f106200049e57805160ff1916838001178555620004ce565b82800160010185558215620004ce579182015b82811115620004ce578251825591602001919060010190620004b1565b50620004dc929150620004e0565b5090565b5b80821115620004dc5760008155600101620004e1565b80516001600160a01b03811681146200050f57600080fd5b919050565b805161ffff811681146200050f57600080fd5b600080600080600080600080610100898b0312156200054557600080fd5b6200055089620004f7565b97506200056060208a01620004f7565b96506200057060408a01620004f7565b95506200058060608a01620004f7565b94506200059060808a01620004f7565b9350620005a060a08a01620004f7565b9250620005b060c08a01620004f7565b9150620005c060e08a0162000514565b90509295985092959890939650565b600060208284031215620005e257600080fd5b620005ed8262000514565b9392505050565b600082198211156200061657634e487b7160e01b600052601160045260246000fd5b500190565b600181811c908216806200063057607f821691505b602082108114156200065257634e487b7160e01b600052602260045260246000fd5b50919050565b60805160a0516152fd620006d9600039600081816105f9015281816115cd0152818161160601528181611f44015261201f01526000818161096901528181610bd101528181610ef001528181610f9101528181611050015281816111fc01528181611a360152818161219d01528181612e1f015261313001526152fd6000f3fe6080604052600436106103585760003560e01c80638cfd8f5c116101bd578063cbed8b9c116100f8578063eb8d72b71161009b578063eb8d72b714610aca578063ece4b2ed14610aea578063ed629c5c14610b0a578063f187892214610b24578063f2fde38b14610b44578063f4359ce514610b64578063f5ecbdbc14610b7b578063f85b49e814610b9b578063fca3b5aa14610bae57600080fd5b8063cbed8b9c146109e1578063d1deba1f14610a01578063d4d69bde14610a14578063dd62ed3e14610a34578063de68414314610a54578063df2a5b3b14610a6a578063ea4d4f7914610a8a578063eab45d9c14610aaa57600080fd5b8063a4f0d7d011610160578063a4f0d7d0146108e2578063a6c3d165146108f7578063a70006aa14610917578063a9059cbb14610937578063b353aaa714610957578063baf3292d1461098b578063be6138ee146109ab578063c0c6caf7146109cb57600080fd5b80638cfd8f5c146107d55780638da5cb5b1461080d5780639358928b1461082b57806394cefb6714610840578063950c8a741461086d57806395d89b411461088d5780639f38369a146108a2578063a457c2d7146108c257600080fd5b806341e0d241116102985780635c975abb1161023b5780635c975abb146106b25780636425c222146106ca57806366ad5c8a146106ea57806370a082311461070a578063715018a6146107405780637533d788146107555780637f8a3576146107755780638739b76b146107955780638b974187146107b557600080fd5b806341e0d2411461059c57806342d65a8d146105b257806344770515146105d257806348b0daa6146105e75780634c42899a1461061b5780634eb8c3081461063057806351905636146106505780635b8c41e61461066357600080fd5b80631fabf9dd116103005780631fabf9dd1461048257806323b872dd1461049757806328d7eb97146104b75780632a205e3d146104ec5780632ff2e9dc14610521578063313ce56714610540578063395093511461055c5780633d8b38f61461057c57600080fd5b80621d35671461035d57806301ffc9a71461037f57806306fdde03146103b457806307546172146103d657806307e0db1714610403578063095ea7b31461042357806310ddb1371461044357806318160ddd14610463575b600080fd5b34801561036957600080fd5b5061037d6103783660046145b3565b610bce565b005b34801561038b57600080fd5b5061039f61039a366004614648565b610dff565b60405190151581526020015b60405180910390f35b3480156103c057600080fd5b506103c9610e3d565b6040516103ab91906146ca565b3480156103e257600080fd5b506010546103f6906001600160a01b031681565b6040516103ab91906146dd565b34801561040f57600080fd5b5061037d61041e3660046146f1565b610ecf565b34801561042f57600080fd5b5061039f61043e366004614723565b610f58565b34801561044f57600080fd5b5061037d61045e3660046146f1565b610f70565b34801561046f57600080fd5b506008545b6040519081526020016103ab565b34801561048e57600080fd5b50610474600b81565b3480156104a357600080fd5b5061039f6104b236600461474f565b610fc8565b3480156104c357600080fd5b506011546104d990600160a01b900461ffff1681565b60405161ffff90911681526020016103ab565b3480156104f857600080fd5b5061050c6105073660046147a0565b610fee565b604080519283526020830191909152016103ab565b34801561052d57600080fd5b506104746a52b7d2dcc80cd2e400000081565b34801561054c57600080fd5b50604051601281526020016103ab565b34801561056857600080fd5b5061039f610577366004614723565b6110ef565b34801561058857600080fd5b5061039f61059736600461483f565b611111565b3480156105a857600080fd5b50610474600d5481565b3480156105be57600080fd5b5061037d6105cd36600461483f565b6111dd565b3480156105de57600080fd5b50610474600081565b3480156105f357600080fd5b506104747f000000000000000000000000000000000000000000000000000000000000000081565b34801561062757600080fd5b506104d9600081565b34801561063c57600080fd5b5061037d61064b366004614723565b611263565b61037d61065e366004614893565b611358565b34801561066f57600080fd5b5061047461067e3660046149c9565b6004602090815260009384526040808520845180860184018051928152908401958401959095209452929052825290205481565b3480156106be57600080fd5b50600b5460ff1661039f565b3480156106d657600080fd5b506011546103f6906001600160a01b031681565b3480156106f657600080fd5b5061037d6107053660046145b3565b6113dd565b34801561071657600080fd5b50610474610725366004614a6b565b6001600160a01b031660009081526006602052604090205490565b34801561074c57600080fd5b5061037d6114b9565b34801561076157600080fd5b506103c96107703660046146f1565b6114cd565b34801561078157600080fd5b5061037d610790366004614a88565b611567565b3480156107a157600080fd5b506104746107b0366004614a88565b6115b0565b3480156107c157600080fd5b5061037d6107d03660046146f1565b61165e565b3480156107e157600080fd5b506104746107f0366004614aa1565b600260209081526000928352604080842090915290825290205481565b34801561081957600080fd5b506000546001600160a01b03166103f6565b34801561083757600080fd5b506104746116d1565b34801561084c57600080fd5b5061047461085b366004614a88565b600f6020526000908152604090205481565b34801561087957600080fd5b506003546103f6906001600160a01b031681565b34801561089957600080fd5b506103c96116e1565b3480156108ae57600080fd5b506103c96108bd3660046146f1565b6116f0565b3480156108ce57600080fd5b5061039f6108dd366004614723565b611800565b3480156108ee57600080fd5b50610474600a81565b34801561090357600080fd5b5061037d61091236600461483f565b611886565b34801561092357600080fd5b5061037d610932366004614a88565b611919565b34801561094357600080fd5b5061039f610952366004614723565b611962565b34801561096357600080fd5b506103f67f000000000000000000000000000000000000000000000000000000000000000081565b34801561099757600080fd5b5061037d6109a6366004614a6b565b611970565b3480156109b757600080fd5b5061037d6109c6366004614a88565b6119ce565b3480156109d757600080fd5b50610474600e5481565b3480156109ed57600080fd5b5061037d6109fc366004614ada565b611a17565b61037d610a0f3660046145b3565b611aa1565b348015610a2057600080fd5b5061037d610a2f366004614723565b611cb7565b348015610a4057600080fd5b50610474610a4f366004614b4c565b611d4d565b348015610a6057600080fd5b50610474600c5481565b348015610a7657600080fd5b5061037d610a85366004614b7a565b611d78565b348015610a9657600080fd5b5061037d610aa5366004614a6b565b611e2a565b348015610ab657600080fd5b5061037d610ac5366004614baa565b611e8e565b348015610ad657600080fd5b5061037d610ae536600461483f565b611ed7565b348015610af657600080fd5b50610474610b05366004614a88565b611f31565b348015610b1657600080fd5b5060055461039f9060ff1681565b348015610b3057600080fd5b5061037d610b3f366004614baa565b6120d6565b348015610b5057600080fd5b5061037d610b5f366004614a6b565b6120f6565b348015610b7057600080fd5b5061047462093a8081565b348015610b8757600080fd5b506103c9610b96366004614bc5565b61216c565b61037d610ba9366004614c16565b61222c565b348015610bba57600080fd5b5061037d610bc9366004614a6b565b6123ff565b337f00000000000000000000000000000000000000000000000000000000000000006001600160a01b031614610c4b5760405162461bcd60e51b815260206004820152601e60248201527f4c7a4170703a20696e76616c696420656e64706f696e742063616c6c6572000060448201526064015b60405180910390fd5b61ffff861660009081526001602052604081208054610c6990614c48565b80601f0160208091040260200160405190810160405280929190818152602001828054610c9590614c48565b8015610ce25780601f10610cb757610100808354040283529160200191610ce2565b820191906000526020600020905b815481529060010190602001808311610cc557829003601f168201915b50505050509050805186869050148015610cfd575060008151115b8015610d25575080516020820120604051610d1b9088908890614c83565b6040518091039020145b610d805760405162461bcd60e51b815260206004820152602660248201527f4c7a4170703a20696e76616c696420736f757263652073656e64696e6720636f6044820152651b9d1c9858dd60d21b6064820152608401610c42565b610df68787878080601f01602080910402602001604051908101604052809392919081815260200183838082843760009201919091525050604080516020601f8a018190048102820181019092528881528a9350915088908890819084018382808284376000920191909152506124ad92505050565b50505050505050565b60006001600160e01b031982161580610e2857506001600160e01b031982166336372b0760e01b145b80610e375750610e37826125b7565b92915050565b606060098054610e4c90614c48565b80601f0160208091040260200160405190810160405280929190818152602001828054610e7890614c48565b8015610ec55780601f10610e9a57610100808354040283529160200191610ec5565b820191906000526020600020905b815481529060010190602001808311610ea857829003601f168201915b5050505050905090565b610ed76125ec565b6040516307e0db1760e01b815261ffff821660048201527f00000000000000000000000000000000000000000000000000000000000000006001600160a01b0316906307e0db17906024015b600060405180830381600087803b158015610f3d57600080fd5b505af1158015610f51573d6000803e3d6000fd5b5050505050565b600033610f66818585612646565b5060019392505050565b610f786125ec565b6040516310ddb13760e01b815261ffff821660048201527f00000000000000000000000000000000000000000000000000000000000000006001600160a01b0316906310ddb13790602401610f23565b600033610fd685828561276a565b610fe18585856127e4565b60019150505b9392505050565b600080600080336040516020016110059190614c93565b60408051601f198184030181529082905261102992918c908c908c90602001614cd4565b60408051601f198184030181529082905263040a7bb160e41b825291506001600160a01b037f000000000000000000000000000000000000000000000000000000000000000016906340a7bb109061108f908d90309086908c908c908c90600401614d17565b604080518083038186803b1580156110a657600080fd5b505afa1580156110ba573d6000803e3d6000fd5b505050506040513d601f19601f820116820180604052508101906110de9190614d6d565b925092505097509795505050505050565b600033610f668185856111028383611d4d565b61110c9190614da7565b612646565b61ffff83166000908152600160205260408120805482919061113290614c48565b80601f016020809104026020016040519081016040528092919081815260200182805461115e90614c48565b80156111ab5780601f10611180576101008083540402835291602001916111ab565b820191906000526020600020905b81548152906001019060200180831161118e57829003601f168201915b5050505050905083836040516111c2929190614c83565b60405180910390208180519060200120149150509392505050565b6111e56125ec565b6040516342d65a8d60e01b81526001600160a01b037f000000000000000000000000000000000000000000000000000000000000000016906342d65a8d9061123590869086908690600401614dbf565b600060405180830381600087803b15801561124f57600080fd5b505af1158015610df6573d6000803e3d6000fd5b61126b6129a0565b6010546001600160a01b031633148061128e57506000546001600160a01b031633145b6112aa5760405162461bcd60e51b8152600401610c4290614ddd565b600081116112ed5760405162461bcd60e51b815260206004820152601060248201526f185b5bdd5b9d081b9bdd081d985b1a5960821b6044820152606401610c42565b30600090815260066020526040902054818110156113485760405162461bcd60e51b8152602060048201526018602482015277195e18d959591cc8185b1b1bddd8589b1948185b5bdd5b9d60421b6044820152606401610c42565b6113533084846127e4565b505050565b6113d2898989898080601f01602080910402602001604051908101604052809392919081815260200183838082843760009201919091525050604080516020601f8a018190048102820181019092528881528c93508b92508a918a908a90819084018382808284376000920191909152506129e692505050565b505050505050505050565b33301461143b5760405162461bcd60e51b815260206004820152602660248201527f4e6f6e626c6f636b696e674c7a4170703a2063616c6c6572206d7573742062656044820152650204c7a4170760d41b6064820152608401610c42565b6114b18686868080601f01602080910402602001604051908101604052809392919081815260200183838082843760009201919091525050604080516020601f890181900481028201810190925287815289935091508790879081908401838280828437600092019190915250612abd92505050565b505050505050565b6114c16125ec565b6114cb6000612b24565b565b600160205260009081526040902080546114e690614c48565b80601f016020809104026020016040519081016040528092919081815260200182805461151290614c48565b801561155f5780601f106115345761010080835404028352916020019161155f565b820191906000526020600020905b81548152906001019060200180831161154257829003601f168201915b505050505081565b61156f6125ec565b600c5460408051918252602082018390527ff73c67caf0195801ce0f03d2c5b8d9c5216decc3a69e6fec1386e49dd94db6bb910160405180910390a1600c55565b6000428211156115c257506000919050565b816115cb574291505b7f00000000000000000000000000000000000000000000000000000000000000008210156115fb57506000919050565b600062093a8061162b7f000000000000000000000000000000000000000000000000000000000000000085614e03565b6116359190614e30565b6000818152600f6020526040902054909150156116555750600092915050565b610fe781612b74565b6116666125ec565b6011546040805161ffff600160a01b9093048316815291831660208301527fc718f92b41e9cdb38f93e18b15cbed3081dca2734cc91fd0f9b6f8be94b6d71e910160405180910390a16011805461ffff909216600160a01b0261ffff60a01b19909216919091179055565b60006116dc60085490565b905090565b6060600a8054610e4c90614c48565b61ffff811660009081526001602052604081208054606092919061171390614c48565b80601f016020809104026020016040519081016040528092919081815260200182805461173f90614c48565b801561178c5780601f106117615761010080835404028352916020019161178c565b820191906000526020600020905b81548152906001019060200180831161176f57829003601f168201915b505050505090508051600014156117e55760405162461bcd60e51b815260206004820152601d60248201527f4c7a4170703a206e6f20747275737465642070617468207265636f72640000006044820152606401610c42565b610fe76000601483516117f89190614e03565b839190612bd2565b6000338161180e8286611d4d565b90508381101561186e5760405162461bcd60e51b815260206004820152602560248201527f45524332303a2064656372656173656420616c6c6f77616e63652062656c6f77604482015264207a65726f60d81b6064820152608401610c42565b61187b8286868403612646565b506001949350505050565b61188e6125ec565b8181306040516020016118a393929190614e52565b60408051601f1981840301815291815261ffff851660009081526001602090815291902082516118d893919290910190614437565b507f8c0400cfe2d1199b1a725c78960bcc2a344d869b80590d0f2bd005db15a572ce83838360405161190c93929190614dbf565b60405180910390a1505050565b6119216125ec565b600d5460408051918252602082018390527f3d63d8a356ba2c42f5d0f40d1a69f6f879780a3042e1d3501984408e4f93980f910160405180910390a1600d55565b600033610f668185856127e4565b6119786125ec565b600380546001600160a01b0319166001600160a01b0383161790556040517f5db758e995a17ec1ad84bdef7e8c3293a0bd6179bcce400dff5d4c3d87db726b906119c39083906146dd565b60405180910390a150565b6119d66125ec565b600e5460408051918252602082018390527f1f12352d3bf57d77a20ef7b688f2f8d32f2977eab4004cfa0dd46ce9b77144fd910160405180910390a1600e55565b611a1f6125ec565b6040516332fb62e760e21b81526001600160a01b037f0000000000000000000000000000000000000000000000000000000000000000169063cbed8b9c90611a739088908890889088908890600401614e73565b600060405180830381600087803b158015611a8d57600080fd5b505af11580156113d2573d6000803e3d6000fd5b61ffff86166000908152600460205260408082209051611ac49088908890614c83565b90815260408051602092819003830190206001600160401b03871660009081529252902054905080611b445760405162461bcd60e51b815260206004820152602360248201527f4e6f6e626c6f636b696e674c7a4170703a206e6f2073746f726564206d65737360448201526261676560e81b6064820152608401610c42565b808383604051611b55929190614c83565b604051809103902014611bb45760405162461bcd60e51b815260206004820152602160248201527f4e6f6e626c6f636b696e674c7a4170703a20696e76616c6964207061796c6f616044820152601960fa1b6064820152608401610c42565b61ffff87166000908152600460205260408082209051611bd79089908990614c83565b90815260408051602092819003830181206001600160401b038916600090815290845282902093909355601f88018290048202830182019052868252611c6f918991899089908190840183828082843760009201919091525050604080516020601f8a018190048102820181019092528881528a935091508890889081908401838280828437600092019190915250612abd92505050565b7fc264d91f3adc5588250e1551f547752ca0cfa8f6b530d243b9f9f4cab10ea8e58787878785604051611ca6959493929190614eac565b60405180910390a150505050505050565b611cbf6129a0565b6010546001600160a01b0316331480611ce257506000546001600160a01b031633145b611cfe5760405162461bcd60e51b8152600401610c4290614ddd565b611d088282612cdf565b6040518181526001600160a01b0383169033907f6ab368f832c266c8eb942b84fbcaa20aedc24a699d2a05fae2568028733b1d09906020015b60405180910390a35050565b6001600160a01b03918216600090815260076020908152604080832093909416825291909152205490565b611d806125ec565b60008111611dc85760405162461bcd60e51b81526020600482015260156024820152744c7a4170703a20696e76616c6964206d696e47617360581b6044820152606401610c42565b61ffff83811660008181526002602090815260408083209487168084529482529182902085905581519283528201929092529081018290527f9d5c7c0b934da8fefa9c7760c98383778a12dfbfc0c3b3106518f43fb9508ac09060600161190c565b611e326125ec565b6011546040516001600160a01b038084169216907f03a73797762dc8ed06e7b7d28cd417442ffde49b2e098168ab56802b324b468290600090a3601180546001600160a01b0319166001600160a01b0392909216919091179055565b611e966125ec565b6005805460ff19168215159081179091556040519081527f1584ad594a70cbe1e6515592e1272a987d922b097ead875069cebe8b40c004a4906020016119c3565b611edf6125ec565b61ffff83166000908152600160205260409020611efd9083836144bb565b507ffa41487ad5d6728f0b19276fa1eddc16558578f5109fc39d2dc33c3230470dab83838360405161190c93929190614dbf565b6000611f3b6129a0565b8115611fb757817f0000000000000000000000000000000000000000000000000000000000000000108015611f705750428211155b611fb25760405162461bcd60e51b81526020600482015260136024820152721d1a5b595cdd185b5c081b9bdd081d985b1a59606a1b6044820152606401610c42565b611fbb565b4291505b601154600160a01b900461ffff16611fd1612e1b565b61ffff16146120145760405162461bcd60e51b815260206004820152600f60248201526e18da185a5b881b9bdd081d985b1a59608a1b6044820152606401610c42565b600062093a806120447f000000000000000000000000000000000000000000000000000000000000000085614e03565b61204e9190614e30565b6000818152600f60205260409020549091501561206e5750600092915050565b600061207982612b74565b6000838152600f6020526040902081905590506120963082612eae565b604051818152309033907f9d228d69b5fdb8d273a2336f8fb8612d039631024ea9bf09c424a9503aa078f09060200160405180910390a39150505b919050565b6120de6125ec565b806120ee576120eb612f74565b50565b6120eb612fc0565b6120fe6125ec565b6001600160a01b0381166121635760405162461bcd60e51b815260206004820152602660248201527f4f776e61626c653a206e6577206f776e657220697320746865207a65726f206160448201526564647265737360d01b6064820152608401610c42565b6120eb81612b24565b604051633d7b2f6f60e21b815261ffff808616600483015284166024820152306044820152606481018290526060907f00000000000000000000000000000000000000000000000000000000000000006001600160a01b03169063f5ecbdbc9060840160006040518083038186803b1580156121e757600080fd5b505afa1580156121fb573d6000803e3d6000fd5b505050506040513d6000823e601f3d908101601f191682016040526122239190810190614f2c565b95945050505050565b601154600160a01b900461ffff16612242612e1b565b61ffff1614156122895760405162461bcd60e51b8152602060048201526012602482015271757365205665546170206469726563746c7960701b6044820152606401610c42565b600a8214806122985750600b82145b6122d75760405162461bcd60e51b815260206004820152601060248201526f1858dd1a5bdb881b9bdd081d985b1a5960821b6044820152606401610c42565b6000336040516020016122ea9190614c93565b604051602081830303815290604052905061230e33612307612e1b565b8388612ffd565b600080336040516020016123229190614c93565b60408051601f1981840301815290829052612348929185908a9089908b90602001614f60565b60408051601f19818403018152828252600160f01b6020840152602280840187905282518085039091018152604290930190915260115490925061239c90600160a01b900461ffff16833360008534613011565b826040516123aa9190614fae565b60405190819003812060115489835290913391600160a01b900461ffff16907f39a4c66499bcf4b56d79f0dde8ed7a9d4925a0df55825206b2b8531e202be0d09060200160405180910390a450505050505050565b6124076125ec565b6001600160a01b0381166124515760405162461bcd60e51b81526020600482015260116024820152701859191c995cdcc81b9bdd081d985b1a59607a1b6044820152606401610c42565b6010546040516001600160a01b038084169216907f1cf2de25c5bf439ac0287061c3a0fa69b3b02867d0ccfd2ded34e42577050b7390600090a3601080546001600160a01b0319166001600160a01b0392909216919091179055565b6000806125105a60966366ad5c8a60e01b898989896040516024016124d59493929190614fca565b60408051601f198184030181529190526020810180516001600160e01b03166001600160e01b031990931692909217909152309291906131ac565b91509150816114b1578280519060200120600460008861ffff1661ffff1681526020019081526020016000208660405161254a9190614fae565b9081526040805191829003602090810183206001600160401b0389166000908152915220919091557fe183f33de2837795525b4792ca4cd60535bd77c53b7e7030060bfcf5734d6b0c906125a79088908890889088908790615008565b60405180910390a1505050505050565b60006001600160e01b031982166301d1d13560e71b1480610e3757506301ffc9a760e01b6001600160e01b0319831614610e37565b6000546001600160a01b031633146114cb5760405162461bcd60e51b815260206004820181905260248201527f4f776e61626c653a2063616c6c6572206973206e6f7420746865206f776e65726044820152606401610c42565b6001600160a01b0383166126a85760405162461bcd60e51b8152602060048201526024808201527f45524332303a20617070726f76652066726f6d20746865207a65726f206164646044820152637265737360e01b6064820152608401610c42565b6001600160a01b0382166127095760405162461bcd60e51b815260206004820152602260248201527f45524332303a20617070726f766520746f20746865207a65726f206164647265604482015261737360f01b6064820152608401610c42565b6001600160a01b0383811660008181526007602090815260408083209487168084529482529182902085905590518481527f8c5be1e5ebec7d5bd14f71427d1e84f3dd0314c0f7b2291e5b200ac8c7c3b925910160405180910390a3505050565b60006127768484611d4d565b905060001981146127de57818110156127d15760405162461bcd60e51b815260206004820152601d60248201527f45524332303a20696e73756666696369656e7420616c6c6f77616e63650000006044820152606401610c42565b6127de8484848403612646565b50505050565b6001600160a01b0383166128485760405162461bcd60e51b815260206004820152602560248201527f45524332303a207472616e736665722066726f6d20746865207a65726f206164604482015264647265737360d81b6064820152608401610c42565b6001600160a01b0382166128aa5760405162461bcd60e51b815260206004820152602360248201527f45524332303a207472616e7366657220746f20746865207a65726f206164647260448201526265737360e81b6064820152608401610c42565b6001600160a01b038316600090815260066020526040902054818110156129225760405162461bcd60e51b815260206004820152602660248201527f45524332303a207472616e7366657220616d6f756e7420657863656564732062604482015265616c616e636560d01b6064820152608401610c42565b6001600160a01b03808516600090815260066020526040808220858503905591851681529081208054849290612959908490614da7565b92505081905550826001600160a01b0316846001600160a01b03166000805160206152a88339815191528460405161299391815260200190565b60405180910390a36127de565b600b5460ff16156114cb5760405162461bcd60e51b815260206004820152601060248201526f14185d5cd8589b194e881c185d5cd95960821b6044820152606401610c42565b6129f4866000836000613236565b612a0087878787612ffd565b60008088604051602001612a149190614c93565b60408051601f1981840301815290829052612a3692918990899060200161505a565b6040516020818303038152906040529050612a55878286868634613011565b85604051612a639190614fae565b6040518091039020886001600160a01b03168861ffff167f39a4c66499bcf4b56d79f0dde8ed7a9d4925a0df55825206b2b8531e202be0d088604051612aab91815260200190565b60405180910390a45050505050505050565b602081015161ffff8116612adc57612ad7858585856132b0565b610f51565b60405162461bcd60e51b815260206004820152601c60248201527f4f4654436f72653a20756e6b6e6f776e207061636b65742074797065000000006044820152606401610c42565b600080546001600160a01b038381166001600160a01b0319831681178455604051919092169283917f8be0079c531659141344cd1fd0a4f28419497f9722a3daafe3b4186f6b6457e09190a35050565b600080612b8c600c54612b86856134fe565b90613589565b9050600081600e54612b9e919061509b565b9050612bb26725b946ebc0b361738261365b565b84600d54612bc091906150da565b612bca91906150da565b949350505050565b606081612be081601f614da7565b1015612c1f5760405162461bcd60e51b815260206004820152600e60248201526d736c6963655f6f766572666c6f7760901b6044820152606401610c42565b612c298284614da7565b84511015612c6d5760405162461bcd60e51b8152602060048201526011602482015270736c6963655f6f75744f66426f756e647360781b6044820152606401610c42565b606082158015612c8c5760405191506000825260208201604052612cd6565b6040519150601f8416801560200281840101858101878315602002848b0101015b81831015612cc5578051835260209283019201612cad565b5050858452601f01601f1916604052505b50949350505050565b6001600160a01b038216612d3f5760405162461bcd60e51b815260206004820152602160248201527f45524332303a206275726e2066726f6d20746865207a65726f206164647265736044820152607360f81b6064820152608401610c42565b6001600160a01b03821660009081526006602052604090205481811015612db35760405162461bcd60e51b815260206004820152602260248201527f45524332303a206275726e20616d6f756e7420657863656564732062616c616e604482015261636560f01b6064820152608401610c42565b6001600160a01b0383166000908152600660205260408120838303905560088054849290612de2908490614e03565b90915550506040518281526000906001600160a01b038516906000805160206152a88339815191529060200160405180910390a3505050565b60007f00000000000000000000000000000000000000000000000000000000000000006001600160a01b0316633408e4706040518163ffffffff1660e01b815260040160206040518083038186803b158015612e7657600080fd5b505afa158015612e8a573d6000803e3d6000fd5b505050506040513d601f19601f820116820180604052508101906116dc919061515f565b6001600160a01b038216612f045760405162461bcd60e51b815260206004820152601f60248201527f45524332303a206d696e7420746f20746865207a65726f2061646472657373006044820152606401610c42565b8060086000828254612f169190614da7565b90915550506001600160a01b03821660009081526006602052604081208054839290612f43908490614da7565b90915550506040518181526001600160a01b038316906000906000805160206152a883398151915290602001611d41565b612f7c61369a565b600b805460ff191690557f5db9ee0a495bf2e6ff9c91a7834c1ba4fdd244a5e8aa4e537bd38aeae4b073aa335b604051612fb691906146dd565b60405180910390a1565b612fc86129a0565b600b805460ff191660011790557f62e78cea01bee320cd4e420270b5ea74000d11b0c9f74754ebdbfc544b05a258612fa93390565b6130056129a0565b6127de848484846136e3565b61ffff86166000908152600160205260408120805461302f90614c48565b80601f016020809104026020016040519081016040528092919081815260200182805461305b90614c48565b80156130a85780601f1061307d576101008083540402835291602001916130a8565b820191906000526020600020905b81548152906001019060200180831161308b57829003601f168201915b5050505050905080516000141561311a5760405162461bcd60e51b815260206004820152603060248201527f4c7a4170703a2064657374696e6174696f6e20636861696e206973206e6f742060448201526f61207472757374656420736f7572636560801b6064820152608401610c42565b60405162c5803160e81b81526001600160a01b037f0000000000000000000000000000000000000000000000000000000000000000169063c5803100908490613171908b9086908c908c908c908c9060040161517c565b6000604051808303818588803b15801561318a57600080fd5b505af115801561319e573d6000803e3d6000fd5b505050505050505050505050565b6000606060008060008661ffff166001600160401b038111156131d1576131d161495c565b6040519080825280601f01601f1916602001820160405280156131fb576020820181803683370190505b50905060008087516020890160008d8df191503d92508683111561321d578692505b828152826000602083013e909890975095505050505050565b60055460ff16156132525761324d84848484613709565b6127de565b8151156127de5760405162461bcd60e51b815260206004820152602660248201527f4f4654436f72653a205f61646170746572506172616d73206d7573742062652060448201526532b6b83a3c9760d11b6064820152608401610c42565b6000806000806000858060200190518101906132cc91906151d6565b955095509550955095505060006132ed6000866137e890919063ffffffff16565b9050600a8314156133d2576133038a308661384d565b60115461331b9030906001600160a01b031686612646565b601154604051633e173b2960e01b81526001600160a01b038381166004830152602482018790526044820185905290911690633e173b2990606401600060405180830381600087803b15801561337057600080fd5b505af1158015613384573d6000803e3d6000fd5b505060408051878152602081018690526001600160a01b03851693507f46300262e950f731dbfffe3324c0c1f82c87dacf5e06001dd82402a6490856ef9250015b60405180910390a26134aa565b600b83141561349f576133e68a308661384d565b6011546133fe9030906001600160a01b031686612646565b60115460405163743241bb60e11b81526001600160a01b038381166004830152602482018790529091169063e864837690604401600060405180830381600087803b15801561344c57600080fd5b505af1158015613460573d6000803e3d6000fd5b50505050806001600160a01b03167f575db1abc0eb75c754b5d7b664e03ec4de0a4b06bf9d37f9b45fc864a9fdb20e856040516133c591815260200190565b6134aa8a828661384d565b806001600160a01b03168a61ffff167f776434b505c7beb3db155c58df6c88985bf7c31730767e43ec773005059fed7a88876040516134ea929190615268565b60405180910390a350505050505050505050565b60007809392ee8e921d5d073aff322e62439fcf32d7f344649470f8f1982121561353e5760405163e608e18b60e01b815260048101839052602401610c42565b7809392ee8e921d5d073aff322e62439fcf32d7f344649470f9082131561357b576040516371f72a3160e01b815260048101839052602401610c42565b50670de0b6b3a76400000290565b6000600160ff1b8314806135a05750600160ff1b82145b156135be5760405163b3c754a360e01b815260040160405180910390fd5b600080600085126135cf57846135d4565b846000035b9150600084126135e457836135e9565b836000035b9050600061360083670de0b6b3a764000084613857565b90506001600160ff1b0381111561362d57604051637cb4bef560e01b815260048101829052602401610c42565b600019808713908613808218600114613646578261364f565b61364f8361528a565b98975050505050505050565b60008261368057811561366f576000613679565b670de0b6b3a76400005b9050610e37565b610fe761369561368f85613925565b84613a04565b613ac6565b600b5460ff166114cb5760405162461bcd60e51b815260206004820152601460248201527314185d5cd8589b194e881b9bdd081c185d5cd95960621b6044820152606401610c42565b336001600160a01b03851681146136ff576136ff85828461276a565b610f518583612cdf565b600061371483613b5e565b61ffff808716600090815260026020908152604080832093891683529290529081205491925090613746908490614da7565b9050600081116137985760405162461bcd60e51b815260206004820152601a60248201527f4c7a4170703a206d696e4761734c696d6974206e6f74207365740000000000006044820152606401610c42565b808210156114b15760405162461bcd60e51b815260206004820152601b60248201527f4c7a4170703a20676173206c696d697420697320746f6f206c6f7700000000006044820152606401610c42565b60006137f5826014614da7565b8351101561383d5760405162461bcd60e51b8152602060048201526015602482015274746f416464726573735f6f75744f66426f756e647360581b6044820152606401610c42565b500160200151600160601b900490565b6113538282612eae565b6000808060001985870985870292508281108382030391505080600014156138925783828161388857613888614e1a565b0492505050610fe7565b8381106138bc57604051631dcf306360e21b81526004810182905260248101859052604401610c42565b60008486880960026001871981018816978890046003810283188082028403028082028403028082028403028082028403028082028403029081029092039091026000889003889004909101858311909403939093029303949094049190911702949350505050565b600080821361394a5760405163309fa7dd60e11b815260048101839052602401610c42565b6000670de0b6b3a764000083126139635750600161397d565b6000199050826ec097ce7bc90715b34b9f10000000000492505b6000613992670de0b6b3a76400008505613bba565b670de0b6b3a7640000808202945090915084821d908114156139b657505002919050565b6706f05b59d3b200005b60008113156139fb57670de0b6b3a7640000828002059150671bc16d674ec8000082126139f3579384019360019190911d905b60011d6139c0565b50505002919050565b6000600160ff1b831480613a1b5750600160ff1b82145b15613a3957604051630d01a11b60e21b815260040160405180910390fd5b60008060008512613a4a5784613a4f565b846000035b915060008412613a5f5783613a64565b836000035b90506000613a728383613c99565b90506001600160ff1b03811115613a9f5760405163bf79e8d960e01b815260048101829052602401610c42565b600019808713908613808218600114613ab8578261364f565b505060000395945050505050565b600080821215613b1a5768033dd1780914b9711419821215613aea57506000919050565b613af682600003613ac6565b6ec097ce7bc90715b34b9f100000000081613b1357613b13614e1a565b0592915050565b680a688906bd8b0000008212613b465760405163e69458f960e01b815260048101839052602401610c42565b670de0b6b3a7640000604083901b04610fe781613d5b565b6000602282511015613bb25760405162461bcd60e51b815260206004820152601c60248201527f4c7a4170703a20696e76616c69642061646170746572506172616d73000000006044820152606401610c42565b506022015190565b6000600160801b8210613bda57608091821c91613bd79082614da7565b90505b600160401b8210613bf857604091821c91613bf59082614da7565b90505b6401000000008210613c1757602091821c91613c149082614da7565b90505b620100008210613c3457601091821c91613c319082614da7565b90505b6101008210613c5057600891821c91613c4d9082614da7565b90505b60108210613c6b57600491821c91613c689082614da7565b90505b60048210613c8657600291821c91613c839082614da7565b90505b600282106120d157610e37600182614da7565b60008080600019848609848602925082811083820303915050670de0b6b3a76400008110613cdd5760405163698d9a0160e11b815260048101829052602401610c42565b600080670de0b6b3a76400008688099150506706f05b59d3b1ffff811182613d175780670de0b6b3a7640000850401945050505050610e37565b620400008285030493909111909103600160ee1b02919091177faccb18165bd6fe31ae1cf318dc5b51eee0e1ba569b88cd74c1773b91fac106690201905092915050565b600160bf1b6001603f1b821615613d7b5768016a09e667f3bcc9090260401c5b6001603e1b821615613d96576801306fe0a31b7152df0260401c5b6001603d1b821615613db1576801172b83c7d517adce0260401c5b6001603c1b821615613dcc5768010b5586cf9890f62a0260401c5b6001603b1b821615613de7576801059b0d31585743ae0260401c5b6001603a1b821615613e0257680102c9a3e778060ee70260401c5b600160391b821615613e1d5768010163da9fb33356d80260401c5b600160381b821615613e3857680100b1afa5abcbed610260401c5b6680000000000000821615613e565768010058c86da1c09ea20260401c5b6640000000000000821615613e74576801002c605e2e8cec500260401c5b6620000000000000821615613e9257680100162f3904051fa10260401c5b6610000000000000821615613eb0576801000b175effdc76ba0260401c5b6608000000000000821615613ece57680100058ba01fb9f96d0260401c5b6604000000000000821615613eec5768010002c5cc37da94920260401c5b6602000000000000821615613f0a576801000162e525ee05470260401c5b6601000000000000821615613f285768010000b17255775c040260401c5b65800000000000821615613f45576801000058b91b5bc9ae0260401c5b65400000000000821615613f6257680100002c5c89d5ec6d0260401c5b65200000000000821615613f7f5768010000162e43f4f8310260401c5b65100000000000821615613f9c57680100000b1721bcfc9a0260401c5b65080000000000821615613fb95768010000058b90cf1e6e0260401c5b65040000000000821615613fd6576801000002c5c863b73f0260401c5b65020000000000821615613ff357680100000162e430e5a20260401c5b65010000000000821615614010576801000000b1721835510260401c5b64800000000082161561402c57680100000058b90c0b490260401c5b6440000000008216156140485768010000002c5c8601cc0260401c5b642000000000821615614064576801000000162e42fff00260401c5b6410000000008216156140805768010000000b17217fbb0260401c5b64080000000082161561409c576801000000058b90bfce0260401c5b6404000000008216156140b857680100000002c5c85fe30260401c5b6402000000008216156140d45768010000000162e42ff10260401c5b6401000000008216156140f057680100000000b17217f80260401c5b638000000082161561410b5768010000000058b90bfc0260401c5b6340000000821615614126576801000000002c5c85fe0260401c5b632000000082161561414157680100000000162e42ff0260401c5b631000000082161561415c576801000000000b17217f0260401c5b630800000082161561417757680100000000058b90c00260401c5b63040000008216156141925768010000000002c5c8600260401c5b63020000008216156141ad576801000000000162e4300260401c5b63010000008216156141c85768010000000000b172180260401c5b628000008216156141e2576801000000000058b90c0260401c5b624000008216156141fc57680100000000002c5c860260401c5b622000008216156142165768010000000000162e430260401c5b6210000082161561423057680100000000000b17210260401c5b6208000082161561424a5768010000000000058b910260401c5b62040000821615614264576801000000000002c5c80260401c5b6202000082161561427e57680100000000000162e40260401c5b62010000821615614298576801000000000000b1720260401c5b6180008216156142b157680100000000000058b90260401c5b6140008216156142ca5768010000000000002c5d0260401c5b6120008216156142e3576801000000000000162e0260401c5b6110008216156142fc5768010000000000000b170260401c5b610800821615614315576801000000000000058c0260401c5b61040082161561432e57680100000000000002c60260401c5b61020082161561434757680100000000000001630260401c5b61010082161561436057680100000000000000b10260401c5b608082161561437857680100000000000000590260401c5b6040821615614390576801000000000000002c0260401c5b60208216156143a857680100000000000000160260401c5b60108216156143c0576801000000000000000b0260401c5b60088216156143d857680100000000000000060260401c5b60048216156143f057680100000000000000030260401c5b600282161561440857680100000000000000010260401c5b600182161561442057680100000000000000010260401c5b670de0b6b3a76400000260409190911c60bf031c90565b82805461444390614c48565b90600052602060002090601f01602090048101928261446557600085556144ab565b82601f1061447e57805160ff19168380011785556144ab565b828001600101855582156144ab579182015b828111156144ab578251825591602001919060010190614490565b506144b792915061452f565b5090565b8280546144c790614c48565b90600052602060002090601f0160209004810192826144e957600085556144ab565b82601f106145025782800160ff198235161785556144ab565b828001600101855582156144ab579182015b828111156144ab578235825591602001919060010190614514565b5b808211156144b75760008155600101614530565b61ffff811681146120eb57600080fd5b60008083601f84011261456657600080fd5b5081356001600160401b0381111561457d57600080fd5b60208301915083602082850101111561459557600080fd5b9250929050565b80356001600160401b03811681146120d157600080fd5b600080600080600080608087890312156145cc57600080fd5b86356145d781614544565b955060208701356001600160401b03808211156145f357600080fd5b6145ff8a838b01614554565b909750955085915061461360408a0161459c565b9450606089013591508082111561462957600080fd5b5061463689828a01614554565b979a9699509497509295939492505050565b60006020828403121561465a57600080fd5b81356001600160e01b031981168114610fe757600080fd5b60005b8381101561468d578181015183820152602001614675565b838111156127de5750506000910152565b600081518084526146b6816020860160208601614672565b601f01601f19169290920160200192915050565b602081526000610fe7602083018461469e565b6001600160a01b0391909116815260200190565b60006020828403121561470357600080fd5b8135610fe781614544565b6001600160a01b03811681146120eb57600080fd5b6000806040838503121561473657600080fd5b82356147418161470e565b946020939093013593505050565b60008060006060848603121561476457600080fd5b833561476f8161470e565b9250602084013561477f8161470e565b929592945050506040919091013590565b803580151581146120d157600080fd5b600080600080600080600060a0888a0312156147bb57600080fd5b87356147c681614544565b965060208801356001600160401b03808211156147e257600080fd5b6147ee8b838c01614554565b909850965060408a0135955086915061480960608b01614790565b945060808a013591508082111561481f57600080fd5b5061482c8a828b01614554565b989b979a50959850939692959293505050565b60008060006040848603121561485457600080fd5b833561485f81614544565b925060208401356001600160401b0381111561487a57600080fd5b61488686828701614554565b9497909650939450505050565b600080600080600080600080600060e08a8c0312156148b157600080fd5b89356148bc8161470e565b985060208a01356148cc81614544565b975060408a01356001600160401b03808211156148e857600080fd5b6148f48d838e01614554565b909950975060608c0135965060808c013591506149108261470e565b90945060a08b0135906149228261470e565b90935060c08b0135908082111561493857600080fd5b506149458c828d01614554565b915080935050809150509295985092959850929598565b634e487b7160e01b600052604160045260246000fd5b604051601f8201601f191681016001600160401b038111828210171561499a5761499a61495c565b604052919050565b60006001600160401b038211156149bb576149bb61495c565b50601f01601f191660200190565b6000806000606084860312156149de57600080fd5b83356149e981614544565b925060208401356001600160401b03811115614a0457600080fd5b8401601f81018613614a1557600080fd5b8035614a28614a23826149a2565b614972565b818152876020838501011115614a3d57600080fd5b81602084016020830137600060208383010152809450505050614a626040850161459c565b90509250925092565b600060208284031215614a7d57600080fd5b8135610fe78161470e565b600060208284031215614a9a57600080fd5b5035919050565b60008060408385031215614ab457600080fd5b8235614abf81614544565b91506020830135614acf81614544565b809150509250929050565b600080600080600060808688031215614af257600080fd5b8535614afd81614544565b94506020860135614b0d81614544565b93506040860135925060608601356001600160401b03811115614b2f57600080fd5b614b3b88828901614554565b969995985093965092949392505050565b60008060408385031215614b5f57600080fd5b8235614b6a8161470e565b91506020830135614acf8161470e565b600080600060608486031215614b8f57600080fd5b8335614b9a81614544565b9250602084013561477f81614544565b600060208284031215614bbc57600080fd5b610fe782614790565b60008060008060808587031215614bdb57600080fd5b8435614be681614544565b93506020850135614bf681614544565b92506040850135614c068161470e565b9396929550929360600135925050565b60008060008060808587031215614c2c57600080fd5b5050823594602084013594506040840135936060013592509050565b600181811c90821680614c5c57607f821691505b60208210811415614c7d57634e487b7160e01b600052602260045260246000fd5b50919050565b8183823760009101908152919050565b60609190911b6001600160601b031916815260140190565b81835281816020850137506000828201602090810191909152601f909101601f19169091010190565b61ffff86168152608060208201526000614cf1608083018761469e565b8281036040840152614d04818688614cab565b9150508260608301529695505050505050565b61ffff871681526001600160a01b038616602082015260a060408201819052600090614d459083018761469e565b85151560608401528281036080840152614d60818587614cab565b9998505050505050505050565b60008060408385031215614d8057600080fd5b505080516020909101519092909150565b634e487b7160e01b600052601160045260246000fd5b60008219821115614dba57614dba614d91565b500190565b61ffff84168152604060208201526000612223604083018486614cab565b6020808252600c908201526b1d5b985d5d1a1bdc9a5e995960a21b604082015260600190565b600082821015614e1557614e15614d91565b500390565b634e487b7160e01b600052601260045260246000fd5b600082614e4d57634e487b7160e01b600052601260045260246000fd5b500490565b8284823760609190911b6001600160601b0319169101908152601401919050565b600061ffff808816835280871660208401525084604083015260806060830152614ea1608083018486614cab565b979650505050505050565b61ffff86168152608060208201526000614eca608083018688614cab565b6001600160401b0394909416604083015250606001529392505050565b600082601f830112614ef857600080fd5b8151614f06614a23826149a2565b818152846020838601011115614f1b57600080fd5b612bca826020830160208701614672565b600060208284031215614f3e57600080fd5b81516001600160401b03811115614f5457600080fd5b612bca84828501614ee7565b61ffff8716815260c060208201526000614f7d60c083018861469e565b8281036040840152614f8f818861469e565b60608401969096525050608081019290925260a0909101529392505050565b60008251614fc0818460208701614672565b9190910192915050565b61ffff85168152608060208201526000614fe7608083018661469e565b6001600160401b03851660408401528281036060840152614ea1818561469e565b61ffff8616815260a06020820152600061502560a083018761469e565b6001600160401b03861660408401528281036060840152615046818661469e565b9050828103608084015261364f818561469e565b61ffff85168152608060208201526000615077608083018661469e565b8281036040840152615089818661469e565b91505082606083015295945050505050565b60008083128015600160ff1b8501841216156150b9576150b9614d91565b6001600160ff1b03840183138116156150d4576150d4614d91565b50500390565b60006001600160ff1b038184138284138082168684048611161561510057615100614d91565b600160ff1b600087128281168783058912161561511f5761511f614d91565b6000871292508782058712848416161561513b5761513b614d91565b8785058712818416161561515157615151614d91565b505050929093029392505050565b60006020828403121561517157600080fd5b8151610fe781614544565b61ffff8716815260c06020820152600061519960c083018861469e565b82810360408401526151ab818861469e565b6001600160a01b0387811660608601528616608085015283810360a08501529050614d60818561469e565b60008060008060008060c087890312156151ef57600080fd5b86516151fa81614544565b60208801519096506001600160401b038082111561521757600080fd5b6152238a838b01614ee7565b9650604089015191508082111561523957600080fd5b5061524689828a01614ee7565b945050606087015192506080870151915060a087015190509295509295509295565b60408152600061527b604083018561469e565b90508260208301529392505050565b6000600160ff1b8214156152a0576152a0614d91565b506000039056feddf252ad1be2c89b69c2b068fc378daa952ba7f163c4a11628f55a4df523b3efa2646970667358221220a26f4016dd653b1f881e5696f887b23974771409e4b6db3bec3eea8081a60da164736f6c63430008090033",
  "devdoc": {
    "details": "Latest size: 17.663  KiBEmissions calculator: https://www.desmos.com/calculator/1fa0zen2ut",
    "kind": "dev",
    "methods": {
      "allowance(address,address)": {
        "details": "See {IERC20-allowance}."
      },
      "approve(address,uint256)": {
        "details": "See {IERC20-approve}. NOTE: If `amount` is the maximum `uint256`, the allowance is not updated on `transferFrom`. This is semantically equivalent to an infinite approval. Requirements: - `spender` cannot be the zero address."
      },
      "availableForWeek(uint256)": {
        "params": {
          "timestamp": "the moment in time to emit for"
        }
      },
      "balanceOf(address)": {
        "details": "See {IERC20-balanceOf}."
      },
      "circulatingSupply()": {
        "details": "returns the circulating amount of tokens on current chain"
      },
      "constructor": {
        "details": "The initial supply of 100M is not minted here as we have the wrap method",
        "params": {
          "_advisors": "address for the advisors tokens",
          "_dao": "address for the DAO tokens",
          "_governanceChainId": "LayerZero governance chain identifier",
          "_lbp": "address for the LBP tokens",
          "_lzEndpoint": "the layer zero address endpoint deployed on the current chain",
          "_otc": "address for the OTC tokens",
          "_seed": "address for the seed tokens",
          "_team": "address for the team tokens"
        }
      },
      "decreaseAllowance(address,uint256)": {
        "details": "Atomically decreases the allowance granted to `spender` by the caller. This is an alternative to {approve} that can be used as a mitigation for problems described in {IERC20-approve}. Emits an {Approval} event indicating the updated allowance. Requirements: - `spender` cannot be the zero address. - `spender` must have allowance for the caller of at least `subtractedValue`."
      },
      "emitForWeek(uint256)": {
        "details": "formula: b(xe^(c-f(x))) where f(x)=x/a",
        "params": {
          "timestamp": "the moment in time to emit for"
        }
      },
      "estimateSendFee(uint16,bytes,uint256,bool,bytes)": {
        "details": "estimate send token `_tokenId` to (`_dstChainId`, `_toAddress`) _dstChainId - L0 defined chain id to send tokens too _toAddress - dynamic bytes array which contains the address to whom you are sending tokens to on the dstChain _amount - amount of the tokens to transfer _useZro - indicates to use zro to pay L0 fees _adapterParam - flexible bytes array to indicate messaging adapter services in L0"
      },
      "extractTAP(address,uint256)": {
        "params": {
          "_amount": "TAP amount",
          "_to": "the receiver address"
        }
      },
      "getVotingPower(uint256,uint256,uint256,uint256)": {
        "details": "cannot be called on Optimism; use VeTap directly",
        "params": {
          "_amount": "the amount of TAP to lock for voting power",
          "_time": "lock duration"
        }
      },
      "increaseAllowance(address,uint256)": {
        "details": "Atomically increases the allowance granted to `spender` by the caller. This is an alternative to {approve} that can be used as a mitigation for problems described in {IERC20-approve}. Emits an {Approval} event indicating the updated allowance. Requirements: - `spender` cannot be the zero address."
      },
      "name()": {
        "details": "Returns the name of the token."
      },
      "owner()": {
        "details": "Returns the address of the current owner."
      },
      "paused()": {
        "details": "Returns true if the contract is paused, and false otherwise."
      },
      "removeTAP(address,uint256)": {
        "params": {
          "_amount": "TAP amount",
          "_from": "the address to burn from"
        }
      },
      "renounceOwnership()": {
        "details": "Leaves the contract without owner. It will not be possible to call `onlyOwner` functions anymore. Can only be called by the current owner. NOTE: Renouncing ownership will leave the contract without an owner, thereby removing any functionality that is only available to the owner."
      },
      "sendFrom(address,uint16,bytes,uint256,address,address,bytes)": {
        "details": "send `_amount` amount of token to (`_dstChainId`, `_toAddress`) from `_from` `_from` the owner of token `_dstChainId` the destination chain identifier `_toAddress` can be any size depending on the `dstChainId`. `_amount` the quantity of tokens in wei `_refundAddress` the address LayerZero refunds if too much message fee is sent `_zroPaymentAddress` set to address(0x0) if not paying in ZRO (LayerZero Token) `_adapterParams` is a flexible bytes array to indicate messaging adapter services"
      },
      "setAParam(int256)": {
        "params": {
          "val": "the new value"
        }
      },
      "setBParam(int256)": {
        "params": {
          "val": "the new value"
        }
      },
      "setCParam(int256)": {
        "params": {
          "val": "the new value"
        }
      },
      "setGovernanceChainIdentifier(uint16)": {
        "params": {
          "_identifier": "LayerZero chain identifier"
        }
      },
      "setMinter(address)": {
        "params": {
          "_minter": "the new address"
        }
      },
      "setVeTap(address)": {
        "params": {
          "addr": "the VotingEscrow address"
        }
      },
      "symbol()": {
        "details": "Returns the symbol of the token, usually a shorter version of the name."
      },
      "totalSupply()": {
        "details": "See {IERC20-totalSupply}."
      },
      "transfer(address,uint256)": {
        "details": "See {IERC20-transfer}. Requirements: - `to` cannot be the zero address. - the caller must have a balance of at least `amount`."
      },
      "transferFrom(address,address,uint256)": {
        "details": "See {IERC20-transferFrom}. Emits an {Approval} event indicating the updated allowance. This is not required by the EIP. See the note at the beginning of {ERC20}. NOTE: Does not update the allowance if the current allowance is the maximum `uint256`. Requirements: - `from` and `to` cannot be the zero address. - `from` must have a balance of at least `amount`. - the caller must have allowance for ``from``'s tokens of at least `amount`."
      },
      "transferOwnership(address)": {
        "details": "Transfers ownership of the contract to a new account (`newOwner`). Can only be called by the current owner."
      }
    },
    "stateVariables": {
      "a_param": {
        "details": "formula: b(xe^(c-f(x))) where f(x)=x/a"
      },
      "b_param": {
        "details": "formula: b(xe^(c-f(x))) where f(x)=x/a"
      },
      "c_param": {
        "details": "formula: b(xe^(c-f(x))) where f(x)=x/a"
      },
      "emissionsStartTime": {
        "details": "initialized in the constructor with block.timestamp"
      },
      "mintedInWeek": {
        "details": "week is computed using (timestamp - emissionStartTime) / WEEK"
      },
      "veTap": {
        "details": "veTap is deployed only on Optimism"
      }
    },
    "title": "Tapioca OFT token",
    "version": 1
  },
  "userdoc": {
    "errors": {
      "PRBMathSD59x18__DivInputTooSmall()": [
        {
          "notice": "Emitted when one of the inputs is MIN_SD59x18."
        }
      ],
      "PRBMathSD59x18__DivOverflow(uint256)": [
        {
          "notice": "Emitted when one of the intermediary unsigned results overflows SD59x18."
        }
      ],
      "PRBMathSD59x18__Exp2InputTooBig(int256)": [
        {
          "notice": "Emitted when the input is greater than 192."
        }
      ],
      "PRBMathSD59x18__FromIntOverflow(int256)": [
        {
          "notice": "Emitted when converting a basic integer to the fixed-point format overflows SD59x18."
        }
      ],
      "PRBMathSD59x18__FromIntUnderflow(int256)": [
        {
          "notice": "Emitted when converting a basic integer to the fixed-point format underflows SD59x18."
        }
      ],
      "PRBMathSD59x18__LogInputTooSmall(int256)": [
        {
          "notice": "Emitted when the input is less than or equal to zero."
        }
      ],
      "PRBMathSD59x18__MulInputTooSmall()": [
        {
          "notice": "Emitted when one of the inputs is MIN_SD59x18."
        }
      ],
      "PRBMathSD59x18__MulOverflow(uint256)": [
        {
          "notice": "Emitted when the intermediary absolute result overflows SD59x18."
        }
      ],
      "PRBMath__MulDivFixedPointOverflow(uint256)": [
        {
          "notice": "Emitted when the result overflows uint256."
        }
      ],
      "PRBMath__MulDivOverflow(uint256,uint256)": [
        {
          "notice": "Emitted when the result overflows uint256."
        }
      ]
    },
    "events": {
      "AParamUpdated(int256,int256)": {
        "notice": "event emitted when the A parameter of the emission formula is updated"
      },
      "BParamUpdated(int256,int256)": {
        "notice": "event emitted when the B parameter of the emission formula is updated"
      },
      "Burned(address,address,uint256)": {
        "notice": "event emitted when new TAP is burned"
      },
      "CParamUpdated(int256,int256)": {
        "notice": "event emitted when the C parameter of the emission formula is updated"
      },
      "GovernanceChainIdentifierUpdated(uint16,uint16)": {
        "notice": "event emitted when the governance chain identifier is updated"
      },
      "IncreasedVeAmount(address,uint256)": {
        "notice": "event emitted when TAP amount from veTap is increased"
      },
      "Minted(address,address,uint256)": {
        "notice": "event emitted when new TAP is minted"
      },
      "MinterUpdated(address,address)": {
        "notice": "event emitted when a new minter is set"
      },
      "UpdateMiningParameters(uint256,uint256,uint256)": {
        "notice": "event emitted when mining parameters are updated"
      },
      "VeLockedFor(address,uint256,uint256)": {
        "notice": "event emitted when TAP is locked for voting"
      },
      "VeTapUpdated(address,address)": {
        "notice": "event emitted when veTap address is updated"
      }
    },
    "kind": "user",
    "methods": {
      "WEEK()": {
        "notice": "seconds in a week"
      },
      "a_param()": {
        "notice": "the a parameter used in the emission function; can be changed by governance"
      },
      "availableForWeek(uint256)": {
        "notice": "returns available emissions for a specific timestamp"
      },
      "b_param()": {
        "notice": "the b parameter used in the emission function; can be changed by governance"
      },
      "c_param()": {
        "notice": "the c parameter used in the emission function; can be changed by governance"
      },
      "constructor": {
        "notice": "Creates a new TAP OFT type token"
      },
      "decimals()": {
        "notice": "returns token's decimals"
      },
      "emissionsStartTime()": {
        "notice": "starts time for emissions"
      },
      "emitForWeek(uint256)": {
        "notice": "-- Write methods --returns the available emissions for a specific week"
      },
      "extractTAP(address,uint256)": {
        "notice": "extracts from the minted TAP"
      },
      "getVotingPower(uint256,uint256,uint256,uint256)": {
        "notice": "lock TapOFT and get veTap on Optimism"
      },
      "governanceChainIdentifier()": {
        "notice": "LayerZero governance chain identifier"
      },
      "mintedInWeek(int256)": {
        "notice": "returns the amount minted for a specific week"
      },
      "minter()": {
        "notice": "returns the minter address"
      },
      "removeTAP(address,uint256)": {
        "notice": "burns TAP"
      },
      "setAParam(int256)": {
        "notice": "sets a new value for parameter"
      },
      "setBParam(int256)": {
        "notice": "sets a new value for parameter"
      },
      "setCParam(int256)": {
        "notice": "sets a new value for parameter"
      },
      "setGovernanceChainIdentifier(uint16)": {
        "notice": "-- Owner methods --sets the governance chain identifier"
      },
      "setMinter(address)": {
        "notice": "sets a new minter address"
      },
      "setVeTap(address)": {
        "notice": "sets the VotingEscrow address"
      },
      "veTap()": {
        "notice": "returns the voting escrow address"
      }
    },
    "notice": "OFT compatible TAP token",
    "version": 1
  },
  "storageLayout": {
    "storage": [
      {
        "astId": 596,
        "contract": "contracts/tokens/TapOFT.sol:TapOFT",
        "label": "_owner",
        "offset": 0,
        "slot": "0",
        "type": "t_address"
      },
      {
        "astId": 21641,
        "contract": "contracts/tokens/TapOFT.sol:TapOFT",
        "label": "trustedRemoteLookup",
        "offset": 0,
        "slot": "1",
        "type": "t_mapping(t_uint16,t_bytes_storage)"
      },
      {
        "astId": 21647,
        "contract": "contracts/tokens/TapOFT.sol:TapOFT",
        "label": "minDstGasLookup",
        "offset": 0,
        "slot": "2",
        "type": "t_mapping(t_uint16,t_mapping(t_uint16,t_uint256))"
      },
      {
        "astId": 21649,
        "contract": "contracts/tokens/TapOFT.sol:TapOFT",
        "label": "precrime",
        "offset": 0,
        "slot": "3",
        "type": "t_address"
      },
      {
        "astId": 22134,
        "contract": "contracts/tokens/TapOFT.sol:TapOFT",
        "label": "failedMessages",
        "offset": 0,
        "slot": "4",
        "type": "t_mapping(t_uint16,t_mapping(t_bytes_memory_ptr,t_mapping(t_uint64,t_bytes32)))"
      },
      {
        "astId": 22554,
        "contract": "contracts/tokens/TapOFT.sol:TapOFT",
        "label": "useCustomAdapterParams",
        "offset": 0,
        "slot": "5",
        "type": "t_bool"
      },
      {
        "astId": 945,
        "contract": "contracts/tokens/TapOFT.sol:TapOFT",
        "label": "_balances",
        "offset": 0,
        "slot": "6",
        "type": "t_mapping(t_address,t_uint256)"
      },
      {
        "astId": 951,
        "contract": "contracts/tokens/TapOFT.sol:TapOFT",
        "label": "_allowances",
        "offset": 0,
        "slot": "7",
        "type": "t_mapping(t_address,t_mapping(t_address,t_uint256))"
      },
      {
        "astId": 953,
        "contract": "contracts/tokens/TapOFT.sol:TapOFT",
        "label": "_totalSupply",
        "offset": 0,
        "slot": "8",
        "type": "t_uint256"
      },
      {
        "astId": 955,
        "contract": "contracts/tokens/TapOFT.sol:TapOFT",
        "label": "_name",
        "offset": 0,
        "slot": "9",
        "type": "t_string_storage"
      },
      {
        "astId": 957,
        "contract": "contracts/tokens/TapOFT.sol:TapOFT",
        "label": "_symbol",
        "offset": 0,
        "slot": "10",
        "type": "t_string_storage"
      },
      {
        "astId": 799,
        "contract": "contracts/tokens/TapOFT.sol:TapOFT",
        "label": "_paused",
        "offset": 0,
        "slot": "11",
        "type": "t_bool"
      },
      {
        "astId": 7469,
        "contract": "contracts/tokens/TapOFT.sol:TapOFT",
        "label": "a_param",
        "offset": 0,
        "slot": "12",
        "type": "t_int256"
      },
      {
        "astId": 7473,
        "contract": "contracts/tokens/TapOFT.sol:TapOFT",
        "label": "b_param",
        "offset": 0,
        "slot": "13",
        "type": "t_int256"
      },
      {
        "astId": 7479,
        "contract": "contracts/tokens/TapOFT.sol:TapOFT",
        "label": "c_param",
        "offset": 0,
        "slot": "14",
        "type": "t_int256"
      },
      {
        "astId": 7491,
        "contract": "contracts/tokens/TapOFT.sol:TapOFT",
        "label": "mintedInWeek",
        "offset": 0,
        "slot": "15",
        "type": "t_mapping(t_int256,t_uint256)"
      },
      {
        "astId": 7494,
        "contract": "contracts/tokens/TapOFT.sol:TapOFT",
        "label": "minter",
        "offset": 0,
        "slot": "16",
        "type": "t_address"
      },
      {
        "astId": 7497,
        "contract": "contracts/tokens/TapOFT.sol:TapOFT",
        "label": "veTap",
        "offset": 0,
        "slot": "17",
        "type": "t_address"
      },
      {
        "astId": 7500,
        "contract": "contracts/tokens/TapOFT.sol:TapOFT",
        "label": "governanceChainIdentifier",
        "offset": 20,
        "slot": "17",
        "type": "t_uint16"
      }
    ],
    "types": {
      "t_address": {
        "encoding": "inplace",
        "label": "address",
        "numberOfBytes": "20"
      },
      "t_bool": {
        "encoding": "inplace",
        "label": "bool",
        "numberOfBytes": "1"
      },
      "t_bytes32": {
        "encoding": "inplace",
        "label": "bytes32",
        "numberOfBytes": "32"
      },
      "t_bytes_memory_ptr": {
        "encoding": "bytes",
        "label": "bytes",
        "numberOfBytes": "32"
      },
      "t_bytes_storage": {
        "encoding": "bytes",
        "label": "bytes",
        "numberOfBytes": "32"
      },
      "t_int256": {
        "encoding": "inplace",
        "label": "int256",
        "numberOfBytes": "32"
      },
      "t_mapping(t_address,t_mapping(t_address,t_uint256))": {
        "encoding": "mapping",
        "key": "t_address",
        "label": "mapping(address => mapping(address => uint256))",
        "numberOfBytes": "32",
        "value": "t_mapping(t_address,t_uint256)"
      },
      "t_mapping(t_address,t_uint256)": {
        "encoding": "mapping",
        "key": "t_address",
        "label": "mapping(address => uint256)",
        "numberOfBytes": "32",
        "value": "t_uint256"
      },
      "t_mapping(t_bytes_memory_ptr,t_mapping(t_uint64,t_bytes32))": {
        "encoding": "mapping",
        "key": "t_bytes_memory_ptr",
        "label": "mapping(bytes => mapping(uint64 => bytes32))",
        "numberOfBytes": "32",
        "value": "t_mapping(t_uint64,t_bytes32)"
      },
      "t_mapping(t_int256,t_uint256)": {
        "encoding": "mapping",
        "key": "t_int256",
        "label": "mapping(int256 => uint256)",
        "numberOfBytes": "32",
        "value": "t_uint256"
      },
      "t_mapping(t_uint16,t_bytes_storage)": {
        "encoding": "mapping",
        "key": "t_uint16",
        "label": "mapping(uint16 => bytes)",
        "numberOfBytes": "32",
        "value": "t_bytes_storage"
      },
      "t_mapping(t_uint16,t_mapping(t_bytes_memory_ptr,t_mapping(t_uint64,t_bytes32)))": {
        "encoding": "mapping",
        "key": "t_uint16",
        "label": "mapping(uint16 => mapping(bytes => mapping(uint64 => bytes32)))",
        "numberOfBytes": "32",
        "value": "t_mapping(t_bytes_memory_ptr,t_mapping(t_uint64,t_bytes32))"
      },
      "t_mapping(t_uint16,t_mapping(t_uint16,t_uint256))": {
        "encoding": "mapping",
        "key": "t_uint16",
        "label": "mapping(uint16 => mapping(uint16 => uint256))",
        "numberOfBytes": "32",
        "value": "t_mapping(t_uint16,t_uint256)"
      },
      "t_mapping(t_uint16,t_uint256)": {
        "encoding": "mapping",
        "key": "t_uint16",
        "label": "mapping(uint16 => uint256)",
        "numberOfBytes": "32",
        "value": "t_uint256"
      },
      "t_mapping(t_uint64,t_bytes32)": {
        "encoding": "mapping",
        "key": "t_uint64",
        "label": "mapping(uint64 => bytes32)",
        "numberOfBytes": "32",
        "value": "t_bytes32"
      },
      "t_string_storage": {
        "encoding": "bytes",
        "label": "string",
        "numberOfBytes": "32"
      },
      "t_uint16": {
        "encoding": "inplace",
        "label": "uint16",
        "numberOfBytes": "2"
      },
      "t_uint256": {
        "encoding": "inplace",
        "label": "uint256",
        "numberOfBytes": "32"
      },
      "t_uint64": {
        "encoding": "inplace",
        "label": "uint64",
        "numberOfBytes": "8"
      }
    }
  }
}