{
  "address": "0xA4D1077F9A5bc94ddE22B3d01807329De9543607",
  "abi": [
    {
      "inputs": [
        {
          "internalType": "address",
          "name": "_lzEndpoint",
          "type": "address"
        },
        {
          "internalType": "address",
          "name": "_contributors",
          "type": "address"
        },
        {
          "internalType": "address",
          "name": "_investors",
          "type": "address"
        },
        {
          "internalType": "address",
          "name": "_lbp",
          "type": "address"
        },
        {
          "internalType": "address",
          "name": "_airdrop",
          "type": "address"
        },
        {
          "internalType": "uint16",
          "name": "_governanceChainId",
          "type": "uint16"
        }
      ],
      "stateMutability": "nonpayable",
      "type": "constructor"
    },
    {
      "anonymous": false,
      "inputs": [
        {
          "indexed": true,
          "internalType": "address",
          "name": "owner",
          "type": "address"
        },
        {
          "indexed": true,
          "internalType": "address",
          "name": "spender",
          "type": "address"
        },
        {
          "indexed": false,
          "internalType": "uint256",
          "name": "value",
          "type": "uint256"
        }
      ],
      "name": "Approval",
      "type": "event"
    },
    {
      "anonymous": false,
      "inputs": [
        {
          "indexed": true,
          "internalType": "address",
          "name": "_from",
          "type": "address"
        },
        {
          "indexed": false,
          "internalType": "uint256",
          "name": "_amount",
          "type": "uint256"
        }
      ],
      "name": "Burned",
      "type": "event"
    },
    {
      "anonymous": false,
      "inputs": [
        {
          "indexed": false,
          "internalType": "uint256",
          "name": "_old",
          "type": "uint256"
        },
        {
          "indexed": false,
          "internalType": "uint256",
          "name": "_new",
          "type": "uint256"
        }
      ],
      "name": "GovernanceChainIdentifierUpdated",
      "type": "event"
    },
    {
      "anonymous": false,
      "inputs": [
        {
          "indexed": false,
          "internalType": "uint16",
          "name": "_srcChainId",
          "type": "uint16"
        },
        {
          "indexed": false,
          "internalType": "bytes",
          "name": "_srcAddress",
          "type": "bytes"
        },
        {
          "indexed": false,
          "internalType": "uint64",
          "name": "_nonce",
          "type": "uint64"
        },
        {
          "indexed": false,
          "internalType": "bytes",
          "name": "_payload",
          "type": "bytes"
        },
        {
          "indexed": false,
          "internalType": "bytes",
          "name": "_reason",
          "type": "bytes"
        }
      ],
      "name": "MessageFailed",
      "type": "event"
    },
    {
      "anonymous": false,
      "inputs": [
        {
          "indexed": true,
          "internalType": "address",
          "name": "_by",
          "type": "address"
        },
        {
          "indexed": true,
          "internalType": "address",
          "name": "_to",
          "type": "address"
        },
        {
          "indexed": false,
          "internalType": "uint256",
          "name": "_amount",
          "type": "uint256"
        }
      ],
      "name": "Minted",
      "type": "event"
    },
    {
      "anonymous": false,
      "inputs": [
        {
          "indexed": true,
          "internalType": "address",
          "name": "_old",
          "type": "address"
        },
        {
          "indexed": true,
          "internalType": "address",
          "name": "_new",
          "type": "address"
        }
      ],
      "name": "MinterUpdated",
      "type": "event"
    },
    {
      "anonymous": false,
      "inputs": [
        {
          "indexed": true,
          "internalType": "address",
          "name": "previousOwner",
          "type": "address"
        },
        {
          "indexed": true,
          "internalType": "address",
          "name": "newOwner",
          "type": "address"
        }
      ],
      "name": "OwnershipTransferred",
      "type": "event"
    },
    {
      "anonymous": false,
      "inputs": [
        {
          "indexed": false,
          "internalType": "address",
          "name": "account",
          "type": "address"
        }
      ],
      "name": "Paused",
      "type": "event"
    },
    {
      "anonymous": false,
      "inputs": [
        {
          "indexed": true,
          "internalType": "uint16",
          "name": "_srcChainId",
          "type": "uint16"
        },
        {
          "indexed": true,
          "internalType": "address",
          "name": "_to",
          "type": "address"
        },
        {
          "indexed": false,
          "internalType": "uint256",
          "name": "_amount",
          "type": "uint256"
        }
      ],
      "name": "ReceiveFromChain",
      "type": "event"
    },
    {
      "anonymous": false,
      "inputs": [
        {
          "indexed": false,
          "internalType": "uint16",
          "name": "_srcChainId",
          "type": "uint16"
        },
        {
          "indexed": false,
          "internalType": "bytes",
          "name": "_srcAddress",
          "type": "bytes"
        },
        {
          "indexed": false,
          "internalType": "uint64",
          "name": "_nonce",
          "type": "uint64"
        },
        {
          "indexed": false,
          "internalType": "bytes32",
          "name": "_payloadHash",
          "type": "bytes32"
        }
      ],
      "name": "RetryMessageSuccess",
      "type": "event"
    },
    {
      "anonymous": false,
      "inputs": [
        {
          "indexed": true,
          "internalType": "uint16",
          "name": "_dstChainId",
          "type": "uint16"
        },
        {
          "indexed": true,
          "internalType": "address",
          "name": "_from",
          "type": "address"
        },
        {
          "indexed": false,
          "internalType": "bytes",
          "name": "_toAddress",
          "type": "bytes"
        },
        {
          "indexed": false,
          "internalType": "uint256",
          "name": "_amount",
          "type": "uint256"
        }
      ],
      "name": "SendToChain",
      "type": "event"
    },
    {
      "anonymous": false,
      "inputs": [
        {
          "indexed": false,
          "internalType": "uint16",
          "name": "_dstChainId",
          "type": "uint16"
        },
        {
          "indexed": false,
          "internalType": "uint16",
          "name": "_type",
          "type": "uint16"
        },
        {
          "indexed": false,
          "internalType": "uint256",
          "name": "_minDstGas",
          "type": "uint256"
        }
      ],
      "name": "SetMinDstGas",
      "type": "event"
    },
    {
      "anonymous": false,
      "inputs": [
        {
          "indexed": false,
          "internalType": "address",
          "name": "precrime",
          "type": "address"
        }
      ],
      "name": "SetPrecrime",
      "type": "event"
    },
    {
      "anonymous": false,
      "inputs": [
        {
          "indexed": false,
          "internalType": "uint16",
          "name": "_remoteChainId",
          "type": "uint16"
        },
        {
          "indexed": false,
          "internalType": "bytes",
          "name": "_path",
          "type": "bytes"
        }
      ],
      "name": "SetTrustedRemote",
      "type": "event"
    },
    {
      "anonymous": false,
      "inputs": [
        {
          "indexed": false,
          "internalType": "uint16",
          "name": "_remoteChainId",
          "type": "uint16"
        },
        {
          "indexed": false,
          "internalType": "bytes",
          "name": "_remoteAddress",
          "type": "bytes"
        }
      ],
      "name": "SetTrustedRemoteAddress",
      "type": "event"
    },
    {
      "anonymous": false,
      "inputs": [
        {
          "indexed": false,
          "internalType": "bool",
          "name": "_useCustomAdapterParams",
          "type": "bool"
        }
      ],
      "name": "SetUseCustomAdapterParams",
      "type": "event"
    },
    {
      "anonymous": false,
      "inputs": [
        {
          "indexed": true,
          "internalType": "address",
          "name": "from",
          "type": "address"
        },
        {
          "indexed": true,
          "internalType": "address",
          "name": "to",
          "type": "address"
        },
        {
          "indexed": false,
          "internalType": "uint256",
          "name": "value",
          "type": "uint256"
        }
      ],
      "name": "Transfer",
      "type": "event"
    },
    {
      "anonymous": false,
      "inputs": [
        {
          "indexed": false,
          "internalType": "address",
          "name": "account",
          "type": "address"
        }
      ],
      "name": "Unpaused",
      "type": "event"
    },
    {
      "inputs": [],
      "name": "INITIAL_SUPPLY",
      "outputs": [
        {
          "internalType": "uint256",
          "name": "",
          "type": "uint256"
        }
      ],
      "stateMutability": "view",
      "type": "function"
    },
    {
      "inputs": [],
      "name": "NO_EXTRA_GAS",
      "outputs": [
        {
          "internalType": "uint256",
          "name": "",
          "type": "uint256"
        }
      ],
      "stateMutability": "view",
      "type": "function"
    },
    {
      "inputs": [],
      "name": "PT_SEND",
      "outputs": [
        {
          "internalType": "uint16",
          "name": "",
          "type": "uint16"
        }
      ],
      "stateMutability": "view",
      "type": "function"
    },
    {
      "inputs": [],
      "name": "WEEK",
      "outputs": [
        {
          "internalType": "uint256",
          "name": "",
          "type": "uint256"
        }
      ],
      "stateMutability": "view",
      "type": "function"
    },
    {
      "inputs": [
        {
          "internalType": "address",
          "name": "owner",
          "type": "address"
        },
        {
          "internalType": "address",
          "name": "spender",
          "type": "address"
        }
      ],
      "name": "allowance",
      "outputs": [
        {
          "internalType": "uint256",
          "name": "",
          "type": "uint256"
        }
      ],
      "stateMutability": "view",
      "type": "function"
    },
    {
      "inputs": [
        {
          "internalType": "address",
          "name": "spender",
          "type": "address"
        },
        {
          "internalType": "uint256",
          "name": "amount",
          "type": "uint256"
        }
      ],
      "name": "approve",
      "outputs": [
        {
          "internalType": "bool",
          "name": "",
          "type": "bool"
        }
      ],
      "stateMutability": "nonpayable",
      "type": "function"
    },
    {
      "inputs": [
        {
          "internalType": "address",
          "name": "account",
          "type": "address"
        }
      ],
      "name": "balanceOf",
      "outputs": [
        {
          "internalType": "uint256",
          "name": "",
          "type": "uint256"
        }
      ],
      "stateMutability": "view",
      "type": "function"
    },
    {
      "inputs": [],
      "name": "circulatingSupply",
      "outputs": [
        {
          "internalType": "uint256",
          "name": "",
          "type": "uint256"
        }
      ],
      "stateMutability": "view",
      "type": "function"
    },
    {
      "inputs": [],
      "name": "decimals",
      "outputs": [
        {
          "internalType": "uint8",
          "name": "",
          "type": "uint8"
        }
      ],
      "stateMutability": "pure",
      "type": "function"
    },
    {
      "inputs": [
        {
          "internalType": "address",
          "name": "spender",
          "type": "address"
        },
        {
          "internalType": "uint256",
          "name": "subtractedValue",
          "type": "uint256"
        }
      ],
      "name": "decreaseAllowance",
      "outputs": [
        {
          "internalType": "bool",
          "name": "",
          "type": "bool"
        }
      ],
      "stateMutability": "nonpayable",
      "type": "function"
    },
    {
      "inputs": [],
      "name": "dso_supply",
      "outputs": [
        {
          "internalType": "uint256",
          "name": "",
          "type": "uint256"
        }
      ],
      "stateMutability": "view",
      "type": "function"
    },
    {
      "inputs": [],
      "name": "emissionsStartTime",
      "outputs": [
        {
          "internalType": "uint256",
          "name": "",
          "type": "uint256"
        }
      ],
      "stateMutability": "view",
      "type": "function"
    },
    {
      "inputs": [],
      "name": "emitForWeek",
      "outputs": [
        {
          "internalType": "uint256",
          "name": "",
          "type": "uint256"
        }
      ],
      "stateMutability": "nonpayable",
      "type": "function"
    },
    {
      "inputs": [
        {
          "internalType": "uint16",
          "name": "_dstChainId",
          "type": "uint16"
        },
        {
          "internalType": "bytes",
          "name": "_toAddress",
          "type": "bytes"
        },
        {
          "internalType": "uint256",
          "name": "_amount",
          "type": "uint256"
        },
        {
          "internalType": "bool",
          "name": "_useZro",
          "type": "bool"
        },
        {
          "internalType": "bytes",
          "name": "_adapterParams",
          "type": "bytes"
        }
      ],
      "name": "estimateSendFee",
      "outputs": [
        {
          "internalType": "uint256",
          "name": "nativeFee",
          "type": "uint256"
        },
        {
          "internalType": "uint256",
          "name": "zroFee",
          "type": "uint256"
        }
      ],
      "stateMutability": "view",
      "type": "function"
    },
    {
      "inputs": [
        {
          "internalType": "address",
          "name": "_to",
          "type": "address"
        },
        {
          "internalType": "uint256",
          "name": "_amount",
          "type": "uint256"
        }
      ],
      "name": "extractTAP",
      "outputs": [],
      "stateMutability": "nonpayable",
      "type": "function"
    },
    {
      "inputs": [
        {
          "internalType": "uint16",
          "name": "",
          "type": "uint16"
        },
        {
          "internalType": "bytes",
          "name": "",
          "type": "bytes"
        },
        {
          "internalType": "uint64",
          "name": "",
          "type": "uint64"
        }
      ],
      "name": "failedMessages",
      "outputs": [
        {
          "internalType": "bytes32",
          "name": "",
          "type": "bytes32"
        }
      ],
      "stateMutability": "view",
      "type": "function"
    },
    {
      "inputs": [
        {
          "internalType": "uint16",
          "name": "_srcChainId",
          "type": "uint16"
        },
        {
          "internalType": "bytes",
          "name": "_srcAddress",
          "type": "bytes"
        }
      ],
      "name": "forceResumeReceive",
      "outputs": [],
      "stateMutability": "nonpayable",
      "type": "function"
    },
    {
      "inputs": [
        {
          "internalType": "uint16",
          "name": "_version",
          "type": "uint16"
        },
        {
          "internalType": "uint16",
          "name": "_chainId",
          "type": "uint16"
        },
        {
          "internalType": "address",
          "name": "",
          "type": "address"
        },
        {
          "internalType": "uint256",
          "name": "_configType",
          "type": "uint256"
        }
      ],
      "name": "getConfig",
      "outputs": [
        {
          "internalType": "bytes",
          "name": "",
          "type": "bytes"
        }
      ],
      "stateMutability": "view",
      "type": "function"
    },
    {
      "inputs": [],
      "name": "getCurrentWeekEmission",
      "outputs": [
        {
          "internalType": "uint256",
          "name": "",
          "type": "uint256"
        }
      ],
      "stateMutability": "view",
      "type": "function"
    },
    {
      "inputs": [
        {
          "internalType": "uint16",
          "name": "_remoteChainId",
          "type": "uint16"
        }
      ],
      "name": "getTrustedRemoteAddress",
      "outputs": [
        {
          "internalType": "bytes",
          "name": "",
          "type": "bytes"
        }
      ],
      "stateMutability": "view",
      "type": "function"
    },
    {
      "inputs": [],
      "name": "governanceChainIdentifier",
      "outputs": [
        {
          "internalType": "uint256",
          "name": "",
          "type": "uint256"
        }
      ],
      "stateMutability": "view",
      "type": "function"
    },
    {
      "inputs": [
        {
          "internalType": "address",
          "name": "spender",
          "type": "address"
        },
        {
          "internalType": "uint256",
          "name": "addedValue",
          "type": "uint256"
        }
      ],
      "name": "increaseAllowance",
      "outputs": [
        {
          "internalType": "bool",
          "name": "",
          "type": "bool"
        }
      ],
      "stateMutability": "nonpayable",
      "type": "function"
    },
    {
      "inputs": [
        {
          "internalType": "uint16",
          "name": "_srcChainId",
          "type": "uint16"
        },
        {
          "internalType": "bytes",
          "name": "_srcAddress",
          "type": "bytes"
        }
      ],
      "name": "isTrustedRemote",
      "outputs": [
        {
          "internalType": "bool",
          "name": "",
          "type": "bool"
        }
      ],
      "stateMutability": "view",
      "type": "function"
    },
    {
      "inputs": [],
      "name": "lzEndpoint",
      "outputs": [
        {
          "internalType": "contract ILayerZeroEndpoint",
          "name": "",
          "type": "address"
        }
      ],
      "stateMutability": "view",
      "type": "function"
    },
    {
      "inputs": [
        {
          "internalType": "uint16",
          "name": "_srcChainId",
          "type": "uint16"
        },
        {
          "internalType": "bytes",
          "name": "_srcAddress",
          "type": "bytes"
        },
        {
          "internalType": "uint64",
          "name": "_nonce",
          "type": "uint64"
        },
        {
          "internalType": "bytes",
          "name": "_payload",
          "type": "bytes"
        }
      ],
      "name": "lzReceive",
      "outputs": [],
      "stateMutability": "nonpayable",
      "type": "function"
    },
    {
      "inputs": [
        {
          "internalType": "uint16",
          "name": "",
          "type": "uint16"
        },
        {
          "internalType": "uint16",
          "name": "",
          "type": "uint16"
        }
      ],
      "name": "minDstGasLookup",
      "outputs": [
        {
          "internalType": "uint256",
          "name": "",
          "type": "uint256"
        }
      ],
      "stateMutability": "view",
      "type": "function"
    },
    {
      "inputs": [
        {
          "internalType": "uint256",
          "name": "",
          "type": "uint256"
        }
      ],
      "name": "mintedInWeek",
      "outputs": [
        {
          "internalType": "uint256",
          "name": "",
          "type": "uint256"
        }
      ],
      "stateMutability": "view",
      "type": "function"
    },
    {
      "inputs": [],
      "name": "minter",
      "outputs": [
        {
          "internalType": "address",
          "name": "",
          "type": "address"
        }
      ],
      "stateMutability": "view",
      "type": "function"
    },
    {
      "inputs": [],
      "name": "name",
      "outputs": [
        {
          "internalType": "string",
          "name": "",
          "type": "string"
        }
      ],
      "stateMutability": "view",
      "type": "function"
    },
    {
      "inputs": [
        {
          "internalType": "uint16",
          "name": "_srcChainId",
          "type": "uint16"
        },
        {
          "internalType": "bytes",
          "name": "_srcAddress",
          "type": "bytes"
        },
        {
          "internalType": "uint64",
          "name": "_nonce",
          "type": "uint64"
        },
        {
          "internalType": "bytes",
          "name": "_payload",
          "type": "bytes"
        }
      ],
      "name": "nonblockingLzReceive",
      "outputs": [],
      "stateMutability": "nonpayable",
      "type": "function"
    },
    {
      "inputs": [],
      "name": "owner",
      "outputs": [
        {
          "internalType": "address",
          "name": "",
          "type": "address"
        }
      ],
      "stateMutability": "view",
      "type": "function"
    },
    {
      "inputs": [
        {
          "internalType": "bool",
          "name": "pause",
          "type": "bool"
        }
      ],
      "name": "pauseSendTokens",
      "outputs": [],
      "stateMutability": "nonpayable",
      "type": "function"
    },
    {
      "inputs": [],
      "name": "paused",
      "outputs": [
        {
          "internalType": "bool",
          "name": "",
          "type": "bool"
        }
      ],
      "stateMutability": "view",
      "type": "function"
    },
    {
      "inputs": [],
      "name": "precrime",
      "outputs": [
        {
          "internalType": "address",
          "name": "",
          "type": "address"
        }
      ],
      "stateMutability": "view",
      "type": "function"
    },
    {
      "inputs": [
        {
          "internalType": "uint256",
          "name": "_amount",
          "type": "uint256"
        }
      ],
      "name": "removeTAP",
      "outputs": [],
      "stateMutability": "nonpayable",
      "type": "function"
    },
    {
      "inputs": [],
      "name": "renounceOwnership",
      "outputs": [],
      "stateMutability": "nonpayable",
      "type": "function"
    },
    {
      "inputs": [
        {
          "internalType": "uint16",
          "name": "_srcChainId",
          "type": "uint16"
        },
        {
          "internalType": "bytes",
          "name": "_srcAddress",
          "type": "bytes"
        },
        {
          "internalType": "uint64",
          "name": "_nonce",
          "type": "uint64"
        },
        {
          "internalType": "bytes",
          "name": "_payload",
          "type": "bytes"
        }
      ],
      "name": "retryMessage",
      "outputs": [],
      "stateMutability": "payable",
      "type": "function"
    },
    {
      "inputs": [
        {
          "internalType": "address",
          "name": "_from",
          "type": "address"
        },
        {
          "internalType": "uint16",
          "name": "_dstChainId",
          "type": "uint16"
        },
        {
          "internalType": "bytes",
          "name": "_toAddress",
          "type": "bytes"
        },
        {
          "internalType": "uint256",
          "name": "_amount",
          "type": "uint256"
        },
        {
          "internalType": "address payable",
          "name": "_refundAddress",
          "type": "address"
        },
        {
          "internalType": "address",
          "name": "_zroPaymentAddress",
          "type": "address"
        },
        {
          "internalType": "bytes",
          "name": "_adapterParams",
          "type": "bytes"
        }
      ],
      "name": "sendFrom",
      "outputs": [],
      "stateMutability": "payable",
      "type": "function"
    },
    {
      "inputs": [
        {
          "internalType": "uint16",
          "name": "_version",
          "type": "uint16"
        },
        {
          "internalType": "uint16",
          "name": "_chainId",
          "type": "uint16"
        },
        {
          "internalType": "uint256",
          "name": "_configType",
          "type": "uint256"
        },
        {
          "internalType": "bytes",
          "name": "_config",
          "type": "bytes"
        }
      ],
      "name": "setConfig",
      "outputs": [],
      "stateMutability": "nonpayable",
      "type": "function"
    },
    {
      "inputs": [
        {
          "internalType": "uint256",
          "name": "_identifier",
          "type": "uint256"
        }
      ],
      "name": "setGovernanceChainIdentifier",
      "outputs": [],
      "stateMutability": "nonpayable",
      "type": "function"
    },
    {
      "inputs": [
        {
          "internalType": "uint16",
          "name": "_dstChainId",
          "type": "uint16"
        },
        {
          "internalType": "uint16",
          "name": "_packetType",
          "type": "uint16"
        },
        {
          "internalType": "uint256",
          "name": "_minGas",
          "type": "uint256"
        }
      ],
      "name": "setMinDstGas",
      "outputs": [],
      "stateMutability": "nonpayable",
      "type": "function"
    },
    {
      "inputs": [
        {
          "internalType": "address",
          "name": "_minter",
          "type": "address"
        }
      ],
      "name": "setMinter",
      "outputs": [],
      "stateMutability": "nonpayable",
      "type": "function"
    },
    {
      "inputs": [
        {
          "internalType": "address",
          "name": "_precrime",
          "type": "address"
        }
      ],
      "name": "setPrecrime",
      "outputs": [],
      "stateMutability": "nonpayable",
      "type": "function"
    },
    {
      "inputs": [
        {
          "internalType": "uint16",
          "name": "_version",
          "type": "uint16"
        }
      ],
      "name": "setReceiveVersion",
      "outputs": [],
      "stateMutability": "nonpayable",
      "type": "function"
    },
    {
      "inputs": [
        {
          "internalType": "uint16",
          "name": "_version",
          "type": "uint16"
        }
      ],
      "name": "setSendVersion",
      "outputs": [],
      "stateMutability": "nonpayable",
      "type": "function"
    },
    {
      "inputs": [
        {
          "internalType": "uint16",
          "name": "_srcChainId",
          "type": "uint16"
        },
        {
          "internalType": "bytes",
          "name": "_path",
          "type": "bytes"
        }
      ],
      "name": "setTrustedRemote",
      "outputs": [],
      "stateMutability": "nonpayable",
      "type": "function"
    },
    {
      "inputs": [
        {
          "internalType": "uint16",
          "name": "_remoteChainId",
          "type": "uint16"
        },
        {
          "internalType": "bytes",
          "name": "_remoteAddress",
          "type": "bytes"
        }
      ],
      "name": "setTrustedRemoteAddress",
      "outputs": [],
      "stateMutability": "nonpayable",
      "type": "function"
    },
    {
      "inputs": [
        {
          "internalType": "bool",
          "name": "_useCustomAdapterParams",
          "type": "bool"
        }
      ],
      "name": "setUseCustomAdapterParams",
      "outputs": [],
      "stateMutability": "nonpayable",
      "type": "function"
    },
    {
      "inputs": [
        {
          "internalType": "bytes4",
          "name": "interfaceId",
          "type": "bytes4"
        }
      ],
      "name": "supportsInterface",
      "outputs": [
        {
          "internalType": "bool",
          "name": "",
          "type": "bool"
        }
      ],
      "stateMutability": "view",
      "type": "function"
    },
    {
      "inputs": [],
      "name": "symbol",
      "outputs": [
        {
          "internalType": "string",
          "name": "",
          "type": "string"
        }
      ],
      "stateMutability": "view",
      "type": "function"
    },
    {
      "inputs": [
        {
          "internalType": "uint256",
          "name": "timestamp",
          "type": "uint256"
        }
      ],
      "name": "timestampToWeek",
      "outputs": [
        {
          "internalType": "uint256",
          "name": "",
          "type": "uint256"
        }
      ],
      "stateMutability": "view",
      "type": "function"
    },
    {
      "inputs": [],
      "name": "token",
      "outputs": [
        {
          "internalType": "address",
          "name": "",
          "type": "address"
        }
      ],
      "stateMutability": "view",
      "type": "function"
    },
    {
      "inputs": [],
      "name": "totalSupply",
      "outputs": [
        {
          "internalType": "uint256",
          "name": "",
          "type": "uint256"
        }
      ],
      "stateMutability": "view",
      "type": "function"
    },
    {
      "inputs": [
        {
          "internalType": "address",
          "name": "to",
          "type": "address"
        },
        {
          "internalType": "uint256",
          "name": "amount",
          "type": "uint256"
        }
      ],
      "name": "transfer",
      "outputs": [
        {
          "internalType": "bool",
          "name": "",
          "type": "bool"
        }
      ],
      "stateMutability": "nonpayable",
      "type": "function"
    },
    {
      "inputs": [
        {
          "internalType": "address",
          "name": "from",
          "type": "address"
        },
        {
          "internalType": "address",
          "name": "to",
          "type": "address"
        },
        {
          "internalType": "uint256",
          "name": "amount",
          "type": "uint256"
        }
      ],
      "name": "transferFrom",
      "outputs": [
        {
          "internalType": "bool",
          "name": "",
          "type": "bool"
        }
      ],
      "stateMutability": "nonpayable",
      "type": "function"
    },
    {
      "inputs": [
        {
          "internalType": "address",
          "name": "newOwner",
          "type": "address"
        }
      ],
      "name": "transferOwnership",
      "outputs": [],
      "stateMutability": "nonpayable",
      "type": "function"
    },
    {
      "inputs": [
        {
          "internalType": "uint16",
          "name": "",
          "type": "uint16"
        }
      ],
      "name": "trustedRemoteLookup",
      "outputs": [
        {
          "internalType": "bytes",
          "name": "",
          "type": "bytes"
        }
      ],
      "stateMutability": "view",
      "type": "function"
    },
    {
      "inputs": [],
      "name": "useCustomAdapterParams",
      "outputs": [
        {
          "internalType": "bool",
          "name": "",
          "type": "bool"
        }
      ],
      "stateMutability": "view",
      "type": "function"
    }
  ],
  "transactionHash": "0xc4c81d0ccfd70327e217cc7dc66cb3d29c6b3a85ee6872d74ad2eeff8db27eaa",
  "args": [
    "0xbfD2135BFfbb0B5378b56643c2Df8a87552Bfa23",
    "0x40282d3Cf4890D9806BC1853e97a59C93D813653",
    "0x40282d3Cf4890D9806BC1853e97a59C93D813653",
    "0x40282d3Cf4890D9806BC1853e97a59C93D813653",
    "0x40282d3Cf4890D9806BC1853e97a59C93D813653",
    "5"
  ],
  "numDeployments": 2,
  "solcInputHash": "389eb873fe61edb4796ba53e7754e793",
  "bytecode": "0x60c06040526a3701ec39383bba52800000600c553480156200002057600080fd5b50604051620041b9380380620041b983398101604081905262000043916200042e565b60405180604001604052806007815260200166546170696f636160c81b8152506040518060400160405280600381526020016205441560ec1b815250878282828282828080620000a26200009c6200023260201b60201c565b62000236565b6001600160a01b031660805250508151620000c59060099060208501906200036b565b508051620000db90600a9060208401906200036b565b5050600b805460ff1916905550505050506001600160a01b038816151591506200014e90505760405162461bcd60e51b815260206004820152601560248201527f4c5a20656e64706f696e74206e6f742076616c6964000000000000000000000060448201526064015b60405180910390fd5b61ffff8116600f819055461415620002215762000177856a0c685fa11e01ec6f00000062000286565b6200018e846a09195731e2ce35eb00000062000286565b620001a5836a0422ca8b0a00a42500000062000286565b620001bc826a021165458500521280000062000286565b6a1bb5e6a38fd11891800000620001d260085490565b14620002215760405162461bcd60e51b815260206004820152601860248201527f696e697469616c20737570706c79206e6f742076616c69640000000000000000604482015260640162000145565b50504260a052506200051d92505050565b3390565b600080546001600160a01b038381166001600160a01b0319831681178455604051919092169283917f8be0079c531659141344cd1fd0a4f28419497f9722a3daafe3b4186f6b6457e09190a35050565b6001600160a01b038216620002de5760405162461bcd60e51b815260206004820152601f60248201527f45524332303a206d696e7420746f20746865207a65726f206164647265737300604482015260640162000145565b8060086000828254620002f29190620004b9565b90915550506001600160a01b0382166000908152600660205260408120805483929062000321908490620004b9565b90915550506040518181526001600160a01b038316906000907fddf252ad1be2c89b69c2b068fc378daa952ba7f163c4a11628f55a4df523b3ef9060200160405180910390a35050565b8280546200037990620004e0565b90600052602060002090601f0160209004810192826200039d5760008555620003e8565b82601f10620003b857805160ff1916838001178555620003e8565b82800160010185558215620003e8579182015b82811115620003e8578251825591602001919060010190620003cb565b50620003f6929150620003fa565b5090565b5b80821115620003f65760008155600101620003fb565b80516001600160a01b03811681146200042957600080fd5b919050565b60008060008060008060c087890312156200044857600080fd5b620004538762000411565b9550620004636020880162000411565b9450620004736040880162000411565b9350620004836060880162000411565b9250620004936080880162000411565b915060a087015161ffff81168114620004ab57600080fd5b809150509295509295509295565b60008219821115620004db57634e487b7160e01b600052601160045260246000fd5b500190565b600181811c90821680620004f557607f821691505b602082108114156200051757634e487b7160e01b600052602260045260246000fd5b50919050565b60805160a051613c3062000589600039600081816105dd01528181610e1b015261217901526000818161089301528181610a6f01528181610d8e01528181610e7301528181610f7e0152818161112a015281816118f401528181611dbc0152612c2c0152613c306000f3fe6080604052600436106103005760003560e01c8063715018a611610191578063baf3292d116100e2578063ed629c5c11610090578063ed629c5c14610988578063f1878922146109a2578063f2fde38b146109c2578063f4359ce5146109e2578063f5ecbdbc146109f9578063fb98faf414610a19578063fc0c546a14610a39578063fca3b5aa14610a4c57600080fd5b8063baf3292d146108b5578063cbed8b9c146108d5578063d1deba1f146108f5578063dd62ed3e14610908578063df2a5b3b14610928578063eab45d9c14610948578063eb8d72b71461096857600080fd5b806395d89b411161013f57806395d89b41146107d75780639f38369a146107ec578063a2a4b99b1461080c578063a457c2d714610821578063a6c3d16514610841578063a9059cbb14610861578063b353aaa71461088157600080fd5b8063715018a6146107015780637533d7881461071657806387f00abc146107365780638cfd8f5c1461074c5780638da5cb5b146107845780639358928b146107a2578063950c8a74146107b757600080fd5b80632ff2e9dc1161025657806348b0daa61161020457806348b0daa6146105cb5780634c42899a146105ff5780634eb8c3081461062757806351905636146106475780635b8c41e61461065a5780635c975abb146106a957806366ad5c8a146106c157806370a08231146106e157600080fd5b80632ff2e9dc146104ee578063313ce5671461050d57806339509351146105295780633d8b38f61461054957806342d65a8d1461056957806342e32e251461058957806344770515146105b657600080fd5b806310ddb137116102b357806310ddb1371461041957806318160ddd146104395780631ed2bdb81461044e57806323b872dd1461046357806328d7eb97146104835780632930fc77146104995780632a205e3d146104b957600080fd5b80621d35671461030557806301ffc9a71461032757806306fdde031461035c578063075461721461037e57806307e0db17146103ab578063095ea7b3146103cb57806309b489fd146103eb575b600080fd5b34801561031157600080fd5b506103256103203660046130e1565b610a6c565b005b34801561033357600080fd5b50610347610342366004613176565b610c9d565b60405190151581526020015b60405180910390f35b34801561036857600080fd5b50610371610cdb565b60405161035391906131f8565b34801561038a57600080fd5b50600e5461039e906001600160a01b031681565b604051610353919061320b565b3480156103b757600080fd5b506103256103c636600461321f565b610d6d565b3480156103d757600080fd5b506103476103e6366004613251565b610df6565b3480156103f757600080fd5b5061040b61040636600461327d565b610e0e565b604051908152602001610353565b34801561042557600080fd5b5061032561043436600461321f565b610e52565b34801561044557600080fd5b5060085461040b565b34801561045a57600080fd5b5061040b610eaa565b34801561046f57600080fd5b5061034761047e366004613296565b610ecd565b34801561048f57600080fd5b5061040b600f5481565b3480156104a557600080fd5b506103256104b436600461327d565b610ef1565b3480156104c557600080fd5b506104d96104d43660046132e7565b610f3b565b60408051928352602083019190915201610353565b3480156104fa57600080fd5b5061040b6a1bb5e6a38fd1189180000081565b34801561051957600080fd5b5060405160128152602001610353565b34801561053557600080fd5b50610347610544366004613251565b61101d565b34801561055557600080fd5b50610347610564366004613386565b61103f565b34801561057557600080fd5b50610325610584366004613386565b61110b565b34801561059557600080fd5b5061040b6105a436600461327d565b600d6020526000908152604090205481565b3480156105c257600080fd5b5061040b600081565b3480156105d757600080fd5b5061040b7f000000000000000000000000000000000000000000000000000000000000000081565b34801561060b57600080fd5b50610614600081565b60405161ffff9091168152602001610353565b34801561063357600080fd5b50610325610642366004613251565b611191565b6103256106553660046133da565b61128d565b34801561066657600080fd5b5061040b610675366004613510565b6004602090815260009384526040808520845180860184018051928152908401958401959095209452929052825290205481565b3480156106b557600080fd5b50600b5460ff16610347565b3480156106cd57600080fd5b506103256106dc3660046130e1565b611312565b3480156106ed57600080fd5b5061040b6106fc3660046135b2565b6113ee565b34801561070d57600080fd5b50610325611409565b34801561072257600080fd5b5061037161073136600461321f565b61141d565b34801561074257600080fd5b5061040b600c5481565b34801561075857600080fd5b5061040b6107673660046135cf565b600260209081526000928352604080842090915290825290205481565b34801561079057600080fd5b506000546001600160a01b031661039e565b3480156107ae57600080fd5b5061040b6114b7565b3480156107c357600080fd5b5060035461039e906001600160a01b031681565b3480156107e357600080fd5b506103716114c7565b3480156107f857600080fd5b5061037161080736600461321f565b6114d6565b34801561081857600080fd5b5061040b6115ed565b34801561082d57600080fd5b5061034761083c366004613251565b61175b565b34801561084d57600080fd5b5061032561085c366004613386565b6117d6565b34801561086d57600080fd5b5061034761087c366004613251565b611869565b34801561088d57600080fd5b5061039e7f000000000000000000000000000000000000000000000000000000000000000081565b3480156108c157600080fd5b506103256108d03660046135b2565b611877565b3480156108e157600080fd5b506103256108f0366004613608565b6118d5565b6103256109033660046130e1565b61195f565b34801561091457600080fd5b5061040b61092336600461367a565b611b75565b34801561093457600080fd5b506103256109433660046136a8565b611ba0565b34801561095457600080fd5b506103256109633660046136d8565b611c52565b34801561097457600080fd5b50610325610983366004613386565b611c9b565b34801561099457600080fd5b506005546103479060ff1681565b3480156109ae57600080fd5b506103256109bd3660046136d8565b611cf5565b3480156109ce57600080fd5b506103256109dd3660046135b2565b611d15565b3480156109ee57600080fd5b5061040b62093a8081565b348015610a0557600080fd5b50610371610a143660046136f3565b611d8b565b348015610a2557600080fd5b50610325610a3436600461327d565b611e4b565b348015610a4557600080fd5b503061039e565b348015610a5857600080fd5b50610325610a673660046135b2565b611e94565b337f00000000000000000000000000000000000000000000000000000000000000006001600160a01b031614610ae95760405162461bcd60e51b815260206004820152601e60248201527f4c7a4170703a20696e76616c696420656e64706f696e742063616c6c6572000060448201526064015b60405180910390fd5b61ffff861660009081526001602052604081208054610b0790613744565b80601f0160208091040260200160405190810160405280929190818152602001828054610b3390613744565b8015610b805780601f10610b5557610100808354040283529160200191610b80565b820191906000526020600020905b815481529060010190602001808311610b6357829003601f168201915b50505050509050805186869050148015610b9b575060008151115b8015610bc3575080516020820120604051610bb9908890889061377f565b6040518091039020145b610c1e5760405162461bcd60e51b815260206004820152602660248201527f4c7a4170703a20696e76616c696420736f757263652073656e64696e6720636f6044820152651b9d1c9858dd60d21b6064820152608401610ae0565b610c948787878080601f01602080910402602001604051908101604052809392919081815260200183838082843760009201919091525050604080516020601f8a018190048102820181019092528881528a935091508890889081908401838280828437600092019190915250611f4292505050565b50505050505050565b60006001600160e01b031982161580610cc657506001600160e01b031982166336372b0760e01b145b80610cd55750610cd582611fbb565b92915050565b606060098054610cea90613744565b80601f0160208091040260200160405190810160405280929190818152602001828054610d1690613744565b8015610d635780601f10610d3857610100808354040283529160200191610d63565b820191906000526020600020905b815481529060010190602001808311610d4657829003601f168201915b5050505050905090565b610d75611ff0565b6040516307e0db1760e01b815261ffff821660048201527f00000000000000000000000000000000000000000000000000000000000000006001600160a01b0316906307e0db17906024015b600060405180830381600087803b158015610ddb57600080fd5b505af1158015610def573d6000803e3d6000fd5b5050505050565b600033610e0481858561204a565b5060019392505050565b600081610e19574291505b7f0000000000000000000000000000000000000000000000000000000000000000821015610e4957506000919050565b610cd58261216e565b610e5a611ff0565b6040516310ddb13760e01b815261ffff821660048201527f00000000000000000000000000000000000000000000000000000000000000006001600160a01b0316906310ddb13790602401610dc1565b6000600d6000610eb94261216e565b815260200190815260200160002054905090565b600033610edb8582856121b3565b610ee685858561222d565b506001949350505050565b610ef96123e9565b610f03338261242f565b60405181815233907f696de425f79f4a40bc6d2122ca50507f0efbeabbff86a84871b7196ab8ea8df79060200160405180910390a250565b600080600080898989604051602001610f5794939291906137b8565b60408051601f198184030181529082905263040a7bb160e41b825291506001600160a01b037f000000000000000000000000000000000000000000000000000000000000000016906340a7bb1090610fbd908d90309086908c908c908c906004016137e7565b604080518083038186803b158015610fd457600080fd5b505afa158015610fe8573d6000803e3d6000fd5b505050506040513d601f19601f8201168201806040525081019061100c919061383d565b925092505097509795505050505050565b600033610e048185856110308383611b75565b61103a9190613877565b61204a565b61ffff83166000908152600160205260408120805482919061106090613744565b80601f016020809104026020016040519081016040528092919081815260200182805461108c90613744565b80156110d95780601f106110ae576101008083540402835291602001916110d9565b820191906000526020600020905b8154815290600101906020018083116110bc57829003601f168201915b5050505050905083836040516110f092919061377f565b60405180910390208180519060200120149150509392505050565b611113611ff0565b6040516342d65a8d60e01b81526001600160a01b037f000000000000000000000000000000000000000000000000000000000000000016906342d65a8d906111639086908690869060040161388f565b600060405180830381600087803b15801561117d57600080fd5b505af1158015610c94573d6000803e3d6000fd5b6111996123e9565b600e546001600160a01b031633146111e25760405162461bcd60e51b815260206004820152600c60248201526b1d5b985d5d1a1bdc9a5e995960a21b6044820152606401610ae0565b600081116112255760405162461bcd60e51b815260206004820152601060248201526f185b5bdd5b9d081b9bdd081d985b1a5960821b6044820152606401610ae0565b6000611230306113ee565b90508181101561127d5760405162461bcd60e51b8152602060048201526018602482015277195e18d959591cc8185b1b1bddd8589b1948185b5bdd5b9d60421b6044820152606401610ae0565b61128830848461222d565b505050565b611307898989898080601f01602080910402602001604051908101604052809392919081815260200183838082843760009201919091525050604080516020601f8a018190048102820181019092528881528c93508b92508a918a908a908190840183828082843760009201919091525061256b92505050565b505050505050505050565b3330146113705760405162461bcd60e51b815260206004820152602660248201527f4e6f6e626c6f636b696e674c7a4170703a2063616c6c6572206d7573742062656044820152650204c7a4170760d41b6064820152608401610ae0565b6113e68686868080601f01602080910402602001604051908101604052809392919081815260200183838082843760009201919091525050604080516020601f89018190048102820181019092528781528993509150879087908190840183828082843760009201919091525061261292505050565b505050505050565b6001600160a01b031660009081526006602052604090205490565b611411611ff0565b61141b6000612679565b565b6001602052600090815260409020805461143690613744565b80601f016020809104026020016040519081016040528092919081815260200182805461146290613744565b80156114af5780601f10611484576101008083540402835291602001916114af565b820191906000526020600020905b81548152906001019060200180831161149257829003601f168201915b505050505081565b60006114c260085490565b905090565b6060600a8054610cea90613744565b61ffff81166000908152600160205260408120805460609291906114f990613744565b80601f016020809104026020016040519081016040528092919081815260200182805461152590613744565b80156115725780601f1061154757610100808354040283529160200191611572565b820191906000526020600020905b81548152906001019060200180831161155557829003601f168201915b505050505090508051600014156115cb5760405162461bcd60e51b815260206004820152601d60248201527f4c7a4170703a206e6f20747275737465642070617468207265636f72640000006044820152606401610ae0565b6115e66000601483516115de91906138ad565b8391906126c9565b9392505050565b60006115f76123e9565b600f54461461163a5760405162461bcd60e51b815260206004820152600f60248201526e18da185a5b881b9bdd081d985b1a59608a1b6044820152606401610ae0565b60006116454261216e565b6000818152600d60205260409020549091501561166457600091505090565b600080611670306113ee565b905080156116b95780600d60006116886001876138ad565b815260200190815260200160002060008282546116a591906138ad565b925050819055508091506116b9308261242f565b600d60006116c86001866138ad565b815260200190815260200160002054600c60008282546116e891906138ad565b909155506116f690506127d6565b6117009083613877565b6000848152600d60205260409020819055915061171d3083612800565b604051828152309033907f9d228d69b5fdb8d273a2336f8fb8612d039631024ea9bf09c424a9503aa078f09060200160405180910390a35091505090565b600033816117698286611b75565b9050838110156117c95760405162461bcd60e51b815260206004820152602560248201527f45524332303a2064656372656173656420616c6c6f77616e63652062656c6f77604482015264207a65726f60d81b6064820152608401610ae0565b610ee6828686840361204a565b6117de611ff0565b8181306040516020016117f3939291906138c4565b60408051601f1981840301815291815261ffff8516600090815260016020908152919020825161182893919290910190612f60565b507f8c0400cfe2d1199b1a725c78960bcc2a344d869b80590d0f2bd005db15a572ce83838360405161185c9392919061388f565b60405180910390a1505050565b600033610e0481858561222d565b61187f611ff0565b600380546001600160a01b0319166001600160a01b0383161790556040517f5db758e995a17ec1ad84bdef7e8c3293a0bd6179bcce400dff5d4c3d87db726b906118ca90839061320b565b60405180910390a150565b6118dd611ff0565b6040516332fb62e760e21b81526001600160a01b037f0000000000000000000000000000000000000000000000000000000000000000169063cbed8b9c9061193190889088908890889088906004016138ea565b600060405180830381600087803b15801561194b57600080fd5b505af1158015611307573d6000803e3d6000fd5b61ffff86166000908152600460205260408082209051611982908890889061377f565b90815260408051602092819003830190206001600160401b03871660009081529252902054905080611a025760405162461bcd60e51b815260206004820152602360248201527f4e6f6e626c6f636b696e674c7a4170703a206e6f2073746f726564206d65737360448201526261676560e81b6064820152608401610ae0565b808383604051611a1392919061377f565b604051809103902014611a725760405162461bcd60e51b815260206004820152602160248201527f4e6f6e626c6f636b696e674c7a4170703a20696e76616c6964207061796c6f616044820152601960fa1b6064820152608401610ae0565b61ffff87166000908152600460205260408082209051611a95908990899061377f565b90815260408051602092819003830181206001600160401b038916600090815290845282902093909355601f88018290048202830182019052868252611b2d918991899089908190840183828082843760009201919091525050604080516020601f8a018190048102820181019092528881528a93509150889088908190840183828082843760009201919091525061261292505050565b7fc264d91f3adc5588250e1551f547752ca0cfa8f6b530d243b9f9f4cab10ea8e58787878785604051611b64959493929190613923565b60405180910390a150505050505050565b6001600160a01b03918216600090815260076020908152604080832093909416825291909152205490565b611ba8611ff0565b60008111611bf05760405162461bcd60e51b81526020600482015260156024820152744c7a4170703a20696e76616c6964206d696e47617360581b6044820152606401610ae0565b61ffff83811660008181526002602090815260408083209487168084529482529182902085905581519283528201929092529081018290527f9d5c7c0b934da8fefa9c7760c98383778a12dfbfc0c3b3106518f43fb9508ac09060600161185c565b611c5a611ff0565b6005805460ff19168215159081179091556040519081527f1584ad594a70cbe1e6515592e1272a987d922b097ead875069cebe8b40c004a4906020016118ca565b611ca3611ff0565b61ffff83166000908152600160205260409020611cc1908383612fe4565b507ffa41487ad5d6728f0b19276fa1eddc16558578f5109fc39d2dc33c3230470dab83838360405161185c9392919061388f565b611cfd611ff0565b80611d0d57611d0a6128cd565b50565b611d0a612919565b611d1d611ff0565b6001600160a01b038116611d825760405162461bcd60e51b815260206004820152602660248201527f4f776e61626c653a206e6577206f776e657220697320746865207a65726f206160448201526564647265737360d01b6064820152608401610ae0565b611d0a81612679565b604051633d7b2f6f60e21b815261ffff808616600483015284166024820152306044820152606481018290526060907f00000000000000000000000000000000000000000000000000000000000000006001600160a01b03169063f5ecbdbc9060840160006040518083038186803b158015611e0657600080fd5b505afa158015611e1a573d6000803e3d6000fd5b505050506040513d6000823e601f3d908101601f19168201604052611e4291908101906139ab565b95945050505050565b611e53611ff0565b600f5460408051918252602082018390527fffaac11a2568645519512c4cc04c5052f579642fd6e2236b58ced0451e215dc4910160405180910390a1600f55565b611e9c611ff0565b6001600160a01b038116611ee65760405162461bcd60e51b81526020600482015260116024820152701859191c995cdcc81b9bdd081d985b1a59607a1b6044820152606401610ae0565b600e546040516001600160a01b038084169216907f1cf2de25c5bf439ac0287061c3a0fa69b3b02867d0ccfd2ded34e42577050b7390600090a3600e80546001600160a01b0319166001600160a01b0392909216919091179055565b600080611fa55a60966366ad5c8a60e01b89898989604051602401611f6a94939291906139df565b60408051601f198184030181529190526020810180516001600160e01b03166001600160e01b03199093169290921790915230929190612956565b91509150816113e6576113e686868686856129e0565b60006001600160e01b03198216630a72677560e11b1480610cd557506301ffc9a760e01b6001600160e01b0319831614610cd5565b6000546001600160a01b0316331461141b5760405162461bcd60e51b815260206004820181905260248201527f4f776e61626c653a2063616c6c6572206973206e6f7420746865206f776e65726044820152606401610ae0565b6001600160a01b0383166120ac5760405162461bcd60e51b8152602060048201526024808201527f45524332303a20617070726f76652066726f6d20746865207a65726f206164646044820152637265737360e01b6064820152608401610ae0565b6001600160a01b03821661210d5760405162461bcd60e51b815260206004820152602260248201527f45524332303a20617070726f766520746f20746865207a65726f206164647265604482015261737360f01b6064820152608401610ae0565b6001600160a01b0383811660008181526007602090815260408083209487168084529482529182902085905590518481527f8c5be1e5ebec7d5bd14f71427d1e84f3dd0314c0f7b2291e5b200ac8c7c3b925910160405180910390a3505050565b600062093a8061219e7f0000000000000000000000000000000000000000000000000000000000000000846138ad565b6121a89190613a1d565b610cd5906001613877565b60006121bf8484611b75565b90506000198114612227578181101561221a5760405162461bcd60e51b815260206004820152601d60248201527f45524332303a20696e73756666696369656e7420616c6c6f77616e63650000006044820152606401610ae0565b612227848484840361204a565b50505050565b6001600160a01b0383166122915760405162461bcd60e51b815260206004820152602560248201527f45524332303a207472616e736665722066726f6d20746865207a65726f206164604482015264647265737360d81b6064820152608401610ae0565b6001600160a01b0382166122f35760405162461bcd60e51b815260206004820152602360248201527f45524332303a207472616e7366657220746f20746865207a65726f206164647260448201526265737360e81b6064820152608401610ae0565b6001600160a01b0383166000908152600660205260409020548181101561236b5760405162461bcd60e51b815260206004820152602660248201527f45524332303a207472616e7366657220616d6f756e7420657863656564732062604482015265616c616e636560d01b6064820152608401610ae0565b6001600160a01b038085166000908152600660205260408082208585039055918516815290812080548492906123a2908490613877565b92505081905550826001600160a01b0316846001600160a01b0316600080516020613bdb833981519152846040516123dc91815260200190565b60405180910390a3612227565b600b5460ff161561141b5760405162461bcd60e51b815260206004820152601060248201526f14185d5cd8589b194e881c185d5cd95960821b6044820152606401610ae0565b6001600160a01b03821661248f5760405162461bcd60e51b815260206004820152602160248201527f45524332303a206275726e2066726f6d20746865207a65726f206164647265736044820152607360f81b6064820152608401610ae0565b6001600160a01b038216600090815260066020526040902054818110156125035760405162461bcd60e51b815260206004820152602260248201527f45524332303a206275726e20616d6f756e7420657863656564732062616c616e604482015261636560f01b6064820152608401610ae0565b6001600160a01b03831660009081526006602052604081208383039055600880548492906125329084906138ad565b90915550506040518281526000906001600160a01b03851690600080516020613bdb8339815191529060200160405180910390a3505050565b612579866000836000612a7d565b600061258788888888612af7565b905060008087836040516020016125a093929190613a3f565b60405160208183030381529060405290506125bf888287878734612b0d565b886001600160a01b03168861ffff167f39a4c66499bcf4b56d79f0dde8ed7a9d4925a0df55825206b2b8531e202be0d089856040516125ff929190613a6c565b60405180910390a3505050505050505050565b602081015161ffff81166126315761262c85858585612ca8565b610def565b60405162461bcd60e51b815260206004820152601c60248201527f4f4654436f72653a20756e6b6e6f776e207061636b65742074797065000000006044820152606401610ae0565b600080546001600160a01b038381166001600160a01b0319831681178455604051919092169283917f8be0079c531659141344cd1fd0a4f28419497f9722a3daafe3b4186f6b6457e09190a35050565b6060816126d781601f613877565b10156127165760405162461bcd60e51b815260206004820152600e60248201526d736c6963655f6f766572666c6f7760901b6044820152606401610ae0565b6127208284613877565b845110156127645760405162461bcd60e51b8152602060048201526011602482015270736c6963655f6f75744f66426f756e647360781b6044820152606401610ae0565b60608215801561278357604051915060008252602082016040526127cd565b6040519150601f8416801560200281840101858101878315602002848b0101015b818310156127bc5780518352602092830192016127a4565b5050858452601f01601f1916604052505b50949350505050565b6000670de0b6b3a7640000661f438daa060000600c546127f69190613a8e565b6114c29190613a1d565b6001600160a01b0382166128565760405162461bcd60e51b815260206004820152601f60248201527f45524332303a206d696e7420746f20746865207a65726f2061646472657373006044820152606401610ae0565b80600860008282546128689190613877565b90915550506001600160a01b03821660009081526006602052604081208054839290612895908490613877565b90915550506040518181526001600160a01b03831690600090600080516020613bdb8339815191529060200160405180910390a35050565b6128d5612d32565b600b805460ff191690557f5db9ee0a495bf2e6ff9c91a7834c1ba4fdd244a5e8aa4e537bd38aeae4b073aa335b60405161290f919061320b565b60405180910390a1565b6129216123e9565b600b805460ff191660011790557f62e78cea01bee320cd4e420270b5ea74000d11b0c9f74754ebdbfc544b05a2586129023390565b6000606060008060008661ffff166001600160401b0381111561297b5761297b6134a3565b6040519080825280601f01601f1916602001820160405280156129a5576020820181803683370190505b50905060008087516020890160008d8df191503d9250868311156129c7578692505b828152826000602083013e909890975095505050505050565b8180519060200120600460008761ffff1661ffff16815260200190815260200160002085604051612a119190613aad565b9081526040805191829003602090810183206001600160401b0388166000908152915220919091557fe183f33de2837795525b4792ca4cd60535bd77c53b7e7030060bfcf5734d6b0c90612a6e9087908790879087908790613ac9565b60405180910390a15050505050565b60055460ff1615612a9957612a9484848484612d7b565b612227565b8151156122275760405162461bcd60e51b815260206004820152602660248201527f4f4654436f72653a205f61646170746572506172616d73206d7573742062652060448201526532b6b83a3c9760d11b6064820152608401610ae0565b6000612b016123e9565b611e4285858585612e5a565b61ffff861660009081526001602052604081208054612b2b90613744565b80601f0160208091040260200160405190810160405280929190818152602001828054612b5790613744565b8015612ba45780601f10612b7957610100808354040283529160200191612ba4565b820191906000526020600020905b815481529060010190602001808311612b8757829003601f168201915b50505050509050805160001415612c165760405162461bcd60e51b815260206004820152603060248201527f4c7a4170703a2064657374696e6174696f6e20636861696e206973206e6f742060448201526f61207472757374656420736f7572636560801b6064820152608401610ae0565b60405162c5803160e81b81526001600160a01b037f0000000000000000000000000000000000000000000000000000000000000000169063c5803100908490612c6d908b9086908c908c908c908c90600401613b27565b6000604051808303818588803b158015612c8657600080fd5b505af1158015612c9a573d6000803e3d6000fd5b505050505050505050505050565b60008082806020019051810190612cbf9190613b81565b909350915060009050612cd28382612e8c565b9050612cdf878284612ef1565b9150806001600160a01b03168761ffff167fbf551ec93859b170f9b2141bd9298bf3f64322c6f7beb2543a0cb669834118bf84604051612d2191815260200190565b60405180910390a350505050505050565b600b5460ff1661141b5760405162461bcd60e51b815260206004820152601460248201527314185d5cd8589b194e881b9bdd081c185d5cd95960621b6044820152606401610ae0565b6000612d8683612f04565b61ffff808716600090815260026020908152604080832093891683529290529081205491925090612db8908490613877565b905060008111612e0a5760405162461bcd60e51b815260206004820152601a60248201527f4c7a4170703a206d696e4761734c696d6974206e6f74207365740000000000006044820152606401610ae0565b808210156113e65760405162461bcd60e51b815260206004820152601b60248201527f4c7a4170703a20676173206c696d697420697320746f6f206c6f7700000000006044820152606401610ae0565b6000336001600160a01b0386168114612e7857612e788682856121b3565b612e82868461242f565b5090949350505050565b6000612e99826014613877565b83511015612ee15760405162461bcd60e51b8152602060048201526015602482015274746f416464726573735f6f75744f66426f756e647360581b6044820152606401610ae0565b500160200151600160601b900490565b6000612efd8383612800565b5092915050565b6000602282511015612f585760405162461bcd60e51b815260206004820152601c60248201527f4c7a4170703a20696e76616c69642061646170746572506172616d73000000006044820152606401610ae0565b506022015190565b828054612f6c90613744565b90600052602060002090601f016020900481019282612f8e5760008555612fd4565b82601f10612fa757805160ff1916838001178555612fd4565b82800160010185558215612fd4579182015b82811115612fd4578251825591602001919060010190612fb9565b50612fe0929150613058565b5090565b828054612ff090613744565b90600052602060002090601f0160209004810192826130125760008555612fd4565b82601f1061302b5782800160ff19823516178555612fd4565b82800160010185558215612fd4579182015b82811115612fd457823582559160200191906001019061303d565b5b80821115612fe05760008155600101613059565b61ffff81168114611d0a57600080fd5b60008083601f84011261308f57600080fd5b5081356001600160401b038111156130a657600080fd5b6020830191508360208285010111156130be57600080fd5b9250929050565b80356001600160401b03811681146130dc57600080fd5b919050565b600080600080600080608087890312156130fa57600080fd5b86356131058161306d565b955060208701356001600160401b038082111561312157600080fd5b61312d8a838b0161307d565b909750955085915061314160408a016130c5565b9450606089013591508082111561315757600080fd5b5061316489828a0161307d565b979a9699509497509295939492505050565b60006020828403121561318857600080fd5b81356001600160e01b0319811681146115e657600080fd5b60005b838110156131bb5781810151838201526020016131a3565b838111156122275750506000910152565b600081518084526131e48160208601602086016131a0565b601f01601f19169290920160200192915050565b6020815260006115e660208301846131cc565b6001600160a01b0391909116815260200190565b60006020828403121561323157600080fd5b81356115e68161306d565b6001600160a01b0381168114611d0a57600080fd5b6000806040838503121561326457600080fd5b823561326f8161323c565b946020939093013593505050565b60006020828403121561328f57600080fd5b5035919050565b6000806000606084860312156132ab57600080fd5b83356132b68161323c565b925060208401356132c68161323c565b929592945050506040919091013590565b803580151581146130dc57600080fd5b600080600080600080600060a0888a03121561330257600080fd5b873561330d8161306d565b965060208801356001600160401b038082111561332957600080fd5b6133358b838c0161307d565b909850965060408a0135955086915061335060608b016132d7565b945060808a013591508082111561336657600080fd5b506133738a828b0161307d565b989b979a50959850939692959293505050565b60008060006040848603121561339b57600080fd5b83356133a68161306d565b925060208401356001600160401b038111156133c157600080fd5b6133cd8682870161307d565b9497909650939450505050565b600080600080600080600080600060e08a8c0312156133f857600080fd5b89356134038161323c565b985060208a01356134138161306d565b975060408a01356001600160401b038082111561342f57600080fd5b61343b8d838e0161307d565b909950975060608c0135965060808c013591506134578261323c565b90945060a08b0135906134698261323c565b90935060c08b0135908082111561347f57600080fd5b5061348c8c828d0161307d565b915080935050809150509295985092959850929598565b634e487b7160e01b600052604160045260246000fd5b604051601f8201601f191681016001600160401b03811182821017156134e1576134e16134a3565b604052919050565b60006001600160401b03821115613502576135026134a3565b50601f01601f191660200190565b60008060006060848603121561352557600080fd5b83356135308161306d565b925060208401356001600160401b0381111561354b57600080fd5b8401601f8101861361355c57600080fd5b803561356f61356a826134e9565b6134b9565b81815287602083850101111561358457600080fd5b816020840160208301376000602083830101528094505050506135a9604085016130c5565b90509250925092565b6000602082840312156135c457600080fd5b81356115e68161323c565b600080604083850312156135e257600080fd5b82356135ed8161306d565b915060208301356135fd8161306d565b809150509250929050565b60008060008060006080868803121561362057600080fd5b853561362b8161306d565b9450602086013561363b8161306d565b93506040860135925060608601356001600160401b0381111561365d57600080fd5b6136698882890161307d565b969995985093965092949392505050565b6000806040838503121561368d57600080fd5b82356136988161323c565b915060208301356135fd8161323c565b6000806000606084860312156136bd57600080fd5b83356136c88161306d565b925060208401356132c68161306d565b6000602082840312156136ea57600080fd5b6115e6826132d7565b6000806000806080858703121561370957600080fd5b84356137148161306d565b935060208501356137248161306d565b925060408501356137348161323c565b9396929550929360600135925050565b600181811c9082168061375857607f821691505b6020821081141561377957634e487b7160e01b600052602260045260246000fd5b50919050565b8183823760009101908152919050565b81835281816020850137506000828201602090810191909152601f909101601f19169091010190565b61ffff851681526060602082015260006137d660608301858761378f565b905082604083015295945050505050565b61ffff871681526001600160a01b038616602082015260a060408201819052600090613815908301876131cc565b8515156060840152828103608084015261383081858761378f565b9998505050505050505050565b6000806040838503121561385057600080fd5b505080516020909101519092909150565b634e487b7160e01b600052601160045260246000fd5b6000821982111561388a5761388a613861565b500190565b61ffff84168152604060208201526000611e4260408301848661378f565b6000828210156138bf576138bf613861565b500390565b8284823760609190911b6bffffffffffffffffffffffff19169101908152601401919050565b600061ffff80881683528087166020840152508460408301526080606083015261391860808301848661378f565b979650505050505050565b61ffff8616815260806020820152600061394160808301868861378f565b6001600160401b0394909416604083015250606001529392505050565b600082601f83011261396f57600080fd5b815161397d61356a826134e9565b81815284602083860101111561399257600080fd5b6139a38260208301602087016131a0565b949350505050565b6000602082840312156139bd57600080fd5b81516001600160401b038111156139d357600080fd5b6139a38482850161395e565b61ffff851681526080602082015260006139fc60808301866131cc565b6001600160401b0385166040840152828103606084015261391881856131cc565b600082613a3a57634e487b7160e01b600052601260045260246000fd5b500490565b61ffff84168152606060208201526000613a5c60608301856131cc565b9050826040830152949350505050565b604081526000613a7f60408301856131cc565b90508260208301529392505050565b6000816000190483118215151615613aa857613aa8613861565b500290565b60008251613abf8184602087016131a0565b9190910192915050565b61ffff8616815260a060208201526000613ae660a08301876131cc565b6001600160401b03861660408401528281036060840152613b0781866131cc565b90508281036080840152613b1b81856131cc565b98975050505050505050565b61ffff8716815260c060208201526000613b4460c08301886131cc565b8281036040840152613b5681886131cc565b6001600160a01b0387811660608601528616608085015283810360a0850152905061383081856131cc565b600080600060608486031215613b9657600080fd5b8351613ba18161306d565b60208501519093506001600160401b03811115613bbd57600080fd5b613bc98682870161395e565b92505060408401519050925092509256feddf252ad1be2c89b69c2b068fc378daa952ba7f163c4a11628f55a4df523b3efa2646970667358221220fb80b8d743ada1b9813f8b1616589038b0896eb8576552b93b21dcd85d157b7264736f6c63430008090033",
  "devdoc": {
    "details": "Latest size: 17.663  KiBEmissions E(x)= E(x-1) - E(x-1) * D with E being total supply a x week, and D the initial decay rate",
    "kind": "dev",
    "methods": {
      "allowance(address,address)": {
        "details": "See {IERC20-allowance}."
      },
      "approve(address,uint256)": {
        "details": "See {IERC20-approve}. NOTE: If `amount` is the maximum `uint256`, the allowance is not updated on `transferFrom`. This is semantically equivalent to an infinite approval. Requirements: - `spender` cannot be the zero address."
      },
      "balanceOf(address)": {
        "details": "See {IERC20-balanceOf}."
      },
      "circulatingSupply()": {
        "details": "returns the circulating amount of tokens on current chain"
      },
      "constructor": {
        "details": "The initial supply of 100M is not minted here as we have the wrap method",
        "params": {
          "_airdrop": "address for the airdrop",
          "_contributors": "address for the contributors",
          "_governanceChainId": "LayerZero governance chain identifier",
          "_investors": "address for the investors",
          "_lbp": "address for the LBP",
          "_lzEndpoint": "the layer zero address endpoint deployed on the current chain"
        }
      },
      "decreaseAllowance(address,uint256)": {
        "details": "Atomically decreases the allowance granted to `spender` by the caller. This is an alternative to {approve} that can be used as a mitigation for problems described in {IERC20-approve}. Emits an {Approval} event indicating the updated allowance. Requirements: - `spender` cannot be the zero address. - `spender` must have allowance for the caller of at least `subtractedValue`."
      },
      "estimateSendFee(uint16,bytes,uint256,bool,bytes)": {
        "details": "estimate send token `_tokenId` to (`_dstChainId`, `_toAddress`) _dstChainId - L0 defined chain id to send tokens too _toAddress - dynamic bytes array which contains the address to whom you are sending tokens to on the dstChain _amount - amount of the tokens to transfer _useZro - indicates to use zro to pay L0 fees _adapterParam - flexible bytes array to indicate messaging adapter services in L0"
      },
      "extractTAP(address,uint256)": {
        "params": {
          "_amount": "TAP amount",
          "_to": "Address to send the minted TAP to"
        }
      },
      "increaseAllowance(address,uint256)": {
        "details": "Atomically increases the allowance granted to `spender` by the caller. This is an alternative to {approve} that can be used as a mitigation for problems described in {IERC20-approve}. Emits an {Approval} event indicating the updated allowance. Requirements: - `spender` cannot be the zero address."
      },
      "name()": {
        "details": "Returns the name of the token."
      },
      "owner()": {
        "details": "Returns the address of the current owner."
      },
      "paused()": {
        "details": "Returns true if the contract is paused, and false otherwise."
      },
      "removeTAP(uint256)": {
        "params": {
          "_amount": "TAP amount"
        }
      },
      "renounceOwnership()": {
        "details": "Leaves the contract without owner. It will not be possible to call `onlyOwner` functions anymore. Can only be called by the current owner. NOTE: Renouncing ownership will leave the contract without an owner, thereby removing any functionality that is only available to the owner."
      },
      "sendFrom(address,uint16,bytes,uint256,address,address,bytes)": {
        "details": "send `_amount` amount of token to (`_dstChainId`, `_toAddress`) from `_from` `_from` the owner of token `_dstChainId` the destination chain identifier `_toAddress` can be any size depending on the `dstChainId`. `_amount` the quantity of tokens in wei `_refundAddress` the address LayerZero refunds if too much message fee is sent `_zroPaymentAddress` set to address(0x0) if not paying in ZRO (LayerZero Token) `_adapterParams` is a flexible bytes array to indicate messaging adapter services"
      },
      "setGovernanceChainIdentifier(uint256)": {
        "params": {
          "_identifier": "LayerZero chain identifier"
        }
      },
      "setMinter(address)": {
        "params": {
          "_minter": "the new address"
        }
      },
      "symbol()": {
        "details": "Returns the symbol of the token, usually a shorter version of the name."
      },
      "token()": {
        "details": "returns the address of the ERC20 token"
      },
      "totalSupply()": {
        "details": "See {IERC20-totalSupply}."
      },
      "transfer(address,uint256)": {
        "details": "See {IERC20-transfer}. Requirements: - `to` cannot be the zero address. - the caller must have a balance of at least `amount`."
      },
      "transferFrom(address,address,uint256)": {
        "details": "See {IERC20-transferFrom}. Emits an {Approval} event indicating the updated allowance. This is not required by the EIP. See the note at the beginning of {ERC20}. NOTE: Does not update the allowance if the current allowance is the maximum `uint256`. Requirements: - `from` and `to` cannot be the zero address. - `from` must have a balance of at least `amount`. - the caller must have allowance for ``from``'s tokens of at least `amount`."
      },
      "transferOwnership(address)": {
        "details": "Transfers ownership of the contract to a new account (`newOwner`). Can only be called by the current owner."
      }
    },
    "stateVariables": {
      "emissionsStartTime": {
        "details": "initialized in the constructor with block.timestamp"
      },
      "mintedInWeek": {
        "details": "week is computed using (timestamp - emissionStartTime) / WEEK"
      }
    },
    "title": "Tapioca OFT token",
    "version": 1
  },
  "userdoc": {
    "events": {
      "Burned(address,uint256)": {
        "notice": "event emitted when new TAP is burned"
      },
      "GovernanceChainIdentifierUpdated(uint256,uint256)": {
        "notice": "event emitted when the governance chain identifier is updated"
      },
      "Minted(address,address,uint256)": {
        "notice": "event emitted when new TAP is minted"
      },
      "MinterUpdated(address,address)": {
        "notice": "event emitted when a new minter is set"
      }
    },
    "kind": "user",
    "methods": {
      "WEEK()": {
        "notice": "seconds in a week"
      },
      "constructor": {
        "notice": "Creates a new TAP OFT type token"
      },
      "decimals()": {
        "notice": "returns token's decimals"
      },
      "emissionsStartTime()": {
        "notice": "starts time for emissions"
      },
      "emitForWeek()": {
        "notice": "-- Write methods --Emit the TAP for the current week"
      },
      "extractTAP(address,uint256)": {
        "notice": "extracts from the minted TAP"
      },
      "getCurrentWeekEmission()": {
        "notice": "Returns the current week emission"
      },
      "governanceChainIdentifier()": {
        "notice": "LayerZero governance chain identifier"
      },
      "mintedInWeek(uint256)": {
        "notice": "returns the amount minted for a specific week"
      },
      "minter()": {
        "notice": "returns the minter address"
      },
      "removeTAP(uint256)": {
        "notice": "burns TAP"
      },
      "setGovernanceChainIdentifier(uint256)": {
        "notice": "-- Owner methods --sets the governance chain identifier"
      },
      "setMinter(address)": {
        "notice": "sets a new minter address"
      },
      "timestampToWeek(uint256)": {
        "notice": "Returns the current week given a timestamp"
      }
    },
    "notice": "OFT compatible TAP token",
    "version": 1
  },
  "storageLayout": {
    "storage": [
      {
        "astId": 1728,
        "contract": "contracts/tokens/TapOFT.sol:TapOFT",
        "label": "_owner",
        "offset": 0,
        "slot": "0",
        "type": "t_address"
      },
      {
        "astId": 22520,
        "contract": "contracts/tokens/TapOFT.sol:TapOFT",
        "label": "trustedRemoteLookup",
        "offset": 0,
        "slot": "1",
        "type": "t_mapping(t_uint16,t_bytes_storage)"
      },
      {
        "astId": 22526,
        "contract": "contracts/tokens/TapOFT.sol:TapOFT",
        "label": "minDstGasLookup",
        "offset": 0,
        "slot": "2",
        "type": "t_mapping(t_uint16,t_mapping(t_uint16,t_uint256))"
      },
      {
        "astId": 22528,
        "contract": "contracts/tokens/TapOFT.sol:TapOFT",
        "label": "precrime",
        "offset": 0,
        "slot": "3",
        "type": "t_address"
      },
      {
        "astId": 23013,
        "contract": "contracts/tokens/TapOFT.sol:TapOFT",
        "label": "failedMessages",
        "offset": 0,
        "slot": "4",
        "type": "t_mapping(t_uint16,t_mapping(t_bytes_memory_ptr,t_mapping(t_uint64,t_bytes32)))"
      },
      {
        "astId": 23478,
        "contract": "contracts/tokens/TapOFT.sol:TapOFT",
        "label": "useCustomAdapterParams",
        "offset": 0,
        "slot": "5",
        "type": "t_bool"
      },
      {
        "astId": 2120,
        "contract": "contracts/tokens/TapOFT.sol:TapOFT",
        "label": "_balances",
        "offset": 0,
        "slot": "6",
        "type": "t_mapping(t_address,t_uint256)"
      },
      {
        "astId": 2126,
        "contract": "contracts/tokens/TapOFT.sol:TapOFT",
        "label": "_allowances",
        "offset": 0,
        "slot": "7",
        "type": "t_mapping(t_address,t_mapping(t_address,t_uint256))"
      },
      {
        "astId": 2128,
        "contract": "contracts/tokens/TapOFT.sol:TapOFT",
        "label": "_totalSupply",
        "offset": 0,
        "slot": "8",
        "type": "t_uint256"
      },
      {
        "astId": 2130,
        "contract": "contracts/tokens/TapOFT.sol:TapOFT",
        "label": "_name",
        "offset": 0,
        "slot": "9",
        "type": "t_string_storage"
      },
      {
        "astId": 2132,
        "contract": "contracts/tokens/TapOFT.sol:TapOFT",
        "label": "_symbol",
        "offset": 0,
        "slot": "10",
        "type": "t_string_storage"
      },
      {
        "astId": 1851,
        "contract": "contracts/tokens/TapOFT.sol:TapOFT",
        "label": "_paused",
        "offset": 0,
        "slot": "11",
        "type": "t_bool"
      },
      {
        "astId": 8224,
        "contract": "contracts/tokens/TapOFT.sol:TapOFT",
        "label": "dso_supply",
        "offset": 0,
        "slot": "12",
        "type": "t_uint256"
      },
      {
        "astId": 8243,
        "contract": "contracts/tokens/TapOFT.sol:TapOFT",
        "label": "mintedInWeek",
        "offset": 0,
        "slot": "13",
        "type": "t_mapping(t_uint256,t_uint256)"
      },
      {
        "astId": 8246,
        "contract": "contracts/tokens/TapOFT.sol:TapOFT",
        "label": "minter",
        "offset": 0,
        "slot": "14",
        "type": "t_address"
      },
      {
        "astId": 8249,
        "contract": "contracts/tokens/TapOFT.sol:TapOFT",
        "label": "governanceChainIdentifier",
        "offset": 0,
        "slot": "15",
        "type": "t_uint256"
      }
    ],
    "types": {
      "t_address": {
        "encoding": "inplace",
        "label": "address",
        "numberOfBytes": "20"
      },
      "t_bool": {
        "encoding": "inplace",
        "label": "bool",
        "numberOfBytes": "1"
      },
      "t_bytes32": {
        "encoding": "inplace",
        "label": "bytes32",
        "numberOfBytes": "32"
      },
      "t_bytes_memory_ptr": {
        "encoding": "bytes",
        "label": "bytes",
        "numberOfBytes": "32"
      },
      "t_bytes_storage": {
        "encoding": "bytes",
        "label": "bytes",
        "numberOfBytes": "32"
      },
      "t_mapping(t_address,t_mapping(t_address,t_uint256))": {
        "encoding": "mapping",
        "key": "t_address",
        "label": "mapping(address => mapping(address => uint256))",
        "numberOfBytes": "32",
        "value": "t_mapping(t_address,t_uint256)"
      },
      "t_mapping(t_address,t_uint256)": {
        "encoding": "mapping",
        "key": "t_address",
        "label": "mapping(address => uint256)",
        "numberOfBytes": "32",
        "value": "t_uint256"
      },
      "t_mapping(t_bytes_memory_ptr,t_mapping(t_uint64,t_bytes32))": {
        "encoding": "mapping",
        "key": "t_bytes_memory_ptr",
        "label": "mapping(bytes => mapping(uint64 => bytes32))",
        "numberOfBytes": "32",
        "value": "t_mapping(t_uint64,t_bytes32)"
      },
      "t_mapping(t_uint16,t_bytes_storage)": {
        "encoding": "mapping",
        "key": "t_uint16",
        "label": "mapping(uint16 => bytes)",
        "numberOfBytes": "32",
        "value": "t_bytes_storage"
      },
      "t_mapping(t_uint16,t_mapping(t_bytes_memory_ptr,t_mapping(t_uint64,t_bytes32)))": {
        "encoding": "mapping",
        "key": "t_uint16",
        "label": "mapping(uint16 => mapping(bytes => mapping(uint64 => bytes32)))",
        "numberOfBytes": "32",
        "value": "t_mapping(t_bytes_memory_ptr,t_mapping(t_uint64,t_bytes32))"
      },
      "t_mapping(t_uint16,t_mapping(t_uint16,t_uint256))": {
        "encoding": "mapping",
        "key": "t_uint16",
        "label": "mapping(uint16 => mapping(uint16 => uint256))",
        "numberOfBytes": "32",
        "value": "t_mapping(t_uint16,t_uint256)"
      },
      "t_mapping(t_uint16,t_uint256)": {
        "encoding": "mapping",
        "key": "t_uint16",
        "label": "mapping(uint16 => uint256)",
        "numberOfBytes": "32",
        "value": "t_uint256"
      },
      "t_mapping(t_uint256,t_uint256)": {
        "encoding": "mapping",
        "key": "t_uint256",
        "label": "mapping(uint256 => uint256)",
        "numberOfBytes": "32",
        "value": "t_uint256"
      },
      "t_mapping(t_uint64,t_bytes32)": {
        "encoding": "mapping",
        "key": "t_uint64",
        "label": "mapping(uint64 => bytes32)",
        "numberOfBytes": "32",
        "value": "t_bytes32"
      },
      "t_string_storage": {
        "encoding": "bytes",
        "label": "string",
        "numberOfBytes": "32"
      },
      "t_uint16": {
        "encoding": "inplace",
        "label": "uint16",
        "numberOfBytes": "2"
      },
      "t_uint256": {
        "encoding": "inplace",
        "label": "uint256",
        "numberOfBytes": "32"
      },
      "t_uint64": {
        "encoding": "inplace",
        "label": "uint64",
        "numberOfBytes": "8"
      }
    }
  }
}