{
  "address": "0x03ae2c12caF7Dc6A8f53869B3377cc6E13769449",
  "abi": [
    {
      "inputs": [
        {
          "internalType": "address",
          "name": "_lzEndpoint",
          "type": "address"
        },
        {
          "internalType": "address",
          "name": "_contributors",
          "type": "address"
        },
        {
          "internalType": "address",
          "name": "_investors",
          "type": "address"
        },
        {
          "internalType": "address",
          "name": "_lbp",
          "type": "address"
        },
        {
          "internalType": "address",
          "name": "_airdrop",
          "type": "address"
        },
        {
          "internalType": "uint16",
          "name": "_governanceChainId",
          "type": "uint16"
        }
      ],
      "stateMutability": "nonpayable",
      "type": "constructor"
    },
    {
      "anonymous": false,
      "inputs": [
        {
          "indexed": true,
          "internalType": "address",
          "name": "owner",
          "type": "address"
        },
        {
          "indexed": true,
          "internalType": "address",
          "name": "spender",
          "type": "address"
        },
        {
          "indexed": false,
          "internalType": "uint256",
          "name": "value",
          "type": "uint256"
        }
      ],
      "name": "Approval",
      "type": "event"
    },
    {
      "anonymous": false,
      "inputs": [
        {
          "indexed": true,
          "internalType": "address",
          "name": "_from",
          "type": "address"
        },
        {
          "indexed": false,
          "internalType": "uint256",
          "name": "_amount",
          "type": "uint256"
        }
      ],
      "name": "Burned",
      "type": "event"
    },
    {
      "anonymous": false,
      "inputs": [
        {
          "indexed": false,
          "internalType": "uint256",
          "name": "_old",
          "type": "uint256"
        },
        {
          "indexed": false,
          "internalType": "uint256",
          "name": "_new",
          "type": "uint256"
        }
      ],
      "name": "GovernanceChainIdentifierUpdated",
      "type": "event"
    },
    {
      "anonymous": false,
      "inputs": [
        {
          "indexed": false,
          "internalType": "uint16",
          "name": "_srcChainId",
          "type": "uint16"
        },
        {
          "indexed": false,
          "internalType": "bytes",
          "name": "_srcAddress",
          "type": "bytes"
        },
        {
          "indexed": false,
          "internalType": "uint64",
          "name": "_nonce",
          "type": "uint64"
        },
        {
          "indexed": false,
          "internalType": "bytes",
          "name": "_payload",
          "type": "bytes"
        },
        {
          "indexed": false,
          "internalType": "bytes",
          "name": "_reason",
          "type": "bytes"
        }
      ],
      "name": "MessageFailed",
      "type": "event"
    },
    {
      "anonymous": false,
      "inputs": [
        {
          "indexed": true,
          "internalType": "address",
          "name": "_by",
          "type": "address"
        },
        {
          "indexed": true,
          "internalType": "address",
          "name": "_to",
          "type": "address"
        },
        {
          "indexed": false,
          "internalType": "uint256",
          "name": "_amount",
          "type": "uint256"
        }
      ],
      "name": "Minted",
      "type": "event"
    },
    {
      "anonymous": false,
      "inputs": [
        {
          "indexed": true,
          "internalType": "address",
          "name": "_old",
          "type": "address"
        },
        {
          "indexed": true,
          "internalType": "address",
          "name": "_new",
          "type": "address"
        }
      ],
      "name": "MinterUpdated",
      "type": "event"
    },
    {
      "anonymous": false,
      "inputs": [
        {
          "indexed": true,
          "internalType": "address",
          "name": "previousOwner",
          "type": "address"
        },
        {
          "indexed": true,
          "internalType": "address",
          "name": "newOwner",
          "type": "address"
        }
      ],
      "name": "OwnershipTransferred",
      "type": "event"
    },
    {
      "anonymous": false,
      "inputs": [
        {
          "indexed": false,
          "internalType": "address",
          "name": "account",
          "type": "address"
        }
      ],
      "name": "Paused",
      "type": "event"
    },
    {
      "anonymous": false,
      "inputs": [
        {
          "indexed": true,
          "internalType": "uint16",
          "name": "_srcChainId",
          "type": "uint16"
        },
        {
          "indexed": true,
          "internalType": "address",
          "name": "_to",
          "type": "address"
        },
        {
          "indexed": false,
          "internalType": "uint256",
          "name": "_amount",
          "type": "uint256"
        }
      ],
      "name": "ReceiveFromChain",
      "type": "event"
    },
    {
      "anonymous": false,
      "inputs": [
        {
          "indexed": false,
          "internalType": "uint16",
          "name": "_srcChainId",
          "type": "uint16"
        },
        {
          "indexed": false,
          "internalType": "bytes",
          "name": "_srcAddress",
          "type": "bytes"
        },
        {
          "indexed": false,
          "internalType": "uint64",
          "name": "_nonce",
          "type": "uint64"
        },
        {
          "indexed": false,
          "internalType": "bytes32",
          "name": "_payloadHash",
          "type": "bytes32"
        }
      ],
      "name": "RetryMessageSuccess",
      "type": "event"
    },
    {
      "anonymous": false,
      "inputs": [
        {
          "indexed": true,
          "internalType": "uint16",
          "name": "_dstChainId",
          "type": "uint16"
        },
        {
          "indexed": true,
          "internalType": "address",
          "name": "_from",
          "type": "address"
        },
        {
          "indexed": false,
          "internalType": "bytes",
          "name": "_toAddress",
          "type": "bytes"
        },
        {
          "indexed": false,
          "internalType": "uint256",
          "name": "_amount",
          "type": "uint256"
        }
      ],
      "name": "SendToChain",
      "type": "event"
    },
    {
      "anonymous": false,
      "inputs": [
        {
          "indexed": false,
          "internalType": "uint16",
          "name": "_dstChainId",
          "type": "uint16"
        },
        {
          "indexed": false,
          "internalType": "uint16",
          "name": "_type",
          "type": "uint16"
        },
        {
          "indexed": false,
          "internalType": "uint256",
          "name": "_minDstGas",
          "type": "uint256"
        }
      ],
      "name": "SetMinDstGas",
      "type": "event"
    },
    {
      "anonymous": false,
      "inputs": [
        {
          "indexed": false,
          "internalType": "address",
          "name": "precrime",
          "type": "address"
        }
      ],
      "name": "SetPrecrime",
      "type": "event"
    },
    {
      "anonymous": false,
      "inputs": [
        {
          "indexed": false,
          "internalType": "uint16",
          "name": "_remoteChainId",
          "type": "uint16"
        },
        {
          "indexed": false,
          "internalType": "bytes",
          "name": "_path",
          "type": "bytes"
        }
      ],
      "name": "SetTrustedRemote",
      "type": "event"
    },
    {
      "anonymous": false,
      "inputs": [
        {
          "indexed": false,
          "internalType": "uint16",
          "name": "_remoteChainId",
          "type": "uint16"
        },
        {
          "indexed": false,
          "internalType": "bytes",
          "name": "_remoteAddress",
          "type": "bytes"
        }
      ],
      "name": "SetTrustedRemoteAddress",
      "type": "event"
    },
    {
      "anonymous": false,
      "inputs": [
        {
          "indexed": false,
          "internalType": "bool",
          "name": "_useCustomAdapterParams",
          "type": "bool"
        }
      ],
      "name": "SetUseCustomAdapterParams",
      "type": "event"
    },
    {
      "anonymous": false,
      "inputs": [
        {
          "indexed": true,
          "internalType": "address",
          "name": "from",
          "type": "address"
        },
        {
          "indexed": true,
          "internalType": "address",
          "name": "to",
          "type": "address"
        },
        {
          "indexed": false,
          "internalType": "uint256",
          "name": "value",
          "type": "uint256"
        }
      ],
      "name": "Transfer",
      "type": "event"
    },
    {
      "anonymous": false,
      "inputs": [
        {
          "indexed": false,
          "internalType": "address",
          "name": "account",
          "type": "address"
        }
      ],
      "name": "Unpaused",
      "type": "event"
    },
    {
      "inputs": [],
      "name": "DEFAULT_PAYLOAD_SIZE_LIMIT",
      "outputs": [
        {
          "internalType": "uint256",
          "name": "",
          "type": "uint256"
        }
      ],
      "stateMutability": "view",
      "type": "function"
    },
    {
      "inputs": [],
      "name": "INITIAL_SUPPLY",
      "outputs": [
        {
          "internalType": "uint256",
          "name": "",
          "type": "uint256"
        }
      ],
      "stateMutability": "view",
      "type": "function"
    },
    {
      "inputs": [],
      "name": "NO_EXTRA_GAS",
      "outputs": [
        {
          "internalType": "uint256",
          "name": "",
          "type": "uint256"
        }
      ],
      "stateMutability": "view",
      "type": "function"
    },
    {
      "inputs": [],
      "name": "PT_SEND",
      "outputs": [
        {
          "internalType": "uint16",
          "name": "",
          "type": "uint16"
        }
      ],
      "stateMutability": "view",
      "type": "function"
    },
    {
      "inputs": [],
      "name": "WEEK",
      "outputs": [
        {
          "internalType": "uint256",
          "name": "",
          "type": "uint256"
        }
      ],
      "stateMutability": "view",
      "type": "function"
    },
    {
      "inputs": [
        {
          "internalType": "address",
          "name": "owner",
          "type": "address"
        },
        {
          "internalType": "address",
          "name": "spender",
          "type": "address"
        }
      ],
      "name": "allowance",
      "outputs": [
        {
          "internalType": "uint256",
          "name": "",
          "type": "uint256"
        }
      ],
      "stateMutability": "view",
      "type": "function"
    },
    {
      "inputs": [
        {
          "internalType": "address",
          "name": "spender",
          "type": "address"
        },
        {
          "internalType": "uint256",
          "name": "amount",
          "type": "uint256"
        }
      ],
      "name": "approve",
      "outputs": [
        {
          "internalType": "bool",
          "name": "",
          "type": "bool"
        }
      ],
      "stateMutability": "nonpayable",
      "type": "function"
    },
    {
      "inputs": [
        {
          "internalType": "address",
          "name": "account",
          "type": "address"
        }
      ],
      "name": "balanceOf",
      "outputs": [
        {
          "internalType": "uint256",
          "name": "",
          "type": "uint256"
        }
      ],
      "stateMutability": "view",
      "type": "function"
    },
    {
      "inputs": [],
      "name": "circulatingSupply",
      "outputs": [
        {
          "internalType": "uint256",
          "name": "",
          "type": "uint256"
        }
      ],
      "stateMutability": "view",
      "type": "function"
    },
    {
      "inputs": [],
      "name": "decimals",
      "outputs": [
        {
          "internalType": "uint8",
          "name": "",
          "type": "uint8"
        }
      ],
      "stateMutability": "pure",
      "type": "function"
    },
    {
      "inputs": [
        {
          "internalType": "address",
          "name": "spender",
          "type": "address"
        },
        {
          "internalType": "uint256",
          "name": "subtractedValue",
          "type": "uint256"
        }
      ],
      "name": "decreaseAllowance",
      "outputs": [
        {
          "internalType": "bool",
          "name": "",
          "type": "bool"
        }
      ],
      "stateMutability": "nonpayable",
      "type": "function"
    },
    {
      "inputs": [],
      "name": "dso_supply",
      "outputs": [
        {
          "internalType": "uint256",
          "name": "",
          "type": "uint256"
        }
      ],
      "stateMutability": "view",
      "type": "function"
    },
    {
      "inputs": [],
      "name": "emissionsStartTime",
      "outputs": [
        {
          "internalType": "uint256",
          "name": "",
          "type": "uint256"
        }
      ],
      "stateMutability": "view",
      "type": "function"
    },
    {
      "inputs": [],
      "name": "emitForWeek",
      "outputs": [
        {
          "internalType": "uint256",
          "name": "",
          "type": "uint256"
        }
      ],
      "stateMutability": "nonpayable",
      "type": "function"
    },
    {
      "inputs": [
        {
          "internalType": "uint16",
          "name": "_dstChainId",
          "type": "uint16"
        },
        {
          "internalType": "bytes",
          "name": "_toAddress",
          "type": "bytes"
        },
        {
          "internalType": "uint256",
          "name": "_amount",
          "type": "uint256"
        },
        {
          "internalType": "bool",
          "name": "_useZro",
          "type": "bool"
        },
        {
          "internalType": "bytes",
          "name": "_adapterParams",
          "type": "bytes"
        }
      ],
      "name": "estimateSendFee",
      "outputs": [
        {
          "internalType": "uint256",
          "name": "nativeFee",
          "type": "uint256"
        },
        {
          "internalType": "uint256",
          "name": "zroFee",
          "type": "uint256"
        }
      ],
      "stateMutability": "view",
      "type": "function"
    },
    {
      "inputs": [
        {
          "internalType": "address",
          "name": "_to",
          "type": "address"
        },
        {
          "internalType": "uint256",
          "name": "_amount",
          "type": "uint256"
        }
      ],
      "name": "extractTAP",
      "outputs": [],
      "stateMutability": "nonpayable",
      "type": "function"
    },
    {
      "inputs": [
        {
          "internalType": "uint16",
          "name": "",
          "type": "uint16"
        },
        {
          "internalType": "bytes",
          "name": "",
          "type": "bytes"
        },
        {
          "internalType": "uint64",
          "name": "",
          "type": "uint64"
        }
      ],
      "name": "failedMessages",
      "outputs": [
        {
          "internalType": "bytes32",
          "name": "",
          "type": "bytes32"
        }
      ],
      "stateMutability": "view",
      "type": "function"
    },
    {
      "inputs": [
        {
          "internalType": "uint16",
          "name": "_srcChainId",
          "type": "uint16"
        },
        {
          "internalType": "bytes",
          "name": "_srcAddress",
          "type": "bytes"
        }
      ],
      "name": "forceResumeReceive",
      "outputs": [],
      "stateMutability": "nonpayable",
      "type": "function"
    },
    {
      "inputs": [
        {
          "internalType": "uint16",
          "name": "_version",
          "type": "uint16"
        },
        {
          "internalType": "uint16",
          "name": "_chainId",
          "type": "uint16"
        },
        {
          "internalType": "address",
          "name": "",
          "type": "address"
        },
        {
          "internalType": "uint256",
          "name": "_configType",
          "type": "uint256"
        }
      ],
      "name": "getConfig",
      "outputs": [
        {
          "internalType": "bytes",
          "name": "",
          "type": "bytes"
        }
      ],
      "stateMutability": "view",
      "type": "function"
    },
    {
      "inputs": [],
      "name": "getCurrentWeekEmission",
      "outputs": [
        {
          "internalType": "uint256",
          "name": "",
          "type": "uint256"
        }
      ],
      "stateMutability": "view",
      "type": "function"
    },
    {
      "inputs": [
        {
          "internalType": "uint16",
          "name": "_remoteChainId",
          "type": "uint16"
        }
      ],
      "name": "getTrustedRemoteAddress",
      "outputs": [
        {
          "internalType": "bytes",
          "name": "",
          "type": "bytes"
        }
      ],
      "stateMutability": "view",
      "type": "function"
    },
    {
      "inputs": [],
      "name": "governanceChainIdentifier",
      "outputs": [
        {
          "internalType": "uint256",
          "name": "",
          "type": "uint256"
        }
      ],
      "stateMutability": "view",
      "type": "function"
    },
    {
      "inputs": [
        {
          "internalType": "address",
          "name": "spender",
          "type": "address"
        },
        {
          "internalType": "uint256",
          "name": "addedValue",
          "type": "uint256"
        }
      ],
      "name": "increaseAllowance",
      "outputs": [
        {
          "internalType": "bool",
          "name": "",
          "type": "bool"
        }
      ],
      "stateMutability": "nonpayable",
      "type": "function"
    },
    {
      "inputs": [
        {
          "internalType": "uint16",
          "name": "_srcChainId",
          "type": "uint16"
        },
        {
          "internalType": "bytes",
          "name": "_srcAddress",
          "type": "bytes"
        }
      ],
      "name": "isTrustedRemote",
      "outputs": [
        {
          "internalType": "bool",
          "name": "",
          "type": "bool"
        }
      ],
      "stateMutability": "view",
      "type": "function"
    },
    {
      "inputs": [],
      "name": "lzEndpoint",
      "outputs": [
        {
          "internalType": "contract ILayerZeroEndpoint",
          "name": "",
          "type": "address"
        }
      ],
      "stateMutability": "view",
      "type": "function"
    },
    {
      "inputs": [
        {
          "internalType": "uint16",
          "name": "_srcChainId",
          "type": "uint16"
        },
        {
          "internalType": "bytes",
          "name": "_srcAddress",
          "type": "bytes"
        },
        {
          "internalType": "uint64",
          "name": "_nonce",
          "type": "uint64"
        },
        {
          "internalType": "bytes",
          "name": "_payload",
          "type": "bytes"
        }
      ],
      "name": "lzReceive",
      "outputs": [],
      "stateMutability": "nonpayable",
      "type": "function"
    },
    {
      "inputs": [
        {
          "internalType": "uint16",
          "name": "",
          "type": "uint16"
        },
        {
          "internalType": "uint16",
          "name": "",
          "type": "uint16"
        }
      ],
      "name": "minDstGasLookup",
      "outputs": [
        {
          "internalType": "uint256",
          "name": "",
          "type": "uint256"
        }
      ],
      "stateMutability": "view",
      "type": "function"
    },
    {
      "inputs": [
        {
          "internalType": "uint256",
          "name": "",
          "type": "uint256"
        }
      ],
      "name": "mintedInWeek",
      "outputs": [
        {
          "internalType": "uint256",
          "name": "",
          "type": "uint256"
        }
      ],
      "stateMutability": "view",
      "type": "function"
    },
    {
      "inputs": [],
      "name": "minter",
      "outputs": [
        {
          "internalType": "address",
          "name": "",
          "type": "address"
        }
      ],
      "stateMutability": "view",
      "type": "function"
    },
    {
      "inputs": [],
      "name": "name",
      "outputs": [
        {
          "internalType": "string",
          "name": "",
          "type": "string"
        }
      ],
      "stateMutability": "view",
      "type": "function"
    },
    {
      "inputs": [
        {
          "internalType": "uint16",
          "name": "_srcChainId",
          "type": "uint16"
        },
        {
          "internalType": "bytes",
          "name": "_srcAddress",
          "type": "bytes"
        },
        {
          "internalType": "uint64",
          "name": "_nonce",
          "type": "uint64"
        },
        {
          "internalType": "bytes",
          "name": "_payload",
          "type": "bytes"
        }
      ],
      "name": "nonblockingLzReceive",
      "outputs": [],
      "stateMutability": "nonpayable",
      "type": "function"
    },
    {
      "inputs": [],
      "name": "owner",
      "outputs": [
        {
          "internalType": "address",
          "name": "",
          "type": "address"
        }
      ],
      "stateMutability": "view",
      "type": "function"
    },
    {
      "inputs": [
        {
          "internalType": "bool",
          "name": "pause",
          "type": "bool"
        }
      ],
      "name": "pauseSendTokens",
      "outputs": [],
      "stateMutability": "nonpayable",
      "type": "function"
    },
    {
      "inputs": [],
      "name": "paused",
      "outputs": [
        {
          "internalType": "bool",
          "name": "",
          "type": "bool"
        }
      ],
      "stateMutability": "view",
      "type": "function"
    },
    {
      "inputs": [
        {
          "internalType": "uint16",
          "name": "",
          "type": "uint16"
        }
      ],
      "name": "payloadSizeLimitLookup",
      "outputs": [
        {
          "internalType": "uint256",
          "name": "",
          "type": "uint256"
        }
      ],
      "stateMutability": "view",
      "type": "function"
    },
    {
      "inputs": [],
      "name": "precrime",
      "outputs": [
        {
          "internalType": "address",
          "name": "",
          "type": "address"
        }
      ],
      "stateMutability": "view",
      "type": "function"
    },
    {
      "inputs": [
        {
          "internalType": "uint256",
          "name": "_amount",
          "type": "uint256"
        }
      ],
      "name": "removeTAP",
      "outputs": [],
      "stateMutability": "nonpayable",
      "type": "function"
    },
    {
      "inputs": [],
      "name": "renounceOwnership",
      "outputs": [],
      "stateMutability": "nonpayable",
      "type": "function"
    },
    {
      "inputs": [
        {
          "internalType": "uint16",
          "name": "_srcChainId",
          "type": "uint16"
        },
        {
          "internalType": "bytes",
          "name": "_srcAddress",
          "type": "bytes"
        },
        {
          "internalType": "uint64",
          "name": "_nonce",
          "type": "uint64"
        },
        {
          "internalType": "bytes",
          "name": "_payload",
          "type": "bytes"
        }
      ],
      "name": "retryMessage",
      "outputs": [],
      "stateMutability": "payable",
      "type": "function"
    },
    {
      "inputs": [
        {
          "internalType": "address",
          "name": "_from",
          "type": "address"
        },
        {
          "internalType": "uint16",
          "name": "_dstChainId",
          "type": "uint16"
        },
        {
          "internalType": "bytes",
          "name": "_toAddress",
          "type": "bytes"
        },
        {
          "internalType": "uint256",
          "name": "_amount",
          "type": "uint256"
        },
        {
          "internalType": "address payable",
          "name": "_refundAddress",
          "type": "address"
        },
        {
          "internalType": "address",
          "name": "_zroPaymentAddress",
          "type": "address"
        },
        {
          "internalType": "bytes",
          "name": "_adapterParams",
          "type": "bytes"
        }
      ],
      "name": "sendFrom",
      "outputs": [],
      "stateMutability": "payable",
      "type": "function"
    },
    {
      "inputs": [
        {
          "internalType": "uint16",
          "name": "_version",
          "type": "uint16"
        },
        {
          "internalType": "uint16",
          "name": "_chainId",
          "type": "uint16"
        },
        {
          "internalType": "uint256",
          "name": "_configType",
          "type": "uint256"
        },
        {
          "internalType": "bytes",
          "name": "_config",
          "type": "bytes"
        }
      ],
      "name": "setConfig",
      "outputs": [],
      "stateMutability": "nonpayable",
      "type": "function"
    },
    {
      "inputs": [
        {
          "internalType": "uint256",
          "name": "_identifier",
          "type": "uint256"
        }
      ],
      "name": "setGovernanceChainIdentifier",
      "outputs": [],
      "stateMutability": "nonpayable",
      "type": "function"
    },
    {
      "inputs": [
        {
          "internalType": "uint16",
          "name": "_dstChainId",
          "type": "uint16"
        },
        {
          "internalType": "uint16",
          "name": "_packetType",
          "type": "uint16"
        },
        {
          "internalType": "uint256",
          "name": "_minGas",
          "type": "uint256"
        }
      ],
      "name": "setMinDstGas",
      "outputs": [],
      "stateMutability": "nonpayable",
      "type": "function"
    },
    {
      "inputs": [
        {
          "internalType": "address",
          "name": "_minter",
          "type": "address"
        }
      ],
      "name": "setMinter",
      "outputs": [],
      "stateMutability": "nonpayable",
      "type": "function"
    },
    {
      "inputs": [
        {
          "internalType": "uint16",
          "name": "_dstChainId",
          "type": "uint16"
        },
        {
          "internalType": "uint256",
          "name": "_size",
          "type": "uint256"
        }
      ],
      "name": "setPayloadSizeLimit",
      "outputs": [],
      "stateMutability": "nonpayable",
      "type": "function"
    },
    {
      "inputs": [
        {
          "internalType": "address",
          "name": "_precrime",
          "type": "address"
        }
      ],
      "name": "setPrecrime",
      "outputs": [],
      "stateMutability": "nonpayable",
      "type": "function"
    },
    {
      "inputs": [
        {
          "internalType": "uint16",
          "name": "_version",
          "type": "uint16"
        }
      ],
      "name": "setReceiveVersion",
      "outputs": [],
      "stateMutability": "nonpayable",
      "type": "function"
    },
    {
      "inputs": [
        {
          "internalType": "uint16",
          "name": "_version",
          "type": "uint16"
        }
      ],
      "name": "setSendVersion",
      "outputs": [],
      "stateMutability": "nonpayable",
      "type": "function"
    },
    {
      "inputs": [
        {
          "internalType": "uint16",
          "name": "_srcChainId",
          "type": "uint16"
        },
        {
          "internalType": "bytes",
          "name": "_path",
          "type": "bytes"
        }
      ],
      "name": "setTrustedRemote",
      "outputs": [],
      "stateMutability": "nonpayable",
      "type": "function"
    },
    {
      "inputs": [
        {
          "internalType": "uint16",
          "name": "_remoteChainId",
          "type": "uint16"
        },
        {
          "internalType": "bytes",
          "name": "_remoteAddress",
          "type": "bytes"
        }
      ],
      "name": "setTrustedRemoteAddress",
      "outputs": [],
      "stateMutability": "nonpayable",
      "type": "function"
    },
    {
      "inputs": [
        {
          "internalType": "bool",
          "name": "_useCustomAdapterParams",
          "type": "bool"
        }
      ],
      "name": "setUseCustomAdapterParams",
      "outputs": [],
      "stateMutability": "nonpayable",
      "type": "function"
    },
    {
      "inputs": [
        {
          "internalType": "bytes4",
          "name": "interfaceId",
          "type": "bytes4"
        }
      ],
      "name": "supportsInterface",
      "outputs": [
        {
          "internalType": "bool",
          "name": "",
          "type": "bool"
        }
      ],
      "stateMutability": "view",
      "type": "function"
    },
    {
      "inputs": [],
      "name": "symbol",
      "outputs": [
        {
          "internalType": "string",
          "name": "",
          "type": "string"
        }
      ],
      "stateMutability": "view",
      "type": "function"
    },
    {
      "inputs": [
        {
          "internalType": "uint256",
          "name": "timestamp",
          "type": "uint256"
        }
      ],
      "name": "timestampToWeek",
      "outputs": [
        {
          "internalType": "uint256",
          "name": "",
          "type": "uint256"
        }
      ],
      "stateMutability": "view",
      "type": "function"
    },
    {
      "inputs": [],
      "name": "token",
      "outputs": [
        {
          "internalType": "address",
          "name": "",
          "type": "address"
        }
      ],
      "stateMutability": "view",
      "type": "function"
    },
    {
      "inputs": [],
      "name": "totalSupply",
      "outputs": [
        {
          "internalType": "uint256",
          "name": "",
          "type": "uint256"
        }
      ],
      "stateMutability": "view",
      "type": "function"
    },
    {
      "inputs": [
        {
          "internalType": "address",
          "name": "to",
          "type": "address"
        },
        {
          "internalType": "uint256",
          "name": "amount",
          "type": "uint256"
        }
      ],
      "name": "transfer",
      "outputs": [
        {
          "internalType": "bool",
          "name": "",
          "type": "bool"
        }
      ],
      "stateMutability": "nonpayable",
      "type": "function"
    },
    {
      "inputs": [
        {
          "internalType": "address",
          "name": "from",
          "type": "address"
        },
        {
          "internalType": "address",
          "name": "to",
          "type": "address"
        },
        {
          "internalType": "uint256",
          "name": "amount",
          "type": "uint256"
        }
      ],
      "name": "transferFrom",
      "outputs": [
        {
          "internalType": "bool",
          "name": "",
          "type": "bool"
        }
      ],
      "stateMutability": "nonpayable",
      "type": "function"
    },
    {
      "inputs": [
        {
          "internalType": "address",
          "name": "newOwner",
          "type": "address"
        }
      ],
      "name": "transferOwnership",
      "outputs": [],
      "stateMutability": "nonpayable",
      "type": "function"
    },
    {
      "inputs": [
        {
          "internalType": "uint16",
          "name": "",
          "type": "uint16"
        }
      ],
      "name": "trustedRemoteLookup",
      "outputs": [
        {
          "internalType": "bytes",
          "name": "",
          "type": "bytes"
        }
      ],
      "stateMutability": "view",
      "type": "function"
    },
    {
      "inputs": [],
      "name": "useCustomAdapterParams",
      "outputs": [
        {
          "internalType": "bool",
          "name": "",
          "type": "bool"
        }
      ],
      "stateMutability": "view",
      "type": "function"
    }
  ],
  "transactionHash": "0x4b12c6fa750f273388e73c792254f5d6ceb7e551537710d62b8159e58de374c7",
  "args": [
    "0xbfD2135BFfbb0B5378b56643c2Df8a87552Bfa23",
    "0x40282d3Cf4890D9806BC1853e97a59C93D813653",
    "0x40282d3Cf4890D9806BC1853e97a59C93D813653",
    "0x40282d3Cf4890D9806BC1853e97a59C93D813653",
    "0x40282d3Cf4890D9806BC1853e97a59C93D813653",
    "5"
  ],
  "numDeployments": 1,
  "solcInputHash": "cb3ce2c63d484d89ed69fd26d0ba8778",
  "bytecode": "0x60c06040526a3701ec39383bba52800000600d553480156200002057600080fd5b50604051620042783803806200427883398101604081905262000043916200040e565b60405180604001604052806007815260200166546170696f636160c81b8152506040518060400160405280600381526020016205441560ec1b815250878282828282828080620000a26200009c6200023260201b60201c565b62000236565b6001600160a01b031660805250508151620000c590600a9060208501906200034b565b508051620000db90600b9060208401906200034b565b5050600c805460ff1916905550505050506001600160a01b038816151591506200014e90505760405162461bcd60e51b815260206004820152601560248201527f4c5a20656e64706f696e74206e6f742076616c6964000000000000000000000060448201526064015b60405180910390fd5b61ffff81166010819055461415620002215762000177856a0c685fa11e01ec6f00000062000286565b6200018e846a09195731e2ce35eb00000062000286565b620001a5836a0422ca8b0a00a42500000062000286565b620001bc826a021165458500521280000062000286565b6a1bb5e6a38fd11891800000620001d260095490565b14620002215760405162461bcd60e51b815260206004820152601860248201527f696e697469616c20737570706c79206e6f742076616c69640000000000000000604482015260640162000145565b50504260a05250620004fd92505050565b3390565b600080546001600160a01b038381166001600160a01b0319831681178455604051919092169283917f8be0079c531659141344cd1fd0a4f28419497f9722a3daafe3b4186f6b6457e09190a35050565b6001600160a01b038216620002de5760405162461bcd60e51b815260206004820152601f60248201527f45524332303a206d696e7420746f20746865207a65726f206164647265737300604482015260640162000145565b8060096000828254620002f2919062000499565b90915550506001600160a01b0382166000818152600760209081526040808320805486019055518481527fddf252ad1be2c89b69c2b068fc378daa952ba7f163c4a11628f55a4df523b3ef910160405180910390a35050565b8280546200035990620004c0565b90600052602060002090601f0160209004810192826200037d5760008555620003c8565b82601f106200039857805160ff1916838001178555620003c8565b82800160010185558215620003c8579182015b82811115620003c8578251825591602001919060010190620003ab565b50620003d6929150620003da565b5090565b5b80821115620003d65760008155600101620003db565b80516001600160a01b03811681146200040957600080fd5b919050565b60008060008060008060c087890312156200042857600080fd5b6200043387620003f1565b95506200044360208801620003f1565b94506200045360408801620003f1565b93506200046360608801620003f1565b92506200047360808801620003f1565b915060a087015161ffff811681146200048b57600080fd5b809150509295509295509295565b60008219821115620004bb57634e487b7160e01b600052601160045260246000fd5b500190565b600181811c90821680620004d557607f821691505b60208210811415620004f757634e487b7160e01b600052602260045260246000fd5b50919050565b60805160a051613d0f620005696000396000818161064b01528181610e9f015261221c01526000818161090101528181610af301528181610e1201528181610f1601528181611021015281816111cd0152818161199701528181611e5f0152612c7f0152613d0f6000f3fe6080604052600436106103215760003560e01c806370a08231116101a7578063baf3292d116100ed578063ed629c5c11610090578063ed629c5c14610a0c578063f187892214610a26578063f2fde38b14610a46578063f4359ce514610a66578063f5ecbdbc14610a7d578063fb98faf414610a9d578063fc0c546a14610abd578063fca3b5aa14610ad057600080fd5b8063baf3292d14610923578063c446183414610943578063cbed8b9c14610959578063d1deba1f14610979578063dd62ed3e1461098c578063df2a5b3b146109ac578063eab45d9c146109cc578063eb8d72b7146109ec57600080fd5b8063950c8a7411610155578063950c8a741461082557806395d89b41146108455780639f38369a1461085a578063a2a4b99b1461087a578063a457c2d71461088f578063a6c3d165146108af578063a9059cbb146108cf578063b353aaa7146108ef57600080fd5b806370a082311461074f578063715018a61461076f5780637533d7881461078457806387f00abc146107a45780638cfd8f5c146107ba5780638da5cb5b146107f25780639358928b1461081057600080fd5b80632ff2e9dc1161026c578063447705151161021a578063447705151461062457806348b0daa6146106395780634c42899a1461066d5780634eb8c3081461069557806351905636146106b55780635b8c41e6146106c85780635c975abb1461071757806366ad5c8a1461072f57600080fd5b80632ff2e9dc1461052f578063313ce5671461054e578063395093511461056a5780633d8b38f61461058a5780633f1f4fa4146105aa57806342d65a8d146105d757806342e32e25146105f757600080fd5b80630df37483116102d45780630df374831461043a57806310ddb1371461045a57806318160ddd1461047a5780631ed2bdb81461048f57806323b872dd146104a457806328d7eb97146104c45780632930fc77146104da5780632a205e3d146104fa57600080fd5b80621d35671461032657806301ffc9a71461034857806306fdde031461037d578063075461721461039f57806307e0db17146103cc578063095ea7b3146103ec57806309b489fd1461040c575b600080fd5b34801561033257600080fd5b506103466103413660046131a2565b610af0565b005b34801561035457600080fd5b50610368610363366004613237565b610d21565b60405190151581526020015b60405180910390f35b34801561038957600080fd5b50610392610d5f565b60405161037491906132b9565b3480156103ab57600080fd5b50600f546103bf906001600160a01b031681565b60405161037491906132cc565b3480156103d857600080fd5b506103466103e73660046132e0565b610df1565b3480156103f857600080fd5b50610368610407366004613312565b610e7a565b34801561041857600080fd5b5061042c61042736600461333e565b610e92565b604051908152602001610374565b34801561044657600080fd5b50610346610455366004613357565b610ed6565b34801561046657600080fd5b506103466104753660046132e0565b610ef5565b34801561048657600080fd5b5060095461042c565b34801561049b57600080fd5b5061042c610f4d565b3480156104b057600080fd5b506103686104bf366004613375565b610f70565b3480156104d057600080fd5b5061042c60105481565b3480156104e657600080fd5b506103466104f536600461333e565b610f94565b34801561050657600080fd5b5061051a6105153660046133c6565b610fde565b60408051928352602083019190915201610374565b34801561053b57600080fd5b5061042c6a1bb5e6a38fd1189180000081565b34801561055a57600080fd5b5060405160128152602001610374565b34801561057657600080fd5b50610368610585366004613312565b6110c0565b34801561059657600080fd5b506103686105a5366004613465565b6110e2565b3480156105b657600080fd5b5061042c6105c53660046132e0565b60036020526000908152604090205481565b3480156105e357600080fd5b506103466105f2366004613465565b6111ae565b34801561060357600080fd5b5061042c61061236600461333e565b600e6020526000908152604090205481565b34801561063057600080fd5b5061042c600081565b34801561064557600080fd5b5061042c7f000000000000000000000000000000000000000000000000000000000000000081565b34801561067957600080fd5b50610682600081565b60405161ffff9091168152602001610374565b3480156106a157600080fd5b506103466106b0366004613312565b611234565b6103466106c33660046134b9565b611330565b3480156106d457600080fd5b5061042c6106e33660046135ef565b6005602090815260009384526040808520845180860184018051928152908401958401959095209452929052825290205481565b34801561072357600080fd5b50600c5460ff16610368565b34801561073b57600080fd5b5061034661074a3660046131a2565b6113b5565b34801561075b57600080fd5b5061042c61076a366004613691565b611491565b34801561077b57600080fd5b506103466114ac565b34801561079057600080fd5b5061039261079f3660046132e0565b6114c0565b3480156107b057600080fd5b5061042c600d5481565b3480156107c657600080fd5b5061042c6107d53660046136ae565b600260209081526000928352604080842090915290825290205481565b3480156107fe57600080fd5b506000546001600160a01b03166103bf565b34801561081c57600080fd5b5061042c61155a565b34801561083157600080fd5b506004546103bf906001600160a01b031681565b34801561085157600080fd5b5061039261156a565b34801561086657600080fd5b506103926108753660046132e0565b611579565b34801561088657600080fd5b5061042c611690565b34801561089b57600080fd5b506103686108aa366004613312565b6117fe565b3480156108bb57600080fd5b506103466108ca366004613465565b611879565b3480156108db57600080fd5b506103686108ea366004613312565b61190c565b3480156108fb57600080fd5b506103bf7f000000000000000000000000000000000000000000000000000000000000000081565b34801561092f57600080fd5b5061034661093e366004613691565b61191a565b34801561094f57600080fd5b5061042c61271081565b34801561096557600080fd5b506103466109743660046136e7565b611978565b6103466109873660046131a2565b611a02565b34801561099857600080fd5b5061042c6109a7366004613759565b611c18565b3480156109b857600080fd5b506103466109c7366004613787565b611c43565b3480156109d857600080fd5b506103466109e73660046137b7565b611cf5565b3480156109f857600080fd5b50610346610a07366004613465565b611d3e565b348015610a1857600080fd5b506006546103689060ff1681565b348015610a3257600080fd5b50610346610a413660046137b7565b611d98565b348015610a5257600080fd5b50610346610a61366004613691565b611db8565b348015610a7257600080fd5b5061042c62093a8081565b348015610a8957600080fd5b50610392610a983660046137d2565b611e2e565b348015610aa957600080fd5b50610346610ab836600461333e565b611eee565b348015610ac957600080fd5b50306103bf565b348015610adc57600080fd5b50610346610aeb366004613691565b611f37565b337f00000000000000000000000000000000000000000000000000000000000000006001600160a01b031614610b6d5760405162461bcd60e51b815260206004820152601e60248201527f4c7a4170703a20696e76616c696420656e64706f696e742063616c6c6572000060448201526064015b60405180910390fd5b61ffff861660009081526001602052604081208054610b8b90613823565b80601f0160208091040260200160405190810160405280929190818152602001828054610bb790613823565b8015610c045780601f10610bd957610100808354040283529160200191610c04565b820191906000526020600020905b815481529060010190602001808311610be757829003601f168201915b50505050509050805186869050148015610c1f575060008151115b8015610c47575080516020820120604051610c3d908890889061385e565b6040518091039020145b610ca25760405162461bcd60e51b815260206004820152602660248201527f4c7a4170703a20696e76616c696420736f757263652073656e64696e6720636f6044820152651b9d1c9858dd60d21b6064820152608401610b64565b610d188787878080601f01602080910402602001604051908101604052809392919081815260200183838082843760009201919091525050604080516020601f8a018190048102820181019092528881528a935091508890889081908401838280828437600092019190915250611fe592505050565b50505050505050565b60006001600160e01b031982161580610d4a57506001600160e01b031982166336372b0760e01b145b80610d595750610d598261205e565b92915050565b6060600a8054610d6e90613823565b80601f0160208091040260200160405190810160405280929190818152602001828054610d9a90613823565b8015610de75780601f10610dbc57610100808354040283529160200191610de7565b820191906000526020600020905b815481529060010190602001808311610dca57829003601f168201915b5050505050905090565b610df9612093565b6040516307e0db1760e01b815261ffff821660048201527f00000000000000000000000000000000000000000000000000000000000000006001600160a01b0316906307e0db17906024015b600060405180830381600087803b158015610e5f57600080fd5b505af1158015610e73573d6000803e3d6000fd5b5050505050565b600033610e888185856120ed565b5060019392505050565b600081610e9d574291505b7f0000000000000000000000000000000000000000000000000000000000000000821015610ecd57506000919050565b610d5982612211565b610ede612093565b61ffff909116600090815260036020526040902055565b610efd612093565b6040516310ddb13760e01b815261ffff821660048201527f00000000000000000000000000000000000000000000000000000000000000006001600160a01b0316906310ddb13790602401610e45565b6000600e6000610f5c42612211565b815260200190815260200160002054905090565b600033610f7e858285612256565b610f898585856122d0565b506001949350505050565b610f9c612469565b610fa633826124af565b60405181815233907f696de425f79f4a40bc6d2122ca50507f0efbeabbff86a84871b7196ab8ea8df79060200160405180910390a250565b600080600080898989604051602001610ffa9493929190613897565b60408051601f198184030181529082905263040a7bb160e41b825291506001600160a01b037f000000000000000000000000000000000000000000000000000000000000000016906340a7bb1090611060908d90309086908c908c908c906004016138c6565b604080518083038186803b15801561107757600080fd5b505afa15801561108b573d6000803e3d6000fd5b505050506040513d601f19601f820116820180604052508101906110af919061391c565b925092505097509795505050505050565b600033610e888185856110d38383611c18565b6110dd9190613956565b6120ed565b61ffff83166000908152600160205260408120805482919061110390613823565b80601f016020809104026020016040519081016040528092919081815260200182805461112f90613823565b801561117c5780601f106111515761010080835404028352916020019161117c565b820191906000526020600020905b81548152906001019060200180831161115f57829003601f168201915b50505050509050838360405161119392919061385e565b60405180910390208180519060200120149150509392505050565b6111b6612093565b6040516342d65a8d60e01b81526001600160a01b037f000000000000000000000000000000000000000000000000000000000000000016906342d65a8d906112069086908690869060040161396e565b600060405180830381600087803b15801561122057600080fd5b505af1158015610d18573d6000803e3d6000fd5b61123c612469565b600f546001600160a01b031633146112855760405162461bcd60e51b815260206004820152600c60248201526b1d5b985d5d1a1bdc9a5e995960a21b6044820152606401610b64565b600081116112c85760405162461bcd60e51b815260206004820152601060248201526f185b5bdd5b9d081b9bdd081d985b1a5960821b6044820152606401610b64565b60006112d330611491565b9050818110156113205760405162461bcd60e51b8152602060048201526018602482015277195e18d959591cc8185b1b1bddd8589b1948185b5bdd5b9d60421b6044820152606401610b64565b61132b3084846122d0565b505050565b6113aa898989898080601f01602080910402602001604051908101604052809392919081815260200183838082843760009201919091525050604080516020601f8a018190048102820181019092528881528c93508b92508a918a908a90819084018382808284376000920191909152506125d192505050565b505050505050505050565b3330146114135760405162461bcd60e51b815260206004820152602660248201527f4e6f6e626c6f636b696e674c7a4170703a2063616c6c6572206d7573742062656044820152650204c7a4170760d41b6064820152608401610b64565b6114898686868080601f01602080910402602001604051908101604052809392919081815260200183838082843760009201919091525050604080516020601f89018190048102820181019092528781528993509150879087908190840183828082843760009201919091525061267892505050565b505050505050565b6001600160a01b031660009081526007602052604090205490565b6114b4612093565b6114be60006126df565b565b600160205260009081526040902080546114d990613823565b80601f016020809104026020016040519081016040528092919081815260200182805461150590613823565b80156115525780601f1061152757610100808354040283529160200191611552565b820191906000526020600020905b81548152906001019060200180831161153557829003601f168201915b505050505081565b600061156560095490565b905090565b6060600b8054610d6e90613823565b61ffff811660009081526001602052604081208054606092919061159c90613823565b80601f01602080910402602001604051908101604052809291908181526020018280546115c890613823565b80156116155780601f106115ea57610100808354040283529160200191611615565b820191906000526020600020905b8154815290600101906020018083116115f857829003601f168201915b5050505050905080516000141561166e5760405162461bcd60e51b815260206004820152601d60248201527f4c7a4170703a206e6f20747275737465642070617468207265636f72640000006044820152606401610b64565b611689600060148351611681919061398c565b83919061272f565b9392505050565b600061169a612469565b60105446146116dd5760405162461bcd60e51b815260206004820152600f60248201526e18da185a5b881b9bdd081d985b1a59608a1b6044820152606401610b64565b60006116e842612211565b6000818152600e60205260409020549091501561170757600091505090565b60008061171330611491565b9050801561175c5780600e600061172b60018761398c565b81526020019081526020016000206000828254611748919061398c565b9250508190555080915061175c30826124af565b600e600061176b60018661398c565b815260200190815260200160002054600d600082825461178b919061398c565b90915550611799905061283c565b6117a39083613956565b6000848152600e6020526040902081905591506117c03083612866565b604051828152309033907f9d228d69b5fdb8d273a2336f8fb8612d039631024ea9bf09c424a9503aa078f09060200160405180910390a35091505090565b6000338161180c8286611c18565b90508381101561186c5760405162461bcd60e51b815260206004820152602560248201527f45524332303a2064656372656173656420616c6c6f77616e63652062656c6f77604482015264207a65726f60d81b6064820152608401610b64565b610f8982868684036120ed565b611881612093565b818130604051602001611896939291906139a3565b60408051601f1981840301815291815261ffff851660009081526001602090815291902082516118cb93919290910190613021565b507f8c0400cfe2d1199b1a725c78960bcc2a344d869b80590d0f2bd005db15a572ce8383836040516118ff9392919061396e565b60405180910390a1505050565b600033610e888185856122d0565b611922612093565b600480546001600160a01b0319166001600160a01b0383161790556040517f5db758e995a17ec1ad84bdef7e8c3293a0bd6179bcce400dff5d4c3d87db726b9061196d9083906132cc565b60405180910390a150565b611980612093565b6040516332fb62e760e21b81526001600160a01b037f0000000000000000000000000000000000000000000000000000000000000000169063cbed8b9c906119d490889088908890889088906004016139c9565b600060405180830381600087803b1580156119ee57600080fd5b505af11580156113aa573d6000803e3d6000fd5b61ffff86166000908152600560205260408082209051611a25908890889061385e565b90815260408051602092819003830190206001600160401b03871660009081529252902054905080611aa55760405162461bcd60e51b815260206004820152602360248201527f4e6f6e626c6f636b696e674c7a4170703a206e6f2073746f726564206d65737360448201526261676560e81b6064820152608401610b64565b808383604051611ab692919061385e565b604051809103902014611b155760405162461bcd60e51b815260206004820152602160248201527f4e6f6e626c6f636b696e674c7a4170703a20696e76616c6964207061796c6f616044820152601960fa1b6064820152608401610b64565b61ffff87166000908152600560205260408082209051611b38908990899061385e565b90815260408051602092819003830181206001600160401b038916600090815290845282902093909355601f88018290048202830182019052868252611bd0918991899089908190840183828082843760009201919091525050604080516020601f8a018190048102820181019092528881528a93509150889088908190840183828082843760009201919091525061267892505050565b7fc264d91f3adc5588250e1551f547752ca0cfa8f6b530d243b9f9f4cab10ea8e58787878785604051611c07959493929190613a02565b60405180910390a150505050505050565b6001600160a01b03918216600090815260086020908152604080832093909416825291909152205490565b611c4b612093565b60008111611c935760405162461bcd60e51b81526020600482015260156024820152744c7a4170703a20696e76616c6964206d696e47617360581b6044820152606401610b64565b61ffff83811660008181526002602090815260408083209487168084529482529182902085905581519283528201929092529081018290527f9d5c7c0b934da8fefa9c7760c98383778a12dfbfc0c3b3106518f43fb9508ac0906060016118ff565b611cfd612093565b6006805460ff19168215159081179091556040519081527f1584ad594a70cbe1e6515592e1272a987d922b097ead875069cebe8b40c004a49060200161196d565b611d46612093565b61ffff83166000908152600160205260409020611d649083836130a5565b507ffa41487ad5d6728f0b19276fa1eddc16558578f5109fc39d2dc33c3230470dab8383836040516118ff9392919061396e565b611da0612093565b80611db057611dad612915565b50565b611dad612961565b611dc0612093565b6001600160a01b038116611e255760405162461bcd60e51b815260206004820152602660248201527f4f776e61626c653a206e6577206f776e657220697320746865207a65726f206160448201526564647265737360d01b6064820152608401610b64565b611dad816126df565b604051633d7b2f6f60e21b815261ffff808616600483015284166024820152306044820152606481018290526060907f00000000000000000000000000000000000000000000000000000000000000006001600160a01b03169063f5ecbdbc9060840160006040518083038186803b158015611ea957600080fd5b505afa158015611ebd573d6000803e3d6000fd5b505050506040513d6000823e601f3d908101601f19168201604052611ee59190810190613a8a565b95945050505050565b611ef6612093565b60105460408051918252602082018390527fffaac11a2568645519512c4cc04c5052f579642fd6e2236b58ced0451e215dc4910160405180910390a1601055565b611f3f612093565b6001600160a01b038116611f895760405162461bcd60e51b81526020600482015260116024820152701859191c995cdcc81b9bdd081d985b1a59607a1b6044820152606401610b64565b600f546040516001600160a01b038084169216907f1cf2de25c5bf439ac0287061c3a0fa69b3b02867d0ccfd2ded34e42577050b7390600090a3600f80546001600160a01b0319166001600160a01b0392909216919091179055565b6000806120485a60966366ad5c8a60e01b8989898960405160240161200d9493929190613abe565b60408051601f198184030181529190526020810180516001600160e01b03166001600160e01b0319909316929092179091523092919061299e565b9150915081611489576114898686868685612a28565b60006001600160e01b03198216630a72677560e11b1480610d5957506301ffc9a760e01b6001600160e01b0319831614610d59565b6000546001600160a01b031633146114be5760405162461bcd60e51b815260206004820181905260248201527f4f776e61626c653a2063616c6c6572206973206e6f7420746865206f776e65726044820152606401610b64565b6001600160a01b03831661214f5760405162461bcd60e51b8152602060048201526024808201527f45524332303a20617070726f76652066726f6d20746865207a65726f206164646044820152637265737360e01b6064820152608401610b64565b6001600160a01b0382166121b05760405162461bcd60e51b815260206004820152602260248201527f45524332303a20617070726f766520746f20746865207a65726f206164647265604482015261737360f01b6064820152608401610b64565b6001600160a01b0383811660008181526008602090815260408083209487168084529482529182902085905590518481527f8c5be1e5ebec7d5bd14f71427d1e84f3dd0314c0f7b2291e5b200ac8c7c3b925910160405180910390a3505050565b600062093a806122417f00000000000000000000000000000000000000000000000000000000000000008461398c565b61224b9190613afc565b610d59906001613956565b60006122628484611c18565b905060001981146122ca57818110156122bd5760405162461bcd60e51b815260206004820152601d60248201527f45524332303a20696e73756666696369656e7420616c6c6f77616e63650000006044820152606401610b64565b6122ca84848484036120ed565b50505050565b6001600160a01b0383166123345760405162461bcd60e51b815260206004820152602560248201527f45524332303a207472616e736665722066726f6d20746865207a65726f206164604482015264647265737360d81b6064820152608401610b64565b6001600160a01b0382166123965760405162461bcd60e51b815260206004820152602360248201527f45524332303a207472616e7366657220746f20746865207a65726f206164647260448201526265737360e81b6064820152608401610b64565b6001600160a01b0383166000908152600760205260409020548181101561240e5760405162461bcd60e51b815260206004820152602660248201527f45524332303a207472616e7366657220616d6f756e7420657863656564732062604482015265616c616e636560d01b6064820152608401610b64565b6001600160a01b038085166000818152600760205260408082208686039055928616808252908390208054860190559151600080516020613cba8339815191529061245c9086815260200190565b60405180910390a36122ca565b600c5460ff16156114be5760405162461bcd60e51b815260206004820152601060248201526f14185d5cd8589b194e881c185d5cd95960821b6044820152606401610b64565b6001600160a01b03821661250f5760405162461bcd60e51b815260206004820152602160248201527f45524332303a206275726e2066726f6d20746865207a65726f206164647265736044820152607360f81b6064820152608401610b64565b6001600160a01b038216600090815260076020526040902054818110156125835760405162461bcd60e51b815260206004820152602260248201527f45524332303a206275726e20616d6f756e7420657863656564732062616c616e604482015261636560f01b6064820152608401610b64565b6001600160a01b0383166000818152600760209081526040808320868603905560098054879003905551858152919291600080516020613cba833981519152910160405180910390a3505050565b6125df866000836000612ac5565b60006125ed88888888612b3f565b9050600080878360405160200161260693929190613b1e565b6040516020818303038152906040529050612625888287878734612b55565b886001600160a01b03168861ffff167f39a4c66499bcf4b56d79f0dde8ed7a9d4925a0df55825206b2b8531e202be0d08985604051612665929190613b4b565b60405180910390a3505050505050505050565b602081015161ffff81166126975761269285858585612cfb565b610e73565b60405162461bcd60e51b815260206004820152601c60248201527f4f4654436f72653a20756e6b6e6f776e207061636b65742074797065000000006044820152606401610b64565b600080546001600160a01b038381166001600160a01b0319831681178455604051919092169283917f8be0079c531659141344cd1fd0a4f28419497f9722a3daafe3b4186f6b6457e09190a35050565b60608161273d81601f613956565b101561277c5760405162461bcd60e51b815260206004820152600e60248201526d736c6963655f6f766572666c6f7760901b6044820152606401610b64565b6127868284613956565b845110156127ca5760405162461bcd60e51b8152602060048201526011602482015270736c6963655f6f75744f66426f756e647360781b6044820152606401610b64565b6060821580156127e95760405191506000825260208201604052612833565b6040519150601f8416801560200281840101858101878315602002848b0101015b8183101561282257805183526020928301920161280a565b5050858452601f01601f1916604052505b50949350505050565b6000670de0b6b3a7640000661f438daa060000600d5461285c9190613b6d565b6115659190613afc565b6001600160a01b0382166128bc5760405162461bcd60e51b815260206004820152601f60248201527f45524332303a206d696e7420746f20746865207a65726f2061646472657373006044820152606401610b64565b80600960008282546128ce9190613956565b90915550506001600160a01b038216600081815260076020908152604080832080548601905551848152600080516020613cba833981519152910160405180910390a35050565b61291d612d85565b600c805460ff191690557f5db9ee0a495bf2e6ff9c91a7834c1ba4fdd244a5e8aa4e537bd38aeae4b073aa335b60405161295791906132cc565b60405180910390a1565b612969612469565b600c805460ff191660011790557f62e78cea01bee320cd4e420270b5ea74000d11b0c9f74754ebdbfc544b05a25861294a3390565b6000606060008060008661ffff166001600160401b038111156129c3576129c3613582565b6040519080825280601f01601f1916602001820160405280156129ed576020820181803683370190505b50905060008087516020890160008d8df191503d925086831115612a0f578692505b828152826000602083013e909890975095505050505050565b8180519060200120600560008761ffff1661ffff16815260200190815260200160002085604051612a599190613b8c565b9081526040805191829003602090810183206001600160401b0388166000908152915220919091557fe183f33de2837795525b4792ca4cd60535bd77c53b7e7030060bfcf5734d6b0c90612ab69087908790879087908790613ba8565b60405180910390a15050505050565b60065460ff1615612ae157612adc84848484612dce565b6122ca565b8151156122ca5760405162461bcd60e51b815260206004820152602660248201527f4f4654436f72653a205f61646170746572506172616d73206d7573742062652060448201526532b6b83a3c9760d11b6064820152608401610b64565b6000612b49612469565b611ee585858585612ead565b61ffff861660009081526001602052604081208054612b7390613823565b80601f0160208091040260200160405190810160405280929190818152602001828054612b9f90613823565b8015612bec5780601f10612bc157610100808354040283529160200191612bec565b820191906000526020600020905b815481529060010190602001808311612bcf57829003601f168201915b50505050509050805160001415612c5e5760405162461bcd60e51b815260206004820152603060248201527f4c7a4170703a2064657374696e6174696f6e20636861696e206973206e6f742060448201526f61207472757374656420736f7572636560801b6064820152608401610b64565b612c69878751612edf565b60405162c5803160e81b81526001600160a01b037f0000000000000000000000000000000000000000000000000000000000000000169063c5803100908490612cc0908b9086908c908c908c908c90600401613c06565b6000604051808303818588803b158015612cd957600080fd5b505af1158015612ced573d6000803e3d6000fd5b505050505050505050505050565b60008082806020019051810190612d129190613c60565b909350915060009050612d258382612f4d565b9050612d32878284612fb2565b9150806001600160a01b03168761ffff167fbf551ec93859b170f9b2141bd9298bf3f64322c6f7beb2543a0cb669834118bf84604051612d7491815260200190565b60405180910390a350505050505050565b600c5460ff166114be5760405162461bcd60e51b815260206004820152601460248201527314185d5cd8589b194e881b9bdd081c185d5cd95960621b6044820152606401610b64565b6000612dd983612fc5565b61ffff808716600090815260026020908152604080832093891683529290529081205491925090612e0b908490613956565b905060008111612e5d5760405162461bcd60e51b815260206004820152601a60248201527f4c7a4170703a206d696e4761734c696d6974206e6f74207365740000000000006044820152606401610b64565b808210156114895760405162461bcd60e51b815260206004820152601b60248201527f4c7a4170703a20676173206c696d697420697320746f6f206c6f7700000000006044820152606401610b64565b6000336001600160a01b0386168114612ecb57612ecb868285612256565b612ed586846124af565b5090949350505050565b61ffff821660009081526003602052604090205480612efd57506127105b8082111561132b5760405162461bcd60e51b815260206004820181905260248201527f4c7a4170703a207061796c6f61642073697a6520697320746f6f206c617267656044820152606401610b64565b6000612f5a826014613956565b83511015612fa25760405162461bcd60e51b8152602060048201526015602482015274746f416464726573735f6f75744f66426f756e647360581b6044820152606401610b64565b500160200151600160601b900490565b6000612fbe8383612866565b5092915050565b60006022825110156130195760405162461bcd60e51b815260206004820152601c60248201527f4c7a4170703a20696e76616c69642061646170746572506172616d73000000006044820152606401610b64565b506022015190565b82805461302d90613823565b90600052602060002090601f01602090048101928261304f5760008555613095565b82601f1061306857805160ff1916838001178555613095565b82800160010185558215613095579182015b8281111561309557825182559160200191906001019061307a565b506130a1929150613119565b5090565b8280546130b190613823565b90600052602060002090601f0160209004810192826130d35760008555613095565b82601f106130ec5782800160ff19823516178555613095565b82800160010185558215613095579182015b828111156130955782358255916020019190600101906130fe565b5b808211156130a1576000815560010161311a565b61ffff81168114611dad57600080fd5b60008083601f84011261315057600080fd5b5081356001600160401b0381111561316757600080fd5b60208301915083602082850101111561317f57600080fd5b9250929050565b80356001600160401b038116811461319d57600080fd5b919050565b600080600080600080608087890312156131bb57600080fd5b86356131c68161312e565b955060208701356001600160401b03808211156131e257600080fd5b6131ee8a838b0161313e565b909750955085915061320260408a01613186565b9450606089013591508082111561321857600080fd5b5061322589828a0161313e565b979a9699509497509295939492505050565b60006020828403121561324957600080fd5b81356001600160e01b03198116811461168957600080fd5b60005b8381101561327c578181015183820152602001613264565b838111156122ca5750506000910152565b600081518084526132a5816020860160208601613261565b601f01601f19169290920160200192915050565b602081526000611689602083018461328d565b6001600160a01b0391909116815260200190565b6000602082840312156132f257600080fd5b81356116898161312e565b6001600160a01b0381168114611dad57600080fd5b6000806040838503121561332557600080fd5b8235613330816132fd565b946020939093013593505050565b60006020828403121561335057600080fd5b5035919050565b6000806040838503121561336a57600080fd5b82356133308161312e565b60008060006060848603121561338a57600080fd5b8335613395816132fd565b925060208401356133a5816132fd565b929592945050506040919091013590565b8035801515811461319d57600080fd5b600080600080600080600060a0888a0312156133e157600080fd5b87356133ec8161312e565b965060208801356001600160401b038082111561340857600080fd5b6134148b838c0161313e565b909850965060408a0135955086915061342f60608b016133b6565b945060808a013591508082111561344557600080fd5b506134528a828b0161313e565b989b979a50959850939692959293505050565b60008060006040848603121561347a57600080fd5b83356134858161312e565b925060208401356001600160401b038111156134a057600080fd5b6134ac8682870161313e565b9497909650939450505050565b600080600080600080600080600060e08a8c0312156134d757600080fd5b89356134e2816132fd565b985060208a01356134f28161312e565b975060408a01356001600160401b038082111561350e57600080fd5b61351a8d838e0161313e565b909950975060608c0135965060808c01359150613536826132fd565b90945060a08b013590613548826132fd565b90935060c08b0135908082111561355e57600080fd5b5061356b8c828d0161313e565b915080935050809150509295985092959850929598565b634e487b7160e01b600052604160045260246000fd5b604051601f8201601f191681016001600160401b03811182821017156135c0576135c0613582565b604052919050565b60006001600160401b038211156135e1576135e1613582565b50601f01601f191660200190565b60008060006060848603121561360457600080fd5b833561360f8161312e565b925060208401356001600160401b0381111561362a57600080fd5b8401601f8101861361363b57600080fd5b803561364e613649826135c8565b613598565b81815287602083850101111561366357600080fd5b8160208401602083013760006020838301015280945050505061368860408501613186565b90509250925092565b6000602082840312156136a357600080fd5b8135611689816132fd565b600080604083850312156136c157600080fd5b82356136cc8161312e565b915060208301356136dc8161312e565b809150509250929050565b6000806000806000608086880312156136ff57600080fd5b853561370a8161312e565b9450602086013561371a8161312e565b93506040860135925060608601356001600160401b0381111561373c57600080fd5b6137488882890161313e565b969995985093965092949392505050565b6000806040838503121561376c57600080fd5b8235613777816132fd565b915060208301356136dc816132fd565b60008060006060848603121561379c57600080fd5b83356137a78161312e565b925060208401356133a58161312e565b6000602082840312156137c957600080fd5b611689826133b6565b600080600080608085870312156137e857600080fd5b84356137f38161312e565b935060208501356138038161312e565b92506040850135613813816132fd565b9396929550929360600135925050565b600181811c9082168061383757607f821691505b6020821081141561385857634e487b7160e01b600052602260045260246000fd5b50919050565b8183823760009101908152919050565b81835281816020850137506000828201602090810191909152601f909101601f19169091010190565b61ffff851681526060602082015260006138b560608301858761386e565b905082604083015295945050505050565b61ffff871681526001600160a01b038616602082015260a0604082018190526000906138f49083018761328d565b8515156060840152828103608084015261390f81858761386e565b9998505050505050505050565b6000806040838503121561392f57600080fd5b505080516020909101519092909150565b634e487b7160e01b600052601160045260246000fd5b6000821982111561396957613969613940565b500190565b61ffff84168152604060208201526000611ee560408301848661386e565b60008282101561399e5761399e613940565b500390565b8284823760609190911b6bffffffffffffffffffffffff19169101908152601401919050565b600061ffff8088168352808716602084015250846040830152608060608301526139f760808301848661386e565b979650505050505050565b61ffff86168152608060208201526000613a2060808301868861386e565b6001600160401b0394909416604083015250606001529392505050565b600082601f830112613a4e57600080fd5b8151613a5c613649826135c8565b818152846020838601011115613a7157600080fd5b613a82826020830160208701613261565b949350505050565b600060208284031215613a9c57600080fd5b81516001600160401b03811115613ab257600080fd5b613a8284828501613a3d565b61ffff85168152608060208201526000613adb608083018661328d565b6001600160401b038516604084015282810360608401526139f7818561328d565b600082613b1957634e487b7160e01b600052601260045260246000fd5b500490565b61ffff84168152606060208201526000613b3b606083018561328d565b9050826040830152949350505050565b604081526000613b5e604083018561328d565b90508260208301529392505050565b6000816000190483118215151615613b8757613b87613940565b500290565b60008251613b9e818460208701613261565b9190910192915050565b61ffff8616815260a060208201526000613bc560a083018761328d565b6001600160401b03861660408401528281036060840152613be6818661328d565b90508281036080840152613bfa818561328d565b98975050505050505050565b61ffff8716815260c060208201526000613c2360c083018861328d565b8281036040840152613c35818861328d565b6001600160a01b0387811660608601528616608085015283810360a0850152905061390f818561328d565b600080600060608486031215613c7557600080fd5b8351613c808161312e565b60208501519093506001600160401b03811115613c9c57600080fd5b613ca886828701613a3d565b92505060408401519050925092509256feddf252ad1be2c89b69c2b068fc378daa952ba7f163c4a11628f55a4df523b3efa2646970667358221220e4d70f613a896897914a42a15b91de48705e83504a3f271accc9f713d1aa765464736f6c63430008090033",
  "devdoc": {
    "details": "Latest size: 17.663  KiBEmissions E(x)= E(x-1) - E(x-1) * D with E being total supply a x week, and D the initial decay rate",
    "kind": "dev",
    "methods": {
      "allowance(address,address)": {
        "details": "See {IERC20-allowance}."
      },
      "approve(address,uint256)": {
        "details": "See {IERC20-approve}. NOTE: If `amount` is the maximum `uint256`, the allowance is not updated on `transferFrom`. This is semantically equivalent to an infinite approval. Requirements: - `spender` cannot be the zero address."
      },
      "balanceOf(address)": {
        "details": "See {IERC20-balanceOf}."
      },
      "circulatingSupply()": {
        "details": "returns the circulating amount of tokens on current chain"
      },
      "constructor": {
        "details": "The initial supply of 100M is not minted here as we have the wrap method",
        "params": {
          "_airdrop": "address for the airdrop",
          "_contributors": "address for the contributors",
          "_governanceChainId": "LayerZero governance chain identifier",
          "_investors": "address for the investors",
          "_lbp": "address for the LBP",
          "_lzEndpoint": "the layer zero address endpoint deployed on the current chain"
        }
      },
      "decreaseAllowance(address,uint256)": {
        "details": "Atomically decreases the allowance granted to `spender` by the caller. This is an alternative to {approve} that can be used as a mitigation for problems described in {IERC20-approve}. Emits an {Approval} event indicating the updated allowance. Requirements: - `spender` cannot be the zero address. - `spender` must have allowance for the caller of at least `subtractedValue`."
      },
      "estimateSendFee(uint16,bytes,uint256,bool,bytes)": {
        "details": "estimate send token `_tokenId` to (`_dstChainId`, `_toAddress`) _dstChainId - L0 defined chain id to send tokens too _toAddress - dynamic bytes array which contains the address to whom you are sending tokens to on the dstChain _amount - amount of the tokens to transfer _useZro - indicates to use zro to pay L0 fees _adapterParam - flexible bytes array to indicate messaging adapter services in L0"
      },
      "extractTAP(address,uint256)": {
        "params": {
          "_amount": "TAP amount",
          "_to": "Address to send the minted TAP to"
        }
      },
      "increaseAllowance(address,uint256)": {
        "details": "Atomically increases the allowance granted to `spender` by the caller. This is an alternative to {approve} that can be used as a mitigation for problems described in {IERC20-approve}. Emits an {Approval} event indicating the updated allowance. Requirements: - `spender` cannot be the zero address."
      },
      "name()": {
        "details": "Returns the name of the token."
      },
      "owner()": {
        "details": "Returns the address of the current owner."
      },
      "paused()": {
        "details": "Returns true if the contract is paused, and false otherwise."
      },
      "removeTAP(uint256)": {
        "params": {
          "_amount": "TAP amount"
        }
      },
      "renounceOwnership()": {
        "details": "Leaves the contract without owner. It will not be possible to call `onlyOwner` functions anymore. Can only be called by the current owner. NOTE: Renouncing ownership will leave the contract without an owner, thereby removing any functionality that is only available to the owner."
      },
      "sendFrom(address,uint16,bytes,uint256,address,address,bytes)": {
        "details": "send `_amount` amount of token to (`_dstChainId`, `_toAddress`) from `_from` `_from` the owner of token `_dstChainId` the destination chain identifier `_toAddress` can be any size depending on the `dstChainId`. `_amount` the quantity of tokens in wei `_refundAddress` the address LayerZero refunds if too much message fee is sent `_zroPaymentAddress` set to address(0x0) if not paying in ZRO (LayerZero Token) `_adapterParams` is a flexible bytes array to indicate messaging adapter services"
      },
      "setGovernanceChainIdentifier(uint256)": {
        "params": {
          "_identifier": "LayerZero chain identifier"
        }
      },
      "setMinter(address)": {
        "params": {
          "_minter": "the new address"
        }
      },
      "symbol()": {
        "details": "Returns the symbol of the token, usually a shorter version of the name."
      },
      "token()": {
        "details": "returns the address of the ERC20 token"
      },
      "totalSupply()": {
        "details": "See {IERC20-totalSupply}."
      },
      "transfer(address,uint256)": {
        "details": "See {IERC20-transfer}. Requirements: - `to` cannot be the zero address. - the caller must have a balance of at least `amount`."
      },
      "transferFrom(address,address,uint256)": {
        "details": "See {IERC20-transferFrom}. Emits an {Approval} event indicating the updated allowance. This is not required by the EIP. See the note at the beginning of {ERC20}. NOTE: Does not update the allowance if the current allowance is the maximum `uint256`. Requirements: - `from` and `to` cannot be the zero address. - `from` must have a balance of at least `amount`. - the caller must have allowance for ``from``'s tokens of at least `amount`."
      },
      "transferOwnership(address)": {
        "details": "Transfers ownership of the contract to a new account (`newOwner`). Can only be called by the current owner."
      }
    },
    "stateVariables": {
      "emissionsStartTime": {
        "details": "initialized in the constructor with block.timestamp"
      },
      "mintedInWeek": {
        "details": "week is computed using (timestamp - emissionStartTime) / WEEK"
      }
    },
    "title": "Tapioca OFT token",
    "version": 1
  },
  "userdoc": {
    "events": {
      "Burned(address,uint256)": {
        "notice": "event emitted when new TAP is burned"
      },
      "GovernanceChainIdentifierUpdated(uint256,uint256)": {
        "notice": "event emitted when the governance chain identifier is updated"
      },
      "Minted(address,address,uint256)": {
        "notice": "event emitted when new TAP is minted"
      },
      "MinterUpdated(address,address)": {
        "notice": "event emitted when a new minter is set"
      }
    },
    "kind": "user",
    "methods": {
      "WEEK()": {
        "notice": "seconds in a week"
      },
      "constructor": {
        "notice": "Creates a new TAP OFT type token"
      },
      "decimals()": {
        "notice": "returns token's decimals"
      },
      "emissionsStartTime()": {
        "notice": "starts time for emissions"
      },
      "emitForWeek()": {
        "notice": "-- Write methods --Emit the TAP for the current week"
      },
      "extractTAP(address,uint256)": {
        "notice": "extracts from the minted TAP"
      },
      "getCurrentWeekEmission()": {
        "notice": "Returns the current week emission"
      },
      "governanceChainIdentifier()": {
        "notice": "LayerZero governance chain identifier"
      },
      "mintedInWeek(uint256)": {
        "notice": "returns the amount minted for a specific week"
      },
      "minter()": {
        "notice": "returns the minter address"
      },
      "removeTAP(uint256)": {
        "notice": "burns TAP"
      },
      "setGovernanceChainIdentifier(uint256)": {
        "notice": "-- Owner methods --sets the governance chain identifier"
      },
      "setMinter(address)": {
        "notice": "sets a new minter address"
      },
      "timestampToWeek(uint256)": {
        "notice": "Returns the current week given a timestamp"
      }
    },
    "notice": "OFT compatible TAP token",
    "version": 1
  },
  "storageLayout": {
    "storage": [
      {
        "astId": 1744,
        "contract": "contracts/tokens/TapOFT.sol:TapOFT",
        "label": "_owner",
        "offset": 0,
        "slot": "0",
        "type": "t_address"
      },
      {
        "astId": 24593,
        "contract": "contracts/tokens/TapOFT.sol:TapOFT",
        "label": "trustedRemoteLookup",
        "offset": 0,
        "slot": "1",
        "type": "t_mapping(t_uint16,t_bytes_storage)"
      },
      {
        "astId": 24599,
        "contract": "contracts/tokens/TapOFT.sol:TapOFT",
        "label": "minDstGasLookup",
        "offset": 0,
        "slot": "2",
        "type": "t_mapping(t_uint16,t_mapping(t_uint16,t_uint256))"
      },
      {
        "astId": 24603,
        "contract": "contracts/tokens/TapOFT.sol:TapOFT",
        "label": "payloadSizeLimitLookup",
        "offset": 0,
        "slot": "3",
        "type": "t_mapping(t_uint16,t_uint256)"
      },
      {
        "astId": 24605,
        "contract": "contracts/tokens/TapOFT.sol:TapOFT",
        "label": "precrime",
        "offset": 0,
        "slot": "4",
        "type": "t_address"
      },
      {
        "astId": 25142,
        "contract": "contracts/tokens/TapOFT.sol:TapOFT",
        "label": "failedMessages",
        "offset": 0,
        "slot": "5",
        "type": "t_mapping(t_uint16,t_mapping(t_bytes_memory_ptr,t_mapping(t_uint64,t_bytes32)))"
      },
      {
        "astId": 25607,
        "contract": "contracts/tokens/TapOFT.sol:TapOFT",
        "label": "useCustomAdapterParams",
        "offset": 0,
        "slot": "6",
        "type": "t_bool"
      },
      {
        "astId": 2136,
        "contract": "contracts/tokens/TapOFT.sol:TapOFT",
        "label": "_balances",
        "offset": 0,
        "slot": "7",
        "type": "t_mapping(t_address,t_uint256)"
      },
      {
        "astId": 2142,
        "contract": "contracts/tokens/TapOFT.sol:TapOFT",
        "label": "_allowances",
        "offset": 0,
        "slot": "8",
        "type": "t_mapping(t_address,t_mapping(t_address,t_uint256))"
      },
      {
        "astId": 2144,
        "contract": "contracts/tokens/TapOFT.sol:TapOFT",
        "label": "_totalSupply",
        "offset": 0,
        "slot": "9",
        "type": "t_uint256"
      },
      {
        "astId": 2146,
        "contract": "contracts/tokens/TapOFT.sol:TapOFT",
        "label": "_name",
        "offset": 0,
        "slot": "10",
        "type": "t_string_storage"
      },
      {
        "astId": 2148,
        "contract": "contracts/tokens/TapOFT.sol:TapOFT",
        "label": "_symbol",
        "offset": 0,
        "slot": "11",
        "type": "t_string_storage"
      },
      {
        "astId": 1867,
        "contract": "contracts/tokens/TapOFT.sol:TapOFT",
        "label": "_paused",
        "offset": 0,
        "slot": "12",
        "type": "t_bool"
      },
      {
        "astId": 10389,
        "contract": "contracts/tokens/TapOFT.sol:TapOFT",
        "label": "dso_supply",
        "offset": 0,
        "slot": "13",
        "type": "t_uint256"
      },
      {
        "astId": 10408,
        "contract": "contracts/tokens/TapOFT.sol:TapOFT",
        "label": "mintedInWeek",
        "offset": 0,
        "slot": "14",
        "type": "t_mapping(t_uint256,t_uint256)"
      },
      {
        "astId": 10411,
        "contract": "contracts/tokens/TapOFT.sol:TapOFT",
        "label": "minter",
        "offset": 0,
        "slot": "15",
        "type": "t_address"
      },
      {
        "astId": 10414,
        "contract": "contracts/tokens/TapOFT.sol:TapOFT",
        "label": "governanceChainIdentifier",
        "offset": 0,
        "slot": "16",
        "type": "t_uint256"
      }
    ],
    "types": {
      "t_address": {
        "encoding": "inplace",
        "label": "address",
        "numberOfBytes": "20"
      },
      "t_bool": {
        "encoding": "inplace",
        "label": "bool",
        "numberOfBytes": "1"
      },
      "t_bytes32": {
        "encoding": "inplace",
        "label": "bytes32",
        "numberOfBytes": "32"
      },
      "t_bytes_memory_ptr": {
        "encoding": "bytes",
        "label": "bytes",
        "numberOfBytes": "32"
      },
      "t_bytes_storage": {
        "encoding": "bytes",
        "label": "bytes",
        "numberOfBytes": "32"
      },
      "t_mapping(t_address,t_mapping(t_address,t_uint256))": {
        "encoding": "mapping",
        "key": "t_address",
        "label": "mapping(address => mapping(address => uint256))",
        "numberOfBytes": "32",
        "value": "t_mapping(t_address,t_uint256)"
      },
      "t_mapping(t_address,t_uint256)": {
        "encoding": "mapping",
        "key": "t_address",
        "label": "mapping(address => uint256)",
        "numberOfBytes": "32",
        "value": "t_uint256"
      },
      "t_mapping(t_bytes_memory_ptr,t_mapping(t_uint64,t_bytes32))": {
        "encoding": "mapping",
        "key": "t_bytes_memory_ptr",
        "label": "mapping(bytes => mapping(uint64 => bytes32))",
        "numberOfBytes": "32",
        "value": "t_mapping(t_uint64,t_bytes32)"
      },
      "t_mapping(t_uint16,t_bytes_storage)": {
        "encoding": "mapping",
        "key": "t_uint16",
        "label": "mapping(uint16 => bytes)",
        "numberOfBytes": "32",
        "value": "t_bytes_storage"
      },
      "t_mapping(t_uint16,t_mapping(t_bytes_memory_ptr,t_mapping(t_uint64,t_bytes32)))": {
        "encoding": "mapping",
        "key": "t_uint16",
        "label": "mapping(uint16 => mapping(bytes => mapping(uint64 => bytes32)))",
        "numberOfBytes": "32",
        "value": "t_mapping(t_bytes_memory_ptr,t_mapping(t_uint64,t_bytes32))"
      },
      "t_mapping(t_uint16,t_mapping(t_uint16,t_uint256))": {
        "encoding": "mapping",
        "key": "t_uint16",
        "label": "mapping(uint16 => mapping(uint16 => uint256))",
        "numberOfBytes": "32",
        "value": "t_mapping(t_uint16,t_uint256)"
      },
      "t_mapping(t_uint16,t_uint256)": {
        "encoding": "mapping",
        "key": "t_uint16",
        "label": "mapping(uint16 => uint256)",
        "numberOfBytes": "32",
        "value": "t_uint256"
      },
      "t_mapping(t_uint256,t_uint256)": {
        "encoding": "mapping",
        "key": "t_uint256",
        "label": "mapping(uint256 => uint256)",
        "numberOfBytes": "32",
        "value": "t_uint256"
      },
      "t_mapping(t_uint64,t_bytes32)": {
        "encoding": "mapping",
        "key": "t_uint64",
        "label": "mapping(uint64 => bytes32)",
        "numberOfBytes": "32",
        "value": "t_bytes32"
      },
      "t_string_storage": {
        "encoding": "bytes",
        "label": "string",
        "numberOfBytes": "32"
      },
      "t_uint16": {
        "encoding": "inplace",
        "label": "uint16",
        "numberOfBytes": "2"
      },
      "t_uint256": {
        "encoding": "inplace",
        "label": "uint256",
        "numberOfBytes": "32"
      },
      "t_uint64": {
        "encoding": "inplace",
        "label": "uint64",
        "numberOfBytes": "8"
      }
    }
  }
}