{
  "address": "0xFD85D457De0532a7241abb34bee35b3Ee1e2c61c",
  "abi": [
    {
      "anonymous": false,
      "inputs": [
        {
          "indexed": true,
          "internalType": "address",
          "name": "user",
          "type": "address"
        },
        {
          "indexed": false,
          "internalType": "uint256",
          "name": "reward",
          "type": "uint256"
        }
      ],
      "name": "Claimed",
      "type": "event"
    },
    {
      "anonymous": false,
      "inputs": [
        {
          "indexed": true,
          "internalType": "address",
          "name": "user",
          "type": "address"
        },
        {
          "indexed": false,
          "internalType": "uint256",
          "name": "amount",
          "type": "uint256"
        }
      ],
      "name": "Deposited",
      "type": "event"
    },
    {
      "anonymous": false,
      "inputs": [
        {
          "indexed": true,
          "internalType": "address",
          "name": "token",
          "type": "address"
        },
        {
          "indexed": false,
          "internalType": "uint256",
          "name": "amount",
          "type": "uint256"
        }
      ],
      "name": "EmergencySave",
      "type": "event"
    },
    {
      "anonymous": false,
      "inputs": [
        {
          "indexed": true,
          "internalType": "address",
          "name": "old",
          "type": "address"
        },
        {
          "indexed": true,
          "internalType": "address",
          "name": "newOwner",
          "type": "address"
        }
      ],
      "name": "OwnerUpdated",
      "type": "event"
    },
    {
      "anonymous": false,
      "inputs": [
        {
          "indexed": false,
          "internalType": "address",
          "name": "account",
          "type": "address"
        }
      ],
      "name": "Paused",
      "type": "event"
    },
    {
      "anonymous": false,
      "inputs": [
        {
          "indexed": false,
          "internalType": "uint256",
          "name": "reward",
          "type": "uint256"
        }
      ],
      "name": "RewardAdded",
      "type": "event"
    },
    {
      "anonymous": false,
      "inputs": [
        {
          "indexed": false,
          "internalType": "uint256",
          "name": "newDuration",
          "type": "uint256"
        }
      ],
      "name": "RewardsDurationUpdated",
      "type": "event"
    },
    {
      "anonymous": false,
      "inputs": [
        {
          "indexed": false,
          "internalType": "address",
          "name": "account",
          "type": "address"
        }
      ],
      "name": "Unpaused",
      "type": "event"
    },
    {
      "anonymous": false,
      "inputs": [
        {
          "indexed": true,
          "internalType": "address",
          "name": "user",
          "type": "address"
        },
        {
          "indexed": false,
          "internalType": "uint256",
          "name": "amount",
          "type": "uint256"
        }
      ],
      "name": "Withdrawn",
      "type": "event"
    },
    {
      "inputs": [
        {
          "internalType": "uint256",
          "name": "_amount",
          "type": "uint256"
        }
      ],
      "name": "addRewards",
      "outputs": [],
      "stateMutability": "nonpayable",
      "type": "function"
    },
    {
      "inputs": [
        {
          "internalType": "address",
          "name": "_of",
          "type": "address"
        }
      ],
      "name": "balanceOf",
      "outputs": [
        {
          "internalType": "uint256",
          "name": "",
          "type": "uint256"
        }
      ],
      "stateMutability": "view",
      "type": "function"
    },
    {
      "inputs": [],
      "name": "claimRewards",
      "outputs": [],
      "stateMutability": "nonpayable",
      "type": "function"
    },
    {
      "inputs": [
        {
          "internalType": "uint256",
          "name": "_amount",
          "type": "uint256"
        }
      ],
      "name": "deposit",
      "outputs": [],
      "stateMutability": "nonpayable",
      "type": "function"
    },
    {
      "inputs": [
        {
          "internalType": "address",
          "name": "_user",
          "type": "address"
        }
      ],
      "name": "earned",
      "outputs": [
        {
          "internalType": "uint256",
          "name": "",
          "type": "uint256"
        }
      ],
      "stateMutability": "view",
      "type": "function"
    },
    {
      "inputs": [
        {
          "internalType": "address",
          "name": "_token",
          "type": "address"
        },
        {
          "internalType": "uint256",
          "name": "_amount",
          "type": "uint256"
        }
      ],
      "name": "emergencySave",
      "outputs": [],
      "stateMutability": "nonpayable",
      "type": "function"
    },
    {
      "inputs": [],
      "name": "exit",
      "outputs": [],
      "stateMutability": "nonpayable",
      "type": "function"
    },
    {
      "inputs": [],
      "name": "gaugeDistributor",
      "outputs": [
        {
          "internalType": "address",
          "name": "",
          "type": "address"
        }
      ],
      "stateMutability": "view",
      "type": "function"
    },
    {
      "inputs": [],
      "name": "getRewardForDuration",
      "outputs": [
        {
          "internalType": "uint256",
          "name": "",
          "type": "uint256"
        }
      ],
      "stateMutability": "view",
      "type": "function"
    },
    {
      "inputs": [
        {
          "internalType": "address",
          "name": "_token",
          "type": "address"
        },
        {
          "internalType": "address",
          "name": "_reward",
          "type": "address"
        },
        {
          "internalType": "address",
          "name": "_owner",
          "type": "address"
        },
        {
          "internalType": "address",
          "name": "_gaugeDistributor",
          "type": "address"
        }
      ],
      "name": "init",
      "outputs": [],
      "stateMutability": "nonpayable",
      "type": "function"
    },
    {
      "inputs": [],
      "name": "isKilled",
      "outputs": [
        {
          "internalType": "bool",
          "name": "",
          "type": "bool"
        }
      ],
      "stateMutability": "view",
      "type": "function"
    },
    {
      "inputs": [],
      "name": "kill",
      "outputs": [],
      "stateMutability": "nonpayable",
      "type": "function"
    },
    {
      "inputs": [],
      "name": "lastTimeRewardApplicable",
      "outputs": [
        {
          "internalType": "uint256",
          "name": "",
          "type": "uint256"
        }
      ],
      "stateMutability": "view",
      "type": "function"
    },
    {
      "inputs": [],
      "name": "lastUpdateTime",
      "outputs": [
        {
          "internalType": "uint256",
          "name": "",
          "type": "uint256"
        }
      ],
      "stateMutability": "view",
      "type": "function"
    },
    {
      "inputs": [],
      "name": "owner",
      "outputs": [
        {
          "internalType": "address",
          "name": "",
          "type": "address"
        }
      ],
      "stateMutability": "view",
      "type": "function"
    },
    {
      "inputs": [],
      "name": "pause",
      "outputs": [],
      "stateMutability": "nonpayable",
      "type": "function"
    },
    {
      "inputs": [],
      "name": "paused",
      "outputs": [
        {
          "internalType": "bool",
          "name": "",
          "type": "bool"
        }
      ],
      "stateMutability": "view",
      "type": "function"
    },
    {
      "inputs": [],
      "name": "periodFinish",
      "outputs": [
        {
          "internalType": "uint256",
          "name": "",
          "type": "uint256"
        }
      ],
      "stateMutability": "view",
      "type": "function"
    },
    {
      "inputs": [],
      "name": "reward",
      "outputs": [
        {
          "internalType": "address",
          "name": "",
          "type": "address"
        }
      ],
      "stateMutability": "view",
      "type": "function"
    },
    {
      "inputs": [],
      "name": "rewardPerToken",
      "outputs": [
        {
          "internalType": "uint256",
          "name": "",
          "type": "uint256"
        }
      ],
      "stateMutability": "view",
      "type": "function"
    },
    {
      "inputs": [],
      "name": "rewardPerTokenStored",
      "outputs": [
        {
          "internalType": "uint256",
          "name": "",
          "type": "uint256"
        }
      ],
      "stateMutability": "view",
      "type": "function"
    },
    {
      "inputs": [],
      "name": "rewardRate",
      "outputs": [
        {
          "internalType": "uint256",
          "name": "",
          "type": "uint256"
        }
      ],
      "stateMutability": "view",
      "type": "function"
    },
    {
      "inputs": [
        {
          "internalType": "address",
          "name": "",
          "type": "address"
        }
      ],
      "name": "rewards",
      "outputs": [
        {
          "internalType": "uint256",
          "name": "",
          "type": "uint256"
        }
      ],
      "stateMutability": "view",
      "type": "function"
    },
    {
      "inputs": [],
      "name": "rewardsDuration",
      "outputs": [
        {
          "internalType": "uint256",
          "name": "",
          "type": "uint256"
        }
      ],
      "stateMutability": "view",
      "type": "function"
    },
    {
      "inputs": [],
      "name": "token",
      "outputs": [
        {
          "internalType": "address",
          "name": "",
          "type": "address"
        }
      ],
      "stateMutability": "view",
      "type": "function"
    },
    {
      "inputs": [],
      "name": "totalSupply",
      "outputs": [
        {
          "internalType": "uint256",
          "name": "",
          "type": "uint256"
        }
      ],
      "stateMutability": "view",
      "type": "function"
    },
    {
      "inputs": [
        {
          "internalType": "address",
          "name": "_newOwner",
          "type": "address"
        }
      ],
      "name": "transferOwnership",
      "outputs": [],
      "stateMutability": "nonpayable",
      "type": "function"
    },
    {
      "inputs": [],
      "name": "unpause",
      "outputs": [],
      "stateMutability": "nonpayable",
      "type": "function"
    },
    {
      "inputs": [
        {
          "internalType": "uint256",
          "name": "_rewardsDuration",
          "type": "uint256"
        }
      ],
      "name": "updateRewardDuration",
      "outputs": [],
      "stateMutability": "nonpayable",
      "type": "function"
    },
    {
      "inputs": [
        {
          "internalType": "address",
          "name": "",
          "type": "address"
        }
      ],
      "name": "userRewardPerTokenPaid",
      "outputs": [
        {
          "internalType": "uint256",
          "name": "",
          "type": "uint256"
        }
      ],
      "stateMutability": "view",
      "type": "function"
    },
    {
      "inputs": [
        {
          "internalType": "uint256",
          "name": "_amount",
          "type": "uint256"
        }
      ],
      "name": "withdraw",
      "outputs": [],
      "stateMutability": "nonpayable",
      "type": "function"
    }
  ],
  "transactionHash": "0x4dbc0f514f05057a89508092b5ac3685e2273f8fb1ccf8390756978d48ea8e9e",
  "args": [],
  "numDeployments": 1,
  "solcInputHash": "4526ca29d0ddf27b570edf5c5cf379cc",
  "bytecode": "0x60806040526000600455630784ce0060085534801561001d57600080fd5b506000805460ff19169055600180556117528061003b6000396000f3fe608060405234801561001057600080fd5b50600436106101a45760003560e01c806379138678116100ef578063beceed3911610092578063beceed3914610354578063c8f33c9114610367578063cd3daf9d14610370578063df136d6514610378578063e9fad8ee14610381578063ebe2b12b14610389578063f2fde38b14610392578063fc0c546a146103a557600080fd5b806379138678146102ce5780637b0a47ee146102e157806380faa57d146102ea5780638456cb59146102f25780638b876347146102fa5780638da5cb5b1461031a5780638fe8a1011461032d578063b6b55f251461034157600080fd5b80632e1a7d4d116101575780632e1a7d4d14610247578063372500ab1461025a578063386a9525146102625780633f4ba83a1461026b57806341c0e1b5146102735780635c975abb1461027b578063608bb9b21461029257806370a08231146102a557600080fd5b80628cc262146101a957806306552ff3146101cf5780630700037d146101e4578063070a888f1461020457806318160ddd146102175780631c1f78eb1461021f578063228cb73314610227575b600080fd5b6101bc6101b7366004611462565b6103b8565b6040519081526020015b60405180910390f35b6101e26101dd36600461147d565b610435565b005b6101bc6101f2366004611462565b600a6020526000908152604090205481565b6101e26102123660046114d1565b6105ce565b600d546101bc565b6101bc610633565b60035461023a906001600160a01b031681565b6040516101c691906114ea565b6101e26102553660046114d1565b61064a565b6101e26106fe565b6101bc60085481565b6101e2610798565b6101e26107cc565b60005460ff165b60405190151581526020016101c6565b6101e26102a03660046114fe565b61080b565b6101bc6102b3366004611462565b6001600160a01b03166000908152600e602052604090205490565b600c5461023a906001600160a01b031681565b6101bc60045481565b6101bc6108e4565b6101e26108fb565b6101bc610308366004611462565b60096020526000908152604090205481565b600b5461023a906001600160a01b031681565b600c5461028290600160a01b900460ff1681565b6101e261034f3660046114d1565b61092d565b6101e26103623660046114d1565b610a68565b6101bc60055481565b6101bc610d3a565b6101bc60065481565b6101e2610d9c565b6101bc60075481565b6101e26103a0366004611462565b610e40565b60025461023a906001600160a01b031681565b6001600160a01b0381166000908152600a60209081526040808320546009909252822054670de0b6b3a7640000906103ee610d3a565b6103f8919061153e565b6001600160a01b0385166000908152600e602052604090205461041b9190611555565b6104259190611574565b61042f9190611596565b92915050565b600f5460ff16156104615760405162461bcd60e51b8152600401610458906115ae565b60405180910390fd5b6001600160a01b0384166104a95760405162461bcd60e51b815260206004820152600f60248201526e1d1bdad95b881b9bdd081d985b1a59608a1b6044820152606401610458565b6001600160a01b0383166104f85760405162461bcd60e51b81526020600482015260166024820152751c995dd85c99081d1bdad95b881b9bdd081d985b1a5960521b6044820152606401610458565b6001600160a01b0381166105465760405162461bcd60e51b8152602060048201526015602482015274191a5cdd1c9a589d5d1bdc881b9bdd081d985b1a59605a1b6044820152606401610458565b600280546001600160a01b038087166001600160a01b03199283161790925560038054868416908316179055600c8054928416929091169190911790556008546105909042611596565b60075561059b610f10565b50600f805460ff19166001179055600b80546001600160a01b039092166001600160a01b03199092169190911790555050565b600b546001600160a01b031633146105f85760405162461bcd60e51b8152600401610458906115d4565b60088190556040518181527ffb46ca5a5e06d4540d6387b930a7c978bce0db5f449ec6b3f5d07c6e1d44f2d39060200160405180910390a150565b60006008546004546106459190611555565b905090565b6002600154141561066d5760405162461bcd60e51b815260040161045890611605565b60026001553361067b610d3a565b6006556106866108e4565b6005556001600160a01b038116156106cd576106a1816103b8565b6001600160a01b0382166000908152600a60209081526040808320939093556006546009909152919020555b600082116106ed5760405162461bcd60e51b81526004016104589061163c565b6106f682610f64565b505060018055565b600260015414156107215760405162461bcd60e51b815260040161045890611605565b600260015561072e610ffb565b33610737610d3a565b6006556107426108e4565b6005556001600160a01b038116156107895761075d816103b8565b6001600160a01b0382166000908152600a60209081526040808320939093556006546009909152919020555b610791611041565b5060018055565b600b546001600160a01b031633146107c25760405162461bcd60e51b8152600401610458906115d4565b6107ca6110c9565b565b600b546001600160a01b031633146107f65760405162461bcd60e51b8152600401610458906115d4565b600c805460ff60a01b1916600160a01b179055565b600b546001600160a01b031633146108355760405162461bcd60e51b8152600401610458906115d4565b6002546001600160a01b03838116911614156108635760405162461bcd60e51b8152600401610458906115ae565b600081116108835760405162461bcd60e51b81526004016104589061163c565b600b5461089d906001600160a01b03848116911683611102565b816001600160a01b03167f5ebfe40441d517610e0d11ce448cc344e573cb90e17978b5ea0c489827646fc4826040516108d891815260200190565b60405180910390a25050565b600060075442106108f6575060075490565b504290565b600b546001600160a01b031633146109255760405162461bcd60e51b8152600401610458906115d4565b6107ca610f10565b600260015414156109505760405162461bcd60e51b815260040161045890611605565b600260015561095d610ffb565b33610966610d3a565b6006556109716108e4565b6005556001600160a01b038116156109b85761098c816103b8565b6001600160a01b0382166000908152600a60209081526040808320939093556006546009909152919020555b600082116109d85760405162461bcd60e51b81526004016104589061163c565b81600d60008282546109ea9190611596565b9091555050336000908152600e602052604081208054849290610a0e908490611596565b9091555050600254610a2b906001600160a01b031633308561116a565b60405182815233907f2da466a7b24304f47e87fa2e1e5a81b9831ce54fec19055ce277ca2f39ba42c49060200160405180910390a2505060018055565b6000610a72610d3a565b600655610a7d6108e4565b6005556001600160a01b03811615610ac457610a98816103b8565b6001600160a01b0382166000908152600a60209081526040808320939093556006546009909152919020555b600b546001600160a01b0316331480610ae75750600c546001600160a01b031633145b610b035760405162461bcd60e51b8152600401610458906115ae565b600060085411610b4f5760405162461bcd60e51b81526020600482015260176024820152761c995dd85c9908191d5c985d1a5bdb881b9bdd081cd95d604a1b6044820152606401610458565b600c54600160a01b900460ff1615610b9b5760405162461bcd60e51b815260206004820152600f60248201526e18dbdb9d1c9858dd081ada5b1b1959608a1b6044820152606401610458565b6007544210610bb957600854610bb19083611574565b600455610bfb565b600042600754610bc9919061153e565b9050600060045482610bdb9190611555565b600854909150610beb8286611596565b610bf59190611574565b60045550505b600354610c13906001600160a01b031633308561116a565b6003546040516370a0823160e01b81526000916001600160a01b0316906370a0823190610c449030906004016114ea565b60206040518083038186803b158015610c5c57600080fd5b505afa158015610c70573d6000803e3d6000fd5b505050506040513d601f19601f82011682018060405250810190610c949190611666565b905060085481610ca49190611574565b6004541115610ced5760405162461bcd60e51b81526020600482015260156024820152741c995dd85c99081c985d19481b9bdd081d985b1a59605a1b6044820152606401610458565b426005819055600854610cff91611596565b6007556040518381527fde88a922e0d3b88b24e9623efeb464919c6bf9f66857a65e2bfcf2ce87a9433d9060200160405180910390a1505050565b6000600d5460001415610d4e575060065490565b600d54600454600554610d5f6108e4565b610d69919061153e565b610d739190611555565b610d8590670de0b6b3a7640000611555565b610d8f9190611574565b6006546106459190611596565b60026001541415610dbf5760405162461bcd60e51b815260040161045890611605565b6002600155610dcc610ffb565b33610dd5610d3a565b600655610de06108e4565b6005556001600160a01b03811615610e2757610dfb816103b8565b6001600160a01b0382166000908152600a60209081526040808320939093556006546009909152919020555b336000908152600e602052604090205461078990610f64565b600b546001600160a01b03163314610e6a5760405162461bcd60e51b8152600401610458906115d4565b6001600160a01b038116610eb45760405162461bcd60e51b81526020600482015260116024820152701859191c995cdcc81b9bdd081d985b1a59607a1b6044820152606401610458565b600b546040516001600160a01b038084169216907f8292fce18fa69edf4db7b94ea2e58241df0ae57f97e0a6c9b29067028bf92d7690600090a3600b80546001600160a01b0319166001600160a01b0392909216919091179055565b610f18610ffb565b6000805460ff191660011790557f62e78cea01bee320cd4e420270b5ea74000d11b0c9f74754ebdbfc544b05a258610f4d3390565b604051610f5a91906114ea565b60405180910390a1565b80600d6000828254610f76919061153e565b9091555050336000908152600e6020526040902054610f9690829061153e565b336000818152600e6020526040902091909155600254610fc2916001600160a01b039091169083611102565b60405181815233907f7084f5476618d8e60b11ef0d7d3f06914655adb8793e28ff7f018d4c76d505d5906020015b60405180910390a250565b60005460ff16156107ca5760405162461bcd60e51b815260206004820152601060248201526f14185d5cd8589b194e881c185d5cd95960821b6044820152606401610458565b600c54600160a01b900460ff161561105557565b336000908152600a602052604090205480156110c657336000818152600a6020526040812055600354611094916001600160a01b039091169083611102565b60405181815233907fd8138f8a3f377c5259ca548e70e4c2de94f129f5a11036a15b69513cba2b426a90602001610ff0565b50565b6110d16111a8565b6000805460ff191690557f5db9ee0a495bf2e6ff9c91a7834c1ba4fdd244a5e8aa4e537bd38aeae4b073aa33610f4d565b6040516001600160a01b03831660248201526044810182905261116590849063a9059cbb60e01b906064015b60408051601f198184030181529190526020810180516001600160e01b03166001600160e01b0319909316929092179091526111f1565b505050565b6040516001600160a01b03808516602483015283166044820152606481018290526111a29085906323b872dd60e01b9060840161112e565b50505050565b60005460ff166107ca5760405162461bcd60e51b815260206004820152601460248201527314185d5cd8589b194e881b9bdd081c185d5cd95960621b6044820152606401610458565b6000611246826040518060400160405280602081526020017f5361666545524332303a206c6f772d6c6576656c2063616c6c206661696c6564815250856001600160a01b03166112c39092919063ffffffff16565b8051909150156111655780806020019051810190611264919061167f565b6111655760405162461bcd60e51b815260206004820152602a60248201527f5361666545524332303a204552433230206f7065726174696f6e20646964206e6044820152691bdd081cdd58d8d9595960b21b6064820152608401610458565b60606112d284846000856112dc565b90505b9392505050565b60608247101561133d5760405162461bcd60e51b815260206004820152602660248201527f416464726573733a20696e73756666696369656e742062616c616e636520666f6044820152651c8818d85b1b60d21b6064820152608401610458565b6001600160a01b0385163b6113945760405162461bcd60e51b815260206004820152601d60248201527f416464726573733a2063616c6c20746f206e6f6e2d636f6e74726163740000006044820152606401610458565b600080866001600160a01b031685876040516113b091906116cd565b60006040518083038185875af1925050503d80600081146113ed576040519150601f19603f3d011682016040523d82523d6000602084013e6113f2565b606091505b509150915061140282828661140d565b979650505050505050565b6060831561141c5750816112d5565b82511561142c5782518084602001fd5b8160405162461bcd60e51b815260040161045891906116e9565b80356001600160a01b038116811461145d57600080fd5b919050565b60006020828403121561147457600080fd5b6112d582611446565b6000806000806080858703121561149357600080fd5b61149c85611446565b93506114aa60208601611446565b92506114b860408601611446565b91506114c660608601611446565b905092959194509250565b6000602082840312156114e357600080fd5b5035919050565b6001600160a01b0391909116815260200190565b6000806040838503121561151157600080fd5b61151a83611446565b946020939093013593505050565b634e487b7160e01b600052601160045260246000fd5b60008282101561155057611550611528565b500390565b600081600019048311821515161561156f5761156f611528565b500290565b60008261159157634e487b7160e01b600052601260045260246000fd5b500490565b600082198211156115a9576115a9611528565b500190565b6020808252600c908201526b1d5b985d5d1a1bdc9a5e995960a21b604082015260600190565b60208082526017908201527631b0b63632b91034b9903737ba103a34329037bbb732b960491b604082015260600190565b6020808252601f908201527f5265656e7472616e637947756172643a207265656e7472616e742063616c6c00604082015260600190565b60208082526010908201526f185b5bdd5b9d081b9bdd081d985b1a5960821b604082015260600190565b60006020828403121561167857600080fd5b5051919050565b60006020828403121561169157600080fd5b815180151581146112d557600080fd5b60005b838110156116bc5781810151838201526020016116a4565b838111156111a25750506000910152565b600082516116df8184602087016116a1565b9190910192915050565b60208152600082518060208401526117088160408501602087016116a1565b601f01601f1916919091016040019291505056fea2646970667358221220bbfe8abe7037af23c13c11129d9bec201f0785a90e6b7a55a12802132b170d4a64736f6c63430008090033",
  "devdoc": {
    "kind": "dev",
    "methods": {
      "addRewards(uint256)": {
        "params": {
          "_amount": "new rewards amount"
        }
      },
      "balanceOf(address)": {
        "params": {
          "_of": "user address"
        }
      },
      "claimRewards()": {
        "details": "updates user's rewards"
      },
      "deposit(uint256)": {
        "details": "updates user's rewards",
        "params": {
          "_amount": "deposited amount"
        }
      },
      "earned(address)": {
        "params": {
          "_user": "user's address"
        }
      },
      "emergencySave(address,uint256)": {
        "params": {
          "_amount": "amount to be saved",
          "_token": "token's address"
        }
      },
      "exit()": {
        "details": "updates user's rewards"
      },
      "init(address,address,address,address)": {
        "params": {
          "_gaugeDistributor": "the gauge distributor address",
          "_owner": "contract's owner",
          "_reward": "reward token address",
          "_token": "deposit token address"
        }
      },
      "paused()": {
        "details": "Returns true if the contract is paused, and false otherwise."
      },
      "updateRewardDuration(uint256)": {
        "params": {
          "_rewardsDuration": "the new timestamp"
        }
      },
      "withdraw(uint256)": {
        "details": "updates user's rewards",
        "params": {
          "_amount": "amount to withdraw"
        }
      }
    },
    "stateVariables": {
      "periodFinish": {
        "details": "gets increased by 'rewardsDuration' everytime new rewards are added"
      },
      "reward": {
        "details": "it should be te TAP token"
      }
    },
    "version": 1
  },
  "userdoc": {
    "events": {
      "Claimed(address,uint256)": {
        "notice": "event emitted when user claimed rewards"
      },
      "Deposited(address,uint256)": {
        "notice": "event emitted when user deposited"
      },
      "EmergencySave(address,uint256)": {
        "notice": "event emitted when some random tokens are withdrawn from the contract"
      },
      "OwnerUpdated(address,address)": {
        "notice": "event emitted when the new owner is updated"
      },
      "RewardAdded(uint256)": {
        "notice": "event emitted when new rewards were added to the pool"
      },
      "RewardsDurationUpdated(uint256)": {
        "notice": "event emitted when the rewards duration was updated"
      },
      "Withdrawn(address,uint256)": {
        "notice": "event emitted when user withdrawn"
      }
    },
    "kind": "user",
    "methods": {
      "addRewards(uint256)": {
        "notice": "adds more rewards to the contract"
      },
      "balanceOf(address)": {
        "notice": "returns total invested amount for an user"
      },
      "claimRewards()": {
        "notice": "claims rewards for msg.sender"
      },
      "deposit(uint256)": {
        "notice": "-- Write methods --locks token into the gauge"
      },
      "earned(address)": {
        "notice": "rewards accrued rewards for user"
      },
      "emergencySave(address,uint256)": {
        "notice": "saves tokens from contract"
      },
      "exit()": {
        "notice": "withdraws the entire investment and claims rewards"
      },
      "gaugeDistributor()": {
        "notice": "GaugeDistributor address"
      },
      "getRewardForDuration()": {
        "notice": "returns reward amount for a specific time range"
      },
      "isKilled()": {
        "notice": "return the kill status"
      },
      "kill()": {
        "notice": "kills the contract"
      },
      "lastTimeRewardApplicable()": {
        "notice": "returns the last time rewards were applicable"
      },
      "lastUpdateTime()": {
        "notice": "last reward update timestamp"
      },
      "owner()": {
        "notice": "contract's owner"
      },
      "pause()": {
        "notice": "-- Onwer methods --pause the contract"
      },
      "periodFinish()": {
        "notice": "returns contract's end time"
      },
      "reward()": {
        "notice": "returns reward token"
      },
      "rewardPerToken()": {
        "notice": "returns rewards per deposited token"
      },
      "rewardPerTokenStored()": {
        "notice": "reward-token share"
      },
      "rewardRate()": {
        "notice": "rewards per second"
      },
      "rewards(address)": {
        "notice": "accrued rewards per gauge user"
      },
      "rewardsDuration()": {
        "notice": "returns the timespan when rewards are to be distributed"
      },
      "token()": {
        "notice": "returns the receipt token allowed for deposits"
      },
      "totalSupply()": {
        "notice": "-- View methods --returns the total deposited token supply"
      },
      "unpause()": {
        "notice": "unpause the contract"
      },
      "updateRewardDuration(uint256)": {
        "notice": "updates rewards duration with a new value"
      },
      "userRewardPerTokenPaid(address)": {
        "notice": "rewards paid to users so far"
      },
      "withdraw(uint256)": {
        "notice": "withdraws from the gauge"
      }
    },
    "version": 1
  },
  "storageLayout": {
    "storage": [
      {
        "astId": 799,
        "contract": "contracts/gauges/TimedGauge.sol:TimedGauge",
        "label": "_paused",
        "offset": 0,
        "slot": "0",
        "type": "t_bool"
      },
      {
        "astId": 900,
        "contract": "contracts/gauges/TimedGauge.sol:TimedGauge",
        "label": "_status",
        "offset": 0,
        "slot": "1",
        "type": "t_uint256"
      },
      {
        "astId": 6639,
        "contract": "contracts/gauges/TimedGauge.sol:TimedGauge",
        "label": "token",
        "offset": 0,
        "slot": "2",
        "type": "t_address"
      },
      {
        "astId": 6642,
        "contract": "contracts/gauges/TimedGauge.sol:TimedGauge",
        "label": "reward",
        "offset": 0,
        "slot": "3",
        "type": "t_address"
      },
      {
        "astId": 6646,
        "contract": "contracts/gauges/TimedGauge.sol:TimedGauge",
        "label": "rewardRate",
        "offset": 0,
        "slot": "4",
        "type": "t_uint256"
      },
      {
        "astId": 6649,
        "contract": "contracts/gauges/TimedGauge.sol:TimedGauge",
        "label": "lastUpdateTime",
        "offset": 0,
        "slot": "5",
        "type": "t_uint256"
      },
      {
        "astId": 6652,
        "contract": "contracts/gauges/TimedGauge.sol:TimedGauge",
        "label": "rewardPerTokenStored",
        "offset": 0,
        "slot": "6",
        "type": "t_uint256"
      },
      {
        "astId": 6655,
        "contract": "contracts/gauges/TimedGauge.sol:TimedGauge",
        "label": "periodFinish",
        "offset": 0,
        "slot": "7",
        "type": "t_uint256"
      },
      {
        "astId": 6661,
        "contract": "contracts/gauges/TimedGauge.sol:TimedGauge",
        "label": "rewardsDuration",
        "offset": 0,
        "slot": "8",
        "type": "t_uint256"
      },
      {
        "astId": 6666,
        "contract": "contracts/gauges/TimedGauge.sol:TimedGauge",
        "label": "userRewardPerTokenPaid",
        "offset": 0,
        "slot": "9",
        "type": "t_mapping(t_address,t_uint256)"
      },
      {
        "astId": 6671,
        "contract": "contracts/gauges/TimedGauge.sol:TimedGauge",
        "label": "rewards",
        "offset": 0,
        "slot": "10",
        "type": "t_mapping(t_address,t_uint256)"
      },
      {
        "astId": 6674,
        "contract": "contracts/gauges/TimedGauge.sol:TimedGauge",
        "label": "owner",
        "offset": 0,
        "slot": "11",
        "type": "t_address"
      },
      {
        "astId": 6677,
        "contract": "contracts/gauges/TimedGauge.sol:TimedGauge",
        "label": "gaugeDistributor",
        "offset": 0,
        "slot": "12",
        "type": "t_address"
      },
      {
        "astId": 6680,
        "contract": "contracts/gauges/TimedGauge.sol:TimedGauge",
        "label": "isKilled",
        "offset": 20,
        "slot": "12",
        "type": "t_bool"
      },
      {
        "astId": 6683,
        "contract": "contracts/gauges/TimedGauge.sol:TimedGauge",
        "label": "_totalSupply",
        "offset": 0,
        "slot": "13",
        "type": "t_uint256"
      },
      {
        "astId": 6688,
        "contract": "contracts/gauges/TimedGauge.sol:TimedGauge",
        "label": "_balances",
        "offset": 0,
        "slot": "14",
        "type": "t_mapping(t_address,t_uint256)"
      },
      {
        "astId": 6691,
        "contract": "contracts/gauges/TimedGauge.sol:TimedGauge",
        "label": "_initialized",
        "offset": 0,
        "slot": "15",
        "type": "t_bool"
      }
    ],
    "types": {
      "t_address": {
        "encoding": "inplace",
        "label": "address",
        "numberOfBytes": "20"
      },
      "t_bool": {
        "encoding": "inplace",
        "label": "bool",
        "numberOfBytes": "1"
      },
      "t_mapping(t_address,t_uint256)": {
        "encoding": "mapping",
        "key": "t_address",
        "label": "mapping(address => uint256)",
        "numberOfBytes": "32",
        "value": "t_uint256"
      },
      "t_uint256": {
        "encoding": "inplace",
        "label": "uint256",
        "numberOfBytes": "32"
      }
    }
  }
}