{
  "address": "0x0E1503A1Df910263A09a97916b65451CE4c438a7",
  "abi": [
    {
      "name": "PenaltyReceiver",
      "inputs": [
        {
          "name": "receiver",
          "type": "address",
          "indexed": false
        }
      ],
      "anonymous": false,
      "type": "event"
    },
    {
      "name": "CommitOwnership",
      "inputs": [
        {
          "name": "admin",
          "type": "address",
          "indexed": false
        }
      ],
      "anonymous": false,
      "type": "event"
    },
    {
      "name": "ApplyOwnership",
      "inputs": [
        {
          "name": "admin",
          "type": "address",
          "indexed": false
        }
      ],
      "anonymous": false,
      "type": "event"
    },
    {
      "name": "Deposit",
      "inputs": [
        {
          "name": "deposit_from",
          "type": "address",
          "indexed": true
        },
        {
          "name": "provider",
          "type": "address",
          "indexed": true
        },
        {
          "name": "value",
          "type": "uint256",
          "indexed": false
        },
        {
          "name": "locktime",
          "type": "uint256",
          "indexed": true
        },
        {
          "name": "type",
          "type": "int128",
          "indexed": false
        },
        {
          "name": "ts",
          "type": "uint256",
          "indexed": false
        }
      ],
      "anonymous": false,
      "type": "event"
    },
    {
      "name": "Withdraw",
      "inputs": [
        {
          "name": "provider",
          "type": "address",
          "indexed": true
        },
        {
          "name": "value",
          "type": "uint256",
          "indexed": false
        },
        {
          "name": "ts",
          "type": "uint256",
          "indexed": false
        }
      ],
      "anonymous": false,
      "type": "event"
    },
    {
      "name": "Supply",
      "inputs": [
        {
          "name": "prevSupply",
          "type": "uint256",
          "indexed": false
        },
        {
          "name": "supply",
          "type": "uint256",
          "indexed": false
        }
      ],
      "anonymous": false,
      "type": "event"
    },
    {
      "stateMutability": "nonpayable",
      "type": "constructor",
      "inputs": [
        {
          "name": "token_addr",
          "type": "address"
        },
        {
          "name": "_name",
          "type": "string"
        },
        {
          "name": "_symbol",
          "type": "string"
        },
        {
          "name": "_version",
          "type": "string"
        }
      ],
      "outputs": []
    },
    {
      "stateMutability": "nonpayable",
      "type": "function",
      "name": "set_penalty_receiver",
      "inputs": [
        {
          "name": "addr",
          "type": "address"
        }
      ],
      "outputs": []
    },
    {
      "stateMutability": "nonpayable",
      "type": "function",
      "name": "commit_transfer_ownership",
      "inputs": [
        {
          "name": "addr",
          "type": "address"
        }
      ],
      "outputs": []
    },
    {
      "stateMutability": "nonpayable",
      "type": "function",
      "name": "apply_transfer_ownership",
      "inputs": [],
      "outputs": []
    },
    {
      "stateMutability": "nonpayable",
      "type": "function",
      "name": "whitelist_contract",
      "inputs": [
        {
          "name": "addr",
          "type": "address"
        }
      ],
      "outputs": []
    },
    {
      "stateMutability": "nonpayable",
      "type": "function",
      "name": "remove_whitelisted_contract",
      "inputs": [
        {
          "name": "addr",
          "type": "address"
        }
      ],
      "outputs": []
    },
    {
      "stateMutability": "nonpayable",
      "type": "function",
      "name": "changeController",
      "inputs": [
        {
          "name": "_newController",
          "type": "address"
        }
      ],
      "outputs": []
    },
    {
      "stateMutability": "view",
      "type": "function",
      "name": "get_last_user_slope",
      "inputs": [
        {
          "name": "addr",
          "type": "address"
        }
      ],
      "outputs": [
        {
          "name": "",
          "type": "int128"
        }
      ]
    },
    {
      "stateMutability": "view",
      "type": "function",
      "name": "user_point_history__ts",
      "inputs": [
        {
          "name": "_addr",
          "type": "address"
        },
        {
          "name": "_idx",
          "type": "uint256"
        }
      ],
      "outputs": [
        {
          "name": "",
          "type": "uint256"
        }
      ]
    },
    {
      "stateMutability": "view",
      "type": "function",
      "name": "locked__end",
      "inputs": [
        {
          "name": "_addr",
          "type": "address"
        }
      ],
      "outputs": [
        {
          "name": "",
          "type": "uint256"
        }
      ]
    },
    {
      "stateMutability": "view",
      "type": "function",
      "name": "balanceOf",
      "inputs": [
        {
          "name": "addr",
          "type": "address"
        }
      ],
      "outputs": [
        {
          "name": "",
          "type": "uint256"
        }
      ]
    },
    {
      "stateMutability": "view",
      "type": "function",
      "name": "balanceOf",
      "inputs": [
        {
          "name": "addr",
          "type": "address"
        },
        {
          "name": "_t",
          "type": "uint256"
        }
      ],
      "outputs": [
        {
          "name": "",
          "type": "uint256"
        }
      ]
    },
    {
      "stateMutability": "view",
      "type": "function",
      "name": "balanceOfAt",
      "inputs": [
        {
          "name": "addr",
          "type": "address"
        },
        {
          "name": "_block",
          "type": "uint256"
        }
      ],
      "outputs": [
        {
          "name": "",
          "type": "uint256"
        }
      ]
    },
    {
      "stateMutability": "view",
      "type": "function",
      "name": "totalSupply",
      "inputs": [],
      "outputs": [
        {
          "name": "",
          "type": "uint256"
        }
      ]
    },
    {
      "stateMutability": "view",
      "type": "function",
      "name": "totalSupply",
      "inputs": [
        {
          "name": "t",
          "type": "uint256"
        }
      ],
      "outputs": [
        {
          "name": "",
          "type": "uint256"
        }
      ]
    },
    {
      "stateMutability": "view",
      "type": "function",
      "name": "totalSupplyAt",
      "inputs": [
        {
          "name": "_block",
          "type": "uint256"
        }
      ],
      "outputs": [
        {
          "name": "",
          "type": "uint256"
        }
      ]
    },
    {
      "stateMutability": "nonpayable",
      "type": "function",
      "name": "checkpoint",
      "inputs": [],
      "outputs": []
    },
    {
      "stateMutability": "nonpayable",
      "type": "function",
      "name": "deposit_for",
      "inputs": [
        {
          "name": "_addr",
          "type": "address"
        },
        {
          "name": "_value",
          "type": "uint256"
        }
      ],
      "outputs": []
    },
    {
      "stateMutability": "nonpayable",
      "type": "function",
      "name": "create_lock",
      "inputs": [
        {
          "name": "_value",
          "type": "uint256"
        },
        {
          "name": "_unlock_time",
          "type": "uint256"
        }
      ],
      "outputs": []
    },
    {
      "stateMutability": "nonpayable",
      "type": "function",
      "name": "create_lock_for",
      "inputs": [
        {
          "name": "_addr",
          "type": "address"
        },
        {
          "name": "_value",
          "type": "uint256"
        },
        {
          "name": "_unlock_time",
          "type": "uint256"
        }
      ],
      "outputs": []
    },
    {
      "stateMutability": "nonpayable",
      "type": "function",
      "name": "increase_amount",
      "inputs": [
        {
          "name": "_value",
          "type": "uint256"
        }
      ],
      "outputs": []
    },
    {
      "stateMutability": "nonpayable",
      "type": "function",
      "name": "increase_amount_for",
      "inputs": [
        {
          "name": "_addr",
          "type": "address"
        },
        {
          "name": "_value",
          "type": "uint256"
        }
      ],
      "outputs": []
    },
    {
      "stateMutability": "nonpayable",
      "type": "function",
      "name": "increase_unlock_time",
      "inputs": [
        {
          "name": "_unlock_time",
          "type": "uint256"
        }
      ],
      "outputs": []
    },
    {
      "stateMutability": "nonpayable",
      "type": "function",
      "name": "withdraw",
      "inputs": [],
      "outputs": []
    },
    {
      "stateMutability": "nonpayable",
      "type": "function",
      "name": "force_withdraw",
      "inputs": [],
      "outputs": []
    },
    {
      "stateMutability": "view",
      "type": "function",
      "name": "token",
      "inputs": [],
      "outputs": [
        {
          "name": "",
          "type": "address"
        }
      ]
    },
    {
      "stateMutability": "view",
      "type": "function",
      "name": "supply",
      "inputs": [],
      "outputs": [
        {
          "name": "",
          "type": "uint256"
        }
      ]
    },
    {
      "stateMutability": "view",
      "type": "function",
      "name": "penaltyReceiver",
      "inputs": [],
      "outputs": [
        {
          "name": "",
          "type": "address"
        }
      ]
    },
    {
      "stateMutability": "view",
      "type": "function",
      "name": "locked",
      "inputs": [
        {
          "name": "arg0",
          "type": "address"
        }
      ],
      "outputs": [
        {
          "name": "amount",
          "type": "int128"
        },
        {
          "name": "end",
          "type": "uint256"
        }
      ]
    },
    {
      "stateMutability": "view",
      "type": "function",
      "name": "epoch",
      "inputs": [],
      "outputs": [
        {
          "name": "",
          "type": "uint256"
        }
      ]
    },
    {
      "stateMutability": "view",
      "type": "function",
      "name": "point_history",
      "inputs": [
        {
          "name": "arg0",
          "type": "uint256"
        }
      ],
      "outputs": [
        {
          "name": "bias",
          "type": "int128"
        },
        {
          "name": "slope",
          "type": "int128"
        },
        {
          "name": "ts",
          "type": "uint256"
        },
        {
          "name": "blk",
          "type": "uint256"
        }
      ]
    },
    {
      "stateMutability": "view",
      "type": "function",
      "name": "user_point_history",
      "inputs": [
        {
          "name": "arg0",
          "type": "address"
        },
        {
          "name": "arg1",
          "type": "uint256"
        }
      ],
      "outputs": [
        {
          "name": "bias",
          "type": "int128"
        },
        {
          "name": "slope",
          "type": "int128"
        },
        {
          "name": "ts",
          "type": "uint256"
        },
        {
          "name": "blk",
          "type": "uint256"
        }
      ]
    },
    {
      "stateMutability": "view",
      "type": "function",
      "name": "user_point_epoch",
      "inputs": [
        {
          "name": "arg0",
          "type": "address"
        }
      ],
      "outputs": [
        {
          "name": "",
          "type": "uint256"
        }
      ]
    },
    {
      "stateMutability": "view",
      "type": "function",
      "name": "slope_changes",
      "inputs": [
        {
          "name": "arg0",
          "type": "uint256"
        }
      ],
      "outputs": [
        {
          "name": "",
          "type": "int128"
        }
      ]
    },
    {
      "stateMutability": "view",
      "type": "function",
      "name": "queuedPenalty",
      "inputs": [],
      "outputs": [
        {
          "name": "",
          "type": "uint256"
        }
      ]
    },
    {
      "stateMutability": "view",
      "type": "function",
      "name": "lastPenaltyTranfer",
      "inputs": [],
      "outputs": [
        {
          "name": "",
          "type": "uint256"
        }
      ]
    },
    {
      "stateMutability": "view",
      "type": "function",
      "name": "controller",
      "inputs": [],
      "outputs": [
        {
          "name": "",
          "type": "address"
        }
      ]
    },
    {
      "stateMutability": "view",
      "type": "function",
      "name": "transfersEnabled",
      "inputs": [],
      "outputs": [
        {
          "name": "",
          "type": "bool"
        }
      ]
    },
    {
      "stateMutability": "view",
      "type": "function",
      "name": "name",
      "inputs": [],
      "outputs": [
        {
          "name": "",
          "type": "string"
        }
      ]
    },
    {
      "stateMutability": "view",
      "type": "function",
      "name": "symbol",
      "inputs": [],
      "outputs": [
        {
          "name": "",
          "type": "string"
        }
      ]
    },
    {
      "stateMutability": "view",
      "type": "function",
      "name": "version",
      "inputs": [],
      "outputs": [
        {
          "name": "",
          "type": "string"
        }
      ]
    },
    {
      "stateMutability": "view",
      "type": "function",
      "name": "decimals",
      "inputs": [],
      "outputs": [
        {
          "name": "",
          "type": "uint256"
        }
      ]
    },
    {
      "stateMutability": "view",
      "type": "function",
      "name": "whitelisted_contracts",
      "inputs": [
        {
          "name": "arg0",
          "type": "address"
        }
      ],
      "outputs": [
        {
          "name": "",
          "type": "bool"
        }
      ]
    },
    {
      "stateMutability": "view",
      "type": "function",
      "name": "admin",
      "inputs": [],
      "outputs": [
        {
          "name": "",
          "type": "address"
        }
      ]
    },
    {
      "stateMutability": "view",
      "type": "function",
      "name": "future_admin",
      "inputs": [],
      "outputs": [
        {
          "name": "",
          "type": "address"
        }
      ]
    }
  ],
  "transactionHash": "0x5752336172e4a5e86a9a57e61b5481690686c1ce7b09d900081057042e69b5a2",
  "args": [
    "0x306547aa4B4241D73ae1e7A5465D277d06C40cbC",
    "veTap Token",
    "veTap",
    "1"
  ],
  "numDeployments": 1,
  "bytecode": "0x6f7fffffffffffffffffffffffffffffff60405260806137ba6101403960206137ba60c03960c05160a01c6137b5576060602060206137ba0160c03960c0516137ba016101c0396040602060206137ba0160c03960c05160040135116137b5576040602060406137ba0160c03960c0516137ba01610240396020602060406137ba0160c03960c05160040135116137b5576040602060606137ba0160c03960c0516137ba016102a0396020602060606137ba0160c03960c05160040135116137b557336c050c783eb9b5c840000000002055610140516008554360105542600f55336c050c783eb9b5c84000000000125560016c050c783eb9b5c8400000000013556020610380600463313ce5676103205261033c610140515afa156137b557601f3d11156137b557600050610380516103005260ff610300511115610184576308c379a0610320526020610340526012610360527f646563696d616c73206e6f742076616c696400000000000000000000000000006103805261036050606461033cfd5b610300516c050c783eb9b5c840000000001e556101c0806c050c783eb9b5c8400000000014602082510161012060006003818352015b826101205160200211156101cd576101ef565b61012051602002850151610120518501555b81516001018083528114156101ba575b505050505050610240806c050c783eb9b5c8400000000018602082510161012060006002818352015b8261012051602002111561022b5761024d565b61012051602002850151610120518501555b8151600101808352811415610218575b5050505050506102a0806c050c783eb9b5c840000000001b602082510161012060006002818352015b82610120516020021115610289576102ab565b61012051602002850151610120518501555b8151600101808352811415610276575b50505050505033600a5561379d56600436101561000d57612754565b600035601c526f7fffffffffffffffffffffffffffffff604052600051346134de5763f10f96758114156101255760043560a01c6134de576c050c783eb9b5c840000000002054331461009f576308c379a061014052602061016052600c610180527f756e617574686f72697a656400000000000000000000000000000000000000006101a05261018050606461015cfd5b600060043514156100ef576308c379a0610140526020610160526012610180527f7265636569766572206e6f742076616c696400000000000000000000000000006101a05261018050606461015cfd5b600435600a55600435610140527f3d961bca850722a4d7e65a794ee39676228c4fdb66ac3edc523826c3a4c151666020610140a1005b636b441a408114156101d75760043560a01c6134de576c050c783eb9b5c8400000000020543314610195576308c379a061014052602061016052600c610180527f756e617574686f72697a656400000000000000000000000000000000000000006101a05261018050606461015cfd5b6004356c050c783eb9b5c840000000002155600435610140527f2f56810a6bf40af059b96d3aea4db54081f378029a518390491093a7b67032e96020610140a1005b636a1c05ae8114156102e5576c050c783eb9b5c840000000002054331461023d576308c379a061014052602061016052600c610180527f756e617574686f72697a656400000000000000000000000000000000000000006101a05261018050606461015cfd5b6c050c783eb9b5c8400000000021546101405260006101405114156102a1576308c379a061016052602061018052600f6101a0527f61646d696e206e6f742076616c696400000000000000000000000000000000006101c0526101a050606461017cfd5b610140516c050c783eb9b5c84000000000205561014051610160527febee2d5739011062cb4f14113f3b36bf0ffe3da5c0568f64189d1012a11891056020610160a1005b6388e5f9ce8114156103765760043560a01c6134de576c050c783eb9b5c8400000000020543314610355576308c379a061014052602061016052600c610180527f756e617574686f72697a656400000000000000000000000000000000000000006101a05261018050606461015cfd5b60016c050c783eb9b5c840000000001f60043560e05260c052604060c02055005b63a1ca25578114156104075760043560a01c6134de576c050c783eb9b5c84000000000205433146103e6576308c379a061014052602061016052600c610180527f756e617574686f72697a656400000000000000000000000000000000000000006101a05261018050606461015cfd5b60006c050c783eb9b5c840000000001f60043560e05260c052604060c02055005b633cebb82381141561048b5760043560a01c6134de576c050c783eb9b5c8400000000012543314610477576308c379a061014052602061016052600c610180527f756e617574686f72697a656400000000000000000000000000000000000000006101a05261018050606461015cfd5b6004356c050c783eb9b5c840000000001255005b637c74a1748114156104ff5760043560a01c6134de576c050c783eb9b5c840000000000e60043560e05260c052604060c02054610140526001600461014051633b9aca008110156134de57026c050c783eb9b5c840000000000d60043560e05260c052604060c02001015460005260206000f35b63da020a188114156105515760043560a01c6134de5760026004602435633b9aca008110156134de57026c050c783eb9b5c840000000000d60043560e05260c052604060c02001015460005260206000f35b63adc635898114156105845760043560a01c6134de576001600b60043560e05260c052604060c020015460005260206000f35b6370a0823181141561059a5742610140526105ba565b62fdd58e8114156105b55760206024610140376000506105ba565b6106e2565b60043560a01c6134de576c050c783eb9b5c840000000000e60043560e05260c052604060c0205461016052610160516105fc57600060005260206000f36106e0565b610180600461016051633b9aca008110156134de57026c050c783eb9b5c840000000000d60043560e05260c052604060c0200180548252600181015482602001526002810154826040015260038101548260600152505061018080516101a051610140516101c0518082106134de578082039050905060405181116134de578082028080600081121561068b57195b607f1c6134de57905090509050808203808060008112156106a857195b607f1c6134de5790509050905081525060006101805112156106cb576000610180525b61018051600081126134de5760005260206000f35b005b634ee2cd7e811415610b215760043560a01c6134de57436024351115610747576308c379a061014052602061016052600f610180527f626c6f636b206e6f742076616c696400000000000000000000000000000000006101a05261018050606461015cfd5b6000610140526c050c783eb9b5c840000000000e60043560e05260c052604060c020546101605261018060006080818352015b61016051610140511061078c57610836565b610140516101605181818301106134de5780820190509050600181818301106134de57808201905090506002808204905090506101a052602435600360046101a051633b9aca008110156134de57026c050c783eb9b5c840000000000d60043560e05260c052604060c0200101541161080c576101a05161014052610825565b6101a05160018082106134de5780820390509050610160525b5b815160010180835281141561077a575b5050610180600461014051633b9aca008110156134de57026c050c783eb9b5c840000000000d60043560e05260c052604060c02001805482526001810154826020015260028101548260400152600381015482606001525050600c54610200526101405161016051610180516101a0516101c0516101e0516102005161022051602435610240526102005161026052610260516102405160065801613237565b6102c05261022052610200526101e0526101c0526101a0526101805261016052610140526102c051610220526102406004610220516c01431e0fae6d7217caa00000008110156134de5702600d018054825260018101548260200152600281015482604001526003810154826060015250506040366102c037610200516102205110156109ee57610300600461022051600181818301106134de57808201905090506c01431e0fae6d7217caa00000008110156134de5702600d01805482526001810154826020015260028101548260400152600381015482606001525050610360516102a0518082106134de57808203905090506102c05261034051610280518082106134de57808203905090506102e052610a1d565b436102a0518082106134de57808203905090506102c05242610280518082106134de57808203905090506102e0525b610280516103005260006102c0511815610a8b5761030080516102e0516024356102a0518082106134de57808203905090508082028215828483041417156134de57809050905090506102c0518080156134de5782049050905081818301106134de57808201905090508152505b61018080516101a051610300516101c0518082106134de578082039050905060405181116134de5780820280806000811215610ac357195b607f1c6134de5790509050905080820380806000811215610ae057195b607f1c6134de5790509050905081525060006101805112610b145761018051600081126134de5760005260206000f3610b1f565b600060005260206000f35b005b6318160ddd811415610b37574261014052610b58565b63bd85b039811415610b53576020600461014037600050610b58565b610c35565b600c54610160526101806004610160516c01431e0fae6d7217caa00000008110156134de5702600d018054825260018101548260200152600281015482604001526003810154826060015250506101405161016051610180516101a0516101c0516101e051610200610180805182528060200151826020015280604001518260400152806060015182606001525050610140516102805261028051610260516102405161022051610200516006580161331b565b6102e0526101e0526101c0526101a0526101805261016052610140526102e05160005260206000f35b63981b24d0811415610f1e57436004351115610c90576308c379a061014052602061016052600f610180527f626c6f636b206e6f742076616c696400000000000000000000000000000000006101a05261018050606461015cfd5b600c5461014052610140516101605160043561018052610140516101a0526101a0516101805160065801613237565b61020052610160526101405261020051610160526101806004610160516c01431e0fae6d7217caa00000008110156134de5702600d0180548252600181015482602001526002810154826040015260038101548260600152505060006102005261014051610160511015610e0257610220600461016051600181818301106134de57808201905090506c01431e0fae6d7217caa00000008110156134de5702600d01805482526001810154826020015260028101548260400152600381015482606001525050610280516101e0511815610dfd576004356101e0518082106134de5780820390509050610260516101c0518082106134de57808203905090508082028215828483041417156134de5780905090509050610280516101e0518082106134de57808203905090508080156134de57820490509050610200525b610e72565b436101e0511815610e71576004356101e0518082106134de5780820390509050426101c0518082106134de57808203905090508082028215828483041417156134de5780905090509050436101e0518082106134de57808203905090508080156134de57820490509050610200525b5b6101405161016051610180516101a0516101c0516101e051610200516102206101808051825280602001518260200152806040015182604001528060600151826060015250506101c0516102005181818301106134de57808201905090506102a0526102a051610280516102605161024051610220516006580161331b565b61030052610200526101e0526101c0526101a0526101805261016052610140526103005160005260206000f35b63c2c4c5c1811415610fac5760403661014037604036610180376101405161016051610180516101a05160006101c0526101e061014080518252806020015182602001525050610220610180805182528060200151826020015250506102405161022051610200516101e0516101c051600658016127e1565b6101a052610180526101605261014052600050005b633a46273e81141561115a576000546134de57600160005560043560a01c6134de57610140600b60043560e05260c052604060c02080548252600181015482602001525050600060243511611040576308c379a06101805260206101a052600f6101c0527f76616c7565206e6f742076616c696400000000000000000000000000000000006101e0526101c050606461019cfd5b60006101405113611090576308c379a06101805260206101a05260176101c0527f6c6f636b656420616d6f756e74206e6f742076616c69640000000000000000006101e0526101c050606461019cfd5b4261016051116110df576308c379a06101805260206101a05260146101c0527f6c6f636b656420656e64206e6f742076616c69640000000000000000000000006101e0526101c050606461019cfd5b61014051610160513361018052604060046101a03760006101e052610200600b60043560e05260c052604060c020805482526001810154826020015250506000610240526102405161022051610200516101e0516101c0516101a0516101805160065801612fb3565b61016052610140526000506000600055005b6365fc38738114156113a2576001546134de5760016001553361014052610140516006580161275a565b60005060243562093a808082049050905062093a808082028215828483041417156134de578090509050905061014052610160600b3360e05260c052604060c02080548252600181015482602001525050600060043511611224576308c379a06101a05260206101c052600f6101e0527f76616c7565206e6f742076616c69640000000000000000000000000000000000610200526101e05060646101bcfd5b6101605115611272576308c379a06101a05260206101c05260176101e0527f6c6f636b656420616d6f756e74206e6f742076616c6964000000000000000000610200526101e05060646101bcfd5b4261014051116112c1576308c379a06101a05260206101c05260156101e0527f756e6c6f636b2074696d65206e6f742076616c69640000000000000000000000610200526101e05060646101bcfd5b426303c2670081818301106134de5780820190509050610140511115611326576308c379a06101a05260206101c05260136101e0527f756e6c6f636b2074696d6520746f6f2062696700000000000000000000000000610200526101e05060646101bcfd5b610140516101605161018051336101a052336101c0526004356101e052610140516102005261022061016080518252806020015182602001525050600161026052610260516102405161022051610200516101e0516101c0516101a05160065801612fb3565b6101805261016052610140526000506000600155005b633e173b2981141561164a576002546134de57600160025560043560a01c6134de576008543314156113d55760016113e7565b6c050c783eb9b5c84000000000205433145b5b611431576308c379a061014052602061016052600c610180527f756e617574686f72697a656400000000000000000000000000000000000000006101a05261018050606461015cfd5b60443562093a808082049050905062093a808082028215828483041417156134de578090509050905061014052610160600b60043560e05260c052604060c020805482526001810154826020015250506000602435116114d0576308c379a06101a05260206101c052600f6101e0527f76616c7565206e6f742076616c69640000000000000000000000000000000000610200526101e05060646101bcfd5b610160511561151e576308c379a06101a05260206101c05260176101e0527f6c6f636b656420616d6f756e74206e6f742076616c6964000000000000000000610200526101e05060646101bcfd5b42610140511161156d576308c379a06101a05260206101c05260156101e0527f756e6c6f636b2074696d65206e6f742076616c69640000000000000000000000610200526101e05060646101bcfd5b426303c2670081818301106134de57808201905090506101405111156115d2576308c379a06101a05260206101c05260136101e0527f756e6c6f636b2074696d6520746f6f2062696700000000000000000000000000610200526101e05060646101bcfd5b610140516101605161018051336101a052604060046101c037610140516102005261022061016080518252806020015182602001525050600161026052610260516102405161022051610200516101e0516101c0516101a05160065801612fb3565b6101805261016052610140526000506000600255005b634957677c8114156117f8576003546134de5760016003553361014052610140516006580161275a565b600050610140600b3360e05260c052604060c020805482526001810154826020015250506000600435116116e7576308c379a06101805260206101a052600f6101c0527f76616c7565206e6f742076616c696400000000000000000000000000000000006101e0526101c050606461019cfd5b60006101405113611737576308c379a06101805260206101a05260176101c0527f6c6f636b656420616d6f756e74206e6f742076616c69640000000000000000006101e0526101c050606461019cfd5b426101605111611786576308c379a06101805260206101a05260146101c0527f6c6f636b656420656e64206e6f742076616c69640000000000000000000000006101e0526101c050606461019cfd5b61014051610160513361018052336101a0526004356101c05260006101e052610200610140805182528060200151826020015250506002610240526102405161022051610200516101e0516101c0516101a0516101805160065801612fb3565b61016052610140526000506000600355005b63e8648376811415611a1d576004546134de57600160045560043560a01c6134de5760085433141561182b57600161183d565b6c050c783eb9b5c84000000000205433145b5b611887576308c379a061014052602061016052600c610180527f756e617574686f72697a656400000000000000000000000000000000000000006101a05261018050606461015cfd5b60043561014052610140516006580161275a565b600050610140600b60043560e05260c052604060c02080548252600181015482602001525050600060243511611910576308c379a06101805260206101a052600f6101c0527f76616c7565206e6f742076616c696400000000000000000000000000000000006101e0526101c050606461019cfd5b60006101405113611960576308c379a06101805260206101a05260176101c0527f6c6f636b656420616d6f756e74206e6f742076616c69640000000000000000006101e0526101c050606461019cfd5b4261016051116119af576308c379a06101805260206101a05260146101c0527f6c6f636b656420656e64206e6f742076616c69640000000000000000000000006101e0526101c050606461019cfd5b61014051610160513361018052604060046101a03760006101e052610200610140805182528060200151826020015250506002610240526102405161022051610200516101e0516101c0516101a0516101805160065801612fb3565b61016052610140526000506000600455005b63eff7a612811415611c69576005546134de5760016005553361014052610140516006580161275a565b600050610140600b3360e05260c052604060c0208054825260018101548260200152505060043562093a808082049050905062093a808082028215828483041417156134de578090509050905061018052426101605111611ae7576308c379a06101a05260206101c05260146101e0527f6c6f636b656420656e64206e6f742076616c6964000000000000000000000000610200526101e05060646101bcfd5b60006101405113611b37576308c379a06101a05260206101c05260176101e0527f6c6f636b656420616d6f756e74206e6f742076616c6964000000000000000000610200526101e05060646101bcfd5b610160516101805111611b89576308c379a06101a05260206101c05260156101e0527f756e6c6f636b2074696d65206e6f742076616c69640000000000000000000000610200526101e05060646101bcfd5b426303c2670081818301106134de5780820190509050610180511115611bee576308c379a06101a05260206101c05260136101e0527f756e6c6f636b2074696d6520746f6f2062696700000000000000000000000000610200526101e05060646101bcfd5b610140516101605161018051336101a052336101c05260006101e052610180516102005261022061014080518252806020015182602001525050600361026052610260516102405161022051610200516101e0516101c0516101a05160065801612fb3565b6101805261016052610140526000506000600555005b633ccfd60b811415611eac576006546134de576001600655610140600b3360e05260c052604060c0208054825260018101548260200152505061016051421015611cf2576308c379a06101805260206101a05260146101c0527f6c6f636b656420656e64206e6f742076616c69640000000000000000000000006101e0526101c050606461019cfd5b61014051600081126134de57610180526101a061014080518252806020015182602001525050600061016052600061014052600b3360e05260c052604060c020610140805182558060200151600183015550506009546101e0526101e051610180518082106134de57808203905090506009556101405161016051610180516101a0516101c0516101e05133610200526102206101a080518252806020015182602001525050610260610140805182528060200151826020015250506102805161026051610240516102205161020051600658016127e1565b6101e0526101c0526101a05261018052610160526101405260005060206102a0604463a9059cbb610200523361022052610180516102405261021c60006008545af1156134de57601f3d11156134de576000506102a051156134de5761018051610200524261022052337ff279e6a1f5e320cca91135676d9cb6e44ca8a08c0b88342bcdb1144f6511b5686040610200a26101e051610200526101e051610180518082106134de5780820390509050610220527f5e2aa66efd74cce82b21852e317e5490d9ecc9e6bb953ae24d90851258cc2f5c6040610200a16000600655005b63a81f20ad8114156121ee576007546134de576001600755610140600b3360e05260c052604060c02080548252600181015482602001525050610160514210611f34576308c379a06101805260206101a05260146101c0527f6c6f636b656420656e64206e6f742076616c69640000000000000000000000006101e0526101c050606461019cfd5b61016051428082106134de578082039050905061018052670a688906bd8b0000670de0b6b3a7640000610180518082028215828483041417156134de57809050905090506303c267008082049050905080821115611f925780611f94565b815b905090506101a05261014051600081126134de576101c0526101e061014080518252806020015182602001525050600061016052600061014052600b3360e05260c052604060c0206101408051825580602001516001830155505060095461022052610220516101c0518082106134de57808203905090506009556101405161016051610180516101a0516101c0516101e051610200516102205133610240526102606101e0805182528060200151826020015250506102a0610140805182528060200151826020015250506102c0516102a051610280516102605161024051600658016127e1565b61022052610200526101e0526101c0526101a0526101805261016052610140526000506101c0516101a0518082028215828483041417156134de5780905090509050670de0b6b3a764000080820490509050610240526020610300604463a9059cbb6102605233610280526101c051610240518082106134de57808203905090506102a05261027c60006008545af1156134de57601f3d11156134de5760005061030051156134de576020610300604463a9059cbb61026052600a5461028052610240516102a05261027c60006008545af1156134de57601f3d11156134de5760005061030051156134de576101c051610260524261028052337ff279e6a1f5e320cca91135676d9cb6e44ca8a08c0b88342bcdb1144f6511b5686040610260a26102205161026052610220516101c0518082106134de5780820390509050610280527f5e2aa66efd74cce82b21852e317e5490d9ecc9e6bb953ae24d90851258cc2f5c6040610260a16000600755005b63fc0c546a8114156122065760085460005260206000f35b63047fc9aa81141561221e5760095460005260206000f35b63e1b7fd4281141561223657600a5460005260206000f35b63cbf9fe5f81141561228a5760043560a01c6134de57600b60043560e05260c052604060c020610140808080845481525050602081019050808060018501548152505060409050905060c05260c051610140f35b63900cf0cf8114156122a257600c5460005260206000f35b63d1febfb981141561231c5760046004356c01431e0fae6d7217caa00000008110156134de5702600d0161014080808084548152505060208101905080806001850154815250506020810190508080600285015481525050602081019050808060038501548152505060809050905060c05260c051610140f35b6328d09d478114156123b15760043560a01c6134de576004602435633b9aca008110156134de57026c050c783eb9b5c840000000000d60043560e05260c052604060c0200161014080808084548152505060208101905080806001850154815250506020810190508080600285015481525050602081019050808060038501548152505060809050905060c05260c051610140f35b63010ae7578114156123ed5760043560a01c6134de576c050c783eb9b5c840000000000e60043560e05260c052604060c0205460005260206000f35b637119748481141561241f576c050c783eb9b5c840000000000f60043560e05260c052604060c0205460005260206000f35b6342886b67811415612443576c050c783eb9b5c84000000000105460005260206000f35b63915b166c811415612467576c050c783eb9b5c84000000000115460005260206000f35b63f77c479181141561248b576c050c783eb9b5c84000000000125460005260206000f35b63bef97c878114156124af576c050c783eb9b5c84000000000135460005260206000f35b6306fdde03811415612558576c050c783eb9b5c840000000001480610180602082540161012060006003818352015b826101205160200211156124f157612513565b61012051850154610120516020028501525b81516001018083528114156124de575b50505050505061018051806101a001818260206001820306601f82010390500336823750506020610160526040610180510160206001820306601f8201039050610160f35b6395d89b41811415612601576c050c783eb9b5c840000000001880610180602082540161012060006002818352015b8261012051602002111561259a576125bc565b61012051850154610120516020028501525b8151600101808352811415612587575b50505050505061018051806101a001818260206001820306601f82010390500336823750506020610160526040610180510160206001820306601f8201039050610160f35b6354fd4d508114156126aa576c050c783eb9b5c840000000001b80610180602082540161012060006002818352015b8261012051602002111561264357612665565b61012051850154610120516020028501525b8151600101808352811415612630575b50505050505061018051806101a001818260206001820306601f82010390500336823750506020610160526040610180510160206001820306601f8201039050610160f35b63313ce5678114156126ce576c050c783eb9b5c840000000001e5460005260206000f35b6324759f8181141561270a5760043560a01c6134de576c050c783eb9b5c840000000001f60043560e05260c052604060c0205460005260206000f35b63f851a44081141561272e576c050c783eb9b5c84000000000205460005260206000f35b6317f7182a811415612752576c050c783eb9b5c84000000000215460005260206000f35b505b60006000fd5b6101605261014052326101405118156127db576c050c783eb9b5c840000000001f6101405160e05260c052604060c02054156127965761016051565b6308c379a06101805260206101a05260126101c0527f636f6e7472616374206e6f742076616c696400000000000000000000000000006101e0526101c050606461019cfd5b61016051565b6101e0526101405261016052610180526101a0526101c0526101403661020037600c54610340526000610140511815612998574261018051111561282b576000610160511361282e565b60005b1561289f57610160516303c267008082058080600081121561284c57195b607f1c6134de57905090509050610220526102205161018051428082106134de578082039050905060405181116134de578082028080600081121561288d57195b607f1c6134de57905090509050610200525b426101c05111156128b65760006101a051136128b9565b60005b1561292a576101a0516303c26700808205808060008112156128d757195b607f1c6134de579050905090506102a0526102a0516101c051428082106134de578082039050905060405181116134de578082028080600081121561291857195b607f1c6134de57905090509050610280525b6c050c783eb9b5c840000000000f6101805160e05260c052604060c020546103005260006101c051181561299757610180516101c0511415612973576103005161032052612996565b6c050c783eb9b5c840000000000f6101c05160e05260c052604060c02054610320525b5b5b6103606000815260008160200152428160400152438160600152506000610340511115612a06576103606004610340516c01431e0fae6d7217caa00000008110156134de5702600d018054825260018101548260200152600281015482604001526003810154826060015250505b6103a0516103e0526104006103608051825280602001518260200152806040015182604001528060600151826060015250506000610480526103a051421115612aa157670de0b6b3a7640000436103c0518082106134de57808203905090508082028215828483041417156134de5780905090509050426103a0518082106134de57808203905090508080156134de57820490509050610480525b6103e05162093a808082049050905062093a808082028215828483041417156134de57809050905090506104a0526104c0600060ff818352015b6104a0805162093a8081818301106134de578082019050905081525060006104e052426104a0511115612b1257426104a052612b35565b6c050c783eb9b5c840000000000f6104a05160e05260c052604060c020546104e0525b6103608051610380516104a0516103e0518082106134de578082039050905060405181116134de5780820280806000811215612b6d57195b607f1c6134de5790509050905080820380806000811215612b8a57195b607f1c6134de5790509050905081525061038080516104e05180820180806000811215612bb357195b607f1c6134de579050905090508152506000610360511215612bd6576000610360525b6000610380511215612be9576000610380525b6104a0516103e0526104a0516103a05261046051610480516104a051610440518082106134de57808203905090508082028215828483041417156134de5780905090509050670de0b6b3a76400008082049050905081818301106134de57808201905090506103c0526103408051600181818301106134de5780820190509050815250426104a0511415612c8557436103c052612cdd56612ccc565b6004610340516c01431e0fae6d7217caa00000008110156134de5702600d016103608051825580602001516001830155806040015160028301558060600151600383015550505b5b8151600101808352811415612adb575b505061034051600c556000610140511815612dad5761038080516102a0516102205180820380806000811215612d0f57195b607f1c6134de5790509050905080820180806000811215612d2c57195b607f1c6134de579050905090508152506103608051610280516102005180820380806000811215612d5957195b607f1c6134de5790509050905080820180806000811215612d7657195b607f1c6134de579050905090508152506000610380511215612d99576000610380525b6000610360511215612dac576000610360525b5b6004610340516c01431e0fae6d7217caa00000008110156134de5702600d016103608051825580602001516001830155806040015160028301558060600151600383015550506000610140511815612fad5742610180511115612e8e5761030080516102205180820180806000811215612e2357195b607f1c6134de57905090509050815250610180516101c0511415612e6b5761030080516102a05180820380806000811215612e5a57195b607f1c6134de579050905090508152505b610300516c050c783eb9b5c840000000000f6101805160e05260c052604060c020555b426101c0511115612ef457610180516101c0511115612ef35761032080516102a05180820380806000811215612ec057195b607f1c6134de57905090509050815250610320516c050c783eb9b5c840000000000f6101c05160e05260c052604060c020555b5b6c050c783eb9b5c840000000000e6101405160e05260c052604060c02054600181818301106134de57808201905090506104c0526104c0516c050c783eb9b5c840000000000e6101405160e05260c052604060c02055426102c052436102e05260046104c051633b9aca008110156134de57026c050c783eb9b5c840000000000d6101405160e05260c052604060c020016102808051825580602001516001830155806040015160028301558060600151600383015550505b6101e051565b610220526101405261016052610180526101a0526101c0526101e052610200526102406101c08051825280602001518260200152505060095461028052610280516101805181818301106134de57808201905090506009556102a06102408051825280602001518260200152505061024080516101805160405181116134de578082018080600081121561304357195b607f1c6134de5790509050905081525060006101a0511815613068576101a051610260525b600b6101605160e05260c052604060c020610240805182558060200151600183015550506101405161016051610180516101a0516101c0516101e05161020051610220516102405161026051610280516102a0516102c051610160516102e0526103006102a08051825280602001518260200152505061034061024080518252806020015182602001525050610360516103405161032051610300516102e051600658016127e1565b6102c0526102a05261028052610260526102405261022052610200526101e0526101c0526101a052610180526101605261014052600050600061018051181561319e5760206103a060646323b872dd6102e0526101405161030052306103205261018051610340526102fc60006008545af1156134de57601f3d11156134de576000506103a051156134de575b610180516102e052610200516103005242610320526102605161016051610140517f4ace3cb811d903eba44ce1721d1a1d79232246711977f44236000551f8c11cc160606102e0a4610280516102e052610280516101805181818301106134de5780820190509050610300527f5e2aa66efd74cce82b21852e317e5490d9ecc9e6bb953ae24d90851258cc2f5c60406102e0a161022051565b61018052610140526101605260006101a052610160516101c0526101e060006080818352015b6101c0516101a0511061326f57613309565b6101a0516101c05181818301106134de5780820190509050600181818301106134de5780820190509050600280820490509050610200526101405160036004610200516c01431e0fae6d7217caa00000008110156134de5702600d010154116132df57610200516101a0526132f8565b6102005160018082106134de57808203905090506101c0525b5b815160010180835281141561325d575b50506101a05160005260005161018051565b6101e0526101405261016052610180526101a0526101c0526102006101408051825280602001518260200152806040015182604001528060600151826060015250506102405162093a808082049050905062093a808082028215828483041417156134de5780905090509050610280526102a0600060ff818352015b610280805162093a8081818301106134de578082019050905081525060006102c0526101c0516102805111156133d4576101c051610280526133f7565b6c050c783eb9b5c840000000000f6102805160e05260c052604060c020546102c0525b61020080516102205161028051610240518082106134de578082039050905060405181116134de578082028080600081121561342f57195b607f1c6134de579050905090508082038080600081121561344c57195b607f1c6134de579050905090508152506101c05161028051141561346f576134b1565b61022080516102c0518082018080600081121561348857195b607f1c6134de5790509050905081525061028051610240525b8151600101808352811415613397575b505060006102005112156134c6576000610200525b61020051600081126134de576000526000516101e051565b600080fd5b6102ba61379d036102ba6000396102ba61379d036000f35b600080fd"
}